{
  "contractName": "MyblogApp",
  "abi": [
    {
      "anonymous": false,
      "inputs": [
        {
          "indexed": true,
          "internalType": "bytes32",
          "name": "postId",
          "type": "bytes32"
        },
        {
          "indexed": true,
          "internalType": "bytes32",
          "name": "commentId",
          "type": "bytes32"
        },
        {
          "indexed": false,
          "internalType": "address",
          "name": "commenterAddress",
          "type": "address"
        },
        {
          "indexed": false,
          "internalType": "string",
          "name": "commenterName",
          "type": "string"
        },
        {
          "indexed": false,
          "internalType": "string",
          "name": "content",
          "type": "string"
        },
        {
          "indexed": false,
          "internalType": "uint256",
          "name": "timestamp",
          "type": "uint256"
        }
      ],
      "name": "CommentAdded",
      "type": "event"
    },
    {
      "anonymous": false,
      "inputs": [
        {
          "indexed": true,
          "internalType": "bytes32",
          "name": "postId",
          "type": "bytes32"
        },
        {
          "indexed": true,
          "internalType": "bytes32",
          "name": "commentId",
          "type": "bytes32"
        },
        {
          "indexed": false,
          "internalType": "address",
          "name": "voter",
          "type": "address"
        },
        {
          "indexed": false,
          "internalType": "bool",
          "name": "isUpvote",
          "type": "bool"
        }
      ],
      "name": "CommentVoted",
      "type": "event"
    },
    {
      "anonymous": false,
      "inputs": [
        {
          "indexed": true,
          "internalType": "bytes32",
          "name": "postId",
          "type": "bytes32"
        },
        {
          "indexed": true,
          "internalType": "address",
          "name": "voter",
          "type": "address"
        },
        {
          "indexed": false,
          "internalType": "bool",
          "name": "isUpvote",
          "type": "bool"
        }
      ],
      "name": "PostVoted",
      "type": "event"
    },
    {
      "anonymous": false,
      "inputs": [
        {
          "indexed": true,
          "internalType": "bytes32",
          "name": "postId",
          "type": "bytes32"
        },
        {
          "indexed": false,
          "internalType": "string",
          "name": "title",
          "type": "string"
        },
        {
          "indexed": false,
          "internalType": "string",
          "name": "author",
          "type": "string"
        },
        {
          "indexed": false,
          "internalType": "uint256",
          "name": "timestamp",
          "type": "uint256"
        }
      ],
      "name": "Postcreation",
      "type": "event"
    },
    {
      "inputs": [
        {
          "internalType": "string",
          "name": "_author",
          "type": "string"
        },
        {
          "internalType": "string",
          "name": "_title",
          "type": "string"
        },
        {
          "internalType": "string",
          "name": "_contentHash",
          "type": "string"
        }
      ],
      "name": "createPost",
      "outputs": [],
      "stateMutability": "nonpayable",
      "type": "function"
    },
    {
      "inputs": [
        {
          "internalType": "bytes32",
          "name": "_postId",
          "type": "bytes32"
        }
      ],
      "name": "upvotePost",
      "outputs": [],
      "stateMutability": "nonpayable",
      "type": "function"
    },
    {
      "inputs": [
        {
          "internalType": "bytes32",
          "name": "_postId",
          "type": "bytes32"
        }
      ],
      "name": "downvotePost",
      "outputs": [],
      "stateMutability": "nonpayable",
      "type": "function"
    },
    {
      "inputs": [
        {
          "internalType": "bytes32",
          "name": "_postId",
          "type": "bytes32"
        },
        {
          "internalType": "string",
          "name": "_commenterName",
          "type": "string"
        },
        {
          "internalType": "string",
          "name": "_content",
          "type": "string"
        }
      ],
      "name": "addComment",
      "outputs": [],
      "stateMutability": "nonpayable",
      "type": "function"
    },
    {
      "inputs": [
        {
          "internalType": "bytes32",
          "name": "_postId",
          "type": "bytes32"
        },
        {
          "internalType": "uint256",
          "name": "_commentIndex",
          "type": "uint256"
        }
      ],
      "name": "upvoteComment",
      "outputs": [],
      "stateMutability": "nonpayable",
      "type": "function"
    },
    {
      "inputs": [
        {
          "internalType": "bytes32",
          "name": "_postId",
          "type": "bytes32"
        },
        {
          "internalType": "uint256",
          "name": "_commentIndex",
          "type": "uint256"
        }
      ],
      "name": "downvoteComment",
      "outputs": [],
      "stateMutability": "nonpayable",
      "type": "function"
    },
    {
      "inputs": [],
      "name": "getAllPosts",
      "outputs": [
        {
          "components": [
            {
              "internalType": "bytes32",
              "name": "id",
              "type": "bytes32"
            },
            {
              "internalType": "string",
              "name": "author",
              "type": "string"
            },
            {
              "internalType": "string",
              "name": "title",
              "type": "string"
            },
            {
              "internalType": "string",
              "name": "contentHash",
              "type": "string"
            },
            {
              "internalType": "uint256",
              "name": "upvote",
              "type": "uint256"
            },
            {
              "internalType": "uint256",
              "name": "downvote",
              "type": "uint256"
            },
            {
              "internalType": "uint256",
              "name": "timestamp",
              "type": "uint256"
            }
          ],
          "internalType": "struct MyblogApp.Post[]",
          "name": "",
          "type": "tuple[]"
        }
      ],
      "stateMutability": "view",
      "type": "function",
      "constant": true
    },
    {
      "inputs": [
        {
          "internalType": "address",
          "name": "_user",
          "type": "address"
        }
      ],
      "name": "getAllPostsOfUser",
      "outputs": [
        {
          "components": [
            {
              "internalType": "bytes32",
              "name": "id",
              "type": "bytes32"
            },
            {
              "internalType": "string",
              "name": "author",
              "type": "string"
            },
            {
              "internalType": "string",
              "name": "title",
              "type": "string"
            },
            {
              "internalType": "string",
              "name": "contentHash",
              "type": "string"
            },
            {
              "internalType": "uint256",
              "name": "upvote",
              "type": "uint256"
            },
            {
              "internalType": "uint256",
              "name": "downvote",
              "type": "uint256"
            },
            {
              "internalType": "uint256",
              "name": "timestamp",
              "type": "uint256"
            }
          ],
          "internalType": "struct MyblogApp.Post[]",
          "name": "",
          "type": "tuple[]"
        }
      ],
      "stateMutability": "view",
      "type": "function",
      "constant": true
    },
    {
      "inputs": [
        {
          "internalType": "bytes32",
          "name": "_postId",
          "type": "bytes32"
        }
      ],
      "name": "getComments",
      "outputs": [
        {
          "components": [
            {
              "internalType": "bytes32",
              "name": "id",
              "type": "bytes32"
            },
            {
              "internalType": "address",
              "name": "commenterAddress",
              "type": "address"
            },
            {
              "internalType": "string",
              "name": "commenterName",
              "type": "string"
            },
            {
              "internalType": "string",
              "name": "content",
              "type": "string"
            },
            {
              "internalType": "uint256",
              "name": "upvote",
              "type": "uint256"
            },
            {
              "internalType": "uint256",
              "name": "downvote",
              "type": "uint256"
            },
            {
              "internalType": "uint256",
              "name": "timestamp",
              "type": "uint256"
            }
          ],
          "internalType": "struct MyblogApp.Comment[]",
          "name": "",
          "type": "tuple[]"
        }
      ],
      "stateMutability": "view",
      "type": "function",
      "constant": true
    }
  ],
  "bytecode": "0x6080604052348015600f57600080fd5b5061270f8061001f6000396000f3fe608060405234801561001057600080fd5b50600436106100935760003560e01c8063a7503db211610066578063a7503db21461011e578063cdb1d17e1461013a578063e2fc269114610156578063e8a4a1eb14610172578063f7ba787d1461018e57610093565b80632cfdcc6b1461009857806330561100146100c8578063a54ff9ac146100e6578063a6c86b5b14610102575b600080fd5b6100b260048036038101906100ad919061170b565b6101be565b6040516100bf9190611966565b60405180910390f35b6100d0610503565b6040516100dd9190611966565b60405180910390f35b61010060048036038101906100fb91906119b4565b6107bd565b005b61011c60048036038101906101179190611a0d565b61099e565b005b61013860048036038101906101339190611b82565b610be1565b005b610154600480360381019061014f9190611a0d565b610e1f565b005b610170600480360381019061016b91906119b4565b611062565b005b61018c60048036038101906101879190611c0d565b611243565b005b6101a860048036038101906101a391906119b4565b611445565b6040516101b59190611e28565b60405180910390f35b60606000600160008473ffffffffffffffffffffffffffffffffffffffff1673ffffffffffffffffffffffffffffffffffffffff16815260200190815260200160002080548060200260200160405190810160405280929190818152602001828054801561024b57602002820191906000526020600020905b815481526020019060010190808311610237575b505050505090506000815167ffffffffffffffff81111561026f5761026e611a57565b5b6040519080825280602002602001820160405280156102a857816020015b610295611659565b81526020019060019003908161028d5790505b50905060005b82518110156104f857600260008483815181106102ce576102cd611e4a565b5b602002602001015181526020019081526020016000206040518060e00160405290816000820154815260200160018201805461030990611ea8565b80601f016020809104026020016040519081016040528092919081815260200182805461033590611ea8565b80156103825780601f1061035757610100808354040283529160200191610382565b820191906000526020600020905b81548152906001019060200180831161036557829003601f168201915b5050505050815260200160028201805461039b90611ea8565b80601f01602080910402602001604051908101604052809291908181526020018280546103c790611ea8565b80156104145780601f106103e957610100808354040283529160200191610414565b820191906000526020600020905b8154815290600101906020018083116103f757829003601f168201915b5050505050815260200160038201805461042d90611ea8565b80601f016020809104026020016040519081016040528092919081815260200182805461045990611ea8565b80156104a65780601f1061047b576101008083540402835291602001916104a6565b820191906000526020600020905b81548152906001019060200180831161048957829003601f168201915b5050505050815260200160048201548152602001600582015481526020016006820154815250508282815181106104e0576104df611e4a565b5b602002602001018190525080806001019150506102ae565b508092505050919050565b60606000808054905067ffffffffffffffff81111561052557610524611a57565b5b60405190808252806020026020018201604052801561055e57816020015b61054b611659565b8152602001906001900390816105435790505b50905060005b6000805490508110156107b5576002600080838154811061058857610587611e4a565b5b906000526020600020015481526020019081526020016000206040518060e0016040529081600082015481526020016001820180546105c690611ea8565b80601f01602080910402602001604051908101604052809291908181526020018280546105f290611ea8565b801561063f5780601f106106145761010080835404028352916020019161063f565b820191906000526020600020905b81548152906001019060200180831161062257829003601f168201915b5050505050815260200160028201805461065890611ea8565b80601f016020809104026020016040519081016040528092919081815260200182805461068490611ea8565b80156106d15780601f106106a6576101008083540402835291602001916106d1565b820191906000526020600020905b8154815290600101906020018083116106b457829003601f168201915b505050505081526020016003820180546106ea90611ea8565b80601f016020809104026020016040519081016040528092919081815260200182805461071690611ea8565b80156107635780601f1061073857610100808354040283529160200191610763565b820191906000526020600020905b81548152906001019060200180831161074657829003601f168201915b50505050508152602001600482015481526020016005820154815260200160068201548152505082828151811061079d5761079c611e4a565b5b60200260200101819052508080600101915050610564565b508091505090565b6000801b600260008381526020019081526020016000206000015403610818576040517f08c379a000000000000000000000000000000000000000000000000000000000815260040161080f90611f36565b60405180910390fd5b6004600082815260200190815260200160002060003373ffffffffffffffffffffffffffffffffffffffff1673ffffffffffffffffffffffffffffffffffffffff16815260200190815260200160002060009054906101000a900460ff16156108b6576040517f08c379a00000000000000000000000000000000000000000000000000000000081526004016108ad90611fa2565b60405180910390fd5b6002600082815260200190815260200160002060050160008154809291906108dd90611ff1565b919050555060016004600083815260200190815260200160002060003373ffffffffffffffffffffffffffffffffffffffff1673ffffffffffffffffffffffffffffffffffffffff16815260200190815260200160002060006101000a81548160ff0219169083151502179055503373ffffffffffffffffffffffffffffffffffffffff16817fa7e4c5082f867ea22a45a95c2043209b9ce83d70ca31ccb947e67592ea14c4b160006040516109939190612054565b60405180910390a350565b600360008381526020019081526020016000208054905081106109f6576040517f08c379a00000000000000000000000000000000000000000000000000000000081526004016109ed906120bb565b60405180910390fd5b6005600083815260200190815260200160002060003373ffffffffffffffffffffffffffffffffffffffff1673ffffffffffffffffffffffffffffffffffffffff168152602001908152602001600020600082815260200190815260200160002060009054906101000a900460ff1615610aa5576040517f08c379a0000000000000000000000000000000000000000000000000000000008152600401610a9c90612127565b60405180910390fd5b600360008381526020019081526020016000208181548110610aca57610ac9611e4a565b5b90600052602060002090600702016004016000815480929190610aec90611ff1565b919050555060016005600084815260200190815260200160002060003373ffffffffffffffffffffffffffffffffffffffff1673ffffffffffffffffffffffffffffffffffffffff168152602001908152602001600020600083815260200190815260200160002060006101000a81548160ff021916908315150217905550600360008381526020019081526020016000208181548110610b9057610b8f611e4a565b5b906000526020600020906007020160000154827fa718b91703005c7ff3c85ef47cb2b96b8bf518a0934598a085e074a84ad79ba1336001604051610bd5929190612156565b60405180910390a35050565b6000801b600260008581526020019081526020016000206000015403610c3c576040517f08c379a0000000000000000000000000000000000000000000000000000000008152600401610c3390611f36565b60405180910390fd5b602082511115610c81576040517f08c379a0000000000000000000000000000000000000000000000000000000008152600401610c78906121cb565b60405180910390fd5b6000334283604051602001610c9893929190612290565b60405160208183030381529060405280519060200120905060006040518060e001604052808381526020013373ffffffffffffffffffffffffffffffffffffffff1681526020018581526020018481526020016000815260200160008152602001428152509050600360008681526020019081526020016000208190806001815401808255809150506001900390600052602060002090600702016000909190919091506000820151816000015560208201518160010160006101000a81548173ffffffffffffffffffffffffffffffffffffffff021916908373ffffffffffffffffffffffffffffffffffffffff1602179055506040820151816002019081610da29190612475565b506060820151816003019081610db89190612475565b506080820151816004015560a0820151816005015560c08201518160060155505081857f121f72518586f939bfb34c62bbf7d31b0a8ae8ecbcac0869550705ee4cff80f533878742604051610e10949392919061258f565b60405180910390a35050505050565b60036000838152602001908152602001600020805490508110610e77576040517f08c379a0000000000000000000000000000000000000000000000000000000008152600401610e6e906120bb565b60405180910390fd5b6005600083815260200190815260200160002060003373ffffffffffffffffffffffffffffffffffffffff1673ffffffffffffffffffffffffffffffffffffffff168152602001908152602001600020600082815260200190815260200160002060009054906101000a900460ff1615610f26576040517f08c379a0000000000000000000000000000000000000000000000000000000008152600401610f1d90612127565b60405180910390fd5b600360008381526020019081526020016000208181548110610f4b57610f4a611e4a565b5b90600052602060002090600702016005016000815480929190610f6d90611ff1565b919050555060016005600084815260200190815260200160002060003373ffffffffffffffffffffffffffffffffffffffff1673ffffffffffffffffffffffffffffffffffffffff168152602001908152602001600020600083815260200190815260200160002060006101000a81548160ff02191690831515021790555060036000838152602001908152602001600020818154811061101157611010611e4a565b5b906000526020600020906007020160000154827fa718b91703005c7ff3c85ef47cb2b96b8bf518a0934598a085e074a84ad79ba1336000604051611056929190612156565b60405180910390a35050565b6000801b6002600083815260200190815260200160002060000154036110bd576040517f08c379a00000000000000000000000000000000000000000000000000000000081526004016110b490611f36565b60405180910390fd5b6004600082815260200190815260200160002060003373ffffffffffffffffffffffffffffffffffffffff1673ffffffffffffffffffffffffffffffffffffffff16815260200190815260200160002060009054906101000a900460ff161561115b576040517f08c379a000000000000000000000000000000000000000000000000000000000815260040161115290611fa2565b60405180910390fd5b60026000828152602001908152602001600020600401600081548092919061118290611ff1565b919050555060016004600083815260200190815260200160002060003373ffffffffffffffffffffffffffffffffffffffff1673ffffffffffffffffffffffffffffffffffffffff16815260200190815260200160002060006101000a81548160ff0219169083151502179055503373ffffffffffffffffffffffffffffffffffffffff16817fa7e4c5082f867ea22a45a95c2043209b9ce83d70ca31ccb947e67592ea14c4b160016040516112389190612054565b60405180910390a350565b602083511115611288576040517f08c379a000000000000000000000000000000000000000000000000000000000815260040161127f9061262e565b60405180910390fd5b6000334284846040516020016112a1949392919061264e565b60405160208183030381529060405280519060200120905060006040518060e0016040528083815260200186815260200185815260200184815260200160008152602001600081526020014281525090506000829080600181540180825580915050600190039060005260206000200160009091909190915055600160003373ffffffffffffffffffffffffffffffffffffffff1673ffffffffffffffffffffffffffffffffffffffff16815260200190815260200160002082908060018154018082558091505060019003906000526020600020016000909190919091505580600260008481526020019081526020016000206000820151816000015560208201518160010190816113b49190612475565b5060408201518160020190816113ca9190612475565b5060608201518160030190816113e09190612475565b506080820151816004015560a0820151816005015560c08201518160060155905050817f17f34748f078a06d3c7c034ef1cdf60a8b2baf4592df676d3a2ae61596619f9885874260405161143693929190612694565b60405180910390a25050505050565b606060036000838152602001908152602001600020805480602002602001604051908101604052809291908181526020016000905b8282101561164e57838290600052602060002090600702016040518060e0016040529081600082015481526020016001820160009054906101000a900473ffffffffffffffffffffffffffffffffffffffff1673ffffffffffffffffffffffffffffffffffffffff1673ffffffffffffffffffffffffffffffffffffffff16815260200160028201805461150d90611ea8565b80601f016020809104026020016040519081016040528092919081815260200182805461153990611ea8565b80156115865780601f1061155b57610100808354040283529160200191611586565b820191906000526020600020905b81548152906001019060200180831161156957829003601f168201915b5050505050815260200160038201805461159f90611ea8565b80601f01602080910402602001604051908101604052809291908181526020018280546115cb90611ea8565b80156116185780601f106115ed57610100808354040283529160200191611618565b820191906000526020600020905b8154815290600101906020018083116115fb57829003601f168201915b5050505050815260200160048201548152602001600582015481526020016006820154815250508152602001906001019061147a565b505050509050919050565b6040518060e00160405280600080191681526020016060815260200160608152602001606081526020016000815260200160008152602001600081525090565b6000604051905090565b600080fd5b600080fd5b600073ffffffffffffffffffffffffffffffffffffffff82169050919050565b60006116d8826116ad565b9050919050565b6116e8816116cd565b81146116f357600080fd5b50565b600081359050611705816116df565b92915050565b600060208284031215611721576117206116a3565b5b600061172f848285016116f6565b91505092915050565b600081519050919050565b600082825260208201905092915050565b6000819050602082019050919050565b6000819050919050565b61177781611764565b82525050565b600081519050919050565b600082825260208201905092915050565b60005b838110156117b757808201518184015260208101905061179c565b60008484015250505050565b6000601f19601f8301169050919050565b60006117df8261177d565b6117e98185611788565b93506117f9818560208601611799565b611802816117c3565b840191505092915050565b6000819050919050565b6118208161180d565b82525050565b600060e08301600083015161183e600086018261176e565b506020830151848203602086015261185682826117d4565b9150506040830151848203604086015261187082826117d4565b9150506060830151848203606086015261188a82826117d4565b915050608083015161189f6080860182611817565b5060a08301516118b260a0860182611817565b5060c08301516118c560c0860182611817565b508091505092915050565b60006118dc8383611826565b905092915050565b6000602082019050919050565b60006118fc82611738565b6119068185611743565b93508360208202850161191885611754565b8060005b85811015611954578484038952815161193585826118d0565b9450611940836118e4565b925060208a0199505060018101905061191c565b50829750879550505050505092915050565b6000602082019050818103600083015261198081846118f1565b905092915050565b61199181611764565b811461199c57600080fd5b50565b6000813590506119ae81611988565b92915050565b6000602082840312156119ca576119c96116a3565b5b60006119d88482850161199f565b91505092915050565b6119ea8161180d565b81146119f557600080fd5b50565b600081359050611a07816119e1565b92915050565b60008060408385031215611a2457611a236116a3565b5b6000611a328582860161199f565b9250506020611a43858286016119f8565b9150509250929050565b600080fd5b600080fd5b7f4e487b7100000000000000000000000000000000000000000000000000000000600052604160045260246000fd5b611a8f826117c3565b810181811067ffffffffffffffff82111715611aae57611aad611a57565b5b80604052505050565b6000611ac1611699565b9050611acd8282611a86565b919050565b600067ffffffffffffffff821115611aed57611aec611a57565b5b611af6826117c3565b9050602081019050919050565b82818337600083830152505050565b6000611b25611b2084611ad2565b611ab7565b905082815260208101848484011115611b4157611b40611a52565b5b611b4c848285611b03565b509392505050565b600082601f830112611b6957611b68611a4d565b5b8135611b79848260208601611b12565b91505092915050565b600080600060608486031215611b9b57611b9a6116a3565b5b6000611ba98682870161199f565b935050602084013567ffffffffffffffff811115611bca57611bc96116a8565b5b611bd686828701611b54565b925050604084013567ffffffffffffffff811115611bf757611bf66116a8565b5b611c0386828701611b54565b9150509250925092565b600080600060608486031215611c2657611c256116a3565b5b600084013567ffffffffffffffff811115611c4457611c436116a8565b5b611c5086828701611b54565b935050602084013567ffffffffffffffff811115611c7157611c706116a8565b5b611c7d86828701611b54565b925050604084013567ffffffffffffffff811115611c9e57611c9d6116a8565b5b611caa86828701611b54565b9150509250925092565b600081519050919050565b600082825260208201905092915050565b6000819050602082019050919050565b611ce9816116cd565b82525050565b600060e083016000830151611d07600086018261176e565b506020830151611d1a6020860182611ce0565b5060408301518482036040860152611d3282826117d4565b91505060608301518482036060860152611d4c82826117d4565b9150506080830151611d616080860182611817565b5060a0830151611d7460a0860182611817565b5060c0830151611d8760c0860182611817565b508091505092915050565b6000611d9e8383611cef565b905092915050565b6000602082019050919050565b6000611dbe82611cb4565b611dc88185611cbf565b935083602082028501611dda85611cd0565b8060005b85811015611e165784840389528151611df78582611d92565b9450611e0283611da6565b925060208a01995050600181019050611dde565b50829750879550505050505092915050565b60006020820190508181036000830152611e428184611db3565b905092915050565b7f4e487b7100000000000000000000000000000000000000000000000000000000600052603260045260246000fd5b7f4e487b7100000000000000000000000000000000000000000000000000000000600052602260045260246000fd5b60006002820490506001821680611ec057607f821691505b602082108103611ed357611ed2611e79565b5b50919050565b600082825260208201905092915050565b7f506f737420646f6573206e6f742065786973742e000000000000000000000000600082015250565b6000611f20601483611ed9565b9150611f2b82611eea565b602082019050919050565b60006020820190508181036000830152611f4f81611f13565b9050919050565b7f416c726561647920766f746564206f6e207468697320706f73742e0000000000600082015250565b6000611f8c601b83611ed9565b9150611f9782611f56565b602082019050919050565b60006020820190508181036000830152611fbb81611f7f565b9050919050565b7f4e487b7100000000000000000000000000000000000000000000000000000000600052601160045260246000fd5b6000611ffc8261180d565b91507fffffffffffffffffffffffffffffffffffffffffffffffffffffffffffffffff820361202e5761202d611fc2565b5b600182019050919050565b60008115159050919050565b61204e81612039565b82525050565b60006020820190506120696000830184612045565b92915050565b7f436f6d6d656e7420646f6573206e6f7420657869737400000000000000000000600082015250565b60006120a5601683611ed9565b91506120b08261206f565b602082019050919050565b600060208201905081810360008301526120d481612098565b9050919050565b7f416c726561647920766f746564206f6e207468697320636f6d6d656e74000000600082015250565b6000612111601d83611ed9565b915061211c826120db565b602082019050919050565b6000602082019050818103600083015261214081612104565b9050919050565b612150816116cd565b82525050565b600060408201905061216b6000830185612147565b6121786020830184612045565b9392505050565b7f436f6d6d656e746572206e616d6520746f6f206c6f6e67000000000000000000600082015250565b60006121b5601783611ed9565b91506121c08261217f565b602082019050919050565b600060208201905081810360008301526121e4816121a8565b9050919050565b60008160601b9050919050565b6000612203826121eb565b9050919050565b6000612215826121f8565b9050919050565b61222d612228826116cd565b61220a565b82525050565b6000819050919050565b61224e6122498261180d565b612233565b82525050565b600081905092915050565b600061226a8261177d565b6122748185612254565b9350612284818560208601611799565b80840191505092915050565b600061229c828661221c565b6014820191506122ac828561223d565b6020820191506122bc828461225f565b9150819050949350505050565b60008190508160005260206000209050919050565b60006020601f8301049050919050565b600082821b905092915050565b60006008830261232b7fffffffffffffffffffffffffffffffffffffffffffffffffffffffffffffffff826122ee565b61233586836122ee565b95508019841693508086168417925050509392505050565b6000819050919050565b600061237261236d6123688461180d565b61234d565b61180d565b9050919050565b6000819050919050565b61238c83612357565b6123a061239882612379565b8484546122fb565b825550505050565b600090565b6123b56123a8565b6123c0818484612383565b505050565b5b818110156123e4576123d96000826123ad565b6001810190506123c6565b5050565b601f821115612429576123fa816122c9565b612403846122de565b81016020851015612412578190505b61242661241e856122de565b8301826123c5565b50505b505050565b600082821c905092915050565b600061244c6000198460080261242e565b1980831691505092915050565b6000612465838361243b565b9150826002028217905092915050565b61247e8261177d565b67ffffffffffffffff81111561249757612496611a57565b5b6124a18254611ea8565b6124ac8282856123e8565b600060209050601f8311600181146124df57600084156124cd578287015190505b6124d78582612459565b86555061253f565b601f1984166124ed866122c9565b60005b82811015612515578489015182556001820191506020850194506020810190506124f0565b86831015612532578489015161252e601f89168261243b565b8355505b6001600288020188555050505b505050505050565b60006125528261177d565b61255c8185611ed9565b935061256c818560208601611799565b612575816117c3565b840191505092915050565b6125898161180d565b82525050565b60006080820190506125a46000830187612147565b81810360208301526125b68186612547565b905081810360408301526125ca8185612547565b90506125d96060830184612580565b95945050505050565b7f417574686f72206e616d6520746f6f206c6f6e67000000000000000000000000600082015250565b6000612618601483611ed9565b9150612623826125e2565b602082019050919050565b600060208201905081810360008301526126478161260b565b9050919050565b600061265a828761221c565b60148201915061266a828661223d565b60208201915061267a828561225f565b9150612686828461225f565b915081905095945050505050565b600060608201905081810360008301526126ae8186612547565b905081810360208301526126c28185612547565b90506126d16040830184612580565b94935050505056fea2646970667358221220f47f1bfa6aacff5e6f96d60dc3639b49ad4a5a43cd69455ca003569e9dff5fb864736f6c634300081e0033",
  "immutableReferences": {},
  "source": "// SPDX-License-Identifier: MIT\r\npragma solidity >=0.8.2 <0.9.0;\r\n\r\ncontract MyblogApp {\r\n    struct Post {\r\n        bytes32 id;\r\n        string author;      // Name of the author\r\n        string title;\r\n        string contentHash; // IPFS hash\r\n        uint256 upvote;\r\n        uint256 downvote;\r\n        uint256 timestamp;\r\n    }\r\n\r\n    struct Comment {\r\n        bytes32 id;\r\n        address commenterAddress;\r\n        string commenterName; // Name of the commenter\r\n        string content;\r\n        uint256 upvote;\r\n        uint256 downvote;\r\n        uint256 timestamp;\r\n    }\r\n\r\n    // Post storage\r\n    bytes32[] private allPostsIds;\r\n    mapping(address => bytes32[]) private userPosts;\r\n    mapping(bytes32 => Post) private posts;\r\n\r\n    // Comment storage\r\n    mapping(bytes32 => Comment[]) private postComments; // postId => array of comments\r\n    mapping(bytes32 => mapping(address => bool)) private hasVoted; // post votes\r\n    mapping(bytes32 => mapping(address => mapping(uint => bool))) private hasVotedComment; // comment votes\r\n\r\n    // Events\r\n    event Postcreation(bytes32 indexed postId, string title, string author, uint256 timestamp);\r\n    event PostVoted(bytes32 indexed postId, address indexed voter, bool isUpvote);\r\n    event CommentAdded(bytes32 indexed postId, bytes32 indexed commentId, address commenterAddress, string commenterName, string content, uint256 timestamp);\r\n    event CommentVoted(bytes32 indexed postId, bytes32 indexed commentId, address voter, bool isUpvote);\r\n\r\n    // Create a new post\r\n    function createPost(string memory _author, string memory _title, string memory _contentHash) public {\r\n        require(bytes(_author).length <= 32, \"Author name too long\");\r\n\r\n        bytes32 _id = keccak256(abi.encodePacked(msg.sender, block.timestamp, _title, _contentHash));\r\n        Post memory newpost = Post({\r\n            id: _id,\r\n            author: _author,\r\n            title: _title,\r\n            contentHash: _contentHash,\r\n            upvote: 0,\r\n            downvote: 0,\r\n            timestamp: block.timestamp\r\n        });\r\n\r\n        allPostsIds.push(_id);\r\n        userPosts[msg.sender].push(_id);\r\n        posts[_id] = newpost;\r\n\r\n        emit Postcreation(_id, _title, _author, block.timestamp);\r\n    }\r\n\r\n    // Upvote/Downvote post\r\n    function upvotePost(bytes32 _postId) public {\r\n        require(posts[_postId].id != bytes32(0), \"Post does not exist.\");\r\n        require(!hasVoted[_postId][msg.sender], \"Already voted on this post.\");\r\n        posts[_postId].upvote++;\r\n        hasVoted[_postId][msg.sender] = true;\r\n        emit PostVoted(_postId, msg.sender, true);\r\n    }\r\n\r\n    function downvotePost(bytes32 _postId) public {\r\n        require(posts[_postId].id != bytes32(0), \"Post does not exist.\");\r\n        require(!hasVoted[_postId][msg.sender], \"Already voted on this post.\");\r\n        posts[_postId].downvote++;\r\n        hasVoted[_postId][msg.sender] = true;\r\n        emit PostVoted(_postId, msg.sender, false);\r\n    }\r\n\r\n    // Add comment to post\r\n    function addComment(bytes32 _postId, string memory _commenterName, string memory _content) public {\r\n        require(posts[_postId].id != bytes32(0), \"Post does not exist.\");\r\n        require(bytes(_commenterName).length <= 32, \"Commenter name too long\");\r\n\r\n        bytes32 commentId = keccak256(abi.encodePacked(msg.sender, block.timestamp, _content));\r\n        Comment memory newComment = Comment({\r\n            id: commentId,\r\n            commenterAddress: msg.sender,\r\n            commenterName: _commenterName,\r\n            content: _content,\r\n            upvote: 0,\r\n            downvote: 0,\r\n            timestamp: block.timestamp\r\n        });\r\n\r\n        postComments[_postId].push(newComment);\r\n\r\n        emit CommentAdded(_postId, commentId, msg.sender, _commenterName, _content, block.timestamp);\r\n    }\r\n\r\n    // Upvote/Downvote comment\r\n    function upvoteComment(bytes32 _postId, uint _commentIndex) public {\r\n        require(_commentIndex < postComments[_postId].length, \"Comment does not exist\");\r\n        require(!hasVotedComment[_postId][msg.sender][_commentIndex], \"Already voted on this comment\");\r\n\r\n        postComments[_postId][_commentIndex].upvote++;\r\n        hasVotedComment[_postId][msg.sender][_commentIndex] = true;\r\n\r\n        emit CommentVoted(_postId, postComments[_postId][_commentIndex].id, msg.sender, true);\r\n    }\r\n\r\n    function downvoteComment(bytes32 _postId, uint _commentIndex) public {\r\n        require(_commentIndex < postComments[_postId].length, \"Comment does not exist\");\r\n        require(!hasVotedComment[_postId][msg.sender][_commentIndex], \"Already voted on this comment\");\r\n\r\n        postComments[_postId][_commentIndex].downvote++;\r\n        hasVotedComment[_postId][msg.sender][_commentIndex] = true;\r\n\r\n        emit CommentVoted(_postId, postComments[_postId][_commentIndex].id, msg.sender, false);\r\n    }\r\n\r\n    // Fetch posts\r\n    function getAllPosts() public view returns(Post[] memory) {\r\n        Post[] memory allPosts = new Post[](allPostsIds.length);\r\n        for(uint i = 0; i < allPostsIds.length; i++) {\r\n            allPosts[i] = posts[allPostsIds[i]];\r\n        }\r\n        return allPosts;\r\n    }\r\n\r\n    function getAllPostsOfUser(address _user) public view returns(Post[] memory) {\r\n        bytes32[] memory userPostIds = userPosts[_user];\r\n        Post[] memory allPosts = new Post[](userPostIds.length);\r\n        for (uint i = 0; i < userPostIds.length; i++) {\r\n            allPosts[i] = posts[userPostIds[i]];\r\n        }\r\n        return allPosts;\r\n    }\r\n\r\n    // Fetch comments of a post\r\n    function getComments(bytes32 _postId) public view returns(Comment[] memory) {\r\n        return postComments[_postId];\r\n    }\r\n}\r\n",
  "sourcePath": "C:\\Users\\hp\\OneDrive\\Desktop\\Projects\\DBloggingApp\\blockchain\\contracts\\MyblogApp.sol",
  "compiler": {
    "name": "solc",
    "version": "0.8.30+commit.73712a01.Emscripten.clang"
  },
  "schemaVersion": "3.4.16",
  "updatedAt": "2025-09-24T18:18:54.714Z",
  "networkType": "ethereum",
  "devdoc": {
    "kind": "dev",
    "methods": {},
    "version": 1
  },
  "userdoc": {
    "kind": "user",
    "methods": {},
    "version": 1
  }
}