{
  "contractName": "MyblogApp",
  "abi": [
    {
      "anonymous": false,
      "inputs": [
        {
          "indexed": true,
          "internalType": "bytes32",
          "name": "postId",
          "type": "bytes32"
        },
        {
          "indexed": true,
          "internalType": "address",
          "name": "voter",
          "type": "address"
        },
        {
          "indexed": false,
          "internalType": "bool",
          "name": "isUpvote",
          "type": "bool"
        }
      ],
      "name": "PostVoted",
      "type": "event"
    },
    {
      "anonymous": false,
      "inputs": [
        {
          "indexed": true,
          "internalType": "bytes32",
          "name": "postId",
          "type": "bytes32"
        },
        {
          "indexed": false,
          "internalType": "string",
          "name": "title",
          "type": "string"
        },
        {
          "indexed": false,
          "internalType": "string",
          "name": "author",
          "type": "string"
        },
        {
          "indexed": false,
          "internalType": "uint256",
          "name": "timestamp",
          "type": "uint256"
        }
      ],
      "name": "Postcreation",
      "type": "event"
    },
    {
      "inputs": [
        {
          "internalType": "string",
          "name": "_author",
          "type": "string"
        },
        {
          "internalType": "string",
          "name": "_title",
          "type": "string"
        },
        {
          "internalType": "string",
          "name": "_contentHash",
          "type": "string"
        }
      ],
      "name": "createPost",
      "outputs": [],
      "stateMutability": "nonpayable",
      "type": "function"
    },
    {
      "inputs": [
        {
          "internalType": "bytes32",
          "name": "_postId",
          "type": "bytes32"
        }
      ],
      "name": "upvotePost",
      "outputs": [],
      "stateMutability": "nonpayable",
      "type": "function"
    },
    {
      "inputs": [
        {
          "internalType": "bytes32",
          "name": "_postId",
          "type": "bytes32"
        }
      ],
      "name": "downvotePost",
      "outputs": [],
      "stateMutability": "nonpayable",
      "type": "function"
    },
    {
      "inputs": [
        {
          "internalType": "address",
          "name": "_user",
          "type": "address"
        }
      ],
      "name": "getAllPostsOfUser",
      "outputs": [
        {
          "components": [
            {
              "internalType": "bytes32",
              "name": "id",
              "type": "bytes32"
            },
            {
              "internalType": "string",
              "name": "author",
              "type": "string"
            },
            {
              "internalType": "string",
              "name": "title",
              "type": "string"
            },
            {
              "internalType": "string",
              "name": "contentHash",
              "type": "string"
            },
            {
              "internalType": "uint256",
              "name": "upvote",
              "type": "uint256"
            },
            {
              "internalType": "uint256",
              "name": "downvote",
              "type": "uint256"
            },
            {
              "internalType": "uint256",
              "name": "timestamp",
              "type": "uint256"
            }
          ],
          "internalType": "struct MyblogApp.Post[]",
          "name": "",
          "type": "tuple[]"
        }
      ],
      "stateMutability": "view",
      "type": "function",
      "constant": true
    },
    {
      "inputs": [
        {
          "internalType": "bytes32",
          "name": "_postId",
          "type": "bytes32"
        }
      ],
      "name": "getPostById",
      "outputs": [
        {
          "components": [
            {
              "internalType": "bytes32",
              "name": "id",
              "type": "bytes32"
            },
            {
              "internalType": "string",
              "name": "author",
              "type": "string"
            },
            {
              "internalType": "string",
              "name": "title",
              "type": "string"
            },
            {
              "internalType": "string",
              "name": "contentHash",
              "type": "string"
            },
            {
              "internalType": "uint256",
              "name": "upvote",
              "type": "uint256"
            },
            {
              "internalType": "uint256",
              "name": "downvote",
              "type": "uint256"
            },
            {
              "internalType": "uint256",
              "name": "timestamp",
              "type": "uint256"
            }
          ],
          "internalType": "struct MyblogApp.Post",
          "name": "",
          "type": "tuple"
        }
      ],
      "stateMutability": "view",
      "type": "function",
      "constant": true
    }
  ],
  "bytecode": "0x6080604052348015600f57600080fd5b5061185b8061001f6000396000f3fe608060405234801561001057600080fd5b50600436106100575760003560e01c80632cfdcc6b1461005c578063a54ff9ac1461008c578063ae362ff9146100a8578063e2fc2691146100d8578063e8a4a1eb146100f4575b600080fd5b61007660048036038101906100719190610c66565b610110565b6040516100839190610ec1565b60405180910390f35b6100a660048036038101906100a19190610f0f565b610454565b005b6100c260048036038101906100bd9190610f0f565b610635565b6040516100cf9190610fe6565b60405180910390f35b6100f260048036038101906100ed9190610f0f565b610840565b005b61010e6004803603810190610109919061113d565b610a21565b005b606060008060008473ffffffffffffffffffffffffffffffffffffffff1673ffffffffffffffffffffffffffffffffffffffff16815260200190815260200160002080548060200260200160405190810160405280929190818152602001828054801561019c57602002820191906000526020600020905b815481526020019060010190808311610188575b505050505090506000815167ffffffffffffffff8111156101c0576101bf611012565b5b6040519080825280602002602001820160405280156101f957816020015b6101e6610bb4565b8152602001906001900390816101de5790505b50905060005b8251811015610449576001600084838151811061021f5761021e6111e4565b5b602002602001015181526020019081526020016000206040518060e00160405290816000820154815260200160018201805461025a90611242565b80601f016020809104026020016040519081016040528092919081815260200182805461028690611242565b80156102d35780601f106102a8576101008083540402835291602001916102d3565b820191906000526020600020905b8154815290600101906020018083116102b657829003601f168201915b505050505081526020016002820180546102ec90611242565b80601f016020809104026020016040519081016040528092919081815260200182805461031890611242565b80156103655780601f1061033a57610100808354040283529160200191610365565b820191906000526020600020905b81548152906001019060200180831161034857829003601f168201915b5050505050815260200160038201805461037e90611242565b80601f01602080910402602001604051908101604052809291908181526020018280546103aa90611242565b80156103f75780601f106103cc576101008083540402835291602001916103f7565b820191906000526020600020905b8154815290600101906020018083116103da57829003601f168201915b505050505081526020016004820154815260200160058201548152602001600682015481525050828281518110610431576104306111e4565b5b602002602001018190525080806001019150506101ff565b508092505050919050565b6000801b6001600083815260200190815260200160002060000154036104af576040517f08c379a00000000000000000000000000000000000000000000000000000000081526004016104a6906112d0565b60405180910390fd5b6002600082815260200190815260200160002060003373ffffffffffffffffffffffffffffffffffffffff1673ffffffffffffffffffffffffffffffffffffffff16815260200190815260200160002060009054906101000a900460ff161561054d576040517f08c379a000000000000000000000000000000000000000000000000000000000815260040161054490611362565b60405180910390fd5b600160008281526020019081526020016000206005016000815480929190610574906113b1565b919050555060016002600083815260200190815260200160002060003373ffffffffffffffffffffffffffffffffffffffff1673ffffffffffffffffffffffffffffffffffffffff16815260200190815260200160002060006101000a81548160ff0219169083151502179055503373ffffffffffffffffffffffffffffffffffffffff16817fa7e4c5082f867ea22a45a95c2043209b9ce83d70ca31ccb947e67592ea14c4b1600060405161062a9190611414565b60405180910390a350565b61063d610bb4565b600160008381526020019081526020016000206040518060e00160405290816000820154815260200160018201805461067590611242565b80601f01602080910402602001604051908101604052809291908181526020018280546106a190611242565b80156106ee5780601f106106c3576101008083540402835291602001916106ee565b820191906000526020600020905b8154815290600101906020018083116106d157829003601f168201915b5050505050815260200160028201805461070790611242565b80601f016020809104026020016040519081016040528092919081815260200182805461073390611242565b80156107805780601f1061075557610100808354040283529160200191610780565b820191906000526020600020905b81548152906001019060200180831161076357829003601f168201915b5050505050815260200160038201805461079990611242565b80601f01602080910402602001604051908101604052809291908181526020018280546107c590611242565b80156108125780601f106107e757610100808354040283529160200191610812565b820191906000526020600020905b8154815290600101906020018083116107f557829003601f168201915b5050505050815260200160048201548152602001600582015481526020016006820154815250509050919050565b6000801b60016000838152602001908152602001600020600001540361089b576040517f08c379a0000000000000000000000000000000000000000000000000000000008152600401610892906112d0565b60405180910390fd5b6002600082815260200190815260200160002060003373ffffffffffffffffffffffffffffffffffffffff1673ffffffffffffffffffffffffffffffffffffffff16815260200190815260200160002060009054906101000a900460ff1615610939576040517f08c379a000000000000000000000000000000000000000000000000000000000815260040161093090611362565b60405180910390fd5b600160008281526020019081526020016000206004016000815480929190610960906113b1565b919050555060016002600083815260200190815260200160002060003373ffffffffffffffffffffffffffffffffffffffff1673ffffffffffffffffffffffffffffffffffffffff16815260200190815260200160002060006101000a81548160ff0219169083151502179055503373ffffffffffffffffffffffffffffffffffffffff16817fa7e4c5082f867ea22a45a95c2043209b9ce83d70ca31ccb947e67592ea14c4b16001604051610a169190611414565b60405180910390a350565b600033428484604051602001610a3a94939291906114d4565b60405160208183030381529060405280519060200120905060006040518060e0016040528083815260200186815260200185815260200184815260200160008152602001600081526020014281525090506000803373ffffffffffffffffffffffffffffffffffffffff1673ffffffffffffffffffffffffffffffffffffffff1681526020019081526020016000208290806001815401808255809150506001900390600052602060002001600090919091909150558060016000848152602001908152602001600020600082015181600001556020820151816001019081610b2391906116c6565b506040820151816002019081610b3991906116c6565b506060820151816003019081610b4f91906116c6565b506080820151816004015560a0820151816005015560c08201518160060155905050817f17f34748f078a06d3c7c034ef1cdf60a8b2baf4592df676d3a2ae61596619f98858742604051610ba5939291906117e0565b60405180910390a25050505050565b6040518060e00160405280600080191681526020016060815260200160608152602001606081526020016000815260200160008152602001600081525090565b6000604051905090565b600080fd5b600080fd5b600073ffffffffffffffffffffffffffffffffffffffff82169050919050565b6000610c3382610c08565b9050919050565b610c4381610c28565b8114610c4e57600080fd5b50565b600081359050610c6081610c3a565b92915050565b600060208284031215610c7c57610c7b610bfe565b5b6000610c8a84828501610c51565b91505092915050565b600081519050919050565b600082825260208201905092915050565b6000819050602082019050919050565b6000819050919050565b610cd281610cbf565b82525050565b600081519050919050565b600082825260208201905092915050565b60005b83811015610d12578082015181840152602081019050610cf7565b60008484015250505050565b6000601f19601f8301169050919050565b6000610d3a82610cd8565b610d448185610ce3565b9350610d54818560208601610cf4565b610d5d81610d1e565b840191505092915050565b6000819050919050565b610d7b81610d68565b82525050565b600060e083016000830151610d996000860182610cc9565b5060208301518482036020860152610db18282610d2f565b91505060408301518482036040860152610dcb8282610d2f565b91505060608301518482036060860152610de58282610d2f565b9150506080830151610dfa6080860182610d72565b5060a0830151610e0d60a0860182610d72565b5060c0830151610e2060c0860182610d72565b508091505092915050565b6000610e378383610d81565b905092915050565b6000602082019050919050565b6000610e5782610c93565b610e618185610c9e565b935083602082028501610e7385610caf565b8060005b85811015610eaf5784840389528151610e908582610e2b565b9450610e9b83610e3f565b925060208a01995050600181019050610e77565b50829750879550505050505092915050565b60006020820190508181036000830152610edb8184610e4c565b905092915050565b610eec81610cbf565b8114610ef757600080fd5b50565b600081359050610f0981610ee3565b92915050565b600060208284031215610f2557610f24610bfe565b5b6000610f3384828501610efa565b91505092915050565b600060e083016000830151610f546000860182610cc9565b5060208301518482036020860152610f6c8282610d2f565b91505060408301518482036040860152610f868282610d2f565b91505060608301518482036060860152610fa08282610d2f565b9150506080830151610fb56080860182610d72565b5060a0830151610fc860a0860182610d72565b5060c0830151610fdb60c0860182610d72565b508091505092915050565b600060208201905081810360008301526110008184610f3c565b905092915050565b600080fd5b600080fd5b7f4e487b7100000000000000000000000000000000000000000000000000000000600052604160045260246000fd5b61104a82610d1e565b810181811067ffffffffffffffff8211171561106957611068611012565b5b80604052505050565b600061107c610bf4565b90506110888282611041565b919050565b600067ffffffffffffffff8211156110a8576110a7611012565b5b6110b182610d1e565b9050602081019050919050565b82818337600083830152505050565b60006110e06110db8461108d565b611072565b9050828152602081018484840111156110fc576110fb61100d565b5b6111078482856110be565b509392505050565b600082601f83011261112457611123611008565b5b81356111348482602086016110cd565b91505092915050565b60008060006060848603121561115657611155610bfe565b5b600084013567ffffffffffffffff81111561117457611173610c03565b5b6111808682870161110f565b935050602084013567ffffffffffffffff8111156111a1576111a0610c03565b5b6111ad8682870161110f565b925050604084013567ffffffffffffffff8111156111ce576111cd610c03565b5b6111da8682870161110f565b9150509250925092565b7f4e487b7100000000000000000000000000000000000000000000000000000000600052603260045260246000fd5b7f4e487b7100000000000000000000000000000000000000000000000000000000600052602260045260246000fd5b6000600282049050600182168061125a57607f821691505b60208210810361126d5761126c611213565b5b50919050565b600082825260208201905092915050565b7f506f737420646f6573206e6f742065786973742e000000000000000000000000600082015250565b60006112ba601483611273565b91506112c582611284565b602082019050919050565b600060208201905081810360008301526112e9816112ad565b9050919050565b7f596f75206861766520616c726561647920766f746564206f6e2074686973207060008201527f6f73742e00000000000000000000000000000000000000000000000000000000602082015250565b600061134c602483611273565b9150611357826112f0565b604082019050919050565b6000602082019050818103600083015261137b8161133f565b9050919050565b7f4e487b7100000000000000000000000000000000000000000000000000000000600052601160045260246000fd5b60006113bc82610d68565b91507fffffffffffffffffffffffffffffffffffffffffffffffffffffffffffffffff82036113ee576113ed611382565b5b600182019050919050565b60008115159050919050565b61140e816113f9565b82525050565b60006020820190506114296000830184611405565b92915050565b60008160601b9050919050565b60006114478261142f565b9050919050565b60006114598261143c565b9050919050565b61147161146c82610c28565b61144e565b82525050565b6000819050919050565b61149261148d82610d68565b611477565b82525050565b600081905092915050565b60006114ae82610cd8565b6114b88185611498565b93506114c8818560208601610cf4565b80840191505092915050565b60006114e08287611460565b6014820191506114f08286611481565b60208201915061150082856114a3565b915061150c82846114a3565b915081905095945050505050565b60008190508160005260206000209050919050565b60006020601f8301049050919050565b600082821b905092915050565b60006008830261157c7fffffffffffffffffffffffffffffffffffffffffffffffffffffffffffffffff8261153f565b611586868361153f565b95508019841693508086168417925050509392505050565b6000819050919050565b60006115c36115be6115b984610d68565b61159e565b610d68565b9050919050565b6000819050919050565b6115dd836115a8565b6115f16115e9826115ca565b84845461154c565b825550505050565b600090565b6116066115f9565b6116118184846115d4565b505050565b5b818110156116355761162a6000826115fe565b600181019050611617565b5050565b601f82111561167a5761164b8161151a565b6116548461152f565b81016020851015611663578190505b61167761166f8561152f565b830182611616565b50505b505050565b600082821c905092915050565b600061169d6000198460080261167f565b1980831691505092915050565b60006116b6838361168c565b9150826002028217905092915050565b6116cf82610cd8565b67ffffffffffffffff8111156116e8576116e7611012565b5b6116f28254611242565b6116fd828285611639565b600060209050601f831160018114611730576000841561171e578287015190505b61172885826116aa565b865550611790565b601f19841661173e8661151a565b60005b8281101561176657848901518255600182019150602085019450602081019050611741565b86831015611783578489015161177f601f89168261168c565b8355505b6001600288020188555050505b505050505050565b60006117a382610cd8565b6117ad8185611273565b93506117bd818560208601610cf4565b6117c681610d1e565b840191505092915050565b6117da81610d68565b82525050565b600060608201905081810360008301526117fa8186611798565b9050818103602083015261180e8185611798565b905061181d60408301846117d1565b94935050505056fea264697066735822122009ed1fc9e5c43b6fbdece40b8302f299b5a78a7e4fb4864e149cf6252328f24064736f6c634300081e0033",
  "immutableReferences": {},
  "source": "// SPDX-License-Identifier: MIT\r\npragma solidity >=0.8.2 <0.9.0;\r\n\r\ncontract MyblogApp\r\n{\r\n    struct Post\r\n    {\r\n        bytes32 id;\r\n        string author;\r\n        string title;\r\n        string contentHash;         // Store the content in IPFS\r\n        uint256 upvote;\r\n        uint256 downvote;\r\n        uint256 timestamp;\r\n    }\r\n\r\n    // Mapping to store a list of all posts by the user's address\r\n    mapping(address => bytes32[]) private userPosts;\r\n\r\n    // Mapping to track all posts by their unique ID\r\n    mapping(bytes32 => Post) private posts;\r\n\r\n    // A nested mapping to ensure a user can only vote once per post\r\n    mapping(bytes32 => mapping(address => bool)) private hasVoted;\r\n\r\n    // Events\r\n    event Postcreation(bytes32 indexed postId, string title, string author, uint256 timestamp);\r\n    event PostVoted(bytes32 indexed postId, address indexed voter, bool isUpvote);\r\n\r\n    function createPost(string memory _author, string memory _title, string memory _contentHash) public \r\n    {\r\n        // Use msg.sender, a timestamp, and other unique data to prevent ID collisions.\r\n        bytes32 _id = keccak256(abi.encodePacked(msg.sender, block.timestamp, _title, _contentHash));\r\n\r\n        Post memory newpost = Post(\r\n            {\r\n                id: _id,\r\n                author: _author,\r\n                title: _title,\r\n                contentHash: _contentHash,\r\n                upvote: 0,\r\n                downvote: 0,\r\n                timestamp: block.timestamp\r\n            }\r\n        );\r\n\r\n        userPosts[msg.sender].push(_id);\r\n        posts[_id] = newpost;\r\n        \r\n        emit Postcreation(_id, _title, _author, block.timestamp);\r\n    }\r\n\r\n    // New function to handle upvotes\r\n    function upvotePost(bytes32 _postId) public {\r\n        // Ensure the post exists\r\n        require(posts[_postId].id != bytes32(0), \"Post does not exist.\");\r\n\r\n        // Check if the user has already voted on this post\r\n        require(!hasVoted[_postId][msg.sender], \"You have already voted on this post.\");\r\n\r\n        // Increment the upvote count and mark the user as voted\r\n        posts[_postId].upvote++;\r\n        hasVoted[_postId][msg.sender] = true;\r\n\r\n        emit PostVoted(_postId, msg.sender, true);\r\n    }\r\n\r\n    // New function to handle downvotes\r\n    function downvotePost(bytes32 _postId) public {\r\n        // Ensure the post exists\r\n        require(posts[_postId].id != bytes32(0), \"Post does not exist.\");\r\n\r\n        // Check if the user has already voted on this post\r\n        require(!hasVoted[_postId][msg.sender], \"You have already voted on this post.\");\r\n\r\n        // Increment the downvote count and mark the user as voted\r\n        posts[_postId].downvote++;\r\n        hasVoted[_postId][msg.sender] = true;\r\n\r\n        emit PostVoted(_postId, msg.sender, false);\r\n    }\r\n\r\n    function getAllPostsOfUser(address _user) public view returns (Post[] memory)\r\n    {\r\n        bytes32[] memory userPostIds = userPosts[_user];\r\n        Post[] memory allPosts = new Post[](userPostIds.length);\r\n        \r\n        for (uint i = 0; i < userPostIds.length; i++) {\r\n            allPosts[i] = posts[userPostIds[i]];\r\n        }\r\n        \r\n        return allPosts;\r\n    }\r\n\r\n    function getPostById(bytes32 _postId) public view returns (Post memory) {\r\n        return posts[_postId];\r\n    }\r\n}",
  "sourcePath": "C:\\Users\\hp\\OneDrive\\Desktop\\Projects\\DBloggingApp\\blockchain\\contracts\\MyblogApp.sol",
  "compiler": {
    "name": "solc",
    "version": "0.8.30+commit.73712a01.Emscripten.clang"
  },
  "schemaVersion": "3.4.16",
  "updatedAt": "2025-09-24T06:59:59.570Z",
  "networkType": "ethereum",
  "devdoc": {
    "kind": "dev",
    "methods": {},
    "version": 1
  },
  "userdoc": {
    "kind": "user",
    "methods": {},
    "version": 1
  }
}