{
  "contractName": "MyblogApp",
  "abi": [
    {
      "anonymous": false,
      "inputs": [
        {
          "indexed": true,
          "internalType": "bytes32",
          "name": "postId",
          "type": "bytes32"
        },
        {
          "indexed": true,
          "internalType": "bytes32",
          "name": "commentId",
          "type": "bytes32"
        },
        {
          "indexed": false,
          "internalType": "address",
          "name": "commenterAddress",
          "type": "address"
        },
        {
          "indexed": false,
          "internalType": "string",
          "name": "commenterName",
          "type": "string"
        },
        {
          "indexed": false,
          "internalType": "string",
          "name": "content",
          "type": "string"
        },
        {
          "indexed": false,
          "internalType": "uint256",
          "name": "timestamp",
          "type": "uint256"
        }
      ],
      "name": "CommentAdded",
      "type": "event"
    },
    {
      "anonymous": false,
      "inputs": [
        {
          "indexed": true,
          "internalType": "bytes32",
          "name": "postId",
          "type": "bytes32"
        },
        {
          "indexed": true,
          "internalType": "bytes32",
          "name": "commentId",
          "type": "bytes32"
        },
        {
          "indexed": false,
          "internalType": "address",
          "name": "voter",
          "type": "address"
        },
        {
          "indexed": false,
          "internalType": "bool",
          "name": "isUpvote",
          "type": "bool"
        }
      ],
      "name": "CommentVoted",
      "type": "event"
    },
    {
      "anonymous": false,
      "inputs": [
        {
          "indexed": true,
          "internalType": "bytes32",
          "name": "postId",
          "type": "bytes32"
        },
        {
          "indexed": true,
          "internalType": "address",
          "name": "voter",
          "type": "address"
        },
        {
          "indexed": false,
          "internalType": "bool",
          "name": "isUpvote",
          "type": "bool"
        }
      ],
      "name": "PostVoted",
      "type": "event"
    },
    {
      "anonymous": false,
      "inputs": [
        {
          "indexed": true,
          "internalType": "bytes32",
          "name": "postId",
          "type": "bytes32"
        },
        {
          "indexed": false,
          "internalType": "string",
          "name": "title",
          "type": "string"
        },
        {
          "indexed": false,
          "internalType": "string",
          "name": "author",
          "type": "string"
        },
        {
          "indexed": false,
          "internalType": "uint256",
          "name": "timestamp",
          "type": "uint256"
        }
      ],
      "name": "Postcreation",
      "type": "event"
    },
    {
      "inputs": [
        {
          "internalType": "string",
          "name": "_author",
          "type": "string"
        },
        {
          "internalType": "string",
          "name": "_title",
          "type": "string"
        },
        {
          "internalType": "string",
          "name": "_contentHash",
          "type": "string"
        }
      ],
      "name": "createPost",
      "outputs": [],
      "stateMutability": "nonpayable",
      "type": "function"
    },
    {
      "inputs": [
        {
          "internalType": "bytes32",
          "name": "_postId",
          "type": "bytes32"
        }
      ],
      "name": "upvotePost",
      "outputs": [],
      "stateMutability": "nonpayable",
      "type": "function"
    },
    {
      "inputs": [
        {
          "internalType": "bytes32",
          "name": "_postId",
          "type": "bytes32"
        }
      ],
      "name": "downvotePost",
      "outputs": [],
      "stateMutability": "nonpayable",
      "type": "function"
    },
    {
      "inputs": [
        {
          "internalType": "bytes32",
          "name": "_postId",
          "type": "bytes32"
        },
        {
          "internalType": "string",
          "name": "_commenterName",
          "type": "string"
        },
        {
          "internalType": "string",
          "name": "_content",
          "type": "string"
        }
      ],
      "name": "addComment",
      "outputs": [],
      "stateMutability": "nonpayable",
      "type": "function"
    },
    {
      "inputs": [
        {
          "internalType": "bytes32",
          "name": "_postId",
          "type": "bytes32"
        },
        {
          "internalType": "uint256",
          "name": "_commentIndex",
          "type": "uint256"
        }
      ],
      "name": "upvoteComment",
      "outputs": [],
      "stateMutability": "nonpayable",
      "type": "function"
    },
    {
      "inputs": [
        {
          "internalType": "bytes32",
          "name": "_postId",
          "type": "bytes32"
        },
        {
          "internalType": "uint256",
          "name": "_commentIndex",
          "type": "uint256"
        }
      ],
      "name": "downvoteComment",
      "outputs": [],
      "stateMutability": "nonpayable",
      "type": "function"
    },
    {
      "inputs": [],
      "name": "getAllPosts",
      "outputs": [
        {
          "components": [
            {
              "internalType": "bytes32",
              "name": "id",
              "type": "bytes32"
            },
            {
              "internalType": "string",
              "name": "author",
              "type": "string"
            },
            {
              "internalType": "string",
              "name": "title",
              "type": "string"
            },
            {
              "internalType": "string",
              "name": "contentHash",
              "type": "string"
            },
            {
              "internalType": "uint256",
              "name": "upvote",
              "type": "uint256"
            },
            {
              "internalType": "uint256",
              "name": "downvote",
              "type": "uint256"
            },
            {
              "internalType": "uint256",
              "name": "timestamp",
              "type": "uint256"
            }
          ],
          "internalType": "struct MyblogApp.Post[]",
          "name": "",
          "type": "tuple[]"
        }
      ],
      "stateMutability": "view",
      "type": "function",
      "constant": true
    },
    {
      "inputs": [
        {
          "internalType": "address",
          "name": "_user",
          "type": "address"
        }
      ],
      "name": "getAllPostsOfUser",
      "outputs": [
        {
          "components": [
            {
              "internalType": "bytes32",
              "name": "id",
              "type": "bytes32"
            },
            {
              "internalType": "string",
              "name": "author",
              "type": "string"
            },
            {
              "internalType": "string",
              "name": "title",
              "type": "string"
            },
            {
              "internalType": "string",
              "name": "contentHash",
              "type": "string"
            },
            {
              "internalType": "uint256",
              "name": "upvote",
              "type": "uint256"
            },
            {
              "internalType": "uint256",
              "name": "downvote",
              "type": "uint256"
            },
            {
              "internalType": "uint256",
              "name": "timestamp",
              "type": "uint256"
            }
          ],
          "internalType": "struct MyblogApp.Post[]",
          "name": "",
          "type": "tuple[]"
        }
      ],
      "stateMutability": "view",
      "type": "function",
      "constant": true
    },
    {
      "inputs": [
        {
          "internalType": "bytes32",
          "name": "_postId",
          "type": "bytes32"
        }
      ],
      "name": "getPostById",
      "outputs": [
        {
          "internalType": "bytes32",
          "name": "id",
          "type": "bytes32"
        },
        {
          "internalType": "string",
          "name": "author",
          "type": "string"
        },
        {
          "internalType": "string",
          "name": "title",
          "type": "string"
        },
        {
          "internalType": "string",
          "name": "contentHash",
          "type": "string"
        },
        {
          "internalType": "uint256",
          "name": "upvote",
          "type": "uint256"
        },
        {
          "internalType": "uint256",
          "name": "downvote",
          "type": "uint256"
        },
        {
          "internalType": "uint256",
          "name": "timestamp",
          "type": "uint256"
        }
      ],
      "stateMutability": "view",
      "type": "function",
      "constant": true
    },
    {
      "inputs": [
        {
          "internalType": "bytes32",
          "name": "_postId",
          "type": "bytes32"
        }
      ],
      "name": "getComments",
      "outputs": [
        {
          "components": [
            {
              "internalType": "bytes32",
              "name": "id",
              "type": "bytes32"
            },
            {
              "internalType": "address",
              "name": "commenterAddress",
              "type": "address"
            },
            {
              "internalType": "string",
              "name": "commenterName",
              "type": "string"
            },
            {
              "internalType": "string",
              "name": "content",
              "type": "string"
            },
            {
              "internalType": "uint256",
              "name": "upvote",
              "type": "uint256"
            },
            {
              "internalType": "uint256",
              "name": "downvote",
              "type": "uint256"
            },
            {
              "internalType": "uint256",
              "name": "timestamp",
              "type": "uint256"
            }
          ],
          "internalType": "struct MyblogApp.Comment[]",
          "name": "",
          "type": "tuple[]"
        }
      ],
      "stateMutability": "view",
      "type": "function",
      "constant": true
    }
  ],
  "bytecode": "0x6080604052348015600f57600080fd5b50612a878061001f6000396000f3fe608060405234801561001057600080fd5b506004361061009e5760003560e01c8063ae362ff911610066578063ae362ff914610145578063cdb1d17e1461017b578063e2fc269114610197578063e8a4a1eb146101b3578063f7ba787d146101cf5761009e565b80632cfdcc6b146100a357806330561100146100d3578063a54ff9ac146100f1578063a6c86b5b1461010d578063a7503db214610129575b600080fd5b6100bd60048036038101906100b891906119f0565b6101ff565b6040516100ca9190611c4b565b60405180910390f35b6100db610544565b6040516100e89190611c4b565b60405180910390f35b61010b60048036038101906101069190611c99565b6107fe565b005b61012760048036038101906101229190611cf2565b6109df565b005b610143600480360381019061013e9190611e67565b610c22565b005b61015f600480360381019061015a9190611c99565b610e60565b6040516101729796959493929190611f5a565b60405180910390f35b61019560048036038101906101909190611cf2565b611104565b005b6101b160048036038101906101ac9190611c99565b611347565b005b6101cd60048036038101906101c89190611fde565b611528565b005b6101e960048036038101906101e49190611c99565b61172a565b6040516101f691906121f9565b60405180910390f35b60606000600160008473ffffffffffffffffffffffffffffffffffffffff1673ffffffffffffffffffffffffffffffffffffffff16815260200190815260200160002080548060200260200160405190810160405280929190818152602001828054801561028c57602002820191906000526020600020905b815481526020019060010190808311610278575b505050505090506000815167ffffffffffffffff8111156102b0576102af611d3c565b5b6040519080825280602002602001820160405280156102e957816020015b6102d661193e565b8152602001906001900390816102ce5790505b50905060005b8251811015610539576002600084838151811061030f5761030e61221b565b5b602002602001015181526020019081526020016000206040518060e00160405290816000820154815260200160018201805461034a90612279565b80601f016020809104026020016040519081016040528092919081815260200182805461037690612279565b80156103c35780601f10610398576101008083540402835291602001916103c3565b820191906000526020600020905b8154815290600101906020018083116103a657829003601f168201915b505050505081526020016002820180546103dc90612279565b80601f016020809104026020016040519081016040528092919081815260200182805461040890612279565b80156104555780601f1061042a57610100808354040283529160200191610455565b820191906000526020600020905b81548152906001019060200180831161043857829003601f168201915b5050505050815260200160038201805461046e90612279565b80601f016020809104026020016040519081016040528092919081815260200182805461049a90612279565b80156104e75780601f106104bc576101008083540402835291602001916104e7565b820191906000526020600020905b8154815290600101906020018083116104ca57829003601f168201915b5050505050815260200160048201548152602001600582015481526020016006820154815250508282815181106105215761052061221b565b5b602002602001018190525080806001019150506102ef565b508092505050919050565b60606000808054905067ffffffffffffffff81111561056657610565611d3c565b5b60405190808252806020026020018201604052801561059f57816020015b61058c61193e565b8152602001906001900390816105845790505b50905060005b6000805490508110156107f657600260008083815481106105c9576105c861221b565b5b906000526020600020015481526020019081526020016000206040518060e00160405290816000820154815260200160018201805461060790612279565b80601f016020809104026020016040519081016040528092919081815260200182805461063390612279565b80156106805780601f1061065557610100808354040283529160200191610680565b820191906000526020600020905b81548152906001019060200180831161066357829003601f168201915b5050505050815260200160028201805461069990612279565b80601f01602080910402602001604051908101604052809291908181526020018280546106c590612279565b80156107125780601f106106e757610100808354040283529160200191610712565b820191906000526020600020905b8154815290600101906020018083116106f557829003601f168201915b5050505050815260200160038201805461072b90612279565b80601f016020809104026020016040519081016040528092919081815260200182805461075790612279565b80156107a45780601f10610779576101008083540402835291602001916107a4565b820191906000526020600020905b81548152906001019060200180831161078757829003601f168201915b5050505050815260200160048201548152602001600582015481526020016006820154815250508282815181106107de576107dd61221b565b5b602002602001018190525080806001019150506105a5565b508091505090565b6000801b600260008381526020019081526020016000206000015403610859576040517f08c379a0000000000000000000000000000000000000000000000000000000008152600401610850906122f6565b60405180910390fd5b6004600082815260200190815260200160002060003373ffffffffffffffffffffffffffffffffffffffff1673ffffffffffffffffffffffffffffffffffffffff16815260200190815260200160002060009054906101000a900460ff16156108f7576040517f08c379a00000000000000000000000000000000000000000000000000000000081526004016108ee90612362565b60405180910390fd5b60026000828152602001908152602001600020600501600081548092919061091e906123b1565b919050555060016004600083815260200190815260200160002060003373ffffffffffffffffffffffffffffffffffffffff1673ffffffffffffffffffffffffffffffffffffffff16815260200190815260200160002060006101000a81548160ff0219169083151502179055503373ffffffffffffffffffffffffffffffffffffffff16817fa7e4c5082f867ea22a45a95c2043209b9ce83d70ca31ccb947e67592ea14c4b160006040516109d49190612414565b60405180910390a350565b60036000838152602001908152602001600020805490508110610a37576040517f08c379a0000000000000000000000000000000000000000000000000000000008152600401610a2e9061247b565b60405180910390fd5b6005600083815260200190815260200160002060003373ffffffffffffffffffffffffffffffffffffffff1673ffffffffffffffffffffffffffffffffffffffff168152602001908152602001600020600082815260200190815260200160002060009054906101000a900460ff1615610ae6576040517f08c379a0000000000000000000000000000000000000000000000000000000008152600401610add906124e7565b60405180910390fd5b600360008381526020019081526020016000208181548110610b0b57610b0a61221b565b5b90600052602060002090600702016004016000815480929190610b2d906123b1565b919050555060016005600084815260200190815260200160002060003373ffffffffffffffffffffffffffffffffffffffff1673ffffffffffffffffffffffffffffffffffffffff168152602001908152602001600020600083815260200190815260200160002060006101000a81548160ff021916908315150217905550600360008381526020019081526020016000208181548110610bd157610bd061221b565b5b906000526020600020906007020160000154827fa718b91703005c7ff3c85ef47cb2b96b8bf518a0934598a085e074a84ad79ba1336001604051610c16929190612516565b60405180910390a35050565b6000801b600260008581526020019081526020016000206000015403610c7d576040517f08c379a0000000000000000000000000000000000000000000000000000000008152600401610c74906122f6565b60405180910390fd5b602082511115610cc2576040517f08c379a0000000000000000000000000000000000000000000000000000000008152600401610cb99061258b565b60405180910390fd5b6000334283604051602001610cd993929190612650565b60405160208183030381529060405280519060200120905060006040518060e001604052808381526020013373ffffffffffffffffffffffffffffffffffffffff1681526020018581526020018481526020016000815260200160008152602001428152509050600360008681526020019081526020016000208190806001815401808255809150506001900390600052602060002090600702016000909190919091506000820151816000015560208201518160010160006101000a81548173ffffffffffffffffffffffffffffffffffffffff021916908373ffffffffffffffffffffffffffffffffffffffff1602179055506040820151816002019081610de39190612835565b506060820151816003019081610df99190612835565b506080820151816004015560a0820151816005015560c08201518160060155505081857f121f72518586f939bfb34c62bbf7d31b0a8ae8ecbcac0869550705ee4cff80f533878742604051610e519493929190612907565b60405180910390a35050505050565b6000606080606060008060008060001b600260008a81526020019081526020016000206000015403610ec7576040517f08c379a0000000000000000000000000000000000000000000000000000000008152600401610ebe906122f6565b60405180910390fd5b6000600260008a81526020019081526020016000206040518060e001604052908160008201548152602001600182018054610f0190612279565b80601f0160208091040260200160405190810160405280929190818152602001828054610f2d90612279565b8015610f7a5780601f10610f4f57610100808354040283529160200191610f7a565b820191906000526020600020905b815481529060010190602001808311610f5d57829003601f168201915b50505050508152602001600282018054610f9390612279565b80601f0160208091040260200160405190810160405280929190818152602001828054610fbf90612279565b801561100c5780601f10610fe15761010080835404028352916020019161100c565b820191906000526020600020905b815481529060010190602001808311610fef57829003601f168201915b5050505050815260200160038201805461102590612279565b80601f016020809104026020016040519081016040528092919081815260200182805461105190612279565b801561109e5780601f106110735761010080835404028352916020019161109e565b820191906000526020600020905b81548152906001019060200180831161108157829003601f168201915b5050505050815260200160048201548152602001600582015481526020016006820154815250509050806000015181602001518260400151836060015184608001518560a001518660c00151975097509750975097509750975050919395979092949650565b6003600083815260200190815260200160002080549050811061115c576040517f08c379a00000000000000000000000000000000000000000000000000000000081526004016111539061247b565b60405180910390fd5b6005600083815260200190815260200160002060003373ffffffffffffffffffffffffffffffffffffffff1673ffffffffffffffffffffffffffffffffffffffff168152602001908152602001600020600082815260200190815260200160002060009054906101000a900460ff161561120b576040517f08c379a0000000000000000000000000000000000000000000000000000000008152600401611202906124e7565b60405180910390fd5b6003600083815260200190815260200160002081815481106112305761122f61221b565b5b90600052602060002090600702016005016000815480929190611252906123b1565b919050555060016005600084815260200190815260200160002060003373ffffffffffffffffffffffffffffffffffffffff1673ffffffffffffffffffffffffffffffffffffffff168152602001908152602001600020600083815260200190815260200160002060006101000a81548160ff0219169083151502179055506003600083815260200190815260200160002081815481106112f6576112f561221b565b5b906000526020600020906007020160000154827fa718b91703005c7ff3c85ef47cb2b96b8bf518a0934598a085e074a84ad79ba133600060405161133b929190612516565b60405180910390a35050565b6000801b6002600083815260200190815260200160002060000154036113a2576040517f08c379a0000000000000000000000000000000000000000000000000000000008152600401611399906122f6565b60405180910390fd5b6004600082815260200190815260200160002060003373ffffffffffffffffffffffffffffffffffffffff1673ffffffffffffffffffffffffffffffffffffffff16815260200190815260200160002060009054906101000a900460ff1615611440576040517f08c379a000000000000000000000000000000000000000000000000000000000815260040161143790612362565b60405180910390fd5b600260008281526020019081526020016000206004016000815480929190611467906123b1565b919050555060016004600083815260200190815260200160002060003373ffffffffffffffffffffffffffffffffffffffff1673ffffffffffffffffffffffffffffffffffffffff16815260200190815260200160002060006101000a81548160ff0219169083151502179055503373ffffffffffffffffffffffffffffffffffffffff16817fa7e4c5082f867ea22a45a95c2043209b9ce83d70ca31ccb947e67592ea14c4b1600160405161151d9190612414565b60405180910390a350565b60208351111561156d576040517f08c379a0000000000000000000000000000000000000000000000000000000008152600401611564906129a6565b60405180910390fd5b60003342848460405160200161158694939291906129c6565b60405160208183030381529060405280519060200120905060006040518060e0016040528083815260200186815260200185815260200184815260200160008152602001600081526020014281525090506000829080600181540180825580915050600190039060005260206000200160009091909190915055600160003373ffffffffffffffffffffffffffffffffffffffff1673ffffffffffffffffffffffffffffffffffffffff16815260200190815260200160002082908060018154018082558091505060019003906000526020600020016000909190919091505580600260008481526020019081526020016000206000820151816000015560208201518160010190816116999190612835565b5060408201518160020190816116af9190612835565b5060608201518160030190816116c59190612835565b506080820151816004015560a0820151816005015560c08201518160060155905050817f17f34748f078a06d3c7c034ef1cdf60a8b2baf4592df676d3a2ae61596619f9885874260405161171b93929190612a0c565b60405180910390a25050505050565b606060036000838152602001908152602001600020805480602002602001604051908101604052809291908181526020016000905b8282101561193357838290600052602060002090600702016040518060e0016040529081600082015481526020016001820160009054906101000a900473ffffffffffffffffffffffffffffffffffffffff1673ffffffffffffffffffffffffffffffffffffffff1673ffffffffffffffffffffffffffffffffffffffff1681526020016002820180546117f290612279565b80601f016020809104026020016040519081016040528092919081815260200182805461181e90612279565b801561186b5780601f106118405761010080835404028352916020019161186b565b820191906000526020600020905b81548152906001019060200180831161184e57829003601f168201915b5050505050815260200160038201805461188490612279565b80601f01602080910402602001604051908101604052809291908181526020018280546118b090612279565b80156118fd5780601f106118d2576101008083540402835291602001916118fd565b820191906000526020600020905b8154815290600101906020018083116118e057829003601f168201915b5050505050815260200160048201548152602001600582015481526020016006820154815250508152602001906001019061175f565b505050509050919050565b6040518060e00160405280600080191681526020016060815260200160608152602001606081526020016000815260200160008152602001600081525090565b6000604051905090565b600080fd5b600080fd5b600073ffffffffffffffffffffffffffffffffffffffff82169050919050565b60006119bd82611992565b9050919050565b6119cd816119b2565b81146119d857600080fd5b50565b6000813590506119ea816119c4565b92915050565b600060208284031215611a0657611a05611988565b5b6000611a14848285016119db565b91505092915050565b600081519050919050565b600082825260208201905092915050565b6000819050602082019050919050565b6000819050919050565b611a5c81611a49565b82525050565b600081519050919050565b600082825260208201905092915050565b60005b83811015611a9c578082015181840152602081019050611a81565b60008484015250505050565b6000601f19601f8301169050919050565b6000611ac482611a62565b611ace8185611a6d565b9350611ade818560208601611a7e565b611ae781611aa8565b840191505092915050565b6000819050919050565b611b0581611af2565b82525050565b600060e083016000830151611b236000860182611a53565b5060208301518482036020860152611b3b8282611ab9565b91505060408301518482036040860152611b558282611ab9565b91505060608301518482036060860152611b6f8282611ab9565b9150506080830151611b846080860182611afc565b5060a0830151611b9760a0860182611afc565b5060c0830151611baa60c0860182611afc565b508091505092915050565b6000611bc18383611b0b565b905092915050565b6000602082019050919050565b6000611be182611a1d565b611beb8185611a28565b935083602082028501611bfd85611a39565b8060005b85811015611c395784840389528151611c1a8582611bb5565b9450611c2583611bc9565b925060208a01995050600181019050611c01565b50829750879550505050505092915050565b60006020820190508181036000830152611c658184611bd6565b905092915050565b611c7681611a49565b8114611c8157600080fd5b50565b600081359050611c9381611c6d565b92915050565b600060208284031215611caf57611cae611988565b5b6000611cbd84828501611c84565b91505092915050565b611ccf81611af2565b8114611cda57600080fd5b50565b600081359050611cec81611cc6565b92915050565b60008060408385031215611d0957611d08611988565b5b6000611d1785828601611c84565b9250506020611d2885828601611cdd565b9150509250929050565b600080fd5b600080fd5b7f4e487b7100000000000000000000000000000000000000000000000000000000600052604160045260246000fd5b611d7482611aa8565b810181811067ffffffffffffffff82111715611d9357611d92611d3c565b5b80604052505050565b6000611da661197e565b9050611db28282611d6b565b919050565b600067ffffffffffffffff821115611dd257611dd1611d3c565b5b611ddb82611aa8565b9050602081019050919050565b82818337600083830152505050565b6000611e0a611e0584611db7565b611d9c565b905082815260208101848484011115611e2657611e25611d37565b5b611e31848285611de8565b509392505050565b600082601f830112611e4e57611e4d611d32565b5b8135611e5e848260208601611df7565b91505092915050565b600080600060608486031215611e8057611e7f611988565b5b6000611e8e86828701611c84565b935050602084013567ffffffffffffffff811115611eaf57611eae61198d565b5b611ebb86828701611e39565b925050604084013567ffffffffffffffff811115611edc57611edb61198d565b5b611ee886828701611e39565b9150509250925092565b611efb81611a49565b82525050565b600082825260208201905092915050565b6000611f1d82611a62565b611f278185611f01565b9350611f37818560208601611a7e565b611f4081611aa8565b840191505092915050565b611f5481611af2565b82525050565b600060e082019050611f6f600083018a611ef2565b8181036020830152611f818189611f12565b90508181036040830152611f958188611f12565b90508181036060830152611fa98187611f12565b9050611fb86080830186611f4b565b611fc560a0830185611f4b565b611fd260c0830184611f4b565b98975050505050505050565b600080600060608486031215611ff757611ff6611988565b5b600084013567ffffffffffffffff8111156120155761201461198d565b5b61202186828701611e39565b935050602084013567ffffffffffffffff8111156120425761204161198d565b5b61204e86828701611e39565b925050604084013567ffffffffffffffff81111561206f5761206e61198d565b5b61207b86828701611e39565b9150509250925092565b600081519050919050565b600082825260208201905092915050565b6000819050602082019050919050565b6120ba816119b2565b82525050565b600060e0830160008301516120d86000860182611a53565b5060208301516120eb60208601826120b1565b50604083015184820360408601526121038282611ab9565b9150506060830151848203606086015261211d8282611ab9565b91505060808301516121326080860182611afc565b5060a083015161214560a0860182611afc565b5060c083015161215860c0860182611afc565b508091505092915050565b600061216f83836120c0565b905092915050565b6000602082019050919050565b600061218f82612085565b6121998185612090565b9350836020820285016121ab856120a1565b8060005b858110156121e757848403895281516121c88582612163565b94506121d383612177565b925060208a019950506001810190506121af565b50829750879550505050505092915050565b600060208201905081810360008301526122138184612184565b905092915050565b7f4e487b7100000000000000000000000000000000000000000000000000000000600052603260045260246000fd5b7f4e487b7100000000000000000000000000000000000000000000000000000000600052602260045260246000fd5b6000600282049050600182168061229157607f821691505b6020821081036122a4576122a361224a565b5b50919050565b7f506f737420646f6573206e6f742065786973742e000000000000000000000000600082015250565b60006122e0601483611f01565b91506122eb826122aa565b602082019050919050565b6000602082019050818103600083015261230f816122d3565b9050919050565b7f416c726561647920766f746564206f6e207468697320706f73742e0000000000600082015250565b600061234c601b83611f01565b915061235782612316565b602082019050919050565b6000602082019050818103600083015261237b8161233f565b9050919050565b7f4e487b7100000000000000000000000000000000000000000000000000000000600052601160045260246000fd5b60006123bc82611af2565b91507fffffffffffffffffffffffffffffffffffffffffffffffffffffffffffffffff82036123ee576123ed612382565b5b600182019050919050565b60008115159050919050565b61240e816123f9565b82525050565b60006020820190506124296000830184612405565b92915050565b7f436f6d6d656e7420646f6573206e6f7420657869737400000000000000000000600082015250565b6000612465601683611f01565b91506124708261242f565b602082019050919050565b6000602082019050818103600083015261249481612458565b9050919050565b7f416c726561647920766f746564206f6e207468697320636f6d6d656e74000000600082015250565b60006124d1601d83611f01565b91506124dc8261249b565b602082019050919050565b60006020820190508181036000830152612500816124c4565b9050919050565b612510816119b2565b82525050565b600060408201905061252b6000830185612507565b6125386020830184612405565b9392505050565b7f436f6d6d656e746572206e616d6520746f6f206c6f6e67000000000000000000600082015250565b6000612575601783611f01565b91506125808261253f565b602082019050919050565b600060208201905081810360008301526125a481612568565b9050919050565b60008160601b9050919050565b60006125c3826125ab565b9050919050565b60006125d5826125b8565b9050919050565b6125ed6125e8826119b2565b6125ca565b82525050565b6000819050919050565b61260e61260982611af2565b6125f3565b82525050565b600081905092915050565b600061262a82611a62565b6126348185612614565b9350612644818560208601611a7e565b80840191505092915050565b600061265c82866125dc565b60148201915061266c82856125fd565b60208201915061267c828461261f565b9150819050949350505050565b60008190508160005260206000209050919050565b60006020601f8301049050919050565b600082821b905092915050565b6000600883026126eb7fffffffffffffffffffffffffffffffffffffffffffffffffffffffffffffffff826126ae565b6126f586836126ae565b95508019841693508086168417925050509392505050565b6000819050919050565b600061273261272d61272884611af2565b61270d565b611af2565b9050919050565b6000819050919050565b61274c83612717565b61276061275882612739565b8484546126bb565b825550505050565b600090565b612775612768565b612780818484612743565b505050565b5b818110156127a45761279960008261276d565b600181019050612786565b5050565b601f8211156127e9576127ba81612689565b6127c38461269e565b810160208510156127d2578190505b6127e66127de8561269e565b830182612785565b50505b505050565b600082821c905092915050565b600061280c600019846008026127ee565b1980831691505092915050565b600061282583836127fb565b9150826002028217905092915050565b61283e82611a62565b67ffffffffffffffff81111561285757612856611d3c565b5b6128618254612279565b61286c8282856127a8565b600060209050601f83116001811461289f576000841561288d578287015190505b6128978582612819565b8655506128ff565b601f1984166128ad86612689565b60005b828110156128d5578489015182556001820191506020850194506020810190506128b0565b868310156128f257848901516128ee601f8916826127fb565b8355505b6001600288020188555050505b505050505050565b600060808201905061291c6000830187612507565b818103602083015261292e8186611f12565b905081810360408301526129428185611f12565b90506129516060830184611f4b565b95945050505050565b7f417574686f72206e616d6520746f6f206c6f6e67000000000000000000000000600082015250565b6000612990601483611f01565b915061299b8261295a565b602082019050919050565b600060208201905081810360008301526129bf81612983565b9050919050565b60006129d282876125dc565b6014820191506129e282866125fd565b6020820191506129f2828561261f565b91506129fe828461261f565b915081905095945050505050565b60006060820190508181036000830152612a268186611f12565b90508181036020830152612a3a8185611f12565b9050612a496040830184611f4b565b94935050505056fea2646970667358221220b6e3afb3a553682fadd2262929b58a87848c10017c3497c49c092c8874cace1164736f6c634300081e0033",
  "immutableReferences": {},
  "source": "// SPDX-License-Identifier: MIT\r\npragma solidity >=0.8.2 <0.9.0;\r\n\r\ncontract MyblogApp {\r\n    struct Post {\r\n        bytes32 id;\r\n        string author;      // Name of the author\r\n        string title;\r\n        string contentHash; // IPFS hash\r\n        uint256 upvote;\r\n        uint256 downvote;\r\n        uint256 timestamp;\r\n    }\r\n\r\n    struct Comment {\r\n        bytes32 id;\r\n        address commenterAddress;\r\n        string commenterName; // Name of the commenter\r\n        string content;\r\n        uint256 upvote;\r\n        uint256 downvote;\r\n        uint256 timestamp;\r\n    }\r\n\r\n    // Post storage\r\n    bytes32[] private allPostsIds;\r\n    mapping(address => bytes32[]) private userPosts;\r\n    mapping(bytes32 => Post) private posts;\r\n\r\n    // Comment storage\r\n    mapping(bytes32 => Comment[]) private postComments; // postId => array of comments\r\n    mapping(bytes32 => mapping(address => bool)) private hasVoted; // post votes\r\n    mapping(bytes32 => mapping(address => mapping(uint => bool))) private hasVotedComment; // comment votes\r\n\r\n    // Events\r\n    event Postcreation(bytes32 indexed postId, string title, string author, uint256 timestamp);\r\n    event PostVoted(bytes32 indexed postId, address indexed voter, bool isUpvote);\r\n    event CommentAdded(bytes32 indexed postId, bytes32 indexed commentId, address commenterAddress, string commenterName, string content, uint256 timestamp);\r\n    event CommentVoted(bytes32 indexed postId, bytes32 indexed commentId, address voter, bool isUpvote);\r\n\r\n    // Create a new post\r\n    function createPost(string memory _author, string memory _title, string memory _contentHash) public {\r\n        require(bytes(_author).length <= 32, \"Author name too long\");\r\n\r\n        bytes32 _id = keccak256(abi.encodePacked(msg.sender, block.timestamp, _title, _contentHash));\r\n        Post memory newpost = Post({\r\n            id: _id,\r\n            author: _author,\r\n            title: _title,\r\n            contentHash: _contentHash,\r\n            upvote: 0,\r\n            downvote: 0,\r\n            timestamp: block.timestamp\r\n        });\r\n\r\n        allPostsIds.push(_id);\r\n        userPosts[msg.sender].push(_id);\r\n        posts[_id] = newpost;\r\n\r\n        emit Postcreation(_id, _title, _author, block.timestamp);\r\n    }\r\n\r\n    // Upvote/Downvote post\r\n    function upvotePost(bytes32 _postId) public {\r\n        require(posts[_postId].id != bytes32(0), \"Post does not exist.\");\r\n        require(!hasVoted[_postId][msg.sender], \"Already voted on this post.\");\r\n        posts[_postId].upvote++;\r\n        hasVoted[_postId][msg.sender] = true;\r\n        emit PostVoted(_postId, msg.sender, true);\r\n    }\r\n\r\n    function downvotePost(bytes32 _postId) public {\r\n        require(posts[_postId].id != bytes32(0), \"Post does not exist.\");\r\n        require(!hasVoted[_postId][msg.sender], \"Already voted on this post.\");\r\n        posts[_postId].downvote++;\r\n        hasVoted[_postId][msg.sender] = true;\r\n        emit PostVoted(_postId, msg.sender, false);\r\n    }\r\n\r\n    // Add comment to post\r\n    function addComment(bytes32 _postId, string memory _commenterName, string memory _content) public {\r\n        require(posts[_postId].id != bytes32(0), \"Post does not exist.\");\r\n        require(bytes(_commenterName).length <= 32, \"Commenter name too long\");\r\n\r\n        bytes32 commentId = keccak256(abi.encodePacked(msg.sender, block.timestamp, _content));\r\n        Comment memory newComment = Comment({\r\n            id: commentId,\r\n            commenterAddress: msg.sender,\r\n            commenterName: _commenterName,\r\n            content: _content,\r\n            upvote: 0,\r\n            downvote: 0,\r\n            timestamp: block.timestamp\r\n        });\r\n\r\n        postComments[_postId].push(newComment);\r\n\r\n        emit CommentAdded(_postId, commentId, msg.sender, _commenterName, _content, block.timestamp);\r\n    }\r\n\r\n    // Upvote/Downvote comment\r\n    function upvoteComment(bytes32 _postId, uint _commentIndex) public {\r\n        require(_commentIndex < postComments[_postId].length, \"Comment does not exist\");\r\n        require(!hasVotedComment[_postId][msg.sender][_commentIndex], \"Already voted on this comment\");\r\n\r\n        postComments[_postId][_commentIndex].upvote++;\r\n        hasVotedComment[_postId][msg.sender][_commentIndex] = true;\r\n\r\n        emit CommentVoted(_postId, postComments[_postId][_commentIndex].id, msg.sender, true);\r\n    }\r\n\r\n    function downvoteComment(bytes32 _postId, uint _commentIndex) public {\r\n        require(_commentIndex < postComments[_postId].length, \"Comment does not exist\");\r\n        require(!hasVotedComment[_postId][msg.sender][_commentIndex], \"Already voted on this comment\");\r\n\r\n        postComments[_postId][_commentIndex].downvote++;\r\n        hasVotedComment[_postId][msg.sender][_commentIndex] = true;\r\n\r\n        emit CommentVoted(_postId, postComments[_postId][_commentIndex].id, msg.sender, false);\r\n    }\r\n\r\n    // Fetch posts\r\n    function getAllPosts() public view returns(Post[] memory) {\r\n        Post[] memory allPosts = new Post[](allPostsIds.length);\r\n        for(uint i = 0; i < allPostsIds.length; i++) {\r\n            allPosts[i] = posts[allPostsIds[i]];\r\n        }\r\n        return allPosts;\r\n    }\r\n\r\n    function getAllPostsOfUser(address _user) public view returns(Post[] memory) {\r\n        bytes32[] memory userPostIds = userPosts[_user];\r\n        Post[] memory allPosts = new Post[](userPostIds.length);\r\n        for (uint i = 0; i < userPostIds.length; i++) {\r\n            allPosts[i] = posts[userPostIds[i]];\r\n        }\r\n        return allPosts;\r\n    }\r\n\r\n    // NEW: Fetch a single post by ID\r\n    function getPostById(bytes32 _postId) public view returns (\r\n        bytes32 id,\r\n        string memory author,\r\n        string memory title,\r\n        string memory contentHash,\r\n        uint256 upvote,\r\n        uint256 downvote,\r\n        uint256 timestamp\r\n    ) {\r\n        require(posts[_postId].id != bytes32(0), \"Post does not exist.\");\r\n        Post memory p = posts[_postId];\r\n        return (p.id, p.author, p.title, p.contentHash, p.upvote, p.downvote, p.timestamp);\r\n    }\r\n\r\n    // Fetch comments of a post\r\n    function getComments(bytes32 _postId) public view returns(Comment[] memory) {\r\n        return postComments[_postId];\r\n    }\r\n}\r\n",
  "sourcePath": "C:\\Users\\hp\\OneDrive\\Desktop\\Projects\\DBloggingApp\\blockchain\\contracts\\MyblogApp.sol",
  "compiler": {
    "name": "solc",
    "version": "0.8.30+commit.73712a01.Emscripten.clang"
  },
  "schemaVersion": "3.4.16",
  "updatedAt": "2025-09-25T17:55:18.818Z",
  "networkType": "ethereum",
  "devdoc": {
    "kind": "dev",
    "methods": {},
    "version": 1
  },
  "userdoc": {
    "kind": "user",
    "methods": {},
    "version": 1
  }
}