{
	"contracts/MyblogApp.sol": {
		"MyblogApp": {
			"abi": [
				{
					"anonymous": false,
					"inputs": [
						{
							"indexed": true,
							"internalType": "bytes32",
							"name": "postId",
							"type": "bytes32"
						},
						{
							"indexed": true,
							"internalType": "address",
							"name": "voter",
							"type": "address"
						},
						{
							"indexed": false,
							"internalType": "bool",
							"name": "isUpvote",
							"type": "bool"
						}
					],
					"name": "PostVoted",
					"type": "event"
				},
				{
					"anonymous": false,
					"inputs": [
						{
							"indexed": true,
							"internalType": "bytes32",
							"name": "postId",
							"type": "bytes32"
						},
						{
							"indexed": false,
							"internalType": "string",
							"name": "title",
							"type": "string"
						},
						{
							"indexed": false,
							"internalType": "string",
							"name": "author",
							"type": "string"
						},
						{
							"indexed": false,
							"internalType": "uint256",
							"name": "timestamp",
							"type": "uint256"
						}
					],
					"name": "Postcreation",
					"type": "event"
				},
				{
					"inputs": [
						{
							"internalType": "string",
							"name": "_author",
							"type": "string"
						},
						{
							"internalType": "string",
							"name": "_title",
							"type": "string"
						},
						{
							"internalType": "string",
							"name": "_contentHash",
							"type": "string"
						}
					],
					"name": "createPost",
					"outputs": [],
					"stateMutability": "nonpayable",
					"type": "function"
				},
				{
					"inputs": [
						{
							"internalType": "bytes32",
							"name": "_postId",
							"type": "bytes32"
						}
					],
					"name": "downvotePost",
					"outputs": [],
					"stateMutability": "nonpayable",
					"type": "function"
				},
				{
					"inputs": [
						{
							"internalType": "address",
							"name": "_user",
							"type": "address"
						}
					],
					"name": "getAllPostsOfUser",
					"outputs": [
						{
							"components": [
								{
									"internalType": "bytes32",
									"name": "id",
									"type": "bytes32"
								},
								{
									"internalType": "string",
									"name": "author",
									"type": "string"
								},
								{
									"internalType": "string",
									"name": "title",
									"type": "string"
								},
								{
									"internalType": "string",
									"name": "contentHash",
									"type": "string"
								},
								{
									"internalType": "uint256",
									"name": "upvote",
									"type": "uint256"
								},
								{
									"internalType": "uint256",
									"name": "downvote",
									"type": "uint256"
								},
								{
									"internalType": "uint256",
									"name": "timestamp",
									"type": "uint256"
								}
							],
							"internalType": "struct MyblogApp.Post[]",
							"name": "",
							"type": "tuple[]"
						}
					],
					"stateMutability": "view",
					"type": "function"
				},
				{
					"inputs": [
						{
							"internalType": "bytes32",
							"name": "_postId",
							"type": "bytes32"
						}
					],
					"name": "getPostById",
					"outputs": [
						{
							"components": [
								{
									"internalType": "bytes32",
									"name": "id",
									"type": "bytes32"
								},
								{
									"internalType": "string",
									"name": "author",
									"type": "string"
								},
								{
									"internalType": "string",
									"name": "title",
									"type": "string"
								},
								{
									"internalType": "string",
									"name": "contentHash",
									"type": "string"
								},
								{
									"internalType": "uint256",
									"name": "upvote",
									"type": "uint256"
								},
								{
									"internalType": "uint256",
									"name": "downvote",
									"type": "uint256"
								},
								{
									"internalType": "uint256",
									"name": "timestamp",
									"type": "uint256"
								}
							],
							"internalType": "struct MyblogApp.Post",
							"name": "",
							"type": "tuple"
						}
					],
					"stateMutability": "view",
					"type": "function"
				},
				{
					"inputs": [
						{
							"internalType": "bytes32",
							"name": "_postId",
							"type": "bytes32"
						}
					],
					"name": "upvotePost",
					"outputs": [],
					"stateMutability": "nonpayable",
					"type": "function"
				}
			],
			"devdoc": {
				"kind": "dev",
				"methods": {},
				"version": 1
			},
			"evm": {
				"assembly": "    /* \"contracts/MyblogApp.sol\":68:3330  contract MyblogApp... */\n  mstore(0x40, 0x80)\n  callvalue\n  dup1\n  iszero\n  tag_1\n  jumpi\n  revert(0x00, 0x00)\ntag_1:\n  pop\n  dataSize(sub_0)\n  dup1\n  dataOffset(sub_0)\n  0x00\n  codecopy\n  0x00\n  return\nstop\n\nsub_0: assembly {\n        /* \"contracts/MyblogApp.sol\":68:3330  contract MyblogApp... */\n      mstore(0x40, 0x80)\n      callvalue\n      dup1\n      iszero\n      tag_1\n      jumpi\n      revert(0x00, 0x00)\n    tag_1:\n      pop\n      jumpi(tag_2, lt(calldatasize, 0x04))\n      shr(0xe0, calldataload(0x00))\n      dup1\n      0x2cfdcc6b\n      eq\n      tag_3\n      jumpi\n      dup1\n      0xa54ff9ac\n      eq\n      tag_4\n      jumpi\n      dup1\n      0xae362ff9\n      eq\n      tag_5\n      jumpi\n      dup1\n      0xe2fc2691\n      eq\n      tag_6\n      jumpi\n      dup1\n      0xe8a4a1eb\n      eq\n      tag_7\n      jumpi\n    tag_2:\n      revert(0x00, 0x00)\n        /* \"contracts/MyblogApp.sol\":2828:3207  function getAllPostsOfUser(address _user) public view returns (Post[] memory)... */\n    tag_3:\n      tag_8\n      0x04\n      dup1\n      calldatasize\n      sub\n      dup2\n      add\n      swap1\n      tag_9\n      swap2\n      swap1\n      tag_10\n      jump\t// in\n    tag_9:\n      tag_11\n      jump\t// in\n    tag_8:\n      mload(0x40)\n      tag_12\n      swap2\n      swap1\n      tag_13\n      jump\t// in\n    tag_12:\n      mload(0x40)\n      dup1\n      swap2\n      sub\n      swap1\n      return\n        /* \"contracts/MyblogApp.sol\":2295:2820  function downvotePost(bytes32 _postId) public {... */\n    tag_4:\n      tag_14\n      0x04\n      dup1\n      calldatasize\n      sub\n      dup2\n      add\n      swap1\n      tag_15\n      swap2\n      swap1\n      tag_16\n      jump\t// in\n    tag_15:\n      tag_17\n      jump\t// in\n    tag_14:\n      stop\n        /* \"contracts/MyblogApp.sol\":3215:3327  function getPostById(bytes32 _postId) public view returns (Post memory) {... */\n    tag_5:\n      tag_18\n      0x04\n      dup1\n      calldatasize\n      sub\n      dup2\n      add\n      swap1\n      tag_19\n      swap2\n      swap1\n      tag_16\n      jump\t// in\n    tag_19:\n      tag_20\n      jump\t// in\n    tag_18:\n      mload(0x40)\n      tag_21\n      swap2\n      swap1\n      tag_22\n      jump\t// in\n    tag_21:\n      mload(0x40)\n      dup1\n      swap2\n      sub\n      swap1\n      return\n        /* \"contracts/MyblogApp.sol\":1728:2246  function upvotePost(bytes32 _postId) public {... */\n    tag_6:\n      tag_23\n      0x04\n      dup1\n      calldatasize\n      sub\n      dup2\n      add\n      swap1\n      tag_24\n      swap2\n      swap1\n      tag_16\n      jump\t// in\n    tag_24:\n      tag_25\n      jump\t// in\n    tag_23:\n      stop\n        /* \"contracts/MyblogApp.sol\":904:1681  function createPost(string memory _author, string memory _title, string memory _contentHash) public ... */\n    tag_7:\n      tag_26\n      0x04\n      dup1\n      calldatasize\n      sub\n      dup2\n      add\n      swap1\n      tag_27\n      swap2\n      swap1\n      tag_28\n      jump\t// in\n    tag_27:\n      tag_29\n      jump\t// in\n    tag_26:\n      stop\n        /* \"contracts/MyblogApp.sol\":2828:3207  function getAllPostsOfUser(address _user) public view returns (Post[] memory)... */\n    tag_11:\n        /* \"contracts/MyblogApp.sol\":2891:2904  Post[] memory */\n      0x60\n        /* \"contracts/MyblogApp.sol\":2922:2950  bytes32[] memory userPostIds */\n      0x00\n        /* \"contracts/MyblogApp.sol\":2953:2962  userPosts */\n      0x00\n        /* \"contracts/MyblogApp.sol\":2953:2969  userPosts[_user] */\n      0x00\n        /* \"contracts/MyblogApp.sol\":2963:2968  _user */\n      dup5\n        /* \"contracts/MyblogApp.sol\":2953:2969  userPosts[_user] */\n      0xffffffffffffffffffffffffffffffffffffffff\n      and\n      0xffffffffffffffffffffffffffffffffffffffff\n      and\n      dup2\n      mstore\n      0x20\n      add\n      swap1\n      dup2\n      mstore\n      0x20\n      add\n      0x00\n      keccak256\n        /* \"contracts/MyblogApp.sol\":2922:2969  bytes32[] memory userPostIds = userPosts[_user] */\n      dup1\n      sload\n      dup1\n      0x20\n      mul\n      0x20\n      add\n      mload(0x40)\n      swap1\n      dup2\n      add\n      0x40\n      mstore\n      dup1\n      swap3\n      swap2\n      swap1\n      dup2\n      dup2\n      mstore\n      0x20\n      add\n      dup3\n      dup1\n      sload\n      dup1\n      iszero\n      tag_31\n      jumpi\n      0x20\n      mul\n      dup3\n      add\n      swap2\n      swap1\n      0x00\n      mstore\n      keccak256(0x00, 0x20)\n      swap1\n    tag_32:\n      dup2\n      sload\n      dup2\n      mstore\n      0x20\n      add\n      swap1\n      0x01\n      add\n      swap1\n      dup1\n      dup4\n      gt\n      tag_32\n      jumpi\n    tag_31:\n      pop\n      pop\n      pop\n      pop\n      pop\n      swap1\n      pop\n        /* \"contracts/MyblogApp.sol\":2980:3002  Post[] memory allPosts */\n      0x00\n        /* \"contracts/MyblogApp.sol\":3016:3027  userPostIds */\n      dup2\n        /* \"contracts/MyblogApp.sol\":3016:3034  userPostIds.length */\n      mload\n        /* \"contracts/MyblogApp.sol\":3005:3035  new Post[](userPostIds.length) */\n      0xffffffffffffffff\n      dup2\n      gt\n      iszero\n      tag_33\n      jumpi\n      tag_34\n      tag_35\n      jump\t// in\n    tag_34:\n    tag_33:\n      mload(0x40)\n      swap1\n      dup1\n      dup3\n      mstore\n      dup1\n      0x20\n      mul\n      0x20\n      add\n      dup3\n      add\n      0x40\n      mstore\n      dup1\n      iszero\n      tag_36\n      jumpi\n      dup2\n      0x20\n      add\n    tag_37:\n      tag_38\n      tag_39\n      jump\t// in\n    tag_38:\n      dup2\n      mstore\n      0x20\n      add\n      swap1\n      0x01\n      swap1\n      sub\n      swap1\n      dup2\n      tag_37\n      jumpi\n      swap1\n      pop\n    tag_36:\n      pop\n        /* \"contracts/MyblogApp.sol\":2980:3035  Post[] memory allPosts = new Post[](userPostIds.length) */\n      swap1\n      pop\n        /* \"contracts/MyblogApp.sol\":3061:3067  uint i */\n      0x00\n        /* \"contracts/MyblogApp.sol\":3070:3071  0 */\n      0x00\n        /* \"contracts/MyblogApp.sol\":3061:3071  uint i = 0 */\n      swap1\n      pop\n        /* \"contracts/MyblogApp.sol\":3056:3164  for (uint i = 0; i < userPostIds.length; i++) {... */\n    tag_40:\n        /* \"contracts/MyblogApp.sol\":3077:3088  userPostIds */\n      dup3\n        /* \"contracts/MyblogApp.sol\":3077:3095  userPostIds.length */\n      mload\n        /* \"contracts/MyblogApp.sol\":3073:3074  i */\n      dup2\n        /* \"contracts/MyblogApp.sol\":3073:3095  i < userPostIds.length */\n      lt\n        /* \"contracts/MyblogApp.sol\":3056:3164  for (uint i = 0; i < userPostIds.length; i++) {... */\n      iszero\n      tag_41\n      jumpi\n        /* \"contracts/MyblogApp.sol\":3131:3136  posts */\n      0x01\n        /* \"contracts/MyblogApp.sol\":3131:3152  posts[userPostIds[i]] */\n      0x00\n        /* \"contracts/MyblogApp.sol\":3137:3148  userPostIds */\n      dup5\n        /* \"contracts/MyblogApp.sol\":3149:3150  i */\n      dup4\n        /* \"contracts/MyblogApp.sol\":3137:3151  userPostIds[i] */\n      dup2\n      mload\n      dup2\n      lt\n      tag_43\n      jumpi\n      tag_44\n      tag_45\n      jump\t// in\n    tag_44:\n    tag_43:\n      0x20\n      mul\n      0x20\n      add\n      add\n      mload\n        /* \"contracts/MyblogApp.sol\":3131:3152  posts[userPostIds[i]] */\n      dup2\n      mstore\n      0x20\n      add\n      swap1\n      dup2\n      mstore\n      0x20\n      add\n      0x00\n      keccak256\n        /* \"contracts/MyblogApp.sol\":3117:3152  allPosts[i] = posts[userPostIds[i]] */\n      mload(0x40)\n      dup1\n      0xe0\n      add\n      0x40\n      mstore\n      swap1\n      dup2\n      0x00\n      dup3\n      add\n      sload\n      dup2\n      mstore\n      0x20\n      add\n      0x01\n      dup3\n      add\n      dup1\n      sload\n      tag_46\n      swap1\n      tag_47\n      jump\t// in\n    tag_46:\n      dup1\n      0x1f\n      add\n      0x20\n      dup1\n      swap2\n      div\n      mul\n      0x20\n      add\n      mload(0x40)\n      swap1\n      dup2\n      add\n      0x40\n      mstore\n      dup1\n      swap3\n      swap2\n      swap1\n      dup2\n      dup2\n      mstore\n      0x20\n      add\n      dup3\n      dup1\n      sload\n      tag_48\n      swap1\n      tag_47\n      jump\t// in\n    tag_48:\n      dup1\n      iszero\n      tag_49\n      jumpi\n      dup1\n      0x1f\n      lt\n      tag_50\n      jumpi\n      0x0100\n      dup1\n      dup4\n      sload\n      div\n      mul\n      dup4\n      mstore\n      swap2\n      0x20\n      add\n      swap2\n      jump(tag_49)\n    tag_50:\n      dup3\n      add\n      swap2\n      swap1\n      0x00\n      mstore\n      keccak256(0x00, 0x20)\n      swap1\n    tag_51:\n      dup2\n      sload\n      dup2\n      mstore\n      swap1\n      0x01\n      add\n      swap1\n      0x20\n      add\n      dup1\n      dup4\n      gt\n      tag_51\n      jumpi\n      dup3\n      swap1\n      sub\n      0x1f\n      and\n      dup3\n      add\n      swap2\n    tag_49:\n      pop\n      pop\n      pop\n      pop\n      pop\n      dup2\n      mstore\n      0x20\n      add\n      0x02\n      dup3\n      add\n      dup1\n      sload\n      tag_52\n      swap1\n      tag_47\n      jump\t// in\n    tag_52:\n      dup1\n      0x1f\n      add\n      0x20\n      dup1\n      swap2\n      div\n      mul\n      0x20\n      add\n      mload(0x40)\n      swap1\n      dup2\n      add\n      0x40\n      mstore\n      dup1\n      swap3\n      swap2\n      swap1\n      dup2\n      dup2\n      mstore\n      0x20\n      add\n      dup3\n      dup1\n      sload\n      tag_53\n      swap1\n      tag_47\n      jump\t// in\n    tag_53:\n      dup1\n      iszero\n      tag_54\n      jumpi\n      dup1\n      0x1f\n      lt\n      tag_55\n      jumpi\n      0x0100\n      dup1\n      dup4\n      sload\n      div\n      mul\n      dup4\n      mstore\n      swap2\n      0x20\n      add\n      swap2\n      jump(tag_54)\n    tag_55:\n      dup3\n      add\n      swap2\n      swap1\n      0x00\n      mstore\n      keccak256(0x00, 0x20)\n      swap1\n    tag_56:\n      dup2\n      sload\n      dup2\n      mstore\n      swap1\n      0x01\n      add\n      swap1\n      0x20\n      add\n      dup1\n      dup4\n      gt\n      tag_56\n      jumpi\n      dup3\n      swap1\n      sub\n      0x1f\n      and\n      dup3\n      add\n      swap2\n    tag_54:\n      pop\n      pop\n      pop\n      pop\n      pop\n      dup2\n      mstore\n      0x20\n      add\n      0x03\n      dup3\n      add\n      dup1\n      sload\n      tag_57\n      swap1\n      tag_47\n      jump\t// in\n    tag_57:\n      dup1\n      0x1f\n      add\n      0x20\n      dup1\n      swap2\n      div\n      mul\n      0x20\n      add\n      mload(0x40)\n      swap1\n      dup2\n      add\n      0x40\n      mstore\n      dup1\n      swap3\n      swap2\n      swap1\n      dup2\n      dup2\n      mstore\n      0x20\n      add\n      dup3\n      dup1\n      sload\n      tag_58\n      swap1\n      tag_47\n      jump\t// in\n    tag_58:\n      dup1\n      iszero\n      tag_59\n      jumpi\n      dup1\n      0x1f\n      lt\n      tag_60\n      jumpi\n      0x0100\n      dup1\n      dup4\n      sload\n      div\n      mul\n      dup4\n      mstore\n      swap2\n      0x20\n      add\n      swap2\n      jump(tag_59)\n    tag_60:\n      dup3\n      add\n      swap2\n      swap1\n      0x00\n      mstore\n      keccak256(0x00, 0x20)\n      swap1\n    tag_61:\n      dup2\n      sload\n      dup2\n      mstore\n      swap1\n      0x01\n      add\n      swap1\n      0x20\n      add\n      dup1\n      dup4\n      gt\n      tag_61\n      jumpi\n      dup3\n      swap1\n      sub\n      0x1f\n      and\n      dup3\n      add\n      swap2\n    tag_59:\n      pop\n      pop\n      pop\n      pop\n      pop\n      dup2\n      mstore\n      0x20\n      add\n      0x04\n      dup3\n      add\n      sload\n      dup2\n      mstore\n      0x20\n      add\n      0x05\n      dup3\n      add\n      sload\n      dup2\n      mstore\n      0x20\n      add\n      0x06\n      dup3\n      add\n      sload\n      dup2\n      mstore\n      pop\n      pop\n        /* \"contracts/MyblogApp.sol\":3117:3125  allPosts */\n      dup3\n        /* \"contracts/MyblogApp.sol\":3126:3127  i */\n      dup3\n        /* \"contracts/MyblogApp.sol\":3117:3128  allPosts[i] */\n      dup2\n      mload\n      dup2\n      lt\n      tag_62\n      jumpi\n      tag_63\n      tag_45\n      jump\t// in\n    tag_63:\n    tag_62:\n      0x20\n      mul\n      0x20\n      add\n      add\n        /* \"contracts/MyblogApp.sol\":3117:3152  allPosts[i] = posts[userPostIds[i]] */\n      dup2\n      swap1\n      mstore\n      pop\n        /* \"contracts/MyblogApp.sol\":3097:3100  i++ */\n      dup1\n      dup1\n      0x01\n      add\n      swap2\n      pop\n      pop\n        /* \"contracts/MyblogApp.sol\":3056:3164  for (uint i = 0; i < userPostIds.length; i++) {... */\n      jump(tag_40)\n    tag_41:\n      pop\n        /* \"contracts/MyblogApp.sol\":3191:3199  allPosts */\n      dup1\n        /* \"contracts/MyblogApp.sol\":3184:3199  return allPosts */\n      swap3\n      pop\n      pop\n      pop\n        /* \"contracts/MyblogApp.sol\":2828:3207  function getAllPostsOfUser(address _user) public view returns (Post[] memory)... */\n      swap2\n      swap1\n      pop\n      jump\t// out\n        /* \"contracts/MyblogApp.sol\":2295:2820  function downvotePost(bytes32 _postId) public {... */\n    tag_17:\n        /* \"contracts/MyblogApp.sol\":2424:2425  0 */\n      0x00\n        /* \"contracts/MyblogApp.sol\":2416:2426  bytes32(0) */\n      0x00\n      shl\n        /* \"contracts/MyblogApp.sol\":2395:2400  posts */\n      0x01\n        /* \"contracts/MyblogApp.sol\":2395:2409  posts[_postId] */\n      0x00\n        /* \"contracts/MyblogApp.sol\":2401:2408  _postId */\n      dup4\n        /* \"contracts/MyblogApp.sol\":2395:2409  posts[_postId] */\n      dup2\n      mstore\n      0x20\n      add\n      swap1\n      dup2\n      mstore\n      0x20\n      add\n      0x00\n      keccak256\n        /* \"contracts/MyblogApp.sol\":2395:2412  posts[_postId].id */\n      0x00\n      add\n      sload\n        /* \"contracts/MyblogApp.sol\":2395:2426  posts[_postId].id != bytes32(0) */\n      sub\n        /* \"contracts/MyblogApp.sol\":2387:2451  require(posts[_postId].id != bytes32(0), \"Post does not exist.\") */\n      tag_65\n      jumpi\n      mload(0x40)\n      0x08c379a000000000000000000000000000000000000000000000000000000000\n      dup2\n      mstore\n      0x04\n      add\n      tag_66\n      swap1\n      tag_67\n      jump\t// in\n    tag_66:\n      mload(0x40)\n      dup1\n      swap2\n      sub\n      swap1\n      revert\n    tag_65:\n        /* \"contracts/MyblogApp.sol\":2534:2542  hasVoted */\n      0x02\n        /* \"contracts/MyblogApp.sol\":2534:2551  hasVoted[_postId] */\n      0x00\n        /* \"contracts/MyblogApp.sol\":2543:2550  _postId */\n      dup3\n        /* \"contracts/MyblogApp.sol\":2534:2551  hasVoted[_postId] */\n      dup2\n      mstore\n      0x20\n      add\n      swap1\n      dup2\n      mstore\n      0x20\n      add\n      0x00\n      keccak256\n        /* \"contracts/MyblogApp.sol\":2534:2563  hasVoted[_postId][msg.sender] */\n      0x00\n        /* \"contracts/MyblogApp.sol\":2552:2562  msg.sender */\n      caller\n        /* \"contracts/MyblogApp.sol\":2534:2563  hasVoted[_postId][msg.sender] */\n      0xffffffffffffffffffffffffffffffffffffffff\n      and\n      0xffffffffffffffffffffffffffffffffffffffff\n      and\n      dup2\n      mstore\n      0x20\n      add\n      swap1\n      dup2\n      mstore\n      0x20\n      add\n      0x00\n      keccak256\n      0x00\n      swap1\n      sload\n      swap1\n      0x0100\n      exp\n      swap1\n      div\n      0xff\n      and\n        /* \"contracts/MyblogApp.sol\":2533:2563  !hasVoted[_postId][msg.sender] */\n      iszero\n        /* \"contracts/MyblogApp.sol\":2525:2604  require(!hasVoted[_postId][msg.sender], \"You have already voted on this post.\") */\n      tag_68\n      jumpi\n      mload(0x40)\n      0x08c379a000000000000000000000000000000000000000000000000000000000\n      dup2\n      mstore\n      0x04\n      add\n      tag_69\n      swap1\n      tag_70\n      jump\t// in\n    tag_69:\n      mload(0x40)\n      dup1\n      swap2\n      sub\n      swap1\n      revert\n    tag_68:\n        /* \"contracts/MyblogApp.sol\":2685:2690  posts */\n      0x01\n        /* \"contracts/MyblogApp.sol\":2685:2699  posts[_postId] */\n      0x00\n        /* \"contracts/MyblogApp.sol\":2691:2698  _postId */\n      dup3\n        /* \"contracts/MyblogApp.sol\":2685:2699  posts[_postId] */\n      dup2\n      mstore\n      0x20\n      add\n      swap1\n      dup2\n      mstore\n      0x20\n      add\n      0x00\n      keccak256\n        /* \"contracts/MyblogApp.sol\":2685:2708  posts[_postId].downvote */\n      0x05\n      add\n      0x00\n        /* \"contracts/MyblogApp.sol\":2685:2710  posts[_postId].downvote++ */\n      dup2\n      sload\n      dup1\n      swap3\n      swap2\n      swap1\n      tag_71\n      swap1\n      tag_72\n      jump\t// in\n    tag_71:\n      swap2\n      swap1\n      pop\n      sstore\n      pop\n        /* \"contracts/MyblogApp.sol\":2753:2757  true */\n      0x01\n        /* \"contracts/MyblogApp.sol\":2721:2729  hasVoted */\n      0x02\n        /* \"contracts/MyblogApp.sol\":2721:2738  hasVoted[_postId] */\n      0x00\n        /* \"contracts/MyblogApp.sol\":2730:2737  _postId */\n      dup4\n        /* \"contracts/MyblogApp.sol\":2721:2738  hasVoted[_postId] */\n      dup2\n      mstore\n      0x20\n      add\n      swap1\n      dup2\n      mstore\n      0x20\n      add\n      0x00\n      keccak256\n        /* \"contracts/MyblogApp.sol\":2721:2750  hasVoted[_postId][msg.sender] */\n      0x00\n        /* \"contracts/MyblogApp.sol\":2739:2749  msg.sender */\n      caller\n        /* \"contracts/MyblogApp.sol\":2721:2750  hasVoted[_postId][msg.sender] */\n      0xffffffffffffffffffffffffffffffffffffffff\n      and\n      0xffffffffffffffffffffffffffffffffffffffff\n      and\n      dup2\n      mstore\n      0x20\n      add\n      swap1\n      dup2\n      mstore\n      0x20\n      add\n      0x00\n      keccak256\n      0x00\n        /* \"contracts/MyblogApp.sol\":2721:2757  hasVoted[_postId][msg.sender] = true */\n      0x0100\n      exp\n      dup2\n      sload\n      dup2\n      0xff\n      mul\n      not\n      and\n      swap1\n      dup4\n      iszero\n      iszero\n      mul\n      or\n      swap1\n      sstore\n      pop\n        /* \"contracts/MyblogApp.sol\":2794:2804  msg.sender */\n      caller\n        /* \"contracts/MyblogApp.sol\":2775:2812  PostVoted(_postId, msg.sender, false) */\n      0xffffffffffffffffffffffffffffffffffffffff\n      and\n        /* \"contracts/MyblogApp.sol\":2785:2792  _postId */\n      dup2\n        /* \"contracts/MyblogApp.sol\":2775:2812  PostVoted(_postId, msg.sender, false) */\n      0xa7e4c5082f867ea22a45a95c2043209b9ce83d70ca31ccb947e67592ea14c4b1\n        /* \"contracts/MyblogApp.sol\":2806:2811  false */\n      0x00\n        /* \"contracts/MyblogApp.sol\":2775:2812  PostVoted(_postId, msg.sender, false) */\n      mload(0x40)\n      tag_73\n      swap2\n      swap1\n      tag_74\n      jump\t// in\n    tag_73:\n      mload(0x40)\n      dup1\n      swap2\n      sub\n      swap1\n      log3\n        /* \"contracts/MyblogApp.sol\":2295:2820  function downvotePost(bytes32 _postId) public {... */\n      pop\n      jump\t// out\n        /* \"contracts/MyblogApp.sol\":3215:3327  function getPostById(bytes32 _postId) public view returns (Post memory) {... */\n    tag_20:\n        /* \"contracts/MyblogApp.sol\":3274:3285  Post memory */\n      tag_75\n      tag_39\n      jump\t// in\n    tag_75:\n        /* \"contracts/MyblogApp.sol\":3305:3310  posts */\n      0x01\n        /* \"contracts/MyblogApp.sol\":3305:3319  posts[_postId] */\n      0x00\n        /* \"contracts/MyblogApp.sol\":3311:3318  _postId */\n      dup4\n        /* \"contracts/MyblogApp.sol\":3305:3319  posts[_postId] */\n      dup2\n      mstore\n      0x20\n      add\n      swap1\n      dup2\n      mstore\n      0x20\n      add\n      0x00\n      keccak256\n        /* \"contracts/MyblogApp.sol\":3298:3319  return posts[_postId] */\n      mload(0x40)\n      dup1\n      0xe0\n      add\n      0x40\n      mstore\n      swap1\n      dup2\n      0x00\n      dup3\n      add\n      sload\n      dup2\n      mstore\n      0x20\n      add\n      0x01\n      dup3\n      add\n      dup1\n      sload\n      tag_77\n      swap1\n      tag_47\n      jump\t// in\n    tag_77:\n      dup1\n      0x1f\n      add\n      0x20\n      dup1\n      swap2\n      div\n      mul\n      0x20\n      add\n      mload(0x40)\n      swap1\n      dup2\n      add\n      0x40\n      mstore\n      dup1\n      swap3\n      swap2\n      swap1\n      dup2\n      dup2\n      mstore\n      0x20\n      add\n      dup3\n      dup1\n      sload\n      tag_78\n      swap1\n      tag_47\n      jump\t// in\n    tag_78:\n      dup1\n      iszero\n      tag_79\n      jumpi\n      dup1\n      0x1f\n      lt\n      tag_80\n      jumpi\n      0x0100\n      dup1\n      dup4\n      sload\n      div\n      mul\n      dup4\n      mstore\n      swap2\n      0x20\n      add\n      swap2\n      jump(tag_79)\n    tag_80:\n      dup3\n      add\n      swap2\n      swap1\n      0x00\n      mstore\n      keccak256(0x00, 0x20)\n      swap1\n    tag_81:\n      dup2\n      sload\n      dup2\n      mstore\n      swap1\n      0x01\n      add\n      swap1\n      0x20\n      add\n      dup1\n      dup4\n      gt\n      tag_81\n      jumpi\n      dup3\n      swap1\n      sub\n      0x1f\n      and\n      dup3\n      add\n      swap2\n    tag_79:\n      pop\n      pop\n      pop\n      pop\n      pop\n      dup2\n      mstore\n      0x20\n      add\n      0x02\n      dup3\n      add\n      dup1\n      sload\n      tag_82\n      swap1\n      tag_47\n      jump\t// in\n    tag_82:\n      dup1\n      0x1f\n      add\n      0x20\n      dup1\n      swap2\n      div\n      mul\n      0x20\n      add\n      mload(0x40)\n      swap1\n      dup2\n      add\n      0x40\n      mstore\n      dup1\n      swap3\n      swap2\n      swap1\n      dup2\n      dup2\n      mstore\n      0x20\n      add\n      dup3\n      dup1\n      sload\n      tag_83\n      swap1\n      tag_47\n      jump\t// in\n    tag_83:\n      dup1\n      iszero\n      tag_84\n      jumpi\n      dup1\n      0x1f\n      lt\n      tag_85\n      jumpi\n      0x0100\n      dup1\n      dup4\n      sload\n      div\n      mul\n      dup4\n      mstore\n      swap2\n      0x20\n      add\n      swap2\n      jump(tag_84)\n    tag_85:\n      dup3\n      add\n      swap2\n      swap1\n      0x00\n      mstore\n      keccak256(0x00, 0x20)\n      swap1\n    tag_86:\n      dup2\n      sload\n      dup2\n      mstore\n      swap1\n      0x01\n      add\n      swap1\n      0x20\n      add\n      dup1\n      dup4\n      gt\n      tag_86\n      jumpi\n      dup3\n      swap1\n      sub\n      0x1f\n      and\n      dup3\n      add\n      swap2\n    tag_84:\n      pop\n      pop\n      pop\n      pop\n      pop\n      dup2\n      mstore\n      0x20\n      add\n      0x03\n      dup3\n      add\n      dup1\n      sload\n      tag_87\n      swap1\n      tag_47\n      jump\t// in\n    tag_87:\n      dup1\n      0x1f\n      add\n      0x20\n      dup1\n      swap2\n      div\n      mul\n      0x20\n      add\n      mload(0x40)\n      swap1\n      dup2\n      add\n      0x40\n      mstore\n      dup1\n      swap3\n      swap2\n      swap1\n      dup2\n      dup2\n      mstore\n      0x20\n      add\n      dup3\n      dup1\n      sload\n      tag_88\n      swap1\n      tag_47\n      jump\t// in\n    tag_88:\n      dup1\n      iszero\n      tag_89\n      jumpi\n      dup1\n      0x1f\n      lt\n      tag_90\n      jumpi\n      0x0100\n      dup1\n      dup4\n      sload\n      div\n      mul\n      dup4\n      mstore\n      swap2\n      0x20\n      add\n      swap2\n      jump(tag_89)\n    tag_90:\n      dup3\n      add\n      swap2\n      swap1\n      0x00\n      mstore\n      keccak256(0x00, 0x20)\n      swap1\n    tag_91:\n      dup2\n      sload\n      dup2\n      mstore\n      swap1\n      0x01\n      add\n      swap1\n      0x20\n      add\n      dup1\n      dup4\n      gt\n      tag_91\n      jumpi\n      dup3\n      swap1\n      sub\n      0x1f\n      and\n      dup3\n      add\n      swap2\n    tag_89:\n      pop\n      pop\n      pop\n      pop\n      pop\n      dup2\n      mstore\n      0x20\n      add\n      0x04\n      dup3\n      add\n      sload\n      dup2\n      mstore\n      0x20\n      add\n      0x05\n      dup3\n      add\n      sload\n      dup2\n      mstore\n      0x20\n      add\n      0x06\n      dup3\n      add\n      sload\n      dup2\n      mstore\n      pop\n      pop\n      swap1\n      pop\n        /* \"contracts/MyblogApp.sol\":3215:3327  function getPostById(bytes32 _postId) public view returns (Post memory) {... */\n      swap2\n      swap1\n      pop\n      jump\t// out\n        /* \"contracts/MyblogApp.sol\":1728:2246  function upvotePost(bytes32 _postId) public {... */\n    tag_25:\n        /* \"contracts/MyblogApp.sol\":1855:1856  0 */\n      0x00\n        /* \"contracts/MyblogApp.sol\":1847:1857  bytes32(0) */\n      0x00\n      shl\n        /* \"contracts/MyblogApp.sol\":1826:1831  posts */\n      0x01\n        /* \"contracts/MyblogApp.sol\":1826:1840  posts[_postId] */\n      0x00\n        /* \"contracts/MyblogApp.sol\":1832:1839  _postId */\n      dup4\n        /* \"contracts/MyblogApp.sol\":1826:1840  posts[_postId] */\n      dup2\n      mstore\n      0x20\n      add\n      swap1\n      dup2\n      mstore\n      0x20\n      add\n      0x00\n      keccak256\n        /* \"contracts/MyblogApp.sol\":1826:1843  posts[_postId].id */\n      0x00\n      add\n      sload\n        /* \"contracts/MyblogApp.sol\":1826:1857  posts[_postId].id != bytes32(0) */\n      sub\n        /* \"contracts/MyblogApp.sol\":1818:1882  require(posts[_postId].id != bytes32(0), \"Post does not exist.\") */\n      tag_93\n      jumpi\n      mload(0x40)\n      0x08c379a000000000000000000000000000000000000000000000000000000000\n      dup2\n      mstore\n      0x04\n      add\n      tag_94\n      swap1\n      tag_67\n      jump\t// in\n    tag_94:\n      mload(0x40)\n      dup1\n      swap2\n      sub\n      swap1\n      revert\n    tag_93:\n        /* \"contracts/MyblogApp.sol\":1965:1973  hasVoted */\n      0x02\n        /* \"contracts/MyblogApp.sol\":1965:1982  hasVoted[_postId] */\n      0x00\n        /* \"contracts/MyblogApp.sol\":1974:1981  _postId */\n      dup3\n        /* \"contracts/MyblogApp.sol\":1965:1982  hasVoted[_postId] */\n      dup2\n      mstore\n      0x20\n      add\n      swap1\n      dup2\n      mstore\n      0x20\n      add\n      0x00\n      keccak256\n        /* \"contracts/MyblogApp.sol\":1965:1994  hasVoted[_postId][msg.sender] */\n      0x00\n        /* \"contracts/MyblogApp.sol\":1983:1993  msg.sender */\n      caller\n        /* \"contracts/MyblogApp.sol\":1965:1994  hasVoted[_postId][msg.sender] */\n      0xffffffffffffffffffffffffffffffffffffffff\n      and\n      0xffffffffffffffffffffffffffffffffffffffff\n      and\n      dup2\n      mstore\n      0x20\n      add\n      swap1\n      dup2\n      mstore\n      0x20\n      add\n      0x00\n      keccak256\n      0x00\n      swap1\n      sload\n      swap1\n      0x0100\n      exp\n      swap1\n      div\n      0xff\n      and\n        /* \"contracts/MyblogApp.sol\":1964:1994  !hasVoted[_postId][msg.sender] */\n      iszero\n        /* \"contracts/MyblogApp.sol\":1956:2035  require(!hasVoted[_postId][msg.sender], \"You have already voted on this post.\") */\n      tag_95\n      jumpi\n      mload(0x40)\n      0x08c379a000000000000000000000000000000000000000000000000000000000\n      dup2\n      mstore\n      0x04\n      add\n      tag_96\n      swap1\n      tag_70\n      jump\t// in\n    tag_96:\n      mload(0x40)\n      dup1\n      swap2\n      sub\n      swap1\n      revert\n    tag_95:\n        /* \"contracts/MyblogApp.sol\":2114:2119  posts */\n      0x01\n        /* \"contracts/MyblogApp.sol\":2114:2128  posts[_postId] */\n      0x00\n        /* \"contracts/MyblogApp.sol\":2120:2127  _postId */\n      dup3\n        /* \"contracts/MyblogApp.sol\":2114:2128  posts[_postId] */\n      dup2\n      mstore\n      0x20\n      add\n      swap1\n      dup2\n      mstore\n      0x20\n      add\n      0x00\n      keccak256\n        /* \"contracts/MyblogApp.sol\":2114:2135  posts[_postId].upvote */\n      0x04\n      add\n      0x00\n        /* \"contracts/MyblogApp.sol\":2114:2137  posts[_postId].upvote++ */\n      dup2\n      sload\n      dup1\n      swap3\n      swap2\n      swap1\n      tag_97\n      swap1\n      tag_72\n      jump\t// in\n    tag_97:\n      swap2\n      swap1\n      pop\n      sstore\n      pop\n        /* \"contracts/MyblogApp.sol\":2180:2184  true */\n      0x01\n        /* \"contracts/MyblogApp.sol\":2148:2156  hasVoted */\n      0x02\n        /* \"contracts/MyblogApp.sol\":2148:2165  hasVoted[_postId] */\n      0x00\n        /* \"contracts/MyblogApp.sol\":2157:2164  _postId */\n      dup4\n        /* \"contracts/MyblogApp.sol\":2148:2165  hasVoted[_postId] */\n      dup2\n      mstore\n      0x20\n      add\n      swap1\n      dup2\n      mstore\n      0x20\n      add\n      0x00\n      keccak256\n        /* \"contracts/MyblogApp.sol\":2148:2177  hasVoted[_postId][msg.sender] */\n      0x00\n        /* \"contracts/MyblogApp.sol\":2166:2176  msg.sender */\n      caller\n        /* \"contracts/MyblogApp.sol\":2148:2177  hasVoted[_postId][msg.sender] */\n      0xffffffffffffffffffffffffffffffffffffffff\n      and\n      0xffffffffffffffffffffffffffffffffffffffff\n      and\n      dup2\n      mstore\n      0x20\n      add\n      swap1\n      dup2\n      mstore\n      0x20\n      add\n      0x00\n      keccak256\n      0x00\n        /* \"contracts/MyblogApp.sol\":2148:2184  hasVoted[_postId][msg.sender] = true */\n      0x0100\n      exp\n      dup2\n      sload\n      dup2\n      0xff\n      mul\n      not\n      and\n      swap1\n      dup4\n      iszero\n      iszero\n      mul\n      or\n      swap1\n      sstore\n      pop\n        /* \"contracts/MyblogApp.sol\":2221:2231  msg.sender */\n      caller\n        /* \"contracts/MyblogApp.sol\":2202:2238  PostVoted(_postId, msg.sender, true) */\n      0xffffffffffffffffffffffffffffffffffffffff\n      and\n        /* \"contracts/MyblogApp.sol\":2212:2219  _postId */\n      dup2\n        /* \"contracts/MyblogApp.sol\":2202:2238  PostVoted(_postId, msg.sender, true) */\n      0xa7e4c5082f867ea22a45a95c2043209b9ce83d70ca31ccb947e67592ea14c4b1\n        /* \"contracts/MyblogApp.sol\":2233:2237  true */\n      0x01\n        /* \"contracts/MyblogApp.sol\":2202:2238  PostVoted(_postId, msg.sender, true) */\n      mload(0x40)\n      tag_98\n      swap2\n      swap1\n      tag_74\n      jump\t// in\n    tag_98:\n      mload(0x40)\n      dup1\n      swap2\n      sub\n      swap1\n      log3\n        /* \"contracts/MyblogApp.sol\":1728:2246  function upvotePost(bytes32 _postId) public {... */\n      pop\n      jump\t// out\n        /* \"contracts/MyblogApp.sol\":904:1681  function createPost(string memory _author, string memory _title, string memory _contentHash) public ... */\n    tag_29:\n        /* \"contracts/MyblogApp.sol\":1110:1121  bytes32 _id */\n      0x00\n        /* \"contracts/MyblogApp.sol\":1151:1161  msg.sender */\n      caller\n        /* \"contracts/MyblogApp.sol\":1163:1178  block.timestamp */\n      timestamp\n        /* \"contracts/MyblogApp.sol\":1180:1186  _title */\n      dup5\n        /* \"contracts/MyblogApp.sol\":1188:1200  _contentHash */\n      dup5\n        /* \"contracts/MyblogApp.sol\":1134:1201  abi.encodePacked(msg.sender, block.timestamp, _title, _contentHash) */\n      add(0x20, mload(0x40))\n      tag_100\n      swap5\n      swap4\n      swap3\n      swap2\n      swap1\n      tag_101\n      jump\t// in\n    tag_100:\n      mload(0x40)\n      0x20\n      dup2\n      dup4\n      sub\n      sub\n      dup2\n      mstore\n      swap1\n      0x40\n      mstore\n        /* \"contracts/MyblogApp.sol\":1124:1202  keccak256(abi.encodePacked(msg.sender, block.timestamp, _title, _contentHash)) */\n      dup1\n      mload\n      swap1\n      0x20\n      add\n      keccak256\n        /* \"contracts/MyblogApp.sol\":1110:1202  bytes32 _id = keccak256(abi.encodePacked(msg.sender, block.timestamp, _title, _contentHash)) */\n      swap1\n      pop\n        /* \"contracts/MyblogApp.sol\":1215:1234  Post memory newpost */\n      0x00\n        /* \"contracts/MyblogApp.sol\":1237:1521  Post(... */\n      mload(0x40)\n      dup1\n      0xe0\n      add\n      0x40\n      mstore\n      dup1\n        /* \"contracts/MyblogApp.sol\":1279:1282  _id */\n      dup4\n        /* \"contracts/MyblogApp.sol\":1237:1521  Post(... */\n      dup2\n      mstore\n      0x20\n      add\n        /* \"contracts/MyblogApp.sol\":1309:1316  _author */\n      dup7\n        /* \"contracts/MyblogApp.sol\":1237:1521  Post(... */\n      dup2\n      mstore\n      0x20\n      add\n        /* \"contracts/MyblogApp.sol\":1342:1348  _title */\n      dup6\n        /* \"contracts/MyblogApp.sol\":1237:1521  Post(... */\n      dup2\n      mstore\n      0x20\n      add\n        /* \"contracts/MyblogApp.sol\":1380:1392  _contentHash */\n      dup5\n        /* \"contracts/MyblogApp.sol\":1237:1521  Post(... */\n      dup2\n      mstore\n      0x20\n      add\n        /* \"contracts/MyblogApp.sol\":1419:1420  0 */\n      0x00\n        /* \"contracts/MyblogApp.sol\":1237:1521  Post(... */\n      dup2\n      mstore\n      0x20\n      add\n        /* \"contracts/MyblogApp.sol\":1449:1450  0 */\n      0x00\n        /* \"contracts/MyblogApp.sol\":1237:1521  Post(... */\n      dup2\n      mstore\n      0x20\n      add\n        /* \"contracts/MyblogApp.sol\":1480:1495  block.timestamp */\n      timestamp\n        /* \"contracts/MyblogApp.sol\":1237:1521  Post(... */\n      dup2\n      mstore\n      pop\n        /* \"contracts/MyblogApp.sol\":1215:1521  Post memory newpost = Post(... */\n      swap1\n      pop\n        /* \"contracts/MyblogApp.sol\":1534:1543  userPosts */\n      0x00\n        /* \"contracts/MyblogApp.sol\":1534:1555  userPosts[msg.sender] */\n      0x00\n        /* \"contracts/MyblogApp.sol\":1544:1554  msg.sender */\n      caller\n        /* \"contracts/MyblogApp.sol\":1534:1555  userPosts[msg.sender] */\n      0xffffffffffffffffffffffffffffffffffffffff\n      and\n      0xffffffffffffffffffffffffffffffffffffffff\n      and\n      dup2\n      mstore\n      0x20\n      add\n      swap1\n      dup2\n      mstore\n      0x20\n      add\n      0x00\n      keccak256\n        /* \"contracts/MyblogApp.sol\":1561:1564  _id */\n      dup3\n        /* \"contracts/MyblogApp.sol\":1534:1565  userPosts[msg.sender].push(_id) */\n      swap1\n      dup1\n      0x01\n      dup2\n      sload\n      add\n      dup1\n      dup3\n      sstore\n      dup1\n      swap2\n      pop\n      pop\n      0x01\n      swap1\n      sub\n      swap1\n      0x00\n      mstore\n      keccak256(0x00, 0x20)\n      add\n      0x00\n      swap1\n      swap2\n      swap1\n      swap2\n      swap1\n      swap2\n      pop\n      sstore\n        /* \"contracts/MyblogApp.sol\":1589:1596  newpost */\n      dup1\n        /* \"contracts/MyblogApp.sol\":1576:1581  posts */\n      0x01\n        /* \"contracts/MyblogApp.sol\":1576:1586  posts[_id] */\n      0x00\n        /* \"contracts/MyblogApp.sol\":1582:1585  _id */\n      dup5\n        /* \"contracts/MyblogApp.sol\":1576:1586  posts[_id] */\n      dup2\n      mstore\n      0x20\n      add\n      swap1\n      dup2\n      mstore\n      0x20\n      add\n      0x00\n      keccak256\n        /* \"contracts/MyblogApp.sol\":1576:1596  posts[_id] = newpost */\n      0x00\n      dup3\n      add\n      mload\n      dup2\n      0x00\n      add\n      sstore\n      0x20\n      dup3\n      add\n      mload\n      dup2\n      0x01\n      add\n      swap1\n      dup2\n      tag_103\n      swap2\n      swap1\n      tag_104\n      jump\t// in\n    tag_103:\n      pop\n      0x40\n      dup3\n      add\n      mload\n      dup2\n      0x02\n      add\n      swap1\n      dup2\n      tag_105\n      swap2\n      swap1\n      tag_104\n      jump\t// in\n    tag_105:\n      pop\n      0x60\n      dup3\n      add\n      mload\n      dup2\n      0x03\n      add\n      swap1\n      dup2\n      tag_106\n      swap2\n      swap1\n      tag_104\n      jump\t// in\n    tag_106:\n      pop\n      0x80\n      dup3\n      add\n      mload\n      dup2\n      0x04\n      add\n      sstore\n      0xa0\n      dup3\n      add\n      mload\n      dup2\n      0x05\n      add\n      sstore\n      0xc0\n      dup3\n      add\n      mload\n      dup2\n      0x06\n      add\n      sstore\n      swap1\n      pop\n      pop\n        /* \"contracts/MyblogApp.sol\":1635:1638  _id */\n      dup2\n        /* \"contracts/MyblogApp.sol\":1622:1673  Postcreation(_id, _title, _author, block.timestamp) */\n      0x17f34748f078a06d3c7c034ef1cdf60a8b2baf4592df676d3a2ae61596619f98\n        /* \"contracts/MyblogApp.sol\":1640:1646  _title */\n      dup6\n        /* \"contracts/MyblogApp.sol\":1648:1655  _author */\n      dup8\n        /* \"contracts/MyblogApp.sol\":1657:1672  block.timestamp */\n      timestamp\n        /* \"contracts/MyblogApp.sol\":1622:1673  Postcreation(_id, _title, _author, block.timestamp) */\n      mload(0x40)\n      tag_107\n      swap4\n      swap3\n      swap2\n      swap1\n      tag_108\n      jump\t// in\n    tag_107:\n      mload(0x40)\n      dup1\n      swap2\n      sub\n      swap1\n      log2\n        /* \"contracts/MyblogApp.sol\":1010:1681  {... */\n      pop\n      pop\n        /* \"contracts/MyblogApp.sol\":904:1681  function createPost(string memory _author, string memory _title, string memory _contentHash) public ... */\n      pop\n      pop\n      pop\n      jump\t// out\n    tag_39:\n      mload(0x40)\n      dup1\n      0xe0\n      add\n      0x40\n      mstore\n      dup1\n      0x00\n      dup2\n      mstore\n      0x20\n      add\n      0x60\n      dup2\n      mstore\n      0x20\n      add\n      0x60\n      dup2\n      mstore\n      0x20\n      add\n      0x60\n      dup2\n      mstore\n      0x20\n      add\n      0x00\n      dup2\n      mstore\n      0x20\n      add\n      0x00\n      dup2\n      mstore\n      0x20\n      add\n      0x00\n      dup2\n      mstore\n      pop\n      swap1\n      jump\t// out\n        /* \"#utility.yul\":7:82   */\n    tag_109:\n        /* \"#utility.yul\":40:46   */\n      0x00\n        /* \"#utility.yul\":73:75   */\n      0x40\n        /* \"#utility.yul\":67:76   */\n      mload\n        /* \"#utility.yul\":57:76   */\n      swap1\n      pop\n        /* \"#utility.yul\":7:82   */\n      swap1\n      jump\t// out\n        /* \"#utility.yul\":88:205   */\n    tag_110:\n        /* \"#utility.yul\":197:198   */\n      0x00\n        /* \"#utility.yul\":194:195   */\n      0x00\n        /* \"#utility.yul\":187:199   */\n      revert\n        /* \"#utility.yul\":211:328   */\n    tag_111:\n        /* \"#utility.yul\":320:321   */\n      0x00\n        /* \"#utility.yul\":317:318   */\n      0x00\n        /* \"#utility.yul\":310:322   */\n      revert\n        /* \"#utility.yul\":334:460   */\n    tag_112:\n        /* \"#utility.yul\":371:378   */\n      0x00\n        /* \"#utility.yul\":411:453   */\n      0xffffffffffffffffffffffffffffffffffffffff\n        /* \"#utility.yul\":404:409   */\n      dup3\n        /* \"#utility.yul\":400:454   */\n      and\n        /* \"#utility.yul\":389:454   */\n      swap1\n      pop\n        /* \"#utility.yul\":334:460   */\n      swap2\n      swap1\n      pop\n      jump\t// out\n        /* \"#utility.yul\":466:562   */\n    tag_113:\n        /* \"#utility.yul\":503:510   */\n      0x00\n        /* \"#utility.yul\":532:556   */\n      tag_183\n        /* \"#utility.yul\":550:555   */\n      dup3\n        /* \"#utility.yul\":532:556   */\n      tag_112\n      jump\t// in\n    tag_183:\n        /* \"#utility.yul\":521:556   */\n      swap1\n      pop\n        /* \"#utility.yul\":466:562   */\n      swap2\n      swap1\n      pop\n      jump\t// out\n        /* \"#utility.yul\":568:690   */\n    tag_114:\n        /* \"#utility.yul\":641:665   */\n      tag_185\n        /* \"#utility.yul\":659:664   */\n      dup2\n        /* \"#utility.yul\":641:665   */\n      tag_113\n      jump\t// in\n    tag_185:\n        /* \"#utility.yul\":634:639   */\n      dup2\n        /* \"#utility.yul\":631:666   */\n      eq\n        /* \"#utility.yul\":621:684   */\n      tag_186\n      jumpi\n        /* \"#utility.yul\":680:681   */\n      0x00\n        /* \"#utility.yul\":677:678   */\n      0x00\n        /* \"#utility.yul\":670:682   */\n      revert\n        /* \"#utility.yul\":621:684   */\n    tag_186:\n        /* \"#utility.yul\":568:690   */\n      pop\n      jump\t// out\n        /* \"#utility.yul\":696:835   */\n    tag_115:\n        /* \"#utility.yul\":742:747   */\n      0x00\n        /* \"#utility.yul\":780:786   */\n      dup2\n        /* \"#utility.yul\":767:787   */\n      calldataload\n        /* \"#utility.yul\":758:787   */\n      swap1\n      pop\n        /* \"#utility.yul\":796:829   */\n      tag_188\n        /* \"#utility.yul\":823:828   */\n      dup2\n        /* \"#utility.yul\":796:829   */\n      tag_114\n      jump\t// in\n    tag_188:\n        /* \"#utility.yul\":696:835   */\n      swap3\n      swap2\n      pop\n      pop\n      jump\t// out\n        /* \"#utility.yul\":841:1170   */\n    tag_10:\n        /* \"#utility.yul\":900:906   */\n      0x00\n        /* \"#utility.yul\":949:951   */\n      0x20\n        /* \"#utility.yul\":937:946   */\n      dup3\n        /* \"#utility.yul\":928:935   */\n      dup5\n        /* \"#utility.yul\":924:947   */\n      sub\n        /* \"#utility.yul\":920:952   */\n      slt\n        /* \"#utility.yul\":917:1036   */\n      iszero\n      tag_190\n      jumpi\n        /* \"#utility.yul\":955:1034   */\n      tag_191\n      tag_110\n      jump\t// in\n    tag_191:\n        /* \"#utility.yul\":917:1036   */\n    tag_190:\n        /* \"#utility.yul\":1075:1076   */\n      0x00\n        /* \"#utility.yul\":1100:1153   */\n      tag_192\n        /* \"#utility.yul\":1145:1152   */\n      dup5\n        /* \"#utility.yul\":1136:1142   */\n      dup3\n        /* \"#utility.yul\":1125:1134   */\n      dup6\n        /* \"#utility.yul\":1121:1143   */\n      add\n        /* \"#utility.yul\":1100:1153   */\n      tag_115\n      jump\t// in\n    tag_192:\n        /* \"#utility.yul\":1090:1153   */\n      swap2\n      pop\n        /* \"#utility.yul\":1046:1163   */\n      pop\n        /* \"#utility.yul\":841:1170   */\n      swap3\n      swap2\n      pop\n      pop\n      jump\t// out\n        /* \"#utility.yul\":1176:1310   */\n    tag_116:\n        /* \"#utility.yul\":1263:1269   */\n      0x00\n        /* \"#utility.yul\":1297:1302   */\n      dup2\n        /* \"#utility.yul\":1291:1303   */\n      mload\n        /* \"#utility.yul\":1281:1303   */\n      swap1\n      pop\n        /* \"#utility.yul\":1176:1310   */\n      swap2\n      swap1\n      pop\n      jump\t// out\n        /* \"#utility.yul\":1316:1520   */\n    tag_117:\n        /* \"#utility.yul\":1435:1446   */\n      0x00\n        /* \"#utility.yul\":1469:1475   */\n      dup3\n        /* \"#utility.yul\":1464:1467   */\n      dup3\n        /* \"#utility.yul\":1457:1476   */\n      mstore\n        /* \"#utility.yul\":1509:1513   */\n      0x20\n        /* \"#utility.yul\":1504:1507   */\n      dup3\n        /* \"#utility.yul\":1500:1514   */\n      add\n        /* \"#utility.yul\":1485:1514   */\n      swap1\n      pop\n        /* \"#utility.yul\":1316:1520   */\n      swap3\n      swap2\n      pop\n      pop\n      jump\t// out\n        /* \"#utility.yul\":1526:1678   */\n    tag_118:\n        /* \"#utility.yul\":1613:1617   */\n      0x00\n        /* \"#utility.yul\":1636:1639   */\n      dup2\n        /* \"#utility.yul\":1628:1639   */\n      swap1\n      pop\n        /* \"#utility.yul\":1666:1670   */\n      0x20\n        /* \"#utility.yul\":1661:1664   */\n      dup3\n        /* \"#utility.yul\":1657:1671   */\n      add\n        /* \"#utility.yul\":1649:1671   */\n      swap1\n      pop\n        /* \"#utility.yul\":1526:1678   */\n      swap2\n      swap1\n      pop\n      jump\t// out\n        /* \"#utility.yul\":1684:1761   */\n    tag_119:\n        /* \"#utility.yul\":1721:1728   */\n      0x00\n        /* \"#utility.yul\":1750:1755   */\n      dup2\n        /* \"#utility.yul\":1739:1755   */\n      swap1\n      pop\n        /* \"#utility.yul\":1684:1761   */\n      swap2\n      swap1\n      pop\n      jump\t// out\n        /* \"#utility.yul\":1767:1875   */\n    tag_120:\n        /* \"#utility.yul\":1844:1868   */\n      tag_198\n        /* \"#utility.yul\":1862:1867   */\n      dup2\n        /* \"#utility.yul\":1844:1868   */\n      tag_119\n      jump\t// in\n    tag_198:\n        /* \"#utility.yul\":1839:1842   */\n      dup3\n        /* \"#utility.yul\":1832:1869   */\n      mstore\n        /* \"#utility.yul\":1767:1875   */\n      pop\n      pop\n      jump\t// out\n        /* \"#utility.yul\":1881:1980   */\n    tag_121:\n        /* \"#utility.yul\":1933:1939   */\n      0x00\n        /* \"#utility.yul\":1967:1972   */\n      dup2\n        /* \"#utility.yul\":1961:1973   */\n      mload\n        /* \"#utility.yul\":1951:1973   */\n      swap1\n      pop\n        /* \"#utility.yul\":1881:1980   */\n      swap2\n      swap1\n      pop\n      jump\t// out\n        /* \"#utility.yul\":1986:2145   */\n    tag_122:\n        /* \"#utility.yul\":2060:2071   */\n      0x00\n        /* \"#utility.yul\":2094:2100   */\n      dup3\n        /* \"#utility.yul\":2089:2092   */\n      dup3\n        /* \"#utility.yul\":2082:2101   */\n      mstore\n        /* \"#utility.yul\":2134:2138   */\n      0x20\n        /* \"#utility.yul\":2129:2132   */\n      dup3\n        /* \"#utility.yul\":2125:2139   */\n      add\n        /* \"#utility.yul\":2110:2139   */\n      swap1\n      pop\n        /* \"#utility.yul\":1986:2145   */\n      swap3\n      swap2\n      pop\n      pop\n      jump\t// out\n        /* \"#utility.yul\":2151:2290   */\n    tag_123:\n        /* \"#utility.yul\":2240:2246   */\n      dup3\n        /* \"#utility.yul\":2235:2238   */\n      dup2\n        /* \"#utility.yul\":2230:2233   */\n      dup4\n        /* \"#utility.yul\":2224:2247   */\n      mcopy\n        /* \"#utility.yul\":2281:2282   */\n      0x00\n        /* \"#utility.yul\":2272:2278   */\n      dup4\n        /* \"#utility.yul\":2267:2270   */\n      dup4\n        /* \"#utility.yul\":2263:2279   */\n      add\n        /* \"#utility.yul\":2256:2283   */\n      mstore\n        /* \"#utility.yul\":2151:2290   */\n      pop\n      pop\n      pop\n      jump\t// out\n        /* \"#utility.yul\":2296:2398   */\n    tag_124:\n        /* \"#utility.yul\":2337:2343   */\n      0x00\n        /* \"#utility.yul\":2388:2390   */\n      0x1f\n        /* \"#utility.yul\":2384:2391   */\n      not\n        /* \"#utility.yul\":2379:2381   */\n      0x1f\n        /* \"#utility.yul\":2372:2377   */\n      dup4\n        /* \"#utility.yul\":2368:2382   */\n      add\n        /* \"#utility.yul\":2364:2392   */\n      and\n        /* \"#utility.yul\":2354:2392   */\n      swap1\n      pop\n        /* \"#utility.yul\":2296:2398   */\n      swap2\n      swap1\n      pop\n      jump\t// out\n        /* \"#utility.yul\":2404:2761   */\n    tag_125:\n        /* \"#utility.yul\":2482:2485   */\n      0x00\n        /* \"#utility.yul\":2510:2549   */\n      tag_204\n        /* \"#utility.yul\":2543:2548   */\n      dup3\n        /* \"#utility.yul\":2510:2549   */\n      tag_121\n      jump\t// in\n    tag_204:\n        /* \"#utility.yul\":2565:2626   */\n      tag_205\n        /* \"#utility.yul\":2619:2625   */\n      dup2\n        /* \"#utility.yul\":2614:2617   */\n      dup6\n        /* \"#utility.yul\":2565:2626   */\n      tag_122\n      jump\t// in\n    tag_205:\n        /* \"#utility.yul\":2558:2626   */\n      swap4\n      pop\n        /* \"#utility.yul\":2635:2700   */\n      tag_206\n        /* \"#utility.yul\":2693:2699   */\n      dup2\n        /* \"#utility.yul\":2688:2691   */\n      dup6\n        /* \"#utility.yul\":2681:2685   */\n      0x20\n        /* \"#utility.yul\":2674:2679   */\n      dup7\n        /* \"#utility.yul\":2670:2686   */\n      add\n        /* \"#utility.yul\":2635:2700   */\n      tag_123\n      jump\t// in\n    tag_206:\n        /* \"#utility.yul\":2725:2754   */\n      tag_207\n        /* \"#utility.yul\":2747:2753   */\n      dup2\n        /* \"#utility.yul\":2725:2754   */\n      tag_124\n      jump\t// in\n    tag_207:\n        /* \"#utility.yul\":2720:2723   */\n      dup5\n        /* \"#utility.yul\":2716:2755   */\n      add\n        /* \"#utility.yul\":2709:2755   */\n      swap2\n      pop\n        /* \"#utility.yul\":2486:2761   */\n      pop\n        /* \"#utility.yul\":2404:2761   */\n      swap3\n      swap2\n      pop\n      pop\n      jump\t// out\n        /* \"#utility.yul\":2767:2844   */\n    tag_126:\n        /* \"#utility.yul\":2804:2811   */\n      0x00\n        /* \"#utility.yul\":2833:2838   */\n      dup2\n        /* \"#utility.yul\":2822:2838   */\n      swap1\n      pop\n        /* \"#utility.yul\":2767:2844   */\n      swap2\n      swap1\n      pop\n      jump\t// out\n        /* \"#utility.yul\":2850:2958   */\n    tag_127:\n        /* \"#utility.yul\":2927:2951   */\n      tag_210\n        /* \"#utility.yul\":2945:2950   */\n      dup2\n        /* \"#utility.yul\":2927:2951   */\n      tag_126\n      jump\t// in\n    tag_210:\n        /* \"#utility.yul\":2922:2925   */\n      dup3\n        /* \"#utility.yul\":2915:2952   */\n      mstore\n        /* \"#utility.yul\":2850:2958   */\n      pop\n      pop\n      jump\t// out\n        /* \"#utility.yul\":3018:4635   */\n    tag_128:\n        /* \"#utility.yul\":3117:3120   */\n      0x00\n        /* \"#utility.yul\":3153:3157   */\n      0xe0\n        /* \"#utility.yul\":3148:3151   */\n      dup4\n        /* \"#utility.yul\":3144:3158   */\n      add\n        /* \"#utility.yul\":3238:3242   */\n      0x00\n        /* \"#utility.yul\":3231:3236   */\n      dup4\n        /* \"#utility.yul\":3227:3243   */\n      add\n        /* \"#utility.yul\":3221:3244   */\n      mload\n        /* \"#utility.yul\":3257:3320   */\n      tag_212\n        /* \"#utility.yul\":3314:3318   */\n      0x00\n        /* \"#utility.yul\":3309:3312   */\n      dup7\n        /* \"#utility.yul\":3305:3319   */\n      add\n        /* \"#utility.yul\":3291:3303   */\n      dup3\n        /* \"#utility.yul\":3257:3320   */\n      tag_120\n      jump\t// in\n    tag_212:\n        /* \"#utility.yul\":3168:3330   */\n      pop\n        /* \"#utility.yul\":3414:3418   */\n      0x20\n        /* \"#utility.yul\":3407:3412   */\n      dup4\n        /* \"#utility.yul\":3403:3419   */\n      add\n        /* \"#utility.yul\":3397:3420   */\n      mload\n        /* \"#utility.yul\":3467:3470   */\n      dup5\n        /* \"#utility.yul\":3461:3465   */\n      dup3\n        /* \"#utility.yul\":3457:3471   */\n      sub\n        /* \"#utility.yul\":3450:3454   */\n      0x20\n        /* \"#utility.yul\":3445:3448   */\n      dup7\n        /* \"#utility.yul\":3441:3455   */\n      add\n        /* \"#utility.yul\":3434:3472   */\n      mstore\n        /* \"#utility.yul\":3493:3566   */\n      tag_213\n        /* \"#utility.yul\":3561:3565   */\n      dup3\n        /* \"#utility.yul\":3547:3559   */\n      dup3\n        /* \"#utility.yul\":3493:3566   */\n      tag_125\n      jump\t// in\n    tag_213:\n        /* \"#utility.yul\":3485:3566   */\n      swap2\n      pop\n        /* \"#utility.yul\":3340:3577   */\n      pop\n        /* \"#utility.yul\":3660:3664   */\n      0x40\n        /* \"#utility.yul\":3653:3658   */\n      dup4\n        /* \"#utility.yul\":3649:3665   */\n      add\n        /* \"#utility.yul\":3643:3666   */\n      mload\n        /* \"#utility.yul\":3713:3716   */\n      dup5\n        /* \"#utility.yul\":3707:3711   */\n      dup3\n        /* \"#utility.yul\":3703:3717   */\n      sub\n        /* \"#utility.yul\":3696:3700   */\n      0x40\n        /* \"#utility.yul\":3691:3694   */\n      dup7\n        /* \"#utility.yul\":3687:3701   */\n      add\n        /* \"#utility.yul\":3680:3718   */\n      mstore\n        /* \"#utility.yul\":3739:3812   */\n      tag_214\n        /* \"#utility.yul\":3807:3811   */\n      dup3\n        /* \"#utility.yul\":3793:3805   */\n      dup3\n        /* \"#utility.yul\":3739:3812   */\n      tag_125\n      jump\t// in\n    tag_214:\n        /* \"#utility.yul\":3731:3812   */\n      swap2\n      pop\n        /* \"#utility.yul\":3587:3823   */\n      pop\n        /* \"#utility.yul\":3912:3916   */\n      0x60\n        /* \"#utility.yul\":3905:3910   */\n      dup4\n        /* \"#utility.yul\":3901:3917   */\n      add\n        /* \"#utility.yul\":3895:3918   */\n      mload\n        /* \"#utility.yul\":3965:3968   */\n      dup5\n        /* \"#utility.yul\":3959:3963   */\n      dup3\n        /* \"#utility.yul\":3955:3969   */\n      sub\n        /* \"#utility.yul\":3948:3952   */\n      0x60\n        /* \"#utility.yul\":3943:3946   */\n      dup7\n        /* \"#utility.yul\":3939:3953   */\n      add\n        /* \"#utility.yul\":3932:3970   */\n      mstore\n        /* \"#utility.yul\":3991:4064   */\n      tag_215\n        /* \"#utility.yul\":4059:4063   */\n      dup3\n        /* \"#utility.yul\":4045:4057   */\n      dup3\n        /* \"#utility.yul\":3991:4064   */\n      tag_125\n      jump\t// in\n    tag_215:\n        /* \"#utility.yul\":3983:4064   */\n      swap2\n      pop\n        /* \"#utility.yul\":3833:4075   */\n      pop\n        /* \"#utility.yul\":4159:4163   */\n      0x80\n        /* \"#utility.yul\":4152:4157   */\n      dup4\n        /* \"#utility.yul\":4148:4164   */\n      add\n        /* \"#utility.yul\":4142:4165   */\n      mload\n        /* \"#utility.yul\":4178:4241   */\n      tag_216\n        /* \"#utility.yul\":4235:4239   */\n      0x80\n        /* \"#utility.yul\":4230:4233   */\n      dup7\n        /* \"#utility.yul\":4226:4240   */\n      add\n        /* \"#utility.yul\":4212:4224   */\n      dup3\n        /* \"#utility.yul\":4178:4241   */\n      tag_127\n      jump\t// in\n    tag_216:\n        /* \"#utility.yul\":4085:4251   */\n      pop\n        /* \"#utility.yul\":4337:4341   */\n      0xa0\n        /* \"#utility.yul\":4330:4335   */\n      dup4\n        /* \"#utility.yul\":4326:4342   */\n      add\n        /* \"#utility.yul\":4320:4343   */\n      mload\n        /* \"#utility.yul\":4356:4419   */\n      tag_217\n        /* \"#utility.yul\":4413:4417   */\n      0xa0\n        /* \"#utility.yul\":4408:4411   */\n      dup7\n        /* \"#utility.yul\":4404:4418   */\n      add\n        /* \"#utility.yul\":4390:4402   */\n      dup3\n        /* \"#utility.yul\":4356:4419   */\n      tag_127\n      jump\t// in\n    tag_217:\n        /* \"#utility.yul\":4261:4429   */\n      pop\n        /* \"#utility.yul\":4516:4520   */\n      0xc0\n        /* \"#utility.yul\":4509:4514   */\n      dup4\n        /* \"#utility.yul\":4505:4521   */\n      add\n        /* \"#utility.yul\":4499:4522   */\n      mload\n        /* \"#utility.yul\":4535:4598   */\n      tag_218\n        /* \"#utility.yul\":4592:4596   */\n      0xc0\n        /* \"#utility.yul\":4587:4590   */\n      dup7\n        /* \"#utility.yul\":4583:4597   */\n      add\n        /* \"#utility.yul\":4569:4581   */\n      dup3\n        /* \"#utility.yul\":4535:4598   */\n      tag_127\n      jump\t// in\n    tag_218:\n        /* \"#utility.yul\":4439:4608   */\n      pop\n        /* \"#utility.yul\":4625:4629   */\n      dup1\n        /* \"#utility.yul\":4618:4629   */\n      swap2\n      pop\n        /* \"#utility.yul\":3122:4635   */\n      pop\n        /* \"#utility.yul\":3018:4635   */\n      swap3\n      swap2\n      pop\n      pop\n      jump\t// out\n        /* \"#utility.yul\":4641:4877   */\n    tag_129:\n        /* \"#utility.yul\":4750:4760   */\n      0x00\n        /* \"#utility.yul\":4785:4871   */\n      tag_220\n        /* \"#utility.yul\":4867:4870   */\n      dup4\n        /* \"#utility.yul\":4859:4865   */\n      dup4\n        /* \"#utility.yul\":4785:4871   */\n      tag_128\n      jump\t// in\n    tag_220:\n        /* \"#utility.yul\":4771:4871   */\n      swap1\n      pop\n        /* \"#utility.yul\":4641:4877   */\n      swap3\n      swap2\n      pop\n      pop\n      jump\t// out\n        /* \"#utility.yul\":4883:5016   */\n    tag_130:\n        /* \"#utility.yul\":4973:4977   */\n      0x00\n        /* \"#utility.yul\":5005:5009   */\n      0x20\n        /* \"#utility.yul\":5000:5003   */\n      dup3\n        /* \"#utility.yul\":4996:5010   */\n      add\n        /* \"#utility.yul\":4988:5010   */\n      swap1\n      pop\n        /* \"#utility.yul\":4883:5016   */\n      swap2\n      swap1\n      pop\n      jump\t// out\n        /* \"#utility.yul\":5080:6151   */\n    tag_131:\n        /* \"#utility.yul\":5239:5242   */\n      0x00\n        /* \"#utility.yul\":5268:5342   */\n      tag_223\n        /* \"#utility.yul\":5336:5341   */\n      dup3\n        /* \"#utility.yul\":5268:5342   */\n      tag_116\n      jump\t// in\n    tag_223:\n        /* \"#utility.yul\":5358:5464   */\n      tag_224\n        /* \"#utility.yul\":5457:5463   */\n      dup2\n        /* \"#utility.yul\":5452:5455   */\n      dup6\n        /* \"#utility.yul\":5358:5464   */\n      tag_117\n      jump\t// in\n    tag_224:\n        /* \"#utility.yul\":5351:5464   */\n      swap4\n      pop\n        /* \"#utility.yul\":5490:5493   */\n      dup4\n        /* \"#utility.yul\":5535:5539   */\n      0x20\n        /* \"#utility.yul\":5527:5533   */\n      dup3\n        /* \"#utility.yul\":5523:5540   */\n      mul\n        /* \"#utility.yul\":5518:5521   */\n      dup6\n        /* \"#utility.yul\":5514:5541   */\n      add\n        /* \"#utility.yul\":5565:5641   */\n      tag_225\n        /* \"#utility.yul\":5635:5640   */\n      dup6\n        /* \"#utility.yul\":5565:5641   */\n      tag_118\n      jump\t// in\n    tag_225:\n        /* \"#utility.yul\":5664:5671   */\n      dup1\n        /* \"#utility.yul\":5695:5696   */\n      0x00\n        /* \"#utility.yul\":5680:6106   */\n    tag_226:\n        /* \"#utility.yul\":5705:5711   */\n      dup6\n        /* \"#utility.yul\":5702:5703   */\n      dup2\n        /* \"#utility.yul\":5699:5712   */\n      lt\n        /* \"#utility.yul\":5680:6106   */\n      iszero\n      tag_228\n      jumpi\n        /* \"#utility.yul\":5776:5785   */\n      dup5\n        /* \"#utility.yul\":5770:5774   */\n      dup5\n        /* \"#utility.yul\":5766:5786   */\n      sub\n        /* \"#utility.yul\":5761:5764   */\n      dup10\n        /* \"#utility.yul\":5754:5787   */\n      mstore\n        /* \"#utility.yul\":5827:5833   */\n      dup2\n        /* \"#utility.yul\":5821:5834   */\n      mload\n        /* \"#utility.yul\":5855:5959   */\n      tag_229\n        /* \"#utility.yul\":5954:5958   */\n      dup6\n        /* \"#utility.yul\":5939:5952   */\n      dup3\n        /* \"#utility.yul\":5855:5959   */\n      tag_129\n      jump\t// in\n    tag_229:\n        /* \"#utility.yul\":5847:5959   */\n      swap5\n      pop\n        /* \"#utility.yul\":5982:6062   */\n      tag_230\n        /* \"#utility.yul\":6055:6061   */\n      dup4\n        /* \"#utility.yul\":5982:6062   */\n      tag_130\n      jump\t// in\n    tag_230:\n        /* \"#utility.yul\":5972:6062   */\n      swap3\n      pop\n        /* \"#utility.yul\":6091:6095   */\n      0x20\n        /* \"#utility.yul\":6086:6089   */\n      dup11\n        /* \"#utility.yul\":6082:6096   */\n      add\n        /* \"#utility.yul\":6075:6096   */\n      swap10\n      pop\n        /* \"#utility.yul\":5740:6106   */\n      pop\n        /* \"#utility.yul\":5727:5728   */\n      0x01\n        /* \"#utility.yul\":5724:5725   */\n      dup2\n        /* \"#utility.yul\":5720:5729   */\n      add\n        /* \"#utility.yul\":5715:5729   */\n      swap1\n      pop\n        /* \"#utility.yul\":5680:6106   */\n      jump(tag_226)\n    tag_228:\n        /* \"#utility.yul\":5684:5698   */\n      pop\n        /* \"#utility.yul\":6122:6126   */\n      dup3\n        /* \"#utility.yul\":6115:6126   */\n      swap8\n      pop\n        /* \"#utility.yul\":6142:6145   */\n      dup8\n        /* \"#utility.yul\":6135:6145   */\n      swap6\n      pop\n        /* \"#utility.yul\":5244:6151   */\n      pop\n      pop\n      pop\n      pop\n      pop\n        /* \"#utility.yul\":5080:6151   */\n      swap3\n      swap2\n      pop\n      pop\n      jump\t// out\n        /* \"#utility.yul\":6157:6610   */\n    tag_13:\n        /* \"#utility.yul\":6340:6344   */\n      0x00\n        /* \"#utility.yul\":6378:6380   */\n      0x20\n        /* \"#utility.yul\":6367:6376   */\n      dup3\n        /* \"#utility.yul\":6363:6381   */\n      add\n        /* \"#utility.yul\":6355:6381   */\n      swap1\n      pop\n        /* \"#utility.yul\":6427:6436   */\n      dup2\n        /* \"#utility.yul\":6421:6425   */\n      dup2\n        /* \"#utility.yul\":6417:6437   */\n      sub\n        /* \"#utility.yul\":6413:6414   */\n      0x00\n        /* \"#utility.yul\":6402:6411   */\n      dup4\n        /* \"#utility.yul\":6398:6415   */\n      add\n        /* \"#utility.yul\":6391:6438   */\n      mstore\n        /* \"#utility.yul\":6455:6603   */\n      tag_232\n        /* \"#utility.yul\":6598:6602   */\n      dup2\n        /* \"#utility.yul\":6589:6595   */\n      dup5\n        /* \"#utility.yul\":6455:6603   */\n      tag_131\n      jump\t// in\n    tag_232:\n        /* \"#utility.yul\":6447:6603   */\n      swap1\n      pop\n        /* \"#utility.yul\":6157:6610   */\n      swap3\n      swap2\n      pop\n      pop\n      jump\t// out\n        /* \"#utility.yul\":6616:6738   */\n    tag_132:\n        /* \"#utility.yul\":6689:6713   */\n      tag_234\n        /* \"#utility.yul\":6707:6712   */\n      dup2\n        /* \"#utility.yul\":6689:6713   */\n      tag_119\n      jump\t// in\n    tag_234:\n        /* \"#utility.yul\":6682:6687   */\n      dup2\n        /* \"#utility.yul\":6679:6714   */\n      eq\n        /* \"#utility.yul\":6669:6732   */\n      tag_235\n      jumpi\n        /* \"#utility.yul\":6728:6729   */\n      0x00\n        /* \"#utility.yul\":6725:6726   */\n      0x00\n        /* \"#utility.yul\":6718:6730   */\n      revert\n        /* \"#utility.yul\":6669:6732   */\n    tag_235:\n        /* \"#utility.yul\":6616:6738   */\n      pop\n      jump\t// out\n        /* \"#utility.yul\":6744:6883   */\n    tag_133:\n        /* \"#utility.yul\":6790:6795   */\n      0x00\n        /* \"#utility.yul\":6828:6834   */\n      dup2\n        /* \"#utility.yul\":6815:6835   */\n      calldataload\n        /* \"#utility.yul\":6806:6835   */\n      swap1\n      pop\n        /* \"#utility.yul\":6844:6877   */\n      tag_237\n        /* \"#utility.yul\":6871:6876   */\n      dup2\n        /* \"#utility.yul\":6844:6877   */\n      tag_132\n      jump\t// in\n    tag_237:\n        /* \"#utility.yul\":6744:6883   */\n      swap3\n      swap2\n      pop\n      pop\n      jump\t// out\n        /* \"#utility.yul\":6889:7218   */\n    tag_16:\n        /* \"#utility.yul\":6948:6954   */\n      0x00\n        /* \"#utility.yul\":6997:6999   */\n      0x20\n        /* \"#utility.yul\":6985:6994   */\n      dup3\n        /* \"#utility.yul\":6976:6983   */\n      dup5\n        /* \"#utility.yul\":6972:6995   */\n      sub\n        /* \"#utility.yul\":6968:7000   */\n      slt\n        /* \"#utility.yul\":6965:7084   */\n      iszero\n      tag_239\n      jumpi\n        /* \"#utility.yul\":7003:7082   */\n      tag_240\n      tag_110\n      jump\t// in\n    tag_240:\n        /* \"#utility.yul\":6965:7084   */\n    tag_239:\n        /* \"#utility.yul\":7123:7124   */\n      0x00\n        /* \"#utility.yul\":7148:7201   */\n      tag_241\n        /* \"#utility.yul\":7193:7200   */\n      dup5\n        /* \"#utility.yul\":7184:7190   */\n      dup3\n        /* \"#utility.yul\":7173:7182   */\n      dup6\n        /* \"#utility.yul\":7169:7191   */\n      add\n        /* \"#utility.yul\":7148:7201   */\n      tag_133\n      jump\t// in\n    tag_241:\n        /* \"#utility.yul\":7138:7201   */\n      swap2\n      pop\n        /* \"#utility.yul\":7094:7211   */\n      pop\n        /* \"#utility.yul\":6889:7218   */\n      swap3\n      swap2\n      pop\n      pop\n      jump\t// out\n        /* \"#utility.yul\":7278:8905   */\n    tag_134:\n        /* \"#utility.yul\":7387:7390   */\n      0x00\n        /* \"#utility.yul\":7423:7427   */\n      0xe0\n        /* \"#utility.yul\":7418:7421   */\n      dup4\n        /* \"#utility.yul\":7414:7428   */\n      add\n        /* \"#utility.yul\":7508:7512   */\n      0x00\n        /* \"#utility.yul\":7501:7506   */\n      dup4\n        /* \"#utility.yul\":7497:7513   */\n      add\n        /* \"#utility.yul\":7491:7514   */\n      mload\n        /* \"#utility.yul\":7527:7590   */\n      tag_243\n        /* \"#utility.yul\":7584:7588   */\n      0x00\n        /* \"#utility.yul\":7579:7582   */\n      dup7\n        /* \"#utility.yul\":7575:7589   */\n      add\n        /* \"#utility.yul\":7561:7573   */\n      dup3\n        /* \"#utility.yul\":7527:7590   */\n      tag_120\n      jump\t// in\n    tag_243:\n        /* \"#utility.yul\":7438:7600   */\n      pop\n        /* \"#utility.yul\":7684:7688   */\n      0x20\n        /* \"#utility.yul\":7677:7682   */\n      dup4\n        /* \"#utility.yul\":7673:7689   */\n      add\n        /* \"#utility.yul\":7667:7690   */\n      mload\n        /* \"#utility.yul\":7737:7740   */\n      dup5\n        /* \"#utility.yul\":7731:7735   */\n      dup3\n        /* \"#utility.yul\":7727:7741   */\n      sub\n        /* \"#utility.yul\":7720:7724   */\n      0x20\n        /* \"#utility.yul\":7715:7718   */\n      dup7\n        /* \"#utility.yul\":7711:7725   */\n      add\n        /* \"#utility.yul\":7704:7742   */\n      mstore\n        /* \"#utility.yul\":7763:7836   */\n      tag_244\n        /* \"#utility.yul\":7831:7835   */\n      dup3\n        /* \"#utility.yul\":7817:7829   */\n      dup3\n        /* \"#utility.yul\":7763:7836   */\n      tag_125\n      jump\t// in\n    tag_244:\n        /* \"#utility.yul\":7755:7836   */\n      swap2\n      pop\n        /* \"#utility.yul\":7610:7847   */\n      pop\n        /* \"#utility.yul\":7930:7934   */\n      0x40\n        /* \"#utility.yul\":7923:7928   */\n      dup4\n        /* \"#utility.yul\":7919:7935   */\n      add\n        /* \"#utility.yul\":7913:7936   */\n      mload\n        /* \"#utility.yul\":7983:7986   */\n      dup5\n        /* \"#utility.yul\":7977:7981   */\n      dup3\n        /* \"#utility.yul\":7973:7987   */\n      sub\n        /* \"#utility.yul\":7966:7970   */\n      0x40\n        /* \"#utility.yul\":7961:7964   */\n      dup7\n        /* \"#utility.yul\":7957:7971   */\n      add\n        /* \"#utility.yul\":7950:7988   */\n      mstore\n        /* \"#utility.yul\":8009:8082   */\n      tag_245\n        /* \"#utility.yul\":8077:8081   */\n      dup3\n        /* \"#utility.yul\":8063:8075   */\n      dup3\n        /* \"#utility.yul\":8009:8082   */\n      tag_125\n      jump\t// in\n    tag_245:\n        /* \"#utility.yul\":8001:8082   */\n      swap2\n      pop\n        /* \"#utility.yul\":7857:8093   */\n      pop\n        /* \"#utility.yul\":8182:8186   */\n      0x60\n        /* \"#utility.yul\":8175:8180   */\n      dup4\n        /* \"#utility.yul\":8171:8187   */\n      add\n        /* \"#utility.yul\":8165:8188   */\n      mload\n        /* \"#utility.yul\":8235:8238   */\n      dup5\n        /* \"#utility.yul\":8229:8233   */\n      dup3\n        /* \"#utility.yul\":8225:8239   */\n      sub\n        /* \"#utility.yul\":8218:8222   */\n      0x60\n        /* \"#utility.yul\":8213:8216   */\n      dup7\n        /* \"#utility.yul\":8209:8223   */\n      add\n        /* \"#utility.yul\":8202:8240   */\n      mstore\n        /* \"#utility.yul\":8261:8334   */\n      tag_246\n        /* \"#utility.yul\":8329:8333   */\n      dup3\n        /* \"#utility.yul\":8315:8327   */\n      dup3\n        /* \"#utility.yul\":8261:8334   */\n      tag_125\n      jump\t// in\n    tag_246:\n        /* \"#utility.yul\":8253:8334   */\n      swap2\n      pop\n        /* \"#utility.yul\":8103:8345   */\n      pop\n        /* \"#utility.yul\":8429:8433   */\n      0x80\n        /* \"#utility.yul\":8422:8427   */\n      dup4\n        /* \"#utility.yul\":8418:8434   */\n      add\n        /* \"#utility.yul\":8412:8435   */\n      mload\n        /* \"#utility.yul\":8448:8511   */\n      tag_247\n        /* \"#utility.yul\":8505:8509   */\n      0x80\n        /* \"#utility.yul\":8500:8503   */\n      dup7\n        /* \"#utility.yul\":8496:8510   */\n      add\n        /* \"#utility.yul\":8482:8494   */\n      dup3\n        /* \"#utility.yul\":8448:8511   */\n      tag_127\n      jump\t// in\n    tag_247:\n        /* \"#utility.yul\":8355:8521   */\n      pop\n        /* \"#utility.yul\":8607:8611   */\n      0xa0\n        /* \"#utility.yul\":8600:8605   */\n      dup4\n        /* \"#utility.yul\":8596:8612   */\n      add\n        /* \"#utility.yul\":8590:8613   */\n      mload\n        /* \"#utility.yul\":8626:8689   */\n      tag_248\n        /* \"#utility.yul\":8683:8687   */\n      0xa0\n        /* \"#utility.yul\":8678:8681   */\n      dup7\n        /* \"#utility.yul\":8674:8688   */\n      add\n        /* \"#utility.yul\":8660:8672   */\n      dup3\n        /* \"#utility.yul\":8626:8689   */\n      tag_127\n      jump\t// in\n    tag_248:\n        /* \"#utility.yul\":8531:8699   */\n      pop\n        /* \"#utility.yul\":8786:8790   */\n      0xc0\n        /* \"#utility.yul\":8779:8784   */\n      dup4\n        /* \"#utility.yul\":8775:8791   */\n      add\n        /* \"#utility.yul\":8769:8792   */\n      mload\n        /* \"#utility.yul\":8805:8868   */\n      tag_249\n        /* \"#utility.yul\":8862:8866   */\n      0xc0\n        /* \"#utility.yul\":8857:8860   */\n      dup7\n        /* \"#utility.yul\":8853:8867   */\n      add\n        /* \"#utility.yul\":8839:8851   */\n      dup3\n        /* \"#utility.yul\":8805:8868   */\n      tag_127\n      jump\t// in\n    tag_249:\n        /* \"#utility.yul\":8709:8878   */\n      pop\n        /* \"#utility.yul\":8895:8899   */\n      dup1\n        /* \"#utility.yul\":8888:8899   */\n      swap2\n      pop\n        /* \"#utility.yul\":7392:8905   */\n      pop\n        /* \"#utility.yul\":7278:8905   */\n      swap3\n      swap2\n      pop\n      pop\n      jump\t// out\n        /* \"#utility.yul\":8911:9264   */\n    tag_22:\n        /* \"#utility.yul\":9044:9048   */\n      0x00\n        /* \"#utility.yul\":9082:9084   */\n      0x20\n        /* \"#utility.yul\":9071:9080   */\n      dup3\n        /* \"#utility.yul\":9067:9085   */\n      add\n        /* \"#utility.yul\":9059:9085   */\n      swap1\n      pop\n        /* \"#utility.yul\":9131:9140   */\n      dup2\n        /* \"#utility.yul\":9125:9129   */\n      dup2\n        /* \"#utility.yul\":9121:9141   */\n      sub\n        /* \"#utility.yul\":9117:9118   */\n      0x00\n        /* \"#utility.yul\":9106:9115   */\n      dup4\n        /* \"#utility.yul\":9102:9119   */\n      add\n        /* \"#utility.yul\":9095:9142   */\n      mstore\n        /* \"#utility.yul\":9159:9257   */\n      tag_251\n        /* \"#utility.yul\":9252:9256   */\n      dup2\n        /* \"#utility.yul\":9243:9249   */\n      dup5\n        /* \"#utility.yul\":9159:9257   */\n      tag_134\n      jump\t// in\n    tag_251:\n        /* \"#utility.yul\":9151:9257   */\n      swap1\n      pop\n        /* \"#utility.yul\":8911:9264   */\n      swap3\n      swap2\n      pop\n      pop\n      jump\t// out\n        /* \"#utility.yul\":9270:9387   */\n    tag_135:\n        /* \"#utility.yul\":9379:9380   */\n      0x00\n        /* \"#utility.yul\":9376:9377   */\n      0x00\n        /* \"#utility.yul\":9369:9381   */\n      revert\n        /* \"#utility.yul\":9393:9510   */\n    tag_136:\n        /* \"#utility.yul\":9502:9503   */\n      0x00\n        /* \"#utility.yul\":9499:9500   */\n      0x00\n        /* \"#utility.yul\":9492:9504   */\n      revert\n        /* \"#utility.yul\":9516:9696   */\n    tag_35:\n        /* \"#utility.yul\":9564:9641   */\n      0x4e487b7100000000000000000000000000000000000000000000000000000000\n        /* \"#utility.yul\":9561:9562   */\n      0x00\n        /* \"#utility.yul\":9554:9642   */\n      mstore\n        /* \"#utility.yul\":9661:9665   */\n      0x41\n        /* \"#utility.yul\":9658:9659   */\n      0x04\n        /* \"#utility.yul\":9651:9666   */\n      mstore\n        /* \"#utility.yul\":9685:9689   */\n      0x24\n        /* \"#utility.yul\":9682:9683   */\n      0x00\n        /* \"#utility.yul\":9675:9690   */\n      revert\n        /* \"#utility.yul\":9702:9983   */\n    tag_137:\n        /* \"#utility.yul\":9785:9812   */\n      tag_256\n        /* \"#utility.yul\":9807:9811   */\n      dup3\n        /* \"#utility.yul\":9785:9812   */\n      tag_124\n      jump\t// in\n    tag_256:\n        /* \"#utility.yul\":9777:9783   */\n      dup2\n        /* \"#utility.yul\":9773:9813   */\n      add\n        /* \"#utility.yul\":9915:9921   */\n      dup2\n        /* \"#utility.yul\":9903:9913   */\n      dup2\n        /* \"#utility.yul\":9900:9922   */\n      lt\n        /* \"#utility.yul\":9879:9897   */\n      0xffffffffffffffff\n        /* \"#utility.yul\":9867:9877   */\n      dup3\n        /* \"#utility.yul\":9864:9898   */\n      gt\n        /* \"#utility.yul\":9861:9923   */\n      or\n        /* \"#utility.yul\":9858:9946   */\n      iszero\n      tag_257\n      jumpi\n        /* \"#utility.yul\":9926:9944   */\n      tag_258\n      tag_35\n      jump\t// in\n    tag_258:\n        /* \"#utility.yul\":9858:9946   */\n    tag_257:\n        /* \"#utility.yul\":9966:9976   */\n      dup1\n        /* \"#utility.yul\":9962:9964   */\n      0x40\n        /* \"#utility.yul\":9955:9977   */\n      mstore\n        /* \"#utility.yul\":9745:9983   */\n      pop\n        /* \"#utility.yul\":9702:9983   */\n      pop\n      pop\n      jump\t// out\n        /* \"#utility.yul\":9989:10118   */\n    tag_138:\n        /* \"#utility.yul\":10023:10029   */\n      0x00\n        /* \"#utility.yul\":10050:10070   */\n      tag_260\n      tag_109\n      jump\t// in\n    tag_260:\n        /* \"#utility.yul\":10040:10070   */\n      swap1\n      pop\n        /* \"#utility.yul\":10079:10112   */\n      tag_261\n        /* \"#utility.yul\":10107:10111   */\n      dup3\n        /* \"#utility.yul\":10099:10105   */\n      dup3\n        /* \"#utility.yul\":10079:10112   */\n      tag_137\n      jump\t// in\n    tag_261:\n        /* \"#utility.yul\":9989:10118   */\n      swap2\n      swap1\n      pop\n      jump\t// out\n        /* \"#utility.yul\":10124:10432   */\n    tag_139:\n        /* \"#utility.yul\":10186:10190   */\n      0x00\n        /* \"#utility.yul\":10276:10294   */\n      0xffffffffffffffff\n        /* \"#utility.yul\":10268:10274   */\n      dup3\n        /* \"#utility.yul\":10265:10295   */\n      gt\n        /* \"#utility.yul\":10262:10318   */\n      iszero\n      tag_263\n      jumpi\n        /* \"#utility.yul\":10298:10316   */\n      tag_264\n      tag_35\n      jump\t// in\n    tag_264:\n        /* \"#utility.yul\":10262:10318   */\n    tag_263:\n        /* \"#utility.yul\":10336:10365   */\n      tag_265\n        /* \"#utility.yul\":10358:10364   */\n      dup3\n        /* \"#utility.yul\":10336:10365   */\n      tag_124\n      jump\t// in\n    tag_265:\n        /* \"#utility.yul\":10328:10365   */\n      swap1\n      pop\n        /* \"#utility.yul\":10420:10424   */\n      0x20\n        /* \"#utility.yul\":10414:10418   */\n      dup2\n        /* \"#utility.yul\":10410:10425   */\n      add\n        /* \"#utility.yul\":10402:10425   */\n      swap1\n      pop\n        /* \"#utility.yul\":10124:10432   */\n      swap2\n      swap1\n      pop\n      jump\t// out\n        /* \"#utility.yul\":10438:10586   */\n    tag_140:\n        /* \"#utility.yul\":10536:10542   */\n      dup3\n        /* \"#utility.yul\":10531:10534   */\n      dup2\n        /* \"#utility.yul\":10526:10529   */\n      dup4\n        /* \"#utility.yul\":10513:10543   */\n      calldatacopy\n        /* \"#utility.yul\":10577:10578   */\n      0x00\n        /* \"#utility.yul\":10568:10574   */\n      dup4\n        /* \"#utility.yul\":10563:10566   */\n      dup4\n        /* \"#utility.yul\":10559:10575   */\n      add\n        /* \"#utility.yul\":10552:10579   */\n      mstore\n        /* \"#utility.yul\":10438:10586   */\n      pop\n      pop\n      pop\n      jump\t// out\n        /* \"#utility.yul\":10592:11017   */\n    tag_141:\n        /* \"#utility.yul\":10670:10675   */\n      0x00\n        /* \"#utility.yul\":10695:10761   */\n      tag_268\n        /* \"#utility.yul\":10711:10760   */\n      tag_269\n        /* \"#utility.yul\":10753:10759   */\n      dup5\n        /* \"#utility.yul\":10711:10760   */\n      tag_139\n      jump\t// in\n    tag_269:\n        /* \"#utility.yul\":10695:10761   */\n      tag_138\n      jump\t// in\n    tag_268:\n        /* \"#utility.yul\":10686:10761   */\n      swap1\n      pop\n        /* \"#utility.yul\":10784:10790   */\n      dup3\n        /* \"#utility.yul\":10777:10782   */\n      dup2\n        /* \"#utility.yul\":10770:10791   */\n      mstore\n        /* \"#utility.yul\":10822:10826   */\n      0x20\n        /* \"#utility.yul\":10815:10820   */\n      dup2\n        /* \"#utility.yul\":10811:10827   */\n      add\n        /* \"#utility.yul\":10860:10863   */\n      dup5\n        /* \"#utility.yul\":10851:10857   */\n      dup5\n        /* \"#utility.yul\":10846:10849   */\n      dup5\n        /* \"#utility.yul\":10842:10858   */\n      add\n        /* \"#utility.yul\":10839:10864   */\n      gt\n        /* \"#utility.yul\":10836:10948   */\n      iszero\n      tag_270\n      jumpi\n        /* \"#utility.yul\":10867:10946   */\n      tag_271\n      tag_136\n      jump\t// in\n    tag_271:\n        /* \"#utility.yul\":10836:10948   */\n    tag_270:\n        /* \"#utility.yul\":10957:11011   */\n      tag_272\n        /* \"#utility.yul\":11004:11010   */\n      dup5\n        /* \"#utility.yul\":10999:11002   */\n      dup3\n        /* \"#utility.yul\":10994:10997   */\n      dup6\n        /* \"#utility.yul\":10957:11011   */\n      tag_140\n      jump\t// in\n    tag_272:\n        /* \"#utility.yul\":10676:11017   */\n      pop\n        /* \"#utility.yul\":10592:11017   */\n      swap4\n      swap3\n      pop\n      pop\n      pop\n      jump\t// out\n        /* \"#utility.yul\":11037:11377   */\n    tag_142:\n        /* \"#utility.yul\":11093:11098   */\n      0x00\n        /* \"#utility.yul\":11142:11145   */\n      dup3\n        /* \"#utility.yul\":11135:11139   */\n      0x1f\n        /* \"#utility.yul\":11127:11133   */\n      dup4\n        /* \"#utility.yul\":11123:11140   */\n      add\n        /* \"#utility.yul\":11119:11146   */\n      slt\n        /* \"#utility.yul\":11109:11231   */\n      tag_274\n      jumpi\n        /* \"#utility.yul\":11150:11229   */\n      tag_275\n      tag_135\n      jump\t// in\n    tag_275:\n        /* \"#utility.yul\":11109:11231   */\n    tag_274:\n        /* \"#utility.yul\":11267:11273   */\n      dup2\n        /* \"#utility.yul\":11254:11274   */\n      calldataload\n        /* \"#utility.yul\":11292:11371   */\n      tag_276\n        /* \"#utility.yul\":11367:11370   */\n      dup5\n        /* \"#utility.yul\":11359:11365   */\n      dup3\n        /* \"#utility.yul\":11352:11356   */\n      0x20\n        /* \"#utility.yul\":11344:11350   */\n      dup7\n        /* \"#utility.yul\":11340:11357   */\n      add\n        /* \"#utility.yul\":11292:11371   */\n      tag_141\n      jump\t// in\n    tag_276:\n        /* \"#utility.yul\":11283:11371   */\n      swap2\n      pop\n        /* \"#utility.yul\":11099:11377   */\n      pop\n        /* \"#utility.yul\":11037:11377   */\n      swap3\n      swap2\n      pop\n      pop\n      jump\t// out\n        /* \"#utility.yul\":11383:12542   */\n    tag_28:\n        /* \"#utility.yul\":11490:11496   */\n      0x00\n        /* \"#utility.yul\":11498:11504   */\n      0x00\n        /* \"#utility.yul\":11506:11512   */\n      0x00\n        /* \"#utility.yul\":11555:11557   */\n      0x60\n        /* \"#utility.yul\":11543:11552   */\n      dup5\n        /* \"#utility.yul\":11534:11541   */\n      dup7\n        /* \"#utility.yul\":11530:11553   */\n      sub\n        /* \"#utility.yul\":11526:11558   */\n      slt\n        /* \"#utility.yul\":11523:11642   */\n      iszero\n      tag_278\n      jumpi\n        /* \"#utility.yul\":11561:11640   */\n      tag_279\n      tag_110\n      jump\t// in\n    tag_279:\n        /* \"#utility.yul\":11523:11642   */\n    tag_278:\n        /* \"#utility.yul\":11709:11710   */\n      0x00\n        /* \"#utility.yul\":11698:11707   */\n      dup5\n        /* \"#utility.yul\":11694:11711   */\n      add\n        /* \"#utility.yul\":11681:11712   */\n      calldataload\n        /* \"#utility.yul\":11739:11757   */\n      0xffffffffffffffff\n        /* \"#utility.yul\":11731:11737   */\n      dup2\n        /* \"#utility.yul\":11728:11758   */\n      gt\n        /* \"#utility.yul\":11725:11842   */\n      iszero\n      tag_280\n      jumpi\n        /* \"#utility.yul\":11761:11840   */\n      tag_281\n      tag_111\n      jump\t// in\n    tag_281:\n        /* \"#utility.yul\":11725:11842   */\n    tag_280:\n        /* \"#utility.yul\":11866:11929   */\n      tag_282\n        /* \"#utility.yul\":11921:11928   */\n      dup7\n        /* \"#utility.yul\":11912:11918   */\n      dup3\n        /* \"#utility.yul\":11901:11910   */\n      dup8\n        /* \"#utility.yul\":11897:11919   */\n      add\n        /* \"#utility.yul\":11866:11929   */\n      tag_142\n      jump\t// in\n    tag_282:\n        /* \"#utility.yul\":11856:11929   */\n      swap4\n      pop\n        /* \"#utility.yul\":11652:11939   */\n      pop\n        /* \"#utility.yul\":12006:12008   */\n      0x20\n        /* \"#utility.yul\":11995:12004   */\n      dup5\n        /* \"#utility.yul\":11991:12009   */\n      add\n        /* \"#utility.yul\":11978:12010   */\n      calldataload\n        /* \"#utility.yul\":12037:12055   */\n      0xffffffffffffffff\n        /* \"#utility.yul\":12029:12035   */\n      dup2\n        /* \"#utility.yul\":12026:12056   */\n      gt\n        /* \"#utility.yul\":12023:12140   */\n      iszero\n      tag_283\n      jumpi\n        /* \"#utility.yul\":12059:12138   */\n      tag_284\n      tag_111\n      jump\t// in\n    tag_284:\n        /* \"#utility.yul\":12023:12140   */\n    tag_283:\n        /* \"#utility.yul\":12164:12227   */\n      tag_285\n        /* \"#utility.yul\":12219:12226   */\n      dup7\n        /* \"#utility.yul\":12210:12216   */\n      dup3\n        /* \"#utility.yul\":12199:12208   */\n      dup8\n        /* \"#utility.yul\":12195:12217   */\n      add\n        /* \"#utility.yul\":12164:12227   */\n      tag_142\n      jump\t// in\n    tag_285:\n        /* \"#utility.yul\":12154:12227   */\n      swap3\n      pop\n        /* \"#utility.yul\":11949:12237   */\n      pop\n        /* \"#utility.yul\":12304:12306   */\n      0x40\n        /* \"#utility.yul\":12293:12302   */\n      dup5\n        /* \"#utility.yul\":12289:12307   */\n      add\n        /* \"#utility.yul\":12276:12308   */\n      calldataload\n        /* \"#utility.yul\":12335:12353   */\n      0xffffffffffffffff\n        /* \"#utility.yul\":12327:12333   */\n      dup2\n        /* \"#utility.yul\":12324:12354   */\n      gt\n        /* \"#utility.yul\":12321:12438   */\n      iszero\n      tag_286\n      jumpi\n        /* \"#utility.yul\":12357:12436   */\n      tag_287\n      tag_111\n      jump\t// in\n    tag_287:\n        /* \"#utility.yul\":12321:12438   */\n    tag_286:\n        /* \"#utility.yul\":12462:12525   */\n      tag_288\n        /* \"#utility.yul\":12517:12524   */\n      dup7\n        /* \"#utility.yul\":12508:12514   */\n      dup3\n        /* \"#utility.yul\":12497:12506   */\n      dup8\n        /* \"#utility.yul\":12493:12515   */\n      add\n        /* \"#utility.yul\":12462:12525   */\n      tag_142\n      jump\t// in\n    tag_288:\n        /* \"#utility.yul\":12452:12525   */\n      swap2\n      pop\n        /* \"#utility.yul\":12247:12535   */\n      pop\n        /* \"#utility.yul\":11383:12542   */\n      swap3\n      pop\n      swap3\n      pop\n      swap3\n      jump\t// out\n        /* \"#utility.yul\":12548:12728   */\n    tag_45:\n        /* \"#utility.yul\":12596:12673   */\n      0x4e487b7100000000000000000000000000000000000000000000000000000000\n        /* \"#utility.yul\":12593:12594   */\n      0x00\n        /* \"#utility.yul\":12586:12674   */\n      mstore\n        /* \"#utility.yul\":12693:12697   */\n      0x32\n        /* \"#utility.yul\":12690:12691   */\n      0x04\n        /* \"#utility.yul\":12683:12698   */\n      mstore\n        /* \"#utility.yul\":12717:12721   */\n      0x24\n        /* \"#utility.yul\":12714:12715   */\n      0x00\n        /* \"#utility.yul\":12707:12722   */\n      revert\n        /* \"#utility.yul\":12734:12914   */\n    tag_143:\n        /* \"#utility.yul\":12782:12859   */\n      0x4e487b7100000000000000000000000000000000000000000000000000000000\n        /* \"#utility.yul\":12779:12780   */\n      0x00\n        /* \"#utility.yul\":12772:12860   */\n      mstore\n        /* \"#utility.yul\":12879:12883   */\n      0x22\n        /* \"#utility.yul\":12876:12877   */\n      0x04\n        /* \"#utility.yul\":12869:12884   */\n      mstore\n        /* \"#utility.yul\":12903:12907   */\n      0x24\n        /* \"#utility.yul\":12900:12901   */\n      0x00\n        /* \"#utility.yul\":12893:12908   */\n      revert\n        /* \"#utility.yul\":12920:13240   */\n    tag_47:\n        /* \"#utility.yul\":12964:12970   */\n      0x00\n        /* \"#utility.yul\":13001:13002   */\n      0x02\n        /* \"#utility.yul\":12995:12999   */\n      dup3\n        /* \"#utility.yul\":12991:13003   */\n      div\n        /* \"#utility.yul\":12981:13003   */\n      swap1\n      pop\n        /* \"#utility.yul\":13048:13049   */\n      0x01\n        /* \"#utility.yul\":13042:13046   */\n      dup3\n        /* \"#utility.yul\":13038:13050   */\n      and\n        /* \"#utility.yul\":13069:13087   */\n      dup1\n        /* \"#utility.yul\":13059:13140   */\n      tag_292\n      jumpi\n        /* \"#utility.yul\":13125:13129   */\n      0x7f\n        /* \"#utility.yul\":13117:13123   */\n      dup3\n        /* \"#utility.yul\":13113:13130   */\n      and\n        /* \"#utility.yul\":13103:13130   */\n      swap2\n      pop\n        /* \"#utility.yul\":13059:13140   */\n    tag_292:\n        /* \"#utility.yul\":13187:13189   */\n      0x20\n        /* \"#utility.yul\":13179:13185   */\n      dup3\n        /* \"#utility.yul\":13176:13190   */\n      lt\n        /* \"#utility.yul\":13156:13174   */\n      dup2\n        /* \"#utility.yul\":13153:13191   */\n      sub\n        /* \"#utility.yul\":13150:13234   */\n      tag_293\n      jumpi\n        /* \"#utility.yul\":13206:13224   */\n      tag_294\n      tag_143\n      jump\t// in\n    tag_294:\n        /* \"#utility.yul\":13150:13234   */\n    tag_293:\n        /* \"#utility.yul\":12971:13240   */\n      pop\n        /* \"#utility.yul\":12920:13240   */\n      swap2\n      swap1\n      pop\n      jump\t// out\n        /* \"#utility.yul\":13246:13415   */\n    tag_144:\n        /* \"#utility.yul\":13330:13341   */\n      0x00\n        /* \"#utility.yul\":13364:13370   */\n      dup3\n        /* \"#utility.yul\":13359:13362   */\n      dup3\n        /* \"#utility.yul\":13352:13371   */\n      mstore\n        /* \"#utility.yul\":13404:13408   */\n      0x20\n        /* \"#utility.yul\":13399:13402   */\n      dup3\n        /* \"#utility.yul\":13395:13409   */\n      add\n        /* \"#utility.yul\":13380:13409   */\n      swap1\n      pop\n        /* \"#utility.yul\":13246:13415   */\n      swap3\n      swap2\n      pop\n      pop\n      jump\t// out\n        /* \"#utility.yul\":13421:13591   */\n    tag_145:\n        /* \"#utility.yul\":13561:13583   */\n      0x506f737420646f6573206e6f742065786973742e000000000000000000000000\n        /* \"#utility.yul\":13557:13558   */\n      0x00\n        /* \"#utility.yul\":13549:13555   */\n      dup3\n        /* \"#utility.yul\":13545:13559   */\n      add\n        /* \"#utility.yul\":13538:13584   */\n      mstore\n        /* \"#utility.yul\":13421:13591   */\n      pop\n      jump\t// out\n        /* \"#utility.yul\":13597:13963   */\n    tag_146:\n        /* \"#utility.yul\":13739:13742   */\n      0x00\n        /* \"#utility.yul\":13760:13827   */\n      tag_298\n        /* \"#utility.yul\":13824:13826   */\n      0x14\n        /* \"#utility.yul\":13819:13822   */\n      dup4\n        /* \"#utility.yul\":13760:13827   */\n      tag_144\n      jump\t// in\n    tag_298:\n        /* \"#utility.yul\":13753:13827   */\n      swap2\n      pop\n        /* \"#utility.yul\":13836:13929   */\n      tag_299\n        /* \"#utility.yul\":13925:13928   */\n      dup3\n        /* \"#utility.yul\":13836:13929   */\n      tag_145\n      jump\t// in\n    tag_299:\n        /* \"#utility.yul\":13954:13956   */\n      0x20\n        /* \"#utility.yul\":13949:13952   */\n      dup3\n        /* \"#utility.yul\":13945:13957   */\n      add\n        /* \"#utility.yul\":13938:13957   */\n      swap1\n      pop\n        /* \"#utility.yul\":13597:13963   */\n      swap2\n      swap1\n      pop\n      jump\t// out\n        /* \"#utility.yul\":13969:14388   */\n    tag_67:\n        /* \"#utility.yul\":14135:14139   */\n      0x00\n        /* \"#utility.yul\":14173:14175   */\n      0x20\n        /* \"#utility.yul\":14162:14171   */\n      dup3\n        /* \"#utility.yul\":14158:14176   */\n      add\n        /* \"#utility.yul\":14150:14176   */\n      swap1\n      pop\n        /* \"#utility.yul\":14222:14231   */\n      dup2\n        /* \"#utility.yul\":14216:14220   */\n      dup2\n        /* \"#utility.yul\":14212:14232   */\n      sub\n        /* \"#utility.yul\":14208:14209   */\n      0x00\n        /* \"#utility.yul\":14197:14206   */\n      dup4\n        /* \"#utility.yul\":14193:14210   */\n      add\n        /* \"#utility.yul\":14186:14233   */\n      mstore\n        /* \"#utility.yul\":14250:14381   */\n      tag_301\n        /* \"#utility.yul\":14376:14380   */\n      dup2\n        /* \"#utility.yul\":14250:14381   */\n      tag_146\n      jump\t// in\n    tag_301:\n        /* \"#utility.yul\":14242:14381   */\n      swap1\n      pop\n        /* \"#utility.yul\":13969:14388   */\n      swap2\n      swap1\n      pop\n      jump\t// out\n        /* \"#utility.yul\":14394:14617   */\n    tag_147:\n        /* \"#utility.yul\":14534:14568   */\n      0x596f75206861766520616c726561647920766f746564206f6e20746869732070\n        /* \"#utility.yul\":14530:14531   */\n      0x00\n        /* \"#utility.yul\":14522:14528   */\n      dup3\n        /* \"#utility.yul\":14518:14532   */\n      add\n        /* \"#utility.yul\":14511:14569   */\n      mstore\n        /* \"#utility.yul\":14603:14609   */\n      0x6f73742e00000000000000000000000000000000000000000000000000000000\n        /* \"#utility.yul\":14598:14600   */\n      0x20\n        /* \"#utility.yul\":14590:14596   */\n      dup3\n        /* \"#utility.yul\":14586:14601   */\n      add\n        /* \"#utility.yul\":14579:14610   */\n      mstore\n        /* \"#utility.yul\":14394:14617   */\n      pop\n      jump\t// out\n        /* \"#utility.yul\":14623:14989   */\n    tag_148:\n        /* \"#utility.yul\":14765:14768   */\n      0x00\n        /* \"#utility.yul\":14786:14853   */\n      tag_304\n        /* \"#utility.yul\":14850:14852   */\n      0x24\n        /* \"#utility.yul\":14845:14848   */\n      dup4\n        /* \"#utility.yul\":14786:14853   */\n      tag_144\n      jump\t// in\n    tag_304:\n        /* \"#utility.yul\":14779:14853   */\n      swap2\n      pop\n        /* \"#utility.yul\":14862:14955   */\n      tag_305\n        /* \"#utility.yul\":14951:14954   */\n      dup3\n        /* \"#utility.yul\":14862:14955   */\n      tag_147\n      jump\t// in\n    tag_305:\n        /* \"#utility.yul\":14980:14982   */\n      0x40\n        /* \"#utility.yul\":14975:14978   */\n      dup3\n        /* \"#utility.yul\":14971:14983   */\n      add\n        /* \"#utility.yul\":14964:14983   */\n      swap1\n      pop\n        /* \"#utility.yul\":14623:14989   */\n      swap2\n      swap1\n      pop\n      jump\t// out\n        /* \"#utility.yul\":14995:15414   */\n    tag_70:\n        /* \"#utility.yul\":15161:15165   */\n      0x00\n        /* \"#utility.yul\":15199:15201   */\n      0x20\n        /* \"#utility.yul\":15188:15197   */\n      dup3\n        /* \"#utility.yul\":15184:15202   */\n      add\n        /* \"#utility.yul\":15176:15202   */\n      swap1\n      pop\n        /* \"#utility.yul\":15248:15257   */\n      dup2\n        /* \"#utility.yul\":15242:15246   */\n      dup2\n        /* \"#utility.yul\":15238:15258   */\n      sub\n        /* \"#utility.yul\":15234:15235   */\n      0x00\n        /* \"#utility.yul\":15223:15232   */\n      dup4\n        /* \"#utility.yul\":15219:15236   */\n      add\n        /* \"#utility.yul\":15212:15259   */\n      mstore\n        /* \"#utility.yul\":15276:15407   */\n      tag_307\n        /* \"#utility.yul\":15402:15406   */\n      dup2\n        /* \"#utility.yul\":15276:15407   */\n      tag_148\n      jump\t// in\n    tag_307:\n        /* \"#utility.yul\":15268:15407   */\n      swap1\n      pop\n        /* \"#utility.yul\":14995:15414   */\n      swap2\n      swap1\n      pop\n      jump\t// out\n        /* \"#utility.yul\":15420:15600   */\n    tag_149:\n        /* \"#utility.yul\":15468:15545   */\n      0x4e487b7100000000000000000000000000000000000000000000000000000000\n        /* \"#utility.yul\":15465:15466   */\n      0x00\n        /* \"#utility.yul\":15458:15546   */\n      mstore\n        /* \"#utility.yul\":15565:15569   */\n      0x11\n        /* \"#utility.yul\":15562:15563   */\n      0x04\n        /* \"#utility.yul\":15555:15570   */\n      mstore\n        /* \"#utility.yul\":15589:15593   */\n      0x24\n        /* \"#utility.yul\":15586:15587   */\n      0x00\n        /* \"#utility.yul\":15579:15594   */\n      revert\n        /* \"#utility.yul\":15606:15839   */\n    tag_72:\n        /* \"#utility.yul\":15645:15648   */\n      0x00\n        /* \"#utility.yul\":15668:15692   */\n      tag_310\n        /* \"#utility.yul\":15686:15691   */\n      dup3\n        /* \"#utility.yul\":15668:15692   */\n      tag_126\n      jump\t// in\n    tag_310:\n        /* \"#utility.yul\":15659:15692   */\n      swap2\n      pop\n        /* \"#utility.yul\":15714:15780   */\n      0xffffffffffffffffffffffffffffffffffffffffffffffffffffffffffffffff\n        /* \"#utility.yul\":15707:15712   */\n      dup3\n        /* \"#utility.yul\":15704:15781   */\n      sub\n        /* \"#utility.yul\":15701:15804   */\n      tag_311\n      jumpi\n        /* \"#utility.yul\":15784:15802   */\n      tag_312\n      tag_149\n      jump\t// in\n    tag_312:\n        /* \"#utility.yul\":15701:15804   */\n    tag_311:\n        /* \"#utility.yul\":15831:15832   */\n      0x01\n        /* \"#utility.yul\":15824:15829   */\n      dup3\n        /* \"#utility.yul\":15820:15833   */\n      add\n        /* \"#utility.yul\":15813:15833   */\n      swap1\n      pop\n        /* \"#utility.yul\":15606:15839   */\n      swap2\n      swap1\n      pop\n      jump\t// out\n        /* \"#utility.yul\":15845:15935   */\n    tag_150:\n        /* \"#utility.yul\":15879:15886   */\n      0x00\n        /* \"#utility.yul\":15922:15927   */\n      dup2\n        /* \"#utility.yul\":15915:15928   */\n      iszero\n        /* \"#utility.yul\":15908:15929   */\n      iszero\n        /* \"#utility.yul\":15897:15929   */\n      swap1\n      pop\n        /* \"#utility.yul\":15845:15935   */\n      swap2\n      swap1\n      pop\n      jump\t// out\n        /* \"#utility.yul\":15941:16050   */\n    tag_151:\n        /* \"#utility.yul\":16022:16043   */\n      tag_315\n        /* \"#utility.yul\":16037:16042   */\n      dup2\n        /* \"#utility.yul\":16022:16043   */\n      tag_150\n      jump\t// in\n    tag_315:\n        /* \"#utility.yul\":16017:16020   */\n      dup3\n        /* \"#utility.yul\":16010:16044   */\n      mstore\n        /* \"#utility.yul\":15941:16050   */\n      pop\n      pop\n      jump\t// out\n        /* \"#utility.yul\":16056:16266   */\n    tag_74:\n        /* \"#utility.yul\":16143:16147   */\n      0x00\n        /* \"#utility.yul\":16181:16183   */\n      0x20\n        /* \"#utility.yul\":16170:16179   */\n      dup3\n        /* \"#utility.yul\":16166:16184   */\n      add\n        /* \"#utility.yul\":16158:16184   */\n      swap1\n      pop\n        /* \"#utility.yul\":16194:16259   */\n      tag_317\n        /* \"#utility.yul\":16256:16257   */\n      0x00\n        /* \"#utility.yul\":16245:16254   */\n      dup4\n        /* \"#utility.yul\":16241:16258   */\n      add\n        /* \"#utility.yul\":16232:16238   */\n      dup5\n        /* \"#utility.yul\":16194:16259   */\n      tag_151\n      jump\t// in\n    tag_317:\n        /* \"#utility.yul\":16056:16266   */\n      swap3\n      swap2\n      pop\n      pop\n      jump\t// out\n        /* \"#utility.yul\":16272:16366   */\n    tag_152:\n        /* \"#utility.yul\":16305:16313   */\n      0x00\n        /* \"#utility.yul\":16353:16358   */\n      dup2\n        /* \"#utility.yul\":16349:16351   */\n      0x60\n        /* \"#utility.yul\":16345:16359   */\n      shl\n        /* \"#utility.yul\":16324:16359   */\n      swap1\n      pop\n        /* \"#utility.yul\":16272:16366   */\n      swap2\n      swap1\n      pop\n      jump\t// out\n        /* \"#utility.yul\":16372:16466   */\n    tag_153:\n        /* \"#utility.yul\":16411:16418   */\n      0x00\n        /* \"#utility.yul\":16440:16460   */\n      tag_320\n        /* \"#utility.yul\":16454:16459   */\n      dup3\n        /* \"#utility.yul\":16440:16460   */\n      tag_152\n      jump\t// in\n    tag_320:\n        /* \"#utility.yul\":16429:16460   */\n      swap1\n      pop\n        /* \"#utility.yul\":16372:16466   */\n      swap2\n      swap1\n      pop\n      jump\t// out\n        /* \"#utility.yul\":16472:16572   */\n    tag_154:\n        /* \"#utility.yul\":16511:16518   */\n      0x00\n        /* \"#utility.yul\":16540:16566   */\n      tag_322\n        /* \"#utility.yul\":16560:16565   */\n      dup3\n        /* \"#utility.yul\":16540:16566   */\n      tag_153\n      jump\t// in\n    tag_322:\n        /* \"#utility.yul\":16529:16566   */\n      swap1\n      pop\n        /* \"#utility.yul\":16472:16572   */\n      swap2\n      swap1\n      pop\n      jump\t// out\n        /* \"#utility.yul\":16578:16735   */\n    tag_155:\n        /* \"#utility.yul\":16683:16728   */\n      tag_324\n        /* \"#utility.yul\":16703:16727   */\n      tag_325\n        /* \"#utility.yul\":16721:16726   */\n      dup3\n        /* \"#utility.yul\":16703:16727   */\n      tag_113\n      jump\t// in\n    tag_325:\n        /* \"#utility.yul\":16683:16728   */\n      tag_154\n      jump\t// in\n    tag_324:\n        /* \"#utility.yul\":16678:16681   */\n      dup3\n        /* \"#utility.yul\":16671:16729   */\n      mstore\n        /* \"#utility.yul\":16578:16735   */\n      pop\n      pop\n      jump\t// out\n        /* \"#utility.yul\":16741:16820   */\n    tag_156:\n        /* \"#utility.yul\":16780:16787   */\n      0x00\n        /* \"#utility.yul\":16809:16814   */\n      dup2\n        /* \"#utility.yul\":16798:16814   */\n      swap1\n      pop\n        /* \"#utility.yul\":16741:16820   */\n      swap2\n      swap1\n      pop\n      jump\t// out\n        /* \"#utility.yul\":16826:16983   */\n    tag_157:\n        /* \"#utility.yul\":16931:16976   */\n      tag_328\n        /* \"#utility.yul\":16951:16975   */\n      tag_329\n        /* \"#utility.yul\":16969:16974   */\n      dup3\n        /* \"#utility.yul\":16951:16975   */\n      tag_126\n      jump\t// in\n    tag_329:\n        /* \"#utility.yul\":16931:16976   */\n      tag_156\n      jump\t// in\n    tag_328:\n        /* \"#utility.yul\":16926:16929   */\n      dup3\n        /* \"#utility.yul\":16919:16977   */\n      mstore\n        /* \"#utility.yul\":16826:16983   */\n      pop\n      pop\n      jump\t// out\n        /* \"#utility.yul\":16989:17137   */\n    tag_158:\n        /* \"#utility.yul\":17091:17102   */\n      0x00\n        /* \"#utility.yul\":17128:17131   */\n      dup2\n        /* \"#utility.yul\":17113:17131   */\n      swap1\n      pop\n        /* \"#utility.yul\":16989:17137   */\n      swap3\n      swap2\n      pop\n      pop\n      jump\t// out\n        /* \"#utility.yul\":17143:17533   */\n    tag_159:\n        /* \"#utility.yul\":17249:17252   */\n      0x00\n        /* \"#utility.yul\":17277:17316   */\n      tag_332\n        /* \"#utility.yul\":17310:17315   */\n      dup3\n        /* \"#utility.yul\":17277:17316   */\n      tag_121\n      jump\t// in\n    tag_332:\n        /* \"#utility.yul\":17332:17421   */\n      tag_333\n        /* \"#utility.yul\":17414:17420   */\n      dup2\n        /* \"#utility.yul\":17409:17412   */\n      dup6\n        /* \"#utility.yul\":17332:17421   */\n      tag_158\n      jump\t// in\n    tag_333:\n        /* \"#utility.yul\":17325:17421   */\n      swap4\n      pop\n        /* \"#utility.yul\":17430:17495   */\n      tag_334\n        /* \"#utility.yul\":17488:17494   */\n      dup2\n        /* \"#utility.yul\":17483:17486   */\n      dup6\n        /* \"#utility.yul\":17476:17480   */\n      0x20\n        /* \"#utility.yul\":17469:17474   */\n      dup7\n        /* \"#utility.yul\":17465:17481   */\n      add\n        /* \"#utility.yul\":17430:17495   */\n      tag_123\n      jump\t// in\n    tag_334:\n        /* \"#utility.yul\":17520:17526   */\n      dup1\n        /* \"#utility.yul\":17515:17518   */\n      dup5\n        /* \"#utility.yul\":17511:17527   */\n      add\n        /* \"#utility.yul\":17504:17527   */\n      swap2\n      pop\n        /* \"#utility.yul\":17253:17533   */\n      pop\n        /* \"#utility.yul\":17143:17533   */\n      swap3\n      swap2\n      pop\n      pop\n      jump\t// out\n        /* \"#utility.yul\":17539:18256   */\n    tag_101:\n        /* \"#utility.yul\":17775:17778   */\n      0x00\n        /* \"#utility.yul\":17790:17865   */\n      tag_336\n        /* \"#utility.yul\":17861:17864   */\n      dup3\n        /* \"#utility.yul\":17852:17858   */\n      dup8\n        /* \"#utility.yul\":17790:17865   */\n      tag_155\n      jump\t// in\n    tag_336:\n        /* \"#utility.yul\":17890:17892   */\n      0x14\n        /* \"#utility.yul\":17885:17888   */\n      dup3\n        /* \"#utility.yul\":17881:17893   */\n      add\n        /* \"#utility.yul\":17874:17893   */\n      swap2\n      pop\n        /* \"#utility.yul\":17903:17978   */\n      tag_337\n        /* \"#utility.yul\":17974:17977   */\n      dup3\n        /* \"#utility.yul\":17965:17971   */\n      dup7\n        /* \"#utility.yul\":17903:17978   */\n      tag_157\n      jump\t// in\n    tag_337:\n        /* \"#utility.yul\":18003:18005   */\n      0x20\n        /* \"#utility.yul\":17998:18001   */\n      dup3\n        /* \"#utility.yul\":17994:18006   */\n      add\n        /* \"#utility.yul\":17987:18006   */\n      swap2\n      pop\n        /* \"#utility.yul\":18023:18118   */\n      tag_338\n        /* \"#utility.yul\":18114:18117   */\n      dup3\n        /* \"#utility.yul\":18105:18111   */\n      dup6\n        /* \"#utility.yul\":18023:18118   */\n      tag_159\n      jump\t// in\n    tag_338:\n        /* \"#utility.yul\":18016:18118   */\n      swap2\n      pop\n        /* \"#utility.yul\":18135:18230   */\n      tag_339\n        /* \"#utility.yul\":18226:18229   */\n      dup3\n        /* \"#utility.yul\":18217:18223   */\n      dup5\n        /* \"#utility.yul\":18135:18230   */\n      tag_159\n      jump\t// in\n    tag_339:\n        /* \"#utility.yul\":18128:18230   */\n      swap2\n      pop\n        /* \"#utility.yul\":18247:18250   */\n      dup2\n        /* \"#utility.yul\":18240:18250   */\n      swap1\n      pop\n        /* \"#utility.yul\":17539:18256   */\n      swap6\n      swap5\n      pop\n      pop\n      pop\n      pop\n      pop\n      jump\t// out\n        /* \"#utility.yul\":18262:18403   */\n    tag_160:\n        /* \"#utility.yul\":18311:18315   */\n      0x00\n        /* \"#utility.yul\":18334:18337   */\n      dup2\n        /* \"#utility.yul\":18326:18337   */\n      swap1\n      pop\n        /* \"#utility.yul\":18357:18360   */\n      dup2\n        /* \"#utility.yul\":18354:18355   */\n      0x00\n        /* \"#utility.yul\":18347:18361   */\n      mstore\n        /* \"#utility.yul\":18391:18395   */\n      0x20\n        /* \"#utility.yul\":18388:18389   */\n      0x00\n        /* \"#utility.yul\":18378:18396   */\n      keccak256\n        /* \"#utility.yul\":18370:18396   */\n      swap1\n      pop\n        /* \"#utility.yul\":18262:18403   */\n      swap2\n      swap1\n      pop\n      jump\t// out\n        /* \"#utility.yul\":18409:18502   */\n    tag_161:\n        /* \"#utility.yul\":18446:18452   */\n      0x00\n        /* \"#utility.yul\":18493:18495   */\n      0x20\n        /* \"#utility.yul\":18488:18490   */\n      0x1f\n        /* \"#utility.yul\":18481:18486   */\n      dup4\n        /* \"#utility.yul\":18477:18491   */\n      add\n        /* \"#utility.yul\":18473:18496   */\n      div\n        /* \"#utility.yul\":18463:18496   */\n      swap1\n      pop\n        /* \"#utility.yul\":18409:18502   */\n      swap2\n      swap1\n      pop\n      jump\t// out\n        /* \"#utility.yul\":18508:18615   */\n    tag_162:\n        /* \"#utility.yul\":18552:18560   */\n      0x00\n        /* \"#utility.yul\":18602:18607   */\n      dup3\n        /* \"#utility.yul\":18596:18600   */\n      dup3\n        /* \"#utility.yul\":18592:18608   */\n      shl\n        /* \"#utility.yul\":18571:18608   */\n      swap1\n      pop\n        /* \"#utility.yul\":18508:18615   */\n      swap3\n      swap2\n      pop\n      pop\n      jump\t// out\n        /* \"#utility.yul\":18621:19014   */\n    tag_163:\n        /* \"#utility.yul\":18690:18696   */\n      0x00\n        /* \"#utility.yul\":18740:18741   */\n      0x08\n        /* \"#utility.yul\":18728:18738   */\n      dup4\n        /* \"#utility.yul\":18724:18742   */\n      mul\n        /* \"#utility.yul\":18763:18860   */\n      tag_344\n        /* \"#utility.yul\":18793:18859   */\n      0xffffffffffffffffffffffffffffffffffffffffffffffffffffffffffffffff\n        /* \"#utility.yul\":18782:18791   */\n      dup3\n        /* \"#utility.yul\":18763:18860   */\n      tag_162\n      jump\t// in\n    tag_344:\n        /* \"#utility.yul\":18881:18920   */\n      tag_345\n        /* \"#utility.yul\":18911:18919   */\n      dup7\n        /* \"#utility.yul\":18900:18909   */\n      dup4\n        /* \"#utility.yul\":18881:18920   */\n      tag_162\n      jump\t// in\n    tag_345:\n        /* \"#utility.yul\":18869:18920   */\n      swap6\n      pop\n        /* \"#utility.yul\":18953:18957   */\n      dup1\n        /* \"#utility.yul\":18949:18958   */\n      not\n        /* \"#utility.yul\":18942:18947   */\n      dup5\n        /* \"#utility.yul\":18938:18959   */\n      and\n        /* \"#utility.yul\":18929:18959   */\n      swap4\n      pop\n        /* \"#utility.yul\":19002:19006   */\n      dup1\n        /* \"#utility.yul\":18992:19000   */\n      dup7\n        /* \"#utility.yul\":18988:19007   */\n      and\n        /* \"#utility.yul\":18981:18986   */\n      dup5\n        /* \"#utility.yul\":18978:19008   */\n      or\n        /* \"#utility.yul\":18968:19008   */\n      swap3\n      pop\n        /* \"#utility.yul\":18697:19014   */\n      pop\n      pop\n        /* \"#utility.yul\":18621:19014   */\n      swap4\n      swap3\n      pop\n      pop\n      pop\n      jump\t// out\n        /* \"#utility.yul\":19020:19080   */\n    tag_164:\n        /* \"#utility.yul\":19048:19051   */\n      0x00\n        /* \"#utility.yul\":19069:19074   */\n      dup2\n        /* \"#utility.yul\":19062:19074   */\n      swap1\n      pop\n        /* \"#utility.yul\":19020:19080   */\n      swap2\n      swap1\n      pop\n      jump\t// out\n        /* \"#utility.yul\":19086:19228   */\n    tag_165:\n        /* \"#utility.yul\":19136:19145   */\n      0x00\n        /* \"#utility.yul\":19169:19222   */\n      tag_348\n        /* \"#utility.yul\":19187:19221   */\n      tag_349\n        /* \"#utility.yul\":19196:19220   */\n      tag_350\n        /* \"#utility.yul\":19214:19219   */\n      dup5\n        /* \"#utility.yul\":19196:19220   */\n      tag_126\n      jump\t// in\n    tag_350:\n        /* \"#utility.yul\":19187:19221   */\n      tag_164\n      jump\t// in\n    tag_349:\n        /* \"#utility.yul\":19169:19222   */\n      tag_126\n      jump\t// in\n    tag_348:\n        /* \"#utility.yul\":19156:19222   */\n      swap1\n      pop\n        /* \"#utility.yul\":19086:19228   */\n      swap2\n      swap1\n      pop\n      jump\t// out\n        /* \"#utility.yul\":19234:19309   */\n    tag_166:\n        /* \"#utility.yul\":19277:19280   */\n      0x00\n        /* \"#utility.yul\":19298:19303   */\n      dup2\n        /* \"#utility.yul\":19291:19303   */\n      swap1\n      pop\n        /* \"#utility.yul\":19234:19309   */\n      swap2\n      swap1\n      pop\n      jump\t// out\n        /* \"#utility.yul\":19315:19584   */\n    tag_167:\n        /* \"#utility.yul\":19425:19464   */\n      tag_353\n        /* \"#utility.yul\":19456:19463   */\n      dup4\n        /* \"#utility.yul\":19425:19464   */\n      tag_165\n      jump\t// in\n    tag_353:\n        /* \"#utility.yul\":19486:19577   */\n      tag_354\n        /* \"#utility.yul\":19535:19576   */\n      tag_355\n        /* \"#utility.yul\":19559:19575   */\n      dup3\n        /* \"#utility.yul\":19535:19576   */\n      tag_166\n      jump\t// in\n    tag_355:\n        /* \"#utility.yul\":19527:19533   */\n      dup5\n        /* \"#utility.yul\":19520:19524   */\n      dup5\n        /* \"#utility.yul\":19514:19525   */\n      sload\n        /* \"#utility.yul\":19486:19577   */\n      tag_163\n      jump\t// in\n    tag_354:\n        /* \"#utility.yul\":19480:19484   */\n      dup3\n        /* \"#utility.yul\":19473:19578   */\n      sstore\n        /* \"#utility.yul\":19391:19584   */\n      pop\n        /* \"#utility.yul\":19315:19584   */\n      pop\n      pop\n      pop\n      jump\t// out\n        /* \"#utility.yul\":19590:19663   */\n    tag_168:\n        /* \"#utility.yul\":19635:19638   */\n      0x00\n        /* \"#utility.yul\":19656:19657   */\n      0x00\n        /* \"#utility.yul\":19649:19657   */\n      swap1\n      pop\n        /* \"#utility.yul\":19590:19663   */\n      swap1\n      jump\t// out\n        /* \"#utility.yul\":19669:19858   */\n    tag_169:\n        /* \"#utility.yul\":19746:19778   */\n      tag_358\n      tag_168\n      jump\t// in\n    tag_358:\n        /* \"#utility.yul\":19787:19852   */\n      tag_359\n        /* \"#utility.yul\":19845:19851   */\n      dup2\n        /* \"#utility.yul\":19837:19843   */\n      dup5\n        /* \"#utility.yul\":19831:19835   */\n      dup5\n        /* \"#utility.yul\":19787:19852   */\n      tag_167\n      jump\t// in\n    tag_359:\n        /* \"#utility.yul\":19722:19858   */\n      pop\n        /* \"#utility.yul\":19669:19858   */\n      pop\n      pop\n      jump\t// out\n        /* \"#utility.yul\":19864:20050   */\n    tag_170:\n        /* \"#utility.yul\":19924:20044   */\n    tag_361:\n        /* \"#utility.yul\":19941:19944   */\n      dup2\n        /* \"#utility.yul\":19934:19939   */\n      dup2\n        /* \"#utility.yul\":19931:19945   */\n      lt\n        /* \"#utility.yul\":19924:20044   */\n      iszero\n      tag_363\n      jumpi\n        /* \"#utility.yul\":19995:20034   */\n      tag_364\n        /* \"#utility.yul\":20032:20033   */\n      0x00\n        /* \"#utility.yul\":20025:20030   */\n      dup3\n        /* \"#utility.yul\":19995:20034   */\n      tag_169\n      jump\t// in\n    tag_364:\n        /* \"#utility.yul\":19968:19969   */\n      0x01\n        /* \"#utility.yul\":19961:19966   */\n      dup2\n        /* \"#utility.yul\":19957:19970   */\n      add\n        /* \"#utility.yul\":19948:19970   */\n      swap1\n      pop\n        /* \"#utility.yul\":19924:20044   */\n      jump(tag_361)\n    tag_363:\n        /* \"#utility.yul\":19864:20050   */\n      pop\n      pop\n      jump\t// out\n        /* \"#utility.yul\":20056:20599   */\n    tag_171:\n        /* \"#utility.yul\":20157:20159   */\n      0x1f\n        /* \"#utility.yul\":20152:20155   */\n      dup3\n        /* \"#utility.yul\":20149:20160   */\n      gt\n        /* \"#utility.yul\":20146:20592   */\n      iszero\n      tag_366\n      jumpi\n        /* \"#utility.yul\":20191:20229   */\n      tag_367\n        /* \"#utility.yul\":20223:20228   */\n      dup2\n        /* \"#utility.yul\":20191:20229   */\n      tag_160\n      jump\t// in\n    tag_367:\n        /* \"#utility.yul\":20275:20304   */\n      tag_368\n        /* \"#utility.yul\":20293:20303   */\n      dup5\n        /* \"#utility.yul\":20275:20304   */\n      tag_161\n      jump\t// in\n    tag_368:\n        /* \"#utility.yul\":20265:20273   */\n      dup2\n        /* \"#utility.yul\":20261:20305   */\n      add\n        /* \"#utility.yul\":20458:20460   */\n      0x20\n        /* \"#utility.yul\":20446:20456   */\n      dup6\n        /* \"#utility.yul\":20443:20461   */\n      lt\n        /* \"#utility.yul\":20440:20489   */\n      iszero\n      tag_369\n      jumpi\n        /* \"#utility.yul\":20479:20487   */\n      dup2\n        /* \"#utility.yul\":20464:20487   */\n      swap1\n      pop\n        /* \"#utility.yul\":20440:20489   */\n    tag_369:\n        /* \"#utility.yul\":20502:20582   */\n      tag_370\n        /* \"#utility.yul\":20558:20580   */\n      tag_371\n        /* \"#utility.yul\":20576:20579   */\n      dup6\n        /* \"#utility.yul\":20558:20580   */\n      tag_161\n      jump\t// in\n    tag_371:\n        /* \"#utility.yul\":20548:20556   */\n      dup4\n        /* \"#utility.yul\":20544:20581   */\n      add\n        /* \"#utility.yul\":20531:20542   */\n      dup3\n        /* \"#utility.yul\":20502:20582   */\n      tag_170\n      jump\t// in\n    tag_370:\n        /* \"#utility.yul\":20161:20592   */\n      pop\n      pop\n        /* \"#utility.yul\":20146:20592   */\n    tag_366:\n        /* \"#utility.yul\":20056:20599   */\n      pop\n      pop\n      pop\n      jump\t// out\n        /* \"#utility.yul\":20605:20722   */\n    tag_172:\n        /* \"#utility.yul\":20659:20667   */\n      0x00\n        /* \"#utility.yul\":20709:20714   */\n      dup3\n        /* \"#utility.yul\":20703:20707   */\n      dup3\n        /* \"#utility.yul\":20699:20715   */\n      shr\n        /* \"#utility.yul\":20678:20715   */\n      swap1\n      pop\n        /* \"#utility.yul\":20605:20722   */\n      swap3\n      swap2\n      pop\n      pop\n      jump\t// out\n        /* \"#utility.yul\":20728:20897   */\n    tag_173:\n        /* \"#utility.yul\":20772:20778   */\n      0x00\n        /* \"#utility.yul\":20805:20856   */\n      tag_374\n        /* \"#utility.yul\":20853:20854   */\n      0x00\n        /* \"#utility.yul\":20849:20855   */\n      not\n        /* \"#utility.yul\":20841:20846   */\n      dup5\n        /* \"#utility.yul\":20838:20839   */\n      0x08\n        /* \"#utility.yul\":20834:20847   */\n      mul\n        /* \"#utility.yul\":20805:20856   */\n      tag_172\n      jump\t// in\n    tag_374:\n        /* \"#utility.yul\":20801:20857   */\n      not\n        /* \"#utility.yul\":20886:20890   */\n      dup1\n        /* \"#utility.yul\":20880:20884   */\n      dup4\n        /* \"#utility.yul\":20876:20891   */\n      and\n        /* \"#utility.yul\":20866:20891   */\n      swap2\n      pop\n        /* \"#utility.yul\":20779:20897   */\n      pop\n        /* \"#utility.yul\":20728:20897   */\n      swap3\n      swap2\n      pop\n      pop\n      jump\t// out\n        /* \"#utility.yul\":20902:21197   */\n    tag_174:\n        /* \"#utility.yul\":20978:20982   */\n      0x00\n        /* \"#utility.yul\":21124:21153   */\n      tag_376\n        /* \"#utility.yul\":21149:21152   */\n      dup4\n        /* \"#utility.yul\":21143:21147   */\n      dup4\n        /* \"#utility.yul\":21124:21153   */\n      tag_173\n      jump\t// in\n    tag_376:\n        /* \"#utility.yul\":21116:21153   */\n      swap2\n      pop\n        /* \"#utility.yul\":21186:21189   */\n      dup3\n        /* \"#utility.yul\":21183:21184   */\n      0x02\n        /* \"#utility.yul\":21179:21190   */\n      mul\n        /* \"#utility.yul\":21173:21177   */\n      dup3\n        /* \"#utility.yul\":21170:21191   */\n      or\n        /* \"#utility.yul\":21162:21191   */\n      swap1\n      pop\n        /* \"#utility.yul\":20902:21197   */\n      swap3\n      swap2\n      pop\n      pop\n      jump\t// out\n        /* \"#utility.yul\":21202:22597   */\n    tag_104:\n        /* \"#utility.yul\":21319:21356   */\n      tag_378\n        /* \"#utility.yul\":21352:21355   */\n      dup3\n        /* \"#utility.yul\":21319:21356   */\n      tag_121\n      jump\t// in\n    tag_378:\n        /* \"#utility.yul\":21421:21439   */\n      0xffffffffffffffff\n        /* \"#utility.yul\":21413:21419   */\n      dup2\n        /* \"#utility.yul\":21410:21440   */\n      gt\n        /* \"#utility.yul\":21407:21463   */\n      iszero\n      tag_379\n      jumpi\n        /* \"#utility.yul\":21443:21461   */\n      tag_380\n      tag_35\n      jump\t// in\n    tag_380:\n        /* \"#utility.yul\":21407:21463   */\n    tag_379:\n        /* \"#utility.yul\":21487:21525   */\n      tag_381\n        /* \"#utility.yul\":21519:21523   */\n      dup3\n        /* \"#utility.yul\":21513:21524   */\n      sload\n        /* \"#utility.yul\":21487:21525   */\n      tag_47\n      jump\t// in\n    tag_381:\n        /* \"#utility.yul\":21572:21639   */\n      tag_382\n        /* \"#utility.yul\":21632:21638   */\n      dup3\n        /* \"#utility.yul\":21624:21630   */\n      dup3\n        /* \"#utility.yul\":21618:21622   */\n      dup6\n        /* \"#utility.yul\":21572:21639   */\n      tag_171\n      jump\t// in\n    tag_382:\n        /* \"#utility.yul\":21666:21667   */\n      0x00\n        /* \"#utility.yul\":21690:21694   */\n      0x20\n        /* \"#utility.yul\":21677:21694   */\n      swap1\n      pop\n        /* \"#utility.yul\":21722:21724   */\n      0x1f\n        /* \"#utility.yul\":21714:21720   */\n      dup4\n        /* \"#utility.yul\":21711:21725   */\n      gt\n        /* \"#utility.yul\":21739:21740   */\n      0x01\n        /* \"#utility.yul\":21734:22352   */\n      dup2\n      eq\n      tag_384\n      jumpi\n        /* \"#utility.yul\":22396:22397   */\n      0x00\n        /* \"#utility.yul\":22413:22419   */\n      dup5\n        /* \"#utility.yul\":22410:22487   */\n      iszero\n      tag_385\n      jumpi\n        /* \"#utility.yul\":22462:22471   */\n      dup3\n        /* \"#utility.yul\":22457:22460   */\n      dup8\n        /* \"#utility.yul\":22453:22472   */\n      add\n        /* \"#utility.yul\":22447:22473   */\n      mload\n        /* \"#utility.yul\":22438:22473   */\n      swap1\n      pop\n        /* \"#utility.yul\":22410:22487   */\n    tag_385:\n        /* \"#utility.yul\":22513:22580   */\n      tag_386\n        /* \"#utility.yul\":22573:22579   */\n      dup6\n        /* \"#utility.yul\":22566:22571   */\n      dup3\n        /* \"#utility.yul\":22513:22580   */\n      tag_174\n      jump\t// in\n    tag_386:\n        /* \"#utility.yul\":22507:22511   */\n      dup7\n        /* \"#utility.yul\":22500:22581   */\n      sstore\n        /* \"#utility.yul\":22369:22591   */\n      pop\n        /* \"#utility.yul\":21704:22591   */\n      jump(tag_383)\n        /* \"#utility.yul\":21734:22352   */\n    tag_384:\n        /* \"#utility.yul\":21786:21790   */\n      0x1f\n        /* \"#utility.yul\":21782:21791   */\n      not\n        /* \"#utility.yul\":21774:21780   */\n      dup5\n        /* \"#utility.yul\":21770:21792   */\n      and\n        /* \"#utility.yul\":21820:21857   */\n      tag_387\n        /* \"#utility.yul\":21852:21856   */\n      dup7\n        /* \"#utility.yul\":21820:21857   */\n      tag_160\n      jump\t// in\n    tag_387:\n        /* \"#utility.yul\":21879:21880   */\n      0x00\n        /* \"#utility.yul\":21893:22101   */\n    tag_388:\n        /* \"#utility.yul\":21907:21914   */\n      dup3\n        /* \"#utility.yul\":21904:21905   */\n      dup2\n        /* \"#utility.yul\":21901:21915   */\n      lt\n        /* \"#utility.yul\":21893:22101   */\n      iszero\n      tag_390\n      jumpi\n        /* \"#utility.yul\":21986:21995   */\n      dup5\n        /* \"#utility.yul\":21981:21984   */\n      dup10\n        /* \"#utility.yul\":21977:21996   */\n      add\n        /* \"#utility.yul\":21971:21997   */\n      mload\n        /* \"#utility.yul\":21963:21969   */\n      dup3\n        /* \"#utility.yul\":21956:21998   */\n      sstore\n        /* \"#utility.yul\":22037:22038   */\n      0x01\n        /* \"#utility.yul\":22029:22035   */\n      dup3\n        /* \"#utility.yul\":22025:22039   */\n      add\n        /* \"#utility.yul\":22015:22039   */\n      swap2\n      pop\n        /* \"#utility.yul\":22084:22086   */\n      0x20\n        /* \"#utility.yul\":22073:22082   */\n      dup6\n        /* \"#utility.yul\":22069:22087   */\n      add\n        /* \"#utility.yul\":22056:22087   */\n      swap5\n      pop\n        /* \"#utility.yul\":21930:21934   */\n      0x20\n        /* \"#utility.yul\":21927:21928   */\n      dup2\n        /* \"#utility.yul\":21923:21935   */\n      add\n        /* \"#utility.yul\":21918:21935   */\n      swap1\n      pop\n        /* \"#utility.yul\":21893:22101   */\n      jump(tag_388)\n    tag_390:\n        /* \"#utility.yul\":22129:22135   */\n      dup7\n        /* \"#utility.yul\":22120:22127   */\n      dup4\n        /* \"#utility.yul\":22117:22136   */\n      lt\n        /* \"#utility.yul\":22114:22293   */\n      iszero\n      tag_391\n      jumpi\n        /* \"#utility.yul\":22187:22196   */\n      dup5\n        /* \"#utility.yul\":22182:22185   */\n      dup10\n        /* \"#utility.yul\":22178:22197   */\n      add\n        /* \"#utility.yul\":22172:22198   */\n      mload\n        /* \"#utility.yul\":22230:22278   */\n      tag_392\n        /* \"#utility.yul\":22272:22276   */\n      0x1f\n        /* \"#utility.yul\":22264:22270   */\n      dup10\n        /* \"#utility.yul\":22260:22277   */\n      and\n        /* \"#utility.yul\":22249:22258   */\n      dup3\n        /* \"#utility.yul\":22230:22278   */\n      tag_173\n      jump\t// in\n    tag_392:\n        /* \"#utility.yul\":22222:22228   */\n      dup4\n        /* \"#utility.yul\":22215:22279   */\n      sstore\n        /* \"#utility.yul\":22137:22293   */\n      pop\n        /* \"#utility.yul\":22114:22293   */\n    tag_391:\n        /* \"#utility.yul\":22339:22340   */\n      0x01\n        /* \"#utility.yul\":22335:22336   */\n      0x02\n        /* \"#utility.yul\":22327:22333   */\n      dup9\n        /* \"#utility.yul\":22323:22337   */\n      mul\n        /* \"#utility.yul\":22319:22341   */\n      add\n        /* \"#utility.yul\":22313:22317   */\n      dup9\n        /* \"#utility.yul\":22306:22342   */\n      sstore\n        /* \"#utility.yul\":21741:22352   */\n      pop\n      pop\n      pop\n        /* \"#utility.yul\":21704:22591   */\n    tag_383:\n      pop\n        /* \"#utility.yul\":21294:22597   */\n      pop\n      pop\n      pop\n        /* \"#utility.yul\":21202:22597   */\n      pop\n      pop\n      jump\t// out\n        /* \"#utility.yul\":22603:22980   */\n    tag_175:\n        /* \"#utility.yul\":22691:22694   */\n      0x00\n        /* \"#utility.yul\":22719:22758   */\n      tag_394\n        /* \"#utility.yul\":22752:22757   */\n      dup3\n        /* \"#utility.yul\":22719:22758   */\n      tag_121\n      jump\t// in\n    tag_394:\n        /* \"#utility.yul\":22774:22845   */\n      tag_395\n        /* \"#utility.yul\":22838:22844   */\n      dup2\n        /* \"#utility.yul\":22833:22836   */\n      dup6\n        /* \"#utility.yul\":22774:22845   */\n      tag_144\n      jump\t// in\n    tag_395:\n        /* \"#utility.yul\":22767:22845   */\n      swap4\n      pop\n        /* \"#utility.yul\":22854:22919   */\n      tag_396\n        /* \"#utility.yul\":22912:22918   */\n      dup2\n        /* \"#utility.yul\":22907:22910   */\n      dup6\n        /* \"#utility.yul\":22900:22904   */\n      0x20\n        /* \"#utility.yul\":22893:22898   */\n      dup7\n        /* \"#utility.yul\":22889:22905   */\n      add\n        /* \"#utility.yul\":22854:22919   */\n      tag_123\n      jump\t// in\n    tag_396:\n        /* \"#utility.yul\":22944:22973   */\n      tag_397\n        /* \"#utility.yul\":22966:22972   */\n      dup2\n        /* \"#utility.yul\":22944:22973   */\n      tag_124\n      jump\t// in\n    tag_397:\n        /* \"#utility.yul\":22939:22942   */\n      dup5\n        /* \"#utility.yul\":22935:22974   */\n      add\n        /* \"#utility.yul\":22928:22974   */\n      swap2\n      pop\n        /* \"#utility.yul\":22695:22980   */\n      pop\n        /* \"#utility.yul\":22603:22980   */\n      swap3\n      swap2\n      pop\n      pop\n      jump\t// out\n        /* \"#utility.yul\":22986:23104   */\n    tag_176:\n        /* \"#utility.yul\":23073:23097   */\n      tag_399\n        /* \"#utility.yul\":23091:23096   */\n      dup2\n        /* \"#utility.yul\":23073:23097   */\n      tag_126\n      jump\t// in\n    tag_399:\n        /* \"#utility.yul\":23068:23071   */\n      dup3\n        /* \"#utility.yul\":23061:23098   */\n      mstore\n        /* \"#utility.yul\":22986:23104   */\n      pop\n      pop\n      jump\t// out\n        /* \"#utility.yul\":23110:23734   */\n    tag_108:\n        /* \"#utility.yul\":23299:23303   */\n      0x00\n        /* \"#utility.yul\":23337:23339   */\n      0x60\n        /* \"#utility.yul\":23326:23335   */\n      dup3\n        /* \"#utility.yul\":23322:23340   */\n      add\n        /* \"#utility.yul\":23314:23340   */\n      swap1\n      pop\n        /* \"#utility.yul\":23386:23395   */\n      dup2\n        /* \"#utility.yul\":23380:23384   */\n      dup2\n        /* \"#utility.yul\":23376:23396   */\n      sub\n        /* \"#utility.yul\":23372:23373   */\n      0x00\n        /* \"#utility.yul\":23361:23370   */\n      dup4\n        /* \"#utility.yul\":23357:23374   */\n      add\n        /* \"#utility.yul\":23350:23397   */\n      mstore\n        /* \"#utility.yul\":23414:23492   */\n      tag_401\n        /* \"#utility.yul\":23487:23491   */\n      dup2\n        /* \"#utility.yul\":23478:23484   */\n      dup7\n        /* \"#utility.yul\":23414:23492   */\n      tag_175\n      jump\t// in\n    tag_401:\n        /* \"#utility.yul\":23406:23492   */\n      swap1\n      pop\n        /* \"#utility.yul\":23539:23548   */\n      dup2\n        /* \"#utility.yul\":23533:23537   */\n      dup2\n        /* \"#utility.yul\":23529:23549   */\n      sub\n        /* \"#utility.yul\":23524:23526   */\n      0x20\n        /* \"#utility.yul\":23513:23522   */\n      dup4\n        /* \"#utility.yul\":23509:23527   */\n      add\n        /* \"#utility.yul\":23502:23550   */\n      mstore\n        /* \"#utility.yul\":23567:23645   */\n      tag_402\n        /* \"#utility.yul\":23640:23644   */\n      dup2\n        /* \"#utility.yul\":23631:23637   */\n      dup6\n        /* \"#utility.yul\":23567:23645   */\n      tag_175\n      jump\t// in\n    tag_402:\n        /* \"#utility.yul\":23559:23645   */\n      swap1\n      pop\n        /* \"#utility.yul\":23655:23727   */\n      tag_403\n        /* \"#utility.yul\":23723:23725   */\n      0x40\n        /* \"#utility.yul\":23712:23721   */\n      dup4\n        /* \"#utility.yul\":23708:23726   */\n      add\n        /* \"#utility.yul\":23699:23705   */\n      dup5\n        /* \"#utility.yul\":23655:23727   */\n      tag_176\n      jump\t// in\n    tag_403:\n        /* \"#utility.yul\":23110:23734   */\n      swap5\n      swap4\n      pop\n      pop\n      pop\n      pop\n      jump\t// out\n\n    auxdata: 0xa26469706673582212207fe7bd80aee5e8d79c990b70a3a29d022ef129ac7a54a9d8912d83c2ae82cead64736f6c634300081e0033\n}\n",
				"bytecode": {
					"linkReferences": {},
					"object": "6080604052348015600e575f5ffd5b506117928061001c5f395ff3fe608060405234801561000f575f5ffd5b5060043610610055575f3560e01c80632cfdcc6b14610059578063a54ff9ac14610089578063ae362ff9146100a5578063e2fc2691146100d5578063e8a4a1eb146100f1575b5f5ffd5b610073600480360381019061006e9190610c0f565b61010d565b6040516100809190610e3c565b60405180910390f35b6100a3600480360381019061009e9190610e86565b610444565b005b6100bf60048036038101906100ba9190610e86565b610613565b6040516100cc9190610f58565b60405180910390f35b6100ef60048036038101906100ea9190610e86565b610815565b005b61010b600480360381019061010691906110a4565b6109e5565b005b60605f5f5f8473ffffffffffffffffffffffffffffffffffffffff1673ffffffffffffffffffffffffffffffffffffffff1681526020019081526020015f2080548060200260200160405190810160405280929190818152602001828054801561019457602002820191905f5260205f20905b815481526020019060010190808311610180575b505050505090505f815167ffffffffffffffff8111156101b7576101b6610f80565b5b6040519080825280602002602001820160405280156101f057816020015b6101dd610b6b565b8152602001906001900390816101d55790505b5090505f5f90505b82518110156104395760015f84838151811061021757610216611148565b5b602002602001015181526020019081526020015f206040518060e00160405290815f8201548152602001600182018054610250906111a2565b80601f016020809104026020016040519081016040528092919081815260200182805461027c906111a2565b80156102c75780601f1061029e576101008083540402835291602001916102c7565b820191905f5260205f20905b8154815290600101906020018083116102aa57829003601f168201915b505050505081526020016002820180546102e0906111a2565b80601f016020809104026020016040519081016040528092919081815260200182805461030c906111a2565b80156103575780601f1061032e57610100808354040283529160200191610357565b820191905f5260205f20905b81548152906001019060200180831161033a57829003601f168201915b50505050508152602001600382018054610370906111a2565b80601f016020809104026020016040519081016040528092919081815260200182805461039c906111a2565b80156103e75780601f106103be576101008083540402835291602001916103e7565b820191905f5260205f20905b8154815290600101906020018083116103ca57829003601f168201915b50505050508152602001600482015481526020016005820154815260200160068201548152505082828151811061042157610420611148565b5b602002602001018190525080806001019150506101f8565b508092505050919050565b5f5f1b60015f8381526020019081526020015f205f01540361049b576040517f08c379a00000000000000000000000000000000000000000000000000000000081526004016104929061122c565b60405180910390fd5b60025f8281526020019081526020015f205f3373ffffffffffffffffffffffffffffffffffffffff1673ffffffffffffffffffffffffffffffffffffffff1681526020019081526020015f205f9054906101000a900460ff1615610534576040517f08c379a000000000000000000000000000000000000000000000000000000000815260040161052b906112ba565b60405180910390fd5b60015f8281526020019081526020015f206005015f81548092919061055890611305565b9190505550600160025f8381526020019081526020015f205f3373ffffffffffffffffffffffffffffffffffffffff1673ffffffffffffffffffffffffffffffffffffffff1681526020019081526020015f205f6101000a81548160ff0219169083151502179055503373ffffffffffffffffffffffffffffffffffffffff16817fa7e4c5082f867ea22a45a95c2043209b9ce83d70ca31ccb947e67592ea14c4b15f6040516106089190611366565b60405180910390a350565b61061b610b6b565b60015f8381526020019081526020015f206040518060e00160405290815f8201548152602001600182018054610650906111a2565b80601f016020809104026020016040519081016040528092919081815260200182805461067c906111a2565b80156106c75780601f1061069e576101008083540402835291602001916106c7565b820191905f5260205f20905b8154815290600101906020018083116106aa57829003601f168201915b505050505081526020016002820180546106e0906111a2565b80601f016020809104026020016040519081016040528092919081815260200182805461070c906111a2565b80156107575780601f1061072e57610100808354040283529160200191610757565b820191905f5260205f20905b81548152906001019060200180831161073a57829003601f168201915b50505050508152602001600382018054610770906111a2565b80601f016020809104026020016040519081016040528092919081815260200182805461079c906111a2565b80156107e75780601f106107be576101008083540402835291602001916107e7565b820191905f5260205f20905b8154815290600101906020018083116107ca57829003601f168201915b5050505050815260200160048201548152602001600582015481526020016006820154815250509050919050565b5f5f1b60015f8381526020019081526020015f205f01540361086c576040517f08c379a00000000000000000000000000000000000000000000000000000000081526004016108639061122c565b60405180910390fd5b60025f8281526020019081526020015f205f3373ffffffffffffffffffffffffffffffffffffffff1673ffffffffffffffffffffffffffffffffffffffff1681526020019081526020015f205f9054906101000a900460ff1615610905576040517f08c379a00000000000000000000000000000000000000000000000000000000081526004016108fc906112ba565b60405180910390fd5b60015f8281526020019081526020015f206004015f81548092919061092990611305565b9190505550600160025f8381526020019081526020015f205f3373ffffffffffffffffffffffffffffffffffffffff1673ffffffffffffffffffffffffffffffffffffffff1681526020019081526020015f205f6101000a81548160ff0219169083151502179055503373ffffffffffffffffffffffffffffffffffffffff16817fa7e4c5082f867ea22a45a95c2043209b9ce83d70ca31ccb947e67592ea14c4b160016040516109da9190611366565b60405180910390a350565b5f334284846040516020016109fd949392919061141e565b6040516020818303038152906040528051906020012090505f6040518060e001604052808381526020018681526020018581526020018481526020015f81526020015f81526020014281525090505f5f3373ffffffffffffffffffffffffffffffffffffffff1673ffffffffffffffffffffffffffffffffffffffff1681526020019081526020015f2082908060018154018082558091505060019003905f5260205f20015f90919091909150558060015f8481526020019081526020015f205f820151815f01556020820151816001019081610ada9190611603565b506040820151816002019081610af09190611603565b506060820151816003019081610b069190611603565b506080820151816004015560a0820151816005015560c08201518160060155905050817f17f34748f078a06d3c7c034ef1cdf60a8b2baf4592df676d3a2ae61596619f98858742604051610b5c93929190611719565b60405180910390a25050505050565b6040518060e001604052805f81526020016060815260200160608152602001606081526020015f81526020015f81526020015f81525090565b5f604051905090565b5f5ffd5b5f5ffd5b5f73ffffffffffffffffffffffffffffffffffffffff82169050919050565b5f610bde82610bb5565b9050919050565b610bee81610bd4565b8114610bf8575f5ffd5b50565b5f81359050610c0981610be5565b92915050565b5f60208284031215610c2457610c23610bad565b5b5f610c3184828501610bfb565b91505092915050565b5f81519050919050565b5f82825260208201905092915050565b5f819050602082019050919050565b5f819050919050565b610c7581610c63565b82525050565b5f81519050919050565b5f82825260208201905092915050565b8281835e5f83830152505050565b5f601f19601f8301169050919050565b5f610cbd82610c7b565b610cc78185610c85565b9350610cd7818560208601610c95565b610ce081610ca3565b840191505092915050565b5f819050919050565b610cfd81610ceb565b82525050565b5f60e083015f830151610d185f860182610c6c565b5060208301518482036020860152610d308282610cb3565b91505060408301518482036040860152610d4a8282610cb3565b91505060608301518482036060860152610d648282610cb3565b9150506080830151610d796080860182610cf4565b5060a0830151610d8c60a0860182610cf4565b5060c0830151610d9f60c0860182610cf4565b508091505092915050565b5f610db58383610d03565b905092915050565b5f602082019050919050565b5f610dd382610c3a565b610ddd8185610c44565b935083602082028501610def85610c54565b805f5b85811015610e2a5784840389528151610e0b8582610daa565b9450610e1683610dbd565b925060208a01995050600181019050610df2565b50829750879550505050505092915050565b5f6020820190508181035f830152610e548184610dc9565b905092915050565b610e6581610c63565b8114610e6f575f5ffd5b50565b5f81359050610e8081610e5c565b92915050565b5f60208284031215610e9b57610e9a610bad565b5b5f610ea884828501610e72565b91505092915050565b5f60e083015f830151610ec65f860182610c6c565b5060208301518482036020860152610ede8282610cb3565b91505060408301518482036040860152610ef88282610cb3565b91505060608301518482036060860152610f128282610cb3565b9150506080830151610f276080860182610cf4565b5060a0830151610f3a60a0860182610cf4565b5060c0830151610f4d60c0860182610cf4565b508091505092915050565b5f6020820190508181035f830152610f708184610eb1565b905092915050565b5f5ffd5b5f5ffd5b7f4e487b71000000000000000000000000000000000000000000000000000000005f52604160045260245ffd5b610fb682610ca3565b810181811067ffffffffffffffff82111715610fd557610fd4610f80565b5b80604052505050565b5f610fe7610ba4565b9050610ff38282610fad565b919050565b5f67ffffffffffffffff82111561101257611011610f80565b5b61101b82610ca3565b9050602081019050919050565b828183375f83830152505050565b5f61104861104384610ff8565b610fde565b90508281526020810184848401111561106457611063610f7c565b5b61106f848285611028565b509392505050565b5f82601f83011261108b5761108a610f78565b5b813561109b848260208601611036565b91505092915050565b5f5f5f606084860312156110bb576110ba610bad565b5b5f84013567ffffffffffffffff8111156110d8576110d7610bb1565b5b6110e486828701611077565b935050602084013567ffffffffffffffff81111561110557611104610bb1565b5b61111186828701611077565b925050604084013567ffffffffffffffff81111561113257611131610bb1565b5b61113e86828701611077565b9150509250925092565b7f4e487b71000000000000000000000000000000000000000000000000000000005f52603260045260245ffd5b7f4e487b71000000000000000000000000000000000000000000000000000000005f52602260045260245ffd5b5f60028204905060018216806111b957607f821691505b6020821081036111cc576111cb611175565b5b50919050565b5f82825260208201905092915050565b7f506f737420646f6573206e6f742065786973742e0000000000000000000000005f82015250565b5f6112166014836111d2565b9150611221826111e2565b602082019050919050565b5f6020820190508181035f8301526112438161120a565b9050919050565b7f596f75206861766520616c726561647920766f746564206f6e207468697320705f8201527f6f73742e00000000000000000000000000000000000000000000000000000000602082015250565b5f6112a46024836111d2565b91506112af8261124a565b604082019050919050565b5f6020820190508181035f8301526112d181611298565b9050919050565b7f4e487b71000000000000000000000000000000000000000000000000000000005f52601160045260245ffd5b5f61130f82610ceb565b91507fffffffffffffffffffffffffffffffffffffffffffffffffffffffffffffffff8203611341576113406112d8565b5b600182019050919050565b5f8115159050919050565b6113608161134c565b82525050565b5f6020820190506113795f830184611357565b92915050565b5f8160601b9050919050565b5f6113958261137f565b9050919050565b5f6113a68261138b565b9050919050565b6113be6113b982610bd4565b61139c565b82525050565b5f819050919050565b6113de6113d982610ceb565b6113c4565b82525050565b5f81905092915050565b5f6113f882610c7b565b61140281856113e4565b9350611412818560208601610c95565b80840191505092915050565b5f61142982876113ad565b60148201915061143982866113cd565b60208201915061144982856113ee565b915061145582846113ee565b915081905095945050505050565b5f819050815f5260205f209050919050565b5f6020601f8301049050919050565b5f82821b905092915050565b5f600883026114bf7fffffffffffffffffffffffffffffffffffffffffffffffffffffffffffffffff82611484565b6114c98683611484565b95508019841693508086168417925050509392505050565b5f819050919050565b5f6115046114ff6114fa84610ceb565b6114e1565b610ceb565b9050919050565b5f819050919050565b61151d836114ea565b6115316115298261150b565b848454611490565b825550505050565b5f5f905090565b611548611539565b611553818484611514565b505050565b5b818110156115765761156b5f82611540565b600181019050611559565b5050565b601f8211156115bb5761158c81611463565b61159584611475565b810160208510156115a4578190505b6115b86115b085611475565b830182611558565b50505b505050565b5f82821c905092915050565b5f6115db5f19846008026115c0565b1980831691505092915050565b5f6115f383836115cc565b9150826002028217905092915050565b61160c82610c7b565b67ffffffffffffffff81111561162557611624610f80565b5b61162f82546111a2565b61163a82828561157a565b5f60209050601f83116001811461166b575f8415611659578287015190505b61166385826115e8565b8655506116ca565b601f19841661167986611463565b5f5b828110156116a05784890151825560018201915060208501945060208101905061167b565b868310156116bd57848901516116b9601f8916826115cc565b8355505b6001600288020188555050505b505050505050565b5f6116dc82610c7b565b6116e681856111d2565b93506116f6818560208601610c95565b6116ff81610ca3565b840191505092915050565b61171381610ceb565b82525050565b5f6060820190508181035f83015261173181866116d2565b9050818103602083015261174581856116d2565b9050611754604083018461170a565b94935050505056fea26469706673582212207fe7bd80aee5e8d79c990b70a3a29d022ef129ac7a54a9d8912d83c2ae82cead64736f6c634300081e0033",
					"opcodes": "PUSH1 0x80 PUSH1 0x40 MSTORE CALLVALUE DUP1 ISZERO PUSH1 0xE JUMPI PUSH0 PUSH0 REVERT JUMPDEST POP PUSH2 0x1792 DUP1 PUSH2 0x1C PUSH0 CODECOPY PUSH0 RETURN INVALID PUSH1 0x80 PUSH1 0x40 MSTORE CALLVALUE DUP1 ISZERO PUSH2 0xF JUMPI PUSH0 PUSH0 REVERT JUMPDEST POP PUSH1 0x4 CALLDATASIZE LT PUSH2 0x55 JUMPI PUSH0 CALLDATALOAD PUSH1 0xE0 SHR DUP1 PUSH4 0x2CFDCC6B EQ PUSH2 0x59 JUMPI DUP1 PUSH4 0xA54FF9AC EQ PUSH2 0x89 JUMPI DUP1 PUSH4 0xAE362FF9 EQ PUSH2 0xA5 JUMPI DUP1 PUSH4 0xE2FC2691 EQ PUSH2 0xD5 JUMPI DUP1 PUSH4 0xE8A4A1EB EQ PUSH2 0xF1 JUMPI JUMPDEST PUSH0 PUSH0 REVERT JUMPDEST PUSH2 0x73 PUSH1 0x4 DUP1 CALLDATASIZE SUB DUP2 ADD SWAP1 PUSH2 0x6E SWAP2 SWAP1 PUSH2 0xC0F JUMP JUMPDEST PUSH2 0x10D JUMP JUMPDEST PUSH1 0x40 MLOAD PUSH2 0x80 SWAP2 SWAP1 PUSH2 0xE3C JUMP JUMPDEST PUSH1 0x40 MLOAD DUP1 SWAP2 SUB SWAP1 RETURN JUMPDEST PUSH2 0xA3 PUSH1 0x4 DUP1 CALLDATASIZE SUB DUP2 ADD SWAP1 PUSH2 0x9E SWAP2 SWAP1 PUSH2 0xE86 JUMP JUMPDEST PUSH2 0x444 JUMP JUMPDEST STOP JUMPDEST PUSH2 0xBF PUSH1 0x4 DUP1 CALLDATASIZE SUB DUP2 ADD SWAP1 PUSH2 0xBA SWAP2 SWAP1 PUSH2 0xE86 JUMP JUMPDEST PUSH2 0x613 JUMP JUMPDEST PUSH1 0x40 MLOAD PUSH2 0xCC SWAP2 SWAP1 PUSH2 0xF58 JUMP JUMPDEST PUSH1 0x40 MLOAD DUP1 SWAP2 SUB SWAP1 RETURN JUMPDEST PUSH2 0xEF PUSH1 0x4 DUP1 CALLDATASIZE SUB DUP2 ADD SWAP1 PUSH2 0xEA SWAP2 SWAP1 PUSH2 0xE86 JUMP JUMPDEST PUSH2 0x815 JUMP JUMPDEST STOP JUMPDEST PUSH2 0x10B PUSH1 0x4 DUP1 CALLDATASIZE SUB DUP2 ADD SWAP1 PUSH2 0x106 SWAP2 SWAP1 PUSH2 0x10A4 JUMP JUMPDEST PUSH2 0x9E5 JUMP JUMPDEST STOP JUMPDEST PUSH1 0x60 PUSH0 PUSH0 PUSH0 DUP5 PUSH20 0xFFFFFFFFFFFFFFFFFFFFFFFFFFFFFFFFFFFFFFFF AND PUSH20 0xFFFFFFFFFFFFFFFFFFFFFFFFFFFFFFFFFFFFFFFF AND DUP2 MSTORE PUSH1 0x20 ADD SWAP1 DUP2 MSTORE PUSH1 0x20 ADD PUSH0 KECCAK256 DUP1 SLOAD DUP1 PUSH1 0x20 MUL PUSH1 0x20 ADD PUSH1 0x40 MLOAD SWAP1 DUP2 ADD PUSH1 0x40 MSTORE DUP1 SWAP3 SWAP2 SWAP1 DUP2 DUP2 MSTORE PUSH1 0x20 ADD DUP3 DUP1 SLOAD DUP1 ISZERO PUSH2 0x194 JUMPI PUSH1 0x20 MUL DUP3 ADD SWAP2 SWAP1 PUSH0 MSTORE PUSH1 0x20 PUSH0 KECCAK256 SWAP1 JUMPDEST DUP2 SLOAD DUP2 MSTORE PUSH1 0x20 ADD SWAP1 PUSH1 0x1 ADD SWAP1 DUP1 DUP4 GT PUSH2 0x180 JUMPI JUMPDEST POP POP POP POP POP SWAP1 POP PUSH0 DUP2 MLOAD PUSH8 0xFFFFFFFFFFFFFFFF DUP2 GT ISZERO PUSH2 0x1B7 JUMPI PUSH2 0x1B6 PUSH2 0xF80 JUMP JUMPDEST JUMPDEST PUSH1 0x40 MLOAD SWAP1 DUP1 DUP3 MSTORE DUP1 PUSH1 0x20 MUL PUSH1 0x20 ADD DUP3 ADD PUSH1 0x40 MSTORE DUP1 ISZERO PUSH2 0x1F0 JUMPI DUP2 PUSH1 0x20 ADD JUMPDEST PUSH2 0x1DD PUSH2 0xB6B JUMP JUMPDEST DUP2 MSTORE PUSH1 0x20 ADD SWAP1 PUSH1 0x1 SWAP1 SUB SWAP1 DUP2 PUSH2 0x1D5 JUMPI SWAP1 POP JUMPDEST POP SWAP1 POP PUSH0 PUSH0 SWAP1 POP JUMPDEST DUP3 MLOAD DUP2 LT ISZERO PUSH2 0x439 JUMPI PUSH1 0x1 PUSH0 DUP5 DUP4 DUP2 MLOAD DUP2 LT PUSH2 0x217 JUMPI PUSH2 0x216 PUSH2 0x1148 JUMP JUMPDEST JUMPDEST PUSH1 0x20 MUL PUSH1 0x20 ADD ADD MLOAD DUP2 MSTORE PUSH1 0x20 ADD SWAP1 DUP2 MSTORE PUSH1 0x20 ADD PUSH0 KECCAK256 PUSH1 0x40 MLOAD DUP1 PUSH1 0xE0 ADD PUSH1 0x40 MSTORE SWAP1 DUP2 PUSH0 DUP3 ADD SLOAD DUP2 MSTORE PUSH1 0x20 ADD PUSH1 0x1 DUP3 ADD DUP1 SLOAD PUSH2 0x250 SWAP1 PUSH2 0x11A2 JUMP JUMPDEST DUP1 PUSH1 0x1F ADD PUSH1 0x20 DUP1 SWAP2 DIV MUL PUSH1 0x20 ADD PUSH1 0x40 MLOAD SWAP1 DUP2 ADD PUSH1 0x40 MSTORE DUP1 SWAP3 SWAP2 SWAP1 DUP2 DUP2 MSTORE PUSH1 0x20 ADD DUP3 DUP1 SLOAD PUSH2 0x27C SWAP1 PUSH2 0x11A2 JUMP JUMPDEST DUP1 ISZERO PUSH2 0x2C7 JUMPI DUP1 PUSH1 0x1F LT PUSH2 0x29E JUMPI PUSH2 0x100 DUP1 DUP4 SLOAD DIV MUL DUP4 MSTORE SWAP2 PUSH1 0x20 ADD SWAP2 PUSH2 0x2C7 JUMP JUMPDEST DUP3 ADD SWAP2 SWAP1 PUSH0 MSTORE PUSH1 0x20 PUSH0 KECCAK256 SWAP1 JUMPDEST DUP2 SLOAD DUP2 MSTORE SWAP1 PUSH1 0x1 ADD SWAP1 PUSH1 0x20 ADD DUP1 DUP4 GT PUSH2 0x2AA JUMPI DUP3 SWAP1 SUB PUSH1 0x1F AND DUP3 ADD SWAP2 JUMPDEST POP POP POP POP POP DUP2 MSTORE PUSH1 0x20 ADD PUSH1 0x2 DUP3 ADD DUP1 SLOAD PUSH2 0x2E0 SWAP1 PUSH2 0x11A2 JUMP JUMPDEST DUP1 PUSH1 0x1F ADD PUSH1 0x20 DUP1 SWAP2 DIV MUL PUSH1 0x20 ADD PUSH1 0x40 MLOAD SWAP1 DUP2 ADD PUSH1 0x40 MSTORE DUP1 SWAP3 SWAP2 SWAP1 DUP2 DUP2 MSTORE PUSH1 0x20 ADD DUP3 DUP1 SLOAD PUSH2 0x30C SWAP1 PUSH2 0x11A2 JUMP JUMPDEST DUP1 ISZERO PUSH2 0x357 JUMPI DUP1 PUSH1 0x1F LT PUSH2 0x32E JUMPI PUSH2 0x100 DUP1 DUP4 SLOAD DIV MUL DUP4 MSTORE SWAP2 PUSH1 0x20 ADD SWAP2 PUSH2 0x357 JUMP JUMPDEST DUP3 ADD SWAP2 SWAP1 PUSH0 MSTORE PUSH1 0x20 PUSH0 KECCAK256 SWAP1 JUMPDEST DUP2 SLOAD DUP2 MSTORE SWAP1 PUSH1 0x1 ADD SWAP1 PUSH1 0x20 ADD DUP1 DUP4 GT PUSH2 0x33A JUMPI DUP3 SWAP1 SUB PUSH1 0x1F AND DUP3 ADD SWAP2 JUMPDEST POP POP POP POP POP DUP2 MSTORE PUSH1 0x20 ADD PUSH1 0x3 DUP3 ADD DUP1 SLOAD PUSH2 0x370 SWAP1 PUSH2 0x11A2 JUMP JUMPDEST DUP1 PUSH1 0x1F ADD PUSH1 0x20 DUP1 SWAP2 DIV MUL PUSH1 0x20 ADD PUSH1 0x40 MLOAD SWAP1 DUP2 ADD PUSH1 0x40 MSTORE DUP1 SWAP3 SWAP2 SWAP1 DUP2 DUP2 MSTORE PUSH1 0x20 ADD DUP3 DUP1 SLOAD PUSH2 0x39C SWAP1 PUSH2 0x11A2 JUMP JUMPDEST DUP1 ISZERO PUSH2 0x3E7 JUMPI DUP1 PUSH1 0x1F LT PUSH2 0x3BE JUMPI PUSH2 0x100 DUP1 DUP4 SLOAD DIV MUL DUP4 MSTORE SWAP2 PUSH1 0x20 ADD SWAP2 PUSH2 0x3E7 JUMP JUMPDEST DUP3 ADD SWAP2 SWAP1 PUSH0 MSTORE PUSH1 0x20 PUSH0 KECCAK256 SWAP1 JUMPDEST DUP2 SLOAD DUP2 MSTORE SWAP1 PUSH1 0x1 ADD SWAP1 PUSH1 0x20 ADD DUP1 DUP4 GT PUSH2 0x3CA JUMPI DUP3 SWAP1 SUB PUSH1 0x1F AND DUP3 ADD SWAP2 JUMPDEST POP POP POP POP POP DUP2 MSTORE PUSH1 0x20 ADD PUSH1 0x4 DUP3 ADD SLOAD DUP2 MSTORE PUSH1 0x20 ADD PUSH1 0x5 DUP3 ADD SLOAD DUP2 MSTORE PUSH1 0x20 ADD PUSH1 0x6 DUP3 ADD SLOAD DUP2 MSTORE POP POP DUP3 DUP3 DUP2 MLOAD DUP2 LT PUSH2 0x421 JUMPI PUSH2 0x420 PUSH2 0x1148 JUMP JUMPDEST JUMPDEST PUSH1 0x20 MUL PUSH1 0x20 ADD ADD DUP2 SWAP1 MSTORE POP DUP1 DUP1 PUSH1 0x1 ADD SWAP2 POP POP PUSH2 0x1F8 JUMP JUMPDEST POP DUP1 SWAP3 POP POP POP SWAP2 SWAP1 POP JUMP JUMPDEST PUSH0 PUSH0 SHL PUSH1 0x1 PUSH0 DUP4 DUP2 MSTORE PUSH1 0x20 ADD SWAP1 DUP2 MSTORE PUSH1 0x20 ADD PUSH0 KECCAK256 PUSH0 ADD SLOAD SUB PUSH2 0x49B JUMPI PUSH1 0x40 MLOAD PUSH32 0x8C379A000000000000000000000000000000000000000000000000000000000 DUP2 MSTORE PUSH1 0x4 ADD PUSH2 0x492 SWAP1 PUSH2 0x122C JUMP JUMPDEST PUSH1 0x40 MLOAD DUP1 SWAP2 SUB SWAP1 REVERT JUMPDEST PUSH1 0x2 PUSH0 DUP3 DUP2 MSTORE PUSH1 0x20 ADD SWAP1 DUP2 MSTORE PUSH1 0x20 ADD PUSH0 KECCAK256 PUSH0 CALLER PUSH20 0xFFFFFFFFFFFFFFFFFFFFFFFFFFFFFFFFFFFFFFFF AND PUSH20 0xFFFFFFFFFFFFFFFFFFFFFFFFFFFFFFFFFFFFFFFF AND DUP2 MSTORE PUSH1 0x20 ADD SWAP1 DUP2 MSTORE PUSH1 0x20 ADD PUSH0 KECCAK256 PUSH0 SWAP1 SLOAD SWAP1 PUSH2 0x100 EXP SWAP1 DIV PUSH1 0xFF AND ISZERO PUSH2 0x534 JUMPI PUSH1 0x40 MLOAD PUSH32 0x8C379A000000000000000000000000000000000000000000000000000000000 DUP2 MSTORE PUSH1 0x4 ADD PUSH2 0x52B SWAP1 PUSH2 0x12BA JUMP JUMPDEST PUSH1 0x40 MLOAD DUP1 SWAP2 SUB SWAP1 REVERT JUMPDEST PUSH1 0x1 PUSH0 DUP3 DUP2 MSTORE PUSH1 0x20 ADD SWAP1 DUP2 MSTORE PUSH1 0x20 ADD PUSH0 KECCAK256 PUSH1 0x5 ADD PUSH0 DUP2 SLOAD DUP1 SWAP3 SWAP2 SWAP1 PUSH2 0x558 SWAP1 PUSH2 0x1305 JUMP JUMPDEST SWAP2 SWAP1 POP SSTORE POP PUSH1 0x1 PUSH1 0x2 PUSH0 DUP4 DUP2 MSTORE PUSH1 0x20 ADD SWAP1 DUP2 MSTORE PUSH1 0x20 ADD PUSH0 KECCAK256 PUSH0 CALLER PUSH20 0xFFFFFFFFFFFFFFFFFFFFFFFFFFFFFFFFFFFFFFFF AND PUSH20 0xFFFFFFFFFFFFFFFFFFFFFFFFFFFFFFFFFFFFFFFF AND DUP2 MSTORE PUSH1 0x20 ADD SWAP1 DUP2 MSTORE PUSH1 0x20 ADD PUSH0 KECCAK256 PUSH0 PUSH2 0x100 EXP DUP2 SLOAD DUP2 PUSH1 0xFF MUL NOT AND SWAP1 DUP4 ISZERO ISZERO MUL OR SWAP1 SSTORE POP CALLER PUSH20 0xFFFFFFFFFFFFFFFFFFFFFFFFFFFFFFFFFFFFFFFF AND DUP2 PUSH32 0xA7E4C5082F867EA22A45A95C2043209B9CE83D70CA31CCB947E67592EA14C4B1 PUSH0 PUSH1 0x40 MLOAD PUSH2 0x608 SWAP2 SWAP1 PUSH2 0x1366 JUMP JUMPDEST PUSH1 0x40 MLOAD DUP1 SWAP2 SUB SWAP1 LOG3 POP JUMP JUMPDEST PUSH2 0x61B PUSH2 0xB6B JUMP JUMPDEST PUSH1 0x1 PUSH0 DUP4 DUP2 MSTORE PUSH1 0x20 ADD SWAP1 DUP2 MSTORE PUSH1 0x20 ADD PUSH0 KECCAK256 PUSH1 0x40 MLOAD DUP1 PUSH1 0xE0 ADD PUSH1 0x40 MSTORE SWAP1 DUP2 PUSH0 DUP3 ADD SLOAD DUP2 MSTORE PUSH1 0x20 ADD PUSH1 0x1 DUP3 ADD DUP1 SLOAD PUSH2 0x650 SWAP1 PUSH2 0x11A2 JUMP JUMPDEST DUP1 PUSH1 0x1F ADD PUSH1 0x20 DUP1 SWAP2 DIV MUL PUSH1 0x20 ADD PUSH1 0x40 MLOAD SWAP1 DUP2 ADD PUSH1 0x40 MSTORE DUP1 SWAP3 SWAP2 SWAP1 DUP2 DUP2 MSTORE PUSH1 0x20 ADD DUP3 DUP1 SLOAD PUSH2 0x67C SWAP1 PUSH2 0x11A2 JUMP JUMPDEST DUP1 ISZERO PUSH2 0x6C7 JUMPI DUP1 PUSH1 0x1F LT PUSH2 0x69E JUMPI PUSH2 0x100 DUP1 DUP4 SLOAD DIV MUL DUP4 MSTORE SWAP2 PUSH1 0x20 ADD SWAP2 PUSH2 0x6C7 JUMP JUMPDEST DUP3 ADD SWAP2 SWAP1 PUSH0 MSTORE PUSH1 0x20 PUSH0 KECCAK256 SWAP1 JUMPDEST DUP2 SLOAD DUP2 MSTORE SWAP1 PUSH1 0x1 ADD SWAP1 PUSH1 0x20 ADD DUP1 DUP4 GT PUSH2 0x6AA JUMPI DUP3 SWAP1 SUB PUSH1 0x1F AND DUP3 ADD SWAP2 JUMPDEST POP POP POP POP POP DUP2 MSTORE PUSH1 0x20 ADD PUSH1 0x2 DUP3 ADD DUP1 SLOAD PUSH2 0x6E0 SWAP1 PUSH2 0x11A2 JUMP JUMPDEST DUP1 PUSH1 0x1F ADD PUSH1 0x20 DUP1 SWAP2 DIV MUL PUSH1 0x20 ADD PUSH1 0x40 MLOAD SWAP1 DUP2 ADD PUSH1 0x40 MSTORE DUP1 SWAP3 SWAP2 SWAP1 DUP2 DUP2 MSTORE PUSH1 0x20 ADD DUP3 DUP1 SLOAD PUSH2 0x70C SWAP1 PUSH2 0x11A2 JUMP JUMPDEST DUP1 ISZERO PUSH2 0x757 JUMPI DUP1 PUSH1 0x1F LT PUSH2 0x72E JUMPI PUSH2 0x100 DUP1 DUP4 SLOAD DIV MUL DUP4 MSTORE SWAP2 PUSH1 0x20 ADD SWAP2 PUSH2 0x757 JUMP JUMPDEST DUP3 ADD SWAP2 SWAP1 PUSH0 MSTORE PUSH1 0x20 PUSH0 KECCAK256 SWAP1 JUMPDEST DUP2 SLOAD DUP2 MSTORE SWAP1 PUSH1 0x1 ADD SWAP1 PUSH1 0x20 ADD DUP1 DUP4 GT PUSH2 0x73A JUMPI DUP3 SWAP1 SUB PUSH1 0x1F AND DUP3 ADD SWAP2 JUMPDEST POP POP POP POP POP DUP2 MSTORE PUSH1 0x20 ADD PUSH1 0x3 DUP3 ADD DUP1 SLOAD PUSH2 0x770 SWAP1 PUSH2 0x11A2 JUMP JUMPDEST DUP1 PUSH1 0x1F ADD PUSH1 0x20 DUP1 SWAP2 DIV MUL PUSH1 0x20 ADD PUSH1 0x40 MLOAD SWAP1 DUP2 ADD PUSH1 0x40 MSTORE DUP1 SWAP3 SWAP2 SWAP1 DUP2 DUP2 MSTORE PUSH1 0x20 ADD DUP3 DUP1 SLOAD PUSH2 0x79C SWAP1 PUSH2 0x11A2 JUMP JUMPDEST DUP1 ISZERO PUSH2 0x7E7 JUMPI DUP1 PUSH1 0x1F LT PUSH2 0x7BE JUMPI PUSH2 0x100 DUP1 DUP4 SLOAD DIV MUL DUP4 MSTORE SWAP2 PUSH1 0x20 ADD SWAP2 PUSH2 0x7E7 JUMP JUMPDEST DUP3 ADD SWAP2 SWAP1 PUSH0 MSTORE PUSH1 0x20 PUSH0 KECCAK256 SWAP1 JUMPDEST DUP2 SLOAD DUP2 MSTORE SWAP1 PUSH1 0x1 ADD SWAP1 PUSH1 0x20 ADD DUP1 DUP4 GT PUSH2 0x7CA JUMPI DUP3 SWAP1 SUB PUSH1 0x1F AND DUP3 ADD SWAP2 JUMPDEST POP POP POP POP POP DUP2 MSTORE PUSH1 0x20 ADD PUSH1 0x4 DUP3 ADD SLOAD DUP2 MSTORE PUSH1 0x20 ADD PUSH1 0x5 DUP3 ADD SLOAD DUP2 MSTORE PUSH1 0x20 ADD PUSH1 0x6 DUP3 ADD SLOAD DUP2 MSTORE POP POP SWAP1 POP SWAP2 SWAP1 POP JUMP JUMPDEST PUSH0 PUSH0 SHL PUSH1 0x1 PUSH0 DUP4 DUP2 MSTORE PUSH1 0x20 ADD SWAP1 DUP2 MSTORE PUSH1 0x20 ADD PUSH0 KECCAK256 PUSH0 ADD SLOAD SUB PUSH2 0x86C JUMPI PUSH1 0x40 MLOAD PUSH32 0x8C379A000000000000000000000000000000000000000000000000000000000 DUP2 MSTORE PUSH1 0x4 ADD PUSH2 0x863 SWAP1 PUSH2 0x122C JUMP JUMPDEST PUSH1 0x40 MLOAD DUP1 SWAP2 SUB SWAP1 REVERT JUMPDEST PUSH1 0x2 PUSH0 DUP3 DUP2 MSTORE PUSH1 0x20 ADD SWAP1 DUP2 MSTORE PUSH1 0x20 ADD PUSH0 KECCAK256 PUSH0 CALLER PUSH20 0xFFFFFFFFFFFFFFFFFFFFFFFFFFFFFFFFFFFFFFFF AND PUSH20 0xFFFFFFFFFFFFFFFFFFFFFFFFFFFFFFFFFFFFFFFF AND DUP2 MSTORE PUSH1 0x20 ADD SWAP1 DUP2 MSTORE PUSH1 0x20 ADD PUSH0 KECCAK256 PUSH0 SWAP1 SLOAD SWAP1 PUSH2 0x100 EXP SWAP1 DIV PUSH1 0xFF AND ISZERO PUSH2 0x905 JUMPI PUSH1 0x40 MLOAD PUSH32 0x8C379A000000000000000000000000000000000000000000000000000000000 DUP2 MSTORE PUSH1 0x4 ADD PUSH2 0x8FC SWAP1 PUSH2 0x12BA JUMP JUMPDEST PUSH1 0x40 MLOAD DUP1 SWAP2 SUB SWAP1 REVERT JUMPDEST PUSH1 0x1 PUSH0 DUP3 DUP2 MSTORE PUSH1 0x20 ADD SWAP1 DUP2 MSTORE PUSH1 0x20 ADD PUSH0 KECCAK256 PUSH1 0x4 ADD PUSH0 DUP2 SLOAD DUP1 SWAP3 SWAP2 SWAP1 PUSH2 0x929 SWAP1 PUSH2 0x1305 JUMP JUMPDEST SWAP2 SWAP1 POP SSTORE POP PUSH1 0x1 PUSH1 0x2 PUSH0 DUP4 DUP2 MSTORE PUSH1 0x20 ADD SWAP1 DUP2 MSTORE PUSH1 0x20 ADD PUSH0 KECCAK256 PUSH0 CALLER PUSH20 0xFFFFFFFFFFFFFFFFFFFFFFFFFFFFFFFFFFFFFFFF AND PUSH20 0xFFFFFFFFFFFFFFFFFFFFFFFFFFFFFFFFFFFFFFFF AND DUP2 MSTORE PUSH1 0x20 ADD SWAP1 DUP2 MSTORE PUSH1 0x20 ADD PUSH0 KECCAK256 PUSH0 PUSH2 0x100 EXP DUP2 SLOAD DUP2 PUSH1 0xFF MUL NOT AND SWAP1 DUP4 ISZERO ISZERO MUL OR SWAP1 SSTORE POP CALLER PUSH20 0xFFFFFFFFFFFFFFFFFFFFFFFFFFFFFFFFFFFFFFFF AND DUP2 PUSH32 0xA7E4C5082F867EA22A45A95C2043209B9CE83D70CA31CCB947E67592EA14C4B1 PUSH1 0x1 PUSH1 0x40 MLOAD PUSH2 0x9DA SWAP2 SWAP1 PUSH2 0x1366 JUMP JUMPDEST PUSH1 0x40 MLOAD DUP1 SWAP2 SUB SWAP1 LOG3 POP JUMP JUMPDEST PUSH0 CALLER TIMESTAMP DUP5 DUP5 PUSH1 0x40 MLOAD PUSH1 0x20 ADD PUSH2 0x9FD SWAP5 SWAP4 SWAP3 SWAP2 SWAP1 PUSH2 0x141E JUMP JUMPDEST PUSH1 0x40 MLOAD PUSH1 0x20 DUP2 DUP4 SUB SUB DUP2 MSTORE SWAP1 PUSH1 0x40 MSTORE DUP1 MLOAD SWAP1 PUSH1 0x20 ADD KECCAK256 SWAP1 POP PUSH0 PUSH1 0x40 MLOAD DUP1 PUSH1 0xE0 ADD PUSH1 0x40 MSTORE DUP1 DUP4 DUP2 MSTORE PUSH1 0x20 ADD DUP7 DUP2 MSTORE PUSH1 0x20 ADD DUP6 DUP2 MSTORE PUSH1 0x20 ADD DUP5 DUP2 MSTORE PUSH1 0x20 ADD PUSH0 DUP2 MSTORE PUSH1 0x20 ADD PUSH0 DUP2 MSTORE PUSH1 0x20 ADD TIMESTAMP DUP2 MSTORE POP SWAP1 POP PUSH0 PUSH0 CALLER PUSH20 0xFFFFFFFFFFFFFFFFFFFFFFFFFFFFFFFFFFFFFFFF AND PUSH20 0xFFFFFFFFFFFFFFFFFFFFFFFFFFFFFFFFFFFFFFFF AND DUP2 MSTORE PUSH1 0x20 ADD SWAP1 DUP2 MSTORE PUSH1 0x20 ADD PUSH0 KECCAK256 DUP3 SWAP1 DUP1 PUSH1 0x1 DUP2 SLOAD ADD DUP1 DUP3 SSTORE DUP1 SWAP2 POP POP PUSH1 0x1 SWAP1 SUB SWAP1 PUSH0 MSTORE PUSH1 0x20 PUSH0 KECCAK256 ADD PUSH0 SWAP1 SWAP2 SWAP1 SWAP2 SWAP1 SWAP2 POP SSTORE DUP1 PUSH1 0x1 PUSH0 DUP5 DUP2 MSTORE PUSH1 0x20 ADD SWAP1 DUP2 MSTORE PUSH1 0x20 ADD PUSH0 KECCAK256 PUSH0 DUP3 ADD MLOAD DUP2 PUSH0 ADD SSTORE PUSH1 0x20 DUP3 ADD MLOAD DUP2 PUSH1 0x1 ADD SWAP1 DUP2 PUSH2 0xADA SWAP2 SWAP1 PUSH2 0x1603 JUMP JUMPDEST POP PUSH1 0x40 DUP3 ADD MLOAD DUP2 PUSH1 0x2 ADD SWAP1 DUP2 PUSH2 0xAF0 SWAP2 SWAP1 PUSH2 0x1603 JUMP JUMPDEST POP PUSH1 0x60 DUP3 ADD MLOAD DUP2 PUSH1 0x3 ADD SWAP1 DUP2 PUSH2 0xB06 SWAP2 SWAP1 PUSH2 0x1603 JUMP JUMPDEST POP PUSH1 0x80 DUP3 ADD MLOAD DUP2 PUSH1 0x4 ADD SSTORE PUSH1 0xA0 DUP3 ADD MLOAD DUP2 PUSH1 0x5 ADD SSTORE PUSH1 0xC0 DUP3 ADD MLOAD DUP2 PUSH1 0x6 ADD SSTORE SWAP1 POP POP DUP2 PUSH32 0x17F34748F078A06D3C7C034EF1CDF60A8B2BAF4592DF676D3A2AE61596619F98 DUP6 DUP8 TIMESTAMP PUSH1 0x40 MLOAD PUSH2 0xB5C SWAP4 SWAP3 SWAP2 SWAP1 PUSH2 0x1719 JUMP JUMPDEST PUSH1 0x40 MLOAD DUP1 SWAP2 SUB SWAP1 LOG2 POP POP POP POP POP JUMP JUMPDEST PUSH1 0x40 MLOAD DUP1 PUSH1 0xE0 ADD PUSH1 0x40 MSTORE DUP1 PUSH0 DUP2 MSTORE PUSH1 0x20 ADD PUSH1 0x60 DUP2 MSTORE PUSH1 0x20 ADD PUSH1 0x60 DUP2 MSTORE PUSH1 0x20 ADD PUSH1 0x60 DUP2 MSTORE PUSH1 0x20 ADD PUSH0 DUP2 MSTORE PUSH1 0x20 ADD PUSH0 DUP2 MSTORE PUSH1 0x20 ADD PUSH0 DUP2 MSTORE POP SWAP1 JUMP JUMPDEST PUSH0 PUSH1 0x40 MLOAD SWAP1 POP SWAP1 JUMP JUMPDEST PUSH0 PUSH0 REVERT JUMPDEST PUSH0 PUSH0 REVERT JUMPDEST PUSH0 PUSH20 0xFFFFFFFFFFFFFFFFFFFFFFFFFFFFFFFFFFFFFFFF DUP3 AND SWAP1 POP SWAP2 SWAP1 POP JUMP JUMPDEST PUSH0 PUSH2 0xBDE DUP3 PUSH2 0xBB5 JUMP JUMPDEST SWAP1 POP SWAP2 SWAP1 POP JUMP JUMPDEST PUSH2 0xBEE DUP2 PUSH2 0xBD4 JUMP JUMPDEST DUP2 EQ PUSH2 0xBF8 JUMPI PUSH0 PUSH0 REVERT JUMPDEST POP JUMP JUMPDEST PUSH0 DUP2 CALLDATALOAD SWAP1 POP PUSH2 0xC09 DUP2 PUSH2 0xBE5 JUMP JUMPDEST SWAP3 SWAP2 POP POP JUMP JUMPDEST PUSH0 PUSH1 0x20 DUP3 DUP5 SUB SLT ISZERO PUSH2 0xC24 JUMPI PUSH2 0xC23 PUSH2 0xBAD JUMP JUMPDEST JUMPDEST PUSH0 PUSH2 0xC31 DUP5 DUP3 DUP6 ADD PUSH2 0xBFB JUMP JUMPDEST SWAP2 POP POP SWAP3 SWAP2 POP POP JUMP JUMPDEST PUSH0 DUP2 MLOAD SWAP1 POP SWAP2 SWAP1 POP JUMP JUMPDEST PUSH0 DUP3 DUP3 MSTORE PUSH1 0x20 DUP3 ADD SWAP1 POP SWAP3 SWAP2 POP POP JUMP JUMPDEST PUSH0 DUP2 SWAP1 POP PUSH1 0x20 DUP3 ADD SWAP1 POP SWAP2 SWAP1 POP JUMP JUMPDEST PUSH0 DUP2 SWAP1 POP SWAP2 SWAP1 POP JUMP JUMPDEST PUSH2 0xC75 DUP2 PUSH2 0xC63 JUMP JUMPDEST DUP3 MSTORE POP POP JUMP JUMPDEST PUSH0 DUP2 MLOAD SWAP1 POP SWAP2 SWAP1 POP JUMP JUMPDEST PUSH0 DUP3 DUP3 MSTORE PUSH1 0x20 DUP3 ADD SWAP1 POP SWAP3 SWAP2 POP POP JUMP JUMPDEST DUP3 DUP2 DUP4 MCOPY PUSH0 DUP4 DUP4 ADD MSTORE POP POP POP JUMP JUMPDEST PUSH0 PUSH1 0x1F NOT PUSH1 0x1F DUP4 ADD AND SWAP1 POP SWAP2 SWAP1 POP JUMP JUMPDEST PUSH0 PUSH2 0xCBD DUP3 PUSH2 0xC7B JUMP JUMPDEST PUSH2 0xCC7 DUP2 DUP6 PUSH2 0xC85 JUMP JUMPDEST SWAP4 POP PUSH2 0xCD7 DUP2 DUP6 PUSH1 0x20 DUP7 ADD PUSH2 0xC95 JUMP JUMPDEST PUSH2 0xCE0 DUP2 PUSH2 0xCA3 JUMP JUMPDEST DUP5 ADD SWAP2 POP POP SWAP3 SWAP2 POP POP JUMP JUMPDEST PUSH0 DUP2 SWAP1 POP SWAP2 SWAP1 POP JUMP JUMPDEST PUSH2 0xCFD DUP2 PUSH2 0xCEB JUMP JUMPDEST DUP3 MSTORE POP POP JUMP JUMPDEST PUSH0 PUSH1 0xE0 DUP4 ADD PUSH0 DUP4 ADD MLOAD PUSH2 0xD18 PUSH0 DUP7 ADD DUP3 PUSH2 0xC6C JUMP JUMPDEST POP PUSH1 0x20 DUP4 ADD MLOAD DUP5 DUP3 SUB PUSH1 0x20 DUP7 ADD MSTORE PUSH2 0xD30 DUP3 DUP3 PUSH2 0xCB3 JUMP JUMPDEST SWAP2 POP POP PUSH1 0x40 DUP4 ADD MLOAD DUP5 DUP3 SUB PUSH1 0x40 DUP7 ADD MSTORE PUSH2 0xD4A DUP3 DUP3 PUSH2 0xCB3 JUMP JUMPDEST SWAP2 POP POP PUSH1 0x60 DUP4 ADD MLOAD DUP5 DUP3 SUB PUSH1 0x60 DUP7 ADD MSTORE PUSH2 0xD64 DUP3 DUP3 PUSH2 0xCB3 JUMP JUMPDEST SWAP2 POP POP PUSH1 0x80 DUP4 ADD MLOAD PUSH2 0xD79 PUSH1 0x80 DUP7 ADD DUP3 PUSH2 0xCF4 JUMP JUMPDEST POP PUSH1 0xA0 DUP4 ADD MLOAD PUSH2 0xD8C PUSH1 0xA0 DUP7 ADD DUP3 PUSH2 0xCF4 JUMP JUMPDEST POP PUSH1 0xC0 DUP4 ADD MLOAD PUSH2 0xD9F PUSH1 0xC0 DUP7 ADD DUP3 PUSH2 0xCF4 JUMP JUMPDEST POP DUP1 SWAP2 POP POP SWAP3 SWAP2 POP POP JUMP JUMPDEST PUSH0 PUSH2 0xDB5 DUP4 DUP4 PUSH2 0xD03 JUMP JUMPDEST SWAP1 POP SWAP3 SWAP2 POP POP JUMP JUMPDEST PUSH0 PUSH1 0x20 DUP3 ADD SWAP1 POP SWAP2 SWAP1 POP JUMP JUMPDEST PUSH0 PUSH2 0xDD3 DUP3 PUSH2 0xC3A JUMP JUMPDEST PUSH2 0xDDD DUP2 DUP6 PUSH2 0xC44 JUMP JUMPDEST SWAP4 POP DUP4 PUSH1 0x20 DUP3 MUL DUP6 ADD PUSH2 0xDEF DUP6 PUSH2 0xC54 JUMP JUMPDEST DUP1 PUSH0 JUMPDEST DUP6 DUP2 LT ISZERO PUSH2 0xE2A JUMPI DUP5 DUP5 SUB DUP10 MSTORE DUP2 MLOAD PUSH2 0xE0B DUP6 DUP3 PUSH2 0xDAA JUMP JUMPDEST SWAP5 POP PUSH2 0xE16 DUP4 PUSH2 0xDBD JUMP JUMPDEST SWAP3 POP PUSH1 0x20 DUP11 ADD SWAP10 POP POP PUSH1 0x1 DUP2 ADD SWAP1 POP PUSH2 0xDF2 JUMP JUMPDEST POP DUP3 SWAP8 POP DUP8 SWAP6 POP POP POP POP POP POP SWAP3 SWAP2 POP POP JUMP JUMPDEST PUSH0 PUSH1 0x20 DUP3 ADD SWAP1 POP DUP2 DUP2 SUB PUSH0 DUP4 ADD MSTORE PUSH2 0xE54 DUP2 DUP5 PUSH2 0xDC9 JUMP JUMPDEST SWAP1 POP SWAP3 SWAP2 POP POP JUMP JUMPDEST PUSH2 0xE65 DUP2 PUSH2 0xC63 JUMP JUMPDEST DUP2 EQ PUSH2 0xE6F JUMPI PUSH0 PUSH0 REVERT JUMPDEST POP JUMP JUMPDEST PUSH0 DUP2 CALLDATALOAD SWAP1 POP PUSH2 0xE80 DUP2 PUSH2 0xE5C JUMP JUMPDEST SWAP3 SWAP2 POP POP JUMP JUMPDEST PUSH0 PUSH1 0x20 DUP3 DUP5 SUB SLT ISZERO PUSH2 0xE9B JUMPI PUSH2 0xE9A PUSH2 0xBAD JUMP JUMPDEST JUMPDEST PUSH0 PUSH2 0xEA8 DUP5 DUP3 DUP6 ADD PUSH2 0xE72 JUMP JUMPDEST SWAP2 POP POP SWAP3 SWAP2 POP POP JUMP JUMPDEST PUSH0 PUSH1 0xE0 DUP4 ADD PUSH0 DUP4 ADD MLOAD PUSH2 0xEC6 PUSH0 DUP7 ADD DUP3 PUSH2 0xC6C JUMP JUMPDEST POP PUSH1 0x20 DUP4 ADD MLOAD DUP5 DUP3 SUB PUSH1 0x20 DUP7 ADD MSTORE PUSH2 0xEDE DUP3 DUP3 PUSH2 0xCB3 JUMP JUMPDEST SWAP2 POP POP PUSH1 0x40 DUP4 ADD MLOAD DUP5 DUP3 SUB PUSH1 0x40 DUP7 ADD MSTORE PUSH2 0xEF8 DUP3 DUP3 PUSH2 0xCB3 JUMP JUMPDEST SWAP2 POP POP PUSH1 0x60 DUP4 ADD MLOAD DUP5 DUP3 SUB PUSH1 0x60 DUP7 ADD MSTORE PUSH2 0xF12 DUP3 DUP3 PUSH2 0xCB3 JUMP JUMPDEST SWAP2 POP POP PUSH1 0x80 DUP4 ADD MLOAD PUSH2 0xF27 PUSH1 0x80 DUP7 ADD DUP3 PUSH2 0xCF4 JUMP JUMPDEST POP PUSH1 0xA0 DUP4 ADD MLOAD PUSH2 0xF3A PUSH1 0xA0 DUP7 ADD DUP3 PUSH2 0xCF4 JUMP JUMPDEST POP PUSH1 0xC0 DUP4 ADD MLOAD PUSH2 0xF4D PUSH1 0xC0 DUP7 ADD DUP3 PUSH2 0xCF4 JUMP JUMPDEST POP DUP1 SWAP2 POP POP SWAP3 SWAP2 POP POP JUMP JUMPDEST PUSH0 PUSH1 0x20 DUP3 ADD SWAP1 POP DUP2 DUP2 SUB PUSH0 DUP4 ADD MSTORE PUSH2 0xF70 DUP2 DUP5 PUSH2 0xEB1 JUMP JUMPDEST SWAP1 POP SWAP3 SWAP2 POP POP JUMP JUMPDEST PUSH0 PUSH0 REVERT JUMPDEST PUSH0 PUSH0 REVERT JUMPDEST PUSH32 0x4E487B7100000000000000000000000000000000000000000000000000000000 PUSH0 MSTORE PUSH1 0x41 PUSH1 0x4 MSTORE PUSH1 0x24 PUSH0 REVERT JUMPDEST PUSH2 0xFB6 DUP3 PUSH2 0xCA3 JUMP JUMPDEST DUP2 ADD DUP2 DUP2 LT PUSH8 0xFFFFFFFFFFFFFFFF DUP3 GT OR ISZERO PUSH2 0xFD5 JUMPI PUSH2 0xFD4 PUSH2 0xF80 JUMP JUMPDEST JUMPDEST DUP1 PUSH1 0x40 MSTORE POP POP POP JUMP JUMPDEST PUSH0 PUSH2 0xFE7 PUSH2 0xBA4 JUMP JUMPDEST SWAP1 POP PUSH2 0xFF3 DUP3 DUP3 PUSH2 0xFAD JUMP JUMPDEST SWAP2 SWAP1 POP JUMP JUMPDEST PUSH0 PUSH8 0xFFFFFFFFFFFFFFFF DUP3 GT ISZERO PUSH2 0x1012 JUMPI PUSH2 0x1011 PUSH2 0xF80 JUMP JUMPDEST JUMPDEST PUSH2 0x101B DUP3 PUSH2 0xCA3 JUMP JUMPDEST SWAP1 POP PUSH1 0x20 DUP2 ADD SWAP1 POP SWAP2 SWAP1 POP JUMP JUMPDEST DUP3 DUP2 DUP4 CALLDATACOPY PUSH0 DUP4 DUP4 ADD MSTORE POP POP POP JUMP JUMPDEST PUSH0 PUSH2 0x1048 PUSH2 0x1043 DUP5 PUSH2 0xFF8 JUMP JUMPDEST PUSH2 0xFDE JUMP JUMPDEST SWAP1 POP DUP3 DUP2 MSTORE PUSH1 0x20 DUP2 ADD DUP5 DUP5 DUP5 ADD GT ISZERO PUSH2 0x1064 JUMPI PUSH2 0x1063 PUSH2 0xF7C JUMP JUMPDEST JUMPDEST PUSH2 0x106F DUP5 DUP3 DUP6 PUSH2 0x1028 JUMP JUMPDEST POP SWAP4 SWAP3 POP POP POP JUMP JUMPDEST PUSH0 DUP3 PUSH1 0x1F DUP4 ADD SLT PUSH2 0x108B JUMPI PUSH2 0x108A PUSH2 0xF78 JUMP JUMPDEST JUMPDEST DUP2 CALLDATALOAD PUSH2 0x109B DUP5 DUP3 PUSH1 0x20 DUP7 ADD PUSH2 0x1036 JUMP JUMPDEST SWAP2 POP POP SWAP3 SWAP2 POP POP JUMP JUMPDEST PUSH0 PUSH0 PUSH0 PUSH1 0x60 DUP5 DUP7 SUB SLT ISZERO PUSH2 0x10BB JUMPI PUSH2 0x10BA PUSH2 0xBAD JUMP JUMPDEST JUMPDEST PUSH0 DUP5 ADD CALLDATALOAD PUSH8 0xFFFFFFFFFFFFFFFF DUP2 GT ISZERO PUSH2 0x10D8 JUMPI PUSH2 0x10D7 PUSH2 0xBB1 JUMP JUMPDEST JUMPDEST PUSH2 0x10E4 DUP7 DUP3 DUP8 ADD PUSH2 0x1077 JUMP JUMPDEST SWAP4 POP POP PUSH1 0x20 DUP5 ADD CALLDATALOAD PUSH8 0xFFFFFFFFFFFFFFFF DUP2 GT ISZERO PUSH2 0x1105 JUMPI PUSH2 0x1104 PUSH2 0xBB1 JUMP JUMPDEST JUMPDEST PUSH2 0x1111 DUP7 DUP3 DUP8 ADD PUSH2 0x1077 JUMP JUMPDEST SWAP3 POP POP PUSH1 0x40 DUP5 ADD CALLDATALOAD PUSH8 0xFFFFFFFFFFFFFFFF DUP2 GT ISZERO PUSH2 0x1132 JUMPI PUSH2 0x1131 PUSH2 0xBB1 JUMP JUMPDEST JUMPDEST PUSH2 0x113E DUP7 DUP3 DUP8 ADD PUSH2 0x1077 JUMP JUMPDEST SWAP2 POP POP SWAP3 POP SWAP3 POP SWAP3 JUMP JUMPDEST PUSH32 0x4E487B7100000000000000000000000000000000000000000000000000000000 PUSH0 MSTORE PUSH1 0x32 PUSH1 0x4 MSTORE PUSH1 0x24 PUSH0 REVERT JUMPDEST PUSH32 0x4E487B7100000000000000000000000000000000000000000000000000000000 PUSH0 MSTORE PUSH1 0x22 PUSH1 0x4 MSTORE PUSH1 0x24 PUSH0 REVERT JUMPDEST PUSH0 PUSH1 0x2 DUP3 DIV SWAP1 POP PUSH1 0x1 DUP3 AND DUP1 PUSH2 0x11B9 JUMPI PUSH1 0x7F DUP3 AND SWAP2 POP JUMPDEST PUSH1 0x20 DUP3 LT DUP2 SUB PUSH2 0x11CC JUMPI PUSH2 0x11CB PUSH2 0x1175 JUMP JUMPDEST JUMPDEST POP SWAP2 SWAP1 POP JUMP JUMPDEST PUSH0 DUP3 DUP3 MSTORE PUSH1 0x20 DUP3 ADD SWAP1 POP SWAP3 SWAP2 POP POP JUMP JUMPDEST PUSH32 0x506F737420646F6573206E6F742065786973742E000000000000000000000000 PUSH0 DUP3 ADD MSTORE POP JUMP JUMPDEST PUSH0 PUSH2 0x1216 PUSH1 0x14 DUP4 PUSH2 0x11D2 JUMP JUMPDEST SWAP2 POP PUSH2 0x1221 DUP3 PUSH2 0x11E2 JUMP JUMPDEST PUSH1 0x20 DUP3 ADD SWAP1 POP SWAP2 SWAP1 POP JUMP JUMPDEST PUSH0 PUSH1 0x20 DUP3 ADD SWAP1 POP DUP2 DUP2 SUB PUSH0 DUP4 ADD MSTORE PUSH2 0x1243 DUP2 PUSH2 0x120A JUMP JUMPDEST SWAP1 POP SWAP2 SWAP1 POP JUMP JUMPDEST PUSH32 0x596F75206861766520616C726561647920766F746564206F6E20746869732070 PUSH0 DUP3 ADD MSTORE PUSH32 0x6F73742E00000000000000000000000000000000000000000000000000000000 PUSH1 0x20 DUP3 ADD MSTORE POP JUMP JUMPDEST PUSH0 PUSH2 0x12A4 PUSH1 0x24 DUP4 PUSH2 0x11D2 JUMP JUMPDEST SWAP2 POP PUSH2 0x12AF DUP3 PUSH2 0x124A JUMP JUMPDEST PUSH1 0x40 DUP3 ADD SWAP1 POP SWAP2 SWAP1 POP JUMP JUMPDEST PUSH0 PUSH1 0x20 DUP3 ADD SWAP1 POP DUP2 DUP2 SUB PUSH0 DUP4 ADD MSTORE PUSH2 0x12D1 DUP2 PUSH2 0x1298 JUMP JUMPDEST SWAP1 POP SWAP2 SWAP1 POP JUMP JUMPDEST PUSH32 0x4E487B7100000000000000000000000000000000000000000000000000000000 PUSH0 MSTORE PUSH1 0x11 PUSH1 0x4 MSTORE PUSH1 0x24 PUSH0 REVERT JUMPDEST PUSH0 PUSH2 0x130F DUP3 PUSH2 0xCEB JUMP JUMPDEST SWAP2 POP PUSH32 0xFFFFFFFFFFFFFFFFFFFFFFFFFFFFFFFFFFFFFFFFFFFFFFFFFFFFFFFFFFFFFFFF DUP3 SUB PUSH2 0x1341 JUMPI PUSH2 0x1340 PUSH2 0x12D8 JUMP JUMPDEST JUMPDEST PUSH1 0x1 DUP3 ADD SWAP1 POP SWAP2 SWAP1 POP JUMP JUMPDEST PUSH0 DUP2 ISZERO ISZERO SWAP1 POP SWAP2 SWAP1 POP JUMP JUMPDEST PUSH2 0x1360 DUP2 PUSH2 0x134C JUMP JUMPDEST DUP3 MSTORE POP POP JUMP JUMPDEST PUSH0 PUSH1 0x20 DUP3 ADD SWAP1 POP PUSH2 0x1379 PUSH0 DUP4 ADD DUP5 PUSH2 0x1357 JUMP JUMPDEST SWAP3 SWAP2 POP POP JUMP JUMPDEST PUSH0 DUP2 PUSH1 0x60 SHL SWAP1 POP SWAP2 SWAP1 POP JUMP JUMPDEST PUSH0 PUSH2 0x1395 DUP3 PUSH2 0x137F JUMP JUMPDEST SWAP1 POP SWAP2 SWAP1 POP JUMP JUMPDEST PUSH0 PUSH2 0x13A6 DUP3 PUSH2 0x138B JUMP JUMPDEST SWAP1 POP SWAP2 SWAP1 POP JUMP JUMPDEST PUSH2 0x13BE PUSH2 0x13B9 DUP3 PUSH2 0xBD4 JUMP JUMPDEST PUSH2 0x139C JUMP JUMPDEST DUP3 MSTORE POP POP JUMP JUMPDEST PUSH0 DUP2 SWAP1 POP SWAP2 SWAP1 POP JUMP JUMPDEST PUSH2 0x13DE PUSH2 0x13D9 DUP3 PUSH2 0xCEB JUMP JUMPDEST PUSH2 0x13C4 JUMP JUMPDEST DUP3 MSTORE POP POP JUMP JUMPDEST PUSH0 DUP2 SWAP1 POP SWAP3 SWAP2 POP POP JUMP JUMPDEST PUSH0 PUSH2 0x13F8 DUP3 PUSH2 0xC7B JUMP JUMPDEST PUSH2 0x1402 DUP2 DUP6 PUSH2 0x13E4 JUMP JUMPDEST SWAP4 POP PUSH2 0x1412 DUP2 DUP6 PUSH1 0x20 DUP7 ADD PUSH2 0xC95 JUMP JUMPDEST DUP1 DUP5 ADD SWAP2 POP POP SWAP3 SWAP2 POP POP JUMP JUMPDEST PUSH0 PUSH2 0x1429 DUP3 DUP8 PUSH2 0x13AD JUMP JUMPDEST PUSH1 0x14 DUP3 ADD SWAP2 POP PUSH2 0x1439 DUP3 DUP7 PUSH2 0x13CD JUMP JUMPDEST PUSH1 0x20 DUP3 ADD SWAP2 POP PUSH2 0x1449 DUP3 DUP6 PUSH2 0x13EE JUMP JUMPDEST SWAP2 POP PUSH2 0x1455 DUP3 DUP5 PUSH2 0x13EE JUMP JUMPDEST SWAP2 POP DUP2 SWAP1 POP SWAP6 SWAP5 POP POP POP POP POP JUMP JUMPDEST PUSH0 DUP2 SWAP1 POP DUP2 PUSH0 MSTORE PUSH1 0x20 PUSH0 KECCAK256 SWAP1 POP SWAP2 SWAP1 POP JUMP JUMPDEST PUSH0 PUSH1 0x20 PUSH1 0x1F DUP4 ADD DIV SWAP1 POP SWAP2 SWAP1 POP JUMP JUMPDEST PUSH0 DUP3 DUP3 SHL SWAP1 POP SWAP3 SWAP2 POP POP JUMP JUMPDEST PUSH0 PUSH1 0x8 DUP4 MUL PUSH2 0x14BF PUSH32 0xFFFFFFFFFFFFFFFFFFFFFFFFFFFFFFFFFFFFFFFFFFFFFFFFFFFFFFFFFFFFFFFF DUP3 PUSH2 0x1484 JUMP JUMPDEST PUSH2 0x14C9 DUP7 DUP4 PUSH2 0x1484 JUMP JUMPDEST SWAP6 POP DUP1 NOT DUP5 AND SWAP4 POP DUP1 DUP7 AND DUP5 OR SWAP3 POP POP POP SWAP4 SWAP3 POP POP POP JUMP JUMPDEST PUSH0 DUP2 SWAP1 POP SWAP2 SWAP1 POP JUMP JUMPDEST PUSH0 PUSH2 0x1504 PUSH2 0x14FF PUSH2 0x14FA DUP5 PUSH2 0xCEB JUMP JUMPDEST PUSH2 0x14E1 JUMP JUMPDEST PUSH2 0xCEB JUMP JUMPDEST SWAP1 POP SWAP2 SWAP1 POP JUMP JUMPDEST PUSH0 DUP2 SWAP1 POP SWAP2 SWAP1 POP JUMP JUMPDEST PUSH2 0x151D DUP4 PUSH2 0x14EA JUMP JUMPDEST PUSH2 0x1531 PUSH2 0x1529 DUP3 PUSH2 0x150B JUMP JUMPDEST DUP5 DUP5 SLOAD PUSH2 0x1490 JUMP JUMPDEST DUP3 SSTORE POP POP POP POP JUMP JUMPDEST PUSH0 PUSH0 SWAP1 POP SWAP1 JUMP JUMPDEST PUSH2 0x1548 PUSH2 0x1539 JUMP JUMPDEST PUSH2 0x1553 DUP2 DUP5 DUP5 PUSH2 0x1514 JUMP JUMPDEST POP POP POP JUMP JUMPDEST JUMPDEST DUP2 DUP2 LT ISZERO PUSH2 0x1576 JUMPI PUSH2 0x156B PUSH0 DUP3 PUSH2 0x1540 JUMP JUMPDEST PUSH1 0x1 DUP2 ADD SWAP1 POP PUSH2 0x1559 JUMP JUMPDEST POP POP JUMP JUMPDEST PUSH1 0x1F DUP3 GT ISZERO PUSH2 0x15BB JUMPI PUSH2 0x158C DUP2 PUSH2 0x1463 JUMP JUMPDEST PUSH2 0x1595 DUP5 PUSH2 0x1475 JUMP JUMPDEST DUP2 ADD PUSH1 0x20 DUP6 LT ISZERO PUSH2 0x15A4 JUMPI DUP2 SWAP1 POP JUMPDEST PUSH2 0x15B8 PUSH2 0x15B0 DUP6 PUSH2 0x1475 JUMP JUMPDEST DUP4 ADD DUP3 PUSH2 0x1558 JUMP JUMPDEST POP POP JUMPDEST POP POP POP JUMP JUMPDEST PUSH0 DUP3 DUP3 SHR SWAP1 POP SWAP3 SWAP2 POP POP JUMP JUMPDEST PUSH0 PUSH2 0x15DB PUSH0 NOT DUP5 PUSH1 0x8 MUL PUSH2 0x15C0 JUMP JUMPDEST NOT DUP1 DUP4 AND SWAP2 POP POP SWAP3 SWAP2 POP POP JUMP JUMPDEST PUSH0 PUSH2 0x15F3 DUP4 DUP4 PUSH2 0x15CC JUMP JUMPDEST SWAP2 POP DUP3 PUSH1 0x2 MUL DUP3 OR SWAP1 POP SWAP3 SWAP2 POP POP JUMP JUMPDEST PUSH2 0x160C DUP3 PUSH2 0xC7B JUMP JUMPDEST PUSH8 0xFFFFFFFFFFFFFFFF DUP2 GT ISZERO PUSH2 0x1625 JUMPI PUSH2 0x1624 PUSH2 0xF80 JUMP JUMPDEST JUMPDEST PUSH2 0x162F DUP3 SLOAD PUSH2 0x11A2 JUMP JUMPDEST PUSH2 0x163A DUP3 DUP3 DUP6 PUSH2 0x157A JUMP JUMPDEST PUSH0 PUSH1 0x20 SWAP1 POP PUSH1 0x1F DUP4 GT PUSH1 0x1 DUP2 EQ PUSH2 0x166B JUMPI PUSH0 DUP5 ISZERO PUSH2 0x1659 JUMPI DUP3 DUP8 ADD MLOAD SWAP1 POP JUMPDEST PUSH2 0x1663 DUP6 DUP3 PUSH2 0x15E8 JUMP JUMPDEST DUP7 SSTORE POP PUSH2 0x16CA JUMP JUMPDEST PUSH1 0x1F NOT DUP5 AND PUSH2 0x1679 DUP7 PUSH2 0x1463 JUMP JUMPDEST PUSH0 JUMPDEST DUP3 DUP2 LT ISZERO PUSH2 0x16A0 JUMPI DUP5 DUP10 ADD MLOAD DUP3 SSTORE PUSH1 0x1 DUP3 ADD SWAP2 POP PUSH1 0x20 DUP6 ADD SWAP5 POP PUSH1 0x20 DUP2 ADD SWAP1 POP PUSH2 0x167B JUMP JUMPDEST DUP7 DUP4 LT ISZERO PUSH2 0x16BD JUMPI DUP5 DUP10 ADD MLOAD PUSH2 0x16B9 PUSH1 0x1F DUP10 AND DUP3 PUSH2 0x15CC JUMP JUMPDEST DUP4 SSTORE POP JUMPDEST PUSH1 0x1 PUSH1 0x2 DUP9 MUL ADD DUP9 SSTORE POP POP POP JUMPDEST POP POP POP POP POP POP JUMP JUMPDEST PUSH0 PUSH2 0x16DC DUP3 PUSH2 0xC7B JUMP JUMPDEST PUSH2 0x16E6 DUP2 DUP6 PUSH2 0x11D2 JUMP JUMPDEST SWAP4 POP PUSH2 0x16F6 DUP2 DUP6 PUSH1 0x20 DUP7 ADD PUSH2 0xC95 JUMP JUMPDEST PUSH2 0x16FF DUP2 PUSH2 0xCA3 JUMP JUMPDEST DUP5 ADD SWAP2 POP POP SWAP3 SWAP2 POP POP JUMP JUMPDEST PUSH2 0x1713 DUP2 PUSH2 0xCEB JUMP JUMPDEST DUP3 MSTORE POP POP JUMP JUMPDEST PUSH0 PUSH1 0x60 DUP3 ADD SWAP1 POP DUP2 DUP2 SUB PUSH0 DUP4 ADD MSTORE PUSH2 0x1731 DUP2 DUP7 PUSH2 0x16D2 JUMP JUMPDEST SWAP1 POP DUP2 DUP2 SUB PUSH1 0x20 DUP4 ADD MSTORE PUSH2 0x1745 DUP2 DUP6 PUSH2 0x16D2 JUMP JUMPDEST SWAP1 POP PUSH2 0x1754 PUSH1 0x40 DUP4 ADD DUP5 PUSH2 0x170A JUMP JUMPDEST SWAP5 SWAP4 POP POP POP POP JUMP INVALID LOG2 PUSH5 0x6970667358 0x22 SLT KECCAK256 PUSH32 0xE7BD80AEE5E8D79C990B70A3A29D022EF129AC7A54A9D8912D83C2AE82CEAD64 PUSH20 0x6F6C634300081E00330000000000000000000000 "
				},
				"gasEstimates": {
					"creation": {
						"codeDepositCost": "1206800",
						"executionCost": "1252",
						"totalCost": "1208052"
					},
					"external": {
						"createPost(string,string,string)": "infinite",
						"downvotePost(bytes32)": "55746",
						"getAllPostsOfUser(address)": "infinite",
						"getPostById(bytes32)": "infinite",
						"upvotePost(bytes32)": "55791"
					}
				},
				"methodIdentifiers": {
					"createPost(string,string,string)": "e8a4a1eb",
					"downvotePost(bytes32)": "a54ff9ac",
					"getAllPostsOfUser(address)": "2cfdcc6b",
					"getPostById(bytes32)": "ae362ff9",
					"upvotePost(bytes32)": "e2fc2691"
				}
			},
			"storageLayout": {
				"storage": [
					{
						"astId": 21,
						"contract": "contracts/MyblogApp.sol:MyblogApp",
						"label": "userPosts",
						"offset": 0,
						"slot": "0",
						"type": "t_mapping(t_address,t_array(t_bytes32)dyn_storage)"
					},
					{
						"astId": 26,
						"contract": "contracts/MyblogApp.sol:MyblogApp",
						"label": "posts",
						"offset": 0,
						"slot": "1",
						"type": "t_mapping(t_bytes32,t_struct(Post)16_storage)"
					},
					{
						"astId": 32,
						"contract": "contracts/MyblogApp.sol:MyblogApp",
						"label": "hasVoted",
						"offset": 0,
						"slot": "2",
						"type": "t_mapping(t_bytes32,t_mapping(t_address,t_bool))"
					}
				],
				"types": {
					"t_address": {
						"encoding": "inplace",
						"label": "address",
						"numberOfBytes": "20"
					},
					"t_array(t_bytes32)dyn_storage": {
						"base": "t_bytes32",
						"encoding": "dynamic_array",
						"label": "bytes32[]",
						"numberOfBytes": "32"
					},
					"t_bool": {
						"encoding": "inplace",
						"label": "bool",
						"numberOfBytes": "1"
					},
					"t_bytes32": {
						"encoding": "inplace",
						"label": "bytes32",
						"numberOfBytes": "32"
					},
					"t_mapping(t_address,t_array(t_bytes32)dyn_storage)": {
						"encoding": "mapping",
						"key": "t_address",
						"label": "mapping(address => bytes32[])",
						"numberOfBytes": "32",
						"value": "t_array(t_bytes32)dyn_storage"
					},
					"t_mapping(t_address,t_bool)": {
						"encoding": "mapping",
						"key": "t_address",
						"label": "mapping(address => bool)",
						"numberOfBytes": "32",
						"value": "t_bool"
					},
					"t_mapping(t_bytes32,t_mapping(t_address,t_bool))": {
						"encoding": "mapping",
						"key": "t_bytes32",
						"label": "mapping(bytes32 => mapping(address => bool))",
						"numberOfBytes": "32",
						"value": "t_mapping(t_address,t_bool)"
					},
					"t_mapping(t_bytes32,t_struct(Post)16_storage)": {
						"encoding": "mapping",
						"key": "t_bytes32",
						"label": "mapping(bytes32 => struct MyblogApp.Post)",
						"numberOfBytes": "32",
						"value": "t_struct(Post)16_storage"
					},
					"t_string_storage": {
						"encoding": "bytes",
						"label": "string",
						"numberOfBytes": "32"
					},
					"t_struct(Post)16_storage": {
						"encoding": "inplace",
						"label": "struct MyblogApp.Post",
						"members": [
							{
								"astId": 3,
								"contract": "contracts/MyblogApp.sol:MyblogApp",
								"label": "id",
								"offset": 0,
								"slot": "0",
								"type": "t_bytes32"
							},
							{
								"astId": 5,
								"contract": "contracts/MyblogApp.sol:MyblogApp",
								"label": "author",
								"offset": 0,
								"slot": "1",
								"type": "t_string_storage"
							},
							{
								"astId": 7,
								"contract": "contracts/MyblogApp.sol:MyblogApp",
								"label": "title",
								"offset": 0,
								"slot": "2",
								"type": "t_string_storage"
							},
							{
								"astId": 9,
								"contract": "contracts/MyblogApp.sol:MyblogApp",
								"label": "contentHash",
								"offset": 0,
								"slot": "3",
								"type": "t_string_storage"
							},
							{
								"astId": 11,
								"contract": "contracts/MyblogApp.sol:MyblogApp",
								"label": "upvote",
								"offset": 0,
								"slot": "4",
								"type": "t_uint256"
							},
							{
								"astId": 13,
								"contract": "contracts/MyblogApp.sol:MyblogApp",
								"label": "downvote",
								"offset": 0,
								"slot": "5",
								"type": "t_uint256"
							},
							{
								"astId": 15,
								"contract": "contracts/MyblogApp.sol:MyblogApp",
								"label": "timestamp",
								"offset": 0,
								"slot": "6",
								"type": "t_uint256"
							}
						],
						"numberOfBytes": "224"
					},
					"t_uint256": {
						"encoding": "inplace",
						"label": "uint256",
						"numberOfBytes": "32"
					}
				}
			},
			"userdoc": {
				"kind": "user",
				"methods": {},
				"version": 1
			}
		}
	}
}