{
	"contracts/MyblogApp.sol": {
		"MyblogApp": {
			"abi": [
				{
					"anonymous": false,
					"inputs": [
						{
							"indexed": true,
							"internalType": "bytes32",
							"name": "postId",
							"type": "bytes32"
						},
						{
							"indexed": true,
							"internalType": "bytes32",
							"name": "commentId",
							"type": "bytes32"
						},
						{
							"indexed": false,
							"internalType": "address",
							"name": "commenterAddress",
							"type": "address"
						},
						{
							"indexed": false,
							"internalType": "string",
							"name": "commenterName",
							"type": "string"
						},
						{
							"indexed": false,
							"internalType": "string",
							"name": "content",
							"type": "string"
						},
						{
							"indexed": false,
							"internalType": "uint256",
							"name": "timestamp",
							"type": "uint256"
						}
					],
					"name": "CommentAdded",
					"type": "event"
				},
				{
					"anonymous": false,
					"inputs": [
						{
							"indexed": true,
							"internalType": "bytes32",
							"name": "postId",
							"type": "bytes32"
						},
						{
							"indexed": true,
							"internalType": "bytes32",
							"name": "commentId",
							"type": "bytes32"
						},
						{
							"indexed": false,
							"internalType": "address",
							"name": "voter",
							"type": "address"
						},
						{
							"indexed": false,
							"internalType": "bool",
							"name": "isUpvote",
							"type": "bool"
						}
					],
					"name": "CommentVoted",
					"type": "event"
				},
				{
					"anonymous": false,
					"inputs": [
						{
							"indexed": true,
							"internalType": "bytes32",
							"name": "postId",
							"type": "bytes32"
						},
						{
							"indexed": true,
							"internalType": "address",
							"name": "voter",
							"type": "address"
						},
						{
							"indexed": false,
							"internalType": "bool",
							"name": "isUpvote",
							"type": "bool"
						}
					],
					"name": "PostVoted",
					"type": "event"
				},
				{
					"anonymous": false,
					"inputs": [
						{
							"indexed": true,
							"internalType": "bytes32",
							"name": "postId",
							"type": "bytes32"
						},
						{
							"indexed": false,
							"internalType": "string",
							"name": "title",
							"type": "string"
						},
						{
							"indexed": false,
							"internalType": "string",
							"name": "author",
							"type": "string"
						},
						{
							"indexed": false,
							"internalType": "uint256",
							"name": "timestamp",
							"type": "uint256"
						}
					],
					"name": "Postcreation",
					"type": "event"
				},
				{
					"inputs": [
						{
							"internalType": "bytes32",
							"name": "_postId",
							"type": "bytes32"
						},
						{
							"internalType": "string",
							"name": "_commenterName",
							"type": "string"
						},
						{
							"internalType": "string",
							"name": "_content",
							"type": "string"
						}
					],
					"name": "addComment",
					"outputs": [],
					"stateMutability": "nonpayable",
					"type": "function"
				},
				{
					"inputs": [
						{
							"internalType": "string",
							"name": "_author",
							"type": "string"
						},
						{
							"internalType": "string",
							"name": "_title",
							"type": "string"
						},
						{
							"internalType": "string",
							"name": "_contentHash",
							"type": "string"
						}
					],
					"name": "createPost",
					"outputs": [],
					"stateMutability": "nonpayable",
					"type": "function"
				},
				{
					"inputs": [
						{
							"internalType": "bytes32",
							"name": "_postId",
							"type": "bytes32"
						},
						{
							"internalType": "uint256",
							"name": "_commentIndex",
							"type": "uint256"
						}
					],
					"name": "downvoteComment",
					"outputs": [],
					"stateMutability": "nonpayable",
					"type": "function"
				},
				{
					"inputs": [
						{
							"internalType": "bytes32",
							"name": "_postId",
							"type": "bytes32"
						}
					],
					"name": "downvotePost",
					"outputs": [],
					"stateMutability": "nonpayable",
					"type": "function"
				},
				{
					"inputs": [],
					"name": "getAllPosts",
					"outputs": [
						{
							"components": [
								{
									"internalType": "bytes32",
									"name": "id",
									"type": "bytes32"
								},
								{
									"internalType": "string",
									"name": "author",
									"type": "string"
								},
								{
									"internalType": "string",
									"name": "title",
									"type": "string"
								},
								{
									"internalType": "string",
									"name": "contentHash",
									"type": "string"
								},
								{
									"internalType": "uint256",
									"name": "upvote",
									"type": "uint256"
								},
								{
									"internalType": "uint256",
									"name": "downvote",
									"type": "uint256"
								},
								{
									"internalType": "uint256",
									"name": "timestamp",
									"type": "uint256"
								}
							],
							"internalType": "struct MyblogApp.Post[]",
							"name": "",
							"type": "tuple[]"
						}
					],
					"stateMutability": "view",
					"type": "function"
				},
				{
					"inputs": [
						{
							"internalType": "address",
							"name": "_user",
							"type": "address"
						}
					],
					"name": "getAllPostsOfUser",
					"outputs": [
						{
							"components": [
								{
									"internalType": "bytes32",
									"name": "id",
									"type": "bytes32"
								},
								{
									"internalType": "string",
									"name": "author",
									"type": "string"
								},
								{
									"internalType": "string",
									"name": "title",
									"type": "string"
								},
								{
									"internalType": "string",
									"name": "contentHash",
									"type": "string"
								},
								{
									"internalType": "uint256",
									"name": "upvote",
									"type": "uint256"
								},
								{
									"internalType": "uint256",
									"name": "downvote",
									"type": "uint256"
								},
								{
									"internalType": "uint256",
									"name": "timestamp",
									"type": "uint256"
								}
							],
							"internalType": "struct MyblogApp.Post[]",
							"name": "",
							"type": "tuple[]"
						}
					],
					"stateMutability": "view",
					"type": "function"
				},
				{
					"inputs": [
						{
							"internalType": "bytes32",
							"name": "_postId",
							"type": "bytes32"
						}
					],
					"name": "getComments",
					"outputs": [
						{
							"components": [
								{
									"internalType": "bytes32",
									"name": "id",
									"type": "bytes32"
								},
								{
									"internalType": "address",
									"name": "commenterAddress",
									"type": "address"
								},
								{
									"internalType": "string",
									"name": "commenterName",
									"type": "string"
								},
								{
									"internalType": "string",
									"name": "content",
									"type": "string"
								},
								{
									"internalType": "uint256",
									"name": "upvote",
									"type": "uint256"
								},
								{
									"internalType": "uint256",
									"name": "downvote",
									"type": "uint256"
								},
								{
									"internalType": "uint256",
									"name": "timestamp",
									"type": "uint256"
								}
							],
							"internalType": "struct MyblogApp.Comment[]",
							"name": "",
							"type": "tuple[]"
						}
					],
					"stateMutability": "view",
					"type": "function"
				},
				{
					"inputs": [
						{
							"internalType": "bytes32",
							"name": "_postId",
							"type": "bytes32"
						}
					],
					"name": "getPostById",
					"outputs": [
						{
							"internalType": "bytes32",
							"name": "id",
							"type": "bytes32"
						},
						{
							"internalType": "string",
							"name": "author",
							"type": "string"
						},
						{
							"internalType": "string",
							"name": "title",
							"type": "string"
						},
						{
							"internalType": "string",
							"name": "contentHash",
							"type": "string"
						},
						{
							"internalType": "uint256",
							"name": "upvote",
							"type": "uint256"
						},
						{
							"internalType": "uint256",
							"name": "downvote",
							"type": "uint256"
						},
						{
							"internalType": "uint256",
							"name": "timestamp",
							"type": "uint256"
						}
					],
					"stateMutability": "view",
					"type": "function"
				},
				{
					"inputs": [
						{
							"internalType": "bytes32",
							"name": "_postId",
							"type": "bytes32"
						},
						{
							"internalType": "uint256",
							"name": "_commentIndex",
							"type": "uint256"
						}
					],
					"name": "upvoteComment",
					"outputs": [],
					"stateMutability": "nonpayable",
					"type": "function"
				},
				{
					"inputs": [
						{
							"internalType": "bytes32",
							"name": "_postId",
							"type": "bytes32"
						}
					],
					"name": "upvotePost",
					"outputs": [],
					"stateMutability": "nonpayable",
					"type": "function"
				}
			],
			"devdoc": {
				"kind": "dev",
				"methods": {},
				"version": 1
			},
			"evm": {
				"assembly": "    /* \"contracts/MyblogApp.sol\":68:6244  contract MyblogApp {... */\n  mstore(0x40, 0x80)\n  callvalue\n  dup1\n  iszero\n  tag_1\n  jumpi\n  revert(0x00, 0x00)\ntag_1:\n  pop\n  dataSize(sub_0)\n  dup1\n  dataOffset(sub_0)\n  0x00\n  codecopy\n  0x00\n  return\nstop\n\nsub_0: assembly {\n        /* \"contracts/MyblogApp.sol\":68:6244  contract MyblogApp {... */\n      mstore(0x40, 0x80)\n      callvalue\n      dup1\n      iszero\n      tag_1\n      jumpi\n      revert(0x00, 0x00)\n    tag_1:\n      pop\n      jumpi(tag_2, lt(calldatasize, 0x04))\n      shr(0xe0, calldataload(0x00))\n      dup1\n      0xae362ff9\n      gt\n      tag_13\n      jumpi\n      dup1\n      0xae362ff9\n      eq\n      tag_8\n      jumpi\n      dup1\n      0xcdb1d17e\n      eq\n      tag_9\n      jumpi\n      dup1\n      0xe2fc2691\n      eq\n      tag_10\n      jumpi\n      dup1\n      0xe8a4a1eb\n      eq\n      tag_11\n      jumpi\n      dup1\n      0xf7ba787d\n      eq\n      tag_12\n      jumpi\n      jump(tag_2)\n    tag_13:\n      dup1\n      0x2cfdcc6b\n      eq\n      tag_3\n      jumpi\n      dup1\n      0x30561100\n      eq\n      tag_4\n      jumpi\n      dup1\n      0xa54ff9ac\n      eq\n      tag_5\n      jumpi\n      dup1\n      0xa6c86b5b\n      eq\n      tag_6\n      jumpi\n      dup1\n      0xa7503db2\n      eq\n      tag_7\n      jumpi\n    tag_2:\n      revert(0x00, 0x00)\n        /* \"contracts/MyblogApp.sol\":5196:5549  function getAllPostsOfUser(address _user) public view returns(Post[] memory) {... */\n    tag_3:\n      tag_14\n      0x04\n      dup1\n      calldatasize\n      sub\n      dup2\n      add\n      swap1\n      tag_15\n      swap2\n      swap1\n      tag_16\n      jump\t// in\n    tag_15:\n      tag_17\n      jump\t// in\n    tag_14:\n      mload(0x40)\n      tag_18\n      swap2\n      swap1\n      tag_19\n      jump\t// in\n    tag_18:\n      mload(0x40)\n      dup1\n      swap2\n      sub\n      swap1\n      return\n        /* \"contracts/MyblogApp.sol\":4913:5188  function getAllPosts() public view returns(Post[] memory) {... */\n    tag_4:\n      tag_20\n      tag_21\n      jump\t// in\n    tag_20:\n      mload(0x40)\n      tag_22\n      swap2\n      swap1\n      tag_19\n      jump\t// in\n    tag_22:\n      mload(0x40)\n      dup1\n      swap2\n      sub\n      swap1\n      return\n        /* \"contracts/MyblogApp.sol\":2646:2992  function downvotePost(bytes32 _postId) public {... */\n    tag_5:\n      tag_23\n      0x04\n      dup1\n      calldatasize\n      sub\n      dup2\n      add\n      swap1\n      tag_24\n      swap2\n      swap1\n      tag_25\n      jump\t// in\n    tag_24:\n      tag_26\n      jump\t// in\n    tag_23:\n      stop\n        /* \"contracts/MyblogApp.sol\":3882:4377  function upvoteComment(bytes32 _postId, uint _commentIndex) public {... */\n    tag_6:\n      tag_27\n      0x04\n      dup1\n      calldatasize\n      sub\n      dup2\n      add\n      swap1\n      tag_28\n      swap2\n      swap1\n      tag_29\n      jump\t// in\n    tag_28:\n      tag_30\n      jump\t// in\n    tag_27:\n      stop\n        /* \"contracts/MyblogApp.sol\":3028:3842  function addComment(bytes32 _postId, string memory _commenterName, string memory _content) public {... */\n    tag_7:\n      tag_31\n      0x04\n      dup1\n      calldatasize\n      sub\n      dup2\n      add\n      swap1\n      tag_32\n      swap2\n      swap1\n      tag_33\n      jump\t// in\n    tag_32:\n      tag_34\n      jump\t// in\n    tag_31:\n      stop\n        /* \"contracts/MyblogApp.sol\":5596:6077  function getPostById(bytes32 _postId) public view returns (... */\n    tag_8:\n      tag_35\n      0x04\n      dup1\n      calldatasize\n      sub\n      dup2\n      add\n      swap1\n      tag_36\n      swap2\n      swap1\n      tag_25\n      jump\t// in\n    tag_36:\n      tag_37\n      jump\t// in\n    tag_35:\n      mload(0x40)\n      tag_38\n      swap8\n      swap7\n      swap6\n      swap5\n      swap4\n      swap3\n      swap2\n      swap1\n      tag_39\n      jump\t// in\n    tag_38:\n      mload(0x40)\n      dup1\n      swap2\n      sub\n      swap1\n      return\n        /* \"contracts/MyblogApp.sol\":4385:4885  function downvoteComment(bytes32 _postId, uint _commentIndex) public {... */\n    tag_9:\n      tag_40\n      0x04\n      dup1\n      calldatasize\n      sub\n      dup2\n      add\n      swap1\n      tag_41\n      swap2\n      swap1\n      tag_29\n      jump\t// in\n    tag_41:\n      tag_42\n      jump\t// in\n    tag_40:\n      stop\n        /* \"contracts/MyblogApp.sol\":2297:2638  function upvotePost(bytes32 _postId) public {... */\n    tag_10:\n      tag_43\n      0x04\n      dup1\n      calldatasize\n      sub\n      dup2\n      add\n      swap1\n      tag_44\n      swap2\n      swap1\n      tag_25\n      jump\t// in\n    tag_44:\n      tag_45\n      jump\t// in\n    tag_43:\n      stop\n        /* \"contracts/MyblogApp.sol\":1539:2260  function createPost(string memory _author, string memory _title, string memory _contentHash) public {... */\n    tag_11:\n      tag_46\n      0x04\n      dup1\n      calldatasize\n      sub\n      dup2\n      add\n      swap1\n      tag_47\n      swap2\n      swap1\n      tag_48\n      jump\t// in\n    tag_47:\n      tag_49\n      jump\t// in\n    tag_46:\n      stop\n        /* \"contracts/MyblogApp.sol\":6118:6241  function getComments(bytes32 _postId) public view returns(Comment[] memory) {... */\n    tag_12:\n      tag_50\n      0x04\n      dup1\n      calldatasize\n      sub\n      dup2\n      add\n      swap1\n      tag_51\n      swap2\n      swap1\n      tag_25\n      jump\t// in\n    tag_51:\n      tag_52\n      jump\t// in\n    tag_50:\n      mload(0x40)\n      tag_53\n      swap2\n      swap1\n      tag_54\n      jump\t// in\n    tag_53:\n      mload(0x40)\n      dup1\n      swap2\n      sub\n      swap1\n      return\n        /* \"contracts/MyblogApp.sol\":5196:5549  function getAllPostsOfUser(address _user) public view returns(Post[] memory) {... */\n    tag_17:\n        /* \"contracts/MyblogApp.sol\":5258:5271  Post[] memory */\n      0x60\n        /* \"contracts/MyblogApp.sol\":5284:5312  bytes32[] memory userPostIds */\n      0x00\n        /* \"contracts/MyblogApp.sol\":5315:5324  userPosts */\n      0x01\n        /* \"contracts/MyblogApp.sol\":5315:5331  userPosts[_user] */\n      0x00\n        /* \"contracts/MyblogApp.sol\":5325:5330  _user */\n      dup5\n        /* \"contracts/MyblogApp.sol\":5315:5331  userPosts[_user] */\n      0xffffffffffffffffffffffffffffffffffffffff\n      and\n      0xffffffffffffffffffffffffffffffffffffffff\n      and\n      dup2\n      mstore\n      0x20\n      add\n      swap1\n      dup2\n      mstore\n      0x20\n      add\n      0x00\n      keccak256\n        /* \"contracts/MyblogApp.sol\":5284:5331  bytes32[] memory userPostIds = userPosts[_user] */\n      dup1\n      sload\n      dup1\n      0x20\n      mul\n      0x20\n      add\n      mload(0x40)\n      swap1\n      dup2\n      add\n      0x40\n      mstore\n      dup1\n      swap3\n      swap2\n      swap1\n      dup2\n      dup2\n      mstore\n      0x20\n      add\n      dup3\n      dup1\n      sload\n      dup1\n      iszero\n      tag_56\n      jumpi\n      0x20\n      mul\n      dup3\n      add\n      swap2\n      swap1\n      0x00\n      mstore\n      keccak256(0x00, 0x20)\n      swap1\n    tag_57:\n      dup2\n      sload\n      dup2\n      mstore\n      0x20\n      add\n      swap1\n      0x01\n      add\n      swap1\n      dup1\n      dup4\n      gt\n      tag_57\n      jumpi\n    tag_56:\n      pop\n      pop\n      pop\n      pop\n      pop\n      swap1\n      pop\n        /* \"contracts/MyblogApp.sol\":5342:5364  Post[] memory allPosts */\n      0x00\n        /* \"contracts/MyblogApp.sol\":5378:5389  userPostIds */\n      dup2\n        /* \"contracts/MyblogApp.sol\":5378:5396  userPostIds.length */\n      mload\n        /* \"contracts/MyblogApp.sol\":5367:5397  new Post[](userPostIds.length) */\n      0xffffffffffffffff\n      dup2\n      gt\n      iszero\n      tag_58\n      jumpi\n      tag_59\n      tag_60\n      jump\t// in\n    tag_59:\n    tag_58:\n      mload(0x40)\n      swap1\n      dup1\n      dup3\n      mstore\n      dup1\n      0x20\n      mul\n      0x20\n      add\n      dup3\n      add\n      0x40\n      mstore\n      dup1\n      iszero\n      tag_61\n      jumpi\n      dup2\n      0x20\n      add\n    tag_62:\n      tag_63\n      tag_64\n      jump\t// in\n    tag_63:\n      dup2\n      mstore\n      0x20\n      add\n      swap1\n      0x01\n      swap1\n      sub\n      swap1\n      dup2\n      tag_62\n      jumpi\n      swap1\n      pop\n    tag_61:\n      pop\n        /* \"contracts/MyblogApp.sol\":5342:5397  Post[] memory allPosts = new Post[](userPostIds.length) */\n      swap1\n      pop\n        /* \"contracts/MyblogApp.sol\":5413:5419  uint i */\n      0x00\n        /* \"contracts/MyblogApp.sol\":5422:5423  0 */\n      0x00\n        /* \"contracts/MyblogApp.sol\":5413:5423  uint i = 0 */\n      swap1\n      pop\n        /* \"contracts/MyblogApp.sol\":5408:5516  for (uint i = 0; i < userPostIds.length; i++) {... */\n    tag_65:\n        /* \"contracts/MyblogApp.sol\":5429:5440  userPostIds */\n      dup3\n        /* \"contracts/MyblogApp.sol\":5429:5447  userPostIds.length */\n      mload\n        /* \"contracts/MyblogApp.sol\":5425:5426  i */\n      dup2\n        /* \"contracts/MyblogApp.sol\":5425:5447  i < userPostIds.length */\n      lt\n        /* \"contracts/MyblogApp.sol\":5408:5516  for (uint i = 0; i < userPostIds.length; i++) {... */\n      iszero\n      tag_66\n      jumpi\n        /* \"contracts/MyblogApp.sol\":5483:5488  posts */\n      0x02\n        /* \"contracts/MyblogApp.sol\":5483:5504  posts[userPostIds[i]] */\n      0x00\n        /* \"contracts/MyblogApp.sol\":5489:5500  userPostIds */\n      dup5\n        /* \"contracts/MyblogApp.sol\":5501:5502  i */\n      dup4\n        /* \"contracts/MyblogApp.sol\":5489:5503  userPostIds[i] */\n      dup2\n      mload\n      dup2\n      lt\n      tag_68\n      jumpi\n      tag_69\n      tag_70\n      jump\t// in\n    tag_69:\n    tag_68:\n      0x20\n      mul\n      0x20\n      add\n      add\n      mload\n        /* \"contracts/MyblogApp.sol\":5483:5504  posts[userPostIds[i]] */\n      dup2\n      mstore\n      0x20\n      add\n      swap1\n      dup2\n      mstore\n      0x20\n      add\n      0x00\n      keccak256\n        /* \"contracts/MyblogApp.sol\":5469:5504  allPosts[i] = posts[userPostIds[i]] */\n      mload(0x40)\n      dup1\n      0xe0\n      add\n      0x40\n      mstore\n      swap1\n      dup2\n      0x00\n      dup3\n      add\n      sload\n      dup2\n      mstore\n      0x20\n      add\n      0x01\n      dup3\n      add\n      dup1\n      sload\n      tag_71\n      swap1\n      tag_72\n      jump\t// in\n    tag_71:\n      dup1\n      0x1f\n      add\n      0x20\n      dup1\n      swap2\n      div\n      mul\n      0x20\n      add\n      mload(0x40)\n      swap1\n      dup2\n      add\n      0x40\n      mstore\n      dup1\n      swap3\n      swap2\n      swap1\n      dup2\n      dup2\n      mstore\n      0x20\n      add\n      dup3\n      dup1\n      sload\n      tag_73\n      swap1\n      tag_72\n      jump\t// in\n    tag_73:\n      dup1\n      iszero\n      tag_74\n      jumpi\n      dup1\n      0x1f\n      lt\n      tag_75\n      jumpi\n      0x0100\n      dup1\n      dup4\n      sload\n      div\n      mul\n      dup4\n      mstore\n      swap2\n      0x20\n      add\n      swap2\n      jump(tag_74)\n    tag_75:\n      dup3\n      add\n      swap2\n      swap1\n      0x00\n      mstore\n      keccak256(0x00, 0x20)\n      swap1\n    tag_76:\n      dup2\n      sload\n      dup2\n      mstore\n      swap1\n      0x01\n      add\n      swap1\n      0x20\n      add\n      dup1\n      dup4\n      gt\n      tag_76\n      jumpi\n      dup3\n      swap1\n      sub\n      0x1f\n      and\n      dup3\n      add\n      swap2\n    tag_74:\n      pop\n      pop\n      pop\n      pop\n      pop\n      dup2\n      mstore\n      0x20\n      add\n      0x02\n      dup3\n      add\n      dup1\n      sload\n      tag_77\n      swap1\n      tag_72\n      jump\t// in\n    tag_77:\n      dup1\n      0x1f\n      add\n      0x20\n      dup1\n      swap2\n      div\n      mul\n      0x20\n      add\n      mload(0x40)\n      swap1\n      dup2\n      add\n      0x40\n      mstore\n      dup1\n      swap3\n      swap2\n      swap1\n      dup2\n      dup2\n      mstore\n      0x20\n      add\n      dup3\n      dup1\n      sload\n      tag_78\n      swap1\n      tag_72\n      jump\t// in\n    tag_78:\n      dup1\n      iszero\n      tag_79\n      jumpi\n      dup1\n      0x1f\n      lt\n      tag_80\n      jumpi\n      0x0100\n      dup1\n      dup4\n      sload\n      div\n      mul\n      dup4\n      mstore\n      swap2\n      0x20\n      add\n      swap2\n      jump(tag_79)\n    tag_80:\n      dup3\n      add\n      swap2\n      swap1\n      0x00\n      mstore\n      keccak256(0x00, 0x20)\n      swap1\n    tag_81:\n      dup2\n      sload\n      dup2\n      mstore\n      swap1\n      0x01\n      add\n      swap1\n      0x20\n      add\n      dup1\n      dup4\n      gt\n      tag_81\n      jumpi\n      dup3\n      swap1\n      sub\n      0x1f\n      and\n      dup3\n      add\n      swap2\n    tag_79:\n      pop\n      pop\n      pop\n      pop\n      pop\n      dup2\n      mstore\n      0x20\n      add\n      0x03\n      dup3\n      add\n      dup1\n      sload\n      tag_82\n      swap1\n      tag_72\n      jump\t// in\n    tag_82:\n      dup1\n      0x1f\n      add\n      0x20\n      dup1\n      swap2\n      div\n      mul\n      0x20\n      add\n      mload(0x40)\n      swap1\n      dup2\n      add\n      0x40\n      mstore\n      dup1\n      swap3\n      swap2\n      swap1\n      dup2\n      dup2\n      mstore\n      0x20\n      add\n      dup3\n      dup1\n      sload\n      tag_83\n      swap1\n      tag_72\n      jump\t// in\n    tag_83:\n      dup1\n      iszero\n      tag_84\n      jumpi\n      dup1\n      0x1f\n      lt\n      tag_85\n      jumpi\n      0x0100\n      dup1\n      dup4\n      sload\n      div\n      mul\n      dup4\n      mstore\n      swap2\n      0x20\n      add\n      swap2\n      jump(tag_84)\n    tag_85:\n      dup3\n      add\n      swap2\n      swap1\n      0x00\n      mstore\n      keccak256(0x00, 0x20)\n      swap1\n    tag_86:\n      dup2\n      sload\n      dup2\n      mstore\n      swap1\n      0x01\n      add\n      swap1\n      0x20\n      add\n      dup1\n      dup4\n      gt\n      tag_86\n      jumpi\n      dup3\n      swap1\n      sub\n      0x1f\n      and\n      dup3\n      add\n      swap2\n    tag_84:\n      pop\n      pop\n      pop\n      pop\n      pop\n      dup2\n      mstore\n      0x20\n      add\n      0x04\n      dup3\n      add\n      sload\n      dup2\n      mstore\n      0x20\n      add\n      0x05\n      dup3\n      add\n      sload\n      dup2\n      mstore\n      0x20\n      add\n      0x06\n      dup3\n      add\n      sload\n      dup2\n      mstore\n      pop\n      pop\n        /* \"contracts/MyblogApp.sol\":5469:5477  allPosts */\n      dup3\n        /* \"contracts/MyblogApp.sol\":5478:5479  i */\n      dup3\n        /* \"contracts/MyblogApp.sol\":5469:5480  allPosts[i] */\n      dup2\n      mload\n      dup2\n      lt\n      tag_87\n      jumpi\n      tag_88\n      tag_70\n      jump\t// in\n    tag_88:\n    tag_87:\n      0x20\n      mul\n      0x20\n      add\n      add\n        /* \"contracts/MyblogApp.sol\":5469:5504  allPosts[i] = posts[userPostIds[i]] */\n      dup2\n      swap1\n      mstore\n      pop\n        /* \"contracts/MyblogApp.sol\":5449:5452  i++ */\n      dup1\n      dup1\n      0x01\n      add\n      swap2\n      pop\n      pop\n        /* \"contracts/MyblogApp.sol\":5408:5516  for (uint i = 0; i < userPostIds.length; i++) {... */\n      jump(tag_65)\n    tag_66:\n      pop\n        /* \"contracts/MyblogApp.sol\":5533:5541  allPosts */\n      dup1\n        /* \"contracts/MyblogApp.sol\":5526:5541  return allPosts */\n      swap3\n      pop\n      pop\n      pop\n        /* \"contracts/MyblogApp.sol\":5196:5549  function getAllPostsOfUser(address _user) public view returns(Post[] memory) {... */\n      swap2\n      swap1\n      pop\n      jump\t// out\n        /* \"contracts/MyblogApp.sol\":4913:5188  function getAllPosts() public view returns(Post[] memory) {... */\n    tag_21:\n        /* \"contracts/MyblogApp.sol\":4956:4969  Post[] memory */\n      0x60\n        /* \"contracts/MyblogApp.sol\":4982:5004  Post[] memory allPosts */\n      0x00\n        /* \"contracts/MyblogApp.sol\":5018:5029  allPostsIds */\n      0x00\n        /* \"contracts/MyblogApp.sol\":5018:5036  allPostsIds.length */\n      dup1\n      sload\n      swap1\n      pop\n        /* \"contracts/MyblogApp.sol\":5007:5037  new Post[](allPostsIds.length) */\n      0xffffffffffffffff\n      dup2\n      gt\n      iszero\n      tag_90\n      jumpi\n      tag_91\n      tag_60\n      jump\t// in\n    tag_91:\n    tag_90:\n      mload(0x40)\n      swap1\n      dup1\n      dup3\n      mstore\n      dup1\n      0x20\n      mul\n      0x20\n      add\n      dup3\n      add\n      0x40\n      mstore\n      dup1\n      iszero\n      tag_92\n      jumpi\n      dup2\n      0x20\n      add\n    tag_93:\n      tag_94\n      tag_64\n      jump\t// in\n    tag_94:\n      dup2\n      mstore\n      0x20\n      add\n      swap1\n      0x01\n      swap1\n      sub\n      swap1\n      dup2\n      tag_93\n      jumpi\n      swap1\n      pop\n    tag_92:\n      pop\n        /* \"contracts/MyblogApp.sol\":4982:5037  Post[] memory allPosts = new Post[](allPostsIds.length) */\n      swap1\n      pop\n        /* \"contracts/MyblogApp.sol\":5052:5058  uint i */\n      0x00\n        /* \"contracts/MyblogApp.sol\":5061:5062  0 */\n      0x00\n        /* \"contracts/MyblogApp.sol\":5052:5062  uint i = 0 */\n      swap1\n      pop\n        /* \"contracts/MyblogApp.sol\":5048:5155  for(uint i = 0; i < allPostsIds.length; i++) {... */\n    tag_95:\n        /* \"contracts/MyblogApp.sol\":5068:5079  allPostsIds */\n      0x00\n        /* \"contracts/MyblogApp.sol\":5068:5086  allPostsIds.length */\n      dup1\n      sload\n      swap1\n      pop\n        /* \"contracts/MyblogApp.sol\":5064:5065  i */\n      dup2\n        /* \"contracts/MyblogApp.sol\":5064:5086  i < allPostsIds.length */\n      lt\n        /* \"contracts/MyblogApp.sol\":5048:5155  for(uint i = 0; i < allPostsIds.length; i++) {... */\n      iszero\n      tag_96\n      jumpi\n        /* \"contracts/MyblogApp.sol\":5122:5127  posts */\n      0x02\n        /* \"contracts/MyblogApp.sol\":5122:5143  posts[allPostsIds[i]] */\n      0x00\n        /* \"contracts/MyblogApp.sol\":5128:5139  allPostsIds */\n      0x00\n        /* \"contracts/MyblogApp.sol\":5140:5141  i */\n      dup4\n        /* \"contracts/MyblogApp.sol\":5128:5142  allPostsIds[i] */\n      dup2\n      sload\n      dup2\n      lt\n      tag_98\n      jumpi\n      tag_99\n      tag_70\n      jump\t// in\n    tag_99:\n    tag_98:\n      swap1\n      0x00\n      mstore\n      keccak256(0x00, 0x20)\n      add\n      sload\n        /* \"contracts/MyblogApp.sol\":5122:5143  posts[allPostsIds[i]] */\n      dup2\n      mstore\n      0x20\n      add\n      swap1\n      dup2\n      mstore\n      0x20\n      add\n      0x00\n      keccak256\n        /* \"contracts/MyblogApp.sol\":5108:5143  allPosts[i] = posts[allPostsIds[i]] */\n      mload(0x40)\n      dup1\n      0xe0\n      add\n      0x40\n      mstore\n      swap1\n      dup2\n      0x00\n      dup3\n      add\n      sload\n      dup2\n      mstore\n      0x20\n      add\n      0x01\n      dup3\n      add\n      dup1\n      sload\n      tag_101\n      swap1\n      tag_72\n      jump\t// in\n    tag_101:\n      dup1\n      0x1f\n      add\n      0x20\n      dup1\n      swap2\n      div\n      mul\n      0x20\n      add\n      mload(0x40)\n      swap1\n      dup2\n      add\n      0x40\n      mstore\n      dup1\n      swap3\n      swap2\n      swap1\n      dup2\n      dup2\n      mstore\n      0x20\n      add\n      dup3\n      dup1\n      sload\n      tag_102\n      swap1\n      tag_72\n      jump\t// in\n    tag_102:\n      dup1\n      iszero\n      tag_103\n      jumpi\n      dup1\n      0x1f\n      lt\n      tag_104\n      jumpi\n      0x0100\n      dup1\n      dup4\n      sload\n      div\n      mul\n      dup4\n      mstore\n      swap2\n      0x20\n      add\n      swap2\n      jump(tag_103)\n    tag_104:\n      dup3\n      add\n      swap2\n      swap1\n      0x00\n      mstore\n      keccak256(0x00, 0x20)\n      swap1\n    tag_105:\n      dup2\n      sload\n      dup2\n      mstore\n      swap1\n      0x01\n      add\n      swap1\n      0x20\n      add\n      dup1\n      dup4\n      gt\n      tag_105\n      jumpi\n      dup3\n      swap1\n      sub\n      0x1f\n      and\n      dup3\n      add\n      swap2\n    tag_103:\n      pop\n      pop\n      pop\n      pop\n      pop\n      dup2\n      mstore\n      0x20\n      add\n      0x02\n      dup3\n      add\n      dup1\n      sload\n      tag_106\n      swap1\n      tag_72\n      jump\t// in\n    tag_106:\n      dup1\n      0x1f\n      add\n      0x20\n      dup1\n      swap2\n      div\n      mul\n      0x20\n      add\n      mload(0x40)\n      swap1\n      dup2\n      add\n      0x40\n      mstore\n      dup1\n      swap3\n      swap2\n      swap1\n      dup2\n      dup2\n      mstore\n      0x20\n      add\n      dup3\n      dup1\n      sload\n      tag_107\n      swap1\n      tag_72\n      jump\t// in\n    tag_107:\n      dup1\n      iszero\n      tag_108\n      jumpi\n      dup1\n      0x1f\n      lt\n      tag_109\n      jumpi\n      0x0100\n      dup1\n      dup4\n      sload\n      div\n      mul\n      dup4\n      mstore\n      swap2\n      0x20\n      add\n      swap2\n      jump(tag_108)\n    tag_109:\n      dup3\n      add\n      swap2\n      swap1\n      0x00\n      mstore\n      keccak256(0x00, 0x20)\n      swap1\n    tag_110:\n      dup2\n      sload\n      dup2\n      mstore\n      swap1\n      0x01\n      add\n      swap1\n      0x20\n      add\n      dup1\n      dup4\n      gt\n      tag_110\n      jumpi\n      dup3\n      swap1\n      sub\n      0x1f\n      and\n      dup3\n      add\n      swap2\n    tag_108:\n      pop\n      pop\n      pop\n      pop\n      pop\n      dup2\n      mstore\n      0x20\n      add\n      0x03\n      dup3\n      add\n      dup1\n      sload\n      tag_111\n      swap1\n      tag_72\n      jump\t// in\n    tag_111:\n      dup1\n      0x1f\n      add\n      0x20\n      dup1\n      swap2\n      div\n      mul\n      0x20\n      add\n      mload(0x40)\n      swap1\n      dup2\n      add\n      0x40\n      mstore\n      dup1\n      swap3\n      swap2\n      swap1\n      dup2\n      dup2\n      mstore\n      0x20\n      add\n      dup3\n      dup1\n      sload\n      tag_112\n      swap1\n      tag_72\n      jump\t// in\n    tag_112:\n      dup1\n      iszero\n      tag_113\n      jumpi\n      dup1\n      0x1f\n      lt\n      tag_114\n      jumpi\n      0x0100\n      dup1\n      dup4\n      sload\n      div\n      mul\n      dup4\n      mstore\n      swap2\n      0x20\n      add\n      swap2\n      jump(tag_113)\n    tag_114:\n      dup3\n      add\n      swap2\n      swap1\n      0x00\n      mstore\n      keccak256(0x00, 0x20)\n      swap1\n    tag_115:\n      dup2\n      sload\n      dup2\n      mstore\n      swap1\n      0x01\n      add\n      swap1\n      0x20\n      add\n      dup1\n      dup4\n      gt\n      tag_115\n      jumpi\n      dup3\n      swap1\n      sub\n      0x1f\n      and\n      dup3\n      add\n      swap2\n    tag_113:\n      pop\n      pop\n      pop\n      pop\n      pop\n      dup2\n      mstore\n      0x20\n      add\n      0x04\n      dup3\n      add\n      sload\n      dup2\n      mstore\n      0x20\n      add\n      0x05\n      dup3\n      add\n      sload\n      dup2\n      mstore\n      0x20\n      add\n      0x06\n      dup3\n      add\n      sload\n      dup2\n      mstore\n      pop\n      pop\n        /* \"contracts/MyblogApp.sol\":5108:5116  allPosts */\n      dup3\n        /* \"contracts/MyblogApp.sol\":5117:5118  i */\n      dup3\n        /* \"contracts/MyblogApp.sol\":5108:5119  allPosts[i] */\n      dup2\n      mload\n      dup2\n      lt\n      tag_116\n      jumpi\n      tag_117\n      tag_70\n      jump\t// in\n    tag_117:\n    tag_116:\n      0x20\n      mul\n      0x20\n      add\n      add\n        /* \"contracts/MyblogApp.sol\":5108:5143  allPosts[i] = posts[allPostsIds[i]] */\n      dup2\n      swap1\n      mstore\n      pop\n        /* \"contracts/MyblogApp.sol\":5088:5091  i++ */\n      dup1\n      dup1\n      0x01\n      add\n      swap2\n      pop\n      pop\n        /* \"contracts/MyblogApp.sol\":5048:5155  for(uint i = 0; i < allPostsIds.length; i++) {... */\n      jump(tag_95)\n    tag_96:\n      pop\n        /* \"contracts/MyblogApp.sol\":5172:5180  allPosts */\n      dup1\n        /* \"contracts/MyblogApp.sol\":5165:5180  return allPosts */\n      swap2\n      pop\n      pop\n        /* \"contracts/MyblogApp.sol\":4913:5188  function getAllPosts() public view returns(Post[] memory) {... */\n      swap1\n      jump\t// out\n        /* \"contracts/MyblogApp.sol\":2646:2992  function downvotePost(bytes32 _postId) public {... */\n    tag_26:\n        /* \"contracts/MyblogApp.sol\":2740:2741  0 */\n      0x00\n        /* \"contracts/MyblogApp.sol\":2732:2742  bytes32(0) */\n      0x00\n      shl\n        /* \"contracts/MyblogApp.sol\":2711:2716  posts */\n      0x02\n        /* \"contracts/MyblogApp.sol\":2711:2725  posts[_postId] */\n      0x00\n        /* \"contracts/MyblogApp.sol\":2717:2724  _postId */\n      dup4\n        /* \"contracts/MyblogApp.sol\":2711:2725  posts[_postId] */\n      dup2\n      mstore\n      0x20\n      add\n      swap1\n      dup2\n      mstore\n      0x20\n      add\n      0x00\n      keccak256\n        /* \"contracts/MyblogApp.sol\":2711:2728  posts[_postId].id */\n      0x00\n      add\n      sload\n        /* \"contracts/MyblogApp.sol\":2711:2742  posts[_postId].id != bytes32(0) */\n      sub\n        /* \"contracts/MyblogApp.sol\":2703:2767  require(posts[_postId].id != bytes32(0), \"Post does not exist.\") */\n      tag_119\n      jumpi\n      mload(0x40)\n      0x08c379a000000000000000000000000000000000000000000000000000000000\n      dup2\n      mstore\n      0x04\n      add\n      tag_120\n      swap1\n      tag_121\n      jump\t// in\n    tag_120:\n      mload(0x40)\n      dup1\n      swap2\n      sub\n      swap1\n      revert\n    tag_119:\n        /* \"contracts/MyblogApp.sol\":2787:2795  hasVoted */\n      0x04\n        /* \"contracts/MyblogApp.sol\":2787:2804  hasVoted[_postId] */\n      0x00\n        /* \"contracts/MyblogApp.sol\":2796:2803  _postId */\n      dup3\n        /* \"contracts/MyblogApp.sol\":2787:2804  hasVoted[_postId] */\n      dup2\n      mstore\n      0x20\n      add\n      swap1\n      dup2\n      mstore\n      0x20\n      add\n      0x00\n      keccak256\n        /* \"contracts/MyblogApp.sol\":2787:2816  hasVoted[_postId][msg.sender] */\n      0x00\n        /* \"contracts/MyblogApp.sol\":2805:2815  msg.sender */\n      caller\n        /* \"contracts/MyblogApp.sol\":2787:2816  hasVoted[_postId][msg.sender] */\n      0xffffffffffffffffffffffffffffffffffffffff\n      and\n      0xffffffffffffffffffffffffffffffffffffffff\n      and\n      dup2\n      mstore\n      0x20\n      add\n      swap1\n      dup2\n      mstore\n      0x20\n      add\n      0x00\n      keccak256\n      0x00\n      swap1\n      sload\n      swap1\n      0x0100\n      exp\n      swap1\n      div\n      0xff\n      and\n        /* \"contracts/MyblogApp.sol\":2786:2816  !hasVoted[_postId][msg.sender] */\n      iszero\n        /* \"contracts/MyblogApp.sol\":2778:2848  require(!hasVoted[_postId][msg.sender], \"Already voted on this post.\") */\n      tag_122\n      jumpi\n      mload(0x40)\n      0x08c379a000000000000000000000000000000000000000000000000000000000\n      dup2\n      mstore\n      0x04\n      add\n      tag_123\n      swap1\n      tag_124\n      jump\t// in\n    tag_123:\n      mload(0x40)\n      dup1\n      swap2\n      sub\n      swap1\n      revert\n    tag_122:\n        /* \"contracts/MyblogApp.sol\":2859:2864  posts */\n      0x02\n        /* \"contracts/MyblogApp.sol\":2859:2873  posts[_postId] */\n      0x00\n        /* \"contracts/MyblogApp.sol\":2865:2872  _postId */\n      dup3\n        /* \"contracts/MyblogApp.sol\":2859:2873  posts[_postId] */\n      dup2\n      mstore\n      0x20\n      add\n      swap1\n      dup2\n      mstore\n      0x20\n      add\n      0x00\n      keccak256\n        /* \"contracts/MyblogApp.sol\":2859:2882  posts[_postId].downvote */\n      0x05\n      add\n      0x00\n        /* \"contracts/MyblogApp.sol\":2859:2884  posts[_postId].downvote++ */\n      dup2\n      sload\n      dup1\n      swap3\n      swap2\n      swap1\n      tag_125\n      swap1\n      tag_126\n      jump\t// in\n    tag_125:\n      swap2\n      swap1\n      pop\n      sstore\n      pop\n        /* \"contracts/MyblogApp.sol\":2927:2931  true */\n      0x01\n        /* \"contracts/MyblogApp.sol\":2895:2903  hasVoted */\n      0x04\n        /* \"contracts/MyblogApp.sol\":2895:2912  hasVoted[_postId] */\n      0x00\n        /* \"contracts/MyblogApp.sol\":2904:2911  _postId */\n      dup4\n        /* \"contracts/MyblogApp.sol\":2895:2912  hasVoted[_postId] */\n      dup2\n      mstore\n      0x20\n      add\n      swap1\n      dup2\n      mstore\n      0x20\n      add\n      0x00\n      keccak256\n        /* \"contracts/MyblogApp.sol\":2895:2924  hasVoted[_postId][msg.sender] */\n      0x00\n        /* \"contracts/MyblogApp.sol\":2913:2923  msg.sender */\n      caller\n        /* \"contracts/MyblogApp.sol\":2895:2924  hasVoted[_postId][msg.sender] */\n      0xffffffffffffffffffffffffffffffffffffffff\n      and\n      0xffffffffffffffffffffffffffffffffffffffff\n      and\n      dup2\n      mstore\n      0x20\n      add\n      swap1\n      dup2\n      mstore\n      0x20\n      add\n      0x00\n      keccak256\n      0x00\n        /* \"contracts/MyblogApp.sol\":2895:2931  hasVoted[_postId][msg.sender] = true */\n      0x0100\n      exp\n      dup2\n      sload\n      dup2\n      0xff\n      mul\n      not\n      and\n      swap1\n      dup4\n      iszero\n      iszero\n      mul\n      or\n      swap1\n      sstore\n      pop\n        /* \"contracts/MyblogApp.sol\":2966:2976  msg.sender */\n      caller\n        /* \"contracts/MyblogApp.sol\":2947:2984  PostVoted(_postId, msg.sender, false) */\n      0xffffffffffffffffffffffffffffffffffffffff\n      and\n        /* \"contracts/MyblogApp.sol\":2957:2964  _postId */\n      dup2\n        /* \"contracts/MyblogApp.sol\":2947:2984  PostVoted(_postId, msg.sender, false) */\n      0xa7e4c5082f867ea22a45a95c2043209b9ce83d70ca31ccb947e67592ea14c4b1\n        /* \"contracts/MyblogApp.sol\":2978:2983  false */\n      0x00\n        /* \"contracts/MyblogApp.sol\":2947:2984  PostVoted(_postId, msg.sender, false) */\n      mload(0x40)\n      tag_127\n      swap2\n      swap1\n      tag_128\n      jump\t// in\n    tag_127:\n      mload(0x40)\n      dup1\n      swap2\n      sub\n      swap1\n      log3\n        /* \"contracts/MyblogApp.sol\":2646:2992  function downvotePost(bytes32 _postId) public {... */\n      pop\n      jump\t// out\n        /* \"contracts/MyblogApp.sol\":3882:4377  function upvoteComment(bytes32 _postId, uint _commentIndex) public {... */\n    tag_30:\n        /* \"contracts/MyblogApp.sol\":3984:3996  postComments */\n      0x03\n        /* \"contracts/MyblogApp.sol\":3984:4005  postComments[_postId] */\n      0x00\n        /* \"contracts/MyblogApp.sol\":3997:4004  _postId */\n      dup4\n        /* \"contracts/MyblogApp.sol\":3984:4005  postComments[_postId] */\n      dup2\n      mstore\n      0x20\n      add\n      swap1\n      dup2\n      mstore\n      0x20\n      add\n      0x00\n      keccak256\n        /* \"contracts/MyblogApp.sol\":3984:4012  postComments[_postId].length */\n      dup1\n      sload\n      swap1\n      pop\n        /* \"contracts/MyblogApp.sol\":3968:3981  _commentIndex */\n      dup2\n        /* \"contracts/MyblogApp.sol\":3968:4012  _commentIndex < postComments[_postId].length */\n      lt\n        /* \"contracts/MyblogApp.sol\":3960:4039  require(_commentIndex < postComments[_postId].length, \"Comment does not exist\") */\n      tag_130\n      jumpi\n      mload(0x40)\n      0x08c379a000000000000000000000000000000000000000000000000000000000\n      dup2\n      mstore\n      0x04\n      add\n      tag_131\n      swap1\n      tag_132\n      jump\t// in\n    tag_131:\n      mload(0x40)\n      dup1\n      swap2\n      sub\n      swap1\n      revert\n    tag_130:\n        /* \"contracts/MyblogApp.sol\":4059:4074  hasVotedComment */\n      0x05\n        /* \"contracts/MyblogApp.sol\":4059:4083  hasVotedComment[_postId] */\n      0x00\n        /* \"contracts/MyblogApp.sol\":4075:4082  _postId */\n      dup4\n        /* \"contracts/MyblogApp.sol\":4059:4083  hasVotedComment[_postId] */\n      dup2\n      mstore\n      0x20\n      add\n      swap1\n      dup2\n      mstore\n      0x20\n      add\n      0x00\n      keccak256\n        /* \"contracts/MyblogApp.sol\":4059:4095  hasVotedComment[_postId][msg.sender] */\n      0x00\n        /* \"contracts/MyblogApp.sol\":4084:4094  msg.sender */\n      caller\n        /* \"contracts/MyblogApp.sol\":4059:4095  hasVotedComment[_postId][msg.sender] */\n      0xffffffffffffffffffffffffffffffffffffffff\n      and\n      0xffffffffffffffffffffffffffffffffffffffff\n      and\n      dup2\n      mstore\n      0x20\n      add\n      swap1\n      dup2\n      mstore\n      0x20\n      add\n      0x00\n      keccak256\n        /* \"contracts/MyblogApp.sol\":4059:4110  hasVotedComment[_postId][msg.sender][_commentIndex] */\n      0x00\n        /* \"contracts/MyblogApp.sol\":4096:4109  _commentIndex */\n      dup3\n        /* \"contracts/MyblogApp.sol\":4059:4110  hasVotedComment[_postId][msg.sender][_commentIndex] */\n      dup2\n      mstore\n      0x20\n      add\n      swap1\n      dup2\n      mstore\n      0x20\n      add\n      0x00\n      keccak256\n      0x00\n      swap1\n      sload\n      swap1\n      0x0100\n      exp\n      swap1\n      div\n      0xff\n      and\n        /* \"contracts/MyblogApp.sol\":4058:4110  !hasVotedComment[_postId][msg.sender][_commentIndex] */\n      iszero\n        /* \"contracts/MyblogApp.sol\":4050:4144  require(!hasVotedComment[_postId][msg.sender][_commentIndex], \"Already voted on this comment\") */\n      tag_133\n      jumpi\n      mload(0x40)\n      0x08c379a000000000000000000000000000000000000000000000000000000000\n      dup2\n      mstore\n      0x04\n      add\n      tag_134\n      swap1\n      tag_135\n      jump\t// in\n    tag_134:\n      mload(0x40)\n      dup1\n      swap2\n      sub\n      swap1\n      revert\n    tag_133:\n        /* \"contracts/MyblogApp.sol\":4157:4169  postComments */\n      0x03\n        /* \"contracts/MyblogApp.sol\":4157:4178  postComments[_postId] */\n      0x00\n        /* \"contracts/MyblogApp.sol\":4170:4177  _postId */\n      dup4\n        /* \"contracts/MyblogApp.sol\":4157:4178  postComments[_postId] */\n      dup2\n      mstore\n      0x20\n      add\n      swap1\n      dup2\n      mstore\n      0x20\n      add\n      0x00\n      keccak256\n        /* \"contracts/MyblogApp.sol\":4179:4192  _commentIndex */\n      dup2\n        /* \"contracts/MyblogApp.sol\":4157:4193  postComments[_postId][_commentIndex] */\n      dup2\n      sload\n      dup2\n      lt\n      tag_136\n      jumpi\n      tag_137\n      tag_70\n      jump\t// in\n    tag_137:\n    tag_136:\n      swap1\n      0x00\n      mstore\n      keccak256(0x00, 0x20)\n      swap1\n      0x07\n      mul\n      add\n        /* \"contracts/MyblogApp.sol\":4157:4200  postComments[_postId][_commentIndex].upvote */\n      0x04\n      add\n      0x00\n        /* \"contracts/MyblogApp.sol\":4157:4202  postComments[_postId][_commentIndex].upvote++ */\n      dup2\n      sload\n      dup1\n      swap3\n      swap2\n      swap1\n      tag_139\n      swap1\n      tag_126\n      jump\t// in\n    tag_139:\n      swap2\n      swap1\n      pop\n      sstore\n      pop\n        /* \"contracts/MyblogApp.sol\":4267:4271  true */\n      0x01\n        /* \"contracts/MyblogApp.sol\":4213:4228  hasVotedComment */\n      0x05\n        /* \"contracts/MyblogApp.sol\":4213:4237  hasVotedComment[_postId] */\n      0x00\n        /* \"contracts/MyblogApp.sol\":4229:4236  _postId */\n      dup5\n        /* \"contracts/MyblogApp.sol\":4213:4237  hasVotedComment[_postId] */\n      dup2\n      mstore\n      0x20\n      add\n      swap1\n      dup2\n      mstore\n      0x20\n      add\n      0x00\n      keccak256\n        /* \"contracts/MyblogApp.sol\":4213:4249  hasVotedComment[_postId][msg.sender] */\n      0x00\n        /* \"contracts/MyblogApp.sol\":4238:4248  msg.sender */\n      caller\n        /* \"contracts/MyblogApp.sol\":4213:4249  hasVotedComment[_postId][msg.sender] */\n      0xffffffffffffffffffffffffffffffffffffffff\n      and\n      0xffffffffffffffffffffffffffffffffffffffff\n      and\n      dup2\n      mstore\n      0x20\n      add\n      swap1\n      dup2\n      mstore\n      0x20\n      add\n      0x00\n      keccak256\n        /* \"contracts/MyblogApp.sol\":4213:4264  hasVotedComment[_postId][msg.sender][_commentIndex] */\n      0x00\n        /* \"contracts/MyblogApp.sol\":4250:4263  _commentIndex */\n      dup4\n        /* \"contracts/MyblogApp.sol\":4213:4264  hasVotedComment[_postId][msg.sender][_commentIndex] */\n      dup2\n      mstore\n      0x20\n      add\n      swap1\n      dup2\n      mstore\n      0x20\n      add\n      0x00\n      keccak256\n      0x00\n        /* \"contracts/MyblogApp.sol\":4213:4271  hasVotedComment[_postId][msg.sender][_commentIndex] = true */\n      0x0100\n      exp\n      dup2\n      sload\n      dup2\n      0xff\n      mul\n      not\n      and\n      swap1\n      dup4\n      iszero\n      iszero\n      mul\n      or\n      swap1\n      sstore\n      pop\n        /* \"contracts/MyblogApp.sol\":4311:4323  postComments */\n      0x03\n        /* \"contracts/MyblogApp.sol\":4311:4332  postComments[_postId] */\n      0x00\n        /* \"contracts/MyblogApp.sol\":4324:4331  _postId */\n      dup4\n        /* \"contracts/MyblogApp.sol\":4311:4332  postComments[_postId] */\n      dup2\n      mstore\n      0x20\n      add\n      swap1\n      dup2\n      mstore\n      0x20\n      add\n      0x00\n      keccak256\n        /* \"contracts/MyblogApp.sol\":4333:4346  _commentIndex */\n      dup2\n        /* \"contracts/MyblogApp.sol\":4311:4347  postComments[_postId][_commentIndex] */\n      dup2\n      sload\n      dup2\n      lt\n      tag_140\n      jumpi\n      tag_141\n      tag_70\n      jump\t// in\n    tag_141:\n    tag_140:\n      swap1\n      0x00\n      mstore\n      keccak256(0x00, 0x20)\n      swap1\n      0x07\n      mul\n      add\n        /* \"contracts/MyblogApp.sol\":4311:4350  postComments[_postId][_commentIndex].id */\n      0x00\n      add\n      sload\n        /* \"contracts/MyblogApp.sol\":4302:4309  _postId */\n      dup3\n        /* \"contracts/MyblogApp.sol\":4289:4369  CommentVoted(_postId, postComments[_postId][_commentIndex].id, msg.sender, true) */\n      0xa718b91703005c7ff3c85ef47cb2b96b8bf518a0934598a085e074a84ad79ba1\n        /* \"contracts/MyblogApp.sol\":4352:4362  msg.sender */\n      caller\n        /* \"contracts/MyblogApp.sol\":4364:4368  true */\n      0x01\n        /* \"contracts/MyblogApp.sol\":4289:4369  CommentVoted(_postId, postComments[_postId][_commentIndex].id, msg.sender, true) */\n      mload(0x40)\n      tag_143\n      swap3\n      swap2\n      swap1\n      tag_144\n      jump\t// in\n    tag_143:\n      mload(0x40)\n      dup1\n      swap2\n      sub\n      swap1\n      log3\n        /* \"contracts/MyblogApp.sol\":3882:4377  function upvoteComment(bytes32 _postId, uint _commentIndex) public {... */\n      pop\n      pop\n      jump\t// out\n        /* \"contracts/MyblogApp.sol\":3028:3842  function addComment(bytes32 _postId, string memory _commenterName, string memory _content) public {... */\n    tag_34:\n        /* \"contracts/MyblogApp.sol\":3174:3175  0 */\n      0x00\n        /* \"contracts/MyblogApp.sol\":3166:3176  bytes32(0) */\n      0x00\n      shl\n        /* \"contracts/MyblogApp.sol\":3145:3150  posts */\n      0x02\n        /* \"contracts/MyblogApp.sol\":3145:3159  posts[_postId] */\n      0x00\n        /* \"contracts/MyblogApp.sol\":3151:3158  _postId */\n      dup6\n        /* \"contracts/MyblogApp.sol\":3145:3159  posts[_postId] */\n      dup2\n      mstore\n      0x20\n      add\n      swap1\n      dup2\n      mstore\n      0x20\n      add\n      0x00\n      keccak256\n        /* \"contracts/MyblogApp.sol\":3145:3162  posts[_postId].id */\n      0x00\n      add\n      sload\n        /* \"contracts/MyblogApp.sol\":3145:3176  posts[_postId].id != bytes32(0) */\n      sub\n        /* \"contracts/MyblogApp.sol\":3137:3201  require(posts[_postId].id != bytes32(0), \"Post does not exist.\") */\n      tag_146\n      jumpi\n      mload(0x40)\n      0x08c379a000000000000000000000000000000000000000000000000000000000\n      dup2\n      mstore\n      0x04\n      add\n      tag_147\n      swap1\n      tag_121\n      jump\t// in\n    tag_147:\n      mload(0x40)\n      dup1\n      swap2\n      sub\n      swap1\n      revert\n    tag_146:\n        /* \"contracts/MyblogApp.sol\":3252:3254  32 */\n      0x20\n        /* \"contracts/MyblogApp.sol\":3226:3240  _commenterName */\n      dup3\n        /* \"contracts/MyblogApp.sol\":3220:3248  bytes(_commenterName).length */\n      mload\n        /* \"contracts/MyblogApp.sol\":3220:3254  bytes(_commenterName).length <= 32 */\n      gt\n      iszero\n        /* \"contracts/MyblogApp.sol\":3212:3282  require(bytes(_commenterName).length <= 32, \"Commenter name too long\") */\n      tag_148\n      jumpi\n      mload(0x40)\n      0x08c379a000000000000000000000000000000000000000000000000000000000\n      dup2\n      mstore\n      0x04\n      add\n      tag_149\n      swap1\n      tag_150\n      jump\t// in\n    tag_149:\n      mload(0x40)\n      dup1\n      swap2\n      sub\n      swap1\n      revert\n    tag_148:\n        /* \"contracts/MyblogApp.sol\":3295:3312  bytes32 commentId */\n      0x00\n        /* \"contracts/MyblogApp.sol\":3342:3352  msg.sender */\n      caller\n        /* \"contracts/MyblogApp.sol\":3354:3369  block.timestamp */\n      timestamp\n        /* \"contracts/MyblogApp.sol\":3371:3379  _content */\n      dup4\n        /* \"contracts/MyblogApp.sol\":3325:3380  abi.encodePacked(msg.sender, block.timestamp, _content) */\n      add(0x20, mload(0x40))\n      tag_151\n      swap4\n      swap3\n      swap2\n      swap1\n      tag_152\n      jump\t// in\n    tag_151:\n      mload(0x40)\n      0x20\n      dup2\n      dup4\n      sub\n      sub\n      dup2\n      mstore\n      swap1\n      0x40\n      mstore\n        /* \"contracts/MyblogApp.sol\":3315:3381  keccak256(abi.encodePacked(msg.sender, block.timestamp, _content)) */\n      dup1\n      mload\n      swap1\n      0x20\n      add\n      keccak256\n        /* \"contracts/MyblogApp.sol\":3295:3381  bytes32 commentId = keccak256(abi.encodePacked(msg.sender, block.timestamp, _content)) */\n      swap1\n      pop\n        /* \"contracts/MyblogApp.sol\":3392:3417  Comment memory newComment */\n      0x00\n        /* \"contracts/MyblogApp.sol\":3420:3678  Comment({... */\n      mload(0x40)\n      dup1\n      0xe0\n      add\n      0x40\n      mstore\n      dup1\n        /* \"contracts/MyblogApp.sol\":3447:3456  commentId */\n      dup4\n        /* \"contracts/MyblogApp.sol\":3420:3678  Comment({... */\n      dup2\n      mstore\n      0x20\n      add\n        /* \"contracts/MyblogApp.sol\":3489:3499  msg.sender */\n      caller\n        /* \"contracts/MyblogApp.sol\":3420:3678  Comment({... */\n      0xffffffffffffffffffffffffffffffffffffffff\n      and\n      dup2\n      mstore\n      0x20\n      add\n        /* \"contracts/MyblogApp.sol\":3529:3543  _commenterName */\n      dup6\n        /* \"contracts/MyblogApp.sol\":3420:3678  Comment({... */\n      dup2\n      mstore\n      0x20\n      add\n        /* \"contracts/MyblogApp.sol\":3567:3575  _content */\n      dup5\n        /* \"contracts/MyblogApp.sol\":3420:3678  Comment({... */\n      dup2\n      mstore\n      0x20\n      add\n        /* \"contracts/MyblogApp.sol\":3598:3599  0 */\n      0x00\n        /* \"contracts/MyblogApp.sol\":3420:3678  Comment({... */\n      dup2\n      mstore\n      0x20\n      add\n        /* \"contracts/MyblogApp.sol\":3624:3625  0 */\n      0x00\n        /* \"contracts/MyblogApp.sol\":3420:3678  Comment({... */\n      dup2\n      mstore\n      0x20\n      add\n        /* \"contracts/MyblogApp.sol\":3651:3666  block.timestamp */\n      timestamp\n        /* \"contracts/MyblogApp.sol\":3420:3678  Comment({... */\n      dup2\n      mstore\n      pop\n        /* \"contracts/MyblogApp.sol\":3392:3678  Comment memory newComment = Comment({... */\n      swap1\n      pop\n        /* \"contracts/MyblogApp.sol\":3691:3703  postComments */\n      0x03\n        /* \"contracts/MyblogApp.sol\":3691:3712  postComments[_postId] */\n      0x00\n        /* \"contracts/MyblogApp.sol\":3704:3711  _postId */\n      dup7\n        /* \"contracts/MyblogApp.sol\":3691:3712  postComments[_postId] */\n      dup2\n      mstore\n      0x20\n      add\n      swap1\n      dup2\n      mstore\n      0x20\n      add\n      0x00\n      keccak256\n        /* \"contracts/MyblogApp.sol\":3718:3728  newComment */\n      dup2\n        /* \"contracts/MyblogApp.sol\":3691:3729  postComments[_postId].push(newComment) */\n      swap1\n      dup1\n      0x01\n      dup2\n      sload\n      add\n      dup1\n      dup3\n      sstore\n      dup1\n      swap2\n      pop\n      pop\n      0x01\n      swap1\n      sub\n      swap1\n      0x00\n      mstore\n      keccak256(0x00, 0x20)\n      swap1\n      0x07\n      mul\n      add\n      0x00\n      swap1\n      swap2\n      swap1\n      swap2\n      swap1\n      swap2\n      pop\n      0x00\n      dup3\n      add\n      mload\n      dup2\n      0x00\n      add\n      sstore\n      0x20\n      dup3\n      add\n      mload\n      dup2\n      0x01\n      add\n      exp(0x0100, 0x00)\n      dup2\n      sload\n      dup2\n      0xffffffffffffffffffffffffffffffffffffffff\n      mul\n      not\n      and\n      swap1\n      dup4\n      0xffffffffffffffffffffffffffffffffffffffff\n      and\n      mul\n      or\n      swap1\n      sstore\n      pop\n      0x40\n      dup3\n      add\n      mload\n      dup2\n      0x02\n      add\n      swap1\n      dup2\n      tag_154\n      swap2\n      swap1\n      tag_155\n      jump\t// in\n    tag_154:\n      pop\n      0x60\n      dup3\n      add\n      mload\n      dup2\n      0x03\n      add\n      swap1\n      dup2\n      tag_156\n      swap2\n      swap1\n      tag_155\n      jump\t// in\n    tag_156:\n      pop\n      0x80\n      dup3\n      add\n      mload\n      dup2\n      0x04\n      add\n      sstore\n      0xa0\n      dup3\n      add\n      mload\n      dup2\n      0x05\n      add\n      sstore\n      0xc0\n      dup3\n      add\n      mload\n      dup2\n      0x06\n      add\n      sstore\n      pop\n      pop\n        /* \"contracts/MyblogApp.sol\":3769:3778  commentId */\n      dup2\n        /* \"contracts/MyblogApp.sol\":3760:3767  _postId */\n      dup6\n        /* \"contracts/MyblogApp.sol\":3747:3834  CommentAdded(_postId, commentId, msg.sender, _commenterName, _content, block.timestamp) */\n      0x121f72518586f939bfb34c62bbf7d31b0a8ae8ecbcac0869550705ee4cff80f5\n        /* \"contracts/MyblogApp.sol\":3780:3790  msg.sender */\n      caller\n        /* \"contracts/MyblogApp.sol\":3792:3806  _commenterName */\n      dup8\n        /* \"contracts/MyblogApp.sol\":3808:3816  _content */\n      dup8\n        /* \"contracts/MyblogApp.sol\":3818:3833  block.timestamp */\n      timestamp\n        /* \"contracts/MyblogApp.sol\":3747:3834  CommentAdded(_postId, commentId, msg.sender, _commenterName, _content, block.timestamp) */\n      mload(0x40)\n      tag_157\n      swap5\n      swap4\n      swap3\n      swap2\n      swap1\n      tag_158\n      jump\t// in\n    tag_157:\n      mload(0x40)\n      dup1\n      swap2\n      sub\n      swap1\n      log3\n        /* \"contracts/MyblogApp.sol\":3126:3842  {... */\n      pop\n      pop\n        /* \"contracts/MyblogApp.sol\":3028:3842  function addComment(bytes32 _postId, string memory _commenterName, string memory _content) public {... */\n      pop\n      pop\n      pop\n      jump\t// out\n        /* \"contracts/MyblogApp.sol\":5596:6077  function getPostById(bytes32 _postId) public view returns (... */\n    tag_37:\n        /* \"contracts/MyblogApp.sol\":5665:5675  bytes32 id */\n      0x00\n        /* \"contracts/MyblogApp.sol\":5686:5706  string memory author */\n      0x60\n        /* \"contracts/MyblogApp.sol\":5717:5736  string memory title */\n      dup1\n        /* \"contracts/MyblogApp.sol\":5747:5772  string memory contentHash */\n      0x60\n        /* \"contracts/MyblogApp.sol\":5783:5797  uint256 upvote */\n      0x00\n        /* \"contracts/MyblogApp.sol\":5808:5824  uint256 downvote */\n      0x00\n        /* \"contracts/MyblogApp.sol\":5835:5852  uint256 timestamp */\n      0x00\n        /* \"contracts/MyblogApp.sol\":5908:5909  0 */\n      0x00\n        /* \"contracts/MyblogApp.sol\":5900:5910  bytes32(0) */\n      0x00\n      shl\n        /* \"contracts/MyblogApp.sol\":5879:5884  posts */\n      0x02\n        /* \"contracts/MyblogApp.sol\":5879:5893  posts[_postId] */\n      0x00\n        /* \"contracts/MyblogApp.sol\":5885:5892  _postId */\n      dup11\n        /* \"contracts/MyblogApp.sol\":5879:5893  posts[_postId] */\n      dup2\n      mstore\n      0x20\n      add\n      swap1\n      dup2\n      mstore\n      0x20\n      add\n      0x00\n      keccak256\n        /* \"contracts/MyblogApp.sol\":5879:5896  posts[_postId].id */\n      0x00\n      add\n      sload\n        /* \"contracts/MyblogApp.sol\":5879:5910  posts[_postId].id != bytes32(0) */\n      sub\n        /* \"contracts/MyblogApp.sol\":5871:5935  require(posts[_postId].id != bytes32(0), \"Post does not exist.\") */\n      tag_160\n      jumpi\n      mload(0x40)\n      0x08c379a000000000000000000000000000000000000000000000000000000000\n      dup2\n      mstore\n      0x04\n      add\n      tag_161\n      swap1\n      tag_121\n      jump\t// in\n    tag_161:\n      mload(0x40)\n      dup1\n      swap2\n      sub\n      swap1\n      revert\n    tag_160:\n        /* \"contracts/MyblogApp.sol\":5946:5959  Post memory p */\n      0x00\n        /* \"contracts/MyblogApp.sol\":5962:5967  posts */\n      0x02\n        /* \"contracts/MyblogApp.sol\":5962:5976  posts[_postId] */\n      0x00\n        /* \"contracts/MyblogApp.sol\":5968:5975  _postId */\n      dup11\n        /* \"contracts/MyblogApp.sol\":5962:5976  posts[_postId] */\n      dup2\n      mstore\n      0x20\n      add\n      swap1\n      dup2\n      mstore\n      0x20\n      add\n      0x00\n      keccak256\n        /* \"contracts/MyblogApp.sol\":5946:5976  Post memory p = posts[_postId] */\n      mload(0x40)\n      dup1\n      0xe0\n      add\n      0x40\n      mstore\n      swap1\n      dup2\n      0x00\n      dup3\n      add\n      sload\n      dup2\n      mstore\n      0x20\n      add\n      0x01\n      dup3\n      add\n      dup1\n      sload\n      tag_162\n      swap1\n      tag_72\n      jump\t// in\n    tag_162:\n      dup1\n      0x1f\n      add\n      0x20\n      dup1\n      swap2\n      div\n      mul\n      0x20\n      add\n      mload(0x40)\n      swap1\n      dup2\n      add\n      0x40\n      mstore\n      dup1\n      swap3\n      swap2\n      swap1\n      dup2\n      dup2\n      mstore\n      0x20\n      add\n      dup3\n      dup1\n      sload\n      tag_163\n      swap1\n      tag_72\n      jump\t// in\n    tag_163:\n      dup1\n      iszero\n      tag_164\n      jumpi\n      dup1\n      0x1f\n      lt\n      tag_165\n      jumpi\n      0x0100\n      dup1\n      dup4\n      sload\n      div\n      mul\n      dup4\n      mstore\n      swap2\n      0x20\n      add\n      swap2\n      jump(tag_164)\n    tag_165:\n      dup3\n      add\n      swap2\n      swap1\n      0x00\n      mstore\n      keccak256(0x00, 0x20)\n      swap1\n    tag_166:\n      dup2\n      sload\n      dup2\n      mstore\n      swap1\n      0x01\n      add\n      swap1\n      0x20\n      add\n      dup1\n      dup4\n      gt\n      tag_166\n      jumpi\n      dup3\n      swap1\n      sub\n      0x1f\n      and\n      dup3\n      add\n      swap2\n    tag_164:\n      pop\n      pop\n      pop\n      pop\n      pop\n      dup2\n      mstore\n      0x20\n      add\n      0x02\n      dup3\n      add\n      dup1\n      sload\n      tag_167\n      swap1\n      tag_72\n      jump\t// in\n    tag_167:\n      dup1\n      0x1f\n      add\n      0x20\n      dup1\n      swap2\n      div\n      mul\n      0x20\n      add\n      mload(0x40)\n      swap1\n      dup2\n      add\n      0x40\n      mstore\n      dup1\n      swap3\n      swap2\n      swap1\n      dup2\n      dup2\n      mstore\n      0x20\n      add\n      dup3\n      dup1\n      sload\n      tag_168\n      swap1\n      tag_72\n      jump\t// in\n    tag_168:\n      dup1\n      iszero\n      tag_169\n      jumpi\n      dup1\n      0x1f\n      lt\n      tag_170\n      jumpi\n      0x0100\n      dup1\n      dup4\n      sload\n      div\n      mul\n      dup4\n      mstore\n      swap2\n      0x20\n      add\n      swap2\n      jump(tag_169)\n    tag_170:\n      dup3\n      add\n      swap2\n      swap1\n      0x00\n      mstore\n      keccak256(0x00, 0x20)\n      swap1\n    tag_171:\n      dup2\n      sload\n      dup2\n      mstore\n      swap1\n      0x01\n      add\n      swap1\n      0x20\n      add\n      dup1\n      dup4\n      gt\n      tag_171\n      jumpi\n      dup3\n      swap1\n      sub\n      0x1f\n      and\n      dup3\n      add\n      swap2\n    tag_169:\n      pop\n      pop\n      pop\n      pop\n      pop\n      dup2\n      mstore\n      0x20\n      add\n      0x03\n      dup3\n      add\n      dup1\n      sload\n      tag_172\n      swap1\n      tag_72\n      jump\t// in\n    tag_172:\n      dup1\n      0x1f\n      add\n      0x20\n      dup1\n      swap2\n      div\n      mul\n      0x20\n      add\n      mload(0x40)\n      swap1\n      dup2\n      add\n      0x40\n      mstore\n      dup1\n      swap3\n      swap2\n      swap1\n      dup2\n      dup2\n      mstore\n      0x20\n      add\n      dup3\n      dup1\n      sload\n      tag_173\n      swap1\n      tag_72\n      jump\t// in\n    tag_173:\n      dup1\n      iszero\n      tag_174\n      jumpi\n      dup1\n      0x1f\n      lt\n      tag_175\n      jumpi\n      0x0100\n      dup1\n      dup4\n      sload\n      div\n      mul\n      dup4\n      mstore\n      swap2\n      0x20\n      add\n      swap2\n      jump(tag_174)\n    tag_175:\n      dup3\n      add\n      swap2\n      swap1\n      0x00\n      mstore\n      keccak256(0x00, 0x20)\n      swap1\n    tag_176:\n      dup2\n      sload\n      dup2\n      mstore\n      swap1\n      0x01\n      add\n      swap1\n      0x20\n      add\n      dup1\n      dup4\n      gt\n      tag_176\n      jumpi\n      dup3\n      swap1\n      sub\n      0x1f\n      and\n      dup3\n      add\n      swap2\n    tag_174:\n      pop\n      pop\n      pop\n      pop\n      pop\n      dup2\n      mstore\n      0x20\n      add\n      0x04\n      dup3\n      add\n      sload\n      dup2\n      mstore\n      0x20\n      add\n      0x05\n      dup3\n      add\n      sload\n      dup2\n      mstore\n      0x20\n      add\n      0x06\n      dup3\n      add\n      sload\n      dup2\n      mstore\n      pop\n      pop\n      swap1\n      pop\n        /* \"contracts/MyblogApp.sol\":5995:5996  p */\n      dup1\n        /* \"contracts/MyblogApp.sol\":5995:5999  p.id */\n      0x00\n      add\n      mload\n        /* \"contracts/MyblogApp.sol\":6001:6002  p */\n      dup2\n        /* \"contracts/MyblogApp.sol\":6001:6009  p.author */\n      0x20\n      add\n      mload\n        /* \"contracts/MyblogApp.sol\":6011:6012  p */\n      dup3\n        /* \"contracts/MyblogApp.sol\":6011:6018  p.title */\n      0x40\n      add\n      mload\n        /* \"contracts/MyblogApp.sol\":6020:6021  p */\n      dup4\n        /* \"contracts/MyblogApp.sol\":6020:6033  p.contentHash */\n      0x60\n      add\n      mload\n        /* \"contracts/MyblogApp.sol\":6035:6036  p */\n      dup5\n        /* \"contracts/MyblogApp.sol\":6035:6043  p.upvote */\n      0x80\n      add\n      mload\n        /* \"contracts/MyblogApp.sol\":6045:6046  p */\n      dup6\n        /* \"contracts/MyblogApp.sol\":6045:6055  p.downvote */\n      0xa0\n      add\n      mload\n        /* \"contracts/MyblogApp.sol\":6057:6058  p */\n      dup7\n        /* \"contracts/MyblogApp.sol\":6057:6068  p.timestamp */\n      0xc0\n      add\n      mload\n        /* \"contracts/MyblogApp.sol\":5987:6069  return (p.id, p.author, p.title, p.contentHash, p.upvote, p.downvote, p.timestamp) */\n      swap8\n      pop\n      swap8\n      pop\n      swap8\n      pop\n      swap8\n      pop\n      swap8\n      pop\n      swap8\n      pop\n      swap8\n      pop\n      pop\n        /* \"contracts/MyblogApp.sol\":5596:6077  function getPostById(bytes32 _postId) public view returns (... */\n      swap2\n      swap4\n      swap6\n      swap8\n      swap1\n      swap3\n      swap5\n      swap7\n      pop\n      jump\t// out\n        /* \"contracts/MyblogApp.sol\":4385:4885  function downvoteComment(bytes32 _postId, uint _commentIndex) public {... */\n    tag_42:\n        /* \"contracts/MyblogApp.sol\":4489:4501  postComments */\n      0x03\n        /* \"contracts/MyblogApp.sol\":4489:4510  postComments[_postId] */\n      0x00\n        /* \"contracts/MyblogApp.sol\":4502:4509  _postId */\n      dup4\n        /* \"contracts/MyblogApp.sol\":4489:4510  postComments[_postId] */\n      dup2\n      mstore\n      0x20\n      add\n      swap1\n      dup2\n      mstore\n      0x20\n      add\n      0x00\n      keccak256\n        /* \"contracts/MyblogApp.sol\":4489:4517  postComments[_postId].length */\n      dup1\n      sload\n      swap1\n      pop\n        /* \"contracts/MyblogApp.sol\":4473:4486  _commentIndex */\n      dup2\n        /* \"contracts/MyblogApp.sol\":4473:4517  _commentIndex < postComments[_postId].length */\n      lt\n        /* \"contracts/MyblogApp.sol\":4465:4544  require(_commentIndex < postComments[_postId].length, \"Comment does not exist\") */\n      tag_178\n      jumpi\n      mload(0x40)\n      0x08c379a000000000000000000000000000000000000000000000000000000000\n      dup2\n      mstore\n      0x04\n      add\n      tag_179\n      swap1\n      tag_132\n      jump\t// in\n    tag_179:\n      mload(0x40)\n      dup1\n      swap2\n      sub\n      swap1\n      revert\n    tag_178:\n        /* \"contracts/MyblogApp.sol\":4564:4579  hasVotedComment */\n      0x05\n        /* \"contracts/MyblogApp.sol\":4564:4588  hasVotedComment[_postId] */\n      0x00\n        /* \"contracts/MyblogApp.sol\":4580:4587  _postId */\n      dup4\n        /* \"contracts/MyblogApp.sol\":4564:4588  hasVotedComment[_postId] */\n      dup2\n      mstore\n      0x20\n      add\n      swap1\n      dup2\n      mstore\n      0x20\n      add\n      0x00\n      keccak256\n        /* \"contracts/MyblogApp.sol\":4564:4600  hasVotedComment[_postId][msg.sender] */\n      0x00\n        /* \"contracts/MyblogApp.sol\":4589:4599  msg.sender */\n      caller\n        /* \"contracts/MyblogApp.sol\":4564:4600  hasVotedComment[_postId][msg.sender] */\n      0xffffffffffffffffffffffffffffffffffffffff\n      and\n      0xffffffffffffffffffffffffffffffffffffffff\n      and\n      dup2\n      mstore\n      0x20\n      add\n      swap1\n      dup2\n      mstore\n      0x20\n      add\n      0x00\n      keccak256\n        /* \"contracts/MyblogApp.sol\":4564:4615  hasVotedComment[_postId][msg.sender][_commentIndex] */\n      0x00\n        /* \"contracts/MyblogApp.sol\":4601:4614  _commentIndex */\n      dup3\n        /* \"contracts/MyblogApp.sol\":4564:4615  hasVotedComment[_postId][msg.sender][_commentIndex] */\n      dup2\n      mstore\n      0x20\n      add\n      swap1\n      dup2\n      mstore\n      0x20\n      add\n      0x00\n      keccak256\n      0x00\n      swap1\n      sload\n      swap1\n      0x0100\n      exp\n      swap1\n      div\n      0xff\n      and\n        /* \"contracts/MyblogApp.sol\":4563:4615  !hasVotedComment[_postId][msg.sender][_commentIndex] */\n      iszero\n        /* \"contracts/MyblogApp.sol\":4555:4649  require(!hasVotedComment[_postId][msg.sender][_commentIndex], \"Already voted on this comment\") */\n      tag_180\n      jumpi\n      mload(0x40)\n      0x08c379a000000000000000000000000000000000000000000000000000000000\n      dup2\n      mstore\n      0x04\n      add\n      tag_181\n      swap1\n      tag_135\n      jump\t// in\n    tag_181:\n      mload(0x40)\n      dup1\n      swap2\n      sub\n      swap1\n      revert\n    tag_180:\n        /* \"contracts/MyblogApp.sol\":4662:4674  postComments */\n      0x03\n        /* \"contracts/MyblogApp.sol\":4662:4683  postComments[_postId] */\n      0x00\n        /* \"contracts/MyblogApp.sol\":4675:4682  _postId */\n      dup4\n        /* \"contracts/MyblogApp.sol\":4662:4683  postComments[_postId] */\n      dup2\n      mstore\n      0x20\n      add\n      swap1\n      dup2\n      mstore\n      0x20\n      add\n      0x00\n      keccak256\n        /* \"contracts/MyblogApp.sol\":4684:4697  _commentIndex */\n      dup2\n        /* \"contracts/MyblogApp.sol\":4662:4698  postComments[_postId][_commentIndex] */\n      dup2\n      sload\n      dup2\n      lt\n      tag_182\n      jumpi\n      tag_183\n      tag_70\n      jump\t// in\n    tag_183:\n    tag_182:\n      swap1\n      0x00\n      mstore\n      keccak256(0x00, 0x20)\n      swap1\n      0x07\n      mul\n      add\n        /* \"contracts/MyblogApp.sol\":4662:4707  postComments[_postId][_commentIndex].downvote */\n      0x05\n      add\n      0x00\n        /* \"contracts/MyblogApp.sol\":4662:4709  postComments[_postId][_commentIndex].downvote++ */\n      dup2\n      sload\n      dup1\n      swap3\n      swap2\n      swap1\n      tag_185\n      swap1\n      tag_126\n      jump\t// in\n    tag_185:\n      swap2\n      swap1\n      pop\n      sstore\n      pop\n        /* \"contracts/MyblogApp.sol\":4774:4778  true */\n      0x01\n        /* \"contracts/MyblogApp.sol\":4720:4735  hasVotedComment */\n      0x05\n        /* \"contracts/MyblogApp.sol\":4720:4744  hasVotedComment[_postId] */\n      0x00\n        /* \"contracts/MyblogApp.sol\":4736:4743  _postId */\n      dup5\n        /* \"contracts/MyblogApp.sol\":4720:4744  hasVotedComment[_postId] */\n      dup2\n      mstore\n      0x20\n      add\n      swap1\n      dup2\n      mstore\n      0x20\n      add\n      0x00\n      keccak256\n        /* \"contracts/MyblogApp.sol\":4720:4756  hasVotedComment[_postId][msg.sender] */\n      0x00\n        /* \"contracts/MyblogApp.sol\":4745:4755  msg.sender */\n      caller\n        /* \"contracts/MyblogApp.sol\":4720:4756  hasVotedComment[_postId][msg.sender] */\n      0xffffffffffffffffffffffffffffffffffffffff\n      and\n      0xffffffffffffffffffffffffffffffffffffffff\n      and\n      dup2\n      mstore\n      0x20\n      add\n      swap1\n      dup2\n      mstore\n      0x20\n      add\n      0x00\n      keccak256\n        /* \"contracts/MyblogApp.sol\":4720:4771  hasVotedComment[_postId][msg.sender][_commentIndex] */\n      0x00\n        /* \"contracts/MyblogApp.sol\":4757:4770  _commentIndex */\n      dup4\n        /* \"contracts/MyblogApp.sol\":4720:4771  hasVotedComment[_postId][msg.sender][_commentIndex] */\n      dup2\n      mstore\n      0x20\n      add\n      swap1\n      dup2\n      mstore\n      0x20\n      add\n      0x00\n      keccak256\n      0x00\n        /* \"contracts/MyblogApp.sol\":4720:4778  hasVotedComment[_postId][msg.sender][_commentIndex] = true */\n      0x0100\n      exp\n      dup2\n      sload\n      dup2\n      0xff\n      mul\n      not\n      and\n      swap1\n      dup4\n      iszero\n      iszero\n      mul\n      or\n      swap1\n      sstore\n      pop\n        /* \"contracts/MyblogApp.sol\":4818:4830  postComments */\n      0x03\n        /* \"contracts/MyblogApp.sol\":4818:4839  postComments[_postId] */\n      0x00\n        /* \"contracts/MyblogApp.sol\":4831:4838  _postId */\n      dup4\n        /* \"contracts/MyblogApp.sol\":4818:4839  postComments[_postId] */\n      dup2\n      mstore\n      0x20\n      add\n      swap1\n      dup2\n      mstore\n      0x20\n      add\n      0x00\n      keccak256\n        /* \"contracts/MyblogApp.sol\":4840:4853  _commentIndex */\n      dup2\n        /* \"contracts/MyblogApp.sol\":4818:4854  postComments[_postId][_commentIndex] */\n      dup2\n      sload\n      dup2\n      lt\n      tag_186\n      jumpi\n      tag_187\n      tag_70\n      jump\t// in\n    tag_187:\n    tag_186:\n      swap1\n      0x00\n      mstore\n      keccak256(0x00, 0x20)\n      swap1\n      0x07\n      mul\n      add\n        /* \"contracts/MyblogApp.sol\":4818:4857  postComments[_postId][_commentIndex].id */\n      0x00\n      add\n      sload\n        /* \"contracts/MyblogApp.sol\":4809:4816  _postId */\n      dup3\n        /* \"contracts/MyblogApp.sol\":4796:4877  CommentVoted(_postId, postComments[_postId][_commentIndex].id, msg.sender, false) */\n      0xa718b91703005c7ff3c85ef47cb2b96b8bf518a0934598a085e074a84ad79ba1\n        /* \"contracts/MyblogApp.sol\":4859:4869  msg.sender */\n      caller\n        /* \"contracts/MyblogApp.sol\":4871:4876  false */\n      0x00\n        /* \"contracts/MyblogApp.sol\":4796:4877  CommentVoted(_postId, postComments[_postId][_commentIndex].id, msg.sender, false) */\n      mload(0x40)\n      tag_189\n      swap3\n      swap2\n      swap1\n      tag_144\n      jump\t// in\n    tag_189:\n      mload(0x40)\n      dup1\n      swap2\n      sub\n      swap1\n      log3\n        /* \"contracts/MyblogApp.sol\":4385:4885  function downvoteComment(bytes32 _postId, uint _commentIndex) public {... */\n      pop\n      pop\n      jump\t// out\n        /* \"contracts/MyblogApp.sol\":2297:2638  function upvotePost(bytes32 _postId) public {... */\n    tag_45:\n        /* \"contracts/MyblogApp.sol\":2389:2390  0 */\n      0x00\n        /* \"contracts/MyblogApp.sol\":2381:2391  bytes32(0) */\n      0x00\n      shl\n        /* \"contracts/MyblogApp.sol\":2360:2365  posts */\n      0x02\n        /* \"contracts/MyblogApp.sol\":2360:2374  posts[_postId] */\n      0x00\n        /* \"contracts/MyblogApp.sol\":2366:2373  _postId */\n      dup4\n        /* \"contracts/MyblogApp.sol\":2360:2374  posts[_postId] */\n      dup2\n      mstore\n      0x20\n      add\n      swap1\n      dup2\n      mstore\n      0x20\n      add\n      0x00\n      keccak256\n        /* \"contracts/MyblogApp.sol\":2360:2377  posts[_postId].id */\n      0x00\n      add\n      sload\n        /* \"contracts/MyblogApp.sol\":2360:2391  posts[_postId].id != bytes32(0) */\n      sub\n        /* \"contracts/MyblogApp.sol\":2352:2416  require(posts[_postId].id != bytes32(0), \"Post does not exist.\") */\n      tag_191\n      jumpi\n      mload(0x40)\n      0x08c379a000000000000000000000000000000000000000000000000000000000\n      dup2\n      mstore\n      0x04\n      add\n      tag_192\n      swap1\n      tag_121\n      jump\t// in\n    tag_192:\n      mload(0x40)\n      dup1\n      swap2\n      sub\n      swap1\n      revert\n    tag_191:\n        /* \"contracts/MyblogApp.sol\":2436:2444  hasVoted */\n      0x04\n        /* \"contracts/MyblogApp.sol\":2436:2453  hasVoted[_postId] */\n      0x00\n        /* \"contracts/MyblogApp.sol\":2445:2452  _postId */\n      dup3\n        /* \"contracts/MyblogApp.sol\":2436:2453  hasVoted[_postId] */\n      dup2\n      mstore\n      0x20\n      add\n      swap1\n      dup2\n      mstore\n      0x20\n      add\n      0x00\n      keccak256\n        /* \"contracts/MyblogApp.sol\":2436:2465  hasVoted[_postId][msg.sender] */\n      0x00\n        /* \"contracts/MyblogApp.sol\":2454:2464  msg.sender */\n      caller\n        /* \"contracts/MyblogApp.sol\":2436:2465  hasVoted[_postId][msg.sender] */\n      0xffffffffffffffffffffffffffffffffffffffff\n      and\n      0xffffffffffffffffffffffffffffffffffffffff\n      and\n      dup2\n      mstore\n      0x20\n      add\n      swap1\n      dup2\n      mstore\n      0x20\n      add\n      0x00\n      keccak256\n      0x00\n      swap1\n      sload\n      swap1\n      0x0100\n      exp\n      swap1\n      div\n      0xff\n      and\n        /* \"contracts/MyblogApp.sol\":2435:2465  !hasVoted[_postId][msg.sender] */\n      iszero\n        /* \"contracts/MyblogApp.sol\":2427:2497  require(!hasVoted[_postId][msg.sender], \"Already voted on this post.\") */\n      tag_193\n      jumpi\n      mload(0x40)\n      0x08c379a000000000000000000000000000000000000000000000000000000000\n      dup2\n      mstore\n      0x04\n      add\n      tag_194\n      swap1\n      tag_124\n      jump\t// in\n    tag_194:\n      mload(0x40)\n      dup1\n      swap2\n      sub\n      swap1\n      revert\n    tag_193:\n        /* \"contracts/MyblogApp.sol\":2508:2513  posts */\n      0x02\n        /* \"contracts/MyblogApp.sol\":2508:2522  posts[_postId] */\n      0x00\n        /* \"contracts/MyblogApp.sol\":2514:2521  _postId */\n      dup3\n        /* \"contracts/MyblogApp.sol\":2508:2522  posts[_postId] */\n      dup2\n      mstore\n      0x20\n      add\n      swap1\n      dup2\n      mstore\n      0x20\n      add\n      0x00\n      keccak256\n        /* \"contracts/MyblogApp.sol\":2508:2529  posts[_postId].upvote */\n      0x04\n      add\n      0x00\n        /* \"contracts/MyblogApp.sol\":2508:2531  posts[_postId].upvote++ */\n      dup2\n      sload\n      dup1\n      swap3\n      swap2\n      swap1\n      tag_195\n      swap1\n      tag_126\n      jump\t// in\n    tag_195:\n      swap2\n      swap1\n      pop\n      sstore\n      pop\n        /* \"contracts/MyblogApp.sol\":2574:2578  true */\n      0x01\n        /* \"contracts/MyblogApp.sol\":2542:2550  hasVoted */\n      0x04\n        /* \"contracts/MyblogApp.sol\":2542:2559  hasVoted[_postId] */\n      0x00\n        /* \"contracts/MyblogApp.sol\":2551:2558  _postId */\n      dup4\n        /* \"contracts/MyblogApp.sol\":2542:2559  hasVoted[_postId] */\n      dup2\n      mstore\n      0x20\n      add\n      swap1\n      dup2\n      mstore\n      0x20\n      add\n      0x00\n      keccak256\n        /* \"contracts/MyblogApp.sol\":2542:2571  hasVoted[_postId][msg.sender] */\n      0x00\n        /* \"contracts/MyblogApp.sol\":2560:2570  msg.sender */\n      caller\n        /* \"contracts/MyblogApp.sol\":2542:2571  hasVoted[_postId][msg.sender] */\n      0xffffffffffffffffffffffffffffffffffffffff\n      and\n      0xffffffffffffffffffffffffffffffffffffffff\n      and\n      dup2\n      mstore\n      0x20\n      add\n      swap1\n      dup2\n      mstore\n      0x20\n      add\n      0x00\n      keccak256\n      0x00\n        /* \"contracts/MyblogApp.sol\":2542:2578  hasVoted[_postId][msg.sender] = true */\n      0x0100\n      exp\n      dup2\n      sload\n      dup2\n      0xff\n      mul\n      not\n      and\n      swap1\n      dup4\n      iszero\n      iszero\n      mul\n      or\n      swap1\n      sstore\n      pop\n        /* \"contracts/MyblogApp.sol\":2613:2623  msg.sender */\n      caller\n        /* \"contracts/MyblogApp.sol\":2594:2630  PostVoted(_postId, msg.sender, true) */\n      0xffffffffffffffffffffffffffffffffffffffff\n      and\n        /* \"contracts/MyblogApp.sol\":2604:2611  _postId */\n      dup2\n        /* \"contracts/MyblogApp.sol\":2594:2630  PostVoted(_postId, msg.sender, true) */\n      0xa7e4c5082f867ea22a45a95c2043209b9ce83d70ca31ccb947e67592ea14c4b1\n        /* \"contracts/MyblogApp.sol\":2625:2629  true */\n      0x01\n        /* \"contracts/MyblogApp.sol\":2594:2630  PostVoted(_postId, msg.sender, true) */\n      mload(0x40)\n      tag_196\n      swap2\n      swap1\n      tag_128\n      jump\t// in\n    tag_196:\n      mload(0x40)\n      dup1\n      swap2\n      sub\n      swap1\n      log3\n        /* \"contracts/MyblogApp.sol\":2297:2638  function upvotePost(bytes32 _postId) public {... */\n      pop\n      jump\t// out\n        /* \"contracts/MyblogApp.sol\":1539:2260  function createPost(string memory _author, string memory _title, string memory _contentHash) public {... */\n    tag_49:\n        /* \"contracts/MyblogApp.sol\":1683:1685  32 */\n      0x20\n        /* \"contracts/MyblogApp.sol\":1664:1671  _author */\n      dup4\n        /* \"contracts/MyblogApp.sol\":1658:1679  bytes(_author).length */\n      mload\n        /* \"contracts/MyblogApp.sol\":1658:1685  bytes(_author).length <= 32 */\n      gt\n      iszero\n        /* \"contracts/MyblogApp.sol\":1650:1710  require(bytes(_author).length <= 32, \"Author name too long\") */\n      tag_198\n      jumpi\n      mload(0x40)\n      0x08c379a000000000000000000000000000000000000000000000000000000000\n      dup2\n      mstore\n      0x04\n      add\n      tag_199\n      swap1\n      tag_200\n      jump\t// in\n    tag_199:\n      mload(0x40)\n      dup1\n      swap2\n      sub\n      swap1\n      revert\n    tag_198:\n        /* \"contracts/MyblogApp.sol\":1723:1734  bytes32 _id */\n      0x00\n        /* \"contracts/MyblogApp.sol\":1764:1774  msg.sender */\n      caller\n        /* \"contracts/MyblogApp.sol\":1776:1791  block.timestamp */\n      timestamp\n        /* \"contracts/MyblogApp.sol\":1793:1799  _title */\n      dup5\n        /* \"contracts/MyblogApp.sol\":1801:1813  _contentHash */\n      dup5\n        /* \"contracts/MyblogApp.sol\":1747:1814  abi.encodePacked(msg.sender, block.timestamp, _title, _contentHash) */\n      add(0x20, mload(0x40))\n      tag_201\n      swap5\n      swap4\n      swap3\n      swap2\n      swap1\n      tag_202\n      jump\t// in\n    tag_201:\n      mload(0x40)\n      0x20\n      dup2\n      dup4\n      sub\n      sub\n      dup2\n      mstore\n      swap1\n      0x40\n      mstore\n        /* \"contracts/MyblogApp.sol\":1737:1815  keccak256(abi.encodePacked(msg.sender, block.timestamp, _title, _contentHash)) */\n      dup1\n      mload\n      swap1\n      0x20\n      add\n      keccak256\n        /* \"contracts/MyblogApp.sol\":1723:1815  bytes32 _id = keccak256(abi.encodePacked(msg.sender, block.timestamp, _title, _contentHash)) */\n      swap1\n      pop\n        /* \"contracts/MyblogApp.sol\":1826:1845  Post memory newpost */\n      0x00\n        /* \"contracts/MyblogApp.sol\":1848:2076  Post({... */\n      mload(0x40)\n      dup1\n      0xe0\n      add\n      0x40\n      mstore\n      dup1\n        /* \"contracts/MyblogApp.sol\":1872:1875  _id */\n      dup4\n        /* \"contracts/MyblogApp.sol\":1848:2076  Post({... */\n      dup2\n      mstore\n      0x20\n      add\n        /* \"contracts/MyblogApp.sol\":1898:1905  _author */\n      dup7\n        /* \"contracts/MyblogApp.sol\":1848:2076  Post({... */\n      dup2\n      mstore\n      0x20\n      add\n        /* \"contracts/MyblogApp.sol\":1927:1933  _title */\n      dup6\n        /* \"contracts/MyblogApp.sol\":1848:2076  Post({... */\n      dup2\n      mstore\n      0x20\n      add\n        /* \"contracts/MyblogApp.sol\":1961:1973  _contentHash */\n      dup5\n        /* \"contracts/MyblogApp.sol\":1848:2076  Post({... */\n      dup2\n      mstore\n      0x20\n      add\n        /* \"contracts/MyblogApp.sol\":1996:1997  0 */\n      0x00\n        /* \"contracts/MyblogApp.sol\":1848:2076  Post({... */\n      dup2\n      mstore\n      0x20\n      add\n        /* \"contracts/MyblogApp.sol\":2022:2023  0 */\n      0x00\n        /* \"contracts/MyblogApp.sol\":1848:2076  Post({... */\n      dup2\n      mstore\n      0x20\n      add\n        /* \"contracts/MyblogApp.sol\":2049:2064  block.timestamp */\n      timestamp\n        /* \"contracts/MyblogApp.sol\":1848:2076  Post({... */\n      dup2\n      mstore\n      pop\n        /* \"contracts/MyblogApp.sol\":1826:2076  Post memory newpost = Post({... */\n      swap1\n      pop\n        /* \"contracts/MyblogApp.sol\":2089:2100  allPostsIds */\n      0x00\n        /* \"contracts/MyblogApp.sol\":2106:2109  _id */\n      dup3\n        /* \"contracts/MyblogApp.sol\":2089:2110  allPostsIds.push(_id) */\n      swap1\n      dup1\n      0x01\n      dup2\n      sload\n      add\n      dup1\n      dup3\n      sstore\n      dup1\n      swap2\n      pop\n      pop\n      0x01\n      swap1\n      sub\n      swap1\n      0x00\n      mstore\n      keccak256(0x00, 0x20)\n      add\n      0x00\n      swap1\n      swap2\n      swap1\n      swap2\n      swap1\n      swap2\n      pop\n      sstore\n        /* \"contracts/MyblogApp.sol\":2121:2130  userPosts */\n      0x01\n        /* \"contracts/MyblogApp.sol\":2121:2142  userPosts[msg.sender] */\n      0x00\n        /* \"contracts/MyblogApp.sol\":2131:2141  msg.sender */\n      caller\n        /* \"contracts/MyblogApp.sol\":2121:2142  userPosts[msg.sender] */\n      0xffffffffffffffffffffffffffffffffffffffff\n      and\n      0xffffffffffffffffffffffffffffffffffffffff\n      and\n      dup2\n      mstore\n      0x20\n      add\n      swap1\n      dup2\n      mstore\n      0x20\n      add\n      0x00\n      keccak256\n        /* \"contracts/MyblogApp.sol\":2148:2151  _id */\n      dup3\n        /* \"contracts/MyblogApp.sol\":2121:2152  userPosts[msg.sender].push(_id) */\n      swap1\n      dup1\n      0x01\n      dup2\n      sload\n      add\n      dup1\n      dup3\n      sstore\n      dup1\n      swap2\n      pop\n      pop\n      0x01\n      swap1\n      sub\n      swap1\n      0x00\n      mstore\n      keccak256(0x00, 0x20)\n      add\n      0x00\n      swap1\n      swap2\n      swap1\n      swap2\n      swap1\n      swap2\n      pop\n      sstore\n        /* \"contracts/MyblogApp.sol\":2176:2183  newpost */\n      dup1\n        /* \"contracts/MyblogApp.sol\":2163:2168  posts */\n      0x02\n        /* \"contracts/MyblogApp.sol\":2163:2173  posts[_id] */\n      0x00\n        /* \"contracts/MyblogApp.sol\":2169:2172  _id */\n      dup5\n        /* \"contracts/MyblogApp.sol\":2163:2173  posts[_id] */\n      dup2\n      mstore\n      0x20\n      add\n      swap1\n      dup2\n      mstore\n      0x20\n      add\n      0x00\n      keccak256\n        /* \"contracts/MyblogApp.sol\":2163:2183  posts[_id] = newpost */\n      0x00\n      dup3\n      add\n      mload\n      dup2\n      0x00\n      add\n      sstore\n      0x20\n      dup3\n      add\n      mload\n      dup2\n      0x01\n      add\n      swap1\n      dup2\n      tag_205\n      swap2\n      swap1\n      tag_155\n      jump\t// in\n    tag_205:\n      pop\n      0x40\n      dup3\n      add\n      mload\n      dup2\n      0x02\n      add\n      swap1\n      dup2\n      tag_206\n      swap2\n      swap1\n      tag_155\n      jump\t// in\n    tag_206:\n      pop\n      0x60\n      dup3\n      add\n      mload\n      dup2\n      0x03\n      add\n      swap1\n      dup2\n      tag_207\n      swap2\n      swap1\n      tag_155\n      jump\t// in\n    tag_207:\n      pop\n      0x80\n      dup3\n      add\n      mload\n      dup2\n      0x04\n      add\n      sstore\n      0xa0\n      dup3\n      add\n      mload\n      dup2\n      0x05\n      add\n      sstore\n      0xc0\n      dup3\n      add\n      mload\n      dup2\n      0x06\n      add\n      sstore\n      swap1\n      pop\n      pop\n        /* \"contracts/MyblogApp.sol\":2214:2217  _id */\n      dup2\n        /* \"contracts/MyblogApp.sol\":2201:2252  Postcreation(_id, _title, _author, block.timestamp) */\n      0x17f34748f078a06d3c7c034ef1cdf60a8b2baf4592df676d3a2ae61596619f98\n        /* \"contracts/MyblogApp.sol\":2219:2225  _title */\n      dup6\n        /* \"contracts/MyblogApp.sol\":2227:2234  _author */\n      dup8\n        /* \"contracts/MyblogApp.sol\":2236:2251  block.timestamp */\n      timestamp\n        /* \"contracts/MyblogApp.sol\":2201:2252  Postcreation(_id, _title, _author, block.timestamp) */\n      mload(0x40)\n      tag_208\n      swap4\n      swap3\n      swap2\n      swap1\n      tag_209\n      jump\t// in\n    tag_208:\n      mload(0x40)\n      dup1\n      swap2\n      sub\n      swap1\n      log2\n        /* \"contracts/MyblogApp.sol\":1639:2260  {... */\n      pop\n      pop\n        /* \"contracts/MyblogApp.sol\":1539:2260  function createPost(string memory _author, string memory _title, string memory _contentHash) public {... */\n      pop\n      pop\n      pop\n      jump\t// out\n        /* \"contracts/MyblogApp.sol\":6118:6241  function getComments(bytes32 _postId) public view returns(Comment[] memory) {... */\n    tag_52:\n        /* \"contracts/MyblogApp.sol\":6176:6192  Comment[] memory */\n      0x60\n        /* \"contracts/MyblogApp.sol\":6212:6224  postComments */\n      0x03\n        /* \"contracts/MyblogApp.sol\":6212:6233  postComments[_postId] */\n      0x00\n        /* \"contracts/MyblogApp.sol\":6225:6232  _postId */\n      dup4\n        /* \"contracts/MyblogApp.sol\":6212:6233  postComments[_postId] */\n      dup2\n      mstore\n      0x20\n      add\n      swap1\n      dup2\n      mstore\n      0x20\n      add\n      0x00\n      keccak256\n        /* \"contracts/MyblogApp.sol\":6205:6233  return postComments[_postId] */\n      dup1\n      sload\n      dup1\n      0x20\n      mul\n      0x20\n      add\n      mload(0x40)\n      swap1\n      dup2\n      add\n      0x40\n      mstore\n      dup1\n      swap3\n      swap2\n      swap1\n      dup2\n      dup2\n      mstore\n      0x20\n      add\n      0x00\n      swap1\n    tag_211:\n      dup3\n      dup3\n      lt\n      iszero\n      tag_212\n      jumpi\n      dup4\n      dup3\n      swap1\n      0x00\n      mstore\n      keccak256(0x00, 0x20)\n      swap1\n      0x07\n      mul\n      add\n      mload(0x40)\n      dup1\n      0xe0\n      add\n      0x40\n      mstore\n      swap1\n      dup2\n      0x00\n      dup3\n      add\n      sload\n      dup2\n      mstore\n      0x20\n      add\n      0x01\n      dup3\n      add\n      0x00\n      swap1\n      sload\n      swap1\n      0x0100\n      exp\n      swap1\n      div\n      0xffffffffffffffffffffffffffffffffffffffff\n      and\n      0xffffffffffffffffffffffffffffffffffffffff\n      and\n      0xffffffffffffffffffffffffffffffffffffffff\n      and\n      dup2\n      mstore\n      0x20\n      add\n      0x02\n      dup3\n      add\n      dup1\n      sload\n      tag_214\n      swap1\n      tag_72\n      jump\t// in\n    tag_214:\n      dup1\n      0x1f\n      add\n      0x20\n      dup1\n      swap2\n      div\n      mul\n      0x20\n      add\n      mload(0x40)\n      swap1\n      dup2\n      add\n      0x40\n      mstore\n      dup1\n      swap3\n      swap2\n      swap1\n      dup2\n      dup2\n      mstore\n      0x20\n      add\n      dup3\n      dup1\n      sload\n      tag_215\n      swap1\n      tag_72\n      jump\t// in\n    tag_215:\n      dup1\n      iszero\n      tag_216\n      jumpi\n      dup1\n      0x1f\n      lt\n      tag_217\n      jumpi\n      0x0100\n      dup1\n      dup4\n      sload\n      div\n      mul\n      dup4\n      mstore\n      swap2\n      0x20\n      add\n      swap2\n      jump(tag_216)\n    tag_217:\n      dup3\n      add\n      swap2\n      swap1\n      0x00\n      mstore\n      keccak256(0x00, 0x20)\n      swap1\n    tag_218:\n      dup2\n      sload\n      dup2\n      mstore\n      swap1\n      0x01\n      add\n      swap1\n      0x20\n      add\n      dup1\n      dup4\n      gt\n      tag_218\n      jumpi\n      dup3\n      swap1\n      sub\n      0x1f\n      and\n      dup3\n      add\n      swap2\n    tag_216:\n      pop\n      pop\n      pop\n      pop\n      pop\n      dup2\n      mstore\n      0x20\n      add\n      0x03\n      dup3\n      add\n      dup1\n      sload\n      tag_219\n      swap1\n      tag_72\n      jump\t// in\n    tag_219:\n      dup1\n      0x1f\n      add\n      0x20\n      dup1\n      swap2\n      div\n      mul\n      0x20\n      add\n      mload(0x40)\n      swap1\n      dup2\n      add\n      0x40\n      mstore\n      dup1\n      swap3\n      swap2\n      swap1\n      dup2\n      dup2\n      mstore\n      0x20\n      add\n      dup3\n      dup1\n      sload\n      tag_220\n      swap1\n      tag_72\n      jump\t// in\n    tag_220:\n      dup1\n      iszero\n      tag_221\n      jumpi\n      dup1\n      0x1f\n      lt\n      tag_222\n      jumpi\n      0x0100\n      dup1\n      dup4\n      sload\n      div\n      mul\n      dup4\n      mstore\n      swap2\n      0x20\n      add\n      swap2\n      jump(tag_221)\n    tag_222:\n      dup3\n      add\n      swap2\n      swap1\n      0x00\n      mstore\n      keccak256(0x00, 0x20)\n      swap1\n    tag_223:\n      dup2\n      sload\n      dup2\n      mstore\n      swap1\n      0x01\n      add\n      swap1\n      0x20\n      add\n      dup1\n      dup4\n      gt\n      tag_223\n      jumpi\n      dup3\n      swap1\n      sub\n      0x1f\n      and\n      dup3\n      add\n      swap2\n    tag_221:\n      pop\n      pop\n      pop\n      pop\n      pop\n      dup2\n      mstore\n      0x20\n      add\n      0x04\n      dup3\n      add\n      sload\n      dup2\n      mstore\n      0x20\n      add\n      0x05\n      dup3\n      add\n      sload\n      dup2\n      mstore\n      0x20\n      add\n      0x06\n      dup3\n      add\n      sload\n      dup2\n      mstore\n      pop\n      pop\n      dup2\n      mstore\n      0x20\n      add\n      swap1\n      0x01\n      add\n      swap1\n      jump(tag_211)\n    tag_212:\n      pop\n      pop\n      pop\n      pop\n      swap1\n      pop\n        /* \"contracts/MyblogApp.sol\":6118:6241  function getComments(bytes32 _postId) public view returns(Comment[] memory) {... */\n      swap2\n      swap1\n      pop\n      jump\t// out\n    tag_64:\n      mload(0x40)\n      dup1\n      0xe0\n      add\n      0x40\n      mstore\n      dup1\n      0x00\n      dup2\n      mstore\n      0x20\n      add\n      0x60\n      dup2\n      mstore\n      0x20\n      add\n      0x60\n      dup2\n      mstore\n      0x20\n      add\n      0x60\n      dup2\n      mstore\n      0x20\n      add\n      0x00\n      dup2\n      mstore\n      0x20\n      add\n      0x00\n      dup2\n      mstore\n      0x20\n      add\n      0x00\n      dup2\n      mstore\n      pop\n      swap1\n      jump\t// out\n        /* \"#utility.yul\":7:82   */\n    tag_224:\n        /* \"#utility.yul\":40:46   */\n      0x00\n        /* \"#utility.yul\":73:75   */\n      0x40\n        /* \"#utility.yul\":67:76   */\n      mload\n        /* \"#utility.yul\":57:76   */\n      swap1\n      pop\n        /* \"#utility.yul\":7:82   */\n      swap1\n      jump\t// out\n        /* \"#utility.yul\":88:205   */\n    tag_225:\n        /* \"#utility.yul\":197:198   */\n      0x00\n        /* \"#utility.yul\":194:195   */\n      0x00\n        /* \"#utility.yul\":187:199   */\n      revert\n        /* \"#utility.yul\":211:328   */\n    tag_226:\n        /* \"#utility.yul\":320:321   */\n      0x00\n        /* \"#utility.yul\":317:318   */\n      0x00\n        /* \"#utility.yul\":310:322   */\n      revert\n        /* \"#utility.yul\":334:460   */\n    tag_227:\n        /* \"#utility.yul\":371:378   */\n      0x00\n        /* \"#utility.yul\":411:453   */\n      0xffffffffffffffffffffffffffffffffffffffff\n        /* \"#utility.yul\":404:409   */\n      dup3\n        /* \"#utility.yul\":400:454   */\n      and\n        /* \"#utility.yul\":389:454   */\n      swap1\n      pop\n        /* \"#utility.yul\":334:460   */\n      swap2\n      swap1\n      pop\n      jump\t// out\n        /* \"#utility.yul\":466:562   */\n    tag_228:\n        /* \"#utility.yul\":503:510   */\n      0x00\n        /* \"#utility.yul\":532:556   */\n      tag_317\n        /* \"#utility.yul\":550:555   */\n      dup3\n        /* \"#utility.yul\":532:556   */\n      tag_227\n      jump\t// in\n    tag_317:\n        /* \"#utility.yul\":521:556   */\n      swap1\n      pop\n        /* \"#utility.yul\":466:562   */\n      swap2\n      swap1\n      pop\n      jump\t// out\n        /* \"#utility.yul\":568:690   */\n    tag_229:\n        /* \"#utility.yul\":641:665   */\n      tag_319\n        /* \"#utility.yul\":659:664   */\n      dup2\n        /* \"#utility.yul\":641:665   */\n      tag_228\n      jump\t// in\n    tag_319:\n        /* \"#utility.yul\":634:639   */\n      dup2\n        /* \"#utility.yul\":631:666   */\n      eq\n        /* \"#utility.yul\":621:684   */\n      tag_320\n      jumpi\n        /* \"#utility.yul\":680:681   */\n      0x00\n        /* \"#utility.yul\":677:678   */\n      0x00\n        /* \"#utility.yul\":670:682   */\n      revert\n        /* \"#utility.yul\":621:684   */\n    tag_320:\n        /* \"#utility.yul\":568:690   */\n      pop\n      jump\t// out\n        /* \"#utility.yul\":696:835   */\n    tag_230:\n        /* \"#utility.yul\":742:747   */\n      0x00\n        /* \"#utility.yul\":780:786   */\n      dup2\n        /* \"#utility.yul\":767:787   */\n      calldataload\n        /* \"#utility.yul\":758:787   */\n      swap1\n      pop\n        /* \"#utility.yul\":796:829   */\n      tag_322\n        /* \"#utility.yul\":823:828   */\n      dup2\n        /* \"#utility.yul\":796:829   */\n      tag_229\n      jump\t// in\n    tag_322:\n        /* \"#utility.yul\":696:835   */\n      swap3\n      swap2\n      pop\n      pop\n      jump\t// out\n        /* \"#utility.yul\":841:1170   */\n    tag_16:\n        /* \"#utility.yul\":900:906   */\n      0x00\n        /* \"#utility.yul\":949:951   */\n      0x20\n        /* \"#utility.yul\":937:946   */\n      dup3\n        /* \"#utility.yul\":928:935   */\n      dup5\n        /* \"#utility.yul\":924:947   */\n      sub\n        /* \"#utility.yul\":920:952   */\n      slt\n        /* \"#utility.yul\":917:1036   */\n      iszero\n      tag_324\n      jumpi\n        /* \"#utility.yul\":955:1034   */\n      tag_325\n      tag_225\n      jump\t// in\n    tag_325:\n        /* \"#utility.yul\":917:1036   */\n    tag_324:\n        /* \"#utility.yul\":1075:1076   */\n      0x00\n        /* \"#utility.yul\":1100:1153   */\n      tag_326\n        /* \"#utility.yul\":1145:1152   */\n      dup5\n        /* \"#utility.yul\":1136:1142   */\n      dup3\n        /* \"#utility.yul\":1125:1134   */\n      dup6\n        /* \"#utility.yul\":1121:1143   */\n      add\n        /* \"#utility.yul\":1100:1153   */\n      tag_230\n      jump\t// in\n    tag_326:\n        /* \"#utility.yul\":1090:1153   */\n      swap2\n      pop\n        /* \"#utility.yul\":1046:1163   */\n      pop\n        /* \"#utility.yul\":841:1170   */\n      swap3\n      swap2\n      pop\n      pop\n      jump\t// out\n        /* \"#utility.yul\":1176:1310   */\n    tag_231:\n        /* \"#utility.yul\":1263:1269   */\n      0x00\n        /* \"#utility.yul\":1297:1302   */\n      dup2\n        /* \"#utility.yul\":1291:1303   */\n      mload\n        /* \"#utility.yul\":1281:1303   */\n      swap1\n      pop\n        /* \"#utility.yul\":1176:1310   */\n      swap2\n      swap1\n      pop\n      jump\t// out\n        /* \"#utility.yul\":1316:1520   */\n    tag_232:\n        /* \"#utility.yul\":1435:1446   */\n      0x00\n        /* \"#utility.yul\":1469:1475   */\n      dup3\n        /* \"#utility.yul\":1464:1467   */\n      dup3\n        /* \"#utility.yul\":1457:1476   */\n      mstore\n        /* \"#utility.yul\":1509:1513   */\n      0x20\n        /* \"#utility.yul\":1504:1507   */\n      dup3\n        /* \"#utility.yul\":1500:1514   */\n      add\n        /* \"#utility.yul\":1485:1514   */\n      swap1\n      pop\n        /* \"#utility.yul\":1316:1520   */\n      swap3\n      swap2\n      pop\n      pop\n      jump\t// out\n        /* \"#utility.yul\":1526:1678   */\n    tag_233:\n        /* \"#utility.yul\":1613:1617   */\n      0x00\n        /* \"#utility.yul\":1636:1639   */\n      dup2\n        /* \"#utility.yul\":1628:1639   */\n      swap1\n      pop\n        /* \"#utility.yul\":1666:1670   */\n      0x20\n        /* \"#utility.yul\":1661:1664   */\n      dup3\n        /* \"#utility.yul\":1657:1671   */\n      add\n        /* \"#utility.yul\":1649:1671   */\n      swap1\n      pop\n        /* \"#utility.yul\":1526:1678   */\n      swap2\n      swap1\n      pop\n      jump\t// out\n        /* \"#utility.yul\":1684:1761   */\n    tag_234:\n        /* \"#utility.yul\":1721:1728   */\n      0x00\n        /* \"#utility.yul\":1750:1755   */\n      dup2\n        /* \"#utility.yul\":1739:1755   */\n      swap1\n      pop\n        /* \"#utility.yul\":1684:1761   */\n      swap2\n      swap1\n      pop\n      jump\t// out\n        /* \"#utility.yul\":1767:1875   */\n    tag_235:\n        /* \"#utility.yul\":1844:1868   */\n      tag_332\n        /* \"#utility.yul\":1862:1867   */\n      dup2\n        /* \"#utility.yul\":1844:1868   */\n      tag_234\n      jump\t// in\n    tag_332:\n        /* \"#utility.yul\":1839:1842   */\n      dup3\n        /* \"#utility.yul\":1832:1869   */\n      mstore\n        /* \"#utility.yul\":1767:1875   */\n      pop\n      pop\n      jump\t// out\n        /* \"#utility.yul\":1881:1980   */\n    tag_236:\n        /* \"#utility.yul\":1933:1939   */\n      0x00\n        /* \"#utility.yul\":1967:1972   */\n      dup2\n        /* \"#utility.yul\":1961:1973   */\n      mload\n        /* \"#utility.yul\":1951:1973   */\n      swap1\n      pop\n        /* \"#utility.yul\":1881:1980   */\n      swap2\n      swap1\n      pop\n      jump\t// out\n        /* \"#utility.yul\":1986:2145   */\n    tag_237:\n        /* \"#utility.yul\":2060:2071   */\n      0x00\n        /* \"#utility.yul\":2094:2100   */\n      dup3\n        /* \"#utility.yul\":2089:2092   */\n      dup3\n        /* \"#utility.yul\":2082:2101   */\n      mstore\n        /* \"#utility.yul\":2134:2138   */\n      0x20\n        /* \"#utility.yul\":2129:2132   */\n      dup3\n        /* \"#utility.yul\":2125:2139   */\n      add\n        /* \"#utility.yul\":2110:2139   */\n      swap1\n      pop\n        /* \"#utility.yul\":1986:2145   */\n      swap3\n      swap2\n      pop\n      pop\n      jump\t// out\n        /* \"#utility.yul\":2151:2290   */\n    tag_238:\n        /* \"#utility.yul\":2240:2246   */\n      dup3\n        /* \"#utility.yul\":2235:2238   */\n      dup2\n        /* \"#utility.yul\":2230:2233   */\n      dup4\n        /* \"#utility.yul\":2224:2247   */\n      mcopy\n        /* \"#utility.yul\":2281:2282   */\n      0x00\n        /* \"#utility.yul\":2272:2278   */\n      dup4\n        /* \"#utility.yul\":2267:2270   */\n      dup4\n        /* \"#utility.yul\":2263:2279   */\n      add\n        /* \"#utility.yul\":2256:2283   */\n      mstore\n        /* \"#utility.yul\":2151:2290   */\n      pop\n      pop\n      pop\n      jump\t// out\n        /* \"#utility.yul\":2296:2398   */\n    tag_239:\n        /* \"#utility.yul\":2337:2343   */\n      0x00\n        /* \"#utility.yul\":2388:2390   */\n      0x1f\n        /* \"#utility.yul\":2384:2391   */\n      not\n        /* \"#utility.yul\":2379:2381   */\n      0x1f\n        /* \"#utility.yul\":2372:2377   */\n      dup4\n        /* \"#utility.yul\":2368:2382   */\n      add\n        /* \"#utility.yul\":2364:2392   */\n      and\n        /* \"#utility.yul\":2354:2392   */\n      swap1\n      pop\n        /* \"#utility.yul\":2296:2398   */\n      swap2\n      swap1\n      pop\n      jump\t// out\n        /* \"#utility.yul\":2404:2761   */\n    tag_240:\n        /* \"#utility.yul\":2482:2485   */\n      0x00\n        /* \"#utility.yul\":2510:2549   */\n      tag_338\n        /* \"#utility.yul\":2543:2548   */\n      dup3\n        /* \"#utility.yul\":2510:2549   */\n      tag_236\n      jump\t// in\n    tag_338:\n        /* \"#utility.yul\":2565:2626   */\n      tag_339\n        /* \"#utility.yul\":2619:2625   */\n      dup2\n        /* \"#utility.yul\":2614:2617   */\n      dup6\n        /* \"#utility.yul\":2565:2626   */\n      tag_237\n      jump\t// in\n    tag_339:\n        /* \"#utility.yul\":2558:2626   */\n      swap4\n      pop\n        /* \"#utility.yul\":2635:2700   */\n      tag_340\n        /* \"#utility.yul\":2693:2699   */\n      dup2\n        /* \"#utility.yul\":2688:2691   */\n      dup6\n        /* \"#utility.yul\":2681:2685   */\n      0x20\n        /* \"#utility.yul\":2674:2679   */\n      dup7\n        /* \"#utility.yul\":2670:2686   */\n      add\n        /* \"#utility.yul\":2635:2700   */\n      tag_238\n      jump\t// in\n    tag_340:\n        /* \"#utility.yul\":2725:2754   */\n      tag_341\n        /* \"#utility.yul\":2747:2753   */\n      dup2\n        /* \"#utility.yul\":2725:2754   */\n      tag_239\n      jump\t// in\n    tag_341:\n        /* \"#utility.yul\":2720:2723   */\n      dup5\n        /* \"#utility.yul\":2716:2755   */\n      add\n        /* \"#utility.yul\":2709:2755   */\n      swap2\n      pop\n        /* \"#utility.yul\":2486:2761   */\n      pop\n        /* \"#utility.yul\":2404:2761   */\n      swap3\n      swap2\n      pop\n      pop\n      jump\t// out\n        /* \"#utility.yul\":2767:2844   */\n    tag_241:\n        /* \"#utility.yul\":2804:2811   */\n      0x00\n        /* \"#utility.yul\":2833:2838   */\n      dup2\n        /* \"#utility.yul\":2822:2838   */\n      swap1\n      pop\n        /* \"#utility.yul\":2767:2844   */\n      swap2\n      swap1\n      pop\n      jump\t// out\n        /* \"#utility.yul\":2850:2958   */\n    tag_242:\n        /* \"#utility.yul\":2927:2951   */\n      tag_344\n        /* \"#utility.yul\":2945:2950   */\n      dup2\n        /* \"#utility.yul\":2927:2951   */\n      tag_241\n      jump\t// in\n    tag_344:\n        /* \"#utility.yul\":2922:2925   */\n      dup3\n        /* \"#utility.yul\":2915:2952   */\n      mstore\n        /* \"#utility.yul\":2850:2958   */\n      pop\n      pop\n      jump\t// out\n        /* \"#utility.yul\":3018:4635   */\n    tag_243:\n        /* \"#utility.yul\":3117:3120   */\n      0x00\n        /* \"#utility.yul\":3153:3157   */\n      0xe0\n        /* \"#utility.yul\":3148:3151   */\n      dup4\n        /* \"#utility.yul\":3144:3158   */\n      add\n        /* \"#utility.yul\":3238:3242   */\n      0x00\n        /* \"#utility.yul\":3231:3236   */\n      dup4\n        /* \"#utility.yul\":3227:3243   */\n      add\n        /* \"#utility.yul\":3221:3244   */\n      mload\n        /* \"#utility.yul\":3257:3320   */\n      tag_346\n        /* \"#utility.yul\":3314:3318   */\n      0x00\n        /* \"#utility.yul\":3309:3312   */\n      dup7\n        /* \"#utility.yul\":3305:3319   */\n      add\n        /* \"#utility.yul\":3291:3303   */\n      dup3\n        /* \"#utility.yul\":3257:3320   */\n      tag_235\n      jump\t// in\n    tag_346:\n        /* \"#utility.yul\":3168:3330   */\n      pop\n        /* \"#utility.yul\":3414:3418   */\n      0x20\n        /* \"#utility.yul\":3407:3412   */\n      dup4\n        /* \"#utility.yul\":3403:3419   */\n      add\n        /* \"#utility.yul\":3397:3420   */\n      mload\n        /* \"#utility.yul\":3467:3470   */\n      dup5\n        /* \"#utility.yul\":3461:3465   */\n      dup3\n        /* \"#utility.yul\":3457:3471   */\n      sub\n        /* \"#utility.yul\":3450:3454   */\n      0x20\n        /* \"#utility.yul\":3445:3448   */\n      dup7\n        /* \"#utility.yul\":3441:3455   */\n      add\n        /* \"#utility.yul\":3434:3472   */\n      mstore\n        /* \"#utility.yul\":3493:3566   */\n      tag_347\n        /* \"#utility.yul\":3561:3565   */\n      dup3\n        /* \"#utility.yul\":3547:3559   */\n      dup3\n        /* \"#utility.yul\":3493:3566   */\n      tag_240\n      jump\t// in\n    tag_347:\n        /* \"#utility.yul\":3485:3566   */\n      swap2\n      pop\n        /* \"#utility.yul\":3340:3577   */\n      pop\n        /* \"#utility.yul\":3660:3664   */\n      0x40\n        /* \"#utility.yul\":3653:3658   */\n      dup4\n        /* \"#utility.yul\":3649:3665   */\n      add\n        /* \"#utility.yul\":3643:3666   */\n      mload\n        /* \"#utility.yul\":3713:3716   */\n      dup5\n        /* \"#utility.yul\":3707:3711   */\n      dup3\n        /* \"#utility.yul\":3703:3717   */\n      sub\n        /* \"#utility.yul\":3696:3700   */\n      0x40\n        /* \"#utility.yul\":3691:3694   */\n      dup7\n        /* \"#utility.yul\":3687:3701   */\n      add\n        /* \"#utility.yul\":3680:3718   */\n      mstore\n        /* \"#utility.yul\":3739:3812   */\n      tag_348\n        /* \"#utility.yul\":3807:3811   */\n      dup3\n        /* \"#utility.yul\":3793:3805   */\n      dup3\n        /* \"#utility.yul\":3739:3812   */\n      tag_240\n      jump\t// in\n    tag_348:\n        /* \"#utility.yul\":3731:3812   */\n      swap2\n      pop\n        /* \"#utility.yul\":3587:3823   */\n      pop\n        /* \"#utility.yul\":3912:3916   */\n      0x60\n        /* \"#utility.yul\":3905:3910   */\n      dup4\n        /* \"#utility.yul\":3901:3917   */\n      add\n        /* \"#utility.yul\":3895:3918   */\n      mload\n        /* \"#utility.yul\":3965:3968   */\n      dup5\n        /* \"#utility.yul\":3959:3963   */\n      dup3\n        /* \"#utility.yul\":3955:3969   */\n      sub\n        /* \"#utility.yul\":3948:3952   */\n      0x60\n        /* \"#utility.yul\":3943:3946   */\n      dup7\n        /* \"#utility.yul\":3939:3953   */\n      add\n        /* \"#utility.yul\":3932:3970   */\n      mstore\n        /* \"#utility.yul\":3991:4064   */\n      tag_349\n        /* \"#utility.yul\":4059:4063   */\n      dup3\n        /* \"#utility.yul\":4045:4057   */\n      dup3\n        /* \"#utility.yul\":3991:4064   */\n      tag_240\n      jump\t// in\n    tag_349:\n        /* \"#utility.yul\":3983:4064   */\n      swap2\n      pop\n        /* \"#utility.yul\":3833:4075   */\n      pop\n        /* \"#utility.yul\":4159:4163   */\n      0x80\n        /* \"#utility.yul\":4152:4157   */\n      dup4\n        /* \"#utility.yul\":4148:4164   */\n      add\n        /* \"#utility.yul\":4142:4165   */\n      mload\n        /* \"#utility.yul\":4178:4241   */\n      tag_350\n        /* \"#utility.yul\":4235:4239   */\n      0x80\n        /* \"#utility.yul\":4230:4233   */\n      dup7\n        /* \"#utility.yul\":4226:4240   */\n      add\n        /* \"#utility.yul\":4212:4224   */\n      dup3\n        /* \"#utility.yul\":4178:4241   */\n      tag_242\n      jump\t// in\n    tag_350:\n        /* \"#utility.yul\":4085:4251   */\n      pop\n        /* \"#utility.yul\":4337:4341   */\n      0xa0\n        /* \"#utility.yul\":4330:4335   */\n      dup4\n        /* \"#utility.yul\":4326:4342   */\n      add\n        /* \"#utility.yul\":4320:4343   */\n      mload\n        /* \"#utility.yul\":4356:4419   */\n      tag_351\n        /* \"#utility.yul\":4413:4417   */\n      0xa0\n        /* \"#utility.yul\":4408:4411   */\n      dup7\n        /* \"#utility.yul\":4404:4418   */\n      add\n        /* \"#utility.yul\":4390:4402   */\n      dup3\n        /* \"#utility.yul\":4356:4419   */\n      tag_242\n      jump\t// in\n    tag_351:\n        /* \"#utility.yul\":4261:4429   */\n      pop\n        /* \"#utility.yul\":4516:4520   */\n      0xc0\n        /* \"#utility.yul\":4509:4514   */\n      dup4\n        /* \"#utility.yul\":4505:4521   */\n      add\n        /* \"#utility.yul\":4499:4522   */\n      mload\n        /* \"#utility.yul\":4535:4598   */\n      tag_352\n        /* \"#utility.yul\":4592:4596   */\n      0xc0\n        /* \"#utility.yul\":4587:4590   */\n      dup7\n        /* \"#utility.yul\":4583:4597   */\n      add\n        /* \"#utility.yul\":4569:4581   */\n      dup3\n        /* \"#utility.yul\":4535:4598   */\n      tag_242\n      jump\t// in\n    tag_352:\n        /* \"#utility.yul\":4439:4608   */\n      pop\n        /* \"#utility.yul\":4625:4629   */\n      dup1\n        /* \"#utility.yul\":4618:4629   */\n      swap2\n      pop\n        /* \"#utility.yul\":3122:4635   */\n      pop\n        /* \"#utility.yul\":3018:4635   */\n      swap3\n      swap2\n      pop\n      pop\n      jump\t// out\n        /* \"#utility.yul\":4641:4877   */\n    tag_244:\n        /* \"#utility.yul\":4750:4760   */\n      0x00\n        /* \"#utility.yul\":4785:4871   */\n      tag_354\n        /* \"#utility.yul\":4867:4870   */\n      dup4\n        /* \"#utility.yul\":4859:4865   */\n      dup4\n        /* \"#utility.yul\":4785:4871   */\n      tag_243\n      jump\t// in\n    tag_354:\n        /* \"#utility.yul\":4771:4871   */\n      swap1\n      pop\n        /* \"#utility.yul\":4641:4877   */\n      swap3\n      swap2\n      pop\n      pop\n      jump\t// out\n        /* \"#utility.yul\":4883:5016   */\n    tag_245:\n        /* \"#utility.yul\":4973:4977   */\n      0x00\n        /* \"#utility.yul\":5005:5009   */\n      0x20\n        /* \"#utility.yul\":5000:5003   */\n      dup3\n        /* \"#utility.yul\":4996:5010   */\n      add\n        /* \"#utility.yul\":4988:5010   */\n      swap1\n      pop\n        /* \"#utility.yul\":4883:5016   */\n      swap2\n      swap1\n      pop\n      jump\t// out\n        /* \"#utility.yul\":5080:6151   */\n    tag_246:\n        /* \"#utility.yul\":5239:5242   */\n      0x00\n        /* \"#utility.yul\":5268:5342   */\n      tag_357\n        /* \"#utility.yul\":5336:5341   */\n      dup3\n        /* \"#utility.yul\":5268:5342   */\n      tag_231\n      jump\t// in\n    tag_357:\n        /* \"#utility.yul\":5358:5464   */\n      tag_358\n        /* \"#utility.yul\":5457:5463   */\n      dup2\n        /* \"#utility.yul\":5452:5455   */\n      dup6\n        /* \"#utility.yul\":5358:5464   */\n      tag_232\n      jump\t// in\n    tag_358:\n        /* \"#utility.yul\":5351:5464   */\n      swap4\n      pop\n        /* \"#utility.yul\":5490:5493   */\n      dup4\n        /* \"#utility.yul\":5535:5539   */\n      0x20\n        /* \"#utility.yul\":5527:5533   */\n      dup3\n        /* \"#utility.yul\":5523:5540   */\n      mul\n        /* \"#utility.yul\":5518:5521   */\n      dup6\n        /* \"#utility.yul\":5514:5541   */\n      add\n        /* \"#utility.yul\":5565:5641   */\n      tag_359\n        /* \"#utility.yul\":5635:5640   */\n      dup6\n        /* \"#utility.yul\":5565:5641   */\n      tag_233\n      jump\t// in\n    tag_359:\n        /* \"#utility.yul\":5664:5671   */\n      dup1\n        /* \"#utility.yul\":5695:5696   */\n      0x00\n        /* \"#utility.yul\":5680:6106   */\n    tag_360:\n        /* \"#utility.yul\":5705:5711   */\n      dup6\n        /* \"#utility.yul\":5702:5703   */\n      dup2\n        /* \"#utility.yul\":5699:5712   */\n      lt\n        /* \"#utility.yul\":5680:6106   */\n      iszero\n      tag_362\n      jumpi\n        /* \"#utility.yul\":5776:5785   */\n      dup5\n        /* \"#utility.yul\":5770:5774   */\n      dup5\n        /* \"#utility.yul\":5766:5786   */\n      sub\n        /* \"#utility.yul\":5761:5764   */\n      dup10\n        /* \"#utility.yul\":5754:5787   */\n      mstore\n        /* \"#utility.yul\":5827:5833   */\n      dup2\n        /* \"#utility.yul\":5821:5834   */\n      mload\n        /* \"#utility.yul\":5855:5959   */\n      tag_363\n        /* \"#utility.yul\":5954:5958   */\n      dup6\n        /* \"#utility.yul\":5939:5952   */\n      dup3\n        /* \"#utility.yul\":5855:5959   */\n      tag_244\n      jump\t// in\n    tag_363:\n        /* \"#utility.yul\":5847:5959   */\n      swap5\n      pop\n        /* \"#utility.yul\":5982:6062   */\n      tag_364\n        /* \"#utility.yul\":6055:6061   */\n      dup4\n        /* \"#utility.yul\":5982:6062   */\n      tag_245\n      jump\t// in\n    tag_364:\n        /* \"#utility.yul\":5972:6062   */\n      swap3\n      pop\n        /* \"#utility.yul\":6091:6095   */\n      0x20\n        /* \"#utility.yul\":6086:6089   */\n      dup11\n        /* \"#utility.yul\":6082:6096   */\n      add\n        /* \"#utility.yul\":6075:6096   */\n      swap10\n      pop\n        /* \"#utility.yul\":5740:6106   */\n      pop\n        /* \"#utility.yul\":5727:5728   */\n      0x01\n        /* \"#utility.yul\":5724:5725   */\n      dup2\n        /* \"#utility.yul\":5720:5729   */\n      add\n        /* \"#utility.yul\":5715:5729   */\n      swap1\n      pop\n        /* \"#utility.yul\":5680:6106   */\n      jump(tag_360)\n    tag_362:\n        /* \"#utility.yul\":5684:5698   */\n      pop\n        /* \"#utility.yul\":6122:6126   */\n      dup3\n        /* \"#utility.yul\":6115:6126   */\n      swap8\n      pop\n        /* \"#utility.yul\":6142:6145   */\n      dup8\n        /* \"#utility.yul\":6135:6145   */\n      swap6\n      pop\n        /* \"#utility.yul\":5244:6151   */\n      pop\n      pop\n      pop\n      pop\n      pop\n        /* \"#utility.yul\":5080:6151   */\n      swap3\n      swap2\n      pop\n      pop\n      jump\t// out\n        /* \"#utility.yul\":6157:6610   */\n    tag_19:\n        /* \"#utility.yul\":6340:6344   */\n      0x00\n        /* \"#utility.yul\":6378:6380   */\n      0x20\n        /* \"#utility.yul\":6367:6376   */\n      dup3\n        /* \"#utility.yul\":6363:6381   */\n      add\n        /* \"#utility.yul\":6355:6381   */\n      swap1\n      pop\n        /* \"#utility.yul\":6427:6436   */\n      dup2\n        /* \"#utility.yul\":6421:6425   */\n      dup2\n        /* \"#utility.yul\":6417:6437   */\n      sub\n        /* \"#utility.yul\":6413:6414   */\n      0x00\n        /* \"#utility.yul\":6402:6411   */\n      dup4\n        /* \"#utility.yul\":6398:6415   */\n      add\n        /* \"#utility.yul\":6391:6438   */\n      mstore\n        /* \"#utility.yul\":6455:6603   */\n      tag_366\n        /* \"#utility.yul\":6598:6602   */\n      dup2\n        /* \"#utility.yul\":6589:6595   */\n      dup5\n        /* \"#utility.yul\":6455:6603   */\n      tag_246\n      jump\t// in\n    tag_366:\n        /* \"#utility.yul\":6447:6603   */\n      swap1\n      pop\n        /* \"#utility.yul\":6157:6610   */\n      swap3\n      swap2\n      pop\n      pop\n      jump\t// out\n        /* \"#utility.yul\":6616:6738   */\n    tag_247:\n        /* \"#utility.yul\":6689:6713   */\n      tag_368\n        /* \"#utility.yul\":6707:6712   */\n      dup2\n        /* \"#utility.yul\":6689:6713   */\n      tag_234\n      jump\t// in\n    tag_368:\n        /* \"#utility.yul\":6682:6687   */\n      dup2\n        /* \"#utility.yul\":6679:6714   */\n      eq\n        /* \"#utility.yul\":6669:6732   */\n      tag_369\n      jumpi\n        /* \"#utility.yul\":6728:6729   */\n      0x00\n        /* \"#utility.yul\":6725:6726   */\n      0x00\n        /* \"#utility.yul\":6718:6730   */\n      revert\n        /* \"#utility.yul\":6669:6732   */\n    tag_369:\n        /* \"#utility.yul\":6616:6738   */\n      pop\n      jump\t// out\n        /* \"#utility.yul\":6744:6883   */\n    tag_248:\n        /* \"#utility.yul\":6790:6795   */\n      0x00\n        /* \"#utility.yul\":6828:6834   */\n      dup2\n        /* \"#utility.yul\":6815:6835   */\n      calldataload\n        /* \"#utility.yul\":6806:6835   */\n      swap1\n      pop\n        /* \"#utility.yul\":6844:6877   */\n      tag_371\n        /* \"#utility.yul\":6871:6876   */\n      dup2\n        /* \"#utility.yul\":6844:6877   */\n      tag_247\n      jump\t// in\n    tag_371:\n        /* \"#utility.yul\":6744:6883   */\n      swap3\n      swap2\n      pop\n      pop\n      jump\t// out\n        /* \"#utility.yul\":6889:7218   */\n    tag_25:\n        /* \"#utility.yul\":6948:6954   */\n      0x00\n        /* \"#utility.yul\":6997:6999   */\n      0x20\n        /* \"#utility.yul\":6985:6994   */\n      dup3\n        /* \"#utility.yul\":6976:6983   */\n      dup5\n        /* \"#utility.yul\":6972:6995   */\n      sub\n        /* \"#utility.yul\":6968:7000   */\n      slt\n        /* \"#utility.yul\":6965:7084   */\n      iszero\n      tag_373\n      jumpi\n        /* \"#utility.yul\":7003:7082   */\n      tag_374\n      tag_225\n      jump\t// in\n    tag_374:\n        /* \"#utility.yul\":6965:7084   */\n    tag_373:\n        /* \"#utility.yul\":7123:7124   */\n      0x00\n        /* \"#utility.yul\":7148:7201   */\n      tag_375\n        /* \"#utility.yul\":7193:7200   */\n      dup5\n        /* \"#utility.yul\":7184:7190   */\n      dup3\n        /* \"#utility.yul\":7173:7182   */\n      dup6\n        /* \"#utility.yul\":7169:7191   */\n      add\n        /* \"#utility.yul\":7148:7201   */\n      tag_248\n      jump\t// in\n    tag_375:\n        /* \"#utility.yul\":7138:7201   */\n      swap2\n      pop\n        /* \"#utility.yul\":7094:7211   */\n      pop\n        /* \"#utility.yul\":6889:7218   */\n      swap3\n      swap2\n      pop\n      pop\n      jump\t// out\n        /* \"#utility.yul\":7224:7346   */\n    tag_249:\n        /* \"#utility.yul\":7297:7321   */\n      tag_377\n        /* \"#utility.yul\":7315:7320   */\n      dup2\n        /* \"#utility.yul\":7297:7321   */\n      tag_241\n      jump\t// in\n    tag_377:\n        /* \"#utility.yul\":7290:7295   */\n      dup2\n        /* \"#utility.yul\":7287:7322   */\n      eq\n        /* \"#utility.yul\":7277:7340   */\n      tag_378\n      jumpi\n        /* \"#utility.yul\":7336:7337   */\n      0x00\n        /* \"#utility.yul\":7333:7334   */\n      0x00\n        /* \"#utility.yul\":7326:7338   */\n      revert\n        /* \"#utility.yul\":7277:7340   */\n    tag_378:\n        /* \"#utility.yul\":7224:7346   */\n      pop\n      jump\t// out\n        /* \"#utility.yul\":7352:7491   */\n    tag_250:\n        /* \"#utility.yul\":7398:7403   */\n      0x00\n        /* \"#utility.yul\":7436:7442   */\n      dup2\n        /* \"#utility.yul\":7423:7443   */\n      calldataload\n        /* \"#utility.yul\":7414:7443   */\n      swap1\n      pop\n        /* \"#utility.yul\":7452:7485   */\n      tag_380\n        /* \"#utility.yul\":7479:7484   */\n      dup2\n        /* \"#utility.yul\":7452:7485   */\n      tag_249\n      jump\t// in\n    tag_380:\n        /* \"#utility.yul\":7352:7491   */\n      swap3\n      swap2\n      pop\n      pop\n      jump\t// out\n        /* \"#utility.yul\":7497:7971   */\n    tag_29:\n        /* \"#utility.yul\":7565:7571   */\n      0x00\n        /* \"#utility.yul\":7573:7579   */\n      0x00\n        /* \"#utility.yul\":7622:7624   */\n      0x40\n        /* \"#utility.yul\":7610:7619   */\n      dup4\n        /* \"#utility.yul\":7601:7608   */\n      dup6\n        /* \"#utility.yul\":7597:7620   */\n      sub\n        /* \"#utility.yul\":7593:7625   */\n      slt\n        /* \"#utility.yul\":7590:7709   */\n      iszero\n      tag_382\n      jumpi\n        /* \"#utility.yul\":7628:7707   */\n      tag_383\n      tag_225\n      jump\t// in\n    tag_383:\n        /* \"#utility.yul\":7590:7709   */\n    tag_382:\n        /* \"#utility.yul\":7748:7749   */\n      0x00\n        /* \"#utility.yul\":7773:7826   */\n      tag_384\n        /* \"#utility.yul\":7818:7825   */\n      dup6\n        /* \"#utility.yul\":7809:7815   */\n      dup3\n        /* \"#utility.yul\":7798:7807   */\n      dup7\n        /* \"#utility.yul\":7794:7816   */\n      add\n        /* \"#utility.yul\":7773:7826   */\n      tag_248\n      jump\t// in\n    tag_384:\n        /* \"#utility.yul\":7763:7826   */\n      swap3\n      pop\n        /* \"#utility.yul\":7719:7836   */\n      pop\n        /* \"#utility.yul\":7875:7877   */\n      0x20\n        /* \"#utility.yul\":7901:7954   */\n      tag_385\n        /* \"#utility.yul\":7946:7953   */\n      dup6\n        /* \"#utility.yul\":7937:7943   */\n      dup3\n        /* \"#utility.yul\":7926:7935   */\n      dup7\n        /* \"#utility.yul\":7922:7944   */\n      add\n        /* \"#utility.yul\":7901:7954   */\n      tag_250\n      jump\t// in\n    tag_385:\n        /* \"#utility.yul\":7891:7954   */\n      swap2\n      pop\n        /* \"#utility.yul\":7846:7964   */\n      pop\n        /* \"#utility.yul\":7497:7971   */\n      swap3\n      pop\n      swap3\n      swap1\n      pop\n      jump\t// out\n        /* \"#utility.yul\":7977:8094   */\n    tag_251:\n        /* \"#utility.yul\":8086:8087   */\n      0x00\n        /* \"#utility.yul\":8083:8084   */\n      0x00\n        /* \"#utility.yul\":8076:8088   */\n      revert\n        /* \"#utility.yul\":8100:8217   */\n    tag_252:\n        /* \"#utility.yul\":8209:8210   */\n      0x00\n        /* \"#utility.yul\":8206:8207   */\n      0x00\n        /* \"#utility.yul\":8199:8211   */\n      revert\n        /* \"#utility.yul\":8223:8403   */\n    tag_60:\n        /* \"#utility.yul\":8271:8348   */\n      0x4e487b7100000000000000000000000000000000000000000000000000000000\n        /* \"#utility.yul\":8268:8269   */\n      0x00\n        /* \"#utility.yul\":8261:8349   */\n      mstore\n        /* \"#utility.yul\":8368:8372   */\n      0x41\n        /* \"#utility.yul\":8365:8366   */\n      0x04\n        /* \"#utility.yul\":8358:8373   */\n      mstore\n        /* \"#utility.yul\":8392:8396   */\n      0x24\n        /* \"#utility.yul\":8389:8390   */\n      0x00\n        /* \"#utility.yul\":8382:8397   */\n      revert\n        /* \"#utility.yul\":8409:8690   */\n    tag_253:\n        /* \"#utility.yul\":8492:8519   */\n      tag_390\n        /* \"#utility.yul\":8514:8518   */\n      dup3\n        /* \"#utility.yul\":8492:8519   */\n      tag_239\n      jump\t// in\n    tag_390:\n        /* \"#utility.yul\":8484:8490   */\n      dup2\n        /* \"#utility.yul\":8480:8520   */\n      add\n        /* \"#utility.yul\":8622:8628   */\n      dup2\n        /* \"#utility.yul\":8610:8620   */\n      dup2\n        /* \"#utility.yul\":8607:8629   */\n      lt\n        /* \"#utility.yul\":8586:8604   */\n      0xffffffffffffffff\n        /* \"#utility.yul\":8574:8584   */\n      dup3\n        /* \"#utility.yul\":8571:8605   */\n      gt\n        /* \"#utility.yul\":8568:8630   */\n      or\n        /* \"#utility.yul\":8565:8653   */\n      iszero\n      tag_391\n      jumpi\n        /* \"#utility.yul\":8633:8651   */\n      tag_392\n      tag_60\n      jump\t// in\n    tag_392:\n        /* \"#utility.yul\":8565:8653   */\n    tag_391:\n        /* \"#utility.yul\":8673:8683   */\n      dup1\n        /* \"#utility.yul\":8669:8671   */\n      0x40\n        /* \"#utility.yul\":8662:8684   */\n      mstore\n        /* \"#utility.yul\":8452:8690   */\n      pop\n        /* \"#utility.yul\":8409:8690   */\n      pop\n      pop\n      jump\t// out\n        /* \"#utility.yul\":8696:8825   */\n    tag_254:\n        /* \"#utility.yul\":8730:8736   */\n      0x00\n        /* \"#utility.yul\":8757:8777   */\n      tag_394\n      tag_224\n      jump\t// in\n    tag_394:\n        /* \"#utility.yul\":8747:8777   */\n      swap1\n      pop\n        /* \"#utility.yul\":8786:8819   */\n      tag_395\n        /* \"#utility.yul\":8814:8818   */\n      dup3\n        /* \"#utility.yul\":8806:8812   */\n      dup3\n        /* \"#utility.yul\":8786:8819   */\n      tag_253\n      jump\t// in\n    tag_395:\n        /* \"#utility.yul\":8696:8825   */\n      swap2\n      swap1\n      pop\n      jump\t// out\n        /* \"#utility.yul\":8831:9139   */\n    tag_255:\n        /* \"#utility.yul\":8893:8897   */\n      0x00\n        /* \"#utility.yul\":8983:9001   */\n      0xffffffffffffffff\n        /* \"#utility.yul\":8975:8981   */\n      dup3\n        /* \"#utility.yul\":8972:9002   */\n      gt\n        /* \"#utility.yul\":8969:9025   */\n      iszero\n      tag_397\n      jumpi\n        /* \"#utility.yul\":9005:9023   */\n      tag_398\n      tag_60\n      jump\t// in\n    tag_398:\n        /* \"#utility.yul\":8969:9025   */\n    tag_397:\n        /* \"#utility.yul\":9043:9072   */\n      tag_399\n        /* \"#utility.yul\":9065:9071   */\n      dup3\n        /* \"#utility.yul\":9043:9072   */\n      tag_239\n      jump\t// in\n    tag_399:\n        /* \"#utility.yul\":9035:9072   */\n      swap1\n      pop\n        /* \"#utility.yul\":9127:9131   */\n      0x20\n        /* \"#utility.yul\":9121:9125   */\n      dup2\n        /* \"#utility.yul\":9117:9132   */\n      add\n        /* \"#utility.yul\":9109:9132   */\n      swap1\n      pop\n        /* \"#utility.yul\":8831:9139   */\n      swap2\n      swap1\n      pop\n      jump\t// out\n        /* \"#utility.yul\":9145:9293   */\n    tag_256:\n        /* \"#utility.yul\":9243:9249   */\n      dup3\n        /* \"#utility.yul\":9238:9241   */\n      dup2\n        /* \"#utility.yul\":9233:9236   */\n      dup4\n        /* \"#utility.yul\":9220:9250   */\n      calldatacopy\n        /* \"#utility.yul\":9284:9285   */\n      0x00\n        /* \"#utility.yul\":9275:9281   */\n      dup4\n        /* \"#utility.yul\":9270:9273   */\n      dup4\n        /* \"#utility.yul\":9266:9282   */\n      add\n        /* \"#utility.yul\":9259:9286   */\n      mstore\n        /* \"#utility.yul\":9145:9293   */\n      pop\n      pop\n      pop\n      jump\t// out\n        /* \"#utility.yul\":9299:9724   */\n    tag_257:\n        /* \"#utility.yul\":9377:9382   */\n      0x00\n        /* \"#utility.yul\":9402:9468   */\n      tag_402\n        /* \"#utility.yul\":9418:9467   */\n      tag_403\n        /* \"#utility.yul\":9460:9466   */\n      dup5\n        /* \"#utility.yul\":9418:9467   */\n      tag_255\n      jump\t// in\n    tag_403:\n        /* \"#utility.yul\":9402:9468   */\n      tag_254\n      jump\t// in\n    tag_402:\n        /* \"#utility.yul\":9393:9468   */\n      swap1\n      pop\n        /* \"#utility.yul\":9491:9497   */\n      dup3\n        /* \"#utility.yul\":9484:9489   */\n      dup2\n        /* \"#utility.yul\":9477:9498   */\n      mstore\n        /* \"#utility.yul\":9529:9533   */\n      0x20\n        /* \"#utility.yul\":9522:9527   */\n      dup2\n        /* \"#utility.yul\":9518:9534   */\n      add\n        /* \"#utility.yul\":9567:9570   */\n      dup5\n        /* \"#utility.yul\":9558:9564   */\n      dup5\n        /* \"#utility.yul\":9553:9556   */\n      dup5\n        /* \"#utility.yul\":9549:9565   */\n      add\n        /* \"#utility.yul\":9546:9571   */\n      gt\n        /* \"#utility.yul\":9543:9655   */\n      iszero\n      tag_404\n      jumpi\n        /* \"#utility.yul\":9574:9653   */\n      tag_405\n      tag_252\n      jump\t// in\n    tag_405:\n        /* \"#utility.yul\":9543:9655   */\n    tag_404:\n        /* \"#utility.yul\":9664:9718   */\n      tag_406\n        /* \"#utility.yul\":9711:9717   */\n      dup5\n        /* \"#utility.yul\":9706:9709   */\n      dup3\n        /* \"#utility.yul\":9701:9704   */\n      dup6\n        /* \"#utility.yul\":9664:9718   */\n      tag_256\n      jump\t// in\n    tag_406:\n        /* \"#utility.yul\":9383:9724   */\n      pop\n        /* \"#utility.yul\":9299:9724   */\n      swap4\n      swap3\n      pop\n      pop\n      pop\n      jump\t// out\n        /* \"#utility.yul\":9744:10084   */\n    tag_258:\n        /* \"#utility.yul\":9800:9805   */\n      0x00\n        /* \"#utility.yul\":9849:9852   */\n      dup3\n        /* \"#utility.yul\":9842:9846   */\n      0x1f\n        /* \"#utility.yul\":9834:9840   */\n      dup4\n        /* \"#utility.yul\":9830:9847   */\n      add\n        /* \"#utility.yul\":9826:9853   */\n      slt\n        /* \"#utility.yul\":9816:9938   */\n      tag_408\n      jumpi\n        /* \"#utility.yul\":9857:9936   */\n      tag_409\n      tag_251\n      jump\t// in\n    tag_409:\n        /* \"#utility.yul\":9816:9938   */\n    tag_408:\n        /* \"#utility.yul\":9974:9980   */\n      dup2\n        /* \"#utility.yul\":9961:9981   */\n      calldataload\n        /* \"#utility.yul\":9999:10078   */\n      tag_410\n        /* \"#utility.yul\":10074:10077   */\n      dup5\n        /* \"#utility.yul\":10066:10072   */\n      dup3\n        /* \"#utility.yul\":10059:10063   */\n      0x20\n        /* \"#utility.yul\":10051:10057   */\n      dup7\n        /* \"#utility.yul\":10047:10064   */\n      add\n        /* \"#utility.yul\":9999:10078   */\n      tag_257\n      jump\t// in\n    tag_410:\n        /* \"#utility.yul\":9990:10078   */\n      swap2\n      pop\n        /* \"#utility.yul\":9806:10084   */\n      pop\n        /* \"#utility.yul\":9744:10084   */\n      swap3\n      swap2\n      pop\n      pop\n      jump\t// out\n        /* \"#utility.yul\":10090:11069   */\n    tag_33:\n        /* \"#utility.yul\":10187:10193   */\n      0x00\n        /* \"#utility.yul\":10195:10201   */\n      0x00\n        /* \"#utility.yul\":10203:10209   */\n      0x00\n        /* \"#utility.yul\":10252:10254   */\n      0x60\n        /* \"#utility.yul\":10240:10249   */\n      dup5\n        /* \"#utility.yul\":10231:10238   */\n      dup7\n        /* \"#utility.yul\":10227:10250   */\n      sub\n        /* \"#utility.yul\":10223:10255   */\n      slt\n        /* \"#utility.yul\":10220:10339   */\n      iszero\n      tag_412\n      jumpi\n        /* \"#utility.yul\":10258:10337   */\n      tag_413\n      tag_225\n      jump\t// in\n    tag_413:\n        /* \"#utility.yul\":10220:10339   */\n    tag_412:\n        /* \"#utility.yul\":10378:10379   */\n      0x00\n        /* \"#utility.yul\":10403:10456   */\n      tag_414\n        /* \"#utility.yul\":10448:10455   */\n      dup7\n        /* \"#utility.yul\":10439:10445   */\n      dup3\n        /* \"#utility.yul\":10428:10437   */\n      dup8\n        /* \"#utility.yul\":10424:10446   */\n      add\n        /* \"#utility.yul\":10403:10456   */\n      tag_248\n      jump\t// in\n    tag_414:\n        /* \"#utility.yul\":10393:10456   */\n      swap4\n      pop\n        /* \"#utility.yul\":10349:10466   */\n      pop\n        /* \"#utility.yul\":10533:10535   */\n      0x20\n        /* \"#utility.yul\":10522:10531   */\n      dup5\n        /* \"#utility.yul\":10518:10536   */\n      add\n        /* \"#utility.yul\":10505:10537   */\n      calldataload\n        /* \"#utility.yul\":10564:10582   */\n      0xffffffffffffffff\n        /* \"#utility.yul\":10556:10562   */\n      dup2\n        /* \"#utility.yul\":10553:10583   */\n      gt\n        /* \"#utility.yul\":10550:10667   */\n      iszero\n      tag_415\n      jumpi\n        /* \"#utility.yul\":10586:10665   */\n      tag_416\n      tag_226\n      jump\t// in\n    tag_416:\n        /* \"#utility.yul\":10550:10667   */\n    tag_415:\n        /* \"#utility.yul\":10691:10754   */\n      tag_417\n        /* \"#utility.yul\":10746:10753   */\n      dup7\n        /* \"#utility.yul\":10737:10743   */\n      dup3\n        /* \"#utility.yul\":10726:10735   */\n      dup8\n        /* \"#utility.yul\":10722:10744   */\n      add\n        /* \"#utility.yul\":10691:10754   */\n      tag_258\n      jump\t// in\n    tag_417:\n        /* \"#utility.yul\":10681:10754   */\n      swap3\n      pop\n        /* \"#utility.yul\":10476:10764   */\n      pop\n        /* \"#utility.yul\":10831:10833   */\n      0x40\n        /* \"#utility.yul\":10820:10829   */\n      dup5\n        /* \"#utility.yul\":10816:10834   */\n      add\n        /* \"#utility.yul\":10803:10835   */\n      calldataload\n        /* \"#utility.yul\":10862:10880   */\n      0xffffffffffffffff\n        /* \"#utility.yul\":10854:10860   */\n      dup2\n        /* \"#utility.yul\":10851:10881   */\n      gt\n        /* \"#utility.yul\":10848:10965   */\n      iszero\n      tag_418\n      jumpi\n        /* \"#utility.yul\":10884:10963   */\n      tag_419\n      tag_226\n      jump\t// in\n    tag_419:\n        /* \"#utility.yul\":10848:10965   */\n    tag_418:\n        /* \"#utility.yul\":10989:11052   */\n      tag_420\n        /* \"#utility.yul\":11044:11051   */\n      dup7\n        /* \"#utility.yul\":11035:11041   */\n      dup3\n        /* \"#utility.yul\":11024:11033   */\n      dup8\n        /* \"#utility.yul\":11020:11042   */\n      add\n        /* \"#utility.yul\":10989:11052   */\n      tag_258\n      jump\t// in\n    tag_420:\n        /* \"#utility.yul\":10979:11052   */\n      swap2\n      pop\n        /* \"#utility.yul\":10774:11062   */\n      pop\n        /* \"#utility.yul\":10090:11069   */\n      swap3\n      pop\n      swap3\n      pop\n      swap3\n      jump\t// out\n        /* \"#utility.yul\":11075:11193   */\n    tag_259:\n        /* \"#utility.yul\":11162:11186   */\n      tag_422\n        /* \"#utility.yul\":11180:11185   */\n      dup2\n        /* \"#utility.yul\":11162:11186   */\n      tag_234\n      jump\t// in\n    tag_422:\n        /* \"#utility.yul\":11157:11160   */\n      dup3\n        /* \"#utility.yul\":11150:11187   */\n      mstore\n        /* \"#utility.yul\":11075:11193   */\n      pop\n      pop\n      jump\t// out\n        /* \"#utility.yul\":11199:11368   */\n    tag_260:\n        /* \"#utility.yul\":11283:11294   */\n      0x00\n        /* \"#utility.yul\":11317:11323   */\n      dup3\n        /* \"#utility.yul\":11312:11315   */\n      dup3\n        /* \"#utility.yul\":11305:11324   */\n      mstore\n        /* \"#utility.yul\":11357:11361   */\n      0x20\n        /* \"#utility.yul\":11352:11355   */\n      dup3\n        /* \"#utility.yul\":11348:11362   */\n      add\n        /* \"#utility.yul\":11333:11362   */\n      swap1\n      pop\n        /* \"#utility.yul\":11199:11368   */\n      swap3\n      swap2\n      pop\n      pop\n      jump\t// out\n        /* \"#utility.yul\":11374:11751   */\n    tag_261:\n        /* \"#utility.yul\":11462:11465   */\n      0x00\n        /* \"#utility.yul\":11490:11529   */\n      tag_425\n        /* \"#utility.yul\":11523:11528   */\n      dup3\n        /* \"#utility.yul\":11490:11529   */\n      tag_236\n      jump\t// in\n    tag_425:\n        /* \"#utility.yul\":11545:11616   */\n      tag_426\n        /* \"#utility.yul\":11609:11615   */\n      dup2\n        /* \"#utility.yul\":11604:11607   */\n      dup6\n        /* \"#utility.yul\":11545:11616   */\n      tag_260\n      jump\t// in\n    tag_426:\n        /* \"#utility.yul\":11538:11616   */\n      swap4\n      pop\n        /* \"#utility.yul\":11625:11690   */\n      tag_427\n        /* \"#utility.yul\":11683:11689   */\n      dup2\n        /* \"#utility.yul\":11678:11681   */\n      dup6\n        /* \"#utility.yul\":11671:11675   */\n      0x20\n        /* \"#utility.yul\":11664:11669   */\n      dup7\n        /* \"#utility.yul\":11660:11676   */\n      add\n        /* \"#utility.yul\":11625:11690   */\n      tag_238\n      jump\t// in\n    tag_427:\n        /* \"#utility.yul\":11715:11744   */\n      tag_428\n        /* \"#utility.yul\":11737:11743   */\n      dup2\n        /* \"#utility.yul\":11715:11744   */\n      tag_239\n      jump\t// in\n    tag_428:\n        /* \"#utility.yul\":11710:11713   */\n      dup5\n        /* \"#utility.yul\":11706:11745   */\n      add\n        /* \"#utility.yul\":11699:11745   */\n      swap2\n      pop\n        /* \"#utility.yul\":11466:11751   */\n      pop\n        /* \"#utility.yul\":11374:11751   */\n      swap3\n      swap2\n      pop\n      pop\n      jump\t// out\n        /* \"#utility.yul\":11757:11875   */\n    tag_262:\n        /* \"#utility.yul\":11844:11868   */\n      tag_430\n        /* \"#utility.yul\":11862:11867   */\n      dup2\n        /* \"#utility.yul\":11844:11868   */\n      tag_241\n      jump\t// in\n    tag_430:\n        /* \"#utility.yul\":11839:11842   */\n      dup3\n        /* \"#utility.yul\":11832:11869   */\n      mstore\n        /* \"#utility.yul\":11757:11875   */\n      pop\n      pop\n      jump\t// out\n        /* \"#utility.yul\":11881:13040   */\n    tag_39:\n        /* \"#utility.yul\":12202:12206   */\n      0x00\n        /* \"#utility.yul\":12240:12243   */\n      0xe0\n        /* \"#utility.yul\":12229:12238   */\n      dup3\n        /* \"#utility.yul\":12225:12244   */\n      add\n        /* \"#utility.yul\":12217:12244   */\n      swap1\n      pop\n        /* \"#utility.yul\":12254:12325   */\n      tag_432\n        /* \"#utility.yul\":12322:12323   */\n      0x00\n        /* \"#utility.yul\":12311:12320   */\n      dup4\n        /* \"#utility.yul\":12307:12324   */\n      add\n        /* \"#utility.yul\":12298:12304   */\n      dup11\n        /* \"#utility.yul\":12254:12325   */\n      tag_259\n      jump\t// in\n    tag_432:\n        /* \"#utility.yul\":12372:12381   */\n      dup2\n        /* \"#utility.yul\":12366:12370   */\n      dup2\n        /* \"#utility.yul\":12362:12382   */\n      sub\n        /* \"#utility.yul\":12357:12359   */\n      0x20\n        /* \"#utility.yul\":12346:12355   */\n      dup4\n        /* \"#utility.yul\":12342:12360   */\n      add\n        /* \"#utility.yul\":12335:12383   */\n      mstore\n        /* \"#utility.yul\":12400:12478   */\n      tag_433\n        /* \"#utility.yul\":12473:12477   */\n      dup2\n        /* \"#utility.yul\":12464:12470   */\n      dup10\n        /* \"#utility.yul\":12400:12478   */\n      tag_261\n      jump\t// in\n    tag_433:\n        /* \"#utility.yul\":12392:12478   */\n      swap1\n      pop\n        /* \"#utility.yul\":12525:12534   */\n      dup2\n        /* \"#utility.yul\":12519:12523   */\n      dup2\n        /* \"#utility.yul\":12515:12535   */\n      sub\n        /* \"#utility.yul\":12510:12512   */\n      0x40\n        /* \"#utility.yul\":12499:12508   */\n      dup4\n        /* \"#utility.yul\":12495:12513   */\n      add\n        /* \"#utility.yul\":12488:12536   */\n      mstore\n        /* \"#utility.yul\":12553:12631   */\n      tag_434\n        /* \"#utility.yul\":12626:12630   */\n      dup2\n        /* \"#utility.yul\":12617:12623   */\n      dup9\n        /* \"#utility.yul\":12553:12631   */\n      tag_261\n      jump\t// in\n    tag_434:\n        /* \"#utility.yul\":12545:12631   */\n      swap1\n      pop\n        /* \"#utility.yul\":12678:12687   */\n      dup2\n        /* \"#utility.yul\":12672:12676   */\n      dup2\n        /* \"#utility.yul\":12668:12688   */\n      sub\n        /* \"#utility.yul\":12663:12665   */\n      0x60\n        /* \"#utility.yul\":12652:12661   */\n      dup4\n        /* \"#utility.yul\":12648:12666   */\n      add\n        /* \"#utility.yul\":12641:12689   */\n      mstore\n        /* \"#utility.yul\":12706:12784   */\n      tag_435\n        /* \"#utility.yul\":12779:12783   */\n      dup2\n        /* \"#utility.yul\":12770:12776   */\n      dup8\n        /* \"#utility.yul\":12706:12784   */\n      tag_261\n      jump\t// in\n    tag_435:\n        /* \"#utility.yul\":12698:12784   */\n      swap1\n      pop\n        /* \"#utility.yul\":12794:12867   */\n      tag_436\n        /* \"#utility.yul\":12862:12865   */\n      0x80\n        /* \"#utility.yul\":12851:12860   */\n      dup4\n        /* \"#utility.yul\":12847:12866   */\n      add\n        /* \"#utility.yul\":12838:12844   */\n      dup7\n        /* \"#utility.yul\":12794:12867   */\n      tag_262\n      jump\t// in\n    tag_436:\n        /* \"#utility.yul\":12877:12950   */\n      tag_437\n        /* \"#utility.yul\":12945:12948   */\n      0xa0\n        /* \"#utility.yul\":12934:12943   */\n      dup4\n        /* \"#utility.yul\":12930:12949   */\n      add\n        /* \"#utility.yul\":12921:12927   */\n      dup6\n        /* \"#utility.yul\":12877:12950   */\n      tag_262\n      jump\t// in\n    tag_437:\n        /* \"#utility.yul\":12960:13033   */\n      tag_438\n        /* \"#utility.yul\":13028:13031   */\n      0xc0\n        /* \"#utility.yul\":13017:13026   */\n      dup4\n        /* \"#utility.yul\":13013:13032   */\n      add\n        /* \"#utility.yul\":13004:13010   */\n      dup5\n        /* \"#utility.yul\":12960:13033   */\n      tag_262\n      jump\t// in\n    tag_438:\n        /* \"#utility.yul\":11881:13040   */\n      swap9\n      swap8\n      pop\n      pop\n      pop\n      pop\n      pop\n      pop\n      pop\n      pop\n      jump\t// out\n        /* \"#utility.yul\":13046:14205   */\n    tag_48:\n        /* \"#utility.yul\":13153:13159   */\n      0x00\n        /* \"#utility.yul\":13161:13167   */\n      0x00\n        /* \"#utility.yul\":13169:13175   */\n      0x00\n        /* \"#utility.yul\":13218:13220   */\n      0x60\n        /* \"#utility.yul\":13206:13215   */\n      dup5\n        /* \"#utility.yul\":13197:13204   */\n      dup7\n        /* \"#utility.yul\":13193:13216   */\n      sub\n        /* \"#utility.yul\":13189:13221   */\n      slt\n        /* \"#utility.yul\":13186:13305   */\n      iszero\n      tag_440\n      jumpi\n        /* \"#utility.yul\":13224:13303   */\n      tag_441\n      tag_225\n      jump\t// in\n    tag_441:\n        /* \"#utility.yul\":13186:13305   */\n    tag_440:\n        /* \"#utility.yul\":13372:13373   */\n      0x00\n        /* \"#utility.yul\":13361:13370   */\n      dup5\n        /* \"#utility.yul\":13357:13374   */\n      add\n        /* \"#utility.yul\":13344:13375   */\n      calldataload\n        /* \"#utility.yul\":13402:13420   */\n      0xffffffffffffffff\n        /* \"#utility.yul\":13394:13400   */\n      dup2\n        /* \"#utility.yul\":13391:13421   */\n      gt\n        /* \"#utility.yul\":13388:13505   */\n      iszero\n      tag_442\n      jumpi\n        /* \"#utility.yul\":13424:13503   */\n      tag_443\n      tag_226\n      jump\t// in\n    tag_443:\n        /* \"#utility.yul\":13388:13505   */\n    tag_442:\n        /* \"#utility.yul\":13529:13592   */\n      tag_444\n        /* \"#utility.yul\":13584:13591   */\n      dup7\n        /* \"#utility.yul\":13575:13581   */\n      dup3\n        /* \"#utility.yul\":13564:13573   */\n      dup8\n        /* \"#utility.yul\":13560:13582   */\n      add\n        /* \"#utility.yul\":13529:13592   */\n      tag_258\n      jump\t// in\n    tag_444:\n        /* \"#utility.yul\":13519:13592   */\n      swap4\n      pop\n        /* \"#utility.yul\":13315:13602   */\n      pop\n        /* \"#utility.yul\":13669:13671   */\n      0x20\n        /* \"#utility.yul\":13658:13667   */\n      dup5\n        /* \"#utility.yul\":13654:13672   */\n      add\n        /* \"#utility.yul\":13641:13673   */\n      calldataload\n        /* \"#utility.yul\":13700:13718   */\n      0xffffffffffffffff\n        /* \"#utility.yul\":13692:13698   */\n      dup2\n        /* \"#utility.yul\":13689:13719   */\n      gt\n        /* \"#utility.yul\":13686:13803   */\n      iszero\n      tag_445\n      jumpi\n        /* \"#utility.yul\":13722:13801   */\n      tag_446\n      tag_226\n      jump\t// in\n    tag_446:\n        /* \"#utility.yul\":13686:13803   */\n    tag_445:\n        /* \"#utility.yul\":13827:13890   */\n      tag_447\n        /* \"#utility.yul\":13882:13889   */\n      dup7\n        /* \"#utility.yul\":13873:13879   */\n      dup3\n        /* \"#utility.yul\":13862:13871   */\n      dup8\n        /* \"#utility.yul\":13858:13880   */\n      add\n        /* \"#utility.yul\":13827:13890   */\n      tag_258\n      jump\t// in\n    tag_447:\n        /* \"#utility.yul\":13817:13890   */\n      swap3\n      pop\n        /* \"#utility.yul\":13612:13900   */\n      pop\n        /* \"#utility.yul\":13967:13969   */\n      0x40\n        /* \"#utility.yul\":13956:13965   */\n      dup5\n        /* \"#utility.yul\":13952:13970   */\n      add\n        /* \"#utility.yul\":13939:13971   */\n      calldataload\n        /* \"#utility.yul\":13998:14016   */\n      0xffffffffffffffff\n        /* \"#utility.yul\":13990:13996   */\n      dup2\n        /* \"#utility.yul\":13987:14017   */\n      gt\n        /* \"#utility.yul\":13984:14101   */\n      iszero\n      tag_448\n      jumpi\n        /* \"#utility.yul\":14020:14099   */\n      tag_449\n      tag_226\n      jump\t// in\n    tag_449:\n        /* \"#utility.yul\":13984:14101   */\n    tag_448:\n        /* \"#utility.yul\":14125:14188   */\n      tag_450\n        /* \"#utility.yul\":14180:14187   */\n      dup7\n        /* \"#utility.yul\":14171:14177   */\n      dup3\n        /* \"#utility.yul\":14160:14169   */\n      dup8\n        /* \"#utility.yul\":14156:14178   */\n      add\n        /* \"#utility.yul\":14125:14188   */\n      tag_258\n      jump\t// in\n    tag_450:\n        /* \"#utility.yul\":14115:14188   */\n      swap2\n      pop\n        /* \"#utility.yul\":13910:14198   */\n      pop\n        /* \"#utility.yul\":13046:14205   */\n      swap3\n      pop\n      swap3\n      pop\n      swap3\n      jump\t// out\n        /* \"#utility.yul\":14211:14348   */\n    tag_263:\n        /* \"#utility.yul\":14301:14307   */\n      0x00\n        /* \"#utility.yul\":14335:14340   */\n      dup2\n        /* \"#utility.yul\":14329:14341   */\n      mload\n        /* \"#utility.yul\":14319:14341   */\n      swap1\n      pop\n        /* \"#utility.yul\":14211:14348   */\n      swap2\n      swap1\n      pop\n      jump\t// out\n        /* \"#utility.yul\":14354:14561   */\n    tag_264:\n        /* \"#utility.yul\":14476:14487   */\n      0x00\n        /* \"#utility.yul\":14510:14516   */\n      dup3\n        /* \"#utility.yul\":14505:14508   */\n      dup3\n        /* \"#utility.yul\":14498:14517   */\n      mstore\n        /* \"#utility.yul\":14550:14554   */\n      0x20\n        /* \"#utility.yul\":14545:14548   */\n      dup3\n        /* \"#utility.yul\":14541:14555   */\n      add\n        /* \"#utility.yul\":14526:14555   */\n      swap1\n      pop\n        /* \"#utility.yul\":14354:14561   */\n      swap3\n      swap2\n      pop\n      pop\n      jump\t// out\n        /* \"#utility.yul\":14567:14722   */\n    tag_265:\n        /* \"#utility.yul\":14657:14661   */\n      0x00\n        /* \"#utility.yul\":14680:14683   */\n      dup2\n        /* \"#utility.yul\":14672:14683   */\n      swap1\n      pop\n        /* \"#utility.yul\":14710:14714   */\n      0x20\n        /* \"#utility.yul\":14705:14708   */\n      dup3\n        /* \"#utility.yul\":14701:14715   */\n      add\n        /* \"#utility.yul\":14693:14715   */\n      swap1\n      pop\n        /* \"#utility.yul\":14567:14722   */\n      swap2\n      swap1\n      pop\n      jump\t// out\n        /* \"#utility.yul\":14728:14836   */\n    tag_266:\n        /* \"#utility.yul\":14805:14829   */\n      tag_455\n        /* \"#utility.yul\":14823:14828   */\n      dup2\n        /* \"#utility.yul\":14805:14829   */\n      tag_228\n      jump\t// in\n    tag_455:\n        /* \"#utility.yul\":14800:14803   */\n      dup3\n        /* \"#utility.yul\":14793:14830   */\n      mstore\n        /* \"#utility.yul\":14728:14836   */\n      pop\n      pop\n      jump\t// out\n        /* \"#utility.yul\":14902:16468   */\n    tag_267:\n        /* \"#utility.yul\":15007:15010   */\n      0x00\n        /* \"#utility.yul\":15043:15047   */\n      0xe0\n        /* \"#utility.yul\":15038:15041   */\n      dup4\n        /* \"#utility.yul\":15034:15048   */\n      add\n        /* \"#utility.yul\":15128:15132   */\n      0x00\n        /* \"#utility.yul\":15121:15126   */\n      dup4\n        /* \"#utility.yul\":15117:15133   */\n      add\n        /* \"#utility.yul\":15111:15134   */\n      mload\n        /* \"#utility.yul\":15147:15210   */\n      tag_457\n        /* \"#utility.yul\":15204:15208   */\n      0x00\n        /* \"#utility.yul\":15199:15202   */\n      dup7\n        /* \"#utility.yul\":15195:15209   */\n      add\n        /* \"#utility.yul\":15181:15193   */\n      dup3\n        /* \"#utility.yul\":15147:15210   */\n      tag_235\n      jump\t// in\n    tag_457:\n        /* \"#utility.yul\":15058:15220   */\n      pop\n        /* \"#utility.yul\":15314:15318   */\n      0x20\n        /* \"#utility.yul\":15307:15312   */\n      dup4\n        /* \"#utility.yul\":15303:15319   */\n      add\n        /* \"#utility.yul\":15297:15320   */\n      mload\n        /* \"#utility.yul\":15333:15396   */\n      tag_458\n        /* \"#utility.yul\":15390:15394   */\n      0x20\n        /* \"#utility.yul\":15385:15388   */\n      dup7\n        /* \"#utility.yul\":15381:15395   */\n      add\n        /* \"#utility.yul\":15367:15379   */\n      dup3\n        /* \"#utility.yul\":15333:15396   */\n      tag_266\n      jump\t// in\n    tag_458:\n        /* \"#utility.yul\":15230:15406   */\n      pop\n        /* \"#utility.yul\":15497:15501   */\n      0x40\n        /* \"#utility.yul\":15490:15495   */\n      dup4\n        /* \"#utility.yul\":15486:15502   */\n      add\n        /* \"#utility.yul\":15480:15503   */\n      mload\n        /* \"#utility.yul\":15550:15553   */\n      dup5\n        /* \"#utility.yul\":15544:15548   */\n      dup3\n        /* \"#utility.yul\":15540:15554   */\n      sub\n        /* \"#utility.yul\":15533:15537   */\n      0x40\n        /* \"#utility.yul\":15528:15531   */\n      dup7\n        /* \"#utility.yul\":15524:15538   */\n      add\n        /* \"#utility.yul\":15517:15555   */\n      mstore\n        /* \"#utility.yul\":15576:15649   */\n      tag_459\n        /* \"#utility.yul\":15644:15648   */\n      dup3\n        /* \"#utility.yul\":15630:15642   */\n      dup3\n        /* \"#utility.yul\":15576:15649   */\n      tag_240\n      jump\t// in\n    tag_459:\n        /* \"#utility.yul\":15568:15649   */\n      swap2\n      pop\n        /* \"#utility.yul\":15416:15660   */\n      pop\n        /* \"#utility.yul\":15745:15749   */\n      0x60\n        /* \"#utility.yul\":15738:15743   */\n      dup4\n        /* \"#utility.yul\":15734:15750   */\n      add\n        /* \"#utility.yul\":15728:15751   */\n      mload\n        /* \"#utility.yul\":15798:15801   */\n      dup5\n        /* \"#utility.yul\":15792:15796   */\n      dup3\n        /* \"#utility.yul\":15788:15802   */\n      sub\n        /* \"#utility.yul\":15781:15785   */\n      0x60\n        /* \"#utility.yul\":15776:15779   */\n      dup7\n        /* \"#utility.yul\":15772:15786   */\n      add\n        /* \"#utility.yul\":15765:15803   */\n      mstore\n        /* \"#utility.yul\":15824:15897   */\n      tag_460\n        /* \"#utility.yul\":15892:15896   */\n      dup3\n        /* \"#utility.yul\":15878:15890   */\n      dup3\n        /* \"#utility.yul\":15824:15897   */\n      tag_240\n      jump\t// in\n    tag_460:\n        /* \"#utility.yul\":15816:15897   */\n      swap2\n      pop\n        /* \"#utility.yul\":15670:15908   */\n      pop\n        /* \"#utility.yul\":15992:15996   */\n      0x80\n        /* \"#utility.yul\":15985:15990   */\n      dup4\n        /* \"#utility.yul\":15981:15997   */\n      add\n        /* \"#utility.yul\":15975:15998   */\n      mload\n        /* \"#utility.yul\":16011:16074   */\n      tag_461\n        /* \"#utility.yul\":16068:16072   */\n      0x80\n        /* \"#utility.yul\":16063:16066   */\n      dup7\n        /* \"#utility.yul\":16059:16073   */\n      add\n        /* \"#utility.yul\":16045:16057   */\n      dup3\n        /* \"#utility.yul\":16011:16074   */\n      tag_242\n      jump\t// in\n    tag_461:\n        /* \"#utility.yul\":15918:16084   */\n      pop\n        /* \"#utility.yul\":16170:16174   */\n      0xa0\n        /* \"#utility.yul\":16163:16168   */\n      dup4\n        /* \"#utility.yul\":16159:16175   */\n      add\n        /* \"#utility.yul\":16153:16176   */\n      mload\n        /* \"#utility.yul\":16189:16252   */\n      tag_462\n        /* \"#utility.yul\":16246:16250   */\n      0xa0\n        /* \"#utility.yul\":16241:16244   */\n      dup7\n        /* \"#utility.yul\":16237:16251   */\n      add\n        /* \"#utility.yul\":16223:16235   */\n      dup3\n        /* \"#utility.yul\":16189:16252   */\n      tag_242\n      jump\t// in\n    tag_462:\n        /* \"#utility.yul\":16094:16262   */\n      pop\n        /* \"#utility.yul\":16349:16353   */\n      0xc0\n        /* \"#utility.yul\":16342:16347   */\n      dup4\n        /* \"#utility.yul\":16338:16354   */\n      add\n        /* \"#utility.yul\":16332:16355   */\n      mload\n        /* \"#utility.yul\":16368:16431   */\n      tag_463\n        /* \"#utility.yul\":16425:16429   */\n      0xc0\n        /* \"#utility.yul\":16420:16423   */\n      dup7\n        /* \"#utility.yul\":16416:16430   */\n      add\n        /* \"#utility.yul\":16402:16414   */\n      dup3\n        /* \"#utility.yul\":16368:16431   */\n      tag_242\n      jump\t// in\n    tag_463:\n        /* \"#utility.yul\":16272:16441   */\n      pop\n        /* \"#utility.yul\":16458:16462   */\n      dup1\n        /* \"#utility.yul\":16451:16462   */\n      swap2\n      pop\n        /* \"#utility.yul\":15012:16468   */\n      pop\n        /* \"#utility.yul\":14902:16468   */\n      swap3\n      swap2\n      pop\n      pop\n      jump\t// out\n        /* \"#utility.yul\":16474:16722   */\n    tag_268:\n        /* \"#utility.yul\":16589:16599   */\n      0x00\n        /* \"#utility.yul\":16624:16716   */\n      tag_465\n        /* \"#utility.yul\":16712:16715   */\n      dup4\n        /* \"#utility.yul\":16704:16710   */\n      dup4\n        /* \"#utility.yul\":16624:16716   */\n      tag_267\n      jump\t// in\n    tag_465:\n        /* \"#utility.yul\":16610:16716   */\n      swap1\n      pop\n        /* \"#utility.yul\":16474:16722   */\n      swap3\n      swap2\n      pop\n      pop\n      jump\t// out\n        /* \"#utility.yul\":16728:16864   */\n    tag_269:\n        /* \"#utility.yul\":16821:16825   */\n      0x00\n        /* \"#utility.yul\":16853:16857   */\n      0x20\n        /* \"#utility.yul\":16848:16851   */\n      dup3\n        /* \"#utility.yul\":16844:16858   */\n      add\n        /* \"#utility.yul\":16836:16858   */\n      swap1\n      pop\n        /* \"#utility.yul\":16728:16864   */\n      swap2\n      swap1\n      pop\n      jump\t// out\n        /* \"#utility.yul\":16934:18029   */\n    tag_270:\n        /* \"#utility.yul\":17099:17102   */\n      0x00\n        /* \"#utility.yul\":17128:17205   */\n      tag_468\n        /* \"#utility.yul\":17199:17204   */\n      dup3\n        /* \"#utility.yul\":17128:17205   */\n      tag_263\n      jump\t// in\n    tag_468:\n        /* \"#utility.yul\":17221:17330   */\n      tag_469\n        /* \"#utility.yul\":17323:17329   */\n      dup2\n        /* \"#utility.yul\":17318:17321   */\n      dup6\n        /* \"#utility.yul\":17221:17330   */\n      tag_264\n      jump\t// in\n    tag_469:\n        /* \"#utility.yul\":17214:17330   */\n      swap4\n      pop\n        /* \"#utility.yul\":17356:17359   */\n      dup4\n        /* \"#utility.yul\":17401:17405   */\n      0x20\n        /* \"#utility.yul\":17393:17399   */\n      dup3\n        /* \"#utility.yul\":17389:17406   */\n      mul\n        /* \"#utility.yul\":17384:17387   */\n      dup6\n        /* \"#utility.yul\":17380:17407   */\n      add\n        /* \"#utility.yul\":17431:17510   */\n      tag_470\n        /* \"#utility.yul\":17504:17509   */\n      dup6\n        /* \"#utility.yul\":17431:17510   */\n      tag_265\n      jump\t// in\n    tag_470:\n        /* \"#utility.yul\":17533:17540   */\n      dup1\n        /* \"#utility.yul\":17564:17565   */\n      0x00\n        /* \"#utility.yul\":17549:17984   */\n    tag_471:\n        /* \"#utility.yul\":17574:17580   */\n      dup6\n        /* \"#utility.yul\":17571:17572   */\n      dup2\n        /* \"#utility.yul\":17568:17581   */\n      lt\n        /* \"#utility.yul\":17549:17984   */\n      iszero\n      tag_473\n      jumpi\n        /* \"#utility.yul\":17645:17654   */\n      dup5\n        /* \"#utility.yul\":17639:17643   */\n      dup5\n        /* \"#utility.yul\":17635:17655   */\n      sub\n        /* \"#utility.yul\":17630:17633   */\n      dup10\n        /* \"#utility.yul\":17623:17656   */\n      mstore\n        /* \"#utility.yul\":17696:17702   */\n      dup2\n        /* \"#utility.yul\":17690:17703   */\n      mload\n        /* \"#utility.yul\":17724:17834   */\n      tag_474\n        /* \"#utility.yul\":17829:17833   */\n      dup6\n        /* \"#utility.yul\":17814:17827   */\n      dup3\n        /* \"#utility.yul\":17724:17834   */\n      tag_268\n      jump\t// in\n    tag_474:\n        /* \"#utility.yul\":17716:17834   */\n      swap5\n      pop\n        /* \"#utility.yul\":17857:17940   */\n      tag_475\n        /* \"#utility.yul\":17933:17939   */\n      dup4\n        /* \"#utility.yul\":17857:17940   */\n      tag_269\n      jump\t// in\n    tag_475:\n        /* \"#utility.yul\":17847:17940   */\n      swap3\n      pop\n        /* \"#utility.yul\":17969:17973   */\n      0x20\n        /* \"#utility.yul\":17964:17967   */\n      dup11\n        /* \"#utility.yul\":17960:17974   */\n      add\n        /* \"#utility.yul\":17953:17974   */\n      swap10\n      pop\n        /* \"#utility.yul\":17609:17984   */\n      pop\n        /* \"#utility.yul\":17596:17597   */\n      0x01\n        /* \"#utility.yul\":17593:17594   */\n      dup2\n        /* \"#utility.yul\":17589:17598   */\n      add\n        /* \"#utility.yul\":17584:17598   */\n      swap1\n      pop\n        /* \"#utility.yul\":17549:17984   */\n      jump(tag_471)\n    tag_473:\n        /* \"#utility.yul\":17553:17567   */\n      pop\n        /* \"#utility.yul\":18000:18004   */\n      dup3\n        /* \"#utility.yul\":17993:18004   */\n      swap8\n      pop\n        /* \"#utility.yul\":18020:18023   */\n      dup8\n        /* \"#utility.yul\":18013:18023   */\n      swap6\n      pop\n        /* \"#utility.yul\":17104:18029   */\n      pop\n      pop\n      pop\n      pop\n      pop\n        /* \"#utility.yul\":16934:18029   */\n      swap3\n      swap2\n      pop\n      pop\n      jump\t// out\n        /* \"#utility.yul\":18035:18500   */\n    tag_54:\n        /* \"#utility.yul\":18224:18228   */\n      0x00\n        /* \"#utility.yul\":18262:18264   */\n      0x20\n        /* \"#utility.yul\":18251:18260   */\n      dup3\n        /* \"#utility.yul\":18247:18265   */\n      add\n        /* \"#utility.yul\":18239:18265   */\n      swap1\n      pop\n        /* \"#utility.yul\":18311:18320   */\n      dup2\n        /* \"#utility.yul\":18305:18309   */\n      dup2\n        /* \"#utility.yul\":18301:18321   */\n      sub\n        /* \"#utility.yul\":18297:18298   */\n      0x00\n        /* \"#utility.yul\":18286:18295   */\n      dup4\n        /* \"#utility.yul\":18282:18299   */\n      add\n        /* \"#utility.yul\":18275:18322   */\n      mstore\n        /* \"#utility.yul\":18339:18493   */\n      tag_477\n        /* \"#utility.yul\":18488:18492   */\n      dup2\n        /* \"#utility.yul\":18479:18485   */\n      dup5\n        /* \"#utility.yul\":18339:18493   */\n      tag_270\n      jump\t// in\n    tag_477:\n        /* \"#utility.yul\":18331:18493   */\n      swap1\n      pop\n        /* \"#utility.yul\":18035:18500   */\n      swap3\n      swap2\n      pop\n      pop\n      jump\t// out\n        /* \"#utility.yul\":18506:18686   */\n    tag_70:\n        /* \"#utility.yul\":18554:18631   */\n      0x4e487b7100000000000000000000000000000000000000000000000000000000\n        /* \"#utility.yul\":18551:18552   */\n      0x00\n        /* \"#utility.yul\":18544:18632   */\n      mstore\n        /* \"#utility.yul\":18651:18655   */\n      0x32\n        /* \"#utility.yul\":18648:18649   */\n      0x04\n        /* \"#utility.yul\":18641:18656   */\n      mstore\n        /* \"#utility.yul\":18675:18679   */\n      0x24\n        /* \"#utility.yul\":18672:18673   */\n      0x00\n        /* \"#utility.yul\":18665:18680   */\n      revert\n        /* \"#utility.yul\":18692:18872   */\n    tag_271:\n        /* \"#utility.yul\":18740:18817   */\n      0x4e487b7100000000000000000000000000000000000000000000000000000000\n        /* \"#utility.yul\":18737:18738   */\n      0x00\n        /* \"#utility.yul\":18730:18818   */\n      mstore\n        /* \"#utility.yul\":18837:18841   */\n      0x22\n        /* \"#utility.yul\":18834:18835   */\n      0x04\n        /* \"#utility.yul\":18827:18842   */\n      mstore\n        /* \"#utility.yul\":18861:18865   */\n      0x24\n        /* \"#utility.yul\":18858:18859   */\n      0x00\n        /* \"#utility.yul\":18851:18866   */\n      revert\n        /* \"#utility.yul\":18878:19198   */\n    tag_72:\n        /* \"#utility.yul\":18922:18928   */\n      0x00\n        /* \"#utility.yul\":18959:18960   */\n      0x02\n        /* \"#utility.yul\":18953:18957   */\n      dup3\n        /* \"#utility.yul\":18949:18961   */\n      div\n        /* \"#utility.yul\":18939:18961   */\n      swap1\n      pop\n        /* \"#utility.yul\":19006:19007   */\n      0x01\n        /* \"#utility.yul\":19000:19004   */\n      dup3\n        /* \"#utility.yul\":18996:19008   */\n      and\n        /* \"#utility.yul\":19027:19045   */\n      dup1\n        /* \"#utility.yul\":19017:19098   */\n      tag_481\n      jumpi\n        /* \"#utility.yul\":19083:19087   */\n      0x7f\n        /* \"#utility.yul\":19075:19081   */\n      dup3\n        /* \"#utility.yul\":19071:19088   */\n      and\n        /* \"#utility.yul\":19061:19088   */\n      swap2\n      pop\n        /* \"#utility.yul\":19017:19098   */\n    tag_481:\n        /* \"#utility.yul\":19145:19147   */\n      0x20\n        /* \"#utility.yul\":19137:19143   */\n      dup3\n        /* \"#utility.yul\":19134:19148   */\n      lt\n        /* \"#utility.yul\":19114:19132   */\n      dup2\n        /* \"#utility.yul\":19111:19149   */\n      sub\n        /* \"#utility.yul\":19108:19192   */\n      tag_482\n      jumpi\n        /* \"#utility.yul\":19164:19182   */\n      tag_483\n      tag_271\n      jump\t// in\n    tag_483:\n        /* \"#utility.yul\":19108:19192   */\n    tag_482:\n        /* \"#utility.yul\":18929:19198   */\n      pop\n        /* \"#utility.yul\":18878:19198   */\n      swap2\n      swap1\n      pop\n      jump\t// out\n        /* \"#utility.yul\":19204:19374   */\n    tag_272:\n        /* \"#utility.yul\":19344:19366   */\n      0x506f737420646f6573206e6f742065786973742e000000000000000000000000\n        /* \"#utility.yul\":19340:19341   */\n      0x00\n        /* \"#utility.yul\":19332:19338   */\n      dup3\n        /* \"#utility.yul\":19328:19342   */\n      add\n        /* \"#utility.yul\":19321:19367   */\n      mstore\n        /* \"#utility.yul\":19204:19374   */\n      pop\n      jump\t// out\n        /* \"#utility.yul\":19380:19746   */\n    tag_273:\n        /* \"#utility.yul\":19522:19525   */\n      0x00\n        /* \"#utility.yul\":19543:19610   */\n      tag_486\n        /* \"#utility.yul\":19607:19609   */\n      0x14\n        /* \"#utility.yul\":19602:19605   */\n      dup4\n        /* \"#utility.yul\":19543:19610   */\n      tag_260\n      jump\t// in\n    tag_486:\n        /* \"#utility.yul\":19536:19610   */\n      swap2\n      pop\n        /* \"#utility.yul\":19619:19712   */\n      tag_487\n        /* \"#utility.yul\":19708:19711   */\n      dup3\n        /* \"#utility.yul\":19619:19712   */\n      tag_272\n      jump\t// in\n    tag_487:\n        /* \"#utility.yul\":19737:19739   */\n      0x20\n        /* \"#utility.yul\":19732:19735   */\n      dup3\n        /* \"#utility.yul\":19728:19740   */\n      add\n        /* \"#utility.yul\":19721:19740   */\n      swap1\n      pop\n        /* \"#utility.yul\":19380:19746   */\n      swap2\n      swap1\n      pop\n      jump\t// out\n        /* \"#utility.yul\":19752:20171   */\n    tag_121:\n        /* \"#utility.yul\":19918:19922   */\n      0x00\n        /* \"#utility.yul\":19956:19958   */\n      0x20\n        /* \"#utility.yul\":19945:19954   */\n      dup3\n        /* \"#utility.yul\":19941:19959   */\n      add\n        /* \"#utility.yul\":19933:19959   */\n      swap1\n      pop\n        /* \"#utility.yul\":20005:20014   */\n      dup2\n        /* \"#utility.yul\":19999:20003   */\n      dup2\n        /* \"#utility.yul\":19995:20015   */\n      sub\n        /* \"#utility.yul\":19991:19992   */\n      0x00\n        /* \"#utility.yul\":19980:19989   */\n      dup4\n        /* \"#utility.yul\":19976:19993   */\n      add\n        /* \"#utility.yul\":19969:20016   */\n      mstore\n        /* \"#utility.yul\":20033:20164   */\n      tag_489\n        /* \"#utility.yul\":20159:20163   */\n      dup2\n        /* \"#utility.yul\":20033:20164   */\n      tag_273\n      jump\t// in\n    tag_489:\n        /* \"#utility.yul\":20025:20164   */\n      swap1\n      pop\n        /* \"#utility.yul\":19752:20171   */\n      swap2\n      swap1\n      pop\n      jump\t// out\n        /* \"#utility.yul\":20177:20354   */\n    tag_274:\n        /* \"#utility.yul\":20317:20346   */\n      0x416c726561647920766f746564206f6e207468697320706f73742e0000000000\n        /* \"#utility.yul\":20313:20314   */\n      0x00\n        /* \"#utility.yul\":20305:20311   */\n      dup3\n        /* \"#utility.yul\":20301:20315   */\n      add\n        /* \"#utility.yul\":20294:20347   */\n      mstore\n        /* \"#utility.yul\":20177:20354   */\n      pop\n      jump\t// out\n        /* \"#utility.yul\":20360:20726   */\n    tag_275:\n        /* \"#utility.yul\":20502:20505   */\n      0x00\n        /* \"#utility.yul\":20523:20590   */\n      tag_492\n        /* \"#utility.yul\":20587:20589   */\n      0x1b\n        /* \"#utility.yul\":20582:20585   */\n      dup4\n        /* \"#utility.yul\":20523:20590   */\n      tag_260\n      jump\t// in\n    tag_492:\n        /* \"#utility.yul\":20516:20590   */\n      swap2\n      pop\n        /* \"#utility.yul\":20599:20692   */\n      tag_493\n        /* \"#utility.yul\":20688:20691   */\n      dup3\n        /* \"#utility.yul\":20599:20692   */\n      tag_274\n      jump\t// in\n    tag_493:\n        /* \"#utility.yul\":20717:20719   */\n      0x20\n        /* \"#utility.yul\":20712:20715   */\n      dup3\n        /* \"#utility.yul\":20708:20720   */\n      add\n        /* \"#utility.yul\":20701:20720   */\n      swap1\n      pop\n        /* \"#utility.yul\":20360:20726   */\n      swap2\n      swap1\n      pop\n      jump\t// out\n        /* \"#utility.yul\":20732:21151   */\n    tag_124:\n        /* \"#utility.yul\":20898:20902   */\n      0x00\n        /* \"#utility.yul\":20936:20938   */\n      0x20\n        /* \"#utility.yul\":20925:20934   */\n      dup3\n        /* \"#utility.yul\":20921:20939   */\n      add\n        /* \"#utility.yul\":20913:20939   */\n      swap1\n      pop\n        /* \"#utility.yul\":20985:20994   */\n      dup2\n        /* \"#utility.yul\":20979:20983   */\n      dup2\n        /* \"#utility.yul\":20975:20995   */\n      sub\n        /* \"#utility.yul\":20971:20972   */\n      0x00\n        /* \"#utility.yul\":20960:20969   */\n      dup4\n        /* \"#utility.yul\":20956:20973   */\n      add\n        /* \"#utility.yul\":20949:20996   */\n      mstore\n        /* \"#utility.yul\":21013:21144   */\n      tag_495\n        /* \"#utility.yul\":21139:21143   */\n      dup2\n        /* \"#utility.yul\":21013:21144   */\n      tag_275\n      jump\t// in\n    tag_495:\n        /* \"#utility.yul\":21005:21144   */\n      swap1\n      pop\n        /* \"#utility.yul\":20732:21151   */\n      swap2\n      swap1\n      pop\n      jump\t// out\n        /* \"#utility.yul\":21157:21337   */\n    tag_276:\n        /* \"#utility.yul\":21205:21282   */\n      0x4e487b7100000000000000000000000000000000000000000000000000000000\n        /* \"#utility.yul\":21202:21203   */\n      0x00\n        /* \"#utility.yul\":21195:21283   */\n      mstore\n        /* \"#utility.yul\":21302:21306   */\n      0x11\n        /* \"#utility.yul\":21299:21300   */\n      0x04\n        /* \"#utility.yul\":21292:21307   */\n      mstore\n        /* \"#utility.yul\":21326:21330   */\n      0x24\n        /* \"#utility.yul\":21323:21324   */\n      0x00\n        /* \"#utility.yul\":21316:21331   */\n      revert\n        /* \"#utility.yul\":21343:21576   */\n    tag_126:\n        /* \"#utility.yul\":21382:21385   */\n      0x00\n        /* \"#utility.yul\":21405:21429   */\n      tag_498\n        /* \"#utility.yul\":21423:21428   */\n      dup3\n        /* \"#utility.yul\":21405:21429   */\n      tag_241\n      jump\t// in\n    tag_498:\n        /* \"#utility.yul\":21396:21429   */\n      swap2\n      pop\n        /* \"#utility.yul\":21451:21517   */\n      0xffffffffffffffffffffffffffffffffffffffffffffffffffffffffffffffff\n        /* \"#utility.yul\":21444:21449   */\n      dup3\n        /* \"#utility.yul\":21441:21518   */\n      sub\n        /* \"#utility.yul\":21438:21541   */\n      tag_499\n      jumpi\n        /* \"#utility.yul\":21521:21539   */\n      tag_500\n      tag_276\n      jump\t// in\n    tag_500:\n        /* \"#utility.yul\":21438:21541   */\n    tag_499:\n        /* \"#utility.yul\":21568:21569   */\n      0x01\n        /* \"#utility.yul\":21561:21566   */\n      dup3\n        /* \"#utility.yul\":21557:21570   */\n      add\n        /* \"#utility.yul\":21550:21570   */\n      swap1\n      pop\n        /* \"#utility.yul\":21343:21576   */\n      swap2\n      swap1\n      pop\n      jump\t// out\n        /* \"#utility.yul\":21582:21672   */\n    tag_277:\n        /* \"#utility.yul\":21616:21623   */\n      0x00\n        /* \"#utility.yul\":21659:21664   */\n      dup2\n        /* \"#utility.yul\":21652:21665   */\n      iszero\n        /* \"#utility.yul\":21645:21666   */\n      iszero\n        /* \"#utility.yul\":21634:21666   */\n      swap1\n      pop\n        /* \"#utility.yul\":21582:21672   */\n      swap2\n      swap1\n      pop\n      jump\t// out\n        /* \"#utility.yul\":21678:21787   */\n    tag_278:\n        /* \"#utility.yul\":21759:21780   */\n      tag_503\n        /* \"#utility.yul\":21774:21779   */\n      dup2\n        /* \"#utility.yul\":21759:21780   */\n      tag_277\n      jump\t// in\n    tag_503:\n        /* \"#utility.yul\":21754:21757   */\n      dup3\n        /* \"#utility.yul\":21747:21781   */\n      mstore\n        /* \"#utility.yul\":21678:21787   */\n      pop\n      pop\n      jump\t// out\n        /* \"#utility.yul\":21793:22003   */\n    tag_128:\n        /* \"#utility.yul\":21880:21884   */\n      0x00\n        /* \"#utility.yul\":21918:21920   */\n      0x20\n        /* \"#utility.yul\":21907:21916   */\n      dup3\n        /* \"#utility.yul\":21903:21921   */\n      add\n        /* \"#utility.yul\":21895:21921   */\n      swap1\n      pop\n        /* \"#utility.yul\":21931:21996   */\n      tag_505\n        /* \"#utility.yul\":21993:21994   */\n      0x00\n        /* \"#utility.yul\":21982:21991   */\n      dup4\n        /* \"#utility.yul\":21978:21995   */\n      add\n        /* \"#utility.yul\":21969:21975   */\n      dup5\n        /* \"#utility.yul\":21931:21996   */\n      tag_278\n      jump\t// in\n    tag_505:\n        /* \"#utility.yul\":21793:22003   */\n      swap3\n      swap2\n      pop\n      pop\n      jump\t// out\n        /* \"#utility.yul\":22009:22181   */\n    tag_279:\n        /* \"#utility.yul\":22149:22173   */\n      0x436f6d6d656e7420646f6573206e6f7420657869737400000000000000000000\n        /* \"#utility.yul\":22145:22146   */\n      0x00\n        /* \"#utility.yul\":22137:22143   */\n      dup3\n        /* \"#utility.yul\":22133:22147   */\n      add\n        /* \"#utility.yul\":22126:22174   */\n      mstore\n        /* \"#utility.yul\":22009:22181   */\n      pop\n      jump\t// out\n        /* \"#utility.yul\":22187:22553   */\n    tag_280:\n        /* \"#utility.yul\":22329:22332   */\n      0x00\n        /* \"#utility.yul\":22350:22417   */\n      tag_508\n        /* \"#utility.yul\":22414:22416   */\n      0x16\n        /* \"#utility.yul\":22409:22412   */\n      dup4\n        /* \"#utility.yul\":22350:22417   */\n      tag_260\n      jump\t// in\n    tag_508:\n        /* \"#utility.yul\":22343:22417   */\n      swap2\n      pop\n        /* \"#utility.yul\":22426:22519   */\n      tag_509\n        /* \"#utility.yul\":22515:22518   */\n      dup3\n        /* \"#utility.yul\":22426:22519   */\n      tag_279\n      jump\t// in\n    tag_509:\n        /* \"#utility.yul\":22544:22546   */\n      0x20\n        /* \"#utility.yul\":22539:22542   */\n      dup3\n        /* \"#utility.yul\":22535:22547   */\n      add\n        /* \"#utility.yul\":22528:22547   */\n      swap1\n      pop\n        /* \"#utility.yul\":22187:22553   */\n      swap2\n      swap1\n      pop\n      jump\t// out\n        /* \"#utility.yul\":22559:22978   */\n    tag_132:\n        /* \"#utility.yul\":22725:22729   */\n      0x00\n        /* \"#utility.yul\":22763:22765   */\n      0x20\n        /* \"#utility.yul\":22752:22761   */\n      dup3\n        /* \"#utility.yul\":22748:22766   */\n      add\n        /* \"#utility.yul\":22740:22766   */\n      swap1\n      pop\n        /* \"#utility.yul\":22812:22821   */\n      dup2\n        /* \"#utility.yul\":22806:22810   */\n      dup2\n        /* \"#utility.yul\":22802:22822   */\n      sub\n        /* \"#utility.yul\":22798:22799   */\n      0x00\n        /* \"#utility.yul\":22787:22796   */\n      dup4\n        /* \"#utility.yul\":22783:22800   */\n      add\n        /* \"#utility.yul\":22776:22823   */\n      mstore\n        /* \"#utility.yul\":22840:22971   */\n      tag_511\n        /* \"#utility.yul\":22966:22970   */\n      dup2\n        /* \"#utility.yul\":22840:22971   */\n      tag_280\n      jump\t// in\n    tag_511:\n        /* \"#utility.yul\":22832:22971   */\n      swap1\n      pop\n        /* \"#utility.yul\":22559:22978   */\n      swap2\n      swap1\n      pop\n      jump\t// out\n        /* \"#utility.yul\":22984:23163   */\n    tag_281:\n        /* \"#utility.yul\":23124:23155   */\n      0x416c726561647920766f746564206f6e207468697320636f6d6d656e74000000\n        /* \"#utility.yul\":23120:23121   */\n      0x00\n        /* \"#utility.yul\":23112:23118   */\n      dup3\n        /* \"#utility.yul\":23108:23122   */\n      add\n        /* \"#utility.yul\":23101:23156   */\n      mstore\n        /* \"#utility.yul\":22984:23163   */\n      pop\n      jump\t// out\n        /* \"#utility.yul\":23169:23535   */\n    tag_282:\n        /* \"#utility.yul\":23311:23314   */\n      0x00\n        /* \"#utility.yul\":23332:23399   */\n      tag_514\n        /* \"#utility.yul\":23396:23398   */\n      0x1d\n        /* \"#utility.yul\":23391:23394   */\n      dup4\n        /* \"#utility.yul\":23332:23399   */\n      tag_260\n      jump\t// in\n    tag_514:\n        /* \"#utility.yul\":23325:23399   */\n      swap2\n      pop\n        /* \"#utility.yul\":23408:23501   */\n      tag_515\n        /* \"#utility.yul\":23497:23500   */\n      dup3\n        /* \"#utility.yul\":23408:23501   */\n      tag_281\n      jump\t// in\n    tag_515:\n        /* \"#utility.yul\":23526:23528   */\n      0x20\n        /* \"#utility.yul\":23521:23524   */\n      dup3\n        /* \"#utility.yul\":23517:23529   */\n      add\n        /* \"#utility.yul\":23510:23529   */\n      swap1\n      pop\n        /* \"#utility.yul\":23169:23535   */\n      swap2\n      swap1\n      pop\n      jump\t// out\n        /* \"#utility.yul\":23541:23960   */\n    tag_135:\n        /* \"#utility.yul\":23707:23711   */\n      0x00\n        /* \"#utility.yul\":23745:23747   */\n      0x20\n        /* \"#utility.yul\":23734:23743   */\n      dup3\n        /* \"#utility.yul\":23730:23748   */\n      add\n        /* \"#utility.yul\":23722:23748   */\n      swap1\n      pop\n        /* \"#utility.yul\":23794:23803   */\n      dup2\n        /* \"#utility.yul\":23788:23792   */\n      dup2\n        /* \"#utility.yul\":23784:23804   */\n      sub\n        /* \"#utility.yul\":23780:23781   */\n      0x00\n        /* \"#utility.yul\":23769:23778   */\n      dup4\n        /* \"#utility.yul\":23765:23782   */\n      add\n        /* \"#utility.yul\":23758:23805   */\n      mstore\n        /* \"#utility.yul\":23822:23953   */\n      tag_517\n        /* \"#utility.yul\":23948:23952   */\n      dup2\n        /* \"#utility.yul\":23822:23953   */\n      tag_282\n      jump\t// in\n    tag_517:\n        /* \"#utility.yul\":23814:23953   */\n      swap1\n      pop\n        /* \"#utility.yul\":23541:23960   */\n      swap2\n      swap1\n      pop\n      jump\t// out\n        /* \"#utility.yul\":23966:24084   */\n    tag_283:\n        /* \"#utility.yul\":24053:24077   */\n      tag_519\n        /* \"#utility.yul\":24071:24076   */\n      dup2\n        /* \"#utility.yul\":24053:24077   */\n      tag_228\n      jump\t// in\n    tag_519:\n        /* \"#utility.yul\":24048:24051   */\n      dup3\n        /* \"#utility.yul\":24041:24078   */\n      mstore\n        /* \"#utility.yul\":23966:24084   */\n      pop\n      pop\n      jump\t// out\n        /* \"#utility.yul\":24090:24410   */\n    tag_144:\n        /* \"#utility.yul\":24205:24209   */\n      0x00\n        /* \"#utility.yul\":24243:24245   */\n      0x40\n        /* \"#utility.yul\":24232:24241   */\n      dup3\n        /* \"#utility.yul\":24228:24246   */\n      add\n        /* \"#utility.yul\":24220:24246   */\n      swap1\n      pop\n        /* \"#utility.yul\":24256:24327   */\n      tag_521\n        /* \"#utility.yul\":24324:24325   */\n      0x00\n        /* \"#utility.yul\":24313:24322   */\n      dup4\n        /* \"#utility.yul\":24309:24326   */\n      add\n        /* \"#utility.yul\":24300:24306   */\n      dup6\n        /* \"#utility.yul\":24256:24327   */\n      tag_283\n      jump\t// in\n    tag_521:\n        /* \"#utility.yul\":24337:24403   */\n      tag_522\n        /* \"#utility.yul\":24399:24401   */\n      0x20\n        /* \"#utility.yul\":24388:24397   */\n      dup4\n        /* \"#utility.yul\":24384:24402   */\n      add\n        /* \"#utility.yul\":24375:24381   */\n      dup5\n        /* \"#utility.yul\":24337:24403   */\n      tag_278\n      jump\t// in\n    tag_522:\n        /* \"#utility.yul\":24090:24410   */\n      swap4\n      swap3\n      pop\n      pop\n      pop\n      jump\t// out\n        /* \"#utility.yul\":24416:24589   */\n    tag_284:\n        /* \"#utility.yul\":24556:24581   */\n      0x436f6d6d656e746572206e616d6520746f6f206c6f6e67000000000000000000\n        /* \"#utility.yul\":24552:24553   */\n      0x00\n        /* \"#utility.yul\":24544:24550   */\n      dup3\n        /* \"#utility.yul\":24540:24554   */\n      add\n        /* \"#utility.yul\":24533:24582   */\n      mstore\n        /* \"#utility.yul\":24416:24589   */\n      pop\n      jump\t// out\n        /* \"#utility.yul\":24595:24961   */\n    tag_285:\n        /* \"#utility.yul\":24737:24740   */\n      0x00\n        /* \"#utility.yul\":24758:24825   */\n      tag_525\n        /* \"#utility.yul\":24822:24824   */\n      0x17\n        /* \"#utility.yul\":24817:24820   */\n      dup4\n        /* \"#utility.yul\":24758:24825   */\n      tag_260\n      jump\t// in\n    tag_525:\n        /* \"#utility.yul\":24751:24825   */\n      swap2\n      pop\n        /* \"#utility.yul\":24834:24927   */\n      tag_526\n        /* \"#utility.yul\":24923:24926   */\n      dup3\n        /* \"#utility.yul\":24834:24927   */\n      tag_284\n      jump\t// in\n    tag_526:\n        /* \"#utility.yul\":24952:24954   */\n      0x20\n        /* \"#utility.yul\":24947:24950   */\n      dup3\n        /* \"#utility.yul\":24943:24955   */\n      add\n        /* \"#utility.yul\":24936:24955   */\n      swap1\n      pop\n        /* \"#utility.yul\":24595:24961   */\n      swap2\n      swap1\n      pop\n      jump\t// out\n        /* \"#utility.yul\":24967:25386   */\n    tag_150:\n        /* \"#utility.yul\":25133:25137   */\n      0x00\n        /* \"#utility.yul\":25171:25173   */\n      0x20\n        /* \"#utility.yul\":25160:25169   */\n      dup3\n        /* \"#utility.yul\":25156:25174   */\n      add\n        /* \"#utility.yul\":25148:25174   */\n      swap1\n      pop\n        /* \"#utility.yul\":25220:25229   */\n      dup2\n        /* \"#utility.yul\":25214:25218   */\n      dup2\n        /* \"#utility.yul\":25210:25230   */\n      sub\n        /* \"#utility.yul\":25206:25207   */\n      0x00\n        /* \"#utility.yul\":25195:25204   */\n      dup4\n        /* \"#utility.yul\":25191:25208   */\n      add\n        /* \"#utility.yul\":25184:25231   */\n      mstore\n        /* \"#utility.yul\":25248:25379   */\n      tag_528\n        /* \"#utility.yul\":25374:25378   */\n      dup2\n        /* \"#utility.yul\":25248:25379   */\n      tag_285\n      jump\t// in\n    tag_528:\n        /* \"#utility.yul\":25240:25379   */\n      swap1\n      pop\n        /* \"#utility.yul\":24967:25386   */\n      swap2\n      swap1\n      pop\n      jump\t// out\n        /* \"#utility.yul\":25392:25486   */\n    tag_286:\n        /* \"#utility.yul\":25425:25433   */\n      0x00\n        /* \"#utility.yul\":25473:25478   */\n      dup2\n        /* \"#utility.yul\":25469:25471   */\n      0x60\n        /* \"#utility.yul\":25465:25479   */\n      shl\n        /* \"#utility.yul\":25444:25479   */\n      swap1\n      pop\n        /* \"#utility.yul\":25392:25486   */\n      swap2\n      swap1\n      pop\n      jump\t// out\n        /* \"#utility.yul\":25492:25586   */\n    tag_287:\n        /* \"#utility.yul\":25531:25538   */\n      0x00\n        /* \"#utility.yul\":25560:25580   */\n      tag_531\n        /* \"#utility.yul\":25574:25579   */\n      dup3\n        /* \"#utility.yul\":25560:25580   */\n      tag_286\n      jump\t// in\n    tag_531:\n        /* \"#utility.yul\":25549:25580   */\n      swap1\n      pop\n        /* \"#utility.yul\":25492:25586   */\n      swap2\n      swap1\n      pop\n      jump\t// out\n        /* \"#utility.yul\":25592:25692   */\n    tag_288:\n        /* \"#utility.yul\":25631:25638   */\n      0x00\n        /* \"#utility.yul\":25660:25686   */\n      tag_533\n        /* \"#utility.yul\":25680:25685   */\n      dup3\n        /* \"#utility.yul\":25660:25686   */\n      tag_287\n      jump\t// in\n    tag_533:\n        /* \"#utility.yul\":25649:25686   */\n      swap1\n      pop\n        /* \"#utility.yul\":25592:25692   */\n      swap2\n      swap1\n      pop\n      jump\t// out\n        /* \"#utility.yul\":25698:25855   */\n    tag_289:\n        /* \"#utility.yul\":25803:25848   */\n      tag_535\n        /* \"#utility.yul\":25823:25847   */\n      tag_536\n        /* \"#utility.yul\":25841:25846   */\n      dup3\n        /* \"#utility.yul\":25823:25847   */\n      tag_228\n      jump\t// in\n    tag_536:\n        /* \"#utility.yul\":25803:25848   */\n      tag_288\n      jump\t// in\n    tag_535:\n        /* \"#utility.yul\":25798:25801   */\n      dup3\n        /* \"#utility.yul\":25791:25849   */\n      mstore\n        /* \"#utility.yul\":25698:25855   */\n      pop\n      pop\n      jump\t// out\n        /* \"#utility.yul\":25861:25940   */\n    tag_290:\n        /* \"#utility.yul\":25900:25907   */\n      0x00\n        /* \"#utility.yul\":25929:25934   */\n      dup2\n        /* \"#utility.yul\":25918:25934   */\n      swap1\n      pop\n        /* \"#utility.yul\":25861:25940   */\n      swap2\n      swap1\n      pop\n      jump\t// out\n        /* \"#utility.yul\":25946:26103   */\n    tag_291:\n        /* \"#utility.yul\":26051:26096   */\n      tag_539\n        /* \"#utility.yul\":26071:26095   */\n      tag_540\n        /* \"#utility.yul\":26089:26094   */\n      dup3\n        /* \"#utility.yul\":26071:26095   */\n      tag_241\n      jump\t// in\n    tag_540:\n        /* \"#utility.yul\":26051:26096   */\n      tag_290\n      jump\t// in\n    tag_539:\n        /* \"#utility.yul\":26046:26049   */\n      dup3\n        /* \"#utility.yul\":26039:26097   */\n      mstore\n        /* \"#utility.yul\":25946:26103   */\n      pop\n      pop\n      jump\t// out\n        /* \"#utility.yul\":26109:26257   */\n    tag_292:\n        /* \"#utility.yul\":26211:26222   */\n      0x00\n        /* \"#utility.yul\":26248:26251   */\n      dup2\n        /* \"#utility.yul\":26233:26251   */\n      swap1\n      pop\n        /* \"#utility.yul\":26109:26257   */\n      swap3\n      swap2\n      pop\n      pop\n      jump\t// out\n        /* \"#utility.yul\":26263:26653   */\n    tag_293:\n        /* \"#utility.yul\":26369:26372   */\n      0x00\n        /* \"#utility.yul\":26397:26436   */\n      tag_543\n        /* \"#utility.yul\":26430:26435   */\n      dup3\n        /* \"#utility.yul\":26397:26436   */\n      tag_236\n      jump\t// in\n    tag_543:\n        /* \"#utility.yul\":26452:26541   */\n      tag_544\n        /* \"#utility.yul\":26534:26540   */\n      dup2\n        /* \"#utility.yul\":26529:26532   */\n      dup6\n        /* \"#utility.yul\":26452:26541   */\n      tag_292\n      jump\t// in\n    tag_544:\n        /* \"#utility.yul\":26445:26541   */\n      swap4\n      pop\n        /* \"#utility.yul\":26550:26615   */\n      tag_545\n        /* \"#utility.yul\":26608:26614   */\n      dup2\n        /* \"#utility.yul\":26603:26606   */\n      dup6\n        /* \"#utility.yul\":26596:26600   */\n      0x20\n        /* \"#utility.yul\":26589:26594   */\n      dup7\n        /* \"#utility.yul\":26585:26601   */\n      add\n        /* \"#utility.yul\":26550:26615   */\n      tag_238\n      jump\t// in\n    tag_545:\n        /* \"#utility.yul\":26640:26646   */\n      dup1\n        /* \"#utility.yul\":26635:26638   */\n      dup5\n        /* \"#utility.yul\":26631:26647   */\n      add\n        /* \"#utility.yul\":26624:26647   */\n      swap2\n      pop\n        /* \"#utility.yul\":26373:26653   */\n      pop\n        /* \"#utility.yul\":26263:26653   */\n      swap3\n      swap2\n      pop\n      pop\n      jump\t// out\n        /* \"#utility.yul\":26659:27216   */\n    tag_152:\n        /* \"#utility.yul\":26847:26850   */\n      0x00\n        /* \"#utility.yul\":26862:26937   */\n      tag_547\n        /* \"#utility.yul\":26933:26936   */\n      dup3\n        /* \"#utility.yul\":26924:26930   */\n      dup7\n        /* \"#utility.yul\":26862:26937   */\n      tag_289\n      jump\t// in\n    tag_547:\n        /* \"#utility.yul\":26962:26964   */\n      0x14\n        /* \"#utility.yul\":26957:26960   */\n      dup3\n        /* \"#utility.yul\":26953:26965   */\n      add\n        /* \"#utility.yul\":26946:26965   */\n      swap2\n      pop\n        /* \"#utility.yul\":26975:27050   */\n      tag_548\n        /* \"#utility.yul\":27046:27049   */\n      dup3\n        /* \"#utility.yul\":27037:27043   */\n      dup6\n        /* \"#utility.yul\":26975:27050   */\n      tag_291\n      jump\t// in\n    tag_548:\n        /* \"#utility.yul\":27075:27077   */\n      0x20\n        /* \"#utility.yul\":27070:27073   */\n      dup3\n        /* \"#utility.yul\":27066:27078   */\n      add\n        /* \"#utility.yul\":27059:27078   */\n      swap2\n      pop\n        /* \"#utility.yul\":27095:27190   */\n      tag_549\n        /* \"#utility.yul\":27186:27189   */\n      dup3\n        /* \"#utility.yul\":27177:27183   */\n      dup5\n        /* \"#utility.yul\":27095:27190   */\n      tag_293\n      jump\t// in\n    tag_549:\n        /* \"#utility.yul\":27088:27190   */\n      swap2\n      pop\n        /* \"#utility.yul\":27207:27210   */\n      dup2\n        /* \"#utility.yul\":27200:27210   */\n      swap1\n      pop\n        /* \"#utility.yul\":26659:27216   */\n      swap5\n      swap4\n      pop\n      pop\n      pop\n      pop\n      jump\t// out\n        /* \"#utility.yul\":27222:27363   */\n    tag_294:\n        /* \"#utility.yul\":27271:27275   */\n      0x00\n        /* \"#utility.yul\":27294:27297   */\n      dup2\n        /* \"#utility.yul\":27286:27297   */\n      swap1\n      pop\n        /* \"#utility.yul\":27317:27320   */\n      dup2\n        /* \"#utility.yul\":27314:27315   */\n      0x00\n        /* \"#utility.yul\":27307:27321   */\n      mstore\n        /* \"#utility.yul\":27351:27355   */\n      0x20\n        /* \"#utility.yul\":27348:27349   */\n      0x00\n        /* \"#utility.yul\":27338:27356   */\n      keccak256\n        /* \"#utility.yul\":27330:27356   */\n      swap1\n      pop\n        /* \"#utility.yul\":27222:27363   */\n      swap2\n      swap1\n      pop\n      jump\t// out\n        /* \"#utility.yul\":27369:27462   */\n    tag_295:\n        /* \"#utility.yul\":27406:27412   */\n      0x00\n        /* \"#utility.yul\":27453:27455   */\n      0x20\n        /* \"#utility.yul\":27448:27450   */\n      0x1f\n        /* \"#utility.yul\":27441:27446   */\n      dup4\n        /* \"#utility.yul\":27437:27451   */\n      add\n        /* \"#utility.yul\":27433:27456   */\n      div\n        /* \"#utility.yul\":27423:27456   */\n      swap1\n      pop\n        /* \"#utility.yul\":27369:27462   */\n      swap2\n      swap1\n      pop\n      jump\t// out\n        /* \"#utility.yul\":27468:27575   */\n    tag_296:\n        /* \"#utility.yul\":27512:27520   */\n      0x00\n        /* \"#utility.yul\":27562:27567   */\n      dup3\n        /* \"#utility.yul\":27556:27560   */\n      dup3\n        /* \"#utility.yul\":27552:27568   */\n      shl\n        /* \"#utility.yul\":27531:27568   */\n      swap1\n      pop\n        /* \"#utility.yul\":27468:27575   */\n      swap3\n      swap2\n      pop\n      pop\n      jump\t// out\n        /* \"#utility.yul\":27581:27974   */\n    tag_297:\n        /* \"#utility.yul\":27650:27656   */\n      0x00\n        /* \"#utility.yul\":27700:27701   */\n      0x08\n        /* \"#utility.yul\":27688:27698   */\n      dup4\n        /* \"#utility.yul\":27684:27702   */\n      mul\n        /* \"#utility.yul\":27723:27820   */\n      tag_554\n        /* \"#utility.yul\":27753:27819   */\n      0xffffffffffffffffffffffffffffffffffffffffffffffffffffffffffffffff\n        /* \"#utility.yul\":27742:27751   */\n      dup3\n        /* \"#utility.yul\":27723:27820   */\n      tag_296\n      jump\t// in\n    tag_554:\n        /* \"#utility.yul\":27841:27880   */\n      tag_555\n        /* \"#utility.yul\":27871:27879   */\n      dup7\n        /* \"#utility.yul\":27860:27869   */\n      dup4\n        /* \"#utility.yul\":27841:27880   */\n      tag_296\n      jump\t// in\n    tag_555:\n        /* \"#utility.yul\":27829:27880   */\n      swap6\n      pop\n        /* \"#utility.yul\":27913:27917   */\n      dup1\n        /* \"#utility.yul\":27909:27918   */\n      not\n        /* \"#utility.yul\":27902:27907   */\n      dup5\n        /* \"#utility.yul\":27898:27919   */\n      and\n        /* \"#utility.yul\":27889:27919   */\n      swap4\n      pop\n        /* \"#utility.yul\":27962:27966   */\n      dup1\n        /* \"#utility.yul\":27952:27960   */\n      dup7\n        /* \"#utility.yul\":27948:27967   */\n      and\n        /* \"#utility.yul\":27941:27946   */\n      dup5\n        /* \"#utility.yul\":27938:27968   */\n      or\n        /* \"#utility.yul\":27928:27968   */\n      swap3\n      pop\n        /* \"#utility.yul\":27657:27974   */\n      pop\n      pop\n        /* \"#utility.yul\":27581:27974   */\n      swap4\n      swap3\n      pop\n      pop\n      pop\n      jump\t// out\n        /* \"#utility.yul\":27980:28040   */\n    tag_298:\n        /* \"#utility.yul\":28008:28011   */\n      0x00\n        /* \"#utility.yul\":28029:28034   */\n      dup2\n        /* \"#utility.yul\":28022:28034   */\n      swap1\n      pop\n        /* \"#utility.yul\":27980:28040   */\n      swap2\n      swap1\n      pop\n      jump\t// out\n        /* \"#utility.yul\":28046:28188   */\n    tag_299:\n        /* \"#utility.yul\":28096:28105   */\n      0x00\n        /* \"#utility.yul\":28129:28182   */\n      tag_558\n        /* \"#utility.yul\":28147:28181   */\n      tag_559\n        /* \"#utility.yul\":28156:28180   */\n      tag_560\n        /* \"#utility.yul\":28174:28179   */\n      dup5\n        /* \"#utility.yul\":28156:28180   */\n      tag_241\n      jump\t// in\n    tag_560:\n        /* \"#utility.yul\":28147:28181   */\n      tag_298\n      jump\t// in\n    tag_559:\n        /* \"#utility.yul\":28129:28182   */\n      tag_241\n      jump\t// in\n    tag_558:\n        /* \"#utility.yul\":28116:28182   */\n      swap1\n      pop\n        /* \"#utility.yul\":28046:28188   */\n      swap2\n      swap1\n      pop\n      jump\t// out\n        /* \"#utility.yul\":28194:28269   */\n    tag_300:\n        /* \"#utility.yul\":28237:28240   */\n      0x00\n        /* \"#utility.yul\":28258:28263   */\n      dup2\n        /* \"#utility.yul\":28251:28263   */\n      swap1\n      pop\n        /* \"#utility.yul\":28194:28269   */\n      swap2\n      swap1\n      pop\n      jump\t// out\n        /* \"#utility.yul\":28275:28544   */\n    tag_301:\n        /* \"#utility.yul\":28385:28424   */\n      tag_563\n        /* \"#utility.yul\":28416:28423   */\n      dup4\n        /* \"#utility.yul\":28385:28424   */\n      tag_299\n      jump\t// in\n    tag_563:\n        /* \"#utility.yul\":28446:28537   */\n      tag_564\n        /* \"#utility.yul\":28495:28536   */\n      tag_565\n        /* \"#utility.yul\":28519:28535   */\n      dup3\n        /* \"#utility.yul\":28495:28536   */\n      tag_300\n      jump\t// in\n    tag_565:\n        /* \"#utility.yul\":28487:28493   */\n      dup5\n        /* \"#utility.yul\":28480:28484   */\n      dup5\n        /* \"#utility.yul\":28474:28485   */\n      sload\n        /* \"#utility.yul\":28446:28537   */\n      tag_297\n      jump\t// in\n    tag_564:\n        /* \"#utility.yul\":28440:28444   */\n      dup3\n        /* \"#utility.yul\":28433:28538   */\n      sstore\n        /* \"#utility.yul\":28351:28544   */\n      pop\n        /* \"#utility.yul\":28275:28544   */\n      pop\n      pop\n      pop\n      jump\t// out\n        /* \"#utility.yul\":28550:28623   */\n    tag_302:\n        /* \"#utility.yul\":28595:28598   */\n      0x00\n        /* \"#utility.yul\":28616:28617   */\n      0x00\n        /* \"#utility.yul\":28609:28617   */\n      swap1\n      pop\n        /* \"#utility.yul\":28550:28623   */\n      swap1\n      jump\t// out\n        /* \"#utility.yul\":28629:28818   */\n    tag_303:\n        /* \"#utility.yul\":28706:28738   */\n      tag_568\n      tag_302\n      jump\t// in\n    tag_568:\n        /* \"#utility.yul\":28747:28812   */\n      tag_569\n        /* \"#utility.yul\":28805:28811   */\n      dup2\n        /* \"#utility.yul\":28797:28803   */\n      dup5\n        /* \"#utility.yul\":28791:28795   */\n      dup5\n        /* \"#utility.yul\":28747:28812   */\n      tag_301\n      jump\t// in\n    tag_569:\n        /* \"#utility.yul\":28682:28818   */\n      pop\n        /* \"#utility.yul\":28629:28818   */\n      pop\n      pop\n      jump\t// out\n        /* \"#utility.yul\":28824:29010   */\n    tag_304:\n        /* \"#utility.yul\":28884:29004   */\n    tag_571:\n        /* \"#utility.yul\":28901:28904   */\n      dup2\n        /* \"#utility.yul\":28894:28899   */\n      dup2\n        /* \"#utility.yul\":28891:28905   */\n      lt\n        /* \"#utility.yul\":28884:29004   */\n      iszero\n      tag_573\n      jumpi\n        /* \"#utility.yul\":28955:28994   */\n      tag_574\n        /* \"#utility.yul\":28992:28993   */\n      0x00\n        /* \"#utility.yul\":28985:28990   */\n      dup3\n        /* \"#utility.yul\":28955:28994   */\n      tag_303\n      jump\t// in\n    tag_574:\n        /* \"#utility.yul\":28928:28929   */\n      0x01\n        /* \"#utility.yul\":28921:28926   */\n      dup2\n        /* \"#utility.yul\":28917:28930   */\n      add\n        /* \"#utility.yul\":28908:28930   */\n      swap1\n      pop\n        /* \"#utility.yul\":28884:29004   */\n      jump(tag_571)\n    tag_573:\n        /* \"#utility.yul\":28824:29010   */\n      pop\n      pop\n      jump\t// out\n        /* \"#utility.yul\":29016:29559   */\n    tag_305:\n        /* \"#utility.yul\":29117:29119   */\n      0x1f\n        /* \"#utility.yul\":29112:29115   */\n      dup3\n        /* \"#utility.yul\":29109:29120   */\n      gt\n        /* \"#utility.yul\":29106:29552   */\n      iszero\n      tag_576\n      jumpi\n        /* \"#utility.yul\":29151:29189   */\n      tag_577\n        /* \"#utility.yul\":29183:29188   */\n      dup2\n        /* \"#utility.yul\":29151:29189   */\n      tag_294\n      jump\t// in\n    tag_577:\n        /* \"#utility.yul\":29235:29264   */\n      tag_578\n        /* \"#utility.yul\":29253:29263   */\n      dup5\n        /* \"#utility.yul\":29235:29264   */\n      tag_295\n      jump\t// in\n    tag_578:\n        /* \"#utility.yul\":29225:29233   */\n      dup2\n        /* \"#utility.yul\":29221:29265   */\n      add\n        /* \"#utility.yul\":29418:29420   */\n      0x20\n        /* \"#utility.yul\":29406:29416   */\n      dup6\n        /* \"#utility.yul\":29403:29421   */\n      lt\n        /* \"#utility.yul\":29400:29449   */\n      iszero\n      tag_579\n      jumpi\n        /* \"#utility.yul\":29439:29447   */\n      dup2\n        /* \"#utility.yul\":29424:29447   */\n      swap1\n      pop\n        /* \"#utility.yul\":29400:29449   */\n    tag_579:\n        /* \"#utility.yul\":29462:29542   */\n      tag_580\n        /* \"#utility.yul\":29518:29540   */\n      tag_581\n        /* \"#utility.yul\":29536:29539   */\n      dup6\n        /* \"#utility.yul\":29518:29540   */\n      tag_295\n      jump\t// in\n    tag_581:\n        /* \"#utility.yul\":29508:29516   */\n      dup4\n        /* \"#utility.yul\":29504:29541   */\n      add\n        /* \"#utility.yul\":29491:29502   */\n      dup3\n        /* \"#utility.yul\":29462:29542   */\n      tag_304\n      jump\t// in\n    tag_580:\n        /* \"#utility.yul\":29121:29552   */\n      pop\n      pop\n        /* \"#utility.yul\":29106:29552   */\n    tag_576:\n        /* \"#utility.yul\":29016:29559   */\n      pop\n      pop\n      pop\n      jump\t// out\n        /* \"#utility.yul\":29565:29682   */\n    tag_306:\n        /* \"#utility.yul\":29619:29627   */\n      0x00\n        /* \"#utility.yul\":29669:29674   */\n      dup3\n        /* \"#utility.yul\":29663:29667   */\n      dup3\n        /* \"#utility.yul\":29659:29675   */\n      shr\n        /* \"#utility.yul\":29638:29675   */\n      swap1\n      pop\n        /* \"#utility.yul\":29565:29682   */\n      swap3\n      swap2\n      pop\n      pop\n      jump\t// out\n        /* \"#utility.yul\":29688:29857   */\n    tag_307:\n        /* \"#utility.yul\":29732:29738   */\n      0x00\n        /* \"#utility.yul\":29765:29816   */\n      tag_584\n        /* \"#utility.yul\":29813:29814   */\n      0x00\n        /* \"#utility.yul\":29809:29815   */\n      not\n        /* \"#utility.yul\":29801:29806   */\n      dup5\n        /* \"#utility.yul\":29798:29799   */\n      0x08\n        /* \"#utility.yul\":29794:29807   */\n      mul\n        /* \"#utility.yul\":29765:29816   */\n      tag_306\n      jump\t// in\n    tag_584:\n        /* \"#utility.yul\":29761:29817   */\n      not\n        /* \"#utility.yul\":29846:29850   */\n      dup1\n        /* \"#utility.yul\":29840:29844   */\n      dup4\n        /* \"#utility.yul\":29836:29851   */\n      and\n        /* \"#utility.yul\":29826:29851   */\n      swap2\n      pop\n        /* \"#utility.yul\":29739:29857   */\n      pop\n        /* \"#utility.yul\":29688:29857   */\n      swap3\n      swap2\n      pop\n      pop\n      jump\t// out\n        /* \"#utility.yul\":29862:30157   */\n    tag_308:\n        /* \"#utility.yul\":29938:29942   */\n      0x00\n        /* \"#utility.yul\":30084:30113   */\n      tag_586\n        /* \"#utility.yul\":30109:30112   */\n      dup4\n        /* \"#utility.yul\":30103:30107   */\n      dup4\n        /* \"#utility.yul\":30084:30113   */\n      tag_307\n      jump\t// in\n    tag_586:\n        /* \"#utility.yul\":30076:30113   */\n      swap2\n      pop\n        /* \"#utility.yul\":30146:30149   */\n      dup3\n        /* \"#utility.yul\":30143:30144   */\n      0x02\n        /* \"#utility.yul\":30139:30150   */\n      mul\n        /* \"#utility.yul\":30133:30137   */\n      dup3\n        /* \"#utility.yul\":30130:30151   */\n      or\n        /* \"#utility.yul\":30122:30151   */\n      swap1\n      pop\n        /* \"#utility.yul\":29862:30157   */\n      swap3\n      swap2\n      pop\n      pop\n      jump\t// out\n        /* \"#utility.yul\":30162:31557   */\n    tag_155:\n        /* \"#utility.yul\":30279:30316   */\n      tag_588\n        /* \"#utility.yul\":30312:30315   */\n      dup3\n        /* \"#utility.yul\":30279:30316   */\n      tag_236\n      jump\t// in\n    tag_588:\n        /* \"#utility.yul\":30381:30399   */\n      0xffffffffffffffff\n        /* \"#utility.yul\":30373:30379   */\n      dup2\n        /* \"#utility.yul\":30370:30400   */\n      gt\n        /* \"#utility.yul\":30367:30423   */\n      iszero\n      tag_589\n      jumpi\n        /* \"#utility.yul\":30403:30421   */\n      tag_590\n      tag_60\n      jump\t// in\n    tag_590:\n        /* \"#utility.yul\":30367:30423   */\n    tag_589:\n        /* \"#utility.yul\":30447:30485   */\n      tag_591\n        /* \"#utility.yul\":30479:30483   */\n      dup3\n        /* \"#utility.yul\":30473:30484   */\n      sload\n        /* \"#utility.yul\":30447:30485   */\n      tag_72\n      jump\t// in\n    tag_591:\n        /* \"#utility.yul\":30532:30599   */\n      tag_592\n        /* \"#utility.yul\":30592:30598   */\n      dup3\n        /* \"#utility.yul\":30584:30590   */\n      dup3\n        /* \"#utility.yul\":30578:30582   */\n      dup6\n        /* \"#utility.yul\":30532:30599   */\n      tag_305\n      jump\t// in\n    tag_592:\n        /* \"#utility.yul\":30626:30627   */\n      0x00\n        /* \"#utility.yul\":30650:30654   */\n      0x20\n        /* \"#utility.yul\":30637:30654   */\n      swap1\n      pop\n        /* \"#utility.yul\":30682:30684   */\n      0x1f\n        /* \"#utility.yul\":30674:30680   */\n      dup4\n        /* \"#utility.yul\":30671:30685   */\n      gt\n        /* \"#utility.yul\":30699:30700   */\n      0x01\n        /* \"#utility.yul\":30694:31312   */\n      dup2\n      eq\n      tag_594\n      jumpi\n        /* \"#utility.yul\":31356:31357   */\n      0x00\n        /* \"#utility.yul\":31373:31379   */\n      dup5\n        /* \"#utility.yul\":31370:31447   */\n      iszero\n      tag_595\n      jumpi\n        /* \"#utility.yul\":31422:31431   */\n      dup3\n        /* \"#utility.yul\":31417:31420   */\n      dup8\n        /* \"#utility.yul\":31413:31432   */\n      add\n        /* \"#utility.yul\":31407:31433   */\n      mload\n        /* \"#utility.yul\":31398:31433   */\n      swap1\n      pop\n        /* \"#utility.yul\":31370:31447   */\n    tag_595:\n        /* \"#utility.yul\":31473:31540   */\n      tag_596\n        /* \"#utility.yul\":31533:31539   */\n      dup6\n        /* \"#utility.yul\":31526:31531   */\n      dup3\n        /* \"#utility.yul\":31473:31540   */\n      tag_308\n      jump\t// in\n    tag_596:\n        /* \"#utility.yul\":31467:31471   */\n      dup7\n        /* \"#utility.yul\":31460:31541   */\n      sstore\n        /* \"#utility.yul\":31329:31551   */\n      pop\n        /* \"#utility.yul\":30664:31551   */\n      jump(tag_593)\n        /* \"#utility.yul\":30694:31312   */\n    tag_594:\n        /* \"#utility.yul\":30746:30750   */\n      0x1f\n        /* \"#utility.yul\":30742:30751   */\n      not\n        /* \"#utility.yul\":30734:30740   */\n      dup5\n        /* \"#utility.yul\":30730:30752   */\n      and\n        /* \"#utility.yul\":30780:30817   */\n      tag_597\n        /* \"#utility.yul\":30812:30816   */\n      dup7\n        /* \"#utility.yul\":30780:30817   */\n      tag_294\n      jump\t// in\n    tag_597:\n        /* \"#utility.yul\":30839:30840   */\n      0x00\n        /* \"#utility.yul\":30853:31061   */\n    tag_598:\n        /* \"#utility.yul\":30867:30874   */\n      dup3\n        /* \"#utility.yul\":30864:30865   */\n      dup2\n        /* \"#utility.yul\":30861:30875   */\n      lt\n        /* \"#utility.yul\":30853:31061   */\n      iszero\n      tag_600\n      jumpi\n        /* \"#utility.yul\":30946:30955   */\n      dup5\n        /* \"#utility.yul\":30941:30944   */\n      dup10\n        /* \"#utility.yul\":30937:30956   */\n      add\n        /* \"#utility.yul\":30931:30957   */\n      mload\n        /* \"#utility.yul\":30923:30929   */\n      dup3\n        /* \"#utility.yul\":30916:30958   */\n      sstore\n        /* \"#utility.yul\":30997:30998   */\n      0x01\n        /* \"#utility.yul\":30989:30995   */\n      dup3\n        /* \"#utility.yul\":30985:30999   */\n      add\n        /* \"#utility.yul\":30975:30999   */\n      swap2\n      pop\n        /* \"#utility.yul\":31044:31046   */\n      0x20\n        /* \"#utility.yul\":31033:31042   */\n      dup6\n        /* \"#utility.yul\":31029:31047   */\n      add\n        /* \"#utility.yul\":31016:31047   */\n      swap5\n      pop\n        /* \"#utility.yul\":30890:30894   */\n      0x20\n        /* \"#utility.yul\":30887:30888   */\n      dup2\n        /* \"#utility.yul\":30883:30895   */\n      add\n        /* \"#utility.yul\":30878:30895   */\n      swap1\n      pop\n        /* \"#utility.yul\":30853:31061   */\n      jump(tag_598)\n    tag_600:\n        /* \"#utility.yul\":31089:31095   */\n      dup7\n        /* \"#utility.yul\":31080:31087   */\n      dup4\n        /* \"#utility.yul\":31077:31096   */\n      lt\n        /* \"#utility.yul\":31074:31253   */\n      iszero\n      tag_601\n      jumpi\n        /* \"#utility.yul\":31147:31156   */\n      dup5\n        /* \"#utility.yul\":31142:31145   */\n      dup10\n        /* \"#utility.yul\":31138:31157   */\n      add\n        /* \"#utility.yul\":31132:31158   */\n      mload\n        /* \"#utility.yul\":31190:31238   */\n      tag_602\n        /* \"#utility.yul\":31232:31236   */\n      0x1f\n        /* \"#utility.yul\":31224:31230   */\n      dup10\n        /* \"#utility.yul\":31220:31237   */\n      and\n        /* \"#utility.yul\":31209:31218   */\n      dup3\n        /* \"#utility.yul\":31190:31238   */\n      tag_307\n      jump\t// in\n    tag_602:\n        /* \"#utility.yul\":31182:31188   */\n      dup4\n        /* \"#utility.yul\":31175:31239   */\n      sstore\n        /* \"#utility.yul\":31097:31253   */\n      pop\n        /* \"#utility.yul\":31074:31253   */\n    tag_601:\n        /* \"#utility.yul\":31299:31300   */\n      0x01\n        /* \"#utility.yul\":31295:31296   */\n      0x02\n        /* \"#utility.yul\":31287:31293   */\n      dup9\n        /* \"#utility.yul\":31283:31297   */\n      mul\n        /* \"#utility.yul\":31279:31301   */\n      add\n        /* \"#utility.yul\":31273:31277   */\n      dup9\n        /* \"#utility.yul\":31266:31302   */\n      sstore\n        /* \"#utility.yul\":30701:31312   */\n      pop\n      pop\n      pop\n        /* \"#utility.yul\":30664:31551   */\n    tag_593:\n      pop\n        /* \"#utility.yul\":30254:31557   */\n      pop\n      pop\n      pop\n        /* \"#utility.yul\":30162:31557   */\n      pop\n      pop\n      jump\t// out\n        /* \"#utility.yul\":31563:32298   */\n    tag_158:\n        /* \"#utility.yul\":31780:31784   */\n      0x00\n        /* \"#utility.yul\":31818:31821   */\n      0x80\n        /* \"#utility.yul\":31807:31816   */\n      dup3\n        /* \"#utility.yul\":31803:31822   */\n      add\n        /* \"#utility.yul\":31795:31822   */\n      swap1\n      pop\n        /* \"#utility.yul\":31832:31903   */\n      tag_604\n        /* \"#utility.yul\":31900:31901   */\n      0x00\n        /* \"#utility.yul\":31889:31898   */\n      dup4\n        /* \"#utility.yul\":31885:31902   */\n      add\n        /* \"#utility.yul\":31876:31882   */\n      dup8\n        /* \"#utility.yul\":31832:31903   */\n      tag_283\n      jump\t// in\n    tag_604:\n        /* \"#utility.yul\":31950:31959   */\n      dup2\n        /* \"#utility.yul\":31944:31948   */\n      dup2\n        /* \"#utility.yul\":31940:31960   */\n      sub\n        /* \"#utility.yul\":31935:31937   */\n      0x20\n        /* \"#utility.yul\":31924:31933   */\n      dup4\n        /* \"#utility.yul\":31920:31938   */\n      add\n        /* \"#utility.yul\":31913:31961   */\n      mstore\n        /* \"#utility.yul\":31978:32056   */\n      tag_605\n        /* \"#utility.yul\":32051:32055   */\n      dup2\n        /* \"#utility.yul\":32042:32048   */\n      dup7\n        /* \"#utility.yul\":31978:32056   */\n      tag_261\n      jump\t// in\n    tag_605:\n        /* \"#utility.yul\":31970:32056   */\n      swap1\n      pop\n        /* \"#utility.yul\":32103:32112   */\n      dup2\n        /* \"#utility.yul\":32097:32101   */\n      dup2\n        /* \"#utility.yul\":32093:32113   */\n      sub\n        /* \"#utility.yul\":32088:32090   */\n      0x40\n        /* \"#utility.yul\":32077:32086   */\n      dup4\n        /* \"#utility.yul\":32073:32091   */\n      add\n        /* \"#utility.yul\":32066:32114   */\n      mstore\n        /* \"#utility.yul\":32131:32209   */\n      tag_606\n        /* \"#utility.yul\":32204:32208   */\n      dup2\n        /* \"#utility.yul\":32195:32201   */\n      dup6\n        /* \"#utility.yul\":32131:32209   */\n      tag_261\n      jump\t// in\n    tag_606:\n        /* \"#utility.yul\":32123:32209   */\n      swap1\n      pop\n        /* \"#utility.yul\":32219:32291   */\n      tag_607\n        /* \"#utility.yul\":32287:32289   */\n      0x60\n        /* \"#utility.yul\":32276:32285   */\n      dup4\n        /* \"#utility.yul\":32272:32290   */\n      add\n        /* \"#utility.yul\":32263:32269   */\n      dup5\n        /* \"#utility.yul\":32219:32291   */\n      tag_262\n      jump\t// in\n    tag_607:\n        /* \"#utility.yul\":31563:32298   */\n      swap6\n      swap5\n      pop\n      pop\n      pop\n      pop\n      pop\n      jump\t// out\n        /* \"#utility.yul\":32304:32474   */\n    tag_309:\n        /* \"#utility.yul\":32444:32466   */\n      0x417574686f72206e616d6520746f6f206c6f6e67000000000000000000000000\n        /* \"#utility.yul\":32440:32441   */\n      0x00\n        /* \"#utility.yul\":32432:32438   */\n      dup3\n        /* \"#utility.yul\":32428:32442   */\n      add\n        /* \"#utility.yul\":32421:32467   */\n      mstore\n        /* \"#utility.yul\":32304:32474   */\n      pop\n      jump\t// out\n        /* \"#utility.yul\":32480:32846   */\n    tag_310:\n        /* \"#utility.yul\":32622:32625   */\n      0x00\n        /* \"#utility.yul\":32643:32710   */\n      tag_610\n        /* \"#utility.yul\":32707:32709   */\n      0x14\n        /* \"#utility.yul\":32702:32705   */\n      dup4\n        /* \"#utility.yul\":32643:32710   */\n      tag_260\n      jump\t// in\n    tag_610:\n        /* \"#utility.yul\":32636:32710   */\n      swap2\n      pop\n        /* \"#utility.yul\":32719:32812   */\n      tag_611\n        /* \"#utility.yul\":32808:32811   */\n      dup3\n        /* \"#utility.yul\":32719:32812   */\n      tag_309\n      jump\t// in\n    tag_611:\n        /* \"#utility.yul\":32837:32839   */\n      0x20\n        /* \"#utility.yul\":32832:32835   */\n      dup3\n        /* \"#utility.yul\":32828:32840   */\n      add\n        /* \"#utility.yul\":32821:32840   */\n      swap1\n      pop\n        /* \"#utility.yul\":32480:32846   */\n      swap2\n      swap1\n      pop\n      jump\t// out\n        /* \"#utility.yul\":32852:33271   */\n    tag_200:\n        /* \"#utility.yul\":33018:33022   */\n      0x00\n        /* \"#utility.yul\":33056:33058   */\n      0x20\n        /* \"#utility.yul\":33045:33054   */\n      dup3\n        /* \"#utility.yul\":33041:33059   */\n      add\n        /* \"#utility.yul\":33033:33059   */\n      swap1\n      pop\n        /* \"#utility.yul\":33105:33114   */\n      dup2\n        /* \"#utility.yul\":33099:33103   */\n      dup2\n        /* \"#utility.yul\":33095:33115   */\n      sub\n        /* \"#utility.yul\":33091:33092   */\n      0x00\n        /* \"#utility.yul\":33080:33089   */\n      dup4\n        /* \"#utility.yul\":33076:33093   */\n      add\n        /* \"#utility.yul\":33069:33116   */\n      mstore\n        /* \"#utility.yul\":33133:33264   */\n      tag_613\n        /* \"#utility.yul\":33259:33263   */\n      dup2\n        /* \"#utility.yul\":33133:33264   */\n      tag_310\n      jump\t// in\n    tag_613:\n        /* \"#utility.yul\":33125:33264   */\n      swap1\n      pop\n        /* \"#utility.yul\":32852:33271   */\n      swap2\n      swap1\n      pop\n      jump\t// out\n        /* \"#utility.yul\":33277:33994   */\n    tag_202:\n        /* \"#utility.yul\":33513:33516   */\n      0x00\n        /* \"#utility.yul\":33528:33603   */\n      tag_615\n        /* \"#utility.yul\":33599:33602   */\n      dup3\n        /* \"#utility.yul\":33590:33596   */\n      dup8\n        /* \"#utility.yul\":33528:33603   */\n      tag_289\n      jump\t// in\n    tag_615:\n        /* \"#utility.yul\":33628:33630   */\n      0x14\n        /* \"#utility.yul\":33623:33626   */\n      dup3\n        /* \"#utility.yul\":33619:33631   */\n      add\n        /* \"#utility.yul\":33612:33631   */\n      swap2\n      pop\n        /* \"#utility.yul\":33641:33716   */\n      tag_616\n        /* \"#utility.yul\":33712:33715   */\n      dup3\n        /* \"#utility.yul\":33703:33709   */\n      dup7\n        /* \"#utility.yul\":33641:33716   */\n      tag_291\n      jump\t// in\n    tag_616:\n        /* \"#utility.yul\":33741:33743   */\n      0x20\n        /* \"#utility.yul\":33736:33739   */\n      dup3\n        /* \"#utility.yul\":33732:33744   */\n      add\n        /* \"#utility.yul\":33725:33744   */\n      swap2\n      pop\n        /* \"#utility.yul\":33761:33856   */\n      tag_617\n        /* \"#utility.yul\":33852:33855   */\n      dup3\n        /* \"#utility.yul\":33843:33849   */\n      dup6\n        /* \"#utility.yul\":33761:33856   */\n      tag_293\n      jump\t// in\n    tag_617:\n        /* \"#utility.yul\":33754:33856   */\n      swap2\n      pop\n        /* \"#utility.yul\":33873:33968   */\n      tag_618\n        /* \"#utility.yul\":33964:33967   */\n      dup3\n        /* \"#utility.yul\":33955:33961   */\n      dup5\n        /* \"#utility.yul\":33873:33968   */\n      tag_293\n      jump\t// in\n    tag_618:\n        /* \"#utility.yul\":33866:33968   */\n      swap2\n      pop\n        /* \"#utility.yul\":33985:33988   */\n      dup2\n        /* \"#utility.yul\":33978:33988   */\n      swap1\n      pop\n        /* \"#utility.yul\":33277:33994   */\n      swap6\n      swap5\n      pop\n      pop\n      pop\n      pop\n      pop\n      jump\t// out\n        /* \"#utility.yul\":34000:34624   */\n    tag_209:\n        /* \"#utility.yul\":34189:34193   */\n      0x00\n        /* \"#utility.yul\":34227:34229   */\n      0x60\n        /* \"#utility.yul\":34216:34225   */\n      dup3\n        /* \"#utility.yul\":34212:34230   */\n      add\n        /* \"#utility.yul\":34204:34230   */\n      swap1\n      pop\n        /* \"#utility.yul\":34276:34285   */\n      dup2\n        /* \"#utility.yul\":34270:34274   */\n      dup2\n        /* \"#utility.yul\":34266:34286   */\n      sub\n        /* \"#utility.yul\":34262:34263   */\n      0x00\n        /* \"#utility.yul\":34251:34260   */\n      dup4\n        /* \"#utility.yul\":34247:34264   */\n      add\n        /* \"#utility.yul\":34240:34287   */\n      mstore\n        /* \"#utility.yul\":34304:34382   */\n      tag_620\n        /* \"#utility.yul\":34377:34381   */\n      dup2\n        /* \"#utility.yul\":34368:34374   */\n      dup7\n        /* \"#utility.yul\":34304:34382   */\n      tag_261\n      jump\t// in\n    tag_620:\n        /* \"#utility.yul\":34296:34382   */\n      swap1\n      pop\n        /* \"#utility.yul\":34429:34438   */\n      dup2\n        /* \"#utility.yul\":34423:34427   */\n      dup2\n        /* \"#utility.yul\":34419:34439   */\n      sub\n        /* \"#utility.yul\":34414:34416   */\n      0x20\n        /* \"#utility.yul\":34403:34412   */\n      dup4\n        /* \"#utility.yul\":34399:34417   */\n      add\n        /* \"#utility.yul\":34392:34440   */\n      mstore\n        /* \"#utility.yul\":34457:34535   */\n      tag_621\n        /* \"#utility.yul\":34530:34534   */\n      dup2\n        /* \"#utility.yul\":34521:34527   */\n      dup6\n        /* \"#utility.yul\":34457:34535   */\n      tag_261\n      jump\t// in\n    tag_621:\n        /* \"#utility.yul\":34449:34535   */\n      swap1\n      pop\n        /* \"#utility.yul\":34545:34617   */\n      tag_622\n        /* \"#utility.yul\":34613:34615   */\n      0x40\n        /* \"#utility.yul\":34602:34611   */\n      dup4\n        /* \"#utility.yul\":34598:34616   */\n      add\n        /* \"#utility.yul\":34589:34595   */\n      dup5\n        /* \"#utility.yul\":34545:34617   */\n      tag_262\n      jump\t// in\n    tag_622:\n        /* \"#utility.yul\":34000:34624   */\n      swap5\n      swap4\n      pop\n      pop\n      pop\n      pop\n      jump\t// out\n\n    auxdata: 0xa2646970667358221220e48d1702a95ea397aef4def7be72f4fc7be64d4b6a1c615f7e5dcd10255c46e264736f6c634300081e0033\n}\n",
				"bytecode": {
					"linkReferences": {},
					"object": "6080604052348015600e575f5ffd5b506129318061001c5f395ff3fe608060405234801561000f575f5ffd5b506004361061009c575f3560e01c8063ae362ff911610064578063ae362ff914610142578063cdb1d17e14610178578063e2fc269114610194578063e8a4a1eb146101b0578063f7ba787d146101cc5761009c565b80632cfdcc6b146100a057806330561100146100d0578063a54ff9ac146100ee578063a6c86b5b1461010a578063a7503db214610126575b5f5ffd5b6100ba60048036038101906100b59190611931565b6101fc565b6040516100c79190611b5e565b60405180910390f35b6100d8610534565b6040516100e59190611b5e565b60405180910390f35b61010860048036038101906101039190611ba8565b6107e3565b005b610124600480360381019061011f9190611bfd565b6109b2565b005b610140600480360381019061013b9190611d67565b610bdb565b005b61015c60048036038101906101579190611ba8565b610e09565b60405161016f9796959493929190611e55565b60405180910390f35b610192600480360381019061018d9190611bfd565b61109b565b005b6101ae60048036038101906101a99190611ba8565b6112c3565b005b6101ca60048036038101906101c59190611ed7565b611493565b005b6101e660048036038101906101e19190611ba8565b611684565b6040516101f391906120e5565b60405180910390f35b60605f60015f8473ffffffffffffffffffffffffffffffffffffffff1673ffffffffffffffffffffffffffffffffffffffff1681526020019081526020015f2080548060200260200160405190810160405280929190818152602001828054801561028457602002820191905f5260205f20905b815481526020019060010190808311610270575b505050505090505f815167ffffffffffffffff8111156102a7576102a6611c43565b5b6040519080825280602002602001820160405280156102e057816020015b6102cd61188d565b8152602001906001900390816102c55790505b5090505f5f90505b82518110156105295760025f84838151811061030757610306612105565b5b602002602001015181526020019081526020015f206040518060e00160405290815f82015481526020016001820180546103409061215f565b80601f016020809104026020016040519081016040528092919081815260200182805461036c9061215f565b80156103b75780601f1061038e576101008083540402835291602001916103b7565b820191905f5260205f20905b81548152906001019060200180831161039a57829003601f168201915b505050505081526020016002820180546103d09061215f565b80601f01602080910402602001604051908101604052809291908181526020018280546103fc9061215f565b80156104475780601f1061041e57610100808354040283529160200191610447565b820191905f5260205f20905b81548152906001019060200180831161042a57829003601f168201915b505050505081526020016003820180546104609061215f565b80601f016020809104026020016040519081016040528092919081815260200182805461048c9061215f565b80156104d75780601f106104ae576101008083540402835291602001916104d7565b820191905f5260205f20905b8154815290600101906020018083116104ba57829003601f168201915b50505050508152602001600482015481526020016005820154815260200160068201548152505082828151811061051157610510612105565b5b602002602001018190525080806001019150506102e8565b508092505050919050565b60605f5f8054905067ffffffffffffffff81111561055557610554611c43565b5b60405190808252806020026020018201604052801561058e57816020015b61057b61188d565b8152602001906001900390816105735790505b5090505f5f90505b5f805490508110156107db5760025f5f83815481106105b8576105b7612105565b5b905f5260205f20015481526020019081526020015f206040518060e00160405290815f82015481526020016001820180546105f29061215f565b80601f016020809104026020016040519081016040528092919081815260200182805461061e9061215f565b80156106695780601f1061064057610100808354040283529160200191610669565b820191905f5260205f20905b81548152906001019060200180831161064c57829003601f168201915b505050505081526020016002820180546106829061215f565b80601f01602080910402602001604051908101604052809291908181526020018280546106ae9061215f565b80156106f95780601f106106d0576101008083540402835291602001916106f9565b820191905f5260205f20905b8154815290600101906020018083116106dc57829003601f168201915b505050505081526020016003820180546107129061215f565b80601f016020809104026020016040519081016040528092919081815260200182805461073e9061215f565b80156107895780601f1061076057610100808354040283529160200191610789565b820191905f5260205f20905b81548152906001019060200180831161076c57829003601f168201915b5050505050815260200160048201548152602001600582015481526020016006820154815250508282815181106107c3576107c2612105565b5b60200260200101819052508080600101915050610596565b508091505090565b5f5f1b60025f8381526020019081526020015f205f01540361083a576040517f08c379a0000000000000000000000000000000000000000000000000000000008152600401610831906121d9565b60405180910390fd5b60045f8281526020019081526020015f205f3373ffffffffffffffffffffffffffffffffffffffff1673ffffffffffffffffffffffffffffffffffffffff1681526020019081526020015f205f9054906101000a900460ff16156108d3576040517f08c379a00000000000000000000000000000000000000000000000000000000081526004016108ca90612241565b60405180910390fd5b60025f8281526020019081526020015f206005015f8154809291906108f79061228c565b9190505550600160045f8381526020019081526020015f205f3373ffffffffffffffffffffffffffffffffffffffff1673ffffffffffffffffffffffffffffffffffffffff1681526020019081526020015f205f6101000a81548160ff0219169083151502179055503373ffffffffffffffffffffffffffffffffffffffff16817fa7e4c5082f867ea22a45a95c2043209b9ce83d70ca31ccb947e67592ea14c4b15f6040516109a791906122ed565b60405180910390a350565b60035f8381526020019081526020015f20805490508110610a08576040517f08c379a00000000000000000000000000000000000000000000000000000000081526004016109ff90612350565b60405180910390fd5b60055f8381526020019081526020015f205f3373ffffffffffffffffffffffffffffffffffffffff1673ffffffffffffffffffffffffffffffffffffffff1681526020019081526020015f205f8281526020019081526020015f205f9054906101000a900460ff1615610ab0576040517f08c379a0000000000000000000000000000000000000000000000000000000008152600401610aa7906123b8565b60405180910390fd5b60035f8381526020019081526020015f208181548110610ad357610ad2612105565b5b905f5260205f2090600702016004015f815480929190610af29061228c565b9190505550600160055f8481526020019081526020015f205f3373ffffffffffffffffffffffffffffffffffffffff1673ffffffffffffffffffffffffffffffffffffffff1681526020019081526020015f205f8381526020019081526020015f205f6101000a81548160ff02191690831515021790555060035f8381526020019081526020015f208181548110610b8d57610b8c612105565b5b905f5260205f2090600702015f0154827fa718b91703005c7ff3c85ef47cb2b96b8bf518a0934598a085e074a84ad79ba1336001604051610bcf9291906123e5565b60405180910390a35050565b5f5f1b60025f8581526020019081526020015f205f015403610c32576040517f08c379a0000000000000000000000000000000000000000000000000000000008152600401610c29906121d9565b60405180910390fd5b602082511115610c77576040517f08c379a0000000000000000000000000000000000000000000000000000000008152600401610c6e90612456565b60405180910390fd5b5f334283604051602001610c8d93929190612513565b6040516020818303038152906040528051906020012090505f6040518060e001604052808381526020013373ffffffffffffffffffffffffffffffffffffffff1681526020018581526020018481526020015f81526020015f815260200142815250905060035f8681526020019081526020015f2081908060018154018082558091505060019003905f5260205f2090600702015f909190919091505f820151815f01556020820151816001015f6101000a81548173ffffffffffffffffffffffffffffffffffffffff021916908373ffffffffffffffffffffffffffffffffffffffff1602179055506040820151816002019081610d8c91906126eb565b506060820151816003019081610da291906126eb565b506080820151816004015560a0820151816005015560c08201518160060155505081857f121f72518586f939bfb34c62bbf7d31b0a8ae8ecbcac0869550705ee4cff80f533878742604051610dfa94939291906127ba565b60405180910390a35050505050565b5f60608060605f5f5f5f5f1b60025f8a81526020019081526020015f205f015403610e69576040517f08c379a0000000000000000000000000000000000000000000000000000000008152600401610e60906121d9565b60405180910390fd5b5f60025f8a81526020019081526020015f206040518060e00160405290815f8201548152602001600182018054610e9f9061215f565b80601f0160208091040260200160405190810160405280929190818152602001828054610ecb9061215f565b8015610f165780601f10610eed57610100808354040283529160200191610f16565b820191905f5260205f20905b815481529060010190602001808311610ef957829003601f168201915b50505050508152602001600282018054610f2f9061215f565b80601f0160208091040260200160405190810160405280929190818152602001828054610f5b9061215f565b8015610fa65780601f10610f7d57610100808354040283529160200191610fa6565b820191905f5260205f20905b815481529060010190602001808311610f8957829003601f168201915b50505050508152602001600382018054610fbf9061215f565b80601f0160208091040260200160405190810160405280929190818152602001828054610feb9061215f565b80156110365780601f1061100d57610100808354040283529160200191611036565b820191905f5260205f20905b81548152906001019060200180831161101957829003601f168201915b5050505050815260200160048201548152602001600582015481526020016006820154815250509050805f015181602001518260400151836060015184608001518560a001518660c00151975097509750975097509750975050919395979092949650565b60035f8381526020019081526020015f208054905081106110f1576040517f08c379a00000000000000000000000000000000000000000000000000000000081526004016110e890612350565b60405180910390fd5b60055f8381526020019081526020015f205f3373ffffffffffffffffffffffffffffffffffffffff1673ffffffffffffffffffffffffffffffffffffffff1681526020019081526020015f205f8281526020019081526020015f205f9054906101000a900460ff1615611199576040517f08c379a0000000000000000000000000000000000000000000000000000000008152600401611190906123b8565b60405180910390fd5b60035f8381526020019081526020015f2081815481106111bc576111bb612105565b5b905f5260205f2090600702016005015f8154809291906111db9061228c565b9190505550600160055f8481526020019081526020015f205f3373ffffffffffffffffffffffffffffffffffffffff1673ffffffffffffffffffffffffffffffffffffffff1681526020019081526020015f205f8381526020019081526020015f205f6101000a81548160ff02191690831515021790555060035f8381526020019081526020015f20818154811061127657611275612105565b5b905f5260205f2090600702015f0154827fa718b91703005c7ff3c85ef47cb2b96b8bf518a0934598a085e074a84ad79ba1335f6040516112b79291906123e5565b60405180910390a35050565b5f5f1b60025f8381526020019081526020015f205f01540361131a576040517f08c379a0000000000000000000000000000000000000000000000000000000008152600401611311906121d9565b60405180910390fd5b60045f8281526020019081526020015f205f3373ffffffffffffffffffffffffffffffffffffffff1673ffffffffffffffffffffffffffffffffffffffff1681526020019081526020015f205f9054906101000a900460ff16156113b3576040517f08c379a00000000000000000000000000000000000000000000000000000000081526004016113aa90612241565b60405180910390fd5b60025f8281526020019081526020015f206004015f8154809291906113d79061228c565b9190505550600160045f8381526020019081526020015f205f3373ffffffffffffffffffffffffffffffffffffffff1673ffffffffffffffffffffffffffffffffffffffff1681526020019081526020015f205f6101000a81548160ff0219169083151502179055503373ffffffffffffffffffffffffffffffffffffffff16817fa7e4c5082f867ea22a45a95c2043209b9ce83d70ca31ccb947e67592ea14c4b1600160405161148891906122ed565b60405180910390a350565b6020835111156114d8576040517f08c379a00000000000000000000000000000000000000000000000000000000081526004016114cf90612855565b60405180910390fd5b5f334284846040516020016114f09493929190612873565b6040516020818303038152906040528051906020012090505f6040518060e001604052808381526020018681526020018581526020018481526020015f81526020015f81526020014281525090505f82908060018154018082558091505060019003905f5260205f20015f909190919091505560015f3373ffffffffffffffffffffffffffffffffffffffff1673ffffffffffffffffffffffffffffffffffffffff1681526020019081526020015f2082908060018154018082558091505060019003905f5260205f20015f90919091909150558060025f8481526020019081526020015f205f820151815f015560208201518160010190816115f391906126eb565b50604082015181600201908161160991906126eb565b50606082015181600301908161161f91906126eb565b506080820151816004015560a0820151816005015560c08201518160060155905050817f17f34748f078a06d3c7c034ef1cdf60a8b2baf4592df676d3a2ae61596619f98858742604051611675939291906128b8565b60405180910390a25050505050565b606060035f8381526020019081526020015f20805480602002602001604051908101604052809291908181526020015f905b82821015611882578382905f5260205f2090600702016040518060e00160405290815f8201548152602001600182015f9054906101000a900473ffffffffffffffffffffffffffffffffffffffff1673ffffffffffffffffffffffffffffffffffffffff1673ffffffffffffffffffffffffffffffffffffffff1681526020016002820180546117459061215f565b80601f01602080910402602001604051908101604052809291908181526020018280546117719061215f565b80156117bc5780601f10611793576101008083540402835291602001916117bc565b820191905f5260205f20905b81548152906001019060200180831161179f57829003601f168201915b505050505081526020016003820180546117d59061215f565b80601f01602080910402602001604051908101604052809291908181526020018280546118019061215f565b801561184c5780601f106118235761010080835404028352916020019161184c565b820191905f5260205f20905b81548152906001019060200180831161182f57829003601f168201915b505050505081526020016004820154815260200160058201548152602001600682015481525050815260200190600101906116b6565b505050509050919050565b6040518060e001604052805f81526020016060815260200160608152602001606081526020015f81526020015f81526020015f81525090565b5f604051905090565b5f5ffd5b5f5ffd5b5f73ffffffffffffffffffffffffffffffffffffffff82169050919050565b5f611900826118d7565b9050919050565b611910816118f6565b811461191a575f5ffd5b50565b5f8135905061192b81611907565b92915050565b5f60208284031215611946576119456118cf565b5b5f6119538482850161191d565b91505092915050565b5f81519050919050565b5f82825260208201905092915050565b5f819050602082019050919050565b5f819050919050565b61199781611985565b82525050565b5f81519050919050565b5f82825260208201905092915050565b8281835e5f83830152505050565b5f601f19601f8301169050919050565b5f6119df8261199d565b6119e981856119a7565b93506119f98185602086016119b7565b611a02816119c5565b840191505092915050565b5f819050919050565b611a1f81611a0d565b82525050565b5f60e083015f830151611a3a5f86018261198e565b5060208301518482036020860152611a5282826119d5565b91505060408301518482036040860152611a6c82826119d5565b91505060608301518482036060860152611a8682826119d5565b9150506080830151611a9b6080860182611a16565b5060a0830151611aae60a0860182611a16565b5060c0830151611ac160c0860182611a16565b508091505092915050565b5f611ad78383611a25565b905092915050565b5f602082019050919050565b5f611af58261195c565b611aff8185611966565b935083602082028501611b1185611976565b805f5b85811015611b4c5784840389528151611b2d8582611acc565b9450611b3883611adf565b925060208a01995050600181019050611b14565b50829750879550505050505092915050565b5f6020820190508181035f830152611b768184611aeb565b905092915050565b611b8781611985565b8114611b91575f5ffd5b50565b5f81359050611ba281611b7e565b92915050565b5f60208284031215611bbd57611bbc6118cf565b5b5f611bca84828501611b94565b91505092915050565b611bdc81611a0d565b8114611be6575f5ffd5b50565b5f81359050611bf781611bd3565b92915050565b5f5f60408385031215611c1357611c126118cf565b5b5f611c2085828601611b94565b9250506020611c3185828601611be9565b9150509250929050565b5f5ffd5b5f5ffd5b7f4e487b71000000000000000000000000000000000000000000000000000000005f52604160045260245ffd5b611c79826119c5565b810181811067ffffffffffffffff82111715611c9857611c97611c43565b5b80604052505050565b5f611caa6118c6565b9050611cb68282611c70565b919050565b5f67ffffffffffffffff821115611cd557611cd4611c43565b5b611cde826119c5565b9050602081019050919050565b828183375f83830152505050565b5f611d0b611d0684611cbb565b611ca1565b905082815260208101848484011115611d2757611d26611c3f565b5b611d32848285611ceb565b509392505050565b5f82601f830112611d4e57611d4d611c3b565b5b8135611d5e848260208601611cf9565b91505092915050565b5f5f5f60608486031215611d7e57611d7d6118cf565b5b5f611d8b86828701611b94565b935050602084013567ffffffffffffffff811115611dac57611dab6118d3565b5b611db886828701611d3a565b925050604084013567ffffffffffffffff811115611dd957611dd86118d3565b5b611de586828701611d3a565b9150509250925092565b611df881611985565b82525050565b5f82825260208201905092915050565b5f611e188261199d565b611e228185611dfe565b9350611e328185602086016119b7565b611e3b816119c5565b840191505092915050565b611e4f81611a0d565b82525050565b5f60e082019050611e685f83018a611def565b8181036020830152611e7a8189611e0e565b90508181036040830152611e8e8188611e0e565b90508181036060830152611ea28187611e0e565b9050611eb16080830186611e46565b611ebe60a0830185611e46565b611ecb60c0830184611e46565b98975050505050505050565b5f5f5f60608486031215611eee57611eed6118cf565b5b5f84013567ffffffffffffffff811115611f0b57611f0a6118d3565b5b611f1786828701611d3a565b935050602084013567ffffffffffffffff811115611f3857611f376118d3565b5b611f4486828701611d3a565b925050604084013567ffffffffffffffff811115611f6557611f646118d3565b5b611f7186828701611d3a565b9150509250925092565b5f81519050919050565b5f82825260208201905092915050565b5f819050602082019050919050565b611fad816118f6565b82525050565b5f60e083015f830151611fc85f86018261198e565b506020830151611fdb6020860182611fa4565b5060408301518482036040860152611ff382826119d5565b9150506060830151848203606086015261200d82826119d5565b91505060808301516120226080860182611a16565b5060a083015161203560a0860182611a16565b5060c083015161204860c0860182611a16565b508091505092915050565b5f61205e8383611fb3565b905092915050565b5f602082019050919050565b5f61207c82611f7b565b6120868185611f85565b93508360208202850161209885611f95565b805f5b858110156120d357848403895281516120b48582612053565b94506120bf83612066565b925060208a0199505060018101905061209b565b50829750879550505050505092915050565b5f6020820190508181035f8301526120fd8184612072565b905092915050565b7f4e487b71000000000000000000000000000000000000000000000000000000005f52603260045260245ffd5b7f4e487b71000000000000000000000000000000000000000000000000000000005f52602260045260245ffd5b5f600282049050600182168061217657607f821691505b60208210810361218957612188612132565b5b50919050565b7f506f737420646f6573206e6f742065786973742e0000000000000000000000005f82015250565b5f6121c3601483611dfe565b91506121ce8261218f565b602082019050919050565b5f6020820190508181035f8301526121f0816121b7565b9050919050565b7f416c726561647920766f746564206f6e207468697320706f73742e00000000005f82015250565b5f61222b601b83611dfe565b9150612236826121f7565b602082019050919050565b5f6020820190508181035f8301526122588161221f565b9050919050565b7f4e487b71000000000000000000000000000000000000000000000000000000005f52601160045260245ffd5b5f61229682611a0d565b91507fffffffffffffffffffffffffffffffffffffffffffffffffffffffffffffffff82036122c8576122c761225f565b5b600182019050919050565b5f8115159050919050565b6122e7816122d3565b82525050565b5f6020820190506123005f8301846122de565b92915050565b7f436f6d6d656e7420646f6573206e6f74206578697374000000000000000000005f82015250565b5f61233a601683611dfe565b915061234582612306565b602082019050919050565b5f6020820190508181035f8301526123678161232e565b9050919050565b7f416c726561647920766f746564206f6e207468697320636f6d6d656e740000005f82015250565b5f6123a2601d83611dfe565b91506123ad8261236e565b602082019050919050565b5f6020820190508181035f8301526123cf81612396565b9050919050565b6123df816118f6565b82525050565b5f6040820190506123f85f8301856123d6565b61240560208301846122de565b9392505050565b7f436f6d6d656e746572206e616d6520746f6f206c6f6e670000000000000000005f82015250565b5f612440601783611dfe565b915061244b8261240c565b602082019050919050565b5f6020820190508181035f83015261246d81612434565b9050919050565b5f8160601b9050919050565b5f61248a82612474565b9050919050565b5f61249b82612480565b9050919050565b6124b36124ae826118f6565b612491565b82525050565b5f819050919050565b6124d36124ce82611a0d565b6124b9565b82525050565b5f81905092915050565b5f6124ed8261199d565b6124f781856124d9565b93506125078185602086016119b7565b80840191505092915050565b5f61251e82866124a2565b60148201915061252e82856124c2565b60208201915061253e82846124e3565b9150819050949350505050565b5f819050815f5260205f209050919050565b5f6020601f8301049050919050565b5f82821b905092915050565b5f600883026125a77fffffffffffffffffffffffffffffffffffffffffffffffffffffffffffffffff8261256c565b6125b1868361256c565b95508019841693508086168417925050509392505050565b5f819050919050565b5f6125ec6125e76125e284611a0d565b6125c9565b611a0d565b9050919050565b5f819050919050565b612605836125d2565b612619612611826125f3565b848454612578565b825550505050565b5f5f905090565b612630612621565b61263b8184846125fc565b505050565b5b8181101561265e576126535f82612628565b600181019050612641565b5050565b601f8211156126a3576126748161254b565b61267d8461255d565b8101602085101561268c578190505b6126a06126988561255d565b830182612640565b50505b505050565b5f82821c905092915050565b5f6126c35f19846008026126a8565b1980831691505092915050565b5f6126db83836126b4565b9150826002028217905092915050565b6126f48261199d565b67ffffffffffffffff81111561270d5761270c611c43565b5b612717825461215f565b612722828285612662565b5f60209050601f831160018114612753575f8415612741578287015190505b61274b85826126d0565b8655506127b2565b601f1984166127618661254b565b5f5b8281101561278857848901518255600182019150602085019450602081019050612763565b868310156127a557848901516127a1601f8916826126b4565b8355505b6001600288020188555050505b505050505050565b5f6080820190506127cd5f8301876123d6565b81810360208301526127df8186611e0e565b905081810360408301526127f38185611e0e565b90506128026060830184611e46565b95945050505050565b7f417574686f72206e616d6520746f6f206c6f6e670000000000000000000000005f82015250565b5f61283f601483611dfe565b915061284a8261280b565b602082019050919050565b5f6020820190508181035f83015261286c81612833565b9050919050565b5f61287e82876124a2565b60148201915061288e82866124c2565b60208201915061289e82856124e3565b91506128aa82846124e3565b915081905095945050505050565b5f6060820190508181035f8301526128d08186611e0e565b905081810360208301526128e48185611e0e565b90506128f36040830184611e46565b94935050505056fea2646970667358221220e48d1702a95ea397aef4def7be72f4fc7be64d4b6a1c615f7e5dcd10255c46e264736f6c634300081e0033",
					"opcodes": "PUSH1 0x80 PUSH1 0x40 MSTORE CALLVALUE DUP1 ISZERO PUSH1 0xE JUMPI PUSH0 PUSH0 REVERT JUMPDEST POP PUSH2 0x2931 DUP1 PUSH2 0x1C PUSH0 CODECOPY PUSH0 RETURN INVALID PUSH1 0x80 PUSH1 0x40 MSTORE CALLVALUE DUP1 ISZERO PUSH2 0xF JUMPI PUSH0 PUSH0 REVERT JUMPDEST POP PUSH1 0x4 CALLDATASIZE LT PUSH2 0x9C JUMPI PUSH0 CALLDATALOAD PUSH1 0xE0 SHR DUP1 PUSH4 0xAE362FF9 GT PUSH2 0x64 JUMPI DUP1 PUSH4 0xAE362FF9 EQ PUSH2 0x142 JUMPI DUP1 PUSH4 0xCDB1D17E EQ PUSH2 0x178 JUMPI DUP1 PUSH4 0xE2FC2691 EQ PUSH2 0x194 JUMPI DUP1 PUSH4 0xE8A4A1EB EQ PUSH2 0x1B0 JUMPI DUP1 PUSH4 0xF7BA787D EQ PUSH2 0x1CC JUMPI PUSH2 0x9C JUMP JUMPDEST DUP1 PUSH4 0x2CFDCC6B EQ PUSH2 0xA0 JUMPI DUP1 PUSH4 0x30561100 EQ PUSH2 0xD0 JUMPI DUP1 PUSH4 0xA54FF9AC EQ PUSH2 0xEE JUMPI DUP1 PUSH4 0xA6C86B5B EQ PUSH2 0x10A JUMPI DUP1 PUSH4 0xA7503DB2 EQ PUSH2 0x126 JUMPI JUMPDEST PUSH0 PUSH0 REVERT JUMPDEST PUSH2 0xBA PUSH1 0x4 DUP1 CALLDATASIZE SUB DUP2 ADD SWAP1 PUSH2 0xB5 SWAP2 SWAP1 PUSH2 0x1931 JUMP JUMPDEST PUSH2 0x1FC JUMP JUMPDEST PUSH1 0x40 MLOAD PUSH2 0xC7 SWAP2 SWAP1 PUSH2 0x1B5E JUMP JUMPDEST PUSH1 0x40 MLOAD DUP1 SWAP2 SUB SWAP1 RETURN JUMPDEST PUSH2 0xD8 PUSH2 0x534 JUMP JUMPDEST PUSH1 0x40 MLOAD PUSH2 0xE5 SWAP2 SWAP1 PUSH2 0x1B5E JUMP JUMPDEST PUSH1 0x40 MLOAD DUP1 SWAP2 SUB SWAP1 RETURN JUMPDEST PUSH2 0x108 PUSH1 0x4 DUP1 CALLDATASIZE SUB DUP2 ADD SWAP1 PUSH2 0x103 SWAP2 SWAP1 PUSH2 0x1BA8 JUMP JUMPDEST PUSH2 0x7E3 JUMP JUMPDEST STOP JUMPDEST PUSH2 0x124 PUSH1 0x4 DUP1 CALLDATASIZE SUB DUP2 ADD SWAP1 PUSH2 0x11F SWAP2 SWAP1 PUSH2 0x1BFD JUMP JUMPDEST PUSH2 0x9B2 JUMP JUMPDEST STOP JUMPDEST PUSH2 0x140 PUSH1 0x4 DUP1 CALLDATASIZE SUB DUP2 ADD SWAP1 PUSH2 0x13B SWAP2 SWAP1 PUSH2 0x1D67 JUMP JUMPDEST PUSH2 0xBDB JUMP JUMPDEST STOP JUMPDEST PUSH2 0x15C PUSH1 0x4 DUP1 CALLDATASIZE SUB DUP2 ADD SWAP1 PUSH2 0x157 SWAP2 SWAP1 PUSH2 0x1BA8 JUMP JUMPDEST PUSH2 0xE09 JUMP JUMPDEST PUSH1 0x40 MLOAD PUSH2 0x16F SWAP8 SWAP7 SWAP6 SWAP5 SWAP4 SWAP3 SWAP2 SWAP1 PUSH2 0x1E55 JUMP JUMPDEST PUSH1 0x40 MLOAD DUP1 SWAP2 SUB SWAP1 RETURN JUMPDEST PUSH2 0x192 PUSH1 0x4 DUP1 CALLDATASIZE SUB DUP2 ADD SWAP1 PUSH2 0x18D SWAP2 SWAP1 PUSH2 0x1BFD JUMP JUMPDEST PUSH2 0x109B JUMP JUMPDEST STOP JUMPDEST PUSH2 0x1AE PUSH1 0x4 DUP1 CALLDATASIZE SUB DUP2 ADD SWAP1 PUSH2 0x1A9 SWAP2 SWAP1 PUSH2 0x1BA8 JUMP JUMPDEST PUSH2 0x12C3 JUMP JUMPDEST STOP JUMPDEST PUSH2 0x1CA PUSH1 0x4 DUP1 CALLDATASIZE SUB DUP2 ADD SWAP1 PUSH2 0x1C5 SWAP2 SWAP1 PUSH2 0x1ED7 JUMP JUMPDEST PUSH2 0x1493 JUMP JUMPDEST STOP JUMPDEST PUSH2 0x1E6 PUSH1 0x4 DUP1 CALLDATASIZE SUB DUP2 ADD SWAP1 PUSH2 0x1E1 SWAP2 SWAP1 PUSH2 0x1BA8 JUMP JUMPDEST PUSH2 0x1684 JUMP JUMPDEST PUSH1 0x40 MLOAD PUSH2 0x1F3 SWAP2 SWAP1 PUSH2 0x20E5 JUMP JUMPDEST PUSH1 0x40 MLOAD DUP1 SWAP2 SUB SWAP1 RETURN JUMPDEST PUSH1 0x60 PUSH0 PUSH1 0x1 PUSH0 DUP5 PUSH20 0xFFFFFFFFFFFFFFFFFFFFFFFFFFFFFFFFFFFFFFFF AND PUSH20 0xFFFFFFFFFFFFFFFFFFFFFFFFFFFFFFFFFFFFFFFF AND DUP2 MSTORE PUSH1 0x20 ADD SWAP1 DUP2 MSTORE PUSH1 0x20 ADD PUSH0 KECCAK256 DUP1 SLOAD DUP1 PUSH1 0x20 MUL PUSH1 0x20 ADD PUSH1 0x40 MLOAD SWAP1 DUP2 ADD PUSH1 0x40 MSTORE DUP1 SWAP3 SWAP2 SWAP1 DUP2 DUP2 MSTORE PUSH1 0x20 ADD DUP3 DUP1 SLOAD DUP1 ISZERO PUSH2 0x284 JUMPI PUSH1 0x20 MUL DUP3 ADD SWAP2 SWAP1 PUSH0 MSTORE PUSH1 0x20 PUSH0 KECCAK256 SWAP1 JUMPDEST DUP2 SLOAD DUP2 MSTORE PUSH1 0x20 ADD SWAP1 PUSH1 0x1 ADD SWAP1 DUP1 DUP4 GT PUSH2 0x270 JUMPI JUMPDEST POP POP POP POP POP SWAP1 POP PUSH0 DUP2 MLOAD PUSH8 0xFFFFFFFFFFFFFFFF DUP2 GT ISZERO PUSH2 0x2A7 JUMPI PUSH2 0x2A6 PUSH2 0x1C43 JUMP JUMPDEST JUMPDEST PUSH1 0x40 MLOAD SWAP1 DUP1 DUP3 MSTORE DUP1 PUSH1 0x20 MUL PUSH1 0x20 ADD DUP3 ADD PUSH1 0x40 MSTORE DUP1 ISZERO PUSH2 0x2E0 JUMPI DUP2 PUSH1 0x20 ADD JUMPDEST PUSH2 0x2CD PUSH2 0x188D JUMP JUMPDEST DUP2 MSTORE PUSH1 0x20 ADD SWAP1 PUSH1 0x1 SWAP1 SUB SWAP1 DUP2 PUSH2 0x2C5 JUMPI SWAP1 POP JUMPDEST POP SWAP1 POP PUSH0 PUSH0 SWAP1 POP JUMPDEST DUP3 MLOAD DUP2 LT ISZERO PUSH2 0x529 JUMPI PUSH1 0x2 PUSH0 DUP5 DUP4 DUP2 MLOAD DUP2 LT PUSH2 0x307 JUMPI PUSH2 0x306 PUSH2 0x2105 JUMP JUMPDEST JUMPDEST PUSH1 0x20 MUL PUSH1 0x20 ADD ADD MLOAD DUP2 MSTORE PUSH1 0x20 ADD SWAP1 DUP2 MSTORE PUSH1 0x20 ADD PUSH0 KECCAK256 PUSH1 0x40 MLOAD DUP1 PUSH1 0xE0 ADD PUSH1 0x40 MSTORE SWAP1 DUP2 PUSH0 DUP3 ADD SLOAD DUP2 MSTORE PUSH1 0x20 ADD PUSH1 0x1 DUP3 ADD DUP1 SLOAD PUSH2 0x340 SWAP1 PUSH2 0x215F JUMP JUMPDEST DUP1 PUSH1 0x1F ADD PUSH1 0x20 DUP1 SWAP2 DIV MUL PUSH1 0x20 ADD PUSH1 0x40 MLOAD SWAP1 DUP2 ADD PUSH1 0x40 MSTORE DUP1 SWAP3 SWAP2 SWAP1 DUP2 DUP2 MSTORE PUSH1 0x20 ADD DUP3 DUP1 SLOAD PUSH2 0x36C SWAP1 PUSH2 0x215F JUMP JUMPDEST DUP1 ISZERO PUSH2 0x3B7 JUMPI DUP1 PUSH1 0x1F LT PUSH2 0x38E JUMPI PUSH2 0x100 DUP1 DUP4 SLOAD DIV MUL DUP4 MSTORE SWAP2 PUSH1 0x20 ADD SWAP2 PUSH2 0x3B7 JUMP JUMPDEST DUP3 ADD SWAP2 SWAP1 PUSH0 MSTORE PUSH1 0x20 PUSH0 KECCAK256 SWAP1 JUMPDEST DUP2 SLOAD DUP2 MSTORE SWAP1 PUSH1 0x1 ADD SWAP1 PUSH1 0x20 ADD DUP1 DUP4 GT PUSH2 0x39A JUMPI DUP3 SWAP1 SUB PUSH1 0x1F AND DUP3 ADD SWAP2 JUMPDEST POP POP POP POP POP DUP2 MSTORE PUSH1 0x20 ADD PUSH1 0x2 DUP3 ADD DUP1 SLOAD PUSH2 0x3D0 SWAP1 PUSH2 0x215F JUMP JUMPDEST DUP1 PUSH1 0x1F ADD PUSH1 0x20 DUP1 SWAP2 DIV MUL PUSH1 0x20 ADD PUSH1 0x40 MLOAD SWAP1 DUP2 ADD PUSH1 0x40 MSTORE DUP1 SWAP3 SWAP2 SWAP1 DUP2 DUP2 MSTORE PUSH1 0x20 ADD DUP3 DUP1 SLOAD PUSH2 0x3FC SWAP1 PUSH2 0x215F JUMP JUMPDEST DUP1 ISZERO PUSH2 0x447 JUMPI DUP1 PUSH1 0x1F LT PUSH2 0x41E JUMPI PUSH2 0x100 DUP1 DUP4 SLOAD DIV MUL DUP4 MSTORE SWAP2 PUSH1 0x20 ADD SWAP2 PUSH2 0x447 JUMP JUMPDEST DUP3 ADD SWAP2 SWAP1 PUSH0 MSTORE PUSH1 0x20 PUSH0 KECCAK256 SWAP1 JUMPDEST DUP2 SLOAD DUP2 MSTORE SWAP1 PUSH1 0x1 ADD SWAP1 PUSH1 0x20 ADD DUP1 DUP4 GT PUSH2 0x42A JUMPI DUP3 SWAP1 SUB PUSH1 0x1F AND DUP3 ADD SWAP2 JUMPDEST POP POP POP POP POP DUP2 MSTORE PUSH1 0x20 ADD PUSH1 0x3 DUP3 ADD DUP1 SLOAD PUSH2 0x460 SWAP1 PUSH2 0x215F JUMP JUMPDEST DUP1 PUSH1 0x1F ADD PUSH1 0x20 DUP1 SWAP2 DIV MUL PUSH1 0x20 ADD PUSH1 0x40 MLOAD SWAP1 DUP2 ADD PUSH1 0x40 MSTORE DUP1 SWAP3 SWAP2 SWAP1 DUP2 DUP2 MSTORE PUSH1 0x20 ADD DUP3 DUP1 SLOAD PUSH2 0x48C SWAP1 PUSH2 0x215F JUMP JUMPDEST DUP1 ISZERO PUSH2 0x4D7 JUMPI DUP1 PUSH1 0x1F LT PUSH2 0x4AE JUMPI PUSH2 0x100 DUP1 DUP4 SLOAD DIV MUL DUP4 MSTORE SWAP2 PUSH1 0x20 ADD SWAP2 PUSH2 0x4D7 JUMP JUMPDEST DUP3 ADD SWAP2 SWAP1 PUSH0 MSTORE PUSH1 0x20 PUSH0 KECCAK256 SWAP1 JUMPDEST DUP2 SLOAD DUP2 MSTORE SWAP1 PUSH1 0x1 ADD SWAP1 PUSH1 0x20 ADD DUP1 DUP4 GT PUSH2 0x4BA JUMPI DUP3 SWAP1 SUB PUSH1 0x1F AND DUP3 ADD SWAP2 JUMPDEST POP POP POP POP POP DUP2 MSTORE PUSH1 0x20 ADD PUSH1 0x4 DUP3 ADD SLOAD DUP2 MSTORE PUSH1 0x20 ADD PUSH1 0x5 DUP3 ADD SLOAD DUP2 MSTORE PUSH1 0x20 ADD PUSH1 0x6 DUP3 ADD SLOAD DUP2 MSTORE POP POP DUP3 DUP3 DUP2 MLOAD DUP2 LT PUSH2 0x511 JUMPI PUSH2 0x510 PUSH2 0x2105 JUMP JUMPDEST JUMPDEST PUSH1 0x20 MUL PUSH1 0x20 ADD ADD DUP2 SWAP1 MSTORE POP DUP1 DUP1 PUSH1 0x1 ADD SWAP2 POP POP PUSH2 0x2E8 JUMP JUMPDEST POP DUP1 SWAP3 POP POP POP SWAP2 SWAP1 POP JUMP JUMPDEST PUSH1 0x60 PUSH0 PUSH0 DUP1 SLOAD SWAP1 POP PUSH8 0xFFFFFFFFFFFFFFFF DUP2 GT ISZERO PUSH2 0x555 JUMPI PUSH2 0x554 PUSH2 0x1C43 JUMP JUMPDEST JUMPDEST PUSH1 0x40 MLOAD SWAP1 DUP1 DUP3 MSTORE DUP1 PUSH1 0x20 MUL PUSH1 0x20 ADD DUP3 ADD PUSH1 0x40 MSTORE DUP1 ISZERO PUSH2 0x58E JUMPI DUP2 PUSH1 0x20 ADD JUMPDEST PUSH2 0x57B PUSH2 0x188D JUMP JUMPDEST DUP2 MSTORE PUSH1 0x20 ADD SWAP1 PUSH1 0x1 SWAP1 SUB SWAP1 DUP2 PUSH2 0x573 JUMPI SWAP1 POP JUMPDEST POP SWAP1 POP PUSH0 PUSH0 SWAP1 POP JUMPDEST PUSH0 DUP1 SLOAD SWAP1 POP DUP2 LT ISZERO PUSH2 0x7DB JUMPI PUSH1 0x2 PUSH0 PUSH0 DUP4 DUP2 SLOAD DUP2 LT PUSH2 0x5B8 JUMPI PUSH2 0x5B7 PUSH2 0x2105 JUMP JUMPDEST JUMPDEST SWAP1 PUSH0 MSTORE PUSH1 0x20 PUSH0 KECCAK256 ADD SLOAD DUP2 MSTORE PUSH1 0x20 ADD SWAP1 DUP2 MSTORE PUSH1 0x20 ADD PUSH0 KECCAK256 PUSH1 0x40 MLOAD DUP1 PUSH1 0xE0 ADD PUSH1 0x40 MSTORE SWAP1 DUP2 PUSH0 DUP3 ADD SLOAD DUP2 MSTORE PUSH1 0x20 ADD PUSH1 0x1 DUP3 ADD DUP1 SLOAD PUSH2 0x5F2 SWAP1 PUSH2 0x215F JUMP JUMPDEST DUP1 PUSH1 0x1F ADD PUSH1 0x20 DUP1 SWAP2 DIV MUL PUSH1 0x20 ADD PUSH1 0x40 MLOAD SWAP1 DUP2 ADD PUSH1 0x40 MSTORE DUP1 SWAP3 SWAP2 SWAP1 DUP2 DUP2 MSTORE PUSH1 0x20 ADD DUP3 DUP1 SLOAD PUSH2 0x61E SWAP1 PUSH2 0x215F JUMP JUMPDEST DUP1 ISZERO PUSH2 0x669 JUMPI DUP1 PUSH1 0x1F LT PUSH2 0x640 JUMPI PUSH2 0x100 DUP1 DUP4 SLOAD DIV MUL DUP4 MSTORE SWAP2 PUSH1 0x20 ADD SWAP2 PUSH2 0x669 JUMP JUMPDEST DUP3 ADD SWAP2 SWAP1 PUSH0 MSTORE PUSH1 0x20 PUSH0 KECCAK256 SWAP1 JUMPDEST DUP2 SLOAD DUP2 MSTORE SWAP1 PUSH1 0x1 ADD SWAP1 PUSH1 0x20 ADD DUP1 DUP4 GT PUSH2 0x64C JUMPI DUP3 SWAP1 SUB PUSH1 0x1F AND DUP3 ADD SWAP2 JUMPDEST POP POP POP POP POP DUP2 MSTORE PUSH1 0x20 ADD PUSH1 0x2 DUP3 ADD DUP1 SLOAD PUSH2 0x682 SWAP1 PUSH2 0x215F JUMP JUMPDEST DUP1 PUSH1 0x1F ADD PUSH1 0x20 DUP1 SWAP2 DIV MUL PUSH1 0x20 ADD PUSH1 0x40 MLOAD SWAP1 DUP2 ADD PUSH1 0x40 MSTORE DUP1 SWAP3 SWAP2 SWAP1 DUP2 DUP2 MSTORE PUSH1 0x20 ADD DUP3 DUP1 SLOAD PUSH2 0x6AE SWAP1 PUSH2 0x215F JUMP JUMPDEST DUP1 ISZERO PUSH2 0x6F9 JUMPI DUP1 PUSH1 0x1F LT PUSH2 0x6D0 JUMPI PUSH2 0x100 DUP1 DUP4 SLOAD DIV MUL DUP4 MSTORE SWAP2 PUSH1 0x20 ADD SWAP2 PUSH2 0x6F9 JUMP JUMPDEST DUP3 ADD SWAP2 SWAP1 PUSH0 MSTORE PUSH1 0x20 PUSH0 KECCAK256 SWAP1 JUMPDEST DUP2 SLOAD DUP2 MSTORE SWAP1 PUSH1 0x1 ADD SWAP1 PUSH1 0x20 ADD DUP1 DUP4 GT PUSH2 0x6DC JUMPI DUP3 SWAP1 SUB PUSH1 0x1F AND DUP3 ADD SWAP2 JUMPDEST POP POP POP POP POP DUP2 MSTORE PUSH1 0x20 ADD PUSH1 0x3 DUP3 ADD DUP1 SLOAD PUSH2 0x712 SWAP1 PUSH2 0x215F JUMP JUMPDEST DUP1 PUSH1 0x1F ADD PUSH1 0x20 DUP1 SWAP2 DIV MUL PUSH1 0x20 ADD PUSH1 0x40 MLOAD SWAP1 DUP2 ADD PUSH1 0x40 MSTORE DUP1 SWAP3 SWAP2 SWAP1 DUP2 DUP2 MSTORE PUSH1 0x20 ADD DUP3 DUP1 SLOAD PUSH2 0x73E SWAP1 PUSH2 0x215F JUMP JUMPDEST DUP1 ISZERO PUSH2 0x789 JUMPI DUP1 PUSH1 0x1F LT PUSH2 0x760 JUMPI PUSH2 0x100 DUP1 DUP4 SLOAD DIV MUL DUP4 MSTORE SWAP2 PUSH1 0x20 ADD SWAP2 PUSH2 0x789 JUMP JUMPDEST DUP3 ADD SWAP2 SWAP1 PUSH0 MSTORE PUSH1 0x20 PUSH0 KECCAK256 SWAP1 JUMPDEST DUP2 SLOAD DUP2 MSTORE SWAP1 PUSH1 0x1 ADD SWAP1 PUSH1 0x20 ADD DUP1 DUP4 GT PUSH2 0x76C JUMPI DUP3 SWAP1 SUB PUSH1 0x1F AND DUP3 ADD SWAP2 JUMPDEST POP POP POP POP POP DUP2 MSTORE PUSH1 0x20 ADD PUSH1 0x4 DUP3 ADD SLOAD DUP2 MSTORE PUSH1 0x20 ADD PUSH1 0x5 DUP3 ADD SLOAD DUP2 MSTORE PUSH1 0x20 ADD PUSH1 0x6 DUP3 ADD SLOAD DUP2 MSTORE POP POP DUP3 DUP3 DUP2 MLOAD DUP2 LT PUSH2 0x7C3 JUMPI PUSH2 0x7C2 PUSH2 0x2105 JUMP JUMPDEST JUMPDEST PUSH1 0x20 MUL PUSH1 0x20 ADD ADD DUP2 SWAP1 MSTORE POP DUP1 DUP1 PUSH1 0x1 ADD SWAP2 POP POP PUSH2 0x596 JUMP JUMPDEST POP DUP1 SWAP2 POP POP SWAP1 JUMP JUMPDEST PUSH0 PUSH0 SHL PUSH1 0x2 PUSH0 DUP4 DUP2 MSTORE PUSH1 0x20 ADD SWAP1 DUP2 MSTORE PUSH1 0x20 ADD PUSH0 KECCAK256 PUSH0 ADD SLOAD SUB PUSH2 0x83A JUMPI PUSH1 0x40 MLOAD PUSH32 0x8C379A000000000000000000000000000000000000000000000000000000000 DUP2 MSTORE PUSH1 0x4 ADD PUSH2 0x831 SWAP1 PUSH2 0x21D9 JUMP JUMPDEST PUSH1 0x40 MLOAD DUP1 SWAP2 SUB SWAP1 REVERT JUMPDEST PUSH1 0x4 PUSH0 DUP3 DUP2 MSTORE PUSH1 0x20 ADD SWAP1 DUP2 MSTORE PUSH1 0x20 ADD PUSH0 KECCAK256 PUSH0 CALLER PUSH20 0xFFFFFFFFFFFFFFFFFFFFFFFFFFFFFFFFFFFFFFFF AND PUSH20 0xFFFFFFFFFFFFFFFFFFFFFFFFFFFFFFFFFFFFFFFF AND DUP2 MSTORE PUSH1 0x20 ADD SWAP1 DUP2 MSTORE PUSH1 0x20 ADD PUSH0 KECCAK256 PUSH0 SWAP1 SLOAD SWAP1 PUSH2 0x100 EXP SWAP1 DIV PUSH1 0xFF AND ISZERO PUSH2 0x8D3 JUMPI PUSH1 0x40 MLOAD PUSH32 0x8C379A000000000000000000000000000000000000000000000000000000000 DUP2 MSTORE PUSH1 0x4 ADD PUSH2 0x8CA SWAP1 PUSH2 0x2241 JUMP JUMPDEST PUSH1 0x40 MLOAD DUP1 SWAP2 SUB SWAP1 REVERT JUMPDEST PUSH1 0x2 PUSH0 DUP3 DUP2 MSTORE PUSH1 0x20 ADD SWAP1 DUP2 MSTORE PUSH1 0x20 ADD PUSH0 KECCAK256 PUSH1 0x5 ADD PUSH0 DUP2 SLOAD DUP1 SWAP3 SWAP2 SWAP1 PUSH2 0x8F7 SWAP1 PUSH2 0x228C JUMP JUMPDEST SWAP2 SWAP1 POP SSTORE POP PUSH1 0x1 PUSH1 0x4 PUSH0 DUP4 DUP2 MSTORE PUSH1 0x20 ADD SWAP1 DUP2 MSTORE PUSH1 0x20 ADD PUSH0 KECCAK256 PUSH0 CALLER PUSH20 0xFFFFFFFFFFFFFFFFFFFFFFFFFFFFFFFFFFFFFFFF AND PUSH20 0xFFFFFFFFFFFFFFFFFFFFFFFFFFFFFFFFFFFFFFFF AND DUP2 MSTORE PUSH1 0x20 ADD SWAP1 DUP2 MSTORE PUSH1 0x20 ADD PUSH0 KECCAK256 PUSH0 PUSH2 0x100 EXP DUP2 SLOAD DUP2 PUSH1 0xFF MUL NOT AND SWAP1 DUP4 ISZERO ISZERO MUL OR SWAP1 SSTORE POP CALLER PUSH20 0xFFFFFFFFFFFFFFFFFFFFFFFFFFFFFFFFFFFFFFFF AND DUP2 PUSH32 0xA7E4C5082F867EA22A45A95C2043209B9CE83D70CA31CCB947E67592EA14C4B1 PUSH0 PUSH1 0x40 MLOAD PUSH2 0x9A7 SWAP2 SWAP1 PUSH2 0x22ED JUMP JUMPDEST PUSH1 0x40 MLOAD DUP1 SWAP2 SUB SWAP1 LOG3 POP JUMP JUMPDEST PUSH1 0x3 PUSH0 DUP4 DUP2 MSTORE PUSH1 0x20 ADD SWAP1 DUP2 MSTORE PUSH1 0x20 ADD PUSH0 KECCAK256 DUP1 SLOAD SWAP1 POP DUP2 LT PUSH2 0xA08 JUMPI PUSH1 0x40 MLOAD PUSH32 0x8C379A000000000000000000000000000000000000000000000000000000000 DUP2 MSTORE PUSH1 0x4 ADD PUSH2 0x9FF SWAP1 PUSH2 0x2350 JUMP JUMPDEST PUSH1 0x40 MLOAD DUP1 SWAP2 SUB SWAP1 REVERT JUMPDEST PUSH1 0x5 PUSH0 DUP4 DUP2 MSTORE PUSH1 0x20 ADD SWAP1 DUP2 MSTORE PUSH1 0x20 ADD PUSH0 KECCAK256 PUSH0 CALLER PUSH20 0xFFFFFFFFFFFFFFFFFFFFFFFFFFFFFFFFFFFFFFFF AND PUSH20 0xFFFFFFFFFFFFFFFFFFFFFFFFFFFFFFFFFFFFFFFF AND DUP2 MSTORE PUSH1 0x20 ADD SWAP1 DUP2 MSTORE PUSH1 0x20 ADD PUSH0 KECCAK256 PUSH0 DUP3 DUP2 MSTORE PUSH1 0x20 ADD SWAP1 DUP2 MSTORE PUSH1 0x20 ADD PUSH0 KECCAK256 PUSH0 SWAP1 SLOAD SWAP1 PUSH2 0x100 EXP SWAP1 DIV PUSH1 0xFF AND ISZERO PUSH2 0xAB0 JUMPI PUSH1 0x40 MLOAD PUSH32 0x8C379A000000000000000000000000000000000000000000000000000000000 DUP2 MSTORE PUSH1 0x4 ADD PUSH2 0xAA7 SWAP1 PUSH2 0x23B8 JUMP JUMPDEST PUSH1 0x40 MLOAD DUP1 SWAP2 SUB SWAP1 REVERT JUMPDEST PUSH1 0x3 PUSH0 DUP4 DUP2 MSTORE PUSH1 0x20 ADD SWAP1 DUP2 MSTORE PUSH1 0x20 ADD PUSH0 KECCAK256 DUP2 DUP2 SLOAD DUP2 LT PUSH2 0xAD3 JUMPI PUSH2 0xAD2 PUSH2 0x2105 JUMP JUMPDEST JUMPDEST SWAP1 PUSH0 MSTORE PUSH1 0x20 PUSH0 KECCAK256 SWAP1 PUSH1 0x7 MUL ADD PUSH1 0x4 ADD PUSH0 DUP2 SLOAD DUP1 SWAP3 SWAP2 SWAP1 PUSH2 0xAF2 SWAP1 PUSH2 0x228C JUMP JUMPDEST SWAP2 SWAP1 POP SSTORE POP PUSH1 0x1 PUSH1 0x5 PUSH0 DUP5 DUP2 MSTORE PUSH1 0x20 ADD SWAP1 DUP2 MSTORE PUSH1 0x20 ADD PUSH0 KECCAK256 PUSH0 CALLER PUSH20 0xFFFFFFFFFFFFFFFFFFFFFFFFFFFFFFFFFFFFFFFF AND PUSH20 0xFFFFFFFFFFFFFFFFFFFFFFFFFFFFFFFFFFFFFFFF AND DUP2 MSTORE PUSH1 0x20 ADD SWAP1 DUP2 MSTORE PUSH1 0x20 ADD PUSH0 KECCAK256 PUSH0 DUP4 DUP2 MSTORE PUSH1 0x20 ADD SWAP1 DUP2 MSTORE PUSH1 0x20 ADD PUSH0 KECCAK256 PUSH0 PUSH2 0x100 EXP DUP2 SLOAD DUP2 PUSH1 0xFF MUL NOT AND SWAP1 DUP4 ISZERO ISZERO MUL OR SWAP1 SSTORE POP PUSH1 0x3 PUSH0 DUP4 DUP2 MSTORE PUSH1 0x20 ADD SWAP1 DUP2 MSTORE PUSH1 0x20 ADD PUSH0 KECCAK256 DUP2 DUP2 SLOAD DUP2 LT PUSH2 0xB8D JUMPI PUSH2 0xB8C PUSH2 0x2105 JUMP JUMPDEST JUMPDEST SWAP1 PUSH0 MSTORE PUSH1 0x20 PUSH0 KECCAK256 SWAP1 PUSH1 0x7 MUL ADD PUSH0 ADD SLOAD DUP3 PUSH32 0xA718B91703005C7FF3C85EF47CB2B96B8BF518A0934598A085E074A84AD79BA1 CALLER PUSH1 0x1 PUSH1 0x40 MLOAD PUSH2 0xBCF SWAP3 SWAP2 SWAP1 PUSH2 0x23E5 JUMP JUMPDEST PUSH1 0x40 MLOAD DUP1 SWAP2 SUB SWAP1 LOG3 POP POP JUMP JUMPDEST PUSH0 PUSH0 SHL PUSH1 0x2 PUSH0 DUP6 DUP2 MSTORE PUSH1 0x20 ADD SWAP1 DUP2 MSTORE PUSH1 0x20 ADD PUSH0 KECCAK256 PUSH0 ADD SLOAD SUB PUSH2 0xC32 JUMPI PUSH1 0x40 MLOAD PUSH32 0x8C379A000000000000000000000000000000000000000000000000000000000 DUP2 MSTORE PUSH1 0x4 ADD PUSH2 0xC29 SWAP1 PUSH2 0x21D9 JUMP JUMPDEST PUSH1 0x40 MLOAD DUP1 SWAP2 SUB SWAP1 REVERT JUMPDEST PUSH1 0x20 DUP3 MLOAD GT ISZERO PUSH2 0xC77 JUMPI PUSH1 0x40 MLOAD PUSH32 0x8C379A000000000000000000000000000000000000000000000000000000000 DUP2 MSTORE PUSH1 0x4 ADD PUSH2 0xC6E SWAP1 PUSH2 0x2456 JUMP JUMPDEST PUSH1 0x40 MLOAD DUP1 SWAP2 SUB SWAP1 REVERT JUMPDEST PUSH0 CALLER TIMESTAMP DUP4 PUSH1 0x40 MLOAD PUSH1 0x20 ADD PUSH2 0xC8D SWAP4 SWAP3 SWAP2 SWAP1 PUSH2 0x2513 JUMP JUMPDEST PUSH1 0x40 MLOAD PUSH1 0x20 DUP2 DUP4 SUB SUB DUP2 MSTORE SWAP1 PUSH1 0x40 MSTORE DUP1 MLOAD SWAP1 PUSH1 0x20 ADD KECCAK256 SWAP1 POP PUSH0 PUSH1 0x40 MLOAD DUP1 PUSH1 0xE0 ADD PUSH1 0x40 MSTORE DUP1 DUP4 DUP2 MSTORE PUSH1 0x20 ADD CALLER PUSH20 0xFFFFFFFFFFFFFFFFFFFFFFFFFFFFFFFFFFFFFFFF AND DUP2 MSTORE PUSH1 0x20 ADD DUP6 DUP2 MSTORE PUSH1 0x20 ADD DUP5 DUP2 MSTORE PUSH1 0x20 ADD PUSH0 DUP2 MSTORE PUSH1 0x20 ADD PUSH0 DUP2 MSTORE PUSH1 0x20 ADD TIMESTAMP DUP2 MSTORE POP SWAP1 POP PUSH1 0x3 PUSH0 DUP7 DUP2 MSTORE PUSH1 0x20 ADD SWAP1 DUP2 MSTORE PUSH1 0x20 ADD PUSH0 KECCAK256 DUP2 SWAP1 DUP1 PUSH1 0x1 DUP2 SLOAD ADD DUP1 DUP3 SSTORE DUP1 SWAP2 POP POP PUSH1 0x1 SWAP1 SUB SWAP1 PUSH0 MSTORE PUSH1 0x20 PUSH0 KECCAK256 SWAP1 PUSH1 0x7 MUL ADD PUSH0 SWAP1 SWAP2 SWAP1 SWAP2 SWAP1 SWAP2 POP PUSH0 DUP3 ADD MLOAD DUP2 PUSH0 ADD SSTORE PUSH1 0x20 DUP3 ADD MLOAD DUP2 PUSH1 0x1 ADD PUSH0 PUSH2 0x100 EXP DUP2 SLOAD DUP2 PUSH20 0xFFFFFFFFFFFFFFFFFFFFFFFFFFFFFFFFFFFFFFFF MUL NOT AND SWAP1 DUP4 PUSH20 0xFFFFFFFFFFFFFFFFFFFFFFFFFFFFFFFFFFFFFFFF AND MUL OR SWAP1 SSTORE POP PUSH1 0x40 DUP3 ADD MLOAD DUP2 PUSH1 0x2 ADD SWAP1 DUP2 PUSH2 0xD8C SWAP2 SWAP1 PUSH2 0x26EB JUMP JUMPDEST POP PUSH1 0x60 DUP3 ADD MLOAD DUP2 PUSH1 0x3 ADD SWAP1 DUP2 PUSH2 0xDA2 SWAP2 SWAP1 PUSH2 0x26EB JUMP JUMPDEST POP PUSH1 0x80 DUP3 ADD MLOAD DUP2 PUSH1 0x4 ADD SSTORE PUSH1 0xA0 DUP3 ADD MLOAD DUP2 PUSH1 0x5 ADD SSTORE PUSH1 0xC0 DUP3 ADD MLOAD DUP2 PUSH1 0x6 ADD SSTORE POP POP DUP2 DUP6 PUSH32 0x121F72518586F939BFB34C62BBF7D31B0A8AE8ECBCAC0869550705EE4CFF80F5 CALLER DUP8 DUP8 TIMESTAMP PUSH1 0x40 MLOAD PUSH2 0xDFA SWAP5 SWAP4 SWAP3 SWAP2 SWAP1 PUSH2 0x27BA JUMP JUMPDEST PUSH1 0x40 MLOAD DUP1 SWAP2 SUB SWAP1 LOG3 POP POP POP POP POP JUMP JUMPDEST PUSH0 PUSH1 0x60 DUP1 PUSH1 0x60 PUSH0 PUSH0 PUSH0 PUSH0 PUSH0 SHL PUSH1 0x2 PUSH0 DUP11 DUP2 MSTORE PUSH1 0x20 ADD SWAP1 DUP2 MSTORE PUSH1 0x20 ADD PUSH0 KECCAK256 PUSH0 ADD SLOAD SUB PUSH2 0xE69 JUMPI PUSH1 0x40 MLOAD PUSH32 0x8C379A000000000000000000000000000000000000000000000000000000000 DUP2 MSTORE PUSH1 0x4 ADD PUSH2 0xE60 SWAP1 PUSH2 0x21D9 JUMP JUMPDEST PUSH1 0x40 MLOAD DUP1 SWAP2 SUB SWAP1 REVERT JUMPDEST PUSH0 PUSH1 0x2 PUSH0 DUP11 DUP2 MSTORE PUSH1 0x20 ADD SWAP1 DUP2 MSTORE PUSH1 0x20 ADD PUSH0 KECCAK256 PUSH1 0x40 MLOAD DUP1 PUSH1 0xE0 ADD PUSH1 0x40 MSTORE SWAP1 DUP2 PUSH0 DUP3 ADD SLOAD DUP2 MSTORE PUSH1 0x20 ADD PUSH1 0x1 DUP3 ADD DUP1 SLOAD PUSH2 0xE9F SWAP1 PUSH2 0x215F JUMP JUMPDEST DUP1 PUSH1 0x1F ADD PUSH1 0x20 DUP1 SWAP2 DIV MUL PUSH1 0x20 ADD PUSH1 0x40 MLOAD SWAP1 DUP2 ADD PUSH1 0x40 MSTORE DUP1 SWAP3 SWAP2 SWAP1 DUP2 DUP2 MSTORE PUSH1 0x20 ADD DUP3 DUP1 SLOAD PUSH2 0xECB SWAP1 PUSH2 0x215F JUMP JUMPDEST DUP1 ISZERO PUSH2 0xF16 JUMPI DUP1 PUSH1 0x1F LT PUSH2 0xEED JUMPI PUSH2 0x100 DUP1 DUP4 SLOAD DIV MUL DUP4 MSTORE SWAP2 PUSH1 0x20 ADD SWAP2 PUSH2 0xF16 JUMP JUMPDEST DUP3 ADD SWAP2 SWAP1 PUSH0 MSTORE PUSH1 0x20 PUSH0 KECCAK256 SWAP1 JUMPDEST DUP2 SLOAD DUP2 MSTORE SWAP1 PUSH1 0x1 ADD SWAP1 PUSH1 0x20 ADD DUP1 DUP4 GT PUSH2 0xEF9 JUMPI DUP3 SWAP1 SUB PUSH1 0x1F AND DUP3 ADD SWAP2 JUMPDEST POP POP POP POP POP DUP2 MSTORE PUSH1 0x20 ADD PUSH1 0x2 DUP3 ADD DUP1 SLOAD PUSH2 0xF2F SWAP1 PUSH2 0x215F JUMP JUMPDEST DUP1 PUSH1 0x1F ADD PUSH1 0x20 DUP1 SWAP2 DIV MUL PUSH1 0x20 ADD PUSH1 0x40 MLOAD SWAP1 DUP2 ADD PUSH1 0x40 MSTORE DUP1 SWAP3 SWAP2 SWAP1 DUP2 DUP2 MSTORE PUSH1 0x20 ADD DUP3 DUP1 SLOAD PUSH2 0xF5B SWAP1 PUSH2 0x215F JUMP JUMPDEST DUP1 ISZERO PUSH2 0xFA6 JUMPI DUP1 PUSH1 0x1F LT PUSH2 0xF7D JUMPI PUSH2 0x100 DUP1 DUP4 SLOAD DIV MUL DUP4 MSTORE SWAP2 PUSH1 0x20 ADD SWAP2 PUSH2 0xFA6 JUMP JUMPDEST DUP3 ADD SWAP2 SWAP1 PUSH0 MSTORE PUSH1 0x20 PUSH0 KECCAK256 SWAP1 JUMPDEST DUP2 SLOAD DUP2 MSTORE SWAP1 PUSH1 0x1 ADD SWAP1 PUSH1 0x20 ADD DUP1 DUP4 GT PUSH2 0xF89 JUMPI DUP3 SWAP1 SUB PUSH1 0x1F AND DUP3 ADD SWAP2 JUMPDEST POP POP POP POP POP DUP2 MSTORE PUSH1 0x20 ADD PUSH1 0x3 DUP3 ADD DUP1 SLOAD PUSH2 0xFBF SWAP1 PUSH2 0x215F JUMP JUMPDEST DUP1 PUSH1 0x1F ADD PUSH1 0x20 DUP1 SWAP2 DIV MUL PUSH1 0x20 ADD PUSH1 0x40 MLOAD SWAP1 DUP2 ADD PUSH1 0x40 MSTORE DUP1 SWAP3 SWAP2 SWAP1 DUP2 DUP2 MSTORE PUSH1 0x20 ADD DUP3 DUP1 SLOAD PUSH2 0xFEB SWAP1 PUSH2 0x215F JUMP JUMPDEST DUP1 ISZERO PUSH2 0x1036 JUMPI DUP1 PUSH1 0x1F LT PUSH2 0x100D JUMPI PUSH2 0x100 DUP1 DUP4 SLOAD DIV MUL DUP4 MSTORE SWAP2 PUSH1 0x20 ADD SWAP2 PUSH2 0x1036 JUMP JUMPDEST DUP3 ADD SWAP2 SWAP1 PUSH0 MSTORE PUSH1 0x20 PUSH0 KECCAK256 SWAP1 JUMPDEST DUP2 SLOAD DUP2 MSTORE SWAP1 PUSH1 0x1 ADD SWAP1 PUSH1 0x20 ADD DUP1 DUP4 GT PUSH2 0x1019 JUMPI DUP3 SWAP1 SUB PUSH1 0x1F AND DUP3 ADD SWAP2 JUMPDEST POP POP POP POP POP DUP2 MSTORE PUSH1 0x20 ADD PUSH1 0x4 DUP3 ADD SLOAD DUP2 MSTORE PUSH1 0x20 ADD PUSH1 0x5 DUP3 ADD SLOAD DUP2 MSTORE PUSH1 0x20 ADD PUSH1 0x6 DUP3 ADD SLOAD DUP2 MSTORE POP POP SWAP1 POP DUP1 PUSH0 ADD MLOAD DUP2 PUSH1 0x20 ADD MLOAD DUP3 PUSH1 0x40 ADD MLOAD DUP4 PUSH1 0x60 ADD MLOAD DUP5 PUSH1 0x80 ADD MLOAD DUP6 PUSH1 0xA0 ADD MLOAD DUP7 PUSH1 0xC0 ADD MLOAD SWAP8 POP SWAP8 POP SWAP8 POP SWAP8 POP SWAP8 POP SWAP8 POP SWAP8 POP POP SWAP2 SWAP4 SWAP6 SWAP8 SWAP1 SWAP3 SWAP5 SWAP7 POP JUMP JUMPDEST PUSH1 0x3 PUSH0 DUP4 DUP2 MSTORE PUSH1 0x20 ADD SWAP1 DUP2 MSTORE PUSH1 0x20 ADD PUSH0 KECCAK256 DUP1 SLOAD SWAP1 POP DUP2 LT PUSH2 0x10F1 JUMPI PUSH1 0x40 MLOAD PUSH32 0x8C379A000000000000000000000000000000000000000000000000000000000 DUP2 MSTORE PUSH1 0x4 ADD PUSH2 0x10E8 SWAP1 PUSH2 0x2350 JUMP JUMPDEST PUSH1 0x40 MLOAD DUP1 SWAP2 SUB SWAP1 REVERT JUMPDEST PUSH1 0x5 PUSH0 DUP4 DUP2 MSTORE PUSH1 0x20 ADD SWAP1 DUP2 MSTORE PUSH1 0x20 ADD PUSH0 KECCAK256 PUSH0 CALLER PUSH20 0xFFFFFFFFFFFFFFFFFFFFFFFFFFFFFFFFFFFFFFFF AND PUSH20 0xFFFFFFFFFFFFFFFFFFFFFFFFFFFFFFFFFFFFFFFF AND DUP2 MSTORE PUSH1 0x20 ADD SWAP1 DUP2 MSTORE PUSH1 0x20 ADD PUSH0 KECCAK256 PUSH0 DUP3 DUP2 MSTORE PUSH1 0x20 ADD SWAP1 DUP2 MSTORE PUSH1 0x20 ADD PUSH0 KECCAK256 PUSH0 SWAP1 SLOAD SWAP1 PUSH2 0x100 EXP SWAP1 DIV PUSH1 0xFF AND ISZERO PUSH2 0x1199 JUMPI PUSH1 0x40 MLOAD PUSH32 0x8C379A000000000000000000000000000000000000000000000000000000000 DUP2 MSTORE PUSH1 0x4 ADD PUSH2 0x1190 SWAP1 PUSH2 0x23B8 JUMP JUMPDEST PUSH1 0x40 MLOAD DUP1 SWAP2 SUB SWAP1 REVERT JUMPDEST PUSH1 0x3 PUSH0 DUP4 DUP2 MSTORE PUSH1 0x20 ADD SWAP1 DUP2 MSTORE PUSH1 0x20 ADD PUSH0 KECCAK256 DUP2 DUP2 SLOAD DUP2 LT PUSH2 0x11BC JUMPI PUSH2 0x11BB PUSH2 0x2105 JUMP JUMPDEST JUMPDEST SWAP1 PUSH0 MSTORE PUSH1 0x20 PUSH0 KECCAK256 SWAP1 PUSH1 0x7 MUL ADD PUSH1 0x5 ADD PUSH0 DUP2 SLOAD DUP1 SWAP3 SWAP2 SWAP1 PUSH2 0x11DB SWAP1 PUSH2 0x228C JUMP JUMPDEST SWAP2 SWAP1 POP SSTORE POP PUSH1 0x1 PUSH1 0x5 PUSH0 DUP5 DUP2 MSTORE PUSH1 0x20 ADD SWAP1 DUP2 MSTORE PUSH1 0x20 ADD PUSH0 KECCAK256 PUSH0 CALLER PUSH20 0xFFFFFFFFFFFFFFFFFFFFFFFFFFFFFFFFFFFFFFFF AND PUSH20 0xFFFFFFFFFFFFFFFFFFFFFFFFFFFFFFFFFFFFFFFF AND DUP2 MSTORE PUSH1 0x20 ADD SWAP1 DUP2 MSTORE PUSH1 0x20 ADD PUSH0 KECCAK256 PUSH0 DUP4 DUP2 MSTORE PUSH1 0x20 ADD SWAP1 DUP2 MSTORE PUSH1 0x20 ADD PUSH0 KECCAK256 PUSH0 PUSH2 0x100 EXP DUP2 SLOAD DUP2 PUSH1 0xFF MUL NOT AND SWAP1 DUP4 ISZERO ISZERO MUL OR SWAP1 SSTORE POP PUSH1 0x3 PUSH0 DUP4 DUP2 MSTORE PUSH1 0x20 ADD SWAP1 DUP2 MSTORE PUSH1 0x20 ADD PUSH0 KECCAK256 DUP2 DUP2 SLOAD DUP2 LT PUSH2 0x1276 JUMPI PUSH2 0x1275 PUSH2 0x2105 JUMP JUMPDEST JUMPDEST SWAP1 PUSH0 MSTORE PUSH1 0x20 PUSH0 KECCAK256 SWAP1 PUSH1 0x7 MUL ADD PUSH0 ADD SLOAD DUP3 PUSH32 0xA718B91703005C7FF3C85EF47CB2B96B8BF518A0934598A085E074A84AD79BA1 CALLER PUSH0 PUSH1 0x40 MLOAD PUSH2 0x12B7 SWAP3 SWAP2 SWAP1 PUSH2 0x23E5 JUMP JUMPDEST PUSH1 0x40 MLOAD DUP1 SWAP2 SUB SWAP1 LOG3 POP POP JUMP JUMPDEST PUSH0 PUSH0 SHL PUSH1 0x2 PUSH0 DUP4 DUP2 MSTORE PUSH1 0x20 ADD SWAP1 DUP2 MSTORE PUSH1 0x20 ADD PUSH0 KECCAK256 PUSH0 ADD SLOAD SUB PUSH2 0x131A JUMPI PUSH1 0x40 MLOAD PUSH32 0x8C379A000000000000000000000000000000000000000000000000000000000 DUP2 MSTORE PUSH1 0x4 ADD PUSH2 0x1311 SWAP1 PUSH2 0x21D9 JUMP JUMPDEST PUSH1 0x40 MLOAD DUP1 SWAP2 SUB SWAP1 REVERT JUMPDEST PUSH1 0x4 PUSH0 DUP3 DUP2 MSTORE PUSH1 0x20 ADD SWAP1 DUP2 MSTORE PUSH1 0x20 ADD PUSH0 KECCAK256 PUSH0 CALLER PUSH20 0xFFFFFFFFFFFFFFFFFFFFFFFFFFFFFFFFFFFFFFFF AND PUSH20 0xFFFFFFFFFFFFFFFFFFFFFFFFFFFFFFFFFFFFFFFF AND DUP2 MSTORE PUSH1 0x20 ADD SWAP1 DUP2 MSTORE PUSH1 0x20 ADD PUSH0 KECCAK256 PUSH0 SWAP1 SLOAD SWAP1 PUSH2 0x100 EXP SWAP1 DIV PUSH1 0xFF AND ISZERO PUSH2 0x13B3 JUMPI PUSH1 0x40 MLOAD PUSH32 0x8C379A000000000000000000000000000000000000000000000000000000000 DUP2 MSTORE PUSH1 0x4 ADD PUSH2 0x13AA SWAP1 PUSH2 0x2241 JUMP JUMPDEST PUSH1 0x40 MLOAD DUP1 SWAP2 SUB SWAP1 REVERT JUMPDEST PUSH1 0x2 PUSH0 DUP3 DUP2 MSTORE PUSH1 0x20 ADD SWAP1 DUP2 MSTORE PUSH1 0x20 ADD PUSH0 KECCAK256 PUSH1 0x4 ADD PUSH0 DUP2 SLOAD DUP1 SWAP3 SWAP2 SWAP1 PUSH2 0x13D7 SWAP1 PUSH2 0x228C JUMP JUMPDEST SWAP2 SWAP1 POP SSTORE POP PUSH1 0x1 PUSH1 0x4 PUSH0 DUP4 DUP2 MSTORE PUSH1 0x20 ADD SWAP1 DUP2 MSTORE PUSH1 0x20 ADD PUSH0 KECCAK256 PUSH0 CALLER PUSH20 0xFFFFFFFFFFFFFFFFFFFFFFFFFFFFFFFFFFFFFFFF AND PUSH20 0xFFFFFFFFFFFFFFFFFFFFFFFFFFFFFFFFFFFFFFFF AND DUP2 MSTORE PUSH1 0x20 ADD SWAP1 DUP2 MSTORE PUSH1 0x20 ADD PUSH0 KECCAK256 PUSH0 PUSH2 0x100 EXP DUP2 SLOAD DUP2 PUSH1 0xFF MUL NOT AND SWAP1 DUP4 ISZERO ISZERO MUL OR SWAP1 SSTORE POP CALLER PUSH20 0xFFFFFFFFFFFFFFFFFFFFFFFFFFFFFFFFFFFFFFFF AND DUP2 PUSH32 0xA7E4C5082F867EA22A45A95C2043209B9CE83D70CA31CCB947E67592EA14C4B1 PUSH1 0x1 PUSH1 0x40 MLOAD PUSH2 0x1488 SWAP2 SWAP1 PUSH2 0x22ED JUMP JUMPDEST PUSH1 0x40 MLOAD DUP1 SWAP2 SUB SWAP1 LOG3 POP JUMP JUMPDEST PUSH1 0x20 DUP4 MLOAD GT ISZERO PUSH2 0x14D8 JUMPI PUSH1 0x40 MLOAD PUSH32 0x8C379A000000000000000000000000000000000000000000000000000000000 DUP2 MSTORE PUSH1 0x4 ADD PUSH2 0x14CF SWAP1 PUSH2 0x2855 JUMP JUMPDEST PUSH1 0x40 MLOAD DUP1 SWAP2 SUB SWAP1 REVERT JUMPDEST PUSH0 CALLER TIMESTAMP DUP5 DUP5 PUSH1 0x40 MLOAD PUSH1 0x20 ADD PUSH2 0x14F0 SWAP5 SWAP4 SWAP3 SWAP2 SWAP1 PUSH2 0x2873 JUMP JUMPDEST PUSH1 0x40 MLOAD PUSH1 0x20 DUP2 DUP4 SUB SUB DUP2 MSTORE SWAP1 PUSH1 0x40 MSTORE DUP1 MLOAD SWAP1 PUSH1 0x20 ADD KECCAK256 SWAP1 POP PUSH0 PUSH1 0x40 MLOAD DUP1 PUSH1 0xE0 ADD PUSH1 0x40 MSTORE DUP1 DUP4 DUP2 MSTORE PUSH1 0x20 ADD DUP7 DUP2 MSTORE PUSH1 0x20 ADD DUP6 DUP2 MSTORE PUSH1 0x20 ADD DUP5 DUP2 MSTORE PUSH1 0x20 ADD PUSH0 DUP2 MSTORE PUSH1 0x20 ADD PUSH0 DUP2 MSTORE PUSH1 0x20 ADD TIMESTAMP DUP2 MSTORE POP SWAP1 POP PUSH0 DUP3 SWAP1 DUP1 PUSH1 0x1 DUP2 SLOAD ADD DUP1 DUP3 SSTORE DUP1 SWAP2 POP POP PUSH1 0x1 SWAP1 SUB SWAP1 PUSH0 MSTORE PUSH1 0x20 PUSH0 KECCAK256 ADD PUSH0 SWAP1 SWAP2 SWAP1 SWAP2 SWAP1 SWAP2 POP SSTORE PUSH1 0x1 PUSH0 CALLER PUSH20 0xFFFFFFFFFFFFFFFFFFFFFFFFFFFFFFFFFFFFFFFF AND PUSH20 0xFFFFFFFFFFFFFFFFFFFFFFFFFFFFFFFFFFFFFFFF AND DUP2 MSTORE PUSH1 0x20 ADD SWAP1 DUP2 MSTORE PUSH1 0x20 ADD PUSH0 KECCAK256 DUP3 SWAP1 DUP1 PUSH1 0x1 DUP2 SLOAD ADD DUP1 DUP3 SSTORE DUP1 SWAP2 POP POP PUSH1 0x1 SWAP1 SUB SWAP1 PUSH0 MSTORE PUSH1 0x20 PUSH0 KECCAK256 ADD PUSH0 SWAP1 SWAP2 SWAP1 SWAP2 SWAP1 SWAP2 POP SSTORE DUP1 PUSH1 0x2 PUSH0 DUP5 DUP2 MSTORE PUSH1 0x20 ADD SWAP1 DUP2 MSTORE PUSH1 0x20 ADD PUSH0 KECCAK256 PUSH0 DUP3 ADD MLOAD DUP2 PUSH0 ADD SSTORE PUSH1 0x20 DUP3 ADD MLOAD DUP2 PUSH1 0x1 ADD SWAP1 DUP2 PUSH2 0x15F3 SWAP2 SWAP1 PUSH2 0x26EB JUMP JUMPDEST POP PUSH1 0x40 DUP3 ADD MLOAD DUP2 PUSH1 0x2 ADD SWAP1 DUP2 PUSH2 0x1609 SWAP2 SWAP1 PUSH2 0x26EB JUMP JUMPDEST POP PUSH1 0x60 DUP3 ADD MLOAD DUP2 PUSH1 0x3 ADD SWAP1 DUP2 PUSH2 0x161F SWAP2 SWAP1 PUSH2 0x26EB JUMP JUMPDEST POP PUSH1 0x80 DUP3 ADD MLOAD DUP2 PUSH1 0x4 ADD SSTORE PUSH1 0xA0 DUP3 ADD MLOAD DUP2 PUSH1 0x5 ADD SSTORE PUSH1 0xC0 DUP3 ADD MLOAD DUP2 PUSH1 0x6 ADD SSTORE SWAP1 POP POP DUP2 PUSH32 0x17F34748F078A06D3C7C034EF1CDF60A8B2BAF4592DF676D3A2AE61596619F98 DUP6 DUP8 TIMESTAMP PUSH1 0x40 MLOAD PUSH2 0x1675 SWAP4 SWAP3 SWAP2 SWAP1 PUSH2 0x28B8 JUMP JUMPDEST PUSH1 0x40 MLOAD DUP1 SWAP2 SUB SWAP1 LOG2 POP POP POP POP POP JUMP JUMPDEST PUSH1 0x60 PUSH1 0x3 PUSH0 DUP4 DUP2 MSTORE PUSH1 0x20 ADD SWAP1 DUP2 MSTORE PUSH1 0x20 ADD PUSH0 KECCAK256 DUP1 SLOAD DUP1 PUSH1 0x20 MUL PUSH1 0x20 ADD PUSH1 0x40 MLOAD SWAP1 DUP2 ADD PUSH1 0x40 MSTORE DUP1 SWAP3 SWAP2 SWAP1 DUP2 DUP2 MSTORE PUSH1 0x20 ADD PUSH0 SWAP1 JUMPDEST DUP3 DUP3 LT ISZERO PUSH2 0x1882 JUMPI DUP4 DUP3 SWAP1 PUSH0 MSTORE PUSH1 0x20 PUSH0 KECCAK256 SWAP1 PUSH1 0x7 MUL ADD PUSH1 0x40 MLOAD DUP1 PUSH1 0xE0 ADD PUSH1 0x40 MSTORE SWAP1 DUP2 PUSH0 DUP3 ADD SLOAD DUP2 MSTORE PUSH1 0x20 ADD PUSH1 0x1 DUP3 ADD PUSH0 SWAP1 SLOAD SWAP1 PUSH2 0x100 EXP SWAP1 DIV PUSH20 0xFFFFFFFFFFFFFFFFFFFFFFFFFFFFFFFFFFFFFFFF AND PUSH20 0xFFFFFFFFFFFFFFFFFFFFFFFFFFFFFFFFFFFFFFFF AND PUSH20 0xFFFFFFFFFFFFFFFFFFFFFFFFFFFFFFFFFFFFFFFF AND DUP2 MSTORE PUSH1 0x20 ADD PUSH1 0x2 DUP3 ADD DUP1 SLOAD PUSH2 0x1745 SWAP1 PUSH2 0x215F JUMP JUMPDEST DUP1 PUSH1 0x1F ADD PUSH1 0x20 DUP1 SWAP2 DIV MUL PUSH1 0x20 ADD PUSH1 0x40 MLOAD SWAP1 DUP2 ADD PUSH1 0x40 MSTORE DUP1 SWAP3 SWAP2 SWAP1 DUP2 DUP2 MSTORE PUSH1 0x20 ADD DUP3 DUP1 SLOAD PUSH2 0x1771 SWAP1 PUSH2 0x215F JUMP JUMPDEST DUP1 ISZERO PUSH2 0x17BC JUMPI DUP1 PUSH1 0x1F LT PUSH2 0x1793 JUMPI PUSH2 0x100 DUP1 DUP4 SLOAD DIV MUL DUP4 MSTORE SWAP2 PUSH1 0x20 ADD SWAP2 PUSH2 0x17BC JUMP JUMPDEST DUP3 ADD SWAP2 SWAP1 PUSH0 MSTORE PUSH1 0x20 PUSH0 KECCAK256 SWAP1 JUMPDEST DUP2 SLOAD DUP2 MSTORE SWAP1 PUSH1 0x1 ADD SWAP1 PUSH1 0x20 ADD DUP1 DUP4 GT PUSH2 0x179F JUMPI DUP3 SWAP1 SUB PUSH1 0x1F AND DUP3 ADD SWAP2 JUMPDEST POP POP POP POP POP DUP2 MSTORE PUSH1 0x20 ADD PUSH1 0x3 DUP3 ADD DUP1 SLOAD PUSH2 0x17D5 SWAP1 PUSH2 0x215F JUMP JUMPDEST DUP1 PUSH1 0x1F ADD PUSH1 0x20 DUP1 SWAP2 DIV MUL PUSH1 0x20 ADD PUSH1 0x40 MLOAD SWAP1 DUP2 ADD PUSH1 0x40 MSTORE DUP1 SWAP3 SWAP2 SWAP1 DUP2 DUP2 MSTORE PUSH1 0x20 ADD DUP3 DUP1 SLOAD PUSH2 0x1801 SWAP1 PUSH2 0x215F JUMP JUMPDEST DUP1 ISZERO PUSH2 0x184C JUMPI DUP1 PUSH1 0x1F LT PUSH2 0x1823 JUMPI PUSH2 0x100 DUP1 DUP4 SLOAD DIV MUL DUP4 MSTORE SWAP2 PUSH1 0x20 ADD SWAP2 PUSH2 0x184C JUMP JUMPDEST DUP3 ADD SWAP2 SWAP1 PUSH0 MSTORE PUSH1 0x20 PUSH0 KECCAK256 SWAP1 JUMPDEST DUP2 SLOAD DUP2 MSTORE SWAP1 PUSH1 0x1 ADD SWAP1 PUSH1 0x20 ADD DUP1 DUP4 GT PUSH2 0x182F JUMPI DUP3 SWAP1 SUB PUSH1 0x1F AND DUP3 ADD SWAP2 JUMPDEST POP POP POP POP POP DUP2 MSTORE PUSH1 0x20 ADD PUSH1 0x4 DUP3 ADD SLOAD DUP2 MSTORE PUSH1 0x20 ADD PUSH1 0x5 DUP3 ADD SLOAD DUP2 MSTORE PUSH1 0x20 ADD PUSH1 0x6 DUP3 ADD SLOAD DUP2 MSTORE POP POP DUP2 MSTORE PUSH1 0x20 ADD SWAP1 PUSH1 0x1 ADD SWAP1 PUSH2 0x16B6 JUMP JUMPDEST POP POP POP POP SWAP1 POP SWAP2 SWAP1 POP JUMP JUMPDEST PUSH1 0x40 MLOAD DUP1 PUSH1 0xE0 ADD PUSH1 0x40 MSTORE DUP1 PUSH0 DUP2 MSTORE PUSH1 0x20 ADD PUSH1 0x60 DUP2 MSTORE PUSH1 0x20 ADD PUSH1 0x60 DUP2 MSTORE PUSH1 0x20 ADD PUSH1 0x60 DUP2 MSTORE PUSH1 0x20 ADD PUSH0 DUP2 MSTORE PUSH1 0x20 ADD PUSH0 DUP2 MSTORE PUSH1 0x20 ADD PUSH0 DUP2 MSTORE POP SWAP1 JUMP JUMPDEST PUSH0 PUSH1 0x40 MLOAD SWAP1 POP SWAP1 JUMP JUMPDEST PUSH0 PUSH0 REVERT JUMPDEST PUSH0 PUSH0 REVERT JUMPDEST PUSH0 PUSH20 0xFFFFFFFFFFFFFFFFFFFFFFFFFFFFFFFFFFFFFFFF DUP3 AND SWAP1 POP SWAP2 SWAP1 POP JUMP JUMPDEST PUSH0 PUSH2 0x1900 DUP3 PUSH2 0x18D7 JUMP JUMPDEST SWAP1 POP SWAP2 SWAP1 POP JUMP JUMPDEST PUSH2 0x1910 DUP2 PUSH2 0x18F6 JUMP JUMPDEST DUP2 EQ PUSH2 0x191A JUMPI PUSH0 PUSH0 REVERT JUMPDEST POP JUMP JUMPDEST PUSH0 DUP2 CALLDATALOAD SWAP1 POP PUSH2 0x192B DUP2 PUSH2 0x1907 JUMP JUMPDEST SWAP3 SWAP2 POP POP JUMP JUMPDEST PUSH0 PUSH1 0x20 DUP3 DUP5 SUB SLT ISZERO PUSH2 0x1946 JUMPI PUSH2 0x1945 PUSH2 0x18CF JUMP JUMPDEST JUMPDEST PUSH0 PUSH2 0x1953 DUP5 DUP3 DUP6 ADD PUSH2 0x191D JUMP JUMPDEST SWAP2 POP POP SWAP3 SWAP2 POP POP JUMP JUMPDEST PUSH0 DUP2 MLOAD SWAP1 POP SWAP2 SWAP1 POP JUMP JUMPDEST PUSH0 DUP3 DUP3 MSTORE PUSH1 0x20 DUP3 ADD SWAP1 POP SWAP3 SWAP2 POP POP JUMP JUMPDEST PUSH0 DUP2 SWAP1 POP PUSH1 0x20 DUP3 ADD SWAP1 POP SWAP2 SWAP1 POP JUMP JUMPDEST PUSH0 DUP2 SWAP1 POP SWAP2 SWAP1 POP JUMP JUMPDEST PUSH2 0x1997 DUP2 PUSH2 0x1985 JUMP JUMPDEST DUP3 MSTORE POP POP JUMP JUMPDEST PUSH0 DUP2 MLOAD SWAP1 POP SWAP2 SWAP1 POP JUMP JUMPDEST PUSH0 DUP3 DUP3 MSTORE PUSH1 0x20 DUP3 ADD SWAP1 POP SWAP3 SWAP2 POP POP JUMP JUMPDEST DUP3 DUP2 DUP4 MCOPY PUSH0 DUP4 DUP4 ADD MSTORE POP POP POP JUMP JUMPDEST PUSH0 PUSH1 0x1F NOT PUSH1 0x1F DUP4 ADD AND SWAP1 POP SWAP2 SWAP1 POP JUMP JUMPDEST PUSH0 PUSH2 0x19DF DUP3 PUSH2 0x199D JUMP JUMPDEST PUSH2 0x19E9 DUP2 DUP6 PUSH2 0x19A7 JUMP JUMPDEST SWAP4 POP PUSH2 0x19F9 DUP2 DUP6 PUSH1 0x20 DUP7 ADD PUSH2 0x19B7 JUMP JUMPDEST PUSH2 0x1A02 DUP2 PUSH2 0x19C5 JUMP JUMPDEST DUP5 ADD SWAP2 POP POP SWAP3 SWAP2 POP POP JUMP JUMPDEST PUSH0 DUP2 SWAP1 POP SWAP2 SWAP1 POP JUMP JUMPDEST PUSH2 0x1A1F DUP2 PUSH2 0x1A0D JUMP JUMPDEST DUP3 MSTORE POP POP JUMP JUMPDEST PUSH0 PUSH1 0xE0 DUP4 ADD PUSH0 DUP4 ADD MLOAD PUSH2 0x1A3A PUSH0 DUP7 ADD DUP3 PUSH2 0x198E JUMP JUMPDEST POP PUSH1 0x20 DUP4 ADD MLOAD DUP5 DUP3 SUB PUSH1 0x20 DUP7 ADD MSTORE PUSH2 0x1A52 DUP3 DUP3 PUSH2 0x19D5 JUMP JUMPDEST SWAP2 POP POP PUSH1 0x40 DUP4 ADD MLOAD DUP5 DUP3 SUB PUSH1 0x40 DUP7 ADD MSTORE PUSH2 0x1A6C DUP3 DUP3 PUSH2 0x19D5 JUMP JUMPDEST SWAP2 POP POP PUSH1 0x60 DUP4 ADD MLOAD DUP5 DUP3 SUB PUSH1 0x60 DUP7 ADD MSTORE PUSH2 0x1A86 DUP3 DUP3 PUSH2 0x19D5 JUMP JUMPDEST SWAP2 POP POP PUSH1 0x80 DUP4 ADD MLOAD PUSH2 0x1A9B PUSH1 0x80 DUP7 ADD DUP3 PUSH2 0x1A16 JUMP JUMPDEST POP PUSH1 0xA0 DUP4 ADD MLOAD PUSH2 0x1AAE PUSH1 0xA0 DUP7 ADD DUP3 PUSH2 0x1A16 JUMP JUMPDEST POP PUSH1 0xC0 DUP4 ADD MLOAD PUSH2 0x1AC1 PUSH1 0xC0 DUP7 ADD DUP3 PUSH2 0x1A16 JUMP JUMPDEST POP DUP1 SWAP2 POP POP SWAP3 SWAP2 POP POP JUMP JUMPDEST PUSH0 PUSH2 0x1AD7 DUP4 DUP4 PUSH2 0x1A25 JUMP JUMPDEST SWAP1 POP SWAP3 SWAP2 POP POP JUMP JUMPDEST PUSH0 PUSH1 0x20 DUP3 ADD SWAP1 POP SWAP2 SWAP1 POP JUMP JUMPDEST PUSH0 PUSH2 0x1AF5 DUP3 PUSH2 0x195C JUMP JUMPDEST PUSH2 0x1AFF DUP2 DUP6 PUSH2 0x1966 JUMP JUMPDEST SWAP4 POP DUP4 PUSH1 0x20 DUP3 MUL DUP6 ADD PUSH2 0x1B11 DUP6 PUSH2 0x1976 JUMP JUMPDEST DUP1 PUSH0 JUMPDEST DUP6 DUP2 LT ISZERO PUSH2 0x1B4C JUMPI DUP5 DUP5 SUB DUP10 MSTORE DUP2 MLOAD PUSH2 0x1B2D DUP6 DUP3 PUSH2 0x1ACC JUMP JUMPDEST SWAP5 POP PUSH2 0x1B38 DUP4 PUSH2 0x1ADF JUMP JUMPDEST SWAP3 POP PUSH1 0x20 DUP11 ADD SWAP10 POP POP PUSH1 0x1 DUP2 ADD SWAP1 POP PUSH2 0x1B14 JUMP JUMPDEST POP DUP3 SWAP8 POP DUP8 SWAP6 POP POP POP POP POP POP SWAP3 SWAP2 POP POP JUMP JUMPDEST PUSH0 PUSH1 0x20 DUP3 ADD SWAP1 POP DUP2 DUP2 SUB PUSH0 DUP4 ADD MSTORE PUSH2 0x1B76 DUP2 DUP5 PUSH2 0x1AEB JUMP JUMPDEST SWAP1 POP SWAP3 SWAP2 POP POP JUMP JUMPDEST PUSH2 0x1B87 DUP2 PUSH2 0x1985 JUMP JUMPDEST DUP2 EQ PUSH2 0x1B91 JUMPI PUSH0 PUSH0 REVERT JUMPDEST POP JUMP JUMPDEST PUSH0 DUP2 CALLDATALOAD SWAP1 POP PUSH2 0x1BA2 DUP2 PUSH2 0x1B7E JUMP JUMPDEST SWAP3 SWAP2 POP POP JUMP JUMPDEST PUSH0 PUSH1 0x20 DUP3 DUP5 SUB SLT ISZERO PUSH2 0x1BBD JUMPI PUSH2 0x1BBC PUSH2 0x18CF JUMP JUMPDEST JUMPDEST PUSH0 PUSH2 0x1BCA DUP5 DUP3 DUP6 ADD PUSH2 0x1B94 JUMP JUMPDEST SWAP2 POP POP SWAP3 SWAP2 POP POP JUMP JUMPDEST PUSH2 0x1BDC DUP2 PUSH2 0x1A0D JUMP JUMPDEST DUP2 EQ PUSH2 0x1BE6 JUMPI PUSH0 PUSH0 REVERT JUMPDEST POP JUMP JUMPDEST PUSH0 DUP2 CALLDATALOAD SWAP1 POP PUSH2 0x1BF7 DUP2 PUSH2 0x1BD3 JUMP JUMPDEST SWAP3 SWAP2 POP POP JUMP JUMPDEST PUSH0 PUSH0 PUSH1 0x40 DUP4 DUP6 SUB SLT ISZERO PUSH2 0x1C13 JUMPI PUSH2 0x1C12 PUSH2 0x18CF JUMP JUMPDEST JUMPDEST PUSH0 PUSH2 0x1C20 DUP6 DUP3 DUP7 ADD PUSH2 0x1B94 JUMP JUMPDEST SWAP3 POP POP PUSH1 0x20 PUSH2 0x1C31 DUP6 DUP3 DUP7 ADD PUSH2 0x1BE9 JUMP JUMPDEST SWAP2 POP POP SWAP3 POP SWAP3 SWAP1 POP JUMP JUMPDEST PUSH0 PUSH0 REVERT JUMPDEST PUSH0 PUSH0 REVERT JUMPDEST PUSH32 0x4E487B7100000000000000000000000000000000000000000000000000000000 PUSH0 MSTORE PUSH1 0x41 PUSH1 0x4 MSTORE PUSH1 0x24 PUSH0 REVERT JUMPDEST PUSH2 0x1C79 DUP3 PUSH2 0x19C5 JUMP JUMPDEST DUP2 ADD DUP2 DUP2 LT PUSH8 0xFFFFFFFFFFFFFFFF DUP3 GT OR ISZERO PUSH2 0x1C98 JUMPI PUSH2 0x1C97 PUSH2 0x1C43 JUMP JUMPDEST JUMPDEST DUP1 PUSH1 0x40 MSTORE POP POP POP JUMP JUMPDEST PUSH0 PUSH2 0x1CAA PUSH2 0x18C6 JUMP JUMPDEST SWAP1 POP PUSH2 0x1CB6 DUP3 DUP3 PUSH2 0x1C70 JUMP JUMPDEST SWAP2 SWAP1 POP JUMP JUMPDEST PUSH0 PUSH8 0xFFFFFFFFFFFFFFFF DUP3 GT ISZERO PUSH2 0x1CD5 JUMPI PUSH2 0x1CD4 PUSH2 0x1C43 JUMP JUMPDEST JUMPDEST PUSH2 0x1CDE DUP3 PUSH2 0x19C5 JUMP JUMPDEST SWAP1 POP PUSH1 0x20 DUP2 ADD SWAP1 POP SWAP2 SWAP1 POP JUMP JUMPDEST DUP3 DUP2 DUP4 CALLDATACOPY PUSH0 DUP4 DUP4 ADD MSTORE POP POP POP JUMP JUMPDEST PUSH0 PUSH2 0x1D0B PUSH2 0x1D06 DUP5 PUSH2 0x1CBB JUMP JUMPDEST PUSH2 0x1CA1 JUMP JUMPDEST SWAP1 POP DUP3 DUP2 MSTORE PUSH1 0x20 DUP2 ADD DUP5 DUP5 DUP5 ADD GT ISZERO PUSH2 0x1D27 JUMPI PUSH2 0x1D26 PUSH2 0x1C3F JUMP JUMPDEST JUMPDEST PUSH2 0x1D32 DUP5 DUP3 DUP6 PUSH2 0x1CEB JUMP JUMPDEST POP SWAP4 SWAP3 POP POP POP JUMP JUMPDEST PUSH0 DUP3 PUSH1 0x1F DUP4 ADD SLT PUSH2 0x1D4E JUMPI PUSH2 0x1D4D PUSH2 0x1C3B JUMP JUMPDEST JUMPDEST DUP2 CALLDATALOAD PUSH2 0x1D5E DUP5 DUP3 PUSH1 0x20 DUP7 ADD PUSH2 0x1CF9 JUMP JUMPDEST SWAP2 POP POP SWAP3 SWAP2 POP POP JUMP JUMPDEST PUSH0 PUSH0 PUSH0 PUSH1 0x60 DUP5 DUP7 SUB SLT ISZERO PUSH2 0x1D7E JUMPI PUSH2 0x1D7D PUSH2 0x18CF JUMP JUMPDEST JUMPDEST PUSH0 PUSH2 0x1D8B DUP7 DUP3 DUP8 ADD PUSH2 0x1B94 JUMP JUMPDEST SWAP4 POP POP PUSH1 0x20 DUP5 ADD CALLDATALOAD PUSH8 0xFFFFFFFFFFFFFFFF DUP2 GT ISZERO PUSH2 0x1DAC JUMPI PUSH2 0x1DAB PUSH2 0x18D3 JUMP JUMPDEST JUMPDEST PUSH2 0x1DB8 DUP7 DUP3 DUP8 ADD PUSH2 0x1D3A JUMP JUMPDEST SWAP3 POP POP PUSH1 0x40 DUP5 ADD CALLDATALOAD PUSH8 0xFFFFFFFFFFFFFFFF DUP2 GT ISZERO PUSH2 0x1DD9 JUMPI PUSH2 0x1DD8 PUSH2 0x18D3 JUMP JUMPDEST JUMPDEST PUSH2 0x1DE5 DUP7 DUP3 DUP8 ADD PUSH2 0x1D3A JUMP JUMPDEST SWAP2 POP POP SWAP3 POP SWAP3 POP SWAP3 JUMP JUMPDEST PUSH2 0x1DF8 DUP2 PUSH2 0x1985 JUMP JUMPDEST DUP3 MSTORE POP POP JUMP JUMPDEST PUSH0 DUP3 DUP3 MSTORE PUSH1 0x20 DUP3 ADD SWAP1 POP SWAP3 SWAP2 POP POP JUMP JUMPDEST PUSH0 PUSH2 0x1E18 DUP3 PUSH2 0x199D JUMP JUMPDEST PUSH2 0x1E22 DUP2 DUP6 PUSH2 0x1DFE JUMP JUMPDEST SWAP4 POP PUSH2 0x1E32 DUP2 DUP6 PUSH1 0x20 DUP7 ADD PUSH2 0x19B7 JUMP JUMPDEST PUSH2 0x1E3B DUP2 PUSH2 0x19C5 JUMP JUMPDEST DUP5 ADD SWAP2 POP POP SWAP3 SWAP2 POP POP JUMP JUMPDEST PUSH2 0x1E4F DUP2 PUSH2 0x1A0D JUMP JUMPDEST DUP3 MSTORE POP POP JUMP JUMPDEST PUSH0 PUSH1 0xE0 DUP3 ADD SWAP1 POP PUSH2 0x1E68 PUSH0 DUP4 ADD DUP11 PUSH2 0x1DEF JUMP JUMPDEST DUP2 DUP2 SUB PUSH1 0x20 DUP4 ADD MSTORE PUSH2 0x1E7A DUP2 DUP10 PUSH2 0x1E0E JUMP JUMPDEST SWAP1 POP DUP2 DUP2 SUB PUSH1 0x40 DUP4 ADD MSTORE PUSH2 0x1E8E DUP2 DUP9 PUSH2 0x1E0E JUMP JUMPDEST SWAP1 POP DUP2 DUP2 SUB PUSH1 0x60 DUP4 ADD MSTORE PUSH2 0x1EA2 DUP2 DUP8 PUSH2 0x1E0E JUMP JUMPDEST SWAP1 POP PUSH2 0x1EB1 PUSH1 0x80 DUP4 ADD DUP7 PUSH2 0x1E46 JUMP JUMPDEST PUSH2 0x1EBE PUSH1 0xA0 DUP4 ADD DUP6 PUSH2 0x1E46 JUMP JUMPDEST PUSH2 0x1ECB PUSH1 0xC0 DUP4 ADD DUP5 PUSH2 0x1E46 JUMP JUMPDEST SWAP9 SWAP8 POP POP POP POP POP POP POP POP JUMP JUMPDEST PUSH0 PUSH0 PUSH0 PUSH1 0x60 DUP5 DUP7 SUB SLT ISZERO PUSH2 0x1EEE JUMPI PUSH2 0x1EED PUSH2 0x18CF JUMP JUMPDEST JUMPDEST PUSH0 DUP5 ADD CALLDATALOAD PUSH8 0xFFFFFFFFFFFFFFFF DUP2 GT ISZERO PUSH2 0x1F0B JUMPI PUSH2 0x1F0A PUSH2 0x18D3 JUMP JUMPDEST JUMPDEST PUSH2 0x1F17 DUP7 DUP3 DUP8 ADD PUSH2 0x1D3A JUMP JUMPDEST SWAP4 POP POP PUSH1 0x20 DUP5 ADD CALLDATALOAD PUSH8 0xFFFFFFFFFFFFFFFF DUP2 GT ISZERO PUSH2 0x1F38 JUMPI PUSH2 0x1F37 PUSH2 0x18D3 JUMP JUMPDEST JUMPDEST PUSH2 0x1F44 DUP7 DUP3 DUP8 ADD PUSH2 0x1D3A JUMP JUMPDEST SWAP3 POP POP PUSH1 0x40 DUP5 ADD CALLDATALOAD PUSH8 0xFFFFFFFFFFFFFFFF DUP2 GT ISZERO PUSH2 0x1F65 JUMPI PUSH2 0x1F64 PUSH2 0x18D3 JUMP JUMPDEST JUMPDEST PUSH2 0x1F71 DUP7 DUP3 DUP8 ADD PUSH2 0x1D3A JUMP JUMPDEST SWAP2 POP POP SWAP3 POP SWAP3 POP SWAP3 JUMP JUMPDEST PUSH0 DUP2 MLOAD SWAP1 POP SWAP2 SWAP1 POP JUMP JUMPDEST PUSH0 DUP3 DUP3 MSTORE PUSH1 0x20 DUP3 ADD SWAP1 POP SWAP3 SWAP2 POP POP JUMP JUMPDEST PUSH0 DUP2 SWAP1 POP PUSH1 0x20 DUP3 ADD SWAP1 POP SWAP2 SWAP1 POP JUMP JUMPDEST PUSH2 0x1FAD DUP2 PUSH2 0x18F6 JUMP JUMPDEST DUP3 MSTORE POP POP JUMP JUMPDEST PUSH0 PUSH1 0xE0 DUP4 ADD PUSH0 DUP4 ADD MLOAD PUSH2 0x1FC8 PUSH0 DUP7 ADD DUP3 PUSH2 0x198E JUMP JUMPDEST POP PUSH1 0x20 DUP4 ADD MLOAD PUSH2 0x1FDB PUSH1 0x20 DUP7 ADD DUP3 PUSH2 0x1FA4 JUMP JUMPDEST POP PUSH1 0x40 DUP4 ADD MLOAD DUP5 DUP3 SUB PUSH1 0x40 DUP7 ADD MSTORE PUSH2 0x1FF3 DUP3 DUP3 PUSH2 0x19D5 JUMP JUMPDEST SWAP2 POP POP PUSH1 0x60 DUP4 ADD MLOAD DUP5 DUP3 SUB PUSH1 0x60 DUP7 ADD MSTORE PUSH2 0x200D DUP3 DUP3 PUSH2 0x19D5 JUMP JUMPDEST SWAP2 POP POP PUSH1 0x80 DUP4 ADD MLOAD PUSH2 0x2022 PUSH1 0x80 DUP7 ADD DUP3 PUSH2 0x1A16 JUMP JUMPDEST POP PUSH1 0xA0 DUP4 ADD MLOAD PUSH2 0x2035 PUSH1 0xA0 DUP7 ADD DUP3 PUSH2 0x1A16 JUMP JUMPDEST POP PUSH1 0xC0 DUP4 ADD MLOAD PUSH2 0x2048 PUSH1 0xC0 DUP7 ADD DUP3 PUSH2 0x1A16 JUMP JUMPDEST POP DUP1 SWAP2 POP POP SWAP3 SWAP2 POP POP JUMP JUMPDEST PUSH0 PUSH2 0x205E DUP4 DUP4 PUSH2 0x1FB3 JUMP JUMPDEST SWAP1 POP SWAP3 SWAP2 POP POP JUMP JUMPDEST PUSH0 PUSH1 0x20 DUP3 ADD SWAP1 POP SWAP2 SWAP1 POP JUMP JUMPDEST PUSH0 PUSH2 0x207C DUP3 PUSH2 0x1F7B JUMP JUMPDEST PUSH2 0x2086 DUP2 DUP6 PUSH2 0x1F85 JUMP JUMPDEST SWAP4 POP DUP4 PUSH1 0x20 DUP3 MUL DUP6 ADD PUSH2 0x2098 DUP6 PUSH2 0x1F95 JUMP JUMPDEST DUP1 PUSH0 JUMPDEST DUP6 DUP2 LT ISZERO PUSH2 0x20D3 JUMPI DUP5 DUP5 SUB DUP10 MSTORE DUP2 MLOAD PUSH2 0x20B4 DUP6 DUP3 PUSH2 0x2053 JUMP JUMPDEST SWAP5 POP PUSH2 0x20BF DUP4 PUSH2 0x2066 JUMP JUMPDEST SWAP3 POP PUSH1 0x20 DUP11 ADD SWAP10 POP POP PUSH1 0x1 DUP2 ADD SWAP1 POP PUSH2 0x209B JUMP JUMPDEST POP DUP3 SWAP8 POP DUP8 SWAP6 POP POP POP POP POP POP SWAP3 SWAP2 POP POP JUMP JUMPDEST PUSH0 PUSH1 0x20 DUP3 ADD SWAP1 POP DUP2 DUP2 SUB PUSH0 DUP4 ADD MSTORE PUSH2 0x20FD DUP2 DUP5 PUSH2 0x2072 JUMP JUMPDEST SWAP1 POP SWAP3 SWAP2 POP POP JUMP JUMPDEST PUSH32 0x4E487B7100000000000000000000000000000000000000000000000000000000 PUSH0 MSTORE PUSH1 0x32 PUSH1 0x4 MSTORE PUSH1 0x24 PUSH0 REVERT JUMPDEST PUSH32 0x4E487B7100000000000000000000000000000000000000000000000000000000 PUSH0 MSTORE PUSH1 0x22 PUSH1 0x4 MSTORE PUSH1 0x24 PUSH0 REVERT JUMPDEST PUSH0 PUSH1 0x2 DUP3 DIV SWAP1 POP PUSH1 0x1 DUP3 AND DUP1 PUSH2 0x2176 JUMPI PUSH1 0x7F DUP3 AND SWAP2 POP JUMPDEST PUSH1 0x20 DUP3 LT DUP2 SUB PUSH2 0x2189 JUMPI PUSH2 0x2188 PUSH2 0x2132 JUMP JUMPDEST JUMPDEST POP SWAP2 SWAP1 POP JUMP JUMPDEST PUSH32 0x506F737420646F6573206E6F742065786973742E000000000000000000000000 PUSH0 DUP3 ADD MSTORE POP JUMP JUMPDEST PUSH0 PUSH2 0x21C3 PUSH1 0x14 DUP4 PUSH2 0x1DFE JUMP JUMPDEST SWAP2 POP PUSH2 0x21CE DUP3 PUSH2 0x218F JUMP JUMPDEST PUSH1 0x20 DUP3 ADD SWAP1 POP SWAP2 SWAP1 POP JUMP JUMPDEST PUSH0 PUSH1 0x20 DUP3 ADD SWAP1 POP DUP2 DUP2 SUB PUSH0 DUP4 ADD MSTORE PUSH2 0x21F0 DUP2 PUSH2 0x21B7 JUMP JUMPDEST SWAP1 POP SWAP2 SWAP1 POP JUMP JUMPDEST PUSH32 0x416C726561647920766F746564206F6E207468697320706F73742E0000000000 PUSH0 DUP3 ADD MSTORE POP JUMP JUMPDEST PUSH0 PUSH2 0x222B PUSH1 0x1B DUP4 PUSH2 0x1DFE JUMP JUMPDEST SWAP2 POP PUSH2 0x2236 DUP3 PUSH2 0x21F7 JUMP JUMPDEST PUSH1 0x20 DUP3 ADD SWAP1 POP SWAP2 SWAP1 POP JUMP JUMPDEST PUSH0 PUSH1 0x20 DUP3 ADD SWAP1 POP DUP2 DUP2 SUB PUSH0 DUP4 ADD MSTORE PUSH2 0x2258 DUP2 PUSH2 0x221F JUMP JUMPDEST SWAP1 POP SWAP2 SWAP1 POP JUMP JUMPDEST PUSH32 0x4E487B7100000000000000000000000000000000000000000000000000000000 PUSH0 MSTORE PUSH1 0x11 PUSH1 0x4 MSTORE PUSH1 0x24 PUSH0 REVERT JUMPDEST PUSH0 PUSH2 0x2296 DUP3 PUSH2 0x1A0D JUMP JUMPDEST SWAP2 POP PUSH32 0xFFFFFFFFFFFFFFFFFFFFFFFFFFFFFFFFFFFFFFFFFFFFFFFFFFFFFFFFFFFFFFFF DUP3 SUB PUSH2 0x22C8 JUMPI PUSH2 0x22C7 PUSH2 0x225F JUMP JUMPDEST JUMPDEST PUSH1 0x1 DUP3 ADD SWAP1 POP SWAP2 SWAP1 POP JUMP JUMPDEST PUSH0 DUP2 ISZERO ISZERO SWAP1 POP SWAP2 SWAP1 POP JUMP JUMPDEST PUSH2 0x22E7 DUP2 PUSH2 0x22D3 JUMP JUMPDEST DUP3 MSTORE POP POP JUMP JUMPDEST PUSH0 PUSH1 0x20 DUP3 ADD SWAP1 POP PUSH2 0x2300 PUSH0 DUP4 ADD DUP5 PUSH2 0x22DE JUMP JUMPDEST SWAP3 SWAP2 POP POP JUMP JUMPDEST PUSH32 0x436F6D6D656E7420646F6573206E6F7420657869737400000000000000000000 PUSH0 DUP3 ADD MSTORE POP JUMP JUMPDEST PUSH0 PUSH2 0x233A PUSH1 0x16 DUP4 PUSH2 0x1DFE JUMP JUMPDEST SWAP2 POP PUSH2 0x2345 DUP3 PUSH2 0x2306 JUMP JUMPDEST PUSH1 0x20 DUP3 ADD SWAP1 POP SWAP2 SWAP1 POP JUMP JUMPDEST PUSH0 PUSH1 0x20 DUP3 ADD SWAP1 POP DUP2 DUP2 SUB PUSH0 DUP4 ADD MSTORE PUSH2 0x2367 DUP2 PUSH2 0x232E JUMP JUMPDEST SWAP1 POP SWAP2 SWAP1 POP JUMP JUMPDEST PUSH32 0x416C726561647920766F746564206F6E207468697320636F6D6D656E74000000 PUSH0 DUP3 ADD MSTORE POP JUMP JUMPDEST PUSH0 PUSH2 0x23A2 PUSH1 0x1D DUP4 PUSH2 0x1DFE JUMP JUMPDEST SWAP2 POP PUSH2 0x23AD DUP3 PUSH2 0x236E JUMP JUMPDEST PUSH1 0x20 DUP3 ADD SWAP1 POP SWAP2 SWAP1 POP JUMP JUMPDEST PUSH0 PUSH1 0x20 DUP3 ADD SWAP1 POP DUP2 DUP2 SUB PUSH0 DUP4 ADD MSTORE PUSH2 0x23CF DUP2 PUSH2 0x2396 JUMP JUMPDEST SWAP1 POP SWAP2 SWAP1 POP JUMP JUMPDEST PUSH2 0x23DF DUP2 PUSH2 0x18F6 JUMP JUMPDEST DUP3 MSTORE POP POP JUMP JUMPDEST PUSH0 PUSH1 0x40 DUP3 ADD SWAP1 POP PUSH2 0x23F8 PUSH0 DUP4 ADD DUP6 PUSH2 0x23D6 JUMP JUMPDEST PUSH2 0x2405 PUSH1 0x20 DUP4 ADD DUP5 PUSH2 0x22DE JUMP JUMPDEST SWAP4 SWAP3 POP POP POP JUMP JUMPDEST PUSH32 0x436F6D6D656E746572206E616D6520746F6F206C6F6E67000000000000000000 PUSH0 DUP3 ADD MSTORE POP JUMP JUMPDEST PUSH0 PUSH2 0x2440 PUSH1 0x17 DUP4 PUSH2 0x1DFE JUMP JUMPDEST SWAP2 POP PUSH2 0x244B DUP3 PUSH2 0x240C JUMP JUMPDEST PUSH1 0x20 DUP3 ADD SWAP1 POP SWAP2 SWAP1 POP JUMP JUMPDEST PUSH0 PUSH1 0x20 DUP3 ADD SWAP1 POP DUP2 DUP2 SUB PUSH0 DUP4 ADD MSTORE PUSH2 0x246D DUP2 PUSH2 0x2434 JUMP JUMPDEST SWAP1 POP SWAP2 SWAP1 POP JUMP JUMPDEST PUSH0 DUP2 PUSH1 0x60 SHL SWAP1 POP SWAP2 SWAP1 POP JUMP JUMPDEST PUSH0 PUSH2 0x248A DUP3 PUSH2 0x2474 JUMP JUMPDEST SWAP1 POP SWAP2 SWAP1 POP JUMP JUMPDEST PUSH0 PUSH2 0x249B DUP3 PUSH2 0x2480 JUMP JUMPDEST SWAP1 POP SWAP2 SWAP1 POP JUMP JUMPDEST PUSH2 0x24B3 PUSH2 0x24AE DUP3 PUSH2 0x18F6 JUMP JUMPDEST PUSH2 0x2491 JUMP JUMPDEST DUP3 MSTORE POP POP JUMP JUMPDEST PUSH0 DUP2 SWAP1 POP SWAP2 SWAP1 POP JUMP JUMPDEST PUSH2 0x24D3 PUSH2 0x24CE DUP3 PUSH2 0x1A0D JUMP JUMPDEST PUSH2 0x24B9 JUMP JUMPDEST DUP3 MSTORE POP POP JUMP JUMPDEST PUSH0 DUP2 SWAP1 POP SWAP3 SWAP2 POP POP JUMP JUMPDEST PUSH0 PUSH2 0x24ED DUP3 PUSH2 0x199D JUMP JUMPDEST PUSH2 0x24F7 DUP2 DUP6 PUSH2 0x24D9 JUMP JUMPDEST SWAP4 POP PUSH2 0x2507 DUP2 DUP6 PUSH1 0x20 DUP7 ADD PUSH2 0x19B7 JUMP JUMPDEST DUP1 DUP5 ADD SWAP2 POP POP SWAP3 SWAP2 POP POP JUMP JUMPDEST PUSH0 PUSH2 0x251E DUP3 DUP7 PUSH2 0x24A2 JUMP JUMPDEST PUSH1 0x14 DUP3 ADD SWAP2 POP PUSH2 0x252E DUP3 DUP6 PUSH2 0x24C2 JUMP JUMPDEST PUSH1 0x20 DUP3 ADD SWAP2 POP PUSH2 0x253E DUP3 DUP5 PUSH2 0x24E3 JUMP JUMPDEST SWAP2 POP DUP2 SWAP1 POP SWAP5 SWAP4 POP POP POP POP JUMP JUMPDEST PUSH0 DUP2 SWAP1 POP DUP2 PUSH0 MSTORE PUSH1 0x20 PUSH0 KECCAK256 SWAP1 POP SWAP2 SWAP1 POP JUMP JUMPDEST PUSH0 PUSH1 0x20 PUSH1 0x1F DUP4 ADD DIV SWAP1 POP SWAP2 SWAP1 POP JUMP JUMPDEST PUSH0 DUP3 DUP3 SHL SWAP1 POP SWAP3 SWAP2 POP POP JUMP JUMPDEST PUSH0 PUSH1 0x8 DUP4 MUL PUSH2 0x25A7 PUSH32 0xFFFFFFFFFFFFFFFFFFFFFFFFFFFFFFFFFFFFFFFFFFFFFFFFFFFFFFFFFFFFFFFF DUP3 PUSH2 0x256C JUMP JUMPDEST PUSH2 0x25B1 DUP7 DUP4 PUSH2 0x256C JUMP JUMPDEST SWAP6 POP DUP1 NOT DUP5 AND SWAP4 POP DUP1 DUP7 AND DUP5 OR SWAP3 POP POP POP SWAP4 SWAP3 POP POP POP JUMP JUMPDEST PUSH0 DUP2 SWAP1 POP SWAP2 SWAP1 POP JUMP JUMPDEST PUSH0 PUSH2 0x25EC PUSH2 0x25E7 PUSH2 0x25E2 DUP5 PUSH2 0x1A0D JUMP JUMPDEST PUSH2 0x25C9 JUMP JUMPDEST PUSH2 0x1A0D JUMP JUMPDEST SWAP1 POP SWAP2 SWAP1 POP JUMP JUMPDEST PUSH0 DUP2 SWAP1 POP SWAP2 SWAP1 POP JUMP JUMPDEST PUSH2 0x2605 DUP4 PUSH2 0x25D2 JUMP JUMPDEST PUSH2 0x2619 PUSH2 0x2611 DUP3 PUSH2 0x25F3 JUMP JUMPDEST DUP5 DUP5 SLOAD PUSH2 0x2578 JUMP JUMPDEST DUP3 SSTORE POP POP POP POP JUMP JUMPDEST PUSH0 PUSH0 SWAP1 POP SWAP1 JUMP JUMPDEST PUSH2 0x2630 PUSH2 0x2621 JUMP JUMPDEST PUSH2 0x263B DUP2 DUP5 DUP5 PUSH2 0x25FC JUMP JUMPDEST POP POP POP JUMP JUMPDEST JUMPDEST DUP2 DUP2 LT ISZERO PUSH2 0x265E JUMPI PUSH2 0x2653 PUSH0 DUP3 PUSH2 0x2628 JUMP JUMPDEST PUSH1 0x1 DUP2 ADD SWAP1 POP PUSH2 0x2641 JUMP JUMPDEST POP POP JUMP JUMPDEST PUSH1 0x1F DUP3 GT ISZERO PUSH2 0x26A3 JUMPI PUSH2 0x2674 DUP2 PUSH2 0x254B JUMP JUMPDEST PUSH2 0x267D DUP5 PUSH2 0x255D JUMP JUMPDEST DUP2 ADD PUSH1 0x20 DUP6 LT ISZERO PUSH2 0x268C JUMPI DUP2 SWAP1 POP JUMPDEST PUSH2 0x26A0 PUSH2 0x2698 DUP6 PUSH2 0x255D JUMP JUMPDEST DUP4 ADD DUP3 PUSH2 0x2640 JUMP JUMPDEST POP POP JUMPDEST POP POP POP JUMP JUMPDEST PUSH0 DUP3 DUP3 SHR SWAP1 POP SWAP3 SWAP2 POP POP JUMP JUMPDEST PUSH0 PUSH2 0x26C3 PUSH0 NOT DUP5 PUSH1 0x8 MUL PUSH2 0x26A8 JUMP JUMPDEST NOT DUP1 DUP4 AND SWAP2 POP POP SWAP3 SWAP2 POP POP JUMP JUMPDEST PUSH0 PUSH2 0x26DB DUP4 DUP4 PUSH2 0x26B4 JUMP JUMPDEST SWAP2 POP DUP3 PUSH1 0x2 MUL DUP3 OR SWAP1 POP SWAP3 SWAP2 POP POP JUMP JUMPDEST PUSH2 0x26F4 DUP3 PUSH2 0x199D JUMP JUMPDEST PUSH8 0xFFFFFFFFFFFFFFFF DUP2 GT ISZERO PUSH2 0x270D JUMPI PUSH2 0x270C PUSH2 0x1C43 JUMP JUMPDEST JUMPDEST PUSH2 0x2717 DUP3 SLOAD PUSH2 0x215F JUMP JUMPDEST PUSH2 0x2722 DUP3 DUP3 DUP6 PUSH2 0x2662 JUMP JUMPDEST PUSH0 PUSH1 0x20 SWAP1 POP PUSH1 0x1F DUP4 GT PUSH1 0x1 DUP2 EQ PUSH2 0x2753 JUMPI PUSH0 DUP5 ISZERO PUSH2 0x2741 JUMPI DUP3 DUP8 ADD MLOAD SWAP1 POP JUMPDEST PUSH2 0x274B DUP6 DUP3 PUSH2 0x26D0 JUMP JUMPDEST DUP7 SSTORE POP PUSH2 0x27B2 JUMP JUMPDEST PUSH1 0x1F NOT DUP5 AND PUSH2 0x2761 DUP7 PUSH2 0x254B JUMP JUMPDEST PUSH0 JUMPDEST DUP3 DUP2 LT ISZERO PUSH2 0x2788 JUMPI DUP5 DUP10 ADD MLOAD DUP3 SSTORE PUSH1 0x1 DUP3 ADD SWAP2 POP PUSH1 0x20 DUP6 ADD SWAP5 POP PUSH1 0x20 DUP2 ADD SWAP1 POP PUSH2 0x2763 JUMP JUMPDEST DUP7 DUP4 LT ISZERO PUSH2 0x27A5 JUMPI DUP5 DUP10 ADD MLOAD PUSH2 0x27A1 PUSH1 0x1F DUP10 AND DUP3 PUSH2 0x26B4 JUMP JUMPDEST DUP4 SSTORE POP JUMPDEST PUSH1 0x1 PUSH1 0x2 DUP9 MUL ADD DUP9 SSTORE POP POP POP JUMPDEST POP POP POP POP POP POP JUMP JUMPDEST PUSH0 PUSH1 0x80 DUP3 ADD SWAP1 POP PUSH2 0x27CD PUSH0 DUP4 ADD DUP8 PUSH2 0x23D6 JUMP JUMPDEST DUP2 DUP2 SUB PUSH1 0x20 DUP4 ADD MSTORE PUSH2 0x27DF DUP2 DUP7 PUSH2 0x1E0E JUMP JUMPDEST SWAP1 POP DUP2 DUP2 SUB PUSH1 0x40 DUP4 ADD MSTORE PUSH2 0x27F3 DUP2 DUP6 PUSH2 0x1E0E JUMP JUMPDEST SWAP1 POP PUSH2 0x2802 PUSH1 0x60 DUP4 ADD DUP5 PUSH2 0x1E46 JUMP JUMPDEST SWAP6 SWAP5 POP POP POP POP POP JUMP JUMPDEST PUSH32 0x417574686F72206E616D6520746F6F206C6F6E67000000000000000000000000 PUSH0 DUP3 ADD MSTORE POP JUMP JUMPDEST PUSH0 PUSH2 0x283F PUSH1 0x14 DUP4 PUSH2 0x1DFE JUMP JUMPDEST SWAP2 POP PUSH2 0x284A DUP3 PUSH2 0x280B JUMP JUMPDEST PUSH1 0x20 DUP3 ADD SWAP1 POP SWAP2 SWAP1 POP JUMP JUMPDEST PUSH0 PUSH1 0x20 DUP3 ADD SWAP1 POP DUP2 DUP2 SUB PUSH0 DUP4 ADD MSTORE PUSH2 0x286C DUP2 PUSH2 0x2833 JUMP JUMPDEST SWAP1 POP SWAP2 SWAP1 POP JUMP JUMPDEST PUSH0 PUSH2 0x287E DUP3 DUP8 PUSH2 0x24A2 JUMP JUMPDEST PUSH1 0x14 DUP3 ADD SWAP2 POP PUSH2 0x288E DUP3 DUP7 PUSH2 0x24C2 JUMP JUMPDEST PUSH1 0x20 DUP3 ADD SWAP2 POP PUSH2 0x289E DUP3 DUP6 PUSH2 0x24E3 JUMP JUMPDEST SWAP2 POP PUSH2 0x28AA DUP3 DUP5 PUSH2 0x24E3 JUMP JUMPDEST SWAP2 POP DUP2 SWAP1 POP SWAP6 SWAP5 POP POP POP POP POP JUMP JUMPDEST PUSH0 PUSH1 0x60 DUP3 ADD SWAP1 POP DUP2 DUP2 SUB PUSH0 DUP4 ADD MSTORE PUSH2 0x28D0 DUP2 DUP7 PUSH2 0x1E0E JUMP JUMPDEST SWAP1 POP DUP2 DUP2 SUB PUSH1 0x20 DUP4 ADD MSTORE PUSH2 0x28E4 DUP2 DUP6 PUSH2 0x1E0E JUMP JUMPDEST SWAP1 POP PUSH2 0x28F3 PUSH1 0x40 DUP4 ADD DUP5 PUSH2 0x1E46 JUMP JUMPDEST SWAP5 SWAP4 POP POP POP POP JUMP INVALID LOG2 PUSH5 0x6970667358 0x22 SLT KECCAK256 RETF DUP14 OR MUL 0xA9 MCOPY LOG3 SWAP8 0xAE DELEGATECALL 0xDE 0xF7 0xBE PUSH19 0xF4FC7BE64D4B6A1C615F7E5DCD10255C46E264 PUSH20 0x6F6C634300081E00330000000000000000000000 "
				},
				"gasEstimates": {
					"creation": {
						"codeDepositCost": "2109000",
						"executionCost": "2241",
						"totalCost": "2111241"
					},
					"external": {
						"addComment(bytes32,string,string)": "infinite",
						"createPost(string,string,string)": "infinite",
						"downvoteComment(bytes32,uint256)": "infinite",
						"downvotePost(bytes32)": "55791",
						"getAllPosts()": "infinite",
						"getAllPostsOfUser(address)": "infinite",
						"getComments(bytes32)": "infinite",
						"getPostById(bytes32)": "infinite",
						"upvoteComment(bytes32,uint256)": "infinite",
						"upvotePost(bytes32)": "55791"
					}
				},
				"methodIdentifiers": {
					"addComment(bytes32,string,string)": "a7503db2",
					"createPost(string,string,string)": "e8a4a1eb",
					"downvoteComment(bytes32,uint256)": "cdb1d17e",
					"downvotePost(bytes32)": "a54ff9ac",
					"getAllPosts()": "30561100",
					"getAllPostsOfUser(address)": "2cfdcc6b",
					"getComments(bytes32)": "f7ba787d",
					"getPostById(bytes32)": "ae362ff9",
					"upvoteComment(bytes32,uint256)": "a6c86b5b",
					"upvotePost(bytes32)": "e2fc2691"
				}
			},
			"storageLayout": {
				"storage": [
					{
						"astId": 34,
						"contract": "contracts/MyblogApp.sol:MyblogApp",
						"label": "allPostsIds",
						"offset": 0,
						"slot": "0",
						"type": "t_array(t_bytes32)dyn_storage"
					},
					{
						"astId": 39,
						"contract": "contracts/MyblogApp.sol:MyblogApp",
						"label": "userPosts",
						"offset": 0,
						"slot": "1",
						"type": "t_mapping(t_address,t_array(t_bytes32)dyn_storage)"
					},
					{
						"astId": 44,
						"contract": "contracts/MyblogApp.sol:MyblogApp",
						"label": "posts",
						"offset": 0,
						"slot": "2",
						"type": "t_mapping(t_bytes32,t_struct(Post)16_storage)"
					},
					{
						"astId": 50,
						"contract": "contracts/MyblogApp.sol:MyblogApp",
						"label": "postComments",
						"offset": 0,
						"slot": "3",
						"type": "t_mapping(t_bytes32,t_array(t_struct(Comment)31_storage)dyn_storage)"
					},
					{
						"astId": 56,
						"contract": "contracts/MyblogApp.sol:MyblogApp",
						"label": "hasVoted",
						"offset": 0,
						"slot": "4",
						"type": "t_mapping(t_bytes32,t_mapping(t_address,t_bool))"
					},
					{
						"astId": 64,
						"contract": "contracts/MyblogApp.sol:MyblogApp",
						"label": "hasVotedComment",
						"offset": 0,
						"slot": "5",
						"type": "t_mapping(t_bytes32,t_mapping(t_address,t_mapping(t_uint256,t_bool)))"
					}
				],
				"types": {
					"t_address": {
						"encoding": "inplace",
						"label": "address",
						"numberOfBytes": "20"
					},
					"t_array(t_bytes32)dyn_storage": {
						"base": "t_bytes32",
						"encoding": "dynamic_array",
						"label": "bytes32[]",
						"numberOfBytes": "32"
					},
					"t_array(t_struct(Comment)31_storage)dyn_storage": {
						"base": "t_struct(Comment)31_storage",
						"encoding": "dynamic_array",
						"label": "struct MyblogApp.Comment[]",
						"numberOfBytes": "32"
					},
					"t_bool": {
						"encoding": "inplace",
						"label": "bool",
						"numberOfBytes": "1"
					},
					"t_bytes32": {
						"encoding": "inplace",
						"label": "bytes32",
						"numberOfBytes": "32"
					},
					"t_mapping(t_address,t_array(t_bytes32)dyn_storage)": {
						"encoding": "mapping",
						"key": "t_address",
						"label": "mapping(address => bytes32[])",
						"numberOfBytes": "32",
						"value": "t_array(t_bytes32)dyn_storage"
					},
					"t_mapping(t_address,t_bool)": {
						"encoding": "mapping",
						"key": "t_address",
						"label": "mapping(address => bool)",
						"numberOfBytes": "32",
						"value": "t_bool"
					},
					"t_mapping(t_address,t_mapping(t_uint256,t_bool))": {
						"encoding": "mapping",
						"key": "t_address",
						"label": "mapping(address => mapping(uint256 => bool))",
						"numberOfBytes": "32",
						"value": "t_mapping(t_uint256,t_bool)"
					},
					"t_mapping(t_bytes32,t_array(t_struct(Comment)31_storage)dyn_storage)": {
						"encoding": "mapping",
						"key": "t_bytes32",
						"label": "mapping(bytes32 => struct MyblogApp.Comment[])",
						"numberOfBytes": "32",
						"value": "t_array(t_struct(Comment)31_storage)dyn_storage"
					},
					"t_mapping(t_bytes32,t_mapping(t_address,t_bool))": {
						"encoding": "mapping",
						"key": "t_bytes32",
						"label": "mapping(bytes32 => mapping(address => bool))",
						"numberOfBytes": "32",
						"value": "t_mapping(t_address,t_bool)"
					},
					"t_mapping(t_bytes32,t_mapping(t_address,t_mapping(t_uint256,t_bool)))": {
						"encoding": "mapping",
						"key": "t_bytes32",
						"label": "mapping(bytes32 => mapping(address => mapping(uint256 => bool)))",
						"numberOfBytes": "32",
						"value": "t_mapping(t_address,t_mapping(t_uint256,t_bool))"
					},
					"t_mapping(t_bytes32,t_struct(Post)16_storage)": {
						"encoding": "mapping",
						"key": "t_bytes32",
						"label": "mapping(bytes32 => struct MyblogApp.Post)",
						"numberOfBytes": "32",
						"value": "t_struct(Post)16_storage"
					},
					"t_mapping(t_uint256,t_bool)": {
						"encoding": "mapping",
						"key": "t_uint256",
						"label": "mapping(uint256 => bool)",
						"numberOfBytes": "32",
						"value": "t_bool"
					},
					"t_string_storage": {
						"encoding": "bytes",
						"label": "string",
						"numberOfBytes": "32"
					},
					"t_struct(Comment)31_storage": {
						"encoding": "inplace",
						"label": "struct MyblogApp.Comment",
						"members": [
							{
								"astId": 18,
								"contract": "contracts/MyblogApp.sol:MyblogApp",
								"label": "id",
								"offset": 0,
								"slot": "0",
								"type": "t_bytes32"
							},
							{
								"astId": 20,
								"contract": "contracts/MyblogApp.sol:MyblogApp",
								"label": "commenterAddress",
								"offset": 0,
								"slot": "1",
								"type": "t_address"
							},
							{
								"astId": 22,
								"contract": "contracts/MyblogApp.sol:MyblogApp",
								"label": "commenterName",
								"offset": 0,
								"slot": "2",
								"type": "t_string_storage"
							},
							{
								"astId": 24,
								"contract": "contracts/MyblogApp.sol:MyblogApp",
								"label": "content",
								"offset": 0,
								"slot": "3",
								"type": "t_string_storage"
							},
							{
								"astId": 26,
								"contract": "contracts/MyblogApp.sol:MyblogApp",
								"label": "upvote",
								"offset": 0,
								"slot": "4",
								"type": "t_uint256"
							},
							{
								"astId": 28,
								"contract": "contracts/MyblogApp.sol:MyblogApp",
								"label": "downvote",
								"offset": 0,
								"slot": "5",
								"type": "t_uint256"
							},
							{
								"astId": 30,
								"contract": "contracts/MyblogApp.sol:MyblogApp",
								"label": "timestamp",
								"offset": 0,
								"slot": "6",
								"type": "t_uint256"
							}
						],
						"numberOfBytes": "224"
					},
					"t_struct(Post)16_storage": {
						"encoding": "inplace",
						"label": "struct MyblogApp.Post",
						"members": [
							{
								"astId": 3,
								"contract": "contracts/MyblogApp.sol:MyblogApp",
								"label": "id",
								"offset": 0,
								"slot": "0",
								"type": "t_bytes32"
							},
							{
								"astId": 5,
								"contract": "contracts/MyblogApp.sol:MyblogApp",
								"label": "author",
								"offset": 0,
								"slot": "1",
								"type": "t_string_storage"
							},
							{
								"astId": 7,
								"contract": "contracts/MyblogApp.sol:MyblogApp",
								"label": "title",
								"offset": 0,
								"slot": "2",
								"type": "t_string_storage"
							},
							{
								"astId": 9,
								"contract": "contracts/MyblogApp.sol:MyblogApp",
								"label": "contentHash",
								"offset": 0,
								"slot": "3",
								"type": "t_string_storage"
							},
							{
								"astId": 11,
								"contract": "contracts/MyblogApp.sol:MyblogApp",
								"label": "upvote",
								"offset": 0,
								"slot": "4",
								"type": "t_uint256"
							},
							{
								"astId": 13,
								"contract": "contracts/MyblogApp.sol:MyblogApp",
								"label": "downvote",
								"offset": 0,
								"slot": "5",
								"type": "t_uint256"
							},
							{
								"astId": 15,
								"contract": "contracts/MyblogApp.sol:MyblogApp",
								"label": "timestamp",
								"offset": 0,
								"slot": "6",
								"type": "t_uint256"
							}
						],
						"numberOfBytes": "224"
					},
					"t_uint256": {
						"encoding": "inplace",
						"label": "uint256",
						"numberOfBytes": "32"
					}
				}
			},
			"userdoc": {
				"kind": "user",
				"methods": {},
				"version": 1
			}
		}
	}
}