{
	"contracts/MyblogApp.sol": {
		"MyblogApp": {
			"abi": [
				{
					"anonymous": false,
					"inputs": [
						{
							"indexed": true,
							"internalType": "bytes32",
							"name": "postId",
							"type": "bytes32"
						},
						{
							"indexed": true,
							"internalType": "bytes32",
							"name": "commentId",
							"type": "bytes32"
						},
						{
							"indexed": false,
							"internalType": "address",
							"name": "commenterAddress",
							"type": "address"
						},
						{
							"indexed": false,
							"internalType": "string",
							"name": "commenterName",
							"type": "string"
						},
						{
							"indexed": false,
							"internalType": "string",
							"name": "content",
							"type": "string"
						},
						{
							"indexed": false,
							"internalType": "uint256",
							"name": "timestamp",
							"type": "uint256"
						}
					],
					"name": "CommentAdded",
					"type": "event"
				},
				{
					"anonymous": false,
					"inputs": [
						{
							"indexed": true,
							"internalType": "bytes32",
							"name": "postId",
							"type": "bytes32"
						},
						{
							"indexed": true,
							"internalType": "bytes32",
							"name": "commentId",
							"type": "bytes32"
						},
						{
							"indexed": false,
							"internalType": "address",
							"name": "voter",
							"type": "address"
						},
						{
							"indexed": false,
							"internalType": "bool",
							"name": "isUpvote",
							"type": "bool"
						}
					],
					"name": "CommentVoted",
					"type": "event"
				},
				{
					"anonymous": false,
					"inputs": [
						{
							"indexed": true,
							"internalType": "bytes32",
							"name": "postId",
							"type": "bytes32"
						},
						{
							"indexed": true,
							"internalType": "address",
							"name": "voter",
							"type": "address"
						},
						{
							"indexed": false,
							"internalType": "bool",
							"name": "isUpvote",
							"type": "bool"
						}
					],
					"name": "PostVoted",
					"type": "event"
				},
				{
					"anonymous": false,
					"inputs": [
						{
							"indexed": true,
							"internalType": "bytes32",
							"name": "postId",
							"type": "bytes32"
						},
						{
							"indexed": false,
							"internalType": "string",
							"name": "title",
							"type": "string"
						},
						{
							"indexed": false,
							"internalType": "string",
							"name": "author",
							"type": "string"
						},
						{
							"indexed": false,
							"internalType": "uint256",
							"name": "timestamp",
							"type": "uint256"
						}
					],
					"name": "Postcreation",
					"type": "event"
				},
				{
					"inputs": [
						{
							"internalType": "bytes32",
							"name": "_postId",
							"type": "bytes32"
						},
						{
							"internalType": "string",
							"name": "_commenterName",
							"type": "string"
						},
						{
							"internalType": "string",
							"name": "_content",
							"type": "string"
						}
					],
					"name": "addComment",
					"outputs": [],
					"stateMutability": "nonpayable",
					"type": "function"
				},
				{
					"inputs": [
						{
							"internalType": "string",
							"name": "_author",
							"type": "string"
						},
						{
							"internalType": "string",
							"name": "_title",
							"type": "string"
						},
						{
							"internalType": "string",
							"name": "_contentHash",
							"type": "string"
						}
					],
					"name": "createPost",
					"outputs": [],
					"stateMutability": "nonpayable",
					"type": "function"
				},
				{
					"inputs": [
						{
							"internalType": "bytes32",
							"name": "_postId",
							"type": "bytes32"
						},
						{
							"internalType": "uint256",
							"name": "_commentIndex",
							"type": "uint256"
						}
					],
					"name": "downvoteComment",
					"outputs": [],
					"stateMutability": "nonpayable",
					"type": "function"
				},
				{
					"inputs": [
						{
							"internalType": "bytes32",
							"name": "_postId",
							"type": "bytes32"
						}
					],
					"name": "downvotePost",
					"outputs": [],
					"stateMutability": "nonpayable",
					"type": "function"
				},
				{
					"inputs": [],
					"name": "getAllPosts",
					"outputs": [
						{
							"components": [
								{
									"internalType": "bytes32",
									"name": "id",
									"type": "bytes32"
								},
								{
									"internalType": "string",
									"name": "author",
									"type": "string"
								},
								{
									"internalType": "string",
									"name": "title",
									"type": "string"
								},
								{
									"internalType": "string",
									"name": "contentHash",
									"type": "string"
								},
								{
									"internalType": "uint256",
									"name": "upvote",
									"type": "uint256"
								},
								{
									"internalType": "uint256",
									"name": "downvote",
									"type": "uint256"
								},
								{
									"internalType": "uint256",
									"name": "timestamp",
									"type": "uint256"
								}
							],
							"internalType": "struct MyblogApp.Post[]",
							"name": "",
							"type": "tuple[]"
						}
					],
					"stateMutability": "view",
					"type": "function"
				},
				{
					"inputs": [
						{
							"internalType": "address",
							"name": "_user",
							"type": "address"
						}
					],
					"name": "getAllPostsOfUser",
					"outputs": [
						{
							"components": [
								{
									"internalType": "bytes32",
									"name": "id",
									"type": "bytes32"
								},
								{
									"internalType": "string",
									"name": "author",
									"type": "string"
								},
								{
									"internalType": "string",
									"name": "title",
									"type": "string"
								},
								{
									"internalType": "string",
									"name": "contentHash",
									"type": "string"
								},
								{
									"internalType": "uint256",
									"name": "upvote",
									"type": "uint256"
								},
								{
									"internalType": "uint256",
									"name": "downvote",
									"type": "uint256"
								},
								{
									"internalType": "uint256",
									"name": "timestamp",
									"type": "uint256"
								}
							],
							"internalType": "struct MyblogApp.Post[]",
							"name": "",
							"type": "tuple[]"
						}
					],
					"stateMutability": "view",
					"type": "function"
				},
				{
					"inputs": [
						{
							"internalType": "bytes32",
							"name": "_postId",
							"type": "bytes32"
						}
					],
					"name": "getComments",
					"outputs": [
						{
							"components": [
								{
									"internalType": "bytes32",
									"name": "id",
									"type": "bytes32"
								},
								{
									"internalType": "address",
									"name": "commenterAddress",
									"type": "address"
								},
								{
									"internalType": "string",
									"name": "commenterName",
									"type": "string"
								},
								{
									"internalType": "string",
									"name": "content",
									"type": "string"
								},
								{
									"internalType": "uint256",
									"name": "upvote",
									"type": "uint256"
								},
								{
									"internalType": "uint256",
									"name": "downvote",
									"type": "uint256"
								},
								{
									"internalType": "uint256",
									"name": "timestamp",
									"type": "uint256"
								}
							],
							"internalType": "struct MyblogApp.Comment[]",
							"name": "",
							"type": "tuple[]"
						}
					],
					"stateMutability": "view",
					"type": "function"
				},
				{
					"inputs": [
						{
							"internalType": "bytes32",
							"name": "_postId",
							"type": "bytes32"
						},
						{
							"internalType": "uint256",
							"name": "_commentIndex",
							"type": "uint256"
						}
					],
					"name": "upvoteComment",
					"outputs": [],
					"stateMutability": "nonpayable",
					"type": "function"
				},
				{
					"inputs": [
						{
							"internalType": "bytes32",
							"name": "_postId",
							"type": "bytes32"
						}
					],
					"name": "upvotePost",
					"outputs": [],
					"stateMutability": "nonpayable",
					"type": "function"
				}
			],
			"devdoc": {
				"kind": "dev",
				"methods": {},
				"version": 1
			},
			"evm": {
				"assembly": "    /* \"contracts/MyblogApp.sol\":68:5716  contract MyblogApp {... */\n  mstore(0x40, 0x80)\n  callvalue\n  dup1\n  iszero\n  tag_1\n  jumpi\n  revert(0x00, 0x00)\ntag_1:\n  pop\n  dataSize(sub_0)\n  dup1\n  dataOffset(sub_0)\n  0x00\n  codecopy\n  0x00\n  return\nstop\n\nsub_0: assembly {\n        /* \"contracts/MyblogApp.sol\":68:5716  contract MyblogApp {... */\n      mstore(0x40, 0x80)\n      callvalue\n      dup1\n      iszero\n      tag_1\n      jumpi\n      revert(0x00, 0x00)\n    tag_1:\n      pop\n      jumpi(tag_2, lt(calldatasize, 0x04))\n      shr(0xe0, calldataload(0x00))\n      dup1\n      0xa7503db2\n      gt\n      tag_12\n      jumpi\n      dup1\n      0xa7503db2\n      eq\n      tag_7\n      jumpi\n      dup1\n      0xcdb1d17e\n      eq\n      tag_8\n      jumpi\n      dup1\n      0xe2fc2691\n      eq\n      tag_9\n      jumpi\n      dup1\n      0xe8a4a1eb\n      eq\n      tag_10\n      jumpi\n      dup1\n      0xf7ba787d\n      eq\n      tag_11\n      jumpi\n      jump(tag_2)\n    tag_12:\n      dup1\n      0x2cfdcc6b\n      eq\n      tag_3\n      jumpi\n      dup1\n      0x30561100\n      eq\n      tag_4\n      jumpi\n      dup1\n      0xa54ff9ac\n      eq\n      tag_5\n      jumpi\n      dup1\n      0xa6c86b5b\n      eq\n      tag_6\n      jumpi\n    tag_2:\n      revert(0x00, 0x00)\n        /* \"contracts/MyblogApp.sol\":5196:5549  function getAllPostsOfUser(address _user) public view returns(Post[] memory) {... */\n    tag_3:\n      tag_13\n      0x04\n      dup1\n      calldatasize\n      sub\n      dup2\n      add\n      swap1\n      tag_14\n      swap2\n      swap1\n      tag_15\n      jump\t// in\n    tag_14:\n      tag_16\n      jump\t// in\n    tag_13:\n      mload(0x40)\n      tag_17\n      swap2\n      swap1\n      tag_18\n      jump\t// in\n    tag_17:\n      mload(0x40)\n      dup1\n      swap2\n      sub\n      swap1\n      return\n        /* \"contracts/MyblogApp.sol\":4913:5188  function getAllPosts() public view returns(Post[] memory) {... */\n    tag_4:\n      tag_19\n      tag_20\n      jump\t// in\n    tag_19:\n      mload(0x40)\n      tag_21\n      swap2\n      swap1\n      tag_18\n      jump\t// in\n    tag_21:\n      mload(0x40)\n      dup1\n      swap2\n      sub\n      swap1\n      return\n        /* \"contracts/MyblogApp.sol\":2646:2992  function downvotePost(bytes32 _postId) public {... */\n    tag_5:\n      tag_22\n      0x04\n      dup1\n      calldatasize\n      sub\n      dup2\n      add\n      swap1\n      tag_23\n      swap2\n      swap1\n      tag_24\n      jump\t// in\n    tag_23:\n      tag_25\n      jump\t// in\n    tag_22:\n      stop\n        /* \"contracts/MyblogApp.sol\":3882:4377  function upvoteComment(bytes32 _postId, uint _commentIndex) public {... */\n    tag_6:\n      tag_26\n      0x04\n      dup1\n      calldatasize\n      sub\n      dup2\n      add\n      swap1\n      tag_27\n      swap2\n      swap1\n      tag_28\n      jump\t// in\n    tag_27:\n      tag_29\n      jump\t// in\n    tag_26:\n      stop\n        /* \"contracts/MyblogApp.sol\":3028:3842  function addComment(bytes32 _postId, string memory _commenterName, string memory _content) public {... */\n    tag_7:\n      tag_30\n      0x04\n      dup1\n      calldatasize\n      sub\n      dup2\n      add\n      swap1\n      tag_31\n      swap2\n      swap1\n      tag_32\n      jump\t// in\n    tag_31:\n      tag_33\n      jump\t// in\n    tag_30:\n      stop\n        /* \"contracts/MyblogApp.sol\":4385:4885  function downvoteComment(bytes32 _postId, uint _commentIndex) public {... */\n    tag_8:\n      tag_34\n      0x04\n      dup1\n      calldatasize\n      sub\n      dup2\n      add\n      swap1\n      tag_35\n      swap2\n      swap1\n      tag_28\n      jump\t// in\n    tag_35:\n      tag_36\n      jump\t// in\n    tag_34:\n      stop\n        /* \"contracts/MyblogApp.sol\":2297:2638  function upvotePost(bytes32 _postId) public {... */\n    tag_9:\n      tag_37\n      0x04\n      dup1\n      calldatasize\n      sub\n      dup2\n      add\n      swap1\n      tag_38\n      swap2\n      swap1\n      tag_24\n      jump\t// in\n    tag_38:\n      tag_39\n      jump\t// in\n    tag_37:\n      stop\n        /* \"contracts/MyblogApp.sol\":1539:2260  function createPost(string memory _author, string memory _title, string memory _contentHash) public {... */\n    tag_10:\n      tag_40\n      0x04\n      dup1\n      calldatasize\n      sub\n      dup2\n      add\n      swap1\n      tag_41\n      swap2\n      swap1\n      tag_42\n      jump\t// in\n    tag_41:\n      tag_43\n      jump\t// in\n    tag_40:\n      stop\n        /* \"contracts/MyblogApp.sol\":5590:5713  function getComments(bytes32 _postId) public view returns(Comment[] memory) {... */\n    tag_11:\n      tag_44\n      0x04\n      dup1\n      calldatasize\n      sub\n      dup2\n      add\n      swap1\n      tag_45\n      swap2\n      swap1\n      tag_24\n      jump\t// in\n    tag_45:\n      tag_46\n      jump\t// in\n    tag_44:\n      mload(0x40)\n      tag_47\n      swap2\n      swap1\n      tag_48\n      jump\t// in\n    tag_47:\n      mload(0x40)\n      dup1\n      swap2\n      sub\n      swap1\n      return\n        /* \"contracts/MyblogApp.sol\":5196:5549  function getAllPostsOfUser(address _user) public view returns(Post[] memory) {... */\n    tag_16:\n        /* \"contracts/MyblogApp.sol\":5258:5271  Post[] memory */\n      0x60\n        /* \"contracts/MyblogApp.sol\":5284:5312  bytes32[] memory userPostIds */\n      0x00\n        /* \"contracts/MyblogApp.sol\":5315:5324  userPosts */\n      0x01\n        /* \"contracts/MyblogApp.sol\":5315:5331  userPosts[_user] */\n      0x00\n        /* \"contracts/MyblogApp.sol\":5325:5330  _user */\n      dup5\n        /* \"contracts/MyblogApp.sol\":5315:5331  userPosts[_user] */\n      0xffffffffffffffffffffffffffffffffffffffff\n      and\n      0xffffffffffffffffffffffffffffffffffffffff\n      and\n      dup2\n      mstore\n      0x20\n      add\n      swap1\n      dup2\n      mstore\n      0x20\n      add\n      0x00\n      keccak256\n        /* \"contracts/MyblogApp.sol\":5284:5331  bytes32[] memory userPostIds = userPosts[_user] */\n      dup1\n      sload\n      dup1\n      0x20\n      mul\n      0x20\n      add\n      mload(0x40)\n      swap1\n      dup2\n      add\n      0x40\n      mstore\n      dup1\n      swap3\n      swap2\n      swap1\n      dup2\n      dup2\n      mstore\n      0x20\n      add\n      dup3\n      dup1\n      sload\n      dup1\n      iszero\n      tag_50\n      jumpi\n      0x20\n      mul\n      dup3\n      add\n      swap2\n      swap1\n      0x00\n      mstore\n      keccak256(0x00, 0x20)\n      swap1\n    tag_51:\n      dup2\n      sload\n      dup2\n      mstore\n      0x20\n      add\n      swap1\n      0x01\n      add\n      swap1\n      dup1\n      dup4\n      gt\n      tag_51\n      jumpi\n    tag_50:\n      pop\n      pop\n      pop\n      pop\n      pop\n      swap1\n      pop\n        /* \"contracts/MyblogApp.sol\":5342:5364  Post[] memory allPosts */\n      0x00\n        /* \"contracts/MyblogApp.sol\":5378:5389  userPostIds */\n      dup2\n        /* \"contracts/MyblogApp.sol\":5378:5396  userPostIds.length */\n      mload\n        /* \"contracts/MyblogApp.sol\":5367:5397  new Post[](userPostIds.length) */\n      0xffffffffffffffff\n      dup2\n      gt\n      iszero\n      tag_52\n      jumpi\n      tag_53\n      tag_54\n      jump\t// in\n    tag_53:\n    tag_52:\n      mload(0x40)\n      swap1\n      dup1\n      dup3\n      mstore\n      dup1\n      0x20\n      mul\n      0x20\n      add\n      dup3\n      add\n      0x40\n      mstore\n      dup1\n      iszero\n      tag_55\n      jumpi\n      dup2\n      0x20\n      add\n    tag_56:\n      tag_57\n      tag_58\n      jump\t// in\n    tag_57:\n      dup2\n      mstore\n      0x20\n      add\n      swap1\n      0x01\n      swap1\n      sub\n      swap1\n      dup2\n      tag_56\n      jumpi\n      swap1\n      pop\n    tag_55:\n      pop\n        /* \"contracts/MyblogApp.sol\":5342:5397  Post[] memory allPosts = new Post[](userPostIds.length) */\n      swap1\n      pop\n        /* \"contracts/MyblogApp.sol\":5413:5419  uint i */\n      0x00\n        /* \"contracts/MyblogApp.sol\":5422:5423  0 */\n      0x00\n        /* \"contracts/MyblogApp.sol\":5413:5423  uint i = 0 */\n      swap1\n      pop\n        /* \"contracts/MyblogApp.sol\":5408:5516  for (uint i = 0; i < userPostIds.length; i++) {... */\n    tag_59:\n        /* \"contracts/MyblogApp.sol\":5429:5440  userPostIds */\n      dup3\n        /* \"contracts/MyblogApp.sol\":5429:5447  userPostIds.length */\n      mload\n        /* \"contracts/MyblogApp.sol\":5425:5426  i */\n      dup2\n        /* \"contracts/MyblogApp.sol\":5425:5447  i < userPostIds.length */\n      lt\n        /* \"contracts/MyblogApp.sol\":5408:5516  for (uint i = 0; i < userPostIds.length; i++) {... */\n      iszero\n      tag_60\n      jumpi\n        /* \"contracts/MyblogApp.sol\":5483:5488  posts */\n      0x02\n        /* \"contracts/MyblogApp.sol\":5483:5504  posts[userPostIds[i]] */\n      0x00\n        /* \"contracts/MyblogApp.sol\":5489:5500  userPostIds */\n      dup5\n        /* \"contracts/MyblogApp.sol\":5501:5502  i */\n      dup4\n        /* \"contracts/MyblogApp.sol\":5489:5503  userPostIds[i] */\n      dup2\n      mload\n      dup2\n      lt\n      tag_62\n      jumpi\n      tag_63\n      tag_64\n      jump\t// in\n    tag_63:\n    tag_62:\n      0x20\n      mul\n      0x20\n      add\n      add\n      mload\n        /* \"contracts/MyblogApp.sol\":5483:5504  posts[userPostIds[i]] */\n      dup2\n      mstore\n      0x20\n      add\n      swap1\n      dup2\n      mstore\n      0x20\n      add\n      0x00\n      keccak256\n        /* \"contracts/MyblogApp.sol\":5469:5504  allPosts[i] = posts[userPostIds[i]] */\n      mload(0x40)\n      dup1\n      0xe0\n      add\n      0x40\n      mstore\n      swap1\n      dup2\n      0x00\n      dup3\n      add\n      sload\n      dup2\n      mstore\n      0x20\n      add\n      0x01\n      dup3\n      add\n      dup1\n      sload\n      tag_65\n      swap1\n      tag_66\n      jump\t// in\n    tag_65:\n      dup1\n      0x1f\n      add\n      0x20\n      dup1\n      swap2\n      div\n      mul\n      0x20\n      add\n      mload(0x40)\n      swap1\n      dup2\n      add\n      0x40\n      mstore\n      dup1\n      swap3\n      swap2\n      swap1\n      dup2\n      dup2\n      mstore\n      0x20\n      add\n      dup3\n      dup1\n      sload\n      tag_67\n      swap1\n      tag_66\n      jump\t// in\n    tag_67:\n      dup1\n      iszero\n      tag_68\n      jumpi\n      dup1\n      0x1f\n      lt\n      tag_69\n      jumpi\n      0x0100\n      dup1\n      dup4\n      sload\n      div\n      mul\n      dup4\n      mstore\n      swap2\n      0x20\n      add\n      swap2\n      jump(tag_68)\n    tag_69:\n      dup3\n      add\n      swap2\n      swap1\n      0x00\n      mstore\n      keccak256(0x00, 0x20)\n      swap1\n    tag_70:\n      dup2\n      sload\n      dup2\n      mstore\n      swap1\n      0x01\n      add\n      swap1\n      0x20\n      add\n      dup1\n      dup4\n      gt\n      tag_70\n      jumpi\n      dup3\n      swap1\n      sub\n      0x1f\n      and\n      dup3\n      add\n      swap2\n    tag_68:\n      pop\n      pop\n      pop\n      pop\n      pop\n      dup2\n      mstore\n      0x20\n      add\n      0x02\n      dup3\n      add\n      dup1\n      sload\n      tag_71\n      swap1\n      tag_66\n      jump\t// in\n    tag_71:\n      dup1\n      0x1f\n      add\n      0x20\n      dup1\n      swap2\n      div\n      mul\n      0x20\n      add\n      mload(0x40)\n      swap1\n      dup2\n      add\n      0x40\n      mstore\n      dup1\n      swap3\n      swap2\n      swap1\n      dup2\n      dup2\n      mstore\n      0x20\n      add\n      dup3\n      dup1\n      sload\n      tag_72\n      swap1\n      tag_66\n      jump\t// in\n    tag_72:\n      dup1\n      iszero\n      tag_73\n      jumpi\n      dup1\n      0x1f\n      lt\n      tag_74\n      jumpi\n      0x0100\n      dup1\n      dup4\n      sload\n      div\n      mul\n      dup4\n      mstore\n      swap2\n      0x20\n      add\n      swap2\n      jump(tag_73)\n    tag_74:\n      dup3\n      add\n      swap2\n      swap1\n      0x00\n      mstore\n      keccak256(0x00, 0x20)\n      swap1\n    tag_75:\n      dup2\n      sload\n      dup2\n      mstore\n      swap1\n      0x01\n      add\n      swap1\n      0x20\n      add\n      dup1\n      dup4\n      gt\n      tag_75\n      jumpi\n      dup3\n      swap1\n      sub\n      0x1f\n      and\n      dup3\n      add\n      swap2\n    tag_73:\n      pop\n      pop\n      pop\n      pop\n      pop\n      dup2\n      mstore\n      0x20\n      add\n      0x03\n      dup3\n      add\n      dup1\n      sload\n      tag_76\n      swap1\n      tag_66\n      jump\t// in\n    tag_76:\n      dup1\n      0x1f\n      add\n      0x20\n      dup1\n      swap2\n      div\n      mul\n      0x20\n      add\n      mload(0x40)\n      swap1\n      dup2\n      add\n      0x40\n      mstore\n      dup1\n      swap3\n      swap2\n      swap1\n      dup2\n      dup2\n      mstore\n      0x20\n      add\n      dup3\n      dup1\n      sload\n      tag_77\n      swap1\n      tag_66\n      jump\t// in\n    tag_77:\n      dup1\n      iszero\n      tag_78\n      jumpi\n      dup1\n      0x1f\n      lt\n      tag_79\n      jumpi\n      0x0100\n      dup1\n      dup4\n      sload\n      div\n      mul\n      dup4\n      mstore\n      swap2\n      0x20\n      add\n      swap2\n      jump(tag_78)\n    tag_79:\n      dup3\n      add\n      swap2\n      swap1\n      0x00\n      mstore\n      keccak256(0x00, 0x20)\n      swap1\n    tag_80:\n      dup2\n      sload\n      dup2\n      mstore\n      swap1\n      0x01\n      add\n      swap1\n      0x20\n      add\n      dup1\n      dup4\n      gt\n      tag_80\n      jumpi\n      dup3\n      swap1\n      sub\n      0x1f\n      and\n      dup3\n      add\n      swap2\n    tag_78:\n      pop\n      pop\n      pop\n      pop\n      pop\n      dup2\n      mstore\n      0x20\n      add\n      0x04\n      dup3\n      add\n      sload\n      dup2\n      mstore\n      0x20\n      add\n      0x05\n      dup3\n      add\n      sload\n      dup2\n      mstore\n      0x20\n      add\n      0x06\n      dup3\n      add\n      sload\n      dup2\n      mstore\n      pop\n      pop\n        /* \"contracts/MyblogApp.sol\":5469:5477  allPosts */\n      dup3\n        /* \"contracts/MyblogApp.sol\":5478:5479  i */\n      dup3\n        /* \"contracts/MyblogApp.sol\":5469:5480  allPosts[i] */\n      dup2\n      mload\n      dup2\n      lt\n      tag_81\n      jumpi\n      tag_82\n      tag_64\n      jump\t// in\n    tag_82:\n    tag_81:\n      0x20\n      mul\n      0x20\n      add\n      add\n        /* \"contracts/MyblogApp.sol\":5469:5504  allPosts[i] = posts[userPostIds[i]] */\n      dup2\n      swap1\n      mstore\n      pop\n        /* \"contracts/MyblogApp.sol\":5449:5452  i++ */\n      dup1\n      dup1\n      0x01\n      add\n      swap2\n      pop\n      pop\n        /* \"contracts/MyblogApp.sol\":5408:5516  for (uint i = 0; i < userPostIds.length; i++) {... */\n      jump(tag_59)\n    tag_60:\n      pop\n        /* \"contracts/MyblogApp.sol\":5533:5541  allPosts */\n      dup1\n        /* \"contracts/MyblogApp.sol\":5526:5541  return allPosts */\n      swap3\n      pop\n      pop\n      pop\n        /* \"contracts/MyblogApp.sol\":5196:5549  function getAllPostsOfUser(address _user) public view returns(Post[] memory) {... */\n      swap2\n      swap1\n      pop\n      jump\t// out\n        /* \"contracts/MyblogApp.sol\":4913:5188  function getAllPosts() public view returns(Post[] memory) {... */\n    tag_20:\n        /* \"contracts/MyblogApp.sol\":4956:4969  Post[] memory */\n      0x60\n        /* \"contracts/MyblogApp.sol\":4982:5004  Post[] memory allPosts */\n      0x00\n        /* \"contracts/MyblogApp.sol\":5018:5029  allPostsIds */\n      0x00\n        /* \"contracts/MyblogApp.sol\":5018:5036  allPostsIds.length */\n      dup1\n      sload\n      swap1\n      pop\n        /* \"contracts/MyblogApp.sol\":5007:5037  new Post[](allPostsIds.length) */\n      0xffffffffffffffff\n      dup2\n      gt\n      iszero\n      tag_84\n      jumpi\n      tag_85\n      tag_54\n      jump\t// in\n    tag_85:\n    tag_84:\n      mload(0x40)\n      swap1\n      dup1\n      dup3\n      mstore\n      dup1\n      0x20\n      mul\n      0x20\n      add\n      dup3\n      add\n      0x40\n      mstore\n      dup1\n      iszero\n      tag_86\n      jumpi\n      dup2\n      0x20\n      add\n    tag_87:\n      tag_88\n      tag_58\n      jump\t// in\n    tag_88:\n      dup2\n      mstore\n      0x20\n      add\n      swap1\n      0x01\n      swap1\n      sub\n      swap1\n      dup2\n      tag_87\n      jumpi\n      swap1\n      pop\n    tag_86:\n      pop\n        /* \"contracts/MyblogApp.sol\":4982:5037  Post[] memory allPosts = new Post[](allPostsIds.length) */\n      swap1\n      pop\n        /* \"contracts/MyblogApp.sol\":5052:5058  uint i */\n      0x00\n        /* \"contracts/MyblogApp.sol\":5061:5062  0 */\n      0x00\n        /* \"contracts/MyblogApp.sol\":5052:5062  uint i = 0 */\n      swap1\n      pop\n        /* \"contracts/MyblogApp.sol\":5048:5155  for(uint i = 0; i < allPostsIds.length; i++) {... */\n    tag_89:\n        /* \"contracts/MyblogApp.sol\":5068:5079  allPostsIds */\n      0x00\n        /* \"contracts/MyblogApp.sol\":5068:5086  allPostsIds.length */\n      dup1\n      sload\n      swap1\n      pop\n        /* \"contracts/MyblogApp.sol\":5064:5065  i */\n      dup2\n        /* \"contracts/MyblogApp.sol\":5064:5086  i < allPostsIds.length */\n      lt\n        /* \"contracts/MyblogApp.sol\":5048:5155  for(uint i = 0; i < allPostsIds.length; i++) {... */\n      iszero\n      tag_90\n      jumpi\n        /* \"contracts/MyblogApp.sol\":5122:5127  posts */\n      0x02\n        /* \"contracts/MyblogApp.sol\":5122:5143  posts[allPostsIds[i]] */\n      0x00\n        /* \"contracts/MyblogApp.sol\":5128:5139  allPostsIds */\n      0x00\n        /* \"contracts/MyblogApp.sol\":5140:5141  i */\n      dup4\n        /* \"contracts/MyblogApp.sol\":5128:5142  allPostsIds[i] */\n      dup2\n      sload\n      dup2\n      lt\n      tag_92\n      jumpi\n      tag_93\n      tag_64\n      jump\t// in\n    tag_93:\n    tag_92:\n      swap1\n      0x00\n      mstore\n      keccak256(0x00, 0x20)\n      add\n      sload\n        /* \"contracts/MyblogApp.sol\":5122:5143  posts[allPostsIds[i]] */\n      dup2\n      mstore\n      0x20\n      add\n      swap1\n      dup2\n      mstore\n      0x20\n      add\n      0x00\n      keccak256\n        /* \"contracts/MyblogApp.sol\":5108:5143  allPosts[i] = posts[allPostsIds[i]] */\n      mload(0x40)\n      dup1\n      0xe0\n      add\n      0x40\n      mstore\n      swap1\n      dup2\n      0x00\n      dup3\n      add\n      sload\n      dup2\n      mstore\n      0x20\n      add\n      0x01\n      dup3\n      add\n      dup1\n      sload\n      tag_95\n      swap1\n      tag_66\n      jump\t// in\n    tag_95:\n      dup1\n      0x1f\n      add\n      0x20\n      dup1\n      swap2\n      div\n      mul\n      0x20\n      add\n      mload(0x40)\n      swap1\n      dup2\n      add\n      0x40\n      mstore\n      dup1\n      swap3\n      swap2\n      swap1\n      dup2\n      dup2\n      mstore\n      0x20\n      add\n      dup3\n      dup1\n      sload\n      tag_96\n      swap1\n      tag_66\n      jump\t// in\n    tag_96:\n      dup1\n      iszero\n      tag_97\n      jumpi\n      dup1\n      0x1f\n      lt\n      tag_98\n      jumpi\n      0x0100\n      dup1\n      dup4\n      sload\n      div\n      mul\n      dup4\n      mstore\n      swap2\n      0x20\n      add\n      swap2\n      jump(tag_97)\n    tag_98:\n      dup3\n      add\n      swap2\n      swap1\n      0x00\n      mstore\n      keccak256(0x00, 0x20)\n      swap1\n    tag_99:\n      dup2\n      sload\n      dup2\n      mstore\n      swap1\n      0x01\n      add\n      swap1\n      0x20\n      add\n      dup1\n      dup4\n      gt\n      tag_99\n      jumpi\n      dup3\n      swap1\n      sub\n      0x1f\n      and\n      dup3\n      add\n      swap2\n    tag_97:\n      pop\n      pop\n      pop\n      pop\n      pop\n      dup2\n      mstore\n      0x20\n      add\n      0x02\n      dup3\n      add\n      dup1\n      sload\n      tag_100\n      swap1\n      tag_66\n      jump\t// in\n    tag_100:\n      dup1\n      0x1f\n      add\n      0x20\n      dup1\n      swap2\n      div\n      mul\n      0x20\n      add\n      mload(0x40)\n      swap1\n      dup2\n      add\n      0x40\n      mstore\n      dup1\n      swap3\n      swap2\n      swap1\n      dup2\n      dup2\n      mstore\n      0x20\n      add\n      dup3\n      dup1\n      sload\n      tag_101\n      swap1\n      tag_66\n      jump\t// in\n    tag_101:\n      dup1\n      iszero\n      tag_102\n      jumpi\n      dup1\n      0x1f\n      lt\n      tag_103\n      jumpi\n      0x0100\n      dup1\n      dup4\n      sload\n      div\n      mul\n      dup4\n      mstore\n      swap2\n      0x20\n      add\n      swap2\n      jump(tag_102)\n    tag_103:\n      dup3\n      add\n      swap2\n      swap1\n      0x00\n      mstore\n      keccak256(0x00, 0x20)\n      swap1\n    tag_104:\n      dup2\n      sload\n      dup2\n      mstore\n      swap1\n      0x01\n      add\n      swap1\n      0x20\n      add\n      dup1\n      dup4\n      gt\n      tag_104\n      jumpi\n      dup3\n      swap1\n      sub\n      0x1f\n      and\n      dup3\n      add\n      swap2\n    tag_102:\n      pop\n      pop\n      pop\n      pop\n      pop\n      dup2\n      mstore\n      0x20\n      add\n      0x03\n      dup3\n      add\n      dup1\n      sload\n      tag_105\n      swap1\n      tag_66\n      jump\t// in\n    tag_105:\n      dup1\n      0x1f\n      add\n      0x20\n      dup1\n      swap2\n      div\n      mul\n      0x20\n      add\n      mload(0x40)\n      swap1\n      dup2\n      add\n      0x40\n      mstore\n      dup1\n      swap3\n      swap2\n      swap1\n      dup2\n      dup2\n      mstore\n      0x20\n      add\n      dup3\n      dup1\n      sload\n      tag_106\n      swap1\n      tag_66\n      jump\t// in\n    tag_106:\n      dup1\n      iszero\n      tag_107\n      jumpi\n      dup1\n      0x1f\n      lt\n      tag_108\n      jumpi\n      0x0100\n      dup1\n      dup4\n      sload\n      div\n      mul\n      dup4\n      mstore\n      swap2\n      0x20\n      add\n      swap2\n      jump(tag_107)\n    tag_108:\n      dup3\n      add\n      swap2\n      swap1\n      0x00\n      mstore\n      keccak256(0x00, 0x20)\n      swap1\n    tag_109:\n      dup2\n      sload\n      dup2\n      mstore\n      swap1\n      0x01\n      add\n      swap1\n      0x20\n      add\n      dup1\n      dup4\n      gt\n      tag_109\n      jumpi\n      dup3\n      swap1\n      sub\n      0x1f\n      and\n      dup3\n      add\n      swap2\n    tag_107:\n      pop\n      pop\n      pop\n      pop\n      pop\n      dup2\n      mstore\n      0x20\n      add\n      0x04\n      dup3\n      add\n      sload\n      dup2\n      mstore\n      0x20\n      add\n      0x05\n      dup3\n      add\n      sload\n      dup2\n      mstore\n      0x20\n      add\n      0x06\n      dup3\n      add\n      sload\n      dup2\n      mstore\n      pop\n      pop\n        /* \"contracts/MyblogApp.sol\":5108:5116  allPosts */\n      dup3\n        /* \"contracts/MyblogApp.sol\":5117:5118  i */\n      dup3\n        /* \"contracts/MyblogApp.sol\":5108:5119  allPosts[i] */\n      dup2\n      mload\n      dup2\n      lt\n      tag_110\n      jumpi\n      tag_111\n      tag_64\n      jump\t// in\n    tag_111:\n    tag_110:\n      0x20\n      mul\n      0x20\n      add\n      add\n        /* \"contracts/MyblogApp.sol\":5108:5143  allPosts[i] = posts[allPostsIds[i]] */\n      dup2\n      swap1\n      mstore\n      pop\n        /* \"contracts/MyblogApp.sol\":5088:5091  i++ */\n      dup1\n      dup1\n      0x01\n      add\n      swap2\n      pop\n      pop\n        /* \"contracts/MyblogApp.sol\":5048:5155  for(uint i = 0; i < allPostsIds.length; i++) {... */\n      jump(tag_89)\n    tag_90:\n      pop\n        /* \"contracts/MyblogApp.sol\":5172:5180  allPosts */\n      dup1\n        /* \"contracts/MyblogApp.sol\":5165:5180  return allPosts */\n      swap2\n      pop\n      pop\n        /* \"contracts/MyblogApp.sol\":4913:5188  function getAllPosts() public view returns(Post[] memory) {... */\n      swap1\n      jump\t// out\n        /* \"contracts/MyblogApp.sol\":2646:2992  function downvotePost(bytes32 _postId) public {... */\n    tag_25:\n        /* \"contracts/MyblogApp.sol\":2740:2741  0 */\n      0x00\n        /* \"contracts/MyblogApp.sol\":2732:2742  bytes32(0) */\n      0x00\n      shl\n        /* \"contracts/MyblogApp.sol\":2711:2716  posts */\n      0x02\n        /* \"contracts/MyblogApp.sol\":2711:2725  posts[_postId] */\n      0x00\n        /* \"contracts/MyblogApp.sol\":2717:2724  _postId */\n      dup4\n        /* \"contracts/MyblogApp.sol\":2711:2725  posts[_postId] */\n      dup2\n      mstore\n      0x20\n      add\n      swap1\n      dup2\n      mstore\n      0x20\n      add\n      0x00\n      keccak256\n        /* \"contracts/MyblogApp.sol\":2711:2728  posts[_postId].id */\n      0x00\n      add\n      sload\n        /* \"contracts/MyblogApp.sol\":2711:2742  posts[_postId].id != bytes32(0) */\n      sub\n        /* \"contracts/MyblogApp.sol\":2703:2767  require(posts[_postId].id != bytes32(0), \"Post does not exist.\") */\n      tag_113\n      jumpi\n      mload(0x40)\n      0x08c379a000000000000000000000000000000000000000000000000000000000\n      dup2\n      mstore\n      0x04\n      add\n      tag_114\n      swap1\n      tag_115\n      jump\t// in\n    tag_114:\n      mload(0x40)\n      dup1\n      swap2\n      sub\n      swap1\n      revert\n    tag_113:\n        /* \"contracts/MyblogApp.sol\":2787:2795  hasVoted */\n      0x04\n        /* \"contracts/MyblogApp.sol\":2787:2804  hasVoted[_postId] */\n      0x00\n        /* \"contracts/MyblogApp.sol\":2796:2803  _postId */\n      dup3\n        /* \"contracts/MyblogApp.sol\":2787:2804  hasVoted[_postId] */\n      dup2\n      mstore\n      0x20\n      add\n      swap1\n      dup2\n      mstore\n      0x20\n      add\n      0x00\n      keccak256\n        /* \"contracts/MyblogApp.sol\":2787:2816  hasVoted[_postId][msg.sender] */\n      0x00\n        /* \"contracts/MyblogApp.sol\":2805:2815  msg.sender */\n      caller\n        /* \"contracts/MyblogApp.sol\":2787:2816  hasVoted[_postId][msg.sender] */\n      0xffffffffffffffffffffffffffffffffffffffff\n      and\n      0xffffffffffffffffffffffffffffffffffffffff\n      and\n      dup2\n      mstore\n      0x20\n      add\n      swap1\n      dup2\n      mstore\n      0x20\n      add\n      0x00\n      keccak256\n      0x00\n      swap1\n      sload\n      swap1\n      0x0100\n      exp\n      swap1\n      div\n      0xff\n      and\n        /* \"contracts/MyblogApp.sol\":2786:2816  !hasVoted[_postId][msg.sender] */\n      iszero\n        /* \"contracts/MyblogApp.sol\":2778:2848  require(!hasVoted[_postId][msg.sender], \"Already voted on this post.\") */\n      tag_116\n      jumpi\n      mload(0x40)\n      0x08c379a000000000000000000000000000000000000000000000000000000000\n      dup2\n      mstore\n      0x04\n      add\n      tag_117\n      swap1\n      tag_118\n      jump\t// in\n    tag_117:\n      mload(0x40)\n      dup1\n      swap2\n      sub\n      swap1\n      revert\n    tag_116:\n        /* \"contracts/MyblogApp.sol\":2859:2864  posts */\n      0x02\n        /* \"contracts/MyblogApp.sol\":2859:2873  posts[_postId] */\n      0x00\n        /* \"contracts/MyblogApp.sol\":2865:2872  _postId */\n      dup3\n        /* \"contracts/MyblogApp.sol\":2859:2873  posts[_postId] */\n      dup2\n      mstore\n      0x20\n      add\n      swap1\n      dup2\n      mstore\n      0x20\n      add\n      0x00\n      keccak256\n        /* \"contracts/MyblogApp.sol\":2859:2882  posts[_postId].downvote */\n      0x05\n      add\n      0x00\n        /* \"contracts/MyblogApp.sol\":2859:2884  posts[_postId].downvote++ */\n      dup2\n      sload\n      dup1\n      swap3\n      swap2\n      swap1\n      tag_119\n      swap1\n      tag_120\n      jump\t// in\n    tag_119:\n      swap2\n      swap1\n      pop\n      sstore\n      pop\n        /* \"contracts/MyblogApp.sol\":2927:2931  true */\n      0x01\n        /* \"contracts/MyblogApp.sol\":2895:2903  hasVoted */\n      0x04\n        /* \"contracts/MyblogApp.sol\":2895:2912  hasVoted[_postId] */\n      0x00\n        /* \"contracts/MyblogApp.sol\":2904:2911  _postId */\n      dup4\n        /* \"contracts/MyblogApp.sol\":2895:2912  hasVoted[_postId] */\n      dup2\n      mstore\n      0x20\n      add\n      swap1\n      dup2\n      mstore\n      0x20\n      add\n      0x00\n      keccak256\n        /* \"contracts/MyblogApp.sol\":2895:2924  hasVoted[_postId][msg.sender] */\n      0x00\n        /* \"contracts/MyblogApp.sol\":2913:2923  msg.sender */\n      caller\n        /* \"contracts/MyblogApp.sol\":2895:2924  hasVoted[_postId][msg.sender] */\n      0xffffffffffffffffffffffffffffffffffffffff\n      and\n      0xffffffffffffffffffffffffffffffffffffffff\n      and\n      dup2\n      mstore\n      0x20\n      add\n      swap1\n      dup2\n      mstore\n      0x20\n      add\n      0x00\n      keccak256\n      0x00\n        /* \"contracts/MyblogApp.sol\":2895:2931  hasVoted[_postId][msg.sender] = true */\n      0x0100\n      exp\n      dup2\n      sload\n      dup2\n      0xff\n      mul\n      not\n      and\n      swap1\n      dup4\n      iszero\n      iszero\n      mul\n      or\n      swap1\n      sstore\n      pop\n        /* \"contracts/MyblogApp.sol\":2966:2976  msg.sender */\n      caller\n        /* \"contracts/MyblogApp.sol\":2947:2984  PostVoted(_postId, msg.sender, false) */\n      0xffffffffffffffffffffffffffffffffffffffff\n      and\n        /* \"contracts/MyblogApp.sol\":2957:2964  _postId */\n      dup2\n        /* \"contracts/MyblogApp.sol\":2947:2984  PostVoted(_postId, msg.sender, false) */\n      0xa7e4c5082f867ea22a45a95c2043209b9ce83d70ca31ccb947e67592ea14c4b1\n        /* \"contracts/MyblogApp.sol\":2978:2983  false */\n      0x00\n        /* \"contracts/MyblogApp.sol\":2947:2984  PostVoted(_postId, msg.sender, false) */\n      mload(0x40)\n      tag_121\n      swap2\n      swap1\n      tag_122\n      jump\t// in\n    tag_121:\n      mload(0x40)\n      dup1\n      swap2\n      sub\n      swap1\n      log3\n        /* \"contracts/MyblogApp.sol\":2646:2992  function downvotePost(bytes32 _postId) public {... */\n      pop\n      jump\t// out\n        /* \"contracts/MyblogApp.sol\":3882:4377  function upvoteComment(bytes32 _postId, uint _commentIndex) public {... */\n    tag_29:\n        /* \"contracts/MyblogApp.sol\":3984:3996  postComments */\n      0x03\n        /* \"contracts/MyblogApp.sol\":3984:4005  postComments[_postId] */\n      0x00\n        /* \"contracts/MyblogApp.sol\":3997:4004  _postId */\n      dup4\n        /* \"contracts/MyblogApp.sol\":3984:4005  postComments[_postId] */\n      dup2\n      mstore\n      0x20\n      add\n      swap1\n      dup2\n      mstore\n      0x20\n      add\n      0x00\n      keccak256\n        /* \"contracts/MyblogApp.sol\":3984:4012  postComments[_postId].length */\n      dup1\n      sload\n      swap1\n      pop\n        /* \"contracts/MyblogApp.sol\":3968:3981  _commentIndex */\n      dup2\n        /* \"contracts/MyblogApp.sol\":3968:4012  _commentIndex < postComments[_postId].length */\n      lt\n        /* \"contracts/MyblogApp.sol\":3960:4039  require(_commentIndex < postComments[_postId].length, \"Comment does not exist\") */\n      tag_124\n      jumpi\n      mload(0x40)\n      0x08c379a000000000000000000000000000000000000000000000000000000000\n      dup2\n      mstore\n      0x04\n      add\n      tag_125\n      swap1\n      tag_126\n      jump\t// in\n    tag_125:\n      mload(0x40)\n      dup1\n      swap2\n      sub\n      swap1\n      revert\n    tag_124:\n        /* \"contracts/MyblogApp.sol\":4059:4074  hasVotedComment */\n      0x05\n        /* \"contracts/MyblogApp.sol\":4059:4083  hasVotedComment[_postId] */\n      0x00\n        /* \"contracts/MyblogApp.sol\":4075:4082  _postId */\n      dup4\n        /* \"contracts/MyblogApp.sol\":4059:4083  hasVotedComment[_postId] */\n      dup2\n      mstore\n      0x20\n      add\n      swap1\n      dup2\n      mstore\n      0x20\n      add\n      0x00\n      keccak256\n        /* \"contracts/MyblogApp.sol\":4059:4095  hasVotedComment[_postId][msg.sender] */\n      0x00\n        /* \"contracts/MyblogApp.sol\":4084:4094  msg.sender */\n      caller\n        /* \"contracts/MyblogApp.sol\":4059:4095  hasVotedComment[_postId][msg.sender] */\n      0xffffffffffffffffffffffffffffffffffffffff\n      and\n      0xffffffffffffffffffffffffffffffffffffffff\n      and\n      dup2\n      mstore\n      0x20\n      add\n      swap1\n      dup2\n      mstore\n      0x20\n      add\n      0x00\n      keccak256\n        /* \"contracts/MyblogApp.sol\":4059:4110  hasVotedComment[_postId][msg.sender][_commentIndex] */\n      0x00\n        /* \"contracts/MyblogApp.sol\":4096:4109  _commentIndex */\n      dup3\n        /* \"contracts/MyblogApp.sol\":4059:4110  hasVotedComment[_postId][msg.sender][_commentIndex] */\n      dup2\n      mstore\n      0x20\n      add\n      swap1\n      dup2\n      mstore\n      0x20\n      add\n      0x00\n      keccak256\n      0x00\n      swap1\n      sload\n      swap1\n      0x0100\n      exp\n      swap1\n      div\n      0xff\n      and\n        /* \"contracts/MyblogApp.sol\":4058:4110  !hasVotedComment[_postId][msg.sender][_commentIndex] */\n      iszero\n        /* \"contracts/MyblogApp.sol\":4050:4144  require(!hasVotedComment[_postId][msg.sender][_commentIndex], \"Already voted on this comment\") */\n      tag_127\n      jumpi\n      mload(0x40)\n      0x08c379a000000000000000000000000000000000000000000000000000000000\n      dup2\n      mstore\n      0x04\n      add\n      tag_128\n      swap1\n      tag_129\n      jump\t// in\n    tag_128:\n      mload(0x40)\n      dup1\n      swap2\n      sub\n      swap1\n      revert\n    tag_127:\n        /* \"contracts/MyblogApp.sol\":4157:4169  postComments */\n      0x03\n        /* \"contracts/MyblogApp.sol\":4157:4178  postComments[_postId] */\n      0x00\n        /* \"contracts/MyblogApp.sol\":4170:4177  _postId */\n      dup4\n        /* \"contracts/MyblogApp.sol\":4157:4178  postComments[_postId] */\n      dup2\n      mstore\n      0x20\n      add\n      swap1\n      dup2\n      mstore\n      0x20\n      add\n      0x00\n      keccak256\n        /* \"contracts/MyblogApp.sol\":4179:4192  _commentIndex */\n      dup2\n        /* \"contracts/MyblogApp.sol\":4157:4193  postComments[_postId][_commentIndex] */\n      dup2\n      sload\n      dup2\n      lt\n      tag_130\n      jumpi\n      tag_131\n      tag_64\n      jump\t// in\n    tag_131:\n    tag_130:\n      swap1\n      0x00\n      mstore\n      keccak256(0x00, 0x20)\n      swap1\n      0x07\n      mul\n      add\n        /* \"contracts/MyblogApp.sol\":4157:4200  postComments[_postId][_commentIndex].upvote */\n      0x04\n      add\n      0x00\n        /* \"contracts/MyblogApp.sol\":4157:4202  postComments[_postId][_commentIndex].upvote++ */\n      dup2\n      sload\n      dup1\n      swap3\n      swap2\n      swap1\n      tag_133\n      swap1\n      tag_120\n      jump\t// in\n    tag_133:\n      swap2\n      swap1\n      pop\n      sstore\n      pop\n        /* \"contracts/MyblogApp.sol\":4267:4271  true */\n      0x01\n        /* \"contracts/MyblogApp.sol\":4213:4228  hasVotedComment */\n      0x05\n        /* \"contracts/MyblogApp.sol\":4213:4237  hasVotedComment[_postId] */\n      0x00\n        /* \"contracts/MyblogApp.sol\":4229:4236  _postId */\n      dup5\n        /* \"contracts/MyblogApp.sol\":4213:4237  hasVotedComment[_postId] */\n      dup2\n      mstore\n      0x20\n      add\n      swap1\n      dup2\n      mstore\n      0x20\n      add\n      0x00\n      keccak256\n        /* \"contracts/MyblogApp.sol\":4213:4249  hasVotedComment[_postId][msg.sender] */\n      0x00\n        /* \"contracts/MyblogApp.sol\":4238:4248  msg.sender */\n      caller\n        /* \"contracts/MyblogApp.sol\":4213:4249  hasVotedComment[_postId][msg.sender] */\n      0xffffffffffffffffffffffffffffffffffffffff\n      and\n      0xffffffffffffffffffffffffffffffffffffffff\n      and\n      dup2\n      mstore\n      0x20\n      add\n      swap1\n      dup2\n      mstore\n      0x20\n      add\n      0x00\n      keccak256\n        /* \"contracts/MyblogApp.sol\":4213:4264  hasVotedComment[_postId][msg.sender][_commentIndex] */\n      0x00\n        /* \"contracts/MyblogApp.sol\":4250:4263  _commentIndex */\n      dup4\n        /* \"contracts/MyblogApp.sol\":4213:4264  hasVotedComment[_postId][msg.sender][_commentIndex] */\n      dup2\n      mstore\n      0x20\n      add\n      swap1\n      dup2\n      mstore\n      0x20\n      add\n      0x00\n      keccak256\n      0x00\n        /* \"contracts/MyblogApp.sol\":4213:4271  hasVotedComment[_postId][msg.sender][_commentIndex] = true */\n      0x0100\n      exp\n      dup2\n      sload\n      dup2\n      0xff\n      mul\n      not\n      and\n      swap1\n      dup4\n      iszero\n      iszero\n      mul\n      or\n      swap1\n      sstore\n      pop\n        /* \"contracts/MyblogApp.sol\":4311:4323  postComments */\n      0x03\n        /* \"contracts/MyblogApp.sol\":4311:4332  postComments[_postId] */\n      0x00\n        /* \"contracts/MyblogApp.sol\":4324:4331  _postId */\n      dup4\n        /* \"contracts/MyblogApp.sol\":4311:4332  postComments[_postId] */\n      dup2\n      mstore\n      0x20\n      add\n      swap1\n      dup2\n      mstore\n      0x20\n      add\n      0x00\n      keccak256\n        /* \"contracts/MyblogApp.sol\":4333:4346  _commentIndex */\n      dup2\n        /* \"contracts/MyblogApp.sol\":4311:4347  postComments[_postId][_commentIndex] */\n      dup2\n      sload\n      dup2\n      lt\n      tag_134\n      jumpi\n      tag_135\n      tag_64\n      jump\t// in\n    tag_135:\n    tag_134:\n      swap1\n      0x00\n      mstore\n      keccak256(0x00, 0x20)\n      swap1\n      0x07\n      mul\n      add\n        /* \"contracts/MyblogApp.sol\":4311:4350  postComments[_postId][_commentIndex].id */\n      0x00\n      add\n      sload\n        /* \"contracts/MyblogApp.sol\":4302:4309  _postId */\n      dup3\n        /* \"contracts/MyblogApp.sol\":4289:4369  CommentVoted(_postId, postComments[_postId][_commentIndex].id, msg.sender, true) */\n      0xa718b91703005c7ff3c85ef47cb2b96b8bf518a0934598a085e074a84ad79ba1\n        /* \"contracts/MyblogApp.sol\":4352:4362  msg.sender */\n      caller\n        /* \"contracts/MyblogApp.sol\":4364:4368  true */\n      0x01\n        /* \"contracts/MyblogApp.sol\":4289:4369  CommentVoted(_postId, postComments[_postId][_commentIndex].id, msg.sender, true) */\n      mload(0x40)\n      tag_137\n      swap3\n      swap2\n      swap1\n      tag_138\n      jump\t// in\n    tag_137:\n      mload(0x40)\n      dup1\n      swap2\n      sub\n      swap1\n      log3\n        /* \"contracts/MyblogApp.sol\":3882:4377  function upvoteComment(bytes32 _postId, uint _commentIndex) public {... */\n      pop\n      pop\n      jump\t// out\n        /* \"contracts/MyblogApp.sol\":3028:3842  function addComment(bytes32 _postId, string memory _commenterName, string memory _content) public {... */\n    tag_33:\n        /* \"contracts/MyblogApp.sol\":3174:3175  0 */\n      0x00\n        /* \"contracts/MyblogApp.sol\":3166:3176  bytes32(0) */\n      0x00\n      shl\n        /* \"contracts/MyblogApp.sol\":3145:3150  posts */\n      0x02\n        /* \"contracts/MyblogApp.sol\":3145:3159  posts[_postId] */\n      0x00\n        /* \"contracts/MyblogApp.sol\":3151:3158  _postId */\n      dup6\n        /* \"contracts/MyblogApp.sol\":3145:3159  posts[_postId] */\n      dup2\n      mstore\n      0x20\n      add\n      swap1\n      dup2\n      mstore\n      0x20\n      add\n      0x00\n      keccak256\n        /* \"contracts/MyblogApp.sol\":3145:3162  posts[_postId].id */\n      0x00\n      add\n      sload\n        /* \"contracts/MyblogApp.sol\":3145:3176  posts[_postId].id != bytes32(0) */\n      sub\n        /* \"contracts/MyblogApp.sol\":3137:3201  require(posts[_postId].id != bytes32(0), \"Post does not exist.\") */\n      tag_140\n      jumpi\n      mload(0x40)\n      0x08c379a000000000000000000000000000000000000000000000000000000000\n      dup2\n      mstore\n      0x04\n      add\n      tag_141\n      swap1\n      tag_115\n      jump\t// in\n    tag_141:\n      mload(0x40)\n      dup1\n      swap2\n      sub\n      swap1\n      revert\n    tag_140:\n        /* \"contracts/MyblogApp.sol\":3252:3254  32 */\n      0x20\n        /* \"contracts/MyblogApp.sol\":3226:3240  _commenterName */\n      dup3\n        /* \"contracts/MyblogApp.sol\":3220:3248  bytes(_commenterName).length */\n      mload\n        /* \"contracts/MyblogApp.sol\":3220:3254  bytes(_commenterName).length <= 32 */\n      gt\n      iszero\n        /* \"contracts/MyblogApp.sol\":3212:3282  require(bytes(_commenterName).length <= 32, \"Commenter name too long\") */\n      tag_142\n      jumpi\n      mload(0x40)\n      0x08c379a000000000000000000000000000000000000000000000000000000000\n      dup2\n      mstore\n      0x04\n      add\n      tag_143\n      swap1\n      tag_144\n      jump\t// in\n    tag_143:\n      mload(0x40)\n      dup1\n      swap2\n      sub\n      swap1\n      revert\n    tag_142:\n        /* \"contracts/MyblogApp.sol\":3295:3312  bytes32 commentId */\n      0x00\n        /* \"contracts/MyblogApp.sol\":3342:3352  msg.sender */\n      caller\n        /* \"contracts/MyblogApp.sol\":3354:3369  block.timestamp */\n      timestamp\n        /* \"contracts/MyblogApp.sol\":3371:3379  _content */\n      dup4\n        /* \"contracts/MyblogApp.sol\":3325:3380  abi.encodePacked(msg.sender, block.timestamp, _content) */\n      add(0x20, mload(0x40))\n      tag_145\n      swap4\n      swap3\n      swap2\n      swap1\n      tag_146\n      jump\t// in\n    tag_145:\n      mload(0x40)\n      0x20\n      dup2\n      dup4\n      sub\n      sub\n      dup2\n      mstore\n      swap1\n      0x40\n      mstore\n        /* \"contracts/MyblogApp.sol\":3315:3381  keccak256(abi.encodePacked(msg.sender, block.timestamp, _content)) */\n      dup1\n      mload\n      swap1\n      0x20\n      add\n      keccak256\n        /* \"contracts/MyblogApp.sol\":3295:3381  bytes32 commentId = keccak256(abi.encodePacked(msg.sender, block.timestamp, _content)) */\n      swap1\n      pop\n        /* \"contracts/MyblogApp.sol\":3392:3417  Comment memory newComment */\n      0x00\n        /* \"contracts/MyblogApp.sol\":3420:3678  Comment({... */\n      mload(0x40)\n      dup1\n      0xe0\n      add\n      0x40\n      mstore\n      dup1\n        /* \"contracts/MyblogApp.sol\":3447:3456  commentId */\n      dup4\n        /* \"contracts/MyblogApp.sol\":3420:3678  Comment({... */\n      dup2\n      mstore\n      0x20\n      add\n        /* \"contracts/MyblogApp.sol\":3489:3499  msg.sender */\n      caller\n        /* \"contracts/MyblogApp.sol\":3420:3678  Comment({... */\n      0xffffffffffffffffffffffffffffffffffffffff\n      and\n      dup2\n      mstore\n      0x20\n      add\n        /* \"contracts/MyblogApp.sol\":3529:3543  _commenterName */\n      dup6\n        /* \"contracts/MyblogApp.sol\":3420:3678  Comment({... */\n      dup2\n      mstore\n      0x20\n      add\n        /* \"contracts/MyblogApp.sol\":3567:3575  _content */\n      dup5\n        /* \"contracts/MyblogApp.sol\":3420:3678  Comment({... */\n      dup2\n      mstore\n      0x20\n      add\n        /* \"contracts/MyblogApp.sol\":3598:3599  0 */\n      0x00\n        /* \"contracts/MyblogApp.sol\":3420:3678  Comment({... */\n      dup2\n      mstore\n      0x20\n      add\n        /* \"contracts/MyblogApp.sol\":3624:3625  0 */\n      0x00\n        /* \"contracts/MyblogApp.sol\":3420:3678  Comment({... */\n      dup2\n      mstore\n      0x20\n      add\n        /* \"contracts/MyblogApp.sol\":3651:3666  block.timestamp */\n      timestamp\n        /* \"contracts/MyblogApp.sol\":3420:3678  Comment({... */\n      dup2\n      mstore\n      pop\n        /* \"contracts/MyblogApp.sol\":3392:3678  Comment memory newComment = Comment({... */\n      swap1\n      pop\n        /* \"contracts/MyblogApp.sol\":3691:3703  postComments */\n      0x03\n        /* \"contracts/MyblogApp.sol\":3691:3712  postComments[_postId] */\n      0x00\n        /* \"contracts/MyblogApp.sol\":3704:3711  _postId */\n      dup7\n        /* \"contracts/MyblogApp.sol\":3691:3712  postComments[_postId] */\n      dup2\n      mstore\n      0x20\n      add\n      swap1\n      dup2\n      mstore\n      0x20\n      add\n      0x00\n      keccak256\n        /* \"contracts/MyblogApp.sol\":3718:3728  newComment */\n      dup2\n        /* \"contracts/MyblogApp.sol\":3691:3729  postComments[_postId].push(newComment) */\n      swap1\n      dup1\n      0x01\n      dup2\n      sload\n      add\n      dup1\n      dup3\n      sstore\n      dup1\n      swap2\n      pop\n      pop\n      0x01\n      swap1\n      sub\n      swap1\n      0x00\n      mstore\n      keccak256(0x00, 0x20)\n      swap1\n      0x07\n      mul\n      add\n      0x00\n      swap1\n      swap2\n      swap1\n      swap2\n      swap1\n      swap2\n      pop\n      0x00\n      dup3\n      add\n      mload\n      dup2\n      0x00\n      add\n      sstore\n      0x20\n      dup3\n      add\n      mload\n      dup2\n      0x01\n      add\n      exp(0x0100, 0x00)\n      dup2\n      sload\n      dup2\n      0xffffffffffffffffffffffffffffffffffffffff\n      mul\n      not\n      and\n      swap1\n      dup4\n      0xffffffffffffffffffffffffffffffffffffffff\n      and\n      mul\n      or\n      swap1\n      sstore\n      pop\n      0x40\n      dup3\n      add\n      mload\n      dup2\n      0x02\n      add\n      swap1\n      dup2\n      tag_148\n      swap2\n      swap1\n      tag_149\n      jump\t// in\n    tag_148:\n      pop\n      0x60\n      dup3\n      add\n      mload\n      dup2\n      0x03\n      add\n      swap1\n      dup2\n      tag_150\n      swap2\n      swap1\n      tag_149\n      jump\t// in\n    tag_150:\n      pop\n      0x80\n      dup3\n      add\n      mload\n      dup2\n      0x04\n      add\n      sstore\n      0xa0\n      dup3\n      add\n      mload\n      dup2\n      0x05\n      add\n      sstore\n      0xc0\n      dup3\n      add\n      mload\n      dup2\n      0x06\n      add\n      sstore\n      pop\n      pop\n        /* \"contracts/MyblogApp.sol\":3769:3778  commentId */\n      dup2\n        /* \"contracts/MyblogApp.sol\":3760:3767  _postId */\n      dup6\n        /* \"contracts/MyblogApp.sol\":3747:3834  CommentAdded(_postId, commentId, msg.sender, _commenterName, _content, block.timestamp) */\n      0x121f72518586f939bfb34c62bbf7d31b0a8ae8ecbcac0869550705ee4cff80f5\n        /* \"contracts/MyblogApp.sol\":3780:3790  msg.sender */\n      caller\n        /* \"contracts/MyblogApp.sol\":3792:3806  _commenterName */\n      dup8\n        /* \"contracts/MyblogApp.sol\":3808:3816  _content */\n      dup8\n        /* \"contracts/MyblogApp.sol\":3818:3833  block.timestamp */\n      timestamp\n        /* \"contracts/MyblogApp.sol\":3747:3834  CommentAdded(_postId, commentId, msg.sender, _commenterName, _content, block.timestamp) */\n      mload(0x40)\n      tag_151\n      swap5\n      swap4\n      swap3\n      swap2\n      swap1\n      tag_152\n      jump\t// in\n    tag_151:\n      mload(0x40)\n      dup1\n      swap2\n      sub\n      swap1\n      log3\n        /* \"contracts/MyblogApp.sol\":3126:3842  {... */\n      pop\n      pop\n        /* \"contracts/MyblogApp.sol\":3028:3842  function addComment(bytes32 _postId, string memory _commenterName, string memory _content) public {... */\n      pop\n      pop\n      pop\n      jump\t// out\n        /* \"contracts/MyblogApp.sol\":4385:4885  function downvoteComment(bytes32 _postId, uint _commentIndex) public {... */\n    tag_36:\n        /* \"contracts/MyblogApp.sol\":4489:4501  postComments */\n      0x03\n        /* \"contracts/MyblogApp.sol\":4489:4510  postComments[_postId] */\n      0x00\n        /* \"contracts/MyblogApp.sol\":4502:4509  _postId */\n      dup4\n        /* \"contracts/MyblogApp.sol\":4489:4510  postComments[_postId] */\n      dup2\n      mstore\n      0x20\n      add\n      swap1\n      dup2\n      mstore\n      0x20\n      add\n      0x00\n      keccak256\n        /* \"contracts/MyblogApp.sol\":4489:4517  postComments[_postId].length */\n      dup1\n      sload\n      swap1\n      pop\n        /* \"contracts/MyblogApp.sol\":4473:4486  _commentIndex */\n      dup2\n        /* \"contracts/MyblogApp.sol\":4473:4517  _commentIndex < postComments[_postId].length */\n      lt\n        /* \"contracts/MyblogApp.sol\":4465:4544  require(_commentIndex < postComments[_postId].length, \"Comment does not exist\") */\n      tag_154\n      jumpi\n      mload(0x40)\n      0x08c379a000000000000000000000000000000000000000000000000000000000\n      dup2\n      mstore\n      0x04\n      add\n      tag_155\n      swap1\n      tag_126\n      jump\t// in\n    tag_155:\n      mload(0x40)\n      dup1\n      swap2\n      sub\n      swap1\n      revert\n    tag_154:\n        /* \"contracts/MyblogApp.sol\":4564:4579  hasVotedComment */\n      0x05\n        /* \"contracts/MyblogApp.sol\":4564:4588  hasVotedComment[_postId] */\n      0x00\n        /* \"contracts/MyblogApp.sol\":4580:4587  _postId */\n      dup4\n        /* \"contracts/MyblogApp.sol\":4564:4588  hasVotedComment[_postId] */\n      dup2\n      mstore\n      0x20\n      add\n      swap1\n      dup2\n      mstore\n      0x20\n      add\n      0x00\n      keccak256\n        /* \"contracts/MyblogApp.sol\":4564:4600  hasVotedComment[_postId][msg.sender] */\n      0x00\n        /* \"contracts/MyblogApp.sol\":4589:4599  msg.sender */\n      caller\n        /* \"contracts/MyblogApp.sol\":4564:4600  hasVotedComment[_postId][msg.sender] */\n      0xffffffffffffffffffffffffffffffffffffffff\n      and\n      0xffffffffffffffffffffffffffffffffffffffff\n      and\n      dup2\n      mstore\n      0x20\n      add\n      swap1\n      dup2\n      mstore\n      0x20\n      add\n      0x00\n      keccak256\n        /* \"contracts/MyblogApp.sol\":4564:4615  hasVotedComment[_postId][msg.sender][_commentIndex] */\n      0x00\n        /* \"contracts/MyblogApp.sol\":4601:4614  _commentIndex */\n      dup3\n        /* \"contracts/MyblogApp.sol\":4564:4615  hasVotedComment[_postId][msg.sender][_commentIndex] */\n      dup2\n      mstore\n      0x20\n      add\n      swap1\n      dup2\n      mstore\n      0x20\n      add\n      0x00\n      keccak256\n      0x00\n      swap1\n      sload\n      swap1\n      0x0100\n      exp\n      swap1\n      div\n      0xff\n      and\n        /* \"contracts/MyblogApp.sol\":4563:4615  !hasVotedComment[_postId][msg.sender][_commentIndex] */\n      iszero\n        /* \"contracts/MyblogApp.sol\":4555:4649  require(!hasVotedComment[_postId][msg.sender][_commentIndex], \"Already voted on this comment\") */\n      tag_156\n      jumpi\n      mload(0x40)\n      0x08c379a000000000000000000000000000000000000000000000000000000000\n      dup2\n      mstore\n      0x04\n      add\n      tag_157\n      swap1\n      tag_129\n      jump\t// in\n    tag_157:\n      mload(0x40)\n      dup1\n      swap2\n      sub\n      swap1\n      revert\n    tag_156:\n        /* \"contracts/MyblogApp.sol\":4662:4674  postComments */\n      0x03\n        /* \"contracts/MyblogApp.sol\":4662:4683  postComments[_postId] */\n      0x00\n        /* \"contracts/MyblogApp.sol\":4675:4682  _postId */\n      dup4\n        /* \"contracts/MyblogApp.sol\":4662:4683  postComments[_postId] */\n      dup2\n      mstore\n      0x20\n      add\n      swap1\n      dup2\n      mstore\n      0x20\n      add\n      0x00\n      keccak256\n        /* \"contracts/MyblogApp.sol\":4684:4697  _commentIndex */\n      dup2\n        /* \"contracts/MyblogApp.sol\":4662:4698  postComments[_postId][_commentIndex] */\n      dup2\n      sload\n      dup2\n      lt\n      tag_158\n      jumpi\n      tag_159\n      tag_64\n      jump\t// in\n    tag_159:\n    tag_158:\n      swap1\n      0x00\n      mstore\n      keccak256(0x00, 0x20)\n      swap1\n      0x07\n      mul\n      add\n        /* \"contracts/MyblogApp.sol\":4662:4707  postComments[_postId][_commentIndex].downvote */\n      0x05\n      add\n      0x00\n        /* \"contracts/MyblogApp.sol\":4662:4709  postComments[_postId][_commentIndex].downvote++ */\n      dup2\n      sload\n      dup1\n      swap3\n      swap2\n      swap1\n      tag_161\n      swap1\n      tag_120\n      jump\t// in\n    tag_161:\n      swap2\n      swap1\n      pop\n      sstore\n      pop\n        /* \"contracts/MyblogApp.sol\":4774:4778  true */\n      0x01\n        /* \"contracts/MyblogApp.sol\":4720:4735  hasVotedComment */\n      0x05\n        /* \"contracts/MyblogApp.sol\":4720:4744  hasVotedComment[_postId] */\n      0x00\n        /* \"contracts/MyblogApp.sol\":4736:4743  _postId */\n      dup5\n        /* \"contracts/MyblogApp.sol\":4720:4744  hasVotedComment[_postId] */\n      dup2\n      mstore\n      0x20\n      add\n      swap1\n      dup2\n      mstore\n      0x20\n      add\n      0x00\n      keccak256\n        /* \"contracts/MyblogApp.sol\":4720:4756  hasVotedComment[_postId][msg.sender] */\n      0x00\n        /* \"contracts/MyblogApp.sol\":4745:4755  msg.sender */\n      caller\n        /* \"contracts/MyblogApp.sol\":4720:4756  hasVotedComment[_postId][msg.sender] */\n      0xffffffffffffffffffffffffffffffffffffffff\n      and\n      0xffffffffffffffffffffffffffffffffffffffff\n      and\n      dup2\n      mstore\n      0x20\n      add\n      swap1\n      dup2\n      mstore\n      0x20\n      add\n      0x00\n      keccak256\n        /* \"contracts/MyblogApp.sol\":4720:4771  hasVotedComment[_postId][msg.sender][_commentIndex] */\n      0x00\n        /* \"contracts/MyblogApp.sol\":4757:4770  _commentIndex */\n      dup4\n        /* \"contracts/MyblogApp.sol\":4720:4771  hasVotedComment[_postId][msg.sender][_commentIndex] */\n      dup2\n      mstore\n      0x20\n      add\n      swap1\n      dup2\n      mstore\n      0x20\n      add\n      0x00\n      keccak256\n      0x00\n        /* \"contracts/MyblogApp.sol\":4720:4778  hasVotedComment[_postId][msg.sender][_commentIndex] = true */\n      0x0100\n      exp\n      dup2\n      sload\n      dup2\n      0xff\n      mul\n      not\n      and\n      swap1\n      dup4\n      iszero\n      iszero\n      mul\n      or\n      swap1\n      sstore\n      pop\n        /* \"contracts/MyblogApp.sol\":4818:4830  postComments */\n      0x03\n        /* \"contracts/MyblogApp.sol\":4818:4839  postComments[_postId] */\n      0x00\n        /* \"contracts/MyblogApp.sol\":4831:4838  _postId */\n      dup4\n        /* \"contracts/MyblogApp.sol\":4818:4839  postComments[_postId] */\n      dup2\n      mstore\n      0x20\n      add\n      swap1\n      dup2\n      mstore\n      0x20\n      add\n      0x00\n      keccak256\n        /* \"contracts/MyblogApp.sol\":4840:4853  _commentIndex */\n      dup2\n        /* \"contracts/MyblogApp.sol\":4818:4854  postComments[_postId][_commentIndex] */\n      dup2\n      sload\n      dup2\n      lt\n      tag_162\n      jumpi\n      tag_163\n      tag_64\n      jump\t// in\n    tag_163:\n    tag_162:\n      swap1\n      0x00\n      mstore\n      keccak256(0x00, 0x20)\n      swap1\n      0x07\n      mul\n      add\n        /* \"contracts/MyblogApp.sol\":4818:4857  postComments[_postId][_commentIndex].id */\n      0x00\n      add\n      sload\n        /* \"contracts/MyblogApp.sol\":4809:4816  _postId */\n      dup3\n        /* \"contracts/MyblogApp.sol\":4796:4877  CommentVoted(_postId, postComments[_postId][_commentIndex].id, msg.sender, false) */\n      0xa718b91703005c7ff3c85ef47cb2b96b8bf518a0934598a085e074a84ad79ba1\n        /* \"contracts/MyblogApp.sol\":4859:4869  msg.sender */\n      caller\n        /* \"contracts/MyblogApp.sol\":4871:4876  false */\n      0x00\n        /* \"contracts/MyblogApp.sol\":4796:4877  CommentVoted(_postId, postComments[_postId][_commentIndex].id, msg.sender, false) */\n      mload(0x40)\n      tag_165\n      swap3\n      swap2\n      swap1\n      tag_138\n      jump\t// in\n    tag_165:\n      mload(0x40)\n      dup1\n      swap2\n      sub\n      swap1\n      log3\n        /* \"contracts/MyblogApp.sol\":4385:4885  function downvoteComment(bytes32 _postId, uint _commentIndex) public {... */\n      pop\n      pop\n      jump\t// out\n        /* \"contracts/MyblogApp.sol\":2297:2638  function upvotePost(bytes32 _postId) public {... */\n    tag_39:\n        /* \"contracts/MyblogApp.sol\":2389:2390  0 */\n      0x00\n        /* \"contracts/MyblogApp.sol\":2381:2391  bytes32(0) */\n      0x00\n      shl\n        /* \"contracts/MyblogApp.sol\":2360:2365  posts */\n      0x02\n        /* \"contracts/MyblogApp.sol\":2360:2374  posts[_postId] */\n      0x00\n        /* \"contracts/MyblogApp.sol\":2366:2373  _postId */\n      dup4\n        /* \"contracts/MyblogApp.sol\":2360:2374  posts[_postId] */\n      dup2\n      mstore\n      0x20\n      add\n      swap1\n      dup2\n      mstore\n      0x20\n      add\n      0x00\n      keccak256\n        /* \"contracts/MyblogApp.sol\":2360:2377  posts[_postId].id */\n      0x00\n      add\n      sload\n        /* \"contracts/MyblogApp.sol\":2360:2391  posts[_postId].id != bytes32(0) */\n      sub\n        /* \"contracts/MyblogApp.sol\":2352:2416  require(posts[_postId].id != bytes32(0), \"Post does not exist.\") */\n      tag_167\n      jumpi\n      mload(0x40)\n      0x08c379a000000000000000000000000000000000000000000000000000000000\n      dup2\n      mstore\n      0x04\n      add\n      tag_168\n      swap1\n      tag_115\n      jump\t// in\n    tag_168:\n      mload(0x40)\n      dup1\n      swap2\n      sub\n      swap1\n      revert\n    tag_167:\n        /* \"contracts/MyblogApp.sol\":2436:2444  hasVoted */\n      0x04\n        /* \"contracts/MyblogApp.sol\":2436:2453  hasVoted[_postId] */\n      0x00\n        /* \"contracts/MyblogApp.sol\":2445:2452  _postId */\n      dup3\n        /* \"contracts/MyblogApp.sol\":2436:2453  hasVoted[_postId] */\n      dup2\n      mstore\n      0x20\n      add\n      swap1\n      dup2\n      mstore\n      0x20\n      add\n      0x00\n      keccak256\n        /* \"contracts/MyblogApp.sol\":2436:2465  hasVoted[_postId][msg.sender] */\n      0x00\n        /* \"contracts/MyblogApp.sol\":2454:2464  msg.sender */\n      caller\n        /* \"contracts/MyblogApp.sol\":2436:2465  hasVoted[_postId][msg.sender] */\n      0xffffffffffffffffffffffffffffffffffffffff\n      and\n      0xffffffffffffffffffffffffffffffffffffffff\n      and\n      dup2\n      mstore\n      0x20\n      add\n      swap1\n      dup2\n      mstore\n      0x20\n      add\n      0x00\n      keccak256\n      0x00\n      swap1\n      sload\n      swap1\n      0x0100\n      exp\n      swap1\n      div\n      0xff\n      and\n        /* \"contracts/MyblogApp.sol\":2435:2465  !hasVoted[_postId][msg.sender] */\n      iszero\n        /* \"contracts/MyblogApp.sol\":2427:2497  require(!hasVoted[_postId][msg.sender], \"Already voted on this post.\") */\n      tag_169\n      jumpi\n      mload(0x40)\n      0x08c379a000000000000000000000000000000000000000000000000000000000\n      dup2\n      mstore\n      0x04\n      add\n      tag_170\n      swap1\n      tag_118\n      jump\t// in\n    tag_170:\n      mload(0x40)\n      dup1\n      swap2\n      sub\n      swap1\n      revert\n    tag_169:\n        /* \"contracts/MyblogApp.sol\":2508:2513  posts */\n      0x02\n        /* \"contracts/MyblogApp.sol\":2508:2522  posts[_postId] */\n      0x00\n        /* \"contracts/MyblogApp.sol\":2514:2521  _postId */\n      dup3\n        /* \"contracts/MyblogApp.sol\":2508:2522  posts[_postId] */\n      dup2\n      mstore\n      0x20\n      add\n      swap1\n      dup2\n      mstore\n      0x20\n      add\n      0x00\n      keccak256\n        /* \"contracts/MyblogApp.sol\":2508:2529  posts[_postId].upvote */\n      0x04\n      add\n      0x00\n        /* \"contracts/MyblogApp.sol\":2508:2531  posts[_postId].upvote++ */\n      dup2\n      sload\n      dup1\n      swap3\n      swap2\n      swap1\n      tag_171\n      swap1\n      tag_120\n      jump\t// in\n    tag_171:\n      swap2\n      swap1\n      pop\n      sstore\n      pop\n        /* \"contracts/MyblogApp.sol\":2574:2578  true */\n      0x01\n        /* \"contracts/MyblogApp.sol\":2542:2550  hasVoted */\n      0x04\n        /* \"contracts/MyblogApp.sol\":2542:2559  hasVoted[_postId] */\n      0x00\n        /* \"contracts/MyblogApp.sol\":2551:2558  _postId */\n      dup4\n        /* \"contracts/MyblogApp.sol\":2542:2559  hasVoted[_postId] */\n      dup2\n      mstore\n      0x20\n      add\n      swap1\n      dup2\n      mstore\n      0x20\n      add\n      0x00\n      keccak256\n        /* \"contracts/MyblogApp.sol\":2542:2571  hasVoted[_postId][msg.sender] */\n      0x00\n        /* \"contracts/MyblogApp.sol\":2560:2570  msg.sender */\n      caller\n        /* \"contracts/MyblogApp.sol\":2542:2571  hasVoted[_postId][msg.sender] */\n      0xffffffffffffffffffffffffffffffffffffffff\n      and\n      0xffffffffffffffffffffffffffffffffffffffff\n      and\n      dup2\n      mstore\n      0x20\n      add\n      swap1\n      dup2\n      mstore\n      0x20\n      add\n      0x00\n      keccak256\n      0x00\n        /* \"contracts/MyblogApp.sol\":2542:2578  hasVoted[_postId][msg.sender] = true */\n      0x0100\n      exp\n      dup2\n      sload\n      dup2\n      0xff\n      mul\n      not\n      and\n      swap1\n      dup4\n      iszero\n      iszero\n      mul\n      or\n      swap1\n      sstore\n      pop\n        /* \"contracts/MyblogApp.sol\":2613:2623  msg.sender */\n      caller\n        /* \"contracts/MyblogApp.sol\":2594:2630  PostVoted(_postId, msg.sender, true) */\n      0xffffffffffffffffffffffffffffffffffffffff\n      and\n        /* \"contracts/MyblogApp.sol\":2604:2611  _postId */\n      dup2\n        /* \"contracts/MyblogApp.sol\":2594:2630  PostVoted(_postId, msg.sender, true) */\n      0xa7e4c5082f867ea22a45a95c2043209b9ce83d70ca31ccb947e67592ea14c4b1\n        /* \"contracts/MyblogApp.sol\":2625:2629  true */\n      0x01\n        /* \"contracts/MyblogApp.sol\":2594:2630  PostVoted(_postId, msg.sender, true) */\n      mload(0x40)\n      tag_172\n      swap2\n      swap1\n      tag_122\n      jump\t// in\n    tag_172:\n      mload(0x40)\n      dup1\n      swap2\n      sub\n      swap1\n      log3\n        /* \"contracts/MyblogApp.sol\":2297:2638  function upvotePost(bytes32 _postId) public {... */\n      pop\n      jump\t// out\n        /* \"contracts/MyblogApp.sol\":1539:2260  function createPost(string memory _author, string memory _title, string memory _contentHash) public {... */\n    tag_43:\n        /* \"contracts/MyblogApp.sol\":1683:1685  32 */\n      0x20\n        /* \"contracts/MyblogApp.sol\":1664:1671  _author */\n      dup4\n        /* \"contracts/MyblogApp.sol\":1658:1679  bytes(_author).length */\n      mload\n        /* \"contracts/MyblogApp.sol\":1658:1685  bytes(_author).length <= 32 */\n      gt\n      iszero\n        /* \"contracts/MyblogApp.sol\":1650:1710  require(bytes(_author).length <= 32, \"Author name too long\") */\n      tag_174\n      jumpi\n      mload(0x40)\n      0x08c379a000000000000000000000000000000000000000000000000000000000\n      dup2\n      mstore\n      0x04\n      add\n      tag_175\n      swap1\n      tag_176\n      jump\t// in\n    tag_175:\n      mload(0x40)\n      dup1\n      swap2\n      sub\n      swap1\n      revert\n    tag_174:\n        /* \"contracts/MyblogApp.sol\":1723:1734  bytes32 _id */\n      0x00\n        /* \"contracts/MyblogApp.sol\":1764:1774  msg.sender */\n      caller\n        /* \"contracts/MyblogApp.sol\":1776:1791  block.timestamp */\n      timestamp\n        /* \"contracts/MyblogApp.sol\":1793:1799  _title */\n      dup5\n        /* \"contracts/MyblogApp.sol\":1801:1813  _contentHash */\n      dup5\n        /* \"contracts/MyblogApp.sol\":1747:1814  abi.encodePacked(msg.sender, block.timestamp, _title, _contentHash) */\n      add(0x20, mload(0x40))\n      tag_177\n      swap5\n      swap4\n      swap3\n      swap2\n      swap1\n      tag_178\n      jump\t// in\n    tag_177:\n      mload(0x40)\n      0x20\n      dup2\n      dup4\n      sub\n      sub\n      dup2\n      mstore\n      swap1\n      0x40\n      mstore\n        /* \"contracts/MyblogApp.sol\":1737:1815  keccak256(abi.encodePacked(msg.sender, block.timestamp, _title, _contentHash)) */\n      dup1\n      mload\n      swap1\n      0x20\n      add\n      keccak256\n        /* \"contracts/MyblogApp.sol\":1723:1815  bytes32 _id = keccak256(abi.encodePacked(msg.sender, block.timestamp, _title, _contentHash)) */\n      swap1\n      pop\n        /* \"contracts/MyblogApp.sol\":1826:1845  Post memory newpost */\n      0x00\n        /* \"contracts/MyblogApp.sol\":1848:2076  Post({... */\n      mload(0x40)\n      dup1\n      0xe0\n      add\n      0x40\n      mstore\n      dup1\n        /* \"contracts/MyblogApp.sol\":1872:1875  _id */\n      dup4\n        /* \"contracts/MyblogApp.sol\":1848:2076  Post({... */\n      dup2\n      mstore\n      0x20\n      add\n        /* \"contracts/MyblogApp.sol\":1898:1905  _author */\n      dup7\n        /* \"contracts/MyblogApp.sol\":1848:2076  Post({... */\n      dup2\n      mstore\n      0x20\n      add\n        /* \"contracts/MyblogApp.sol\":1927:1933  _title */\n      dup6\n        /* \"contracts/MyblogApp.sol\":1848:2076  Post({... */\n      dup2\n      mstore\n      0x20\n      add\n        /* \"contracts/MyblogApp.sol\":1961:1973  _contentHash */\n      dup5\n        /* \"contracts/MyblogApp.sol\":1848:2076  Post({... */\n      dup2\n      mstore\n      0x20\n      add\n        /* \"contracts/MyblogApp.sol\":1996:1997  0 */\n      0x00\n        /* \"contracts/MyblogApp.sol\":1848:2076  Post({... */\n      dup2\n      mstore\n      0x20\n      add\n        /* \"contracts/MyblogApp.sol\":2022:2023  0 */\n      0x00\n        /* \"contracts/MyblogApp.sol\":1848:2076  Post({... */\n      dup2\n      mstore\n      0x20\n      add\n        /* \"contracts/MyblogApp.sol\":2049:2064  block.timestamp */\n      timestamp\n        /* \"contracts/MyblogApp.sol\":1848:2076  Post({... */\n      dup2\n      mstore\n      pop\n        /* \"contracts/MyblogApp.sol\":1826:2076  Post memory newpost = Post({... */\n      swap1\n      pop\n        /* \"contracts/MyblogApp.sol\":2089:2100  allPostsIds */\n      0x00\n        /* \"contracts/MyblogApp.sol\":2106:2109  _id */\n      dup3\n        /* \"contracts/MyblogApp.sol\":2089:2110  allPostsIds.push(_id) */\n      swap1\n      dup1\n      0x01\n      dup2\n      sload\n      add\n      dup1\n      dup3\n      sstore\n      dup1\n      swap2\n      pop\n      pop\n      0x01\n      swap1\n      sub\n      swap1\n      0x00\n      mstore\n      keccak256(0x00, 0x20)\n      add\n      0x00\n      swap1\n      swap2\n      swap1\n      swap2\n      swap1\n      swap2\n      pop\n      sstore\n        /* \"contracts/MyblogApp.sol\":2121:2130  userPosts */\n      0x01\n        /* \"contracts/MyblogApp.sol\":2121:2142  userPosts[msg.sender] */\n      0x00\n        /* \"contracts/MyblogApp.sol\":2131:2141  msg.sender */\n      caller\n        /* \"contracts/MyblogApp.sol\":2121:2142  userPosts[msg.sender] */\n      0xffffffffffffffffffffffffffffffffffffffff\n      and\n      0xffffffffffffffffffffffffffffffffffffffff\n      and\n      dup2\n      mstore\n      0x20\n      add\n      swap1\n      dup2\n      mstore\n      0x20\n      add\n      0x00\n      keccak256\n        /* \"contracts/MyblogApp.sol\":2148:2151  _id */\n      dup3\n        /* \"contracts/MyblogApp.sol\":2121:2152  userPosts[msg.sender].push(_id) */\n      swap1\n      dup1\n      0x01\n      dup2\n      sload\n      add\n      dup1\n      dup3\n      sstore\n      dup1\n      swap2\n      pop\n      pop\n      0x01\n      swap1\n      sub\n      swap1\n      0x00\n      mstore\n      keccak256(0x00, 0x20)\n      add\n      0x00\n      swap1\n      swap2\n      swap1\n      swap2\n      swap1\n      swap2\n      pop\n      sstore\n        /* \"contracts/MyblogApp.sol\":2176:2183  newpost */\n      dup1\n        /* \"contracts/MyblogApp.sol\":2163:2168  posts */\n      0x02\n        /* \"contracts/MyblogApp.sol\":2163:2173  posts[_id] */\n      0x00\n        /* \"contracts/MyblogApp.sol\":2169:2172  _id */\n      dup5\n        /* \"contracts/MyblogApp.sol\":2163:2173  posts[_id] */\n      dup2\n      mstore\n      0x20\n      add\n      swap1\n      dup2\n      mstore\n      0x20\n      add\n      0x00\n      keccak256\n        /* \"contracts/MyblogApp.sol\":2163:2183  posts[_id] = newpost */\n      0x00\n      dup3\n      add\n      mload\n      dup2\n      0x00\n      add\n      sstore\n      0x20\n      dup3\n      add\n      mload\n      dup2\n      0x01\n      add\n      swap1\n      dup2\n      tag_181\n      swap2\n      swap1\n      tag_149\n      jump\t// in\n    tag_181:\n      pop\n      0x40\n      dup3\n      add\n      mload\n      dup2\n      0x02\n      add\n      swap1\n      dup2\n      tag_182\n      swap2\n      swap1\n      tag_149\n      jump\t// in\n    tag_182:\n      pop\n      0x60\n      dup3\n      add\n      mload\n      dup2\n      0x03\n      add\n      swap1\n      dup2\n      tag_183\n      swap2\n      swap1\n      tag_149\n      jump\t// in\n    tag_183:\n      pop\n      0x80\n      dup3\n      add\n      mload\n      dup2\n      0x04\n      add\n      sstore\n      0xa0\n      dup3\n      add\n      mload\n      dup2\n      0x05\n      add\n      sstore\n      0xc0\n      dup3\n      add\n      mload\n      dup2\n      0x06\n      add\n      sstore\n      swap1\n      pop\n      pop\n        /* \"contracts/MyblogApp.sol\":2214:2217  _id */\n      dup2\n        /* \"contracts/MyblogApp.sol\":2201:2252  Postcreation(_id, _title, _author, block.timestamp) */\n      0x17f34748f078a06d3c7c034ef1cdf60a8b2baf4592df676d3a2ae61596619f98\n        /* \"contracts/MyblogApp.sol\":2219:2225  _title */\n      dup6\n        /* \"contracts/MyblogApp.sol\":2227:2234  _author */\n      dup8\n        /* \"contracts/MyblogApp.sol\":2236:2251  block.timestamp */\n      timestamp\n        /* \"contracts/MyblogApp.sol\":2201:2252  Postcreation(_id, _title, _author, block.timestamp) */\n      mload(0x40)\n      tag_184\n      swap4\n      swap3\n      swap2\n      swap1\n      tag_185\n      jump\t// in\n    tag_184:\n      mload(0x40)\n      dup1\n      swap2\n      sub\n      swap1\n      log2\n        /* \"contracts/MyblogApp.sol\":1639:2260  {... */\n      pop\n      pop\n        /* \"contracts/MyblogApp.sol\":1539:2260  function createPost(string memory _author, string memory _title, string memory _contentHash) public {... */\n      pop\n      pop\n      pop\n      jump\t// out\n        /* \"contracts/MyblogApp.sol\":5590:5713  function getComments(bytes32 _postId) public view returns(Comment[] memory) {... */\n    tag_46:\n        /* \"contracts/MyblogApp.sol\":5648:5664  Comment[] memory */\n      0x60\n        /* \"contracts/MyblogApp.sol\":5684:5696  postComments */\n      0x03\n        /* \"contracts/MyblogApp.sol\":5684:5705  postComments[_postId] */\n      0x00\n        /* \"contracts/MyblogApp.sol\":5697:5704  _postId */\n      dup4\n        /* \"contracts/MyblogApp.sol\":5684:5705  postComments[_postId] */\n      dup2\n      mstore\n      0x20\n      add\n      swap1\n      dup2\n      mstore\n      0x20\n      add\n      0x00\n      keccak256\n        /* \"contracts/MyblogApp.sol\":5677:5705  return postComments[_postId] */\n      dup1\n      sload\n      dup1\n      0x20\n      mul\n      0x20\n      add\n      mload(0x40)\n      swap1\n      dup2\n      add\n      0x40\n      mstore\n      dup1\n      swap3\n      swap2\n      swap1\n      dup2\n      dup2\n      mstore\n      0x20\n      add\n      0x00\n      swap1\n    tag_187:\n      dup3\n      dup3\n      lt\n      iszero\n      tag_188\n      jumpi\n      dup4\n      dup3\n      swap1\n      0x00\n      mstore\n      keccak256(0x00, 0x20)\n      swap1\n      0x07\n      mul\n      add\n      mload(0x40)\n      dup1\n      0xe0\n      add\n      0x40\n      mstore\n      swap1\n      dup2\n      0x00\n      dup3\n      add\n      sload\n      dup2\n      mstore\n      0x20\n      add\n      0x01\n      dup3\n      add\n      0x00\n      swap1\n      sload\n      swap1\n      0x0100\n      exp\n      swap1\n      div\n      0xffffffffffffffffffffffffffffffffffffffff\n      and\n      0xffffffffffffffffffffffffffffffffffffffff\n      and\n      0xffffffffffffffffffffffffffffffffffffffff\n      and\n      dup2\n      mstore\n      0x20\n      add\n      0x02\n      dup3\n      add\n      dup1\n      sload\n      tag_190\n      swap1\n      tag_66\n      jump\t// in\n    tag_190:\n      dup1\n      0x1f\n      add\n      0x20\n      dup1\n      swap2\n      div\n      mul\n      0x20\n      add\n      mload(0x40)\n      swap1\n      dup2\n      add\n      0x40\n      mstore\n      dup1\n      swap3\n      swap2\n      swap1\n      dup2\n      dup2\n      mstore\n      0x20\n      add\n      dup3\n      dup1\n      sload\n      tag_191\n      swap1\n      tag_66\n      jump\t// in\n    tag_191:\n      dup1\n      iszero\n      tag_192\n      jumpi\n      dup1\n      0x1f\n      lt\n      tag_193\n      jumpi\n      0x0100\n      dup1\n      dup4\n      sload\n      div\n      mul\n      dup4\n      mstore\n      swap2\n      0x20\n      add\n      swap2\n      jump(tag_192)\n    tag_193:\n      dup3\n      add\n      swap2\n      swap1\n      0x00\n      mstore\n      keccak256(0x00, 0x20)\n      swap1\n    tag_194:\n      dup2\n      sload\n      dup2\n      mstore\n      swap1\n      0x01\n      add\n      swap1\n      0x20\n      add\n      dup1\n      dup4\n      gt\n      tag_194\n      jumpi\n      dup3\n      swap1\n      sub\n      0x1f\n      and\n      dup3\n      add\n      swap2\n    tag_192:\n      pop\n      pop\n      pop\n      pop\n      pop\n      dup2\n      mstore\n      0x20\n      add\n      0x03\n      dup3\n      add\n      dup1\n      sload\n      tag_195\n      swap1\n      tag_66\n      jump\t// in\n    tag_195:\n      dup1\n      0x1f\n      add\n      0x20\n      dup1\n      swap2\n      div\n      mul\n      0x20\n      add\n      mload(0x40)\n      swap1\n      dup2\n      add\n      0x40\n      mstore\n      dup1\n      swap3\n      swap2\n      swap1\n      dup2\n      dup2\n      mstore\n      0x20\n      add\n      dup3\n      dup1\n      sload\n      tag_196\n      swap1\n      tag_66\n      jump\t// in\n    tag_196:\n      dup1\n      iszero\n      tag_197\n      jumpi\n      dup1\n      0x1f\n      lt\n      tag_198\n      jumpi\n      0x0100\n      dup1\n      dup4\n      sload\n      div\n      mul\n      dup4\n      mstore\n      swap2\n      0x20\n      add\n      swap2\n      jump(tag_197)\n    tag_198:\n      dup3\n      add\n      swap2\n      swap1\n      0x00\n      mstore\n      keccak256(0x00, 0x20)\n      swap1\n    tag_199:\n      dup2\n      sload\n      dup2\n      mstore\n      swap1\n      0x01\n      add\n      swap1\n      0x20\n      add\n      dup1\n      dup4\n      gt\n      tag_199\n      jumpi\n      dup3\n      swap1\n      sub\n      0x1f\n      and\n      dup3\n      add\n      swap2\n    tag_197:\n      pop\n      pop\n      pop\n      pop\n      pop\n      dup2\n      mstore\n      0x20\n      add\n      0x04\n      dup3\n      add\n      sload\n      dup2\n      mstore\n      0x20\n      add\n      0x05\n      dup3\n      add\n      sload\n      dup2\n      mstore\n      0x20\n      add\n      0x06\n      dup3\n      add\n      sload\n      dup2\n      mstore\n      pop\n      pop\n      dup2\n      mstore\n      0x20\n      add\n      swap1\n      0x01\n      add\n      swap1\n      jump(tag_187)\n    tag_188:\n      pop\n      pop\n      pop\n      pop\n      swap1\n      pop\n        /* \"contracts/MyblogApp.sol\":5590:5713  function getComments(bytes32 _postId) public view returns(Comment[] memory) {... */\n      swap2\n      swap1\n      pop\n      jump\t// out\n    tag_58:\n      mload(0x40)\n      dup1\n      0xe0\n      add\n      0x40\n      mstore\n      dup1\n      0x00\n      dup2\n      mstore\n      0x20\n      add\n      0x60\n      dup2\n      mstore\n      0x20\n      add\n      0x60\n      dup2\n      mstore\n      0x20\n      add\n      0x60\n      dup2\n      mstore\n      0x20\n      add\n      0x00\n      dup2\n      mstore\n      0x20\n      add\n      0x00\n      dup2\n      mstore\n      0x20\n      add\n      0x00\n      dup2\n      mstore\n      pop\n      swap1\n      jump\t// out\n        /* \"#utility.yul\":7:82   */\n    tag_200:\n        /* \"#utility.yul\":40:46   */\n      0x00\n        /* \"#utility.yul\":73:75   */\n      0x40\n        /* \"#utility.yul\":67:76   */\n      mload\n        /* \"#utility.yul\":57:76   */\n      swap1\n      pop\n        /* \"#utility.yul\":7:82   */\n      swap1\n      jump\t// out\n        /* \"#utility.yul\":88:205   */\n    tag_201:\n        /* \"#utility.yul\":197:198   */\n      0x00\n        /* \"#utility.yul\":194:195   */\n      0x00\n        /* \"#utility.yul\":187:199   */\n      revert\n        /* \"#utility.yul\":211:328   */\n    tag_202:\n        /* \"#utility.yul\":320:321   */\n      0x00\n        /* \"#utility.yul\":317:318   */\n      0x00\n        /* \"#utility.yul\":310:322   */\n      revert\n        /* \"#utility.yul\":334:460   */\n    tag_203:\n        /* \"#utility.yul\":371:378   */\n      0x00\n        /* \"#utility.yul\":411:453   */\n      0xffffffffffffffffffffffffffffffffffffffff\n        /* \"#utility.yul\":404:409   */\n      dup3\n        /* \"#utility.yul\":400:454   */\n      and\n        /* \"#utility.yul\":389:454   */\n      swap1\n      pop\n        /* \"#utility.yul\":334:460   */\n      swap2\n      swap1\n      pop\n      jump\t// out\n        /* \"#utility.yul\":466:562   */\n    tag_204:\n        /* \"#utility.yul\":503:510   */\n      0x00\n        /* \"#utility.yul\":532:556   */\n      tag_292\n        /* \"#utility.yul\":550:555   */\n      dup3\n        /* \"#utility.yul\":532:556   */\n      tag_203\n      jump\t// in\n    tag_292:\n        /* \"#utility.yul\":521:556   */\n      swap1\n      pop\n        /* \"#utility.yul\":466:562   */\n      swap2\n      swap1\n      pop\n      jump\t// out\n        /* \"#utility.yul\":568:690   */\n    tag_205:\n        /* \"#utility.yul\":641:665   */\n      tag_294\n        /* \"#utility.yul\":659:664   */\n      dup2\n        /* \"#utility.yul\":641:665   */\n      tag_204\n      jump\t// in\n    tag_294:\n        /* \"#utility.yul\":634:639   */\n      dup2\n        /* \"#utility.yul\":631:666   */\n      eq\n        /* \"#utility.yul\":621:684   */\n      tag_295\n      jumpi\n        /* \"#utility.yul\":680:681   */\n      0x00\n        /* \"#utility.yul\":677:678   */\n      0x00\n        /* \"#utility.yul\":670:682   */\n      revert\n        /* \"#utility.yul\":621:684   */\n    tag_295:\n        /* \"#utility.yul\":568:690   */\n      pop\n      jump\t// out\n        /* \"#utility.yul\":696:835   */\n    tag_206:\n        /* \"#utility.yul\":742:747   */\n      0x00\n        /* \"#utility.yul\":780:786   */\n      dup2\n        /* \"#utility.yul\":767:787   */\n      calldataload\n        /* \"#utility.yul\":758:787   */\n      swap1\n      pop\n        /* \"#utility.yul\":796:829   */\n      tag_297\n        /* \"#utility.yul\":823:828   */\n      dup2\n        /* \"#utility.yul\":796:829   */\n      tag_205\n      jump\t// in\n    tag_297:\n        /* \"#utility.yul\":696:835   */\n      swap3\n      swap2\n      pop\n      pop\n      jump\t// out\n        /* \"#utility.yul\":841:1170   */\n    tag_15:\n        /* \"#utility.yul\":900:906   */\n      0x00\n        /* \"#utility.yul\":949:951   */\n      0x20\n        /* \"#utility.yul\":937:946   */\n      dup3\n        /* \"#utility.yul\":928:935   */\n      dup5\n        /* \"#utility.yul\":924:947   */\n      sub\n        /* \"#utility.yul\":920:952   */\n      slt\n        /* \"#utility.yul\":917:1036   */\n      iszero\n      tag_299\n      jumpi\n        /* \"#utility.yul\":955:1034   */\n      tag_300\n      tag_201\n      jump\t// in\n    tag_300:\n        /* \"#utility.yul\":917:1036   */\n    tag_299:\n        /* \"#utility.yul\":1075:1076   */\n      0x00\n        /* \"#utility.yul\":1100:1153   */\n      tag_301\n        /* \"#utility.yul\":1145:1152   */\n      dup5\n        /* \"#utility.yul\":1136:1142   */\n      dup3\n        /* \"#utility.yul\":1125:1134   */\n      dup6\n        /* \"#utility.yul\":1121:1143   */\n      add\n        /* \"#utility.yul\":1100:1153   */\n      tag_206\n      jump\t// in\n    tag_301:\n        /* \"#utility.yul\":1090:1153   */\n      swap2\n      pop\n        /* \"#utility.yul\":1046:1163   */\n      pop\n        /* \"#utility.yul\":841:1170   */\n      swap3\n      swap2\n      pop\n      pop\n      jump\t// out\n        /* \"#utility.yul\":1176:1310   */\n    tag_207:\n        /* \"#utility.yul\":1263:1269   */\n      0x00\n        /* \"#utility.yul\":1297:1302   */\n      dup2\n        /* \"#utility.yul\":1291:1303   */\n      mload\n        /* \"#utility.yul\":1281:1303   */\n      swap1\n      pop\n        /* \"#utility.yul\":1176:1310   */\n      swap2\n      swap1\n      pop\n      jump\t// out\n        /* \"#utility.yul\":1316:1520   */\n    tag_208:\n        /* \"#utility.yul\":1435:1446   */\n      0x00\n        /* \"#utility.yul\":1469:1475   */\n      dup3\n        /* \"#utility.yul\":1464:1467   */\n      dup3\n        /* \"#utility.yul\":1457:1476   */\n      mstore\n        /* \"#utility.yul\":1509:1513   */\n      0x20\n        /* \"#utility.yul\":1504:1507   */\n      dup3\n        /* \"#utility.yul\":1500:1514   */\n      add\n        /* \"#utility.yul\":1485:1514   */\n      swap1\n      pop\n        /* \"#utility.yul\":1316:1520   */\n      swap3\n      swap2\n      pop\n      pop\n      jump\t// out\n        /* \"#utility.yul\":1526:1678   */\n    tag_209:\n        /* \"#utility.yul\":1613:1617   */\n      0x00\n        /* \"#utility.yul\":1636:1639   */\n      dup2\n        /* \"#utility.yul\":1628:1639   */\n      swap1\n      pop\n        /* \"#utility.yul\":1666:1670   */\n      0x20\n        /* \"#utility.yul\":1661:1664   */\n      dup3\n        /* \"#utility.yul\":1657:1671   */\n      add\n        /* \"#utility.yul\":1649:1671   */\n      swap1\n      pop\n        /* \"#utility.yul\":1526:1678   */\n      swap2\n      swap1\n      pop\n      jump\t// out\n        /* \"#utility.yul\":1684:1761   */\n    tag_210:\n        /* \"#utility.yul\":1721:1728   */\n      0x00\n        /* \"#utility.yul\":1750:1755   */\n      dup2\n        /* \"#utility.yul\":1739:1755   */\n      swap1\n      pop\n        /* \"#utility.yul\":1684:1761   */\n      swap2\n      swap1\n      pop\n      jump\t// out\n        /* \"#utility.yul\":1767:1875   */\n    tag_211:\n        /* \"#utility.yul\":1844:1868   */\n      tag_307\n        /* \"#utility.yul\":1862:1867   */\n      dup2\n        /* \"#utility.yul\":1844:1868   */\n      tag_210\n      jump\t// in\n    tag_307:\n        /* \"#utility.yul\":1839:1842   */\n      dup3\n        /* \"#utility.yul\":1832:1869   */\n      mstore\n        /* \"#utility.yul\":1767:1875   */\n      pop\n      pop\n      jump\t// out\n        /* \"#utility.yul\":1881:1980   */\n    tag_212:\n        /* \"#utility.yul\":1933:1939   */\n      0x00\n        /* \"#utility.yul\":1967:1972   */\n      dup2\n        /* \"#utility.yul\":1961:1973   */\n      mload\n        /* \"#utility.yul\":1951:1973   */\n      swap1\n      pop\n        /* \"#utility.yul\":1881:1980   */\n      swap2\n      swap1\n      pop\n      jump\t// out\n        /* \"#utility.yul\":1986:2145   */\n    tag_213:\n        /* \"#utility.yul\":2060:2071   */\n      0x00\n        /* \"#utility.yul\":2094:2100   */\n      dup3\n        /* \"#utility.yul\":2089:2092   */\n      dup3\n        /* \"#utility.yul\":2082:2101   */\n      mstore\n        /* \"#utility.yul\":2134:2138   */\n      0x20\n        /* \"#utility.yul\":2129:2132   */\n      dup3\n        /* \"#utility.yul\":2125:2139   */\n      add\n        /* \"#utility.yul\":2110:2139   */\n      swap1\n      pop\n        /* \"#utility.yul\":1986:2145   */\n      swap3\n      swap2\n      pop\n      pop\n      jump\t// out\n        /* \"#utility.yul\":2151:2290   */\n    tag_214:\n        /* \"#utility.yul\":2240:2246   */\n      dup3\n        /* \"#utility.yul\":2235:2238   */\n      dup2\n        /* \"#utility.yul\":2230:2233   */\n      dup4\n        /* \"#utility.yul\":2224:2247   */\n      mcopy\n        /* \"#utility.yul\":2281:2282   */\n      0x00\n        /* \"#utility.yul\":2272:2278   */\n      dup4\n        /* \"#utility.yul\":2267:2270   */\n      dup4\n        /* \"#utility.yul\":2263:2279   */\n      add\n        /* \"#utility.yul\":2256:2283   */\n      mstore\n        /* \"#utility.yul\":2151:2290   */\n      pop\n      pop\n      pop\n      jump\t// out\n        /* \"#utility.yul\":2296:2398   */\n    tag_215:\n        /* \"#utility.yul\":2337:2343   */\n      0x00\n        /* \"#utility.yul\":2388:2390   */\n      0x1f\n        /* \"#utility.yul\":2384:2391   */\n      not\n        /* \"#utility.yul\":2379:2381   */\n      0x1f\n        /* \"#utility.yul\":2372:2377   */\n      dup4\n        /* \"#utility.yul\":2368:2382   */\n      add\n        /* \"#utility.yul\":2364:2392   */\n      and\n        /* \"#utility.yul\":2354:2392   */\n      swap1\n      pop\n        /* \"#utility.yul\":2296:2398   */\n      swap2\n      swap1\n      pop\n      jump\t// out\n        /* \"#utility.yul\":2404:2761   */\n    tag_216:\n        /* \"#utility.yul\":2482:2485   */\n      0x00\n        /* \"#utility.yul\":2510:2549   */\n      tag_313\n        /* \"#utility.yul\":2543:2548   */\n      dup3\n        /* \"#utility.yul\":2510:2549   */\n      tag_212\n      jump\t// in\n    tag_313:\n        /* \"#utility.yul\":2565:2626   */\n      tag_314\n        /* \"#utility.yul\":2619:2625   */\n      dup2\n        /* \"#utility.yul\":2614:2617   */\n      dup6\n        /* \"#utility.yul\":2565:2626   */\n      tag_213\n      jump\t// in\n    tag_314:\n        /* \"#utility.yul\":2558:2626   */\n      swap4\n      pop\n        /* \"#utility.yul\":2635:2700   */\n      tag_315\n        /* \"#utility.yul\":2693:2699   */\n      dup2\n        /* \"#utility.yul\":2688:2691   */\n      dup6\n        /* \"#utility.yul\":2681:2685   */\n      0x20\n        /* \"#utility.yul\":2674:2679   */\n      dup7\n        /* \"#utility.yul\":2670:2686   */\n      add\n        /* \"#utility.yul\":2635:2700   */\n      tag_214\n      jump\t// in\n    tag_315:\n        /* \"#utility.yul\":2725:2754   */\n      tag_316\n        /* \"#utility.yul\":2747:2753   */\n      dup2\n        /* \"#utility.yul\":2725:2754   */\n      tag_215\n      jump\t// in\n    tag_316:\n        /* \"#utility.yul\":2720:2723   */\n      dup5\n        /* \"#utility.yul\":2716:2755   */\n      add\n        /* \"#utility.yul\":2709:2755   */\n      swap2\n      pop\n        /* \"#utility.yul\":2486:2761   */\n      pop\n        /* \"#utility.yul\":2404:2761   */\n      swap3\n      swap2\n      pop\n      pop\n      jump\t// out\n        /* \"#utility.yul\":2767:2844   */\n    tag_217:\n        /* \"#utility.yul\":2804:2811   */\n      0x00\n        /* \"#utility.yul\":2833:2838   */\n      dup2\n        /* \"#utility.yul\":2822:2838   */\n      swap1\n      pop\n        /* \"#utility.yul\":2767:2844   */\n      swap2\n      swap1\n      pop\n      jump\t// out\n        /* \"#utility.yul\":2850:2958   */\n    tag_218:\n        /* \"#utility.yul\":2927:2951   */\n      tag_319\n        /* \"#utility.yul\":2945:2950   */\n      dup2\n        /* \"#utility.yul\":2927:2951   */\n      tag_217\n      jump\t// in\n    tag_319:\n        /* \"#utility.yul\":2922:2925   */\n      dup3\n        /* \"#utility.yul\":2915:2952   */\n      mstore\n        /* \"#utility.yul\":2850:2958   */\n      pop\n      pop\n      jump\t// out\n        /* \"#utility.yul\":3018:4635   */\n    tag_219:\n        /* \"#utility.yul\":3117:3120   */\n      0x00\n        /* \"#utility.yul\":3153:3157   */\n      0xe0\n        /* \"#utility.yul\":3148:3151   */\n      dup4\n        /* \"#utility.yul\":3144:3158   */\n      add\n        /* \"#utility.yul\":3238:3242   */\n      0x00\n        /* \"#utility.yul\":3231:3236   */\n      dup4\n        /* \"#utility.yul\":3227:3243   */\n      add\n        /* \"#utility.yul\":3221:3244   */\n      mload\n        /* \"#utility.yul\":3257:3320   */\n      tag_321\n        /* \"#utility.yul\":3314:3318   */\n      0x00\n        /* \"#utility.yul\":3309:3312   */\n      dup7\n        /* \"#utility.yul\":3305:3319   */\n      add\n        /* \"#utility.yul\":3291:3303   */\n      dup3\n        /* \"#utility.yul\":3257:3320   */\n      tag_211\n      jump\t// in\n    tag_321:\n        /* \"#utility.yul\":3168:3330   */\n      pop\n        /* \"#utility.yul\":3414:3418   */\n      0x20\n        /* \"#utility.yul\":3407:3412   */\n      dup4\n        /* \"#utility.yul\":3403:3419   */\n      add\n        /* \"#utility.yul\":3397:3420   */\n      mload\n        /* \"#utility.yul\":3467:3470   */\n      dup5\n        /* \"#utility.yul\":3461:3465   */\n      dup3\n        /* \"#utility.yul\":3457:3471   */\n      sub\n        /* \"#utility.yul\":3450:3454   */\n      0x20\n        /* \"#utility.yul\":3445:3448   */\n      dup7\n        /* \"#utility.yul\":3441:3455   */\n      add\n        /* \"#utility.yul\":3434:3472   */\n      mstore\n        /* \"#utility.yul\":3493:3566   */\n      tag_322\n        /* \"#utility.yul\":3561:3565   */\n      dup3\n        /* \"#utility.yul\":3547:3559   */\n      dup3\n        /* \"#utility.yul\":3493:3566   */\n      tag_216\n      jump\t// in\n    tag_322:\n        /* \"#utility.yul\":3485:3566   */\n      swap2\n      pop\n        /* \"#utility.yul\":3340:3577   */\n      pop\n        /* \"#utility.yul\":3660:3664   */\n      0x40\n        /* \"#utility.yul\":3653:3658   */\n      dup4\n        /* \"#utility.yul\":3649:3665   */\n      add\n        /* \"#utility.yul\":3643:3666   */\n      mload\n        /* \"#utility.yul\":3713:3716   */\n      dup5\n        /* \"#utility.yul\":3707:3711   */\n      dup3\n        /* \"#utility.yul\":3703:3717   */\n      sub\n        /* \"#utility.yul\":3696:3700   */\n      0x40\n        /* \"#utility.yul\":3691:3694   */\n      dup7\n        /* \"#utility.yul\":3687:3701   */\n      add\n        /* \"#utility.yul\":3680:3718   */\n      mstore\n        /* \"#utility.yul\":3739:3812   */\n      tag_323\n        /* \"#utility.yul\":3807:3811   */\n      dup3\n        /* \"#utility.yul\":3793:3805   */\n      dup3\n        /* \"#utility.yul\":3739:3812   */\n      tag_216\n      jump\t// in\n    tag_323:\n        /* \"#utility.yul\":3731:3812   */\n      swap2\n      pop\n        /* \"#utility.yul\":3587:3823   */\n      pop\n        /* \"#utility.yul\":3912:3916   */\n      0x60\n        /* \"#utility.yul\":3905:3910   */\n      dup4\n        /* \"#utility.yul\":3901:3917   */\n      add\n        /* \"#utility.yul\":3895:3918   */\n      mload\n        /* \"#utility.yul\":3965:3968   */\n      dup5\n        /* \"#utility.yul\":3959:3963   */\n      dup3\n        /* \"#utility.yul\":3955:3969   */\n      sub\n        /* \"#utility.yul\":3948:3952   */\n      0x60\n        /* \"#utility.yul\":3943:3946   */\n      dup7\n        /* \"#utility.yul\":3939:3953   */\n      add\n        /* \"#utility.yul\":3932:3970   */\n      mstore\n        /* \"#utility.yul\":3991:4064   */\n      tag_324\n        /* \"#utility.yul\":4059:4063   */\n      dup3\n        /* \"#utility.yul\":4045:4057   */\n      dup3\n        /* \"#utility.yul\":3991:4064   */\n      tag_216\n      jump\t// in\n    tag_324:\n        /* \"#utility.yul\":3983:4064   */\n      swap2\n      pop\n        /* \"#utility.yul\":3833:4075   */\n      pop\n        /* \"#utility.yul\":4159:4163   */\n      0x80\n        /* \"#utility.yul\":4152:4157   */\n      dup4\n        /* \"#utility.yul\":4148:4164   */\n      add\n        /* \"#utility.yul\":4142:4165   */\n      mload\n        /* \"#utility.yul\":4178:4241   */\n      tag_325\n        /* \"#utility.yul\":4235:4239   */\n      0x80\n        /* \"#utility.yul\":4230:4233   */\n      dup7\n        /* \"#utility.yul\":4226:4240   */\n      add\n        /* \"#utility.yul\":4212:4224   */\n      dup3\n        /* \"#utility.yul\":4178:4241   */\n      tag_218\n      jump\t// in\n    tag_325:\n        /* \"#utility.yul\":4085:4251   */\n      pop\n        /* \"#utility.yul\":4337:4341   */\n      0xa0\n        /* \"#utility.yul\":4330:4335   */\n      dup4\n        /* \"#utility.yul\":4326:4342   */\n      add\n        /* \"#utility.yul\":4320:4343   */\n      mload\n        /* \"#utility.yul\":4356:4419   */\n      tag_326\n        /* \"#utility.yul\":4413:4417   */\n      0xa0\n        /* \"#utility.yul\":4408:4411   */\n      dup7\n        /* \"#utility.yul\":4404:4418   */\n      add\n        /* \"#utility.yul\":4390:4402   */\n      dup3\n        /* \"#utility.yul\":4356:4419   */\n      tag_218\n      jump\t// in\n    tag_326:\n        /* \"#utility.yul\":4261:4429   */\n      pop\n        /* \"#utility.yul\":4516:4520   */\n      0xc0\n        /* \"#utility.yul\":4509:4514   */\n      dup4\n        /* \"#utility.yul\":4505:4521   */\n      add\n        /* \"#utility.yul\":4499:4522   */\n      mload\n        /* \"#utility.yul\":4535:4598   */\n      tag_327\n        /* \"#utility.yul\":4592:4596   */\n      0xc0\n        /* \"#utility.yul\":4587:4590   */\n      dup7\n        /* \"#utility.yul\":4583:4597   */\n      add\n        /* \"#utility.yul\":4569:4581   */\n      dup3\n        /* \"#utility.yul\":4535:4598   */\n      tag_218\n      jump\t// in\n    tag_327:\n        /* \"#utility.yul\":4439:4608   */\n      pop\n        /* \"#utility.yul\":4625:4629   */\n      dup1\n        /* \"#utility.yul\":4618:4629   */\n      swap2\n      pop\n        /* \"#utility.yul\":3122:4635   */\n      pop\n        /* \"#utility.yul\":3018:4635   */\n      swap3\n      swap2\n      pop\n      pop\n      jump\t// out\n        /* \"#utility.yul\":4641:4877   */\n    tag_220:\n        /* \"#utility.yul\":4750:4760   */\n      0x00\n        /* \"#utility.yul\":4785:4871   */\n      tag_329\n        /* \"#utility.yul\":4867:4870   */\n      dup4\n        /* \"#utility.yul\":4859:4865   */\n      dup4\n        /* \"#utility.yul\":4785:4871   */\n      tag_219\n      jump\t// in\n    tag_329:\n        /* \"#utility.yul\":4771:4871   */\n      swap1\n      pop\n        /* \"#utility.yul\":4641:4877   */\n      swap3\n      swap2\n      pop\n      pop\n      jump\t// out\n        /* \"#utility.yul\":4883:5016   */\n    tag_221:\n        /* \"#utility.yul\":4973:4977   */\n      0x00\n        /* \"#utility.yul\":5005:5009   */\n      0x20\n        /* \"#utility.yul\":5000:5003   */\n      dup3\n        /* \"#utility.yul\":4996:5010   */\n      add\n        /* \"#utility.yul\":4988:5010   */\n      swap1\n      pop\n        /* \"#utility.yul\":4883:5016   */\n      swap2\n      swap1\n      pop\n      jump\t// out\n        /* \"#utility.yul\":5080:6151   */\n    tag_222:\n        /* \"#utility.yul\":5239:5242   */\n      0x00\n        /* \"#utility.yul\":5268:5342   */\n      tag_332\n        /* \"#utility.yul\":5336:5341   */\n      dup3\n        /* \"#utility.yul\":5268:5342   */\n      tag_207\n      jump\t// in\n    tag_332:\n        /* \"#utility.yul\":5358:5464   */\n      tag_333\n        /* \"#utility.yul\":5457:5463   */\n      dup2\n        /* \"#utility.yul\":5452:5455   */\n      dup6\n        /* \"#utility.yul\":5358:5464   */\n      tag_208\n      jump\t// in\n    tag_333:\n        /* \"#utility.yul\":5351:5464   */\n      swap4\n      pop\n        /* \"#utility.yul\":5490:5493   */\n      dup4\n        /* \"#utility.yul\":5535:5539   */\n      0x20\n        /* \"#utility.yul\":5527:5533   */\n      dup3\n        /* \"#utility.yul\":5523:5540   */\n      mul\n        /* \"#utility.yul\":5518:5521   */\n      dup6\n        /* \"#utility.yul\":5514:5541   */\n      add\n        /* \"#utility.yul\":5565:5641   */\n      tag_334\n        /* \"#utility.yul\":5635:5640   */\n      dup6\n        /* \"#utility.yul\":5565:5641   */\n      tag_209\n      jump\t// in\n    tag_334:\n        /* \"#utility.yul\":5664:5671   */\n      dup1\n        /* \"#utility.yul\":5695:5696   */\n      0x00\n        /* \"#utility.yul\":5680:6106   */\n    tag_335:\n        /* \"#utility.yul\":5705:5711   */\n      dup6\n        /* \"#utility.yul\":5702:5703   */\n      dup2\n        /* \"#utility.yul\":5699:5712   */\n      lt\n        /* \"#utility.yul\":5680:6106   */\n      iszero\n      tag_337\n      jumpi\n        /* \"#utility.yul\":5776:5785   */\n      dup5\n        /* \"#utility.yul\":5770:5774   */\n      dup5\n        /* \"#utility.yul\":5766:5786   */\n      sub\n        /* \"#utility.yul\":5761:5764   */\n      dup10\n        /* \"#utility.yul\":5754:5787   */\n      mstore\n        /* \"#utility.yul\":5827:5833   */\n      dup2\n        /* \"#utility.yul\":5821:5834   */\n      mload\n        /* \"#utility.yul\":5855:5959   */\n      tag_338\n        /* \"#utility.yul\":5954:5958   */\n      dup6\n        /* \"#utility.yul\":5939:5952   */\n      dup3\n        /* \"#utility.yul\":5855:5959   */\n      tag_220\n      jump\t// in\n    tag_338:\n        /* \"#utility.yul\":5847:5959   */\n      swap5\n      pop\n        /* \"#utility.yul\":5982:6062   */\n      tag_339\n        /* \"#utility.yul\":6055:6061   */\n      dup4\n        /* \"#utility.yul\":5982:6062   */\n      tag_221\n      jump\t// in\n    tag_339:\n        /* \"#utility.yul\":5972:6062   */\n      swap3\n      pop\n        /* \"#utility.yul\":6091:6095   */\n      0x20\n        /* \"#utility.yul\":6086:6089   */\n      dup11\n        /* \"#utility.yul\":6082:6096   */\n      add\n        /* \"#utility.yul\":6075:6096   */\n      swap10\n      pop\n        /* \"#utility.yul\":5740:6106   */\n      pop\n        /* \"#utility.yul\":5727:5728   */\n      0x01\n        /* \"#utility.yul\":5724:5725   */\n      dup2\n        /* \"#utility.yul\":5720:5729   */\n      add\n        /* \"#utility.yul\":5715:5729   */\n      swap1\n      pop\n        /* \"#utility.yul\":5680:6106   */\n      jump(tag_335)\n    tag_337:\n        /* \"#utility.yul\":5684:5698   */\n      pop\n        /* \"#utility.yul\":6122:6126   */\n      dup3\n        /* \"#utility.yul\":6115:6126   */\n      swap8\n      pop\n        /* \"#utility.yul\":6142:6145   */\n      dup8\n        /* \"#utility.yul\":6135:6145   */\n      swap6\n      pop\n        /* \"#utility.yul\":5244:6151   */\n      pop\n      pop\n      pop\n      pop\n      pop\n        /* \"#utility.yul\":5080:6151   */\n      swap3\n      swap2\n      pop\n      pop\n      jump\t// out\n        /* \"#utility.yul\":6157:6610   */\n    tag_18:\n        /* \"#utility.yul\":6340:6344   */\n      0x00\n        /* \"#utility.yul\":6378:6380   */\n      0x20\n        /* \"#utility.yul\":6367:6376   */\n      dup3\n        /* \"#utility.yul\":6363:6381   */\n      add\n        /* \"#utility.yul\":6355:6381   */\n      swap1\n      pop\n        /* \"#utility.yul\":6427:6436   */\n      dup2\n        /* \"#utility.yul\":6421:6425   */\n      dup2\n        /* \"#utility.yul\":6417:6437   */\n      sub\n        /* \"#utility.yul\":6413:6414   */\n      0x00\n        /* \"#utility.yul\":6402:6411   */\n      dup4\n        /* \"#utility.yul\":6398:6415   */\n      add\n        /* \"#utility.yul\":6391:6438   */\n      mstore\n        /* \"#utility.yul\":6455:6603   */\n      tag_341\n        /* \"#utility.yul\":6598:6602   */\n      dup2\n        /* \"#utility.yul\":6589:6595   */\n      dup5\n        /* \"#utility.yul\":6455:6603   */\n      tag_222\n      jump\t// in\n    tag_341:\n        /* \"#utility.yul\":6447:6603   */\n      swap1\n      pop\n        /* \"#utility.yul\":6157:6610   */\n      swap3\n      swap2\n      pop\n      pop\n      jump\t// out\n        /* \"#utility.yul\":6616:6738   */\n    tag_223:\n        /* \"#utility.yul\":6689:6713   */\n      tag_343\n        /* \"#utility.yul\":6707:6712   */\n      dup2\n        /* \"#utility.yul\":6689:6713   */\n      tag_210\n      jump\t// in\n    tag_343:\n        /* \"#utility.yul\":6682:6687   */\n      dup2\n        /* \"#utility.yul\":6679:6714   */\n      eq\n        /* \"#utility.yul\":6669:6732   */\n      tag_344\n      jumpi\n        /* \"#utility.yul\":6728:6729   */\n      0x00\n        /* \"#utility.yul\":6725:6726   */\n      0x00\n        /* \"#utility.yul\":6718:6730   */\n      revert\n        /* \"#utility.yul\":6669:6732   */\n    tag_344:\n        /* \"#utility.yul\":6616:6738   */\n      pop\n      jump\t// out\n        /* \"#utility.yul\":6744:6883   */\n    tag_224:\n        /* \"#utility.yul\":6790:6795   */\n      0x00\n        /* \"#utility.yul\":6828:6834   */\n      dup2\n        /* \"#utility.yul\":6815:6835   */\n      calldataload\n        /* \"#utility.yul\":6806:6835   */\n      swap1\n      pop\n        /* \"#utility.yul\":6844:6877   */\n      tag_346\n        /* \"#utility.yul\":6871:6876   */\n      dup2\n        /* \"#utility.yul\":6844:6877   */\n      tag_223\n      jump\t// in\n    tag_346:\n        /* \"#utility.yul\":6744:6883   */\n      swap3\n      swap2\n      pop\n      pop\n      jump\t// out\n        /* \"#utility.yul\":6889:7218   */\n    tag_24:\n        /* \"#utility.yul\":6948:6954   */\n      0x00\n        /* \"#utility.yul\":6997:6999   */\n      0x20\n        /* \"#utility.yul\":6985:6994   */\n      dup3\n        /* \"#utility.yul\":6976:6983   */\n      dup5\n        /* \"#utility.yul\":6972:6995   */\n      sub\n        /* \"#utility.yul\":6968:7000   */\n      slt\n        /* \"#utility.yul\":6965:7084   */\n      iszero\n      tag_348\n      jumpi\n        /* \"#utility.yul\":7003:7082   */\n      tag_349\n      tag_201\n      jump\t// in\n    tag_349:\n        /* \"#utility.yul\":6965:7084   */\n    tag_348:\n        /* \"#utility.yul\":7123:7124   */\n      0x00\n        /* \"#utility.yul\":7148:7201   */\n      tag_350\n        /* \"#utility.yul\":7193:7200   */\n      dup5\n        /* \"#utility.yul\":7184:7190   */\n      dup3\n        /* \"#utility.yul\":7173:7182   */\n      dup6\n        /* \"#utility.yul\":7169:7191   */\n      add\n        /* \"#utility.yul\":7148:7201   */\n      tag_224\n      jump\t// in\n    tag_350:\n        /* \"#utility.yul\":7138:7201   */\n      swap2\n      pop\n        /* \"#utility.yul\":7094:7211   */\n      pop\n        /* \"#utility.yul\":6889:7218   */\n      swap3\n      swap2\n      pop\n      pop\n      jump\t// out\n        /* \"#utility.yul\":7224:7346   */\n    tag_225:\n        /* \"#utility.yul\":7297:7321   */\n      tag_352\n        /* \"#utility.yul\":7315:7320   */\n      dup2\n        /* \"#utility.yul\":7297:7321   */\n      tag_217\n      jump\t// in\n    tag_352:\n        /* \"#utility.yul\":7290:7295   */\n      dup2\n        /* \"#utility.yul\":7287:7322   */\n      eq\n        /* \"#utility.yul\":7277:7340   */\n      tag_353\n      jumpi\n        /* \"#utility.yul\":7336:7337   */\n      0x00\n        /* \"#utility.yul\":7333:7334   */\n      0x00\n        /* \"#utility.yul\":7326:7338   */\n      revert\n        /* \"#utility.yul\":7277:7340   */\n    tag_353:\n        /* \"#utility.yul\":7224:7346   */\n      pop\n      jump\t// out\n        /* \"#utility.yul\":7352:7491   */\n    tag_226:\n        /* \"#utility.yul\":7398:7403   */\n      0x00\n        /* \"#utility.yul\":7436:7442   */\n      dup2\n        /* \"#utility.yul\":7423:7443   */\n      calldataload\n        /* \"#utility.yul\":7414:7443   */\n      swap1\n      pop\n        /* \"#utility.yul\":7452:7485   */\n      tag_355\n        /* \"#utility.yul\":7479:7484   */\n      dup2\n        /* \"#utility.yul\":7452:7485   */\n      tag_225\n      jump\t// in\n    tag_355:\n        /* \"#utility.yul\":7352:7491   */\n      swap3\n      swap2\n      pop\n      pop\n      jump\t// out\n        /* \"#utility.yul\":7497:7971   */\n    tag_28:\n        /* \"#utility.yul\":7565:7571   */\n      0x00\n        /* \"#utility.yul\":7573:7579   */\n      0x00\n        /* \"#utility.yul\":7622:7624   */\n      0x40\n        /* \"#utility.yul\":7610:7619   */\n      dup4\n        /* \"#utility.yul\":7601:7608   */\n      dup6\n        /* \"#utility.yul\":7597:7620   */\n      sub\n        /* \"#utility.yul\":7593:7625   */\n      slt\n        /* \"#utility.yul\":7590:7709   */\n      iszero\n      tag_357\n      jumpi\n        /* \"#utility.yul\":7628:7707   */\n      tag_358\n      tag_201\n      jump\t// in\n    tag_358:\n        /* \"#utility.yul\":7590:7709   */\n    tag_357:\n        /* \"#utility.yul\":7748:7749   */\n      0x00\n        /* \"#utility.yul\":7773:7826   */\n      tag_359\n        /* \"#utility.yul\":7818:7825   */\n      dup6\n        /* \"#utility.yul\":7809:7815   */\n      dup3\n        /* \"#utility.yul\":7798:7807   */\n      dup7\n        /* \"#utility.yul\":7794:7816   */\n      add\n        /* \"#utility.yul\":7773:7826   */\n      tag_224\n      jump\t// in\n    tag_359:\n        /* \"#utility.yul\":7763:7826   */\n      swap3\n      pop\n        /* \"#utility.yul\":7719:7836   */\n      pop\n        /* \"#utility.yul\":7875:7877   */\n      0x20\n        /* \"#utility.yul\":7901:7954   */\n      tag_360\n        /* \"#utility.yul\":7946:7953   */\n      dup6\n        /* \"#utility.yul\":7937:7943   */\n      dup3\n        /* \"#utility.yul\":7926:7935   */\n      dup7\n        /* \"#utility.yul\":7922:7944   */\n      add\n        /* \"#utility.yul\":7901:7954   */\n      tag_226\n      jump\t// in\n    tag_360:\n        /* \"#utility.yul\":7891:7954   */\n      swap2\n      pop\n        /* \"#utility.yul\":7846:7964   */\n      pop\n        /* \"#utility.yul\":7497:7971   */\n      swap3\n      pop\n      swap3\n      swap1\n      pop\n      jump\t// out\n        /* \"#utility.yul\":7977:8094   */\n    tag_227:\n        /* \"#utility.yul\":8086:8087   */\n      0x00\n        /* \"#utility.yul\":8083:8084   */\n      0x00\n        /* \"#utility.yul\":8076:8088   */\n      revert\n        /* \"#utility.yul\":8100:8217   */\n    tag_228:\n        /* \"#utility.yul\":8209:8210   */\n      0x00\n        /* \"#utility.yul\":8206:8207   */\n      0x00\n        /* \"#utility.yul\":8199:8211   */\n      revert\n        /* \"#utility.yul\":8223:8403   */\n    tag_54:\n        /* \"#utility.yul\":8271:8348   */\n      0x4e487b7100000000000000000000000000000000000000000000000000000000\n        /* \"#utility.yul\":8268:8269   */\n      0x00\n        /* \"#utility.yul\":8261:8349   */\n      mstore\n        /* \"#utility.yul\":8368:8372   */\n      0x41\n        /* \"#utility.yul\":8365:8366   */\n      0x04\n        /* \"#utility.yul\":8358:8373   */\n      mstore\n        /* \"#utility.yul\":8392:8396   */\n      0x24\n        /* \"#utility.yul\":8389:8390   */\n      0x00\n        /* \"#utility.yul\":8382:8397   */\n      revert\n        /* \"#utility.yul\":8409:8690   */\n    tag_229:\n        /* \"#utility.yul\":8492:8519   */\n      tag_365\n        /* \"#utility.yul\":8514:8518   */\n      dup3\n        /* \"#utility.yul\":8492:8519   */\n      tag_215\n      jump\t// in\n    tag_365:\n        /* \"#utility.yul\":8484:8490   */\n      dup2\n        /* \"#utility.yul\":8480:8520   */\n      add\n        /* \"#utility.yul\":8622:8628   */\n      dup2\n        /* \"#utility.yul\":8610:8620   */\n      dup2\n        /* \"#utility.yul\":8607:8629   */\n      lt\n        /* \"#utility.yul\":8586:8604   */\n      0xffffffffffffffff\n        /* \"#utility.yul\":8574:8584   */\n      dup3\n        /* \"#utility.yul\":8571:8605   */\n      gt\n        /* \"#utility.yul\":8568:8630   */\n      or\n        /* \"#utility.yul\":8565:8653   */\n      iszero\n      tag_366\n      jumpi\n        /* \"#utility.yul\":8633:8651   */\n      tag_367\n      tag_54\n      jump\t// in\n    tag_367:\n        /* \"#utility.yul\":8565:8653   */\n    tag_366:\n        /* \"#utility.yul\":8673:8683   */\n      dup1\n        /* \"#utility.yul\":8669:8671   */\n      0x40\n        /* \"#utility.yul\":8662:8684   */\n      mstore\n        /* \"#utility.yul\":8452:8690   */\n      pop\n        /* \"#utility.yul\":8409:8690   */\n      pop\n      pop\n      jump\t// out\n        /* \"#utility.yul\":8696:8825   */\n    tag_230:\n        /* \"#utility.yul\":8730:8736   */\n      0x00\n        /* \"#utility.yul\":8757:8777   */\n      tag_369\n      tag_200\n      jump\t// in\n    tag_369:\n        /* \"#utility.yul\":8747:8777   */\n      swap1\n      pop\n        /* \"#utility.yul\":8786:8819   */\n      tag_370\n        /* \"#utility.yul\":8814:8818   */\n      dup3\n        /* \"#utility.yul\":8806:8812   */\n      dup3\n        /* \"#utility.yul\":8786:8819   */\n      tag_229\n      jump\t// in\n    tag_370:\n        /* \"#utility.yul\":8696:8825   */\n      swap2\n      swap1\n      pop\n      jump\t// out\n        /* \"#utility.yul\":8831:9139   */\n    tag_231:\n        /* \"#utility.yul\":8893:8897   */\n      0x00\n        /* \"#utility.yul\":8983:9001   */\n      0xffffffffffffffff\n        /* \"#utility.yul\":8975:8981   */\n      dup3\n        /* \"#utility.yul\":8972:9002   */\n      gt\n        /* \"#utility.yul\":8969:9025   */\n      iszero\n      tag_372\n      jumpi\n        /* \"#utility.yul\":9005:9023   */\n      tag_373\n      tag_54\n      jump\t// in\n    tag_373:\n        /* \"#utility.yul\":8969:9025   */\n    tag_372:\n        /* \"#utility.yul\":9043:9072   */\n      tag_374\n        /* \"#utility.yul\":9065:9071   */\n      dup3\n        /* \"#utility.yul\":9043:9072   */\n      tag_215\n      jump\t// in\n    tag_374:\n        /* \"#utility.yul\":9035:9072   */\n      swap1\n      pop\n        /* \"#utility.yul\":9127:9131   */\n      0x20\n        /* \"#utility.yul\":9121:9125   */\n      dup2\n        /* \"#utility.yul\":9117:9132   */\n      add\n        /* \"#utility.yul\":9109:9132   */\n      swap1\n      pop\n        /* \"#utility.yul\":8831:9139   */\n      swap2\n      swap1\n      pop\n      jump\t// out\n        /* \"#utility.yul\":9145:9293   */\n    tag_232:\n        /* \"#utility.yul\":9243:9249   */\n      dup3\n        /* \"#utility.yul\":9238:9241   */\n      dup2\n        /* \"#utility.yul\":9233:9236   */\n      dup4\n        /* \"#utility.yul\":9220:9250   */\n      calldatacopy\n        /* \"#utility.yul\":9284:9285   */\n      0x00\n        /* \"#utility.yul\":9275:9281   */\n      dup4\n        /* \"#utility.yul\":9270:9273   */\n      dup4\n        /* \"#utility.yul\":9266:9282   */\n      add\n        /* \"#utility.yul\":9259:9286   */\n      mstore\n        /* \"#utility.yul\":9145:9293   */\n      pop\n      pop\n      pop\n      jump\t// out\n        /* \"#utility.yul\":9299:9724   */\n    tag_233:\n        /* \"#utility.yul\":9377:9382   */\n      0x00\n        /* \"#utility.yul\":9402:9468   */\n      tag_377\n        /* \"#utility.yul\":9418:9467   */\n      tag_378\n        /* \"#utility.yul\":9460:9466   */\n      dup5\n        /* \"#utility.yul\":9418:9467   */\n      tag_231\n      jump\t// in\n    tag_378:\n        /* \"#utility.yul\":9402:9468   */\n      tag_230\n      jump\t// in\n    tag_377:\n        /* \"#utility.yul\":9393:9468   */\n      swap1\n      pop\n        /* \"#utility.yul\":9491:9497   */\n      dup3\n        /* \"#utility.yul\":9484:9489   */\n      dup2\n        /* \"#utility.yul\":9477:9498   */\n      mstore\n        /* \"#utility.yul\":9529:9533   */\n      0x20\n        /* \"#utility.yul\":9522:9527   */\n      dup2\n        /* \"#utility.yul\":9518:9534   */\n      add\n        /* \"#utility.yul\":9567:9570   */\n      dup5\n        /* \"#utility.yul\":9558:9564   */\n      dup5\n        /* \"#utility.yul\":9553:9556   */\n      dup5\n        /* \"#utility.yul\":9549:9565   */\n      add\n        /* \"#utility.yul\":9546:9571   */\n      gt\n        /* \"#utility.yul\":9543:9655   */\n      iszero\n      tag_379\n      jumpi\n        /* \"#utility.yul\":9574:9653   */\n      tag_380\n      tag_228\n      jump\t// in\n    tag_380:\n        /* \"#utility.yul\":9543:9655   */\n    tag_379:\n        /* \"#utility.yul\":9664:9718   */\n      tag_381\n        /* \"#utility.yul\":9711:9717   */\n      dup5\n        /* \"#utility.yul\":9706:9709   */\n      dup3\n        /* \"#utility.yul\":9701:9704   */\n      dup6\n        /* \"#utility.yul\":9664:9718   */\n      tag_232\n      jump\t// in\n    tag_381:\n        /* \"#utility.yul\":9383:9724   */\n      pop\n        /* \"#utility.yul\":9299:9724   */\n      swap4\n      swap3\n      pop\n      pop\n      pop\n      jump\t// out\n        /* \"#utility.yul\":9744:10084   */\n    tag_234:\n        /* \"#utility.yul\":9800:9805   */\n      0x00\n        /* \"#utility.yul\":9849:9852   */\n      dup3\n        /* \"#utility.yul\":9842:9846   */\n      0x1f\n        /* \"#utility.yul\":9834:9840   */\n      dup4\n        /* \"#utility.yul\":9830:9847   */\n      add\n        /* \"#utility.yul\":9826:9853   */\n      slt\n        /* \"#utility.yul\":9816:9938   */\n      tag_383\n      jumpi\n        /* \"#utility.yul\":9857:9936   */\n      tag_384\n      tag_227\n      jump\t// in\n    tag_384:\n        /* \"#utility.yul\":9816:9938   */\n    tag_383:\n        /* \"#utility.yul\":9974:9980   */\n      dup2\n        /* \"#utility.yul\":9961:9981   */\n      calldataload\n        /* \"#utility.yul\":9999:10078   */\n      tag_385\n        /* \"#utility.yul\":10074:10077   */\n      dup5\n        /* \"#utility.yul\":10066:10072   */\n      dup3\n        /* \"#utility.yul\":10059:10063   */\n      0x20\n        /* \"#utility.yul\":10051:10057   */\n      dup7\n        /* \"#utility.yul\":10047:10064   */\n      add\n        /* \"#utility.yul\":9999:10078   */\n      tag_233\n      jump\t// in\n    tag_385:\n        /* \"#utility.yul\":9990:10078   */\n      swap2\n      pop\n        /* \"#utility.yul\":9806:10084   */\n      pop\n        /* \"#utility.yul\":9744:10084   */\n      swap3\n      swap2\n      pop\n      pop\n      jump\t// out\n        /* \"#utility.yul\":10090:11069   */\n    tag_32:\n        /* \"#utility.yul\":10187:10193   */\n      0x00\n        /* \"#utility.yul\":10195:10201   */\n      0x00\n        /* \"#utility.yul\":10203:10209   */\n      0x00\n        /* \"#utility.yul\":10252:10254   */\n      0x60\n        /* \"#utility.yul\":10240:10249   */\n      dup5\n        /* \"#utility.yul\":10231:10238   */\n      dup7\n        /* \"#utility.yul\":10227:10250   */\n      sub\n        /* \"#utility.yul\":10223:10255   */\n      slt\n        /* \"#utility.yul\":10220:10339   */\n      iszero\n      tag_387\n      jumpi\n        /* \"#utility.yul\":10258:10337   */\n      tag_388\n      tag_201\n      jump\t// in\n    tag_388:\n        /* \"#utility.yul\":10220:10339   */\n    tag_387:\n        /* \"#utility.yul\":10378:10379   */\n      0x00\n        /* \"#utility.yul\":10403:10456   */\n      tag_389\n        /* \"#utility.yul\":10448:10455   */\n      dup7\n        /* \"#utility.yul\":10439:10445   */\n      dup3\n        /* \"#utility.yul\":10428:10437   */\n      dup8\n        /* \"#utility.yul\":10424:10446   */\n      add\n        /* \"#utility.yul\":10403:10456   */\n      tag_224\n      jump\t// in\n    tag_389:\n        /* \"#utility.yul\":10393:10456   */\n      swap4\n      pop\n        /* \"#utility.yul\":10349:10466   */\n      pop\n        /* \"#utility.yul\":10533:10535   */\n      0x20\n        /* \"#utility.yul\":10522:10531   */\n      dup5\n        /* \"#utility.yul\":10518:10536   */\n      add\n        /* \"#utility.yul\":10505:10537   */\n      calldataload\n        /* \"#utility.yul\":10564:10582   */\n      0xffffffffffffffff\n        /* \"#utility.yul\":10556:10562   */\n      dup2\n        /* \"#utility.yul\":10553:10583   */\n      gt\n        /* \"#utility.yul\":10550:10667   */\n      iszero\n      tag_390\n      jumpi\n        /* \"#utility.yul\":10586:10665   */\n      tag_391\n      tag_202\n      jump\t// in\n    tag_391:\n        /* \"#utility.yul\":10550:10667   */\n    tag_390:\n        /* \"#utility.yul\":10691:10754   */\n      tag_392\n        /* \"#utility.yul\":10746:10753   */\n      dup7\n        /* \"#utility.yul\":10737:10743   */\n      dup3\n        /* \"#utility.yul\":10726:10735   */\n      dup8\n        /* \"#utility.yul\":10722:10744   */\n      add\n        /* \"#utility.yul\":10691:10754   */\n      tag_234\n      jump\t// in\n    tag_392:\n        /* \"#utility.yul\":10681:10754   */\n      swap3\n      pop\n        /* \"#utility.yul\":10476:10764   */\n      pop\n        /* \"#utility.yul\":10831:10833   */\n      0x40\n        /* \"#utility.yul\":10820:10829   */\n      dup5\n        /* \"#utility.yul\":10816:10834   */\n      add\n        /* \"#utility.yul\":10803:10835   */\n      calldataload\n        /* \"#utility.yul\":10862:10880   */\n      0xffffffffffffffff\n        /* \"#utility.yul\":10854:10860   */\n      dup2\n        /* \"#utility.yul\":10851:10881   */\n      gt\n        /* \"#utility.yul\":10848:10965   */\n      iszero\n      tag_393\n      jumpi\n        /* \"#utility.yul\":10884:10963   */\n      tag_394\n      tag_202\n      jump\t// in\n    tag_394:\n        /* \"#utility.yul\":10848:10965   */\n    tag_393:\n        /* \"#utility.yul\":10989:11052   */\n      tag_395\n        /* \"#utility.yul\":11044:11051   */\n      dup7\n        /* \"#utility.yul\":11035:11041   */\n      dup3\n        /* \"#utility.yul\":11024:11033   */\n      dup8\n        /* \"#utility.yul\":11020:11042   */\n      add\n        /* \"#utility.yul\":10989:11052   */\n      tag_234\n      jump\t// in\n    tag_395:\n        /* \"#utility.yul\":10979:11052   */\n      swap2\n      pop\n        /* \"#utility.yul\":10774:11062   */\n      pop\n        /* \"#utility.yul\":10090:11069   */\n      swap3\n      pop\n      swap3\n      pop\n      swap3\n      jump\t// out\n        /* \"#utility.yul\":11075:12234   */\n    tag_42:\n        /* \"#utility.yul\":11182:11188   */\n      0x00\n        /* \"#utility.yul\":11190:11196   */\n      0x00\n        /* \"#utility.yul\":11198:11204   */\n      0x00\n        /* \"#utility.yul\":11247:11249   */\n      0x60\n        /* \"#utility.yul\":11235:11244   */\n      dup5\n        /* \"#utility.yul\":11226:11233   */\n      dup7\n        /* \"#utility.yul\":11222:11245   */\n      sub\n        /* \"#utility.yul\":11218:11250   */\n      slt\n        /* \"#utility.yul\":11215:11334   */\n      iszero\n      tag_397\n      jumpi\n        /* \"#utility.yul\":11253:11332   */\n      tag_398\n      tag_201\n      jump\t// in\n    tag_398:\n        /* \"#utility.yul\":11215:11334   */\n    tag_397:\n        /* \"#utility.yul\":11401:11402   */\n      0x00\n        /* \"#utility.yul\":11390:11399   */\n      dup5\n        /* \"#utility.yul\":11386:11403   */\n      add\n        /* \"#utility.yul\":11373:11404   */\n      calldataload\n        /* \"#utility.yul\":11431:11449   */\n      0xffffffffffffffff\n        /* \"#utility.yul\":11423:11429   */\n      dup2\n        /* \"#utility.yul\":11420:11450   */\n      gt\n        /* \"#utility.yul\":11417:11534   */\n      iszero\n      tag_399\n      jumpi\n        /* \"#utility.yul\":11453:11532   */\n      tag_400\n      tag_202\n      jump\t// in\n    tag_400:\n        /* \"#utility.yul\":11417:11534   */\n    tag_399:\n        /* \"#utility.yul\":11558:11621   */\n      tag_401\n        /* \"#utility.yul\":11613:11620   */\n      dup7\n        /* \"#utility.yul\":11604:11610   */\n      dup3\n        /* \"#utility.yul\":11593:11602   */\n      dup8\n        /* \"#utility.yul\":11589:11611   */\n      add\n        /* \"#utility.yul\":11558:11621   */\n      tag_234\n      jump\t// in\n    tag_401:\n        /* \"#utility.yul\":11548:11621   */\n      swap4\n      pop\n        /* \"#utility.yul\":11344:11631   */\n      pop\n        /* \"#utility.yul\":11698:11700   */\n      0x20\n        /* \"#utility.yul\":11687:11696   */\n      dup5\n        /* \"#utility.yul\":11683:11701   */\n      add\n        /* \"#utility.yul\":11670:11702   */\n      calldataload\n        /* \"#utility.yul\":11729:11747   */\n      0xffffffffffffffff\n        /* \"#utility.yul\":11721:11727   */\n      dup2\n        /* \"#utility.yul\":11718:11748   */\n      gt\n        /* \"#utility.yul\":11715:11832   */\n      iszero\n      tag_402\n      jumpi\n        /* \"#utility.yul\":11751:11830   */\n      tag_403\n      tag_202\n      jump\t// in\n    tag_403:\n        /* \"#utility.yul\":11715:11832   */\n    tag_402:\n        /* \"#utility.yul\":11856:11919   */\n      tag_404\n        /* \"#utility.yul\":11911:11918   */\n      dup7\n        /* \"#utility.yul\":11902:11908   */\n      dup3\n        /* \"#utility.yul\":11891:11900   */\n      dup8\n        /* \"#utility.yul\":11887:11909   */\n      add\n        /* \"#utility.yul\":11856:11919   */\n      tag_234\n      jump\t// in\n    tag_404:\n        /* \"#utility.yul\":11846:11919   */\n      swap3\n      pop\n        /* \"#utility.yul\":11641:11929   */\n      pop\n        /* \"#utility.yul\":11996:11998   */\n      0x40\n        /* \"#utility.yul\":11985:11994   */\n      dup5\n        /* \"#utility.yul\":11981:11999   */\n      add\n        /* \"#utility.yul\":11968:12000   */\n      calldataload\n        /* \"#utility.yul\":12027:12045   */\n      0xffffffffffffffff\n        /* \"#utility.yul\":12019:12025   */\n      dup2\n        /* \"#utility.yul\":12016:12046   */\n      gt\n        /* \"#utility.yul\":12013:12130   */\n      iszero\n      tag_405\n      jumpi\n        /* \"#utility.yul\":12049:12128   */\n      tag_406\n      tag_202\n      jump\t// in\n    tag_406:\n        /* \"#utility.yul\":12013:12130   */\n    tag_405:\n        /* \"#utility.yul\":12154:12217   */\n      tag_407\n        /* \"#utility.yul\":12209:12216   */\n      dup7\n        /* \"#utility.yul\":12200:12206   */\n      dup3\n        /* \"#utility.yul\":12189:12198   */\n      dup8\n        /* \"#utility.yul\":12185:12207   */\n      add\n        /* \"#utility.yul\":12154:12217   */\n      tag_234\n      jump\t// in\n    tag_407:\n        /* \"#utility.yul\":12144:12217   */\n      swap2\n      pop\n        /* \"#utility.yul\":11939:12227   */\n      pop\n        /* \"#utility.yul\":11075:12234   */\n      swap3\n      pop\n      swap3\n      pop\n      swap3\n      jump\t// out\n        /* \"#utility.yul\":12240:12377   */\n    tag_235:\n        /* \"#utility.yul\":12330:12336   */\n      0x00\n        /* \"#utility.yul\":12364:12369   */\n      dup2\n        /* \"#utility.yul\":12358:12370   */\n      mload\n        /* \"#utility.yul\":12348:12370   */\n      swap1\n      pop\n        /* \"#utility.yul\":12240:12377   */\n      swap2\n      swap1\n      pop\n      jump\t// out\n        /* \"#utility.yul\":12383:12590   */\n    tag_236:\n        /* \"#utility.yul\":12505:12516   */\n      0x00\n        /* \"#utility.yul\":12539:12545   */\n      dup3\n        /* \"#utility.yul\":12534:12537   */\n      dup3\n        /* \"#utility.yul\":12527:12546   */\n      mstore\n        /* \"#utility.yul\":12579:12583   */\n      0x20\n        /* \"#utility.yul\":12574:12577   */\n      dup3\n        /* \"#utility.yul\":12570:12584   */\n      add\n        /* \"#utility.yul\":12555:12584   */\n      swap1\n      pop\n        /* \"#utility.yul\":12383:12590   */\n      swap3\n      swap2\n      pop\n      pop\n      jump\t// out\n        /* \"#utility.yul\":12596:12751   */\n    tag_237:\n        /* \"#utility.yul\":12686:12690   */\n      0x00\n        /* \"#utility.yul\":12709:12712   */\n      dup2\n        /* \"#utility.yul\":12701:12712   */\n      swap1\n      pop\n        /* \"#utility.yul\":12739:12743   */\n      0x20\n        /* \"#utility.yul\":12734:12737   */\n      dup3\n        /* \"#utility.yul\":12730:12744   */\n      add\n        /* \"#utility.yul\":12722:12744   */\n      swap1\n      pop\n        /* \"#utility.yul\":12596:12751   */\n      swap2\n      swap1\n      pop\n      jump\t// out\n        /* \"#utility.yul\":12757:12865   */\n    tag_238:\n        /* \"#utility.yul\":12834:12858   */\n      tag_412\n        /* \"#utility.yul\":12852:12857   */\n      dup2\n        /* \"#utility.yul\":12834:12858   */\n      tag_204\n      jump\t// in\n    tag_412:\n        /* \"#utility.yul\":12829:12832   */\n      dup3\n        /* \"#utility.yul\":12822:12859   */\n      mstore\n        /* \"#utility.yul\":12757:12865   */\n      pop\n      pop\n      jump\t// out\n        /* \"#utility.yul\":12931:14497   */\n    tag_239:\n        /* \"#utility.yul\":13036:13039   */\n      0x00\n        /* \"#utility.yul\":13072:13076   */\n      0xe0\n        /* \"#utility.yul\":13067:13070   */\n      dup4\n        /* \"#utility.yul\":13063:13077   */\n      add\n        /* \"#utility.yul\":13157:13161   */\n      0x00\n        /* \"#utility.yul\":13150:13155   */\n      dup4\n        /* \"#utility.yul\":13146:13162   */\n      add\n        /* \"#utility.yul\":13140:13163   */\n      mload\n        /* \"#utility.yul\":13176:13239   */\n      tag_414\n        /* \"#utility.yul\":13233:13237   */\n      0x00\n        /* \"#utility.yul\":13228:13231   */\n      dup7\n        /* \"#utility.yul\":13224:13238   */\n      add\n        /* \"#utility.yul\":13210:13222   */\n      dup3\n        /* \"#utility.yul\":13176:13239   */\n      tag_211\n      jump\t// in\n    tag_414:\n        /* \"#utility.yul\":13087:13249   */\n      pop\n        /* \"#utility.yul\":13343:13347   */\n      0x20\n        /* \"#utility.yul\":13336:13341   */\n      dup4\n        /* \"#utility.yul\":13332:13348   */\n      add\n        /* \"#utility.yul\":13326:13349   */\n      mload\n        /* \"#utility.yul\":13362:13425   */\n      tag_415\n        /* \"#utility.yul\":13419:13423   */\n      0x20\n        /* \"#utility.yul\":13414:13417   */\n      dup7\n        /* \"#utility.yul\":13410:13424   */\n      add\n        /* \"#utility.yul\":13396:13408   */\n      dup3\n        /* \"#utility.yul\":13362:13425   */\n      tag_238\n      jump\t// in\n    tag_415:\n        /* \"#utility.yul\":13259:13435   */\n      pop\n        /* \"#utility.yul\":13526:13530   */\n      0x40\n        /* \"#utility.yul\":13519:13524   */\n      dup4\n        /* \"#utility.yul\":13515:13531   */\n      add\n        /* \"#utility.yul\":13509:13532   */\n      mload\n        /* \"#utility.yul\":13579:13582   */\n      dup5\n        /* \"#utility.yul\":13573:13577   */\n      dup3\n        /* \"#utility.yul\":13569:13583   */\n      sub\n        /* \"#utility.yul\":13562:13566   */\n      0x40\n        /* \"#utility.yul\":13557:13560   */\n      dup7\n        /* \"#utility.yul\":13553:13567   */\n      add\n        /* \"#utility.yul\":13546:13584   */\n      mstore\n        /* \"#utility.yul\":13605:13678   */\n      tag_416\n        /* \"#utility.yul\":13673:13677   */\n      dup3\n        /* \"#utility.yul\":13659:13671   */\n      dup3\n        /* \"#utility.yul\":13605:13678   */\n      tag_216\n      jump\t// in\n    tag_416:\n        /* \"#utility.yul\":13597:13678   */\n      swap2\n      pop\n        /* \"#utility.yul\":13445:13689   */\n      pop\n        /* \"#utility.yul\":13774:13778   */\n      0x60\n        /* \"#utility.yul\":13767:13772   */\n      dup4\n        /* \"#utility.yul\":13763:13779   */\n      add\n        /* \"#utility.yul\":13757:13780   */\n      mload\n        /* \"#utility.yul\":13827:13830   */\n      dup5\n        /* \"#utility.yul\":13821:13825   */\n      dup3\n        /* \"#utility.yul\":13817:13831   */\n      sub\n        /* \"#utility.yul\":13810:13814   */\n      0x60\n        /* \"#utility.yul\":13805:13808   */\n      dup7\n        /* \"#utility.yul\":13801:13815   */\n      add\n        /* \"#utility.yul\":13794:13832   */\n      mstore\n        /* \"#utility.yul\":13853:13926   */\n      tag_417\n        /* \"#utility.yul\":13921:13925   */\n      dup3\n        /* \"#utility.yul\":13907:13919   */\n      dup3\n        /* \"#utility.yul\":13853:13926   */\n      tag_216\n      jump\t// in\n    tag_417:\n        /* \"#utility.yul\":13845:13926   */\n      swap2\n      pop\n        /* \"#utility.yul\":13699:13937   */\n      pop\n        /* \"#utility.yul\":14021:14025   */\n      0x80\n        /* \"#utility.yul\":14014:14019   */\n      dup4\n        /* \"#utility.yul\":14010:14026   */\n      add\n        /* \"#utility.yul\":14004:14027   */\n      mload\n        /* \"#utility.yul\":14040:14103   */\n      tag_418\n        /* \"#utility.yul\":14097:14101   */\n      0x80\n        /* \"#utility.yul\":14092:14095   */\n      dup7\n        /* \"#utility.yul\":14088:14102   */\n      add\n        /* \"#utility.yul\":14074:14086   */\n      dup3\n        /* \"#utility.yul\":14040:14103   */\n      tag_218\n      jump\t// in\n    tag_418:\n        /* \"#utility.yul\":13947:14113   */\n      pop\n        /* \"#utility.yul\":14199:14203   */\n      0xa0\n        /* \"#utility.yul\":14192:14197   */\n      dup4\n        /* \"#utility.yul\":14188:14204   */\n      add\n        /* \"#utility.yul\":14182:14205   */\n      mload\n        /* \"#utility.yul\":14218:14281   */\n      tag_419\n        /* \"#utility.yul\":14275:14279   */\n      0xa0\n        /* \"#utility.yul\":14270:14273   */\n      dup7\n        /* \"#utility.yul\":14266:14280   */\n      add\n        /* \"#utility.yul\":14252:14264   */\n      dup3\n        /* \"#utility.yul\":14218:14281   */\n      tag_218\n      jump\t// in\n    tag_419:\n        /* \"#utility.yul\":14123:14291   */\n      pop\n        /* \"#utility.yul\":14378:14382   */\n      0xc0\n        /* \"#utility.yul\":14371:14376   */\n      dup4\n        /* \"#utility.yul\":14367:14383   */\n      add\n        /* \"#utility.yul\":14361:14384   */\n      mload\n        /* \"#utility.yul\":14397:14460   */\n      tag_420\n        /* \"#utility.yul\":14454:14458   */\n      0xc0\n        /* \"#utility.yul\":14449:14452   */\n      dup7\n        /* \"#utility.yul\":14445:14459   */\n      add\n        /* \"#utility.yul\":14431:14443   */\n      dup3\n        /* \"#utility.yul\":14397:14460   */\n      tag_218\n      jump\t// in\n    tag_420:\n        /* \"#utility.yul\":14301:14470   */\n      pop\n        /* \"#utility.yul\":14487:14491   */\n      dup1\n        /* \"#utility.yul\":14480:14491   */\n      swap2\n      pop\n        /* \"#utility.yul\":13041:14497   */\n      pop\n        /* \"#utility.yul\":12931:14497   */\n      swap3\n      swap2\n      pop\n      pop\n      jump\t// out\n        /* \"#utility.yul\":14503:14751   */\n    tag_240:\n        /* \"#utility.yul\":14618:14628   */\n      0x00\n        /* \"#utility.yul\":14653:14745   */\n      tag_422\n        /* \"#utility.yul\":14741:14744   */\n      dup4\n        /* \"#utility.yul\":14733:14739   */\n      dup4\n        /* \"#utility.yul\":14653:14745   */\n      tag_239\n      jump\t// in\n    tag_422:\n        /* \"#utility.yul\":14639:14745   */\n      swap1\n      pop\n        /* \"#utility.yul\":14503:14751   */\n      swap3\n      swap2\n      pop\n      pop\n      jump\t// out\n        /* \"#utility.yul\":14757:14893   */\n    tag_241:\n        /* \"#utility.yul\":14850:14854   */\n      0x00\n        /* \"#utility.yul\":14882:14886   */\n      0x20\n        /* \"#utility.yul\":14877:14880   */\n      dup3\n        /* \"#utility.yul\":14873:14887   */\n      add\n        /* \"#utility.yul\":14865:14887   */\n      swap1\n      pop\n        /* \"#utility.yul\":14757:14893   */\n      swap2\n      swap1\n      pop\n      jump\t// out\n        /* \"#utility.yul\":14963:16058   */\n    tag_242:\n        /* \"#utility.yul\":15128:15131   */\n      0x00\n        /* \"#utility.yul\":15157:15234   */\n      tag_425\n        /* \"#utility.yul\":15228:15233   */\n      dup3\n        /* \"#utility.yul\":15157:15234   */\n      tag_235\n      jump\t// in\n    tag_425:\n        /* \"#utility.yul\":15250:15359   */\n      tag_426\n        /* \"#utility.yul\":15352:15358   */\n      dup2\n        /* \"#utility.yul\":15347:15350   */\n      dup6\n        /* \"#utility.yul\":15250:15359   */\n      tag_236\n      jump\t// in\n    tag_426:\n        /* \"#utility.yul\":15243:15359   */\n      swap4\n      pop\n        /* \"#utility.yul\":15385:15388   */\n      dup4\n        /* \"#utility.yul\":15430:15434   */\n      0x20\n        /* \"#utility.yul\":15422:15428   */\n      dup3\n        /* \"#utility.yul\":15418:15435   */\n      mul\n        /* \"#utility.yul\":15413:15416   */\n      dup6\n        /* \"#utility.yul\":15409:15436   */\n      add\n        /* \"#utility.yul\":15460:15539   */\n      tag_427\n        /* \"#utility.yul\":15533:15538   */\n      dup6\n        /* \"#utility.yul\":15460:15539   */\n      tag_237\n      jump\t// in\n    tag_427:\n        /* \"#utility.yul\":15562:15569   */\n      dup1\n        /* \"#utility.yul\":15593:15594   */\n      0x00\n        /* \"#utility.yul\":15578:16013   */\n    tag_428:\n        /* \"#utility.yul\":15603:15609   */\n      dup6\n        /* \"#utility.yul\":15600:15601   */\n      dup2\n        /* \"#utility.yul\":15597:15610   */\n      lt\n        /* \"#utility.yul\":15578:16013   */\n      iszero\n      tag_430\n      jumpi\n        /* \"#utility.yul\":15674:15683   */\n      dup5\n        /* \"#utility.yul\":15668:15672   */\n      dup5\n        /* \"#utility.yul\":15664:15684   */\n      sub\n        /* \"#utility.yul\":15659:15662   */\n      dup10\n        /* \"#utility.yul\":15652:15685   */\n      mstore\n        /* \"#utility.yul\":15725:15731   */\n      dup2\n        /* \"#utility.yul\":15719:15732   */\n      mload\n        /* \"#utility.yul\":15753:15863   */\n      tag_431\n        /* \"#utility.yul\":15858:15862   */\n      dup6\n        /* \"#utility.yul\":15843:15856   */\n      dup3\n        /* \"#utility.yul\":15753:15863   */\n      tag_240\n      jump\t// in\n    tag_431:\n        /* \"#utility.yul\":15745:15863   */\n      swap5\n      pop\n        /* \"#utility.yul\":15886:15969   */\n      tag_432\n        /* \"#utility.yul\":15962:15968   */\n      dup4\n        /* \"#utility.yul\":15886:15969   */\n      tag_241\n      jump\t// in\n    tag_432:\n        /* \"#utility.yul\":15876:15969   */\n      swap3\n      pop\n        /* \"#utility.yul\":15998:16002   */\n      0x20\n        /* \"#utility.yul\":15993:15996   */\n      dup11\n        /* \"#utility.yul\":15989:16003   */\n      add\n        /* \"#utility.yul\":15982:16003   */\n      swap10\n      pop\n        /* \"#utility.yul\":15638:16013   */\n      pop\n        /* \"#utility.yul\":15625:15626   */\n      0x01\n        /* \"#utility.yul\":15622:15623   */\n      dup2\n        /* \"#utility.yul\":15618:15627   */\n      add\n        /* \"#utility.yul\":15613:15627   */\n      swap1\n      pop\n        /* \"#utility.yul\":15578:16013   */\n      jump(tag_428)\n    tag_430:\n        /* \"#utility.yul\":15582:15596   */\n      pop\n        /* \"#utility.yul\":16029:16033   */\n      dup3\n        /* \"#utility.yul\":16022:16033   */\n      swap8\n      pop\n        /* \"#utility.yul\":16049:16052   */\n      dup8\n        /* \"#utility.yul\":16042:16052   */\n      swap6\n      pop\n        /* \"#utility.yul\":15133:16058   */\n      pop\n      pop\n      pop\n      pop\n      pop\n        /* \"#utility.yul\":14963:16058   */\n      swap3\n      swap2\n      pop\n      pop\n      jump\t// out\n        /* \"#utility.yul\":16064:16529   */\n    tag_48:\n        /* \"#utility.yul\":16253:16257   */\n      0x00\n        /* \"#utility.yul\":16291:16293   */\n      0x20\n        /* \"#utility.yul\":16280:16289   */\n      dup3\n        /* \"#utility.yul\":16276:16294   */\n      add\n        /* \"#utility.yul\":16268:16294   */\n      swap1\n      pop\n        /* \"#utility.yul\":16340:16349   */\n      dup2\n        /* \"#utility.yul\":16334:16338   */\n      dup2\n        /* \"#utility.yul\":16330:16350   */\n      sub\n        /* \"#utility.yul\":16326:16327   */\n      0x00\n        /* \"#utility.yul\":16315:16324   */\n      dup4\n        /* \"#utility.yul\":16311:16328   */\n      add\n        /* \"#utility.yul\":16304:16351   */\n      mstore\n        /* \"#utility.yul\":16368:16522   */\n      tag_434\n        /* \"#utility.yul\":16517:16521   */\n      dup2\n        /* \"#utility.yul\":16508:16514   */\n      dup5\n        /* \"#utility.yul\":16368:16522   */\n      tag_242\n      jump\t// in\n    tag_434:\n        /* \"#utility.yul\":16360:16522   */\n      swap1\n      pop\n        /* \"#utility.yul\":16064:16529   */\n      swap3\n      swap2\n      pop\n      pop\n      jump\t// out\n        /* \"#utility.yul\":16535:16715   */\n    tag_64:\n        /* \"#utility.yul\":16583:16660   */\n      0x4e487b7100000000000000000000000000000000000000000000000000000000\n        /* \"#utility.yul\":16580:16581   */\n      0x00\n        /* \"#utility.yul\":16573:16661   */\n      mstore\n        /* \"#utility.yul\":16680:16684   */\n      0x32\n        /* \"#utility.yul\":16677:16678   */\n      0x04\n        /* \"#utility.yul\":16670:16685   */\n      mstore\n        /* \"#utility.yul\":16704:16708   */\n      0x24\n        /* \"#utility.yul\":16701:16702   */\n      0x00\n        /* \"#utility.yul\":16694:16709   */\n      revert\n        /* \"#utility.yul\":16721:16901   */\n    tag_243:\n        /* \"#utility.yul\":16769:16846   */\n      0x4e487b7100000000000000000000000000000000000000000000000000000000\n        /* \"#utility.yul\":16766:16767   */\n      0x00\n        /* \"#utility.yul\":16759:16847   */\n      mstore\n        /* \"#utility.yul\":16866:16870   */\n      0x22\n        /* \"#utility.yul\":16863:16864   */\n      0x04\n        /* \"#utility.yul\":16856:16871   */\n      mstore\n        /* \"#utility.yul\":16890:16894   */\n      0x24\n        /* \"#utility.yul\":16887:16888   */\n      0x00\n        /* \"#utility.yul\":16880:16895   */\n      revert\n        /* \"#utility.yul\":16907:17227   */\n    tag_66:\n        /* \"#utility.yul\":16951:16957   */\n      0x00\n        /* \"#utility.yul\":16988:16989   */\n      0x02\n        /* \"#utility.yul\":16982:16986   */\n      dup3\n        /* \"#utility.yul\":16978:16990   */\n      div\n        /* \"#utility.yul\":16968:16990   */\n      swap1\n      pop\n        /* \"#utility.yul\":17035:17036   */\n      0x01\n        /* \"#utility.yul\":17029:17033   */\n      dup3\n        /* \"#utility.yul\":17025:17037   */\n      and\n        /* \"#utility.yul\":17056:17074   */\n      dup1\n        /* \"#utility.yul\":17046:17127   */\n      tag_438\n      jumpi\n        /* \"#utility.yul\":17112:17116   */\n      0x7f\n        /* \"#utility.yul\":17104:17110   */\n      dup3\n        /* \"#utility.yul\":17100:17117   */\n      and\n        /* \"#utility.yul\":17090:17117   */\n      swap2\n      pop\n        /* \"#utility.yul\":17046:17127   */\n    tag_438:\n        /* \"#utility.yul\":17174:17176   */\n      0x20\n        /* \"#utility.yul\":17166:17172   */\n      dup3\n        /* \"#utility.yul\":17163:17177   */\n      lt\n        /* \"#utility.yul\":17143:17161   */\n      dup2\n        /* \"#utility.yul\":17140:17178   */\n      sub\n        /* \"#utility.yul\":17137:17221   */\n      tag_439\n      jumpi\n        /* \"#utility.yul\":17193:17211   */\n      tag_440\n      tag_243\n      jump\t// in\n    tag_440:\n        /* \"#utility.yul\":17137:17221   */\n    tag_439:\n        /* \"#utility.yul\":16958:17227   */\n      pop\n        /* \"#utility.yul\":16907:17227   */\n      swap2\n      swap1\n      pop\n      jump\t// out\n        /* \"#utility.yul\":17233:17402   */\n    tag_244:\n        /* \"#utility.yul\":17317:17328   */\n      0x00\n        /* \"#utility.yul\":17351:17357   */\n      dup3\n        /* \"#utility.yul\":17346:17349   */\n      dup3\n        /* \"#utility.yul\":17339:17358   */\n      mstore\n        /* \"#utility.yul\":17391:17395   */\n      0x20\n        /* \"#utility.yul\":17386:17389   */\n      dup3\n        /* \"#utility.yul\":17382:17396   */\n      add\n        /* \"#utility.yul\":17367:17396   */\n      swap1\n      pop\n        /* \"#utility.yul\":17233:17402   */\n      swap3\n      swap2\n      pop\n      pop\n      jump\t// out\n        /* \"#utility.yul\":17408:17578   */\n    tag_245:\n        /* \"#utility.yul\":17548:17570   */\n      0x506f737420646f6573206e6f742065786973742e000000000000000000000000\n        /* \"#utility.yul\":17544:17545   */\n      0x00\n        /* \"#utility.yul\":17536:17542   */\n      dup3\n        /* \"#utility.yul\":17532:17546   */\n      add\n        /* \"#utility.yul\":17525:17571   */\n      mstore\n        /* \"#utility.yul\":17408:17578   */\n      pop\n      jump\t// out\n        /* \"#utility.yul\":17584:17950   */\n    tag_246:\n        /* \"#utility.yul\":17726:17729   */\n      0x00\n        /* \"#utility.yul\":17747:17814   */\n      tag_444\n        /* \"#utility.yul\":17811:17813   */\n      0x14\n        /* \"#utility.yul\":17806:17809   */\n      dup4\n        /* \"#utility.yul\":17747:17814   */\n      tag_244\n      jump\t// in\n    tag_444:\n        /* \"#utility.yul\":17740:17814   */\n      swap2\n      pop\n        /* \"#utility.yul\":17823:17916   */\n      tag_445\n        /* \"#utility.yul\":17912:17915   */\n      dup3\n        /* \"#utility.yul\":17823:17916   */\n      tag_245\n      jump\t// in\n    tag_445:\n        /* \"#utility.yul\":17941:17943   */\n      0x20\n        /* \"#utility.yul\":17936:17939   */\n      dup3\n        /* \"#utility.yul\":17932:17944   */\n      add\n        /* \"#utility.yul\":17925:17944   */\n      swap1\n      pop\n        /* \"#utility.yul\":17584:17950   */\n      swap2\n      swap1\n      pop\n      jump\t// out\n        /* \"#utility.yul\":17956:18375   */\n    tag_115:\n        /* \"#utility.yul\":18122:18126   */\n      0x00\n        /* \"#utility.yul\":18160:18162   */\n      0x20\n        /* \"#utility.yul\":18149:18158   */\n      dup3\n        /* \"#utility.yul\":18145:18163   */\n      add\n        /* \"#utility.yul\":18137:18163   */\n      swap1\n      pop\n        /* \"#utility.yul\":18209:18218   */\n      dup2\n        /* \"#utility.yul\":18203:18207   */\n      dup2\n        /* \"#utility.yul\":18199:18219   */\n      sub\n        /* \"#utility.yul\":18195:18196   */\n      0x00\n        /* \"#utility.yul\":18184:18193   */\n      dup4\n        /* \"#utility.yul\":18180:18197   */\n      add\n        /* \"#utility.yul\":18173:18220   */\n      mstore\n        /* \"#utility.yul\":18237:18368   */\n      tag_447\n        /* \"#utility.yul\":18363:18367   */\n      dup2\n        /* \"#utility.yul\":18237:18368   */\n      tag_246\n      jump\t// in\n    tag_447:\n        /* \"#utility.yul\":18229:18368   */\n      swap1\n      pop\n        /* \"#utility.yul\":17956:18375   */\n      swap2\n      swap1\n      pop\n      jump\t// out\n        /* \"#utility.yul\":18381:18558   */\n    tag_247:\n        /* \"#utility.yul\":18521:18550   */\n      0x416c726561647920766f746564206f6e207468697320706f73742e0000000000\n        /* \"#utility.yul\":18517:18518   */\n      0x00\n        /* \"#utility.yul\":18509:18515   */\n      dup3\n        /* \"#utility.yul\":18505:18519   */\n      add\n        /* \"#utility.yul\":18498:18551   */\n      mstore\n        /* \"#utility.yul\":18381:18558   */\n      pop\n      jump\t// out\n        /* \"#utility.yul\":18564:18930   */\n    tag_248:\n        /* \"#utility.yul\":18706:18709   */\n      0x00\n        /* \"#utility.yul\":18727:18794   */\n      tag_450\n        /* \"#utility.yul\":18791:18793   */\n      0x1b\n        /* \"#utility.yul\":18786:18789   */\n      dup4\n        /* \"#utility.yul\":18727:18794   */\n      tag_244\n      jump\t// in\n    tag_450:\n        /* \"#utility.yul\":18720:18794   */\n      swap2\n      pop\n        /* \"#utility.yul\":18803:18896   */\n      tag_451\n        /* \"#utility.yul\":18892:18895   */\n      dup3\n        /* \"#utility.yul\":18803:18896   */\n      tag_247\n      jump\t// in\n    tag_451:\n        /* \"#utility.yul\":18921:18923   */\n      0x20\n        /* \"#utility.yul\":18916:18919   */\n      dup3\n        /* \"#utility.yul\":18912:18924   */\n      add\n        /* \"#utility.yul\":18905:18924   */\n      swap1\n      pop\n        /* \"#utility.yul\":18564:18930   */\n      swap2\n      swap1\n      pop\n      jump\t// out\n        /* \"#utility.yul\":18936:19355   */\n    tag_118:\n        /* \"#utility.yul\":19102:19106   */\n      0x00\n        /* \"#utility.yul\":19140:19142   */\n      0x20\n        /* \"#utility.yul\":19129:19138   */\n      dup3\n        /* \"#utility.yul\":19125:19143   */\n      add\n        /* \"#utility.yul\":19117:19143   */\n      swap1\n      pop\n        /* \"#utility.yul\":19189:19198   */\n      dup2\n        /* \"#utility.yul\":19183:19187   */\n      dup2\n        /* \"#utility.yul\":19179:19199   */\n      sub\n        /* \"#utility.yul\":19175:19176   */\n      0x00\n        /* \"#utility.yul\":19164:19173   */\n      dup4\n        /* \"#utility.yul\":19160:19177   */\n      add\n        /* \"#utility.yul\":19153:19200   */\n      mstore\n        /* \"#utility.yul\":19217:19348   */\n      tag_453\n        /* \"#utility.yul\":19343:19347   */\n      dup2\n        /* \"#utility.yul\":19217:19348   */\n      tag_248\n      jump\t// in\n    tag_453:\n        /* \"#utility.yul\":19209:19348   */\n      swap1\n      pop\n        /* \"#utility.yul\":18936:19355   */\n      swap2\n      swap1\n      pop\n      jump\t// out\n        /* \"#utility.yul\":19361:19541   */\n    tag_249:\n        /* \"#utility.yul\":19409:19486   */\n      0x4e487b7100000000000000000000000000000000000000000000000000000000\n        /* \"#utility.yul\":19406:19407   */\n      0x00\n        /* \"#utility.yul\":19399:19487   */\n      mstore\n        /* \"#utility.yul\":19506:19510   */\n      0x11\n        /* \"#utility.yul\":19503:19504   */\n      0x04\n        /* \"#utility.yul\":19496:19511   */\n      mstore\n        /* \"#utility.yul\":19530:19534   */\n      0x24\n        /* \"#utility.yul\":19527:19528   */\n      0x00\n        /* \"#utility.yul\":19520:19535   */\n      revert\n        /* \"#utility.yul\":19547:19780   */\n    tag_120:\n        /* \"#utility.yul\":19586:19589   */\n      0x00\n        /* \"#utility.yul\":19609:19633   */\n      tag_456\n        /* \"#utility.yul\":19627:19632   */\n      dup3\n        /* \"#utility.yul\":19609:19633   */\n      tag_217\n      jump\t// in\n    tag_456:\n        /* \"#utility.yul\":19600:19633   */\n      swap2\n      pop\n        /* \"#utility.yul\":19655:19721   */\n      0xffffffffffffffffffffffffffffffffffffffffffffffffffffffffffffffff\n        /* \"#utility.yul\":19648:19653   */\n      dup3\n        /* \"#utility.yul\":19645:19722   */\n      sub\n        /* \"#utility.yul\":19642:19745   */\n      tag_457\n      jumpi\n        /* \"#utility.yul\":19725:19743   */\n      tag_458\n      tag_249\n      jump\t// in\n    tag_458:\n        /* \"#utility.yul\":19642:19745   */\n    tag_457:\n        /* \"#utility.yul\":19772:19773   */\n      0x01\n        /* \"#utility.yul\":19765:19770   */\n      dup3\n        /* \"#utility.yul\":19761:19774   */\n      add\n        /* \"#utility.yul\":19754:19774   */\n      swap1\n      pop\n        /* \"#utility.yul\":19547:19780   */\n      swap2\n      swap1\n      pop\n      jump\t// out\n        /* \"#utility.yul\":19786:19876   */\n    tag_250:\n        /* \"#utility.yul\":19820:19827   */\n      0x00\n        /* \"#utility.yul\":19863:19868   */\n      dup2\n        /* \"#utility.yul\":19856:19869   */\n      iszero\n        /* \"#utility.yul\":19849:19870   */\n      iszero\n        /* \"#utility.yul\":19838:19870   */\n      swap1\n      pop\n        /* \"#utility.yul\":19786:19876   */\n      swap2\n      swap1\n      pop\n      jump\t// out\n        /* \"#utility.yul\":19882:19991   */\n    tag_251:\n        /* \"#utility.yul\":19963:19984   */\n      tag_461\n        /* \"#utility.yul\":19978:19983   */\n      dup2\n        /* \"#utility.yul\":19963:19984   */\n      tag_250\n      jump\t// in\n    tag_461:\n        /* \"#utility.yul\":19958:19961   */\n      dup3\n        /* \"#utility.yul\":19951:19985   */\n      mstore\n        /* \"#utility.yul\":19882:19991   */\n      pop\n      pop\n      jump\t// out\n        /* \"#utility.yul\":19997:20207   */\n    tag_122:\n        /* \"#utility.yul\":20084:20088   */\n      0x00\n        /* \"#utility.yul\":20122:20124   */\n      0x20\n        /* \"#utility.yul\":20111:20120   */\n      dup3\n        /* \"#utility.yul\":20107:20125   */\n      add\n        /* \"#utility.yul\":20099:20125   */\n      swap1\n      pop\n        /* \"#utility.yul\":20135:20200   */\n      tag_463\n        /* \"#utility.yul\":20197:20198   */\n      0x00\n        /* \"#utility.yul\":20186:20195   */\n      dup4\n        /* \"#utility.yul\":20182:20199   */\n      add\n        /* \"#utility.yul\":20173:20179   */\n      dup5\n        /* \"#utility.yul\":20135:20200   */\n      tag_251\n      jump\t// in\n    tag_463:\n        /* \"#utility.yul\":19997:20207   */\n      swap3\n      swap2\n      pop\n      pop\n      jump\t// out\n        /* \"#utility.yul\":20213:20385   */\n    tag_252:\n        /* \"#utility.yul\":20353:20377   */\n      0x436f6d6d656e7420646f6573206e6f7420657869737400000000000000000000\n        /* \"#utility.yul\":20349:20350   */\n      0x00\n        /* \"#utility.yul\":20341:20347   */\n      dup3\n        /* \"#utility.yul\":20337:20351   */\n      add\n        /* \"#utility.yul\":20330:20378   */\n      mstore\n        /* \"#utility.yul\":20213:20385   */\n      pop\n      jump\t// out\n        /* \"#utility.yul\":20391:20757   */\n    tag_253:\n        /* \"#utility.yul\":20533:20536   */\n      0x00\n        /* \"#utility.yul\":20554:20621   */\n      tag_466\n        /* \"#utility.yul\":20618:20620   */\n      0x16\n        /* \"#utility.yul\":20613:20616   */\n      dup4\n        /* \"#utility.yul\":20554:20621   */\n      tag_244\n      jump\t// in\n    tag_466:\n        /* \"#utility.yul\":20547:20621   */\n      swap2\n      pop\n        /* \"#utility.yul\":20630:20723   */\n      tag_467\n        /* \"#utility.yul\":20719:20722   */\n      dup3\n        /* \"#utility.yul\":20630:20723   */\n      tag_252\n      jump\t// in\n    tag_467:\n        /* \"#utility.yul\":20748:20750   */\n      0x20\n        /* \"#utility.yul\":20743:20746   */\n      dup3\n        /* \"#utility.yul\":20739:20751   */\n      add\n        /* \"#utility.yul\":20732:20751   */\n      swap1\n      pop\n        /* \"#utility.yul\":20391:20757   */\n      swap2\n      swap1\n      pop\n      jump\t// out\n        /* \"#utility.yul\":20763:21182   */\n    tag_126:\n        /* \"#utility.yul\":20929:20933   */\n      0x00\n        /* \"#utility.yul\":20967:20969   */\n      0x20\n        /* \"#utility.yul\":20956:20965   */\n      dup3\n        /* \"#utility.yul\":20952:20970   */\n      add\n        /* \"#utility.yul\":20944:20970   */\n      swap1\n      pop\n        /* \"#utility.yul\":21016:21025   */\n      dup2\n        /* \"#utility.yul\":21010:21014   */\n      dup2\n        /* \"#utility.yul\":21006:21026   */\n      sub\n        /* \"#utility.yul\":21002:21003   */\n      0x00\n        /* \"#utility.yul\":20991:21000   */\n      dup4\n        /* \"#utility.yul\":20987:21004   */\n      add\n        /* \"#utility.yul\":20980:21027   */\n      mstore\n        /* \"#utility.yul\":21044:21175   */\n      tag_469\n        /* \"#utility.yul\":21170:21174   */\n      dup2\n        /* \"#utility.yul\":21044:21175   */\n      tag_253\n      jump\t// in\n    tag_469:\n        /* \"#utility.yul\":21036:21175   */\n      swap1\n      pop\n        /* \"#utility.yul\":20763:21182   */\n      swap2\n      swap1\n      pop\n      jump\t// out\n        /* \"#utility.yul\":21188:21367   */\n    tag_254:\n        /* \"#utility.yul\":21328:21359   */\n      0x416c726561647920766f746564206f6e207468697320636f6d6d656e74000000\n        /* \"#utility.yul\":21324:21325   */\n      0x00\n        /* \"#utility.yul\":21316:21322   */\n      dup3\n        /* \"#utility.yul\":21312:21326   */\n      add\n        /* \"#utility.yul\":21305:21360   */\n      mstore\n        /* \"#utility.yul\":21188:21367   */\n      pop\n      jump\t// out\n        /* \"#utility.yul\":21373:21739   */\n    tag_255:\n        /* \"#utility.yul\":21515:21518   */\n      0x00\n        /* \"#utility.yul\":21536:21603   */\n      tag_472\n        /* \"#utility.yul\":21600:21602   */\n      0x1d\n        /* \"#utility.yul\":21595:21598   */\n      dup4\n        /* \"#utility.yul\":21536:21603   */\n      tag_244\n      jump\t// in\n    tag_472:\n        /* \"#utility.yul\":21529:21603   */\n      swap2\n      pop\n        /* \"#utility.yul\":21612:21705   */\n      tag_473\n        /* \"#utility.yul\":21701:21704   */\n      dup3\n        /* \"#utility.yul\":21612:21705   */\n      tag_254\n      jump\t// in\n    tag_473:\n        /* \"#utility.yul\":21730:21732   */\n      0x20\n        /* \"#utility.yul\":21725:21728   */\n      dup3\n        /* \"#utility.yul\":21721:21733   */\n      add\n        /* \"#utility.yul\":21714:21733   */\n      swap1\n      pop\n        /* \"#utility.yul\":21373:21739   */\n      swap2\n      swap1\n      pop\n      jump\t// out\n        /* \"#utility.yul\":21745:22164   */\n    tag_129:\n        /* \"#utility.yul\":21911:21915   */\n      0x00\n        /* \"#utility.yul\":21949:21951   */\n      0x20\n        /* \"#utility.yul\":21938:21947   */\n      dup3\n        /* \"#utility.yul\":21934:21952   */\n      add\n        /* \"#utility.yul\":21926:21952   */\n      swap1\n      pop\n        /* \"#utility.yul\":21998:22007   */\n      dup2\n        /* \"#utility.yul\":21992:21996   */\n      dup2\n        /* \"#utility.yul\":21988:22008   */\n      sub\n        /* \"#utility.yul\":21984:21985   */\n      0x00\n        /* \"#utility.yul\":21973:21982   */\n      dup4\n        /* \"#utility.yul\":21969:21986   */\n      add\n        /* \"#utility.yul\":21962:22009   */\n      mstore\n        /* \"#utility.yul\":22026:22157   */\n      tag_475\n        /* \"#utility.yul\":22152:22156   */\n      dup2\n        /* \"#utility.yul\":22026:22157   */\n      tag_255\n      jump\t// in\n    tag_475:\n        /* \"#utility.yul\":22018:22157   */\n      swap1\n      pop\n        /* \"#utility.yul\":21745:22164   */\n      swap2\n      swap1\n      pop\n      jump\t// out\n        /* \"#utility.yul\":22170:22288   */\n    tag_256:\n        /* \"#utility.yul\":22257:22281   */\n      tag_477\n        /* \"#utility.yul\":22275:22280   */\n      dup2\n        /* \"#utility.yul\":22257:22281   */\n      tag_204\n      jump\t// in\n    tag_477:\n        /* \"#utility.yul\":22252:22255   */\n      dup3\n        /* \"#utility.yul\":22245:22282   */\n      mstore\n        /* \"#utility.yul\":22170:22288   */\n      pop\n      pop\n      jump\t// out\n        /* \"#utility.yul\":22294:22614   */\n    tag_138:\n        /* \"#utility.yul\":22409:22413   */\n      0x00\n        /* \"#utility.yul\":22447:22449   */\n      0x40\n        /* \"#utility.yul\":22436:22445   */\n      dup3\n        /* \"#utility.yul\":22432:22450   */\n      add\n        /* \"#utility.yul\":22424:22450   */\n      swap1\n      pop\n        /* \"#utility.yul\":22460:22531   */\n      tag_479\n        /* \"#utility.yul\":22528:22529   */\n      0x00\n        /* \"#utility.yul\":22517:22526   */\n      dup4\n        /* \"#utility.yul\":22513:22530   */\n      add\n        /* \"#utility.yul\":22504:22510   */\n      dup6\n        /* \"#utility.yul\":22460:22531   */\n      tag_256\n      jump\t// in\n    tag_479:\n        /* \"#utility.yul\":22541:22607   */\n      tag_480\n        /* \"#utility.yul\":22603:22605   */\n      0x20\n        /* \"#utility.yul\":22592:22601   */\n      dup4\n        /* \"#utility.yul\":22588:22606   */\n      add\n        /* \"#utility.yul\":22579:22585   */\n      dup5\n        /* \"#utility.yul\":22541:22607   */\n      tag_251\n      jump\t// in\n    tag_480:\n        /* \"#utility.yul\":22294:22614   */\n      swap4\n      swap3\n      pop\n      pop\n      pop\n      jump\t// out\n        /* \"#utility.yul\":22620:22793   */\n    tag_257:\n        /* \"#utility.yul\":22760:22785   */\n      0x436f6d6d656e746572206e616d6520746f6f206c6f6e67000000000000000000\n        /* \"#utility.yul\":22756:22757   */\n      0x00\n        /* \"#utility.yul\":22748:22754   */\n      dup3\n        /* \"#utility.yul\":22744:22758   */\n      add\n        /* \"#utility.yul\":22737:22786   */\n      mstore\n        /* \"#utility.yul\":22620:22793   */\n      pop\n      jump\t// out\n        /* \"#utility.yul\":22799:23165   */\n    tag_258:\n        /* \"#utility.yul\":22941:22944   */\n      0x00\n        /* \"#utility.yul\":22962:23029   */\n      tag_483\n        /* \"#utility.yul\":23026:23028   */\n      0x17\n        /* \"#utility.yul\":23021:23024   */\n      dup4\n        /* \"#utility.yul\":22962:23029   */\n      tag_244\n      jump\t// in\n    tag_483:\n        /* \"#utility.yul\":22955:23029   */\n      swap2\n      pop\n        /* \"#utility.yul\":23038:23131   */\n      tag_484\n        /* \"#utility.yul\":23127:23130   */\n      dup3\n        /* \"#utility.yul\":23038:23131   */\n      tag_257\n      jump\t// in\n    tag_484:\n        /* \"#utility.yul\":23156:23158   */\n      0x20\n        /* \"#utility.yul\":23151:23154   */\n      dup3\n        /* \"#utility.yul\":23147:23159   */\n      add\n        /* \"#utility.yul\":23140:23159   */\n      swap1\n      pop\n        /* \"#utility.yul\":22799:23165   */\n      swap2\n      swap1\n      pop\n      jump\t// out\n        /* \"#utility.yul\":23171:23590   */\n    tag_144:\n        /* \"#utility.yul\":23337:23341   */\n      0x00\n        /* \"#utility.yul\":23375:23377   */\n      0x20\n        /* \"#utility.yul\":23364:23373   */\n      dup3\n        /* \"#utility.yul\":23360:23378   */\n      add\n        /* \"#utility.yul\":23352:23378   */\n      swap1\n      pop\n        /* \"#utility.yul\":23424:23433   */\n      dup2\n        /* \"#utility.yul\":23418:23422   */\n      dup2\n        /* \"#utility.yul\":23414:23434   */\n      sub\n        /* \"#utility.yul\":23410:23411   */\n      0x00\n        /* \"#utility.yul\":23399:23408   */\n      dup4\n        /* \"#utility.yul\":23395:23412   */\n      add\n        /* \"#utility.yul\":23388:23435   */\n      mstore\n        /* \"#utility.yul\":23452:23583   */\n      tag_486\n        /* \"#utility.yul\":23578:23582   */\n      dup2\n        /* \"#utility.yul\":23452:23583   */\n      tag_258\n      jump\t// in\n    tag_486:\n        /* \"#utility.yul\":23444:23583   */\n      swap1\n      pop\n        /* \"#utility.yul\":23171:23590   */\n      swap2\n      swap1\n      pop\n      jump\t// out\n        /* \"#utility.yul\":23596:23690   */\n    tag_259:\n        /* \"#utility.yul\":23629:23637   */\n      0x00\n        /* \"#utility.yul\":23677:23682   */\n      dup2\n        /* \"#utility.yul\":23673:23675   */\n      0x60\n        /* \"#utility.yul\":23669:23683   */\n      shl\n        /* \"#utility.yul\":23648:23683   */\n      swap1\n      pop\n        /* \"#utility.yul\":23596:23690   */\n      swap2\n      swap1\n      pop\n      jump\t// out\n        /* \"#utility.yul\":23696:23790   */\n    tag_260:\n        /* \"#utility.yul\":23735:23742   */\n      0x00\n        /* \"#utility.yul\":23764:23784   */\n      tag_489\n        /* \"#utility.yul\":23778:23783   */\n      dup3\n        /* \"#utility.yul\":23764:23784   */\n      tag_259\n      jump\t// in\n    tag_489:\n        /* \"#utility.yul\":23753:23784   */\n      swap1\n      pop\n        /* \"#utility.yul\":23696:23790   */\n      swap2\n      swap1\n      pop\n      jump\t// out\n        /* \"#utility.yul\":23796:23896   */\n    tag_261:\n        /* \"#utility.yul\":23835:23842   */\n      0x00\n        /* \"#utility.yul\":23864:23890   */\n      tag_491\n        /* \"#utility.yul\":23884:23889   */\n      dup3\n        /* \"#utility.yul\":23864:23890   */\n      tag_260\n      jump\t// in\n    tag_491:\n        /* \"#utility.yul\":23853:23890   */\n      swap1\n      pop\n        /* \"#utility.yul\":23796:23896   */\n      swap2\n      swap1\n      pop\n      jump\t// out\n        /* \"#utility.yul\":23902:24059   */\n    tag_262:\n        /* \"#utility.yul\":24007:24052   */\n      tag_493\n        /* \"#utility.yul\":24027:24051   */\n      tag_494\n        /* \"#utility.yul\":24045:24050   */\n      dup3\n        /* \"#utility.yul\":24027:24051   */\n      tag_204\n      jump\t// in\n    tag_494:\n        /* \"#utility.yul\":24007:24052   */\n      tag_261\n      jump\t// in\n    tag_493:\n        /* \"#utility.yul\":24002:24005   */\n      dup3\n        /* \"#utility.yul\":23995:24053   */\n      mstore\n        /* \"#utility.yul\":23902:24059   */\n      pop\n      pop\n      jump\t// out\n        /* \"#utility.yul\":24065:24144   */\n    tag_263:\n        /* \"#utility.yul\":24104:24111   */\n      0x00\n        /* \"#utility.yul\":24133:24138   */\n      dup2\n        /* \"#utility.yul\":24122:24138   */\n      swap1\n      pop\n        /* \"#utility.yul\":24065:24144   */\n      swap2\n      swap1\n      pop\n      jump\t// out\n        /* \"#utility.yul\":24150:24307   */\n    tag_264:\n        /* \"#utility.yul\":24255:24300   */\n      tag_497\n        /* \"#utility.yul\":24275:24299   */\n      tag_498\n        /* \"#utility.yul\":24293:24298   */\n      dup3\n        /* \"#utility.yul\":24275:24299   */\n      tag_217\n      jump\t// in\n    tag_498:\n        /* \"#utility.yul\":24255:24300   */\n      tag_263\n      jump\t// in\n    tag_497:\n        /* \"#utility.yul\":24250:24253   */\n      dup3\n        /* \"#utility.yul\":24243:24301   */\n      mstore\n        /* \"#utility.yul\":24150:24307   */\n      pop\n      pop\n      jump\t// out\n        /* \"#utility.yul\":24313:24461   */\n    tag_265:\n        /* \"#utility.yul\":24415:24426   */\n      0x00\n        /* \"#utility.yul\":24452:24455   */\n      dup2\n        /* \"#utility.yul\":24437:24455   */\n      swap1\n      pop\n        /* \"#utility.yul\":24313:24461   */\n      swap3\n      swap2\n      pop\n      pop\n      jump\t// out\n        /* \"#utility.yul\":24467:24857   */\n    tag_266:\n        /* \"#utility.yul\":24573:24576   */\n      0x00\n        /* \"#utility.yul\":24601:24640   */\n      tag_501\n        /* \"#utility.yul\":24634:24639   */\n      dup3\n        /* \"#utility.yul\":24601:24640   */\n      tag_212\n      jump\t// in\n    tag_501:\n        /* \"#utility.yul\":24656:24745   */\n      tag_502\n        /* \"#utility.yul\":24738:24744   */\n      dup2\n        /* \"#utility.yul\":24733:24736   */\n      dup6\n        /* \"#utility.yul\":24656:24745   */\n      tag_265\n      jump\t// in\n    tag_502:\n        /* \"#utility.yul\":24649:24745   */\n      swap4\n      pop\n        /* \"#utility.yul\":24754:24819   */\n      tag_503\n        /* \"#utility.yul\":24812:24818   */\n      dup2\n        /* \"#utility.yul\":24807:24810   */\n      dup6\n        /* \"#utility.yul\":24800:24804   */\n      0x20\n        /* \"#utility.yul\":24793:24798   */\n      dup7\n        /* \"#utility.yul\":24789:24805   */\n      add\n        /* \"#utility.yul\":24754:24819   */\n      tag_214\n      jump\t// in\n    tag_503:\n        /* \"#utility.yul\":24844:24850   */\n      dup1\n        /* \"#utility.yul\":24839:24842   */\n      dup5\n        /* \"#utility.yul\":24835:24851   */\n      add\n        /* \"#utility.yul\":24828:24851   */\n      swap2\n      pop\n        /* \"#utility.yul\":24577:24857   */\n      pop\n        /* \"#utility.yul\":24467:24857   */\n      swap3\n      swap2\n      pop\n      pop\n      jump\t// out\n        /* \"#utility.yul\":24863:25420   */\n    tag_146:\n        /* \"#utility.yul\":25051:25054   */\n      0x00\n        /* \"#utility.yul\":25066:25141   */\n      tag_505\n        /* \"#utility.yul\":25137:25140   */\n      dup3\n        /* \"#utility.yul\":25128:25134   */\n      dup7\n        /* \"#utility.yul\":25066:25141   */\n      tag_262\n      jump\t// in\n    tag_505:\n        /* \"#utility.yul\":25166:25168   */\n      0x14\n        /* \"#utility.yul\":25161:25164   */\n      dup3\n        /* \"#utility.yul\":25157:25169   */\n      add\n        /* \"#utility.yul\":25150:25169   */\n      swap2\n      pop\n        /* \"#utility.yul\":25179:25254   */\n      tag_506\n        /* \"#utility.yul\":25250:25253   */\n      dup3\n        /* \"#utility.yul\":25241:25247   */\n      dup6\n        /* \"#utility.yul\":25179:25254   */\n      tag_264\n      jump\t// in\n    tag_506:\n        /* \"#utility.yul\":25279:25281   */\n      0x20\n        /* \"#utility.yul\":25274:25277   */\n      dup3\n        /* \"#utility.yul\":25270:25282   */\n      add\n        /* \"#utility.yul\":25263:25282   */\n      swap2\n      pop\n        /* \"#utility.yul\":25299:25394   */\n      tag_507\n        /* \"#utility.yul\":25390:25393   */\n      dup3\n        /* \"#utility.yul\":25381:25387   */\n      dup5\n        /* \"#utility.yul\":25299:25394   */\n      tag_266\n      jump\t// in\n    tag_507:\n        /* \"#utility.yul\":25292:25394   */\n      swap2\n      pop\n        /* \"#utility.yul\":25411:25414   */\n      dup2\n        /* \"#utility.yul\":25404:25414   */\n      swap1\n      pop\n        /* \"#utility.yul\":24863:25420   */\n      swap5\n      swap4\n      pop\n      pop\n      pop\n      pop\n      jump\t// out\n        /* \"#utility.yul\":25426:25567   */\n    tag_267:\n        /* \"#utility.yul\":25475:25479   */\n      0x00\n        /* \"#utility.yul\":25498:25501   */\n      dup2\n        /* \"#utility.yul\":25490:25501   */\n      swap1\n      pop\n        /* \"#utility.yul\":25521:25524   */\n      dup2\n        /* \"#utility.yul\":25518:25519   */\n      0x00\n        /* \"#utility.yul\":25511:25525   */\n      mstore\n        /* \"#utility.yul\":25555:25559   */\n      0x20\n        /* \"#utility.yul\":25552:25553   */\n      0x00\n        /* \"#utility.yul\":25542:25560   */\n      keccak256\n        /* \"#utility.yul\":25534:25560   */\n      swap1\n      pop\n        /* \"#utility.yul\":25426:25567   */\n      swap2\n      swap1\n      pop\n      jump\t// out\n        /* \"#utility.yul\":25573:25666   */\n    tag_268:\n        /* \"#utility.yul\":25610:25616   */\n      0x00\n        /* \"#utility.yul\":25657:25659   */\n      0x20\n        /* \"#utility.yul\":25652:25654   */\n      0x1f\n        /* \"#utility.yul\":25645:25650   */\n      dup4\n        /* \"#utility.yul\":25641:25655   */\n      add\n        /* \"#utility.yul\":25637:25660   */\n      div\n        /* \"#utility.yul\":25627:25660   */\n      swap1\n      pop\n        /* \"#utility.yul\":25573:25666   */\n      swap2\n      swap1\n      pop\n      jump\t// out\n        /* \"#utility.yul\":25672:25779   */\n    tag_269:\n        /* \"#utility.yul\":25716:25724   */\n      0x00\n        /* \"#utility.yul\":25766:25771   */\n      dup3\n        /* \"#utility.yul\":25760:25764   */\n      dup3\n        /* \"#utility.yul\":25756:25772   */\n      shl\n        /* \"#utility.yul\":25735:25772   */\n      swap1\n      pop\n        /* \"#utility.yul\":25672:25779   */\n      swap3\n      swap2\n      pop\n      pop\n      jump\t// out\n        /* \"#utility.yul\":25785:26178   */\n    tag_270:\n        /* \"#utility.yul\":25854:25860   */\n      0x00\n        /* \"#utility.yul\":25904:25905   */\n      0x08\n        /* \"#utility.yul\":25892:25902   */\n      dup4\n        /* \"#utility.yul\":25888:25906   */\n      mul\n        /* \"#utility.yul\":25927:26024   */\n      tag_512\n        /* \"#utility.yul\":25957:26023   */\n      0xffffffffffffffffffffffffffffffffffffffffffffffffffffffffffffffff\n        /* \"#utility.yul\":25946:25955   */\n      dup3\n        /* \"#utility.yul\":25927:26024   */\n      tag_269\n      jump\t// in\n    tag_512:\n        /* \"#utility.yul\":26045:26084   */\n      tag_513\n        /* \"#utility.yul\":26075:26083   */\n      dup7\n        /* \"#utility.yul\":26064:26073   */\n      dup4\n        /* \"#utility.yul\":26045:26084   */\n      tag_269\n      jump\t// in\n    tag_513:\n        /* \"#utility.yul\":26033:26084   */\n      swap6\n      pop\n        /* \"#utility.yul\":26117:26121   */\n      dup1\n        /* \"#utility.yul\":26113:26122   */\n      not\n        /* \"#utility.yul\":26106:26111   */\n      dup5\n        /* \"#utility.yul\":26102:26123   */\n      and\n        /* \"#utility.yul\":26093:26123   */\n      swap4\n      pop\n        /* \"#utility.yul\":26166:26170   */\n      dup1\n        /* \"#utility.yul\":26156:26164   */\n      dup7\n        /* \"#utility.yul\":26152:26171   */\n      and\n        /* \"#utility.yul\":26145:26150   */\n      dup5\n        /* \"#utility.yul\":26142:26172   */\n      or\n        /* \"#utility.yul\":26132:26172   */\n      swap3\n      pop\n        /* \"#utility.yul\":25861:26178   */\n      pop\n      pop\n        /* \"#utility.yul\":25785:26178   */\n      swap4\n      swap3\n      pop\n      pop\n      pop\n      jump\t// out\n        /* \"#utility.yul\":26184:26244   */\n    tag_271:\n        /* \"#utility.yul\":26212:26215   */\n      0x00\n        /* \"#utility.yul\":26233:26238   */\n      dup2\n        /* \"#utility.yul\":26226:26238   */\n      swap1\n      pop\n        /* \"#utility.yul\":26184:26244   */\n      swap2\n      swap1\n      pop\n      jump\t// out\n        /* \"#utility.yul\":26250:26392   */\n    tag_272:\n        /* \"#utility.yul\":26300:26309   */\n      0x00\n        /* \"#utility.yul\":26333:26386   */\n      tag_516\n        /* \"#utility.yul\":26351:26385   */\n      tag_517\n        /* \"#utility.yul\":26360:26384   */\n      tag_518\n        /* \"#utility.yul\":26378:26383   */\n      dup5\n        /* \"#utility.yul\":26360:26384   */\n      tag_217\n      jump\t// in\n    tag_518:\n        /* \"#utility.yul\":26351:26385   */\n      tag_271\n      jump\t// in\n    tag_517:\n        /* \"#utility.yul\":26333:26386   */\n      tag_217\n      jump\t// in\n    tag_516:\n        /* \"#utility.yul\":26320:26386   */\n      swap1\n      pop\n        /* \"#utility.yul\":26250:26392   */\n      swap2\n      swap1\n      pop\n      jump\t// out\n        /* \"#utility.yul\":26398:26473   */\n    tag_273:\n        /* \"#utility.yul\":26441:26444   */\n      0x00\n        /* \"#utility.yul\":26462:26467   */\n      dup2\n        /* \"#utility.yul\":26455:26467   */\n      swap1\n      pop\n        /* \"#utility.yul\":26398:26473   */\n      swap2\n      swap1\n      pop\n      jump\t// out\n        /* \"#utility.yul\":26479:26748   */\n    tag_274:\n        /* \"#utility.yul\":26589:26628   */\n      tag_521\n        /* \"#utility.yul\":26620:26627   */\n      dup4\n        /* \"#utility.yul\":26589:26628   */\n      tag_272\n      jump\t// in\n    tag_521:\n        /* \"#utility.yul\":26650:26741   */\n      tag_522\n        /* \"#utility.yul\":26699:26740   */\n      tag_523\n        /* \"#utility.yul\":26723:26739   */\n      dup3\n        /* \"#utility.yul\":26699:26740   */\n      tag_273\n      jump\t// in\n    tag_523:\n        /* \"#utility.yul\":26691:26697   */\n      dup5\n        /* \"#utility.yul\":26684:26688   */\n      dup5\n        /* \"#utility.yul\":26678:26689   */\n      sload\n        /* \"#utility.yul\":26650:26741   */\n      tag_270\n      jump\t// in\n    tag_522:\n        /* \"#utility.yul\":26644:26648   */\n      dup3\n        /* \"#utility.yul\":26637:26742   */\n      sstore\n        /* \"#utility.yul\":26555:26748   */\n      pop\n        /* \"#utility.yul\":26479:26748   */\n      pop\n      pop\n      pop\n      jump\t// out\n        /* \"#utility.yul\":26754:26827   */\n    tag_275:\n        /* \"#utility.yul\":26799:26802   */\n      0x00\n        /* \"#utility.yul\":26820:26821   */\n      0x00\n        /* \"#utility.yul\":26813:26821   */\n      swap1\n      pop\n        /* \"#utility.yul\":26754:26827   */\n      swap1\n      jump\t// out\n        /* \"#utility.yul\":26833:27022   */\n    tag_276:\n        /* \"#utility.yul\":26910:26942   */\n      tag_526\n      tag_275\n      jump\t// in\n    tag_526:\n        /* \"#utility.yul\":26951:27016   */\n      tag_527\n        /* \"#utility.yul\":27009:27015   */\n      dup2\n        /* \"#utility.yul\":27001:27007   */\n      dup5\n        /* \"#utility.yul\":26995:26999   */\n      dup5\n        /* \"#utility.yul\":26951:27016   */\n      tag_274\n      jump\t// in\n    tag_527:\n        /* \"#utility.yul\":26886:27022   */\n      pop\n        /* \"#utility.yul\":26833:27022   */\n      pop\n      pop\n      jump\t// out\n        /* \"#utility.yul\":27028:27214   */\n    tag_277:\n        /* \"#utility.yul\":27088:27208   */\n    tag_529:\n        /* \"#utility.yul\":27105:27108   */\n      dup2\n        /* \"#utility.yul\":27098:27103   */\n      dup2\n        /* \"#utility.yul\":27095:27109   */\n      lt\n        /* \"#utility.yul\":27088:27208   */\n      iszero\n      tag_531\n      jumpi\n        /* \"#utility.yul\":27159:27198   */\n      tag_532\n        /* \"#utility.yul\":27196:27197   */\n      0x00\n        /* \"#utility.yul\":27189:27194   */\n      dup3\n        /* \"#utility.yul\":27159:27198   */\n      tag_276\n      jump\t// in\n    tag_532:\n        /* \"#utility.yul\":27132:27133   */\n      0x01\n        /* \"#utility.yul\":27125:27130   */\n      dup2\n        /* \"#utility.yul\":27121:27134   */\n      add\n        /* \"#utility.yul\":27112:27134   */\n      swap1\n      pop\n        /* \"#utility.yul\":27088:27208   */\n      jump(tag_529)\n    tag_531:\n        /* \"#utility.yul\":27028:27214   */\n      pop\n      pop\n      jump\t// out\n        /* \"#utility.yul\":27220:27763   */\n    tag_278:\n        /* \"#utility.yul\":27321:27323   */\n      0x1f\n        /* \"#utility.yul\":27316:27319   */\n      dup3\n        /* \"#utility.yul\":27313:27324   */\n      gt\n        /* \"#utility.yul\":27310:27756   */\n      iszero\n      tag_534\n      jumpi\n        /* \"#utility.yul\":27355:27393   */\n      tag_535\n        /* \"#utility.yul\":27387:27392   */\n      dup2\n        /* \"#utility.yul\":27355:27393   */\n      tag_267\n      jump\t// in\n    tag_535:\n        /* \"#utility.yul\":27439:27468   */\n      tag_536\n        /* \"#utility.yul\":27457:27467   */\n      dup5\n        /* \"#utility.yul\":27439:27468   */\n      tag_268\n      jump\t// in\n    tag_536:\n        /* \"#utility.yul\":27429:27437   */\n      dup2\n        /* \"#utility.yul\":27425:27469   */\n      add\n        /* \"#utility.yul\":27622:27624   */\n      0x20\n        /* \"#utility.yul\":27610:27620   */\n      dup6\n        /* \"#utility.yul\":27607:27625   */\n      lt\n        /* \"#utility.yul\":27604:27653   */\n      iszero\n      tag_537\n      jumpi\n        /* \"#utility.yul\":27643:27651   */\n      dup2\n        /* \"#utility.yul\":27628:27651   */\n      swap1\n      pop\n        /* \"#utility.yul\":27604:27653   */\n    tag_537:\n        /* \"#utility.yul\":27666:27746   */\n      tag_538\n        /* \"#utility.yul\":27722:27744   */\n      tag_539\n        /* \"#utility.yul\":27740:27743   */\n      dup6\n        /* \"#utility.yul\":27722:27744   */\n      tag_268\n      jump\t// in\n    tag_539:\n        /* \"#utility.yul\":27712:27720   */\n      dup4\n        /* \"#utility.yul\":27708:27745   */\n      add\n        /* \"#utility.yul\":27695:27706   */\n      dup3\n        /* \"#utility.yul\":27666:27746   */\n      tag_277\n      jump\t// in\n    tag_538:\n        /* \"#utility.yul\":27325:27756   */\n      pop\n      pop\n        /* \"#utility.yul\":27310:27756   */\n    tag_534:\n        /* \"#utility.yul\":27220:27763   */\n      pop\n      pop\n      pop\n      jump\t// out\n        /* \"#utility.yul\":27769:27886   */\n    tag_279:\n        /* \"#utility.yul\":27823:27831   */\n      0x00\n        /* \"#utility.yul\":27873:27878   */\n      dup3\n        /* \"#utility.yul\":27867:27871   */\n      dup3\n        /* \"#utility.yul\":27863:27879   */\n      shr\n        /* \"#utility.yul\":27842:27879   */\n      swap1\n      pop\n        /* \"#utility.yul\":27769:27886   */\n      swap3\n      swap2\n      pop\n      pop\n      jump\t// out\n        /* \"#utility.yul\":27892:28061   */\n    tag_280:\n        /* \"#utility.yul\":27936:27942   */\n      0x00\n        /* \"#utility.yul\":27969:28020   */\n      tag_542\n        /* \"#utility.yul\":28017:28018   */\n      0x00\n        /* \"#utility.yul\":28013:28019   */\n      not\n        /* \"#utility.yul\":28005:28010   */\n      dup5\n        /* \"#utility.yul\":28002:28003   */\n      0x08\n        /* \"#utility.yul\":27998:28011   */\n      mul\n        /* \"#utility.yul\":27969:28020   */\n      tag_279\n      jump\t// in\n    tag_542:\n        /* \"#utility.yul\":27965:28021   */\n      not\n        /* \"#utility.yul\":28050:28054   */\n      dup1\n        /* \"#utility.yul\":28044:28048   */\n      dup4\n        /* \"#utility.yul\":28040:28055   */\n      and\n        /* \"#utility.yul\":28030:28055   */\n      swap2\n      pop\n        /* \"#utility.yul\":27943:28061   */\n      pop\n        /* \"#utility.yul\":27892:28061   */\n      swap3\n      swap2\n      pop\n      pop\n      jump\t// out\n        /* \"#utility.yul\":28066:28361   */\n    tag_281:\n        /* \"#utility.yul\":28142:28146   */\n      0x00\n        /* \"#utility.yul\":28288:28317   */\n      tag_544\n        /* \"#utility.yul\":28313:28316   */\n      dup4\n        /* \"#utility.yul\":28307:28311   */\n      dup4\n        /* \"#utility.yul\":28288:28317   */\n      tag_280\n      jump\t// in\n    tag_544:\n        /* \"#utility.yul\":28280:28317   */\n      swap2\n      pop\n        /* \"#utility.yul\":28350:28353   */\n      dup3\n        /* \"#utility.yul\":28347:28348   */\n      0x02\n        /* \"#utility.yul\":28343:28354   */\n      mul\n        /* \"#utility.yul\":28337:28341   */\n      dup3\n        /* \"#utility.yul\":28334:28355   */\n      or\n        /* \"#utility.yul\":28326:28355   */\n      swap1\n      pop\n        /* \"#utility.yul\":28066:28361   */\n      swap3\n      swap2\n      pop\n      pop\n      jump\t// out\n        /* \"#utility.yul\":28366:29761   */\n    tag_149:\n        /* \"#utility.yul\":28483:28520   */\n      tag_546\n        /* \"#utility.yul\":28516:28519   */\n      dup3\n        /* \"#utility.yul\":28483:28520   */\n      tag_212\n      jump\t// in\n    tag_546:\n        /* \"#utility.yul\":28585:28603   */\n      0xffffffffffffffff\n        /* \"#utility.yul\":28577:28583   */\n      dup2\n        /* \"#utility.yul\":28574:28604   */\n      gt\n        /* \"#utility.yul\":28571:28627   */\n      iszero\n      tag_547\n      jumpi\n        /* \"#utility.yul\":28607:28625   */\n      tag_548\n      tag_54\n      jump\t// in\n    tag_548:\n        /* \"#utility.yul\":28571:28627   */\n    tag_547:\n        /* \"#utility.yul\":28651:28689   */\n      tag_549\n        /* \"#utility.yul\":28683:28687   */\n      dup3\n        /* \"#utility.yul\":28677:28688   */\n      sload\n        /* \"#utility.yul\":28651:28689   */\n      tag_66\n      jump\t// in\n    tag_549:\n        /* \"#utility.yul\":28736:28803   */\n      tag_550\n        /* \"#utility.yul\":28796:28802   */\n      dup3\n        /* \"#utility.yul\":28788:28794   */\n      dup3\n        /* \"#utility.yul\":28782:28786   */\n      dup6\n        /* \"#utility.yul\":28736:28803   */\n      tag_278\n      jump\t// in\n    tag_550:\n        /* \"#utility.yul\":28830:28831   */\n      0x00\n        /* \"#utility.yul\":28854:28858   */\n      0x20\n        /* \"#utility.yul\":28841:28858   */\n      swap1\n      pop\n        /* \"#utility.yul\":28886:28888   */\n      0x1f\n        /* \"#utility.yul\":28878:28884   */\n      dup4\n        /* \"#utility.yul\":28875:28889   */\n      gt\n        /* \"#utility.yul\":28903:28904   */\n      0x01\n        /* \"#utility.yul\":28898:29516   */\n      dup2\n      eq\n      tag_552\n      jumpi\n        /* \"#utility.yul\":29560:29561   */\n      0x00\n        /* \"#utility.yul\":29577:29583   */\n      dup5\n        /* \"#utility.yul\":29574:29651   */\n      iszero\n      tag_553\n      jumpi\n        /* \"#utility.yul\":29626:29635   */\n      dup3\n        /* \"#utility.yul\":29621:29624   */\n      dup8\n        /* \"#utility.yul\":29617:29636   */\n      add\n        /* \"#utility.yul\":29611:29637   */\n      mload\n        /* \"#utility.yul\":29602:29637   */\n      swap1\n      pop\n        /* \"#utility.yul\":29574:29651   */\n    tag_553:\n        /* \"#utility.yul\":29677:29744   */\n      tag_554\n        /* \"#utility.yul\":29737:29743   */\n      dup6\n        /* \"#utility.yul\":29730:29735   */\n      dup3\n        /* \"#utility.yul\":29677:29744   */\n      tag_281\n      jump\t// in\n    tag_554:\n        /* \"#utility.yul\":29671:29675   */\n      dup7\n        /* \"#utility.yul\":29664:29745   */\n      sstore\n        /* \"#utility.yul\":29533:29755   */\n      pop\n        /* \"#utility.yul\":28868:29755   */\n      jump(tag_551)\n        /* \"#utility.yul\":28898:29516   */\n    tag_552:\n        /* \"#utility.yul\":28950:28954   */\n      0x1f\n        /* \"#utility.yul\":28946:28955   */\n      not\n        /* \"#utility.yul\":28938:28944   */\n      dup5\n        /* \"#utility.yul\":28934:28956   */\n      and\n        /* \"#utility.yul\":28984:29021   */\n      tag_555\n        /* \"#utility.yul\":29016:29020   */\n      dup7\n        /* \"#utility.yul\":28984:29021   */\n      tag_267\n      jump\t// in\n    tag_555:\n        /* \"#utility.yul\":29043:29044   */\n      0x00\n        /* \"#utility.yul\":29057:29265   */\n    tag_556:\n        /* \"#utility.yul\":29071:29078   */\n      dup3\n        /* \"#utility.yul\":29068:29069   */\n      dup2\n        /* \"#utility.yul\":29065:29079   */\n      lt\n        /* \"#utility.yul\":29057:29265   */\n      iszero\n      tag_558\n      jumpi\n        /* \"#utility.yul\":29150:29159   */\n      dup5\n        /* \"#utility.yul\":29145:29148   */\n      dup10\n        /* \"#utility.yul\":29141:29160   */\n      add\n        /* \"#utility.yul\":29135:29161   */\n      mload\n        /* \"#utility.yul\":29127:29133   */\n      dup3\n        /* \"#utility.yul\":29120:29162   */\n      sstore\n        /* \"#utility.yul\":29201:29202   */\n      0x01\n        /* \"#utility.yul\":29193:29199   */\n      dup3\n        /* \"#utility.yul\":29189:29203   */\n      add\n        /* \"#utility.yul\":29179:29203   */\n      swap2\n      pop\n        /* \"#utility.yul\":29248:29250   */\n      0x20\n        /* \"#utility.yul\":29237:29246   */\n      dup6\n        /* \"#utility.yul\":29233:29251   */\n      add\n        /* \"#utility.yul\":29220:29251   */\n      swap5\n      pop\n        /* \"#utility.yul\":29094:29098   */\n      0x20\n        /* \"#utility.yul\":29091:29092   */\n      dup2\n        /* \"#utility.yul\":29087:29099   */\n      add\n        /* \"#utility.yul\":29082:29099   */\n      swap1\n      pop\n        /* \"#utility.yul\":29057:29265   */\n      jump(tag_556)\n    tag_558:\n        /* \"#utility.yul\":29293:29299   */\n      dup7\n        /* \"#utility.yul\":29284:29291   */\n      dup4\n        /* \"#utility.yul\":29281:29300   */\n      lt\n        /* \"#utility.yul\":29278:29457   */\n      iszero\n      tag_559\n      jumpi\n        /* \"#utility.yul\":29351:29360   */\n      dup5\n        /* \"#utility.yul\":29346:29349   */\n      dup10\n        /* \"#utility.yul\":29342:29361   */\n      add\n        /* \"#utility.yul\":29336:29362   */\n      mload\n        /* \"#utility.yul\":29394:29442   */\n      tag_560\n        /* \"#utility.yul\":29436:29440   */\n      0x1f\n        /* \"#utility.yul\":29428:29434   */\n      dup10\n        /* \"#utility.yul\":29424:29441   */\n      and\n        /* \"#utility.yul\":29413:29422   */\n      dup3\n        /* \"#utility.yul\":29394:29442   */\n      tag_280\n      jump\t// in\n    tag_560:\n        /* \"#utility.yul\":29386:29392   */\n      dup4\n        /* \"#utility.yul\":29379:29443   */\n      sstore\n        /* \"#utility.yul\":29301:29457   */\n      pop\n        /* \"#utility.yul\":29278:29457   */\n    tag_559:\n        /* \"#utility.yul\":29503:29504   */\n      0x01\n        /* \"#utility.yul\":29499:29500   */\n      0x02\n        /* \"#utility.yul\":29491:29497   */\n      dup9\n        /* \"#utility.yul\":29487:29501   */\n      mul\n        /* \"#utility.yul\":29483:29505   */\n      add\n        /* \"#utility.yul\":29477:29481   */\n      dup9\n        /* \"#utility.yul\":29470:29506   */\n      sstore\n        /* \"#utility.yul\":28905:29516   */\n      pop\n      pop\n      pop\n        /* \"#utility.yul\":28868:29755   */\n    tag_551:\n      pop\n        /* \"#utility.yul\":28458:29761   */\n      pop\n      pop\n      pop\n        /* \"#utility.yul\":28366:29761   */\n      pop\n      pop\n      jump\t// out\n        /* \"#utility.yul\":29767:30144   */\n    tag_282:\n        /* \"#utility.yul\":29855:29858   */\n      0x00\n        /* \"#utility.yul\":29883:29922   */\n      tag_562\n        /* \"#utility.yul\":29916:29921   */\n      dup3\n        /* \"#utility.yul\":29883:29922   */\n      tag_212\n      jump\t// in\n    tag_562:\n        /* \"#utility.yul\":29938:30009   */\n      tag_563\n        /* \"#utility.yul\":30002:30008   */\n      dup2\n        /* \"#utility.yul\":29997:30000   */\n      dup6\n        /* \"#utility.yul\":29938:30009   */\n      tag_244\n      jump\t// in\n    tag_563:\n        /* \"#utility.yul\":29931:30009   */\n      swap4\n      pop\n        /* \"#utility.yul\":30018:30083   */\n      tag_564\n        /* \"#utility.yul\":30076:30082   */\n      dup2\n        /* \"#utility.yul\":30071:30074   */\n      dup6\n        /* \"#utility.yul\":30064:30068   */\n      0x20\n        /* \"#utility.yul\":30057:30062   */\n      dup7\n        /* \"#utility.yul\":30053:30069   */\n      add\n        /* \"#utility.yul\":30018:30083   */\n      tag_214\n      jump\t// in\n    tag_564:\n        /* \"#utility.yul\":30108:30137   */\n      tag_565\n        /* \"#utility.yul\":30130:30136   */\n      dup2\n        /* \"#utility.yul\":30108:30137   */\n      tag_215\n      jump\t// in\n    tag_565:\n        /* \"#utility.yul\":30103:30106   */\n      dup5\n        /* \"#utility.yul\":30099:30138   */\n      add\n        /* \"#utility.yul\":30092:30138   */\n      swap2\n      pop\n        /* \"#utility.yul\":29859:30144   */\n      pop\n        /* \"#utility.yul\":29767:30144   */\n      swap3\n      swap2\n      pop\n      pop\n      jump\t// out\n        /* \"#utility.yul\":30150:30268   */\n    tag_283:\n        /* \"#utility.yul\":30237:30261   */\n      tag_567\n        /* \"#utility.yul\":30255:30260   */\n      dup2\n        /* \"#utility.yul\":30237:30261   */\n      tag_217\n      jump\t// in\n    tag_567:\n        /* \"#utility.yul\":30232:30235   */\n      dup3\n        /* \"#utility.yul\":30225:30262   */\n      mstore\n        /* \"#utility.yul\":30150:30268   */\n      pop\n      pop\n      jump\t// out\n        /* \"#utility.yul\":30274:31009   */\n    tag_152:\n        /* \"#utility.yul\":30491:30495   */\n      0x00\n        /* \"#utility.yul\":30529:30532   */\n      0x80\n        /* \"#utility.yul\":30518:30527   */\n      dup3\n        /* \"#utility.yul\":30514:30533   */\n      add\n        /* \"#utility.yul\":30506:30533   */\n      swap1\n      pop\n        /* \"#utility.yul\":30543:30614   */\n      tag_569\n        /* \"#utility.yul\":30611:30612   */\n      0x00\n        /* \"#utility.yul\":30600:30609   */\n      dup4\n        /* \"#utility.yul\":30596:30613   */\n      add\n        /* \"#utility.yul\":30587:30593   */\n      dup8\n        /* \"#utility.yul\":30543:30614   */\n      tag_256\n      jump\t// in\n    tag_569:\n        /* \"#utility.yul\":30661:30670   */\n      dup2\n        /* \"#utility.yul\":30655:30659   */\n      dup2\n        /* \"#utility.yul\":30651:30671   */\n      sub\n        /* \"#utility.yul\":30646:30648   */\n      0x20\n        /* \"#utility.yul\":30635:30644   */\n      dup4\n        /* \"#utility.yul\":30631:30649   */\n      add\n        /* \"#utility.yul\":30624:30672   */\n      mstore\n        /* \"#utility.yul\":30689:30767   */\n      tag_570\n        /* \"#utility.yul\":30762:30766   */\n      dup2\n        /* \"#utility.yul\":30753:30759   */\n      dup7\n        /* \"#utility.yul\":30689:30767   */\n      tag_282\n      jump\t// in\n    tag_570:\n        /* \"#utility.yul\":30681:30767   */\n      swap1\n      pop\n        /* \"#utility.yul\":30814:30823   */\n      dup2\n        /* \"#utility.yul\":30808:30812   */\n      dup2\n        /* \"#utility.yul\":30804:30824   */\n      sub\n        /* \"#utility.yul\":30799:30801   */\n      0x40\n        /* \"#utility.yul\":30788:30797   */\n      dup4\n        /* \"#utility.yul\":30784:30802   */\n      add\n        /* \"#utility.yul\":30777:30825   */\n      mstore\n        /* \"#utility.yul\":30842:30920   */\n      tag_571\n        /* \"#utility.yul\":30915:30919   */\n      dup2\n        /* \"#utility.yul\":30906:30912   */\n      dup6\n        /* \"#utility.yul\":30842:30920   */\n      tag_282\n      jump\t// in\n    tag_571:\n        /* \"#utility.yul\":30834:30920   */\n      swap1\n      pop\n        /* \"#utility.yul\":30930:31002   */\n      tag_572\n        /* \"#utility.yul\":30998:31000   */\n      0x60\n        /* \"#utility.yul\":30987:30996   */\n      dup4\n        /* \"#utility.yul\":30983:31001   */\n      add\n        /* \"#utility.yul\":30974:30980   */\n      dup5\n        /* \"#utility.yul\":30930:31002   */\n      tag_283\n      jump\t// in\n    tag_572:\n        /* \"#utility.yul\":30274:31009   */\n      swap6\n      swap5\n      pop\n      pop\n      pop\n      pop\n      pop\n      jump\t// out\n        /* \"#utility.yul\":31015:31185   */\n    tag_284:\n        /* \"#utility.yul\":31155:31177   */\n      0x417574686f72206e616d6520746f6f206c6f6e67000000000000000000000000\n        /* \"#utility.yul\":31151:31152   */\n      0x00\n        /* \"#utility.yul\":31143:31149   */\n      dup3\n        /* \"#utility.yul\":31139:31153   */\n      add\n        /* \"#utility.yul\":31132:31178   */\n      mstore\n        /* \"#utility.yul\":31015:31185   */\n      pop\n      jump\t// out\n        /* \"#utility.yul\":31191:31557   */\n    tag_285:\n        /* \"#utility.yul\":31333:31336   */\n      0x00\n        /* \"#utility.yul\":31354:31421   */\n      tag_575\n        /* \"#utility.yul\":31418:31420   */\n      0x14\n        /* \"#utility.yul\":31413:31416   */\n      dup4\n        /* \"#utility.yul\":31354:31421   */\n      tag_244\n      jump\t// in\n    tag_575:\n        /* \"#utility.yul\":31347:31421   */\n      swap2\n      pop\n        /* \"#utility.yul\":31430:31523   */\n      tag_576\n        /* \"#utility.yul\":31519:31522   */\n      dup3\n        /* \"#utility.yul\":31430:31523   */\n      tag_284\n      jump\t// in\n    tag_576:\n        /* \"#utility.yul\":31548:31550   */\n      0x20\n        /* \"#utility.yul\":31543:31546   */\n      dup3\n        /* \"#utility.yul\":31539:31551   */\n      add\n        /* \"#utility.yul\":31532:31551   */\n      swap1\n      pop\n        /* \"#utility.yul\":31191:31557   */\n      swap2\n      swap1\n      pop\n      jump\t// out\n        /* \"#utility.yul\":31563:31982   */\n    tag_176:\n        /* \"#utility.yul\":31729:31733   */\n      0x00\n        /* \"#utility.yul\":31767:31769   */\n      0x20\n        /* \"#utility.yul\":31756:31765   */\n      dup3\n        /* \"#utility.yul\":31752:31770   */\n      add\n        /* \"#utility.yul\":31744:31770   */\n      swap1\n      pop\n        /* \"#utility.yul\":31816:31825   */\n      dup2\n        /* \"#utility.yul\":31810:31814   */\n      dup2\n        /* \"#utility.yul\":31806:31826   */\n      sub\n        /* \"#utility.yul\":31802:31803   */\n      0x00\n        /* \"#utility.yul\":31791:31800   */\n      dup4\n        /* \"#utility.yul\":31787:31804   */\n      add\n        /* \"#utility.yul\":31780:31827   */\n      mstore\n        /* \"#utility.yul\":31844:31975   */\n      tag_578\n        /* \"#utility.yul\":31970:31974   */\n      dup2\n        /* \"#utility.yul\":31844:31975   */\n      tag_285\n      jump\t// in\n    tag_578:\n        /* \"#utility.yul\":31836:31975   */\n      swap1\n      pop\n        /* \"#utility.yul\":31563:31982   */\n      swap2\n      swap1\n      pop\n      jump\t// out\n        /* \"#utility.yul\":31988:32705   */\n    tag_178:\n        /* \"#utility.yul\":32224:32227   */\n      0x00\n        /* \"#utility.yul\":32239:32314   */\n      tag_580\n        /* \"#utility.yul\":32310:32313   */\n      dup3\n        /* \"#utility.yul\":32301:32307   */\n      dup8\n        /* \"#utility.yul\":32239:32314   */\n      tag_262\n      jump\t// in\n    tag_580:\n        /* \"#utility.yul\":32339:32341   */\n      0x14\n        /* \"#utility.yul\":32334:32337   */\n      dup3\n        /* \"#utility.yul\":32330:32342   */\n      add\n        /* \"#utility.yul\":32323:32342   */\n      swap2\n      pop\n        /* \"#utility.yul\":32352:32427   */\n      tag_581\n        /* \"#utility.yul\":32423:32426   */\n      dup3\n        /* \"#utility.yul\":32414:32420   */\n      dup7\n        /* \"#utility.yul\":32352:32427   */\n      tag_264\n      jump\t// in\n    tag_581:\n        /* \"#utility.yul\":32452:32454   */\n      0x20\n        /* \"#utility.yul\":32447:32450   */\n      dup3\n        /* \"#utility.yul\":32443:32455   */\n      add\n        /* \"#utility.yul\":32436:32455   */\n      swap2\n      pop\n        /* \"#utility.yul\":32472:32567   */\n      tag_582\n        /* \"#utility.yul\":32563:32566   */\n      dup3\n        /* \"#utility.yul\":32554:32560   */\n      dup6\n        /* \"#utility.yul\":32472:32567   */\n      tag_266\n      jump\t// in\n    tag_582:\n        /* \"#utility.yul\":32465:32567   */\n      swap2\n      pop\n        /* \"#utility.yul\":32584:32679   */\n      tag_583\n        /* \"#utility.yul\":32675:32678   */\n      dup3\n        /* \"#utility.yul\":32666:32672   */\n      dup5\n        /* \"#utility.yul\":32584:32679   */\n      tag_266\n      jump\t// in\n    tag_583:\n        /* \"#utility.yul\":32577:32679   */\n      swap2\n      pop\n        /* \"#utility.yul\":32696:32699   */\n      dup2\n        /* \"#utility.yul\":32689:32699   */\n      swap1\n      pop\n        /* \"#utility.yul\":31988:32705   */\n      swap6\n      swap5\n      pop\n      pop\n      pop\n      pop\n      pop\n      jump\t// out\n        /* \"#utility.yul\":32711:33335   */\n    tag_185:\n        /* \"#utility.yul\":32900:32904   */\n      0x00\n        /* \"#utility.yul\":32938:32940   */\n      0x60\n        /* \"#utility.yul\":32927:32936   */\n      dup3\n        /* \"#utility.yul\":32923:32941   */\n      add\n        /* \"#utility.yul\":32915:32941   */\n      swap1\n      pop\n        /* \"#utility.yul\":32987:32996   */\n      dup2\n        /* \"#utility.yul\":32981:32985   */\n      dup2\n        /* \"#utility.yul\":32977:32997   */\n      sub\n        /* \"#utility.yul\":32973:32974   */\n      0x00\n        /* \"#utility.yul\":32962:32971   */\n      dup4\n        /* \"#utility.yul\":32958:32975   */\n      add\n        /* \"#utility.yul\":32951:32998   */\n      mstore\n        /* \"#utility.yul\":33015:33093   */\n      tag_585\n        /* \"#utility.yul\":33088:33092   */\n      dup2\n        /* \"#utility.yul\":33079:33085   */\n      dup7\n        /* \"#utility.yul\":33015:33093   */\n      tag_282\n      jump\t// in\n    tag_585:\n        /* \"#utility.yul\":33007:33093   */\n      swap1\n      pop\n        /* \"#utility.yul\":33140:33149   */\n      dup2\n        /* \"#utility.yul\":33134:33138   */\n      dup2\n        /* \"#utility.yul\":33130:33150   */\n      sub\n        /* \"#utility.yul\":33125:33127   */\n      0x20\n        /* \"#utility.yul\":33114:33123   */\n      dup4\n        /* \"#utility.yul\":33110:33128   */\n      add\n        /* \"#utility.yul\":33103:33151   */\n      mstore\n        /* \"#utility.yul\":33168:33246   */\n      tag_586\n        /* \"#utility.yul\":33241:33245   */\n      dup2\n        /* \"#utility.yul\":33232:33238   */\n      dup6\n        /* \"#utility.yul\":33168:33246   */\n      tag_282\n      jump\t// in\n    tag_586:\n        /* \"#utility.yul\":33160:33246   */\n      swap1\n      pop\n        /* \"#utility.yul\":33256:33328   */\n      tag_587\n        /* \"#utility.yul\":33324:33326   */\n      0x40\n        /* \"#utility.yul\":33313:33322   */\n      dup4\n        /* \"#utility.yul\":33309:33327   */\n      add\n        /* \"#utility.yul\":33300:33306   */\n      dup5\n        /* \"#utility.yul\":33256:33328   */\n      tag_283\n      jump\t// in\n    tag_587:\n        /* \"#utility.yul\":32711:33335   */\n      swap5\n      swap4\n      pop\n      pop\n      pop\n      pop\n      jump\t// out\n\n    auxdata: 0xa264697066735822122025eb770d197f0a110c0cb7fc84cc349ae121864eb1de282753d2ca4eb13bc01064736f6c634300081e0033\n}\n",
				"bytecode": {
					"linkReferences": {},
					"object": "6080604052348015600e575f5ffd5b506125cd8061001c5f395ff3fe608060405234801561000f575f5ffd5b5060043610610091575f3560e01c8063a7503db211610064578063a7503db21461011b578063cdb1d17e14610137578063e2fc269114610153578063e8a4a1eb1461016f578063f7ba787d1461018b57610091565b80632cfdcc6b1461009557806330561100146100c5578063a54ff9ac146100e3578063a6c86b5b146100ff575b5f5ffd5b6100af60048036038101906100aa919061165e565b6101bb565b6040516100bc919061188b565b60405180910390f35b6100cd6104f3565b6040516100da919061188b565b60405180910390f35b6100fd60048036038101906100f891906118d5565b6107a2565b005b6101196004803603810190610114919061192a565b610971565b005b61013560048036038101906101309190611a94565b610b9a565b005b610151600480360381019061014c919061192a565b610dc8565b005b61016d600480360381019061016891906118d5565b610ff0565b005b61018960048036038101906101849190611b1c565b6111c0565b005b6101a560048036038101906101a091906118d5565b6113b1565b6040516101b29190611d2a565b60405180910390f35b60605f60015f8473ffffffffffffffffffffffffffffffffffffffff1673ffffffffffffffffffffffffffffffffffffffff1681526020019081526020015f2080548060200260200160405190810160405280929190818152602001828054801561024357602002820191905f5260205f20905b81548152602001906001019080831161022f575b505050505090505f815167ffffffffffffffff81111561026657610265611970565b5b60405190808252806020026020018201604052801561029f57816020015b61028c6115ba565b8152602001906001900390816102845790505b5090505f5f90505b82518110156104e85760025f8483815181106102c6576102c5611d4a565b5b602002602001015181526020019081526020015f206040518060e00160405290815f82015481526020016001820180546102ff90611da4565b80601f016020809104026020016040519081016040528092919081815260200182805461032b90611da4565b80156103765780601f1061034d57610100808354040283529160200191610376565b820191905f5260205f20905b81548152906001019060200180831161035957829003601f168201915b5050505050815260200160028201805461038f90611da4565b80601f01602080910402602001604051908101604052809291908181526020018280546103bb90611da4565b80156104065780601f106103dd57610100808354040283529160200191610406565b820191905f5260205f20905b8154815290600101906020018083116103e957829003601f168201915b5050505050815260200160038201805461041f90611da4565b80601f016020809104026020016040519081016040528092919081815260200182805461044b90611da4565b80156104965780601f1061046d57610100808354040283529160200191610496565b820191905f5260205f20905b81548152906001019060200180831161047957829003601f168201915b5050505050815260200160048201548152602001600582015481526020016006820154815250508282815181106104d0576104cf611d4a565b5b602002602001018190525080806001019150506102a7565b508092505050919050565b60605f5f8054905067ffffffffffffffff81111561051457610513611970565b5b60405190808252806020026020018201604052801561054d57816020015b61053a6115ba565b8152602001906001900390816105325790505b5090505f5f90505b5f8054905081101561079a5760025f5f838154811061057757610576611d4a565b5b905f5260205f20015481526020019081526020015f206040518060e00160405290815f82015481526020016001820180546105b190611da4565b80601f01602080910402602001604051908101604052809291908181526020018280546105dd90611da4565b80156106285780601f106105ff57610100808354040283529160200191610628565b820191905f5260205f20905b81548152906001019060200180831161060b57829003601f168201915b5050505050815260200160028201805461064190611da4565b80601f016020809104026020016040519081016040528092919081815260200182805461066d90611da4565b80156106b85780601f1061068f576101008083540402835291602001916106b8565b820191905f5260205f20905b81548152906001019060200180831161069b57829003601f168201915b505050505081526020016003820180546106d190611da4565b80601f01602080910402602001604051908101604052809291908181526020018280546106fd90611da4565b80156107485780601f1061071f57610100808354040283529160200191610748565b820191905f5260205f20905b81548152906001019060200180831161072b57829003601f168201915b50505050508152602001600482015481526020016005820154815260200160068201548152505082828151811061078257610781611d4a565b5b60200260200101819052508080600101915050610555565b508091505090565b5f5f1b60025f8381526020019081526020015f205f0154036107f9576040517f08c379a00000000000000000000000000000000000000000000000000000000081526004016107f090611e2e565b60405180910390fd5b60045f8281526020019081526020015f205f3373ffffffffffffffffffffffffffffffffffffffff1673ffffffffffffffffffffffffffffffffffffffff1681526020019081526020015f205f9054906101000a900460ff1615610892576040517f08c379a000000000000000000000000000000000000000000000000000000000815260040161088990611e96565b60405180910390fd5b60025f8281526020019081526020015f206005015f8154809291906108b690611ee1565b9190505550600160045f8381526020019081526020015f205f3373ffffffffffffffffffffffffffffffffffffffff1673ffffffffffffffffffffffffffffffffffffffff1681526020019081526020015f205f6101000a81548160ff0219169083151502179055503373ffffffffffffffffffffffffffffffffffffffff16817fa7e4c5082f867ea22a45a95c2043209b9ce83d70ca31ccb947e67592ea14c4b15f6040516109669190611f42565b60405180910390a350565b60035f8381526020019081526020015f208054905081106109c7576040517f08c379a00000000000000000000000000000000000000000000000000000000081526004016109be90611fa5565b60405180910390fd5b60055f8381526020019081526020015f205f3373ffffffffffffffffffffffffffffffffffffffff1673ffffffffffffffffffffffffffffffffffffffff1681526020019081526020015f205f8281526020019081526020015f205f9054906101000a900460ff1615610a6f576040517f08c379a0000000000000000000000000000000000000000000000000000000008152600401610a669061200d565b60405180910390fd5b60035f8381526020019081526020015f208181548110610a9257610a91611d4a565b5b905f5260205f2090600702016004015f815480929190610ab190611ee1565b9190505550600160055f8481526020019081526020015f205f3373ffffffffffffffffffffffffffffffffffffffff1673ffffffffffffffffffffffffffffffffffffffff1681526020019081526020015f205f8381526020019081526020015f205f6101000a81548160ff02191690831515021790555060035f8381526020019081526020015f208181548110610b4c57610b4b611d4a565b5b905f5260205f2090600702015f0154827fa718b91703005c7ff3c85ef47cb2b96b8bf518a0934598a085e074a84ad79ba1336001604051610b8e92919061203a565b60405180910390a35050565b5f5f1b60025f8581526020019081526020015f205f015403610bf1576040517f08c379a0000000000000000000000000000000000000000000000000000000008152600401610be890611e2e565b60405180910390fd5b602082511115610c36576040517f08c379a0000000000000000000000000000000000000000000000000000000008152600401610c2d906120ab565b60405180910390fd5b5f334283604051602001610c4c93929190612168565b6040516020818303038152906040528051906020012090505f6040518060e001604052808381526020013373ffffffffffffffffffffffffffffffffffffffff1681526020018581526020018481526020015f81526020015f815260200142815250905060035f8681526020019081526020015f2081908060018154018082558091505060019003905f5260205f2090600702015f909190919091505f820151815f01556020820151816001015f6101000a81548173ffffffffffffffffffffffffffffffffffffffff021916908373ffffffffffffffffffffffffffffffffffffffff1602179055506040820151816002019081610d4b9190612340565b506060820151816003019081610d619190612340565b506080820151816004015560a0820151816005015560c08201518160060155505081857f121f72518586f939bfb34c62bbf7d31b0a8ae8ecbcac0869550705ee4cff80f533878742604051610db99493929190612456565b60405180910390a35050505050565b60035f8381526020019081526020015f20805490508110610e1e576040517f08c379a0000000000000000000000000000000000000000000000000000000008152600401610e1590611fa5565b60405180910390fd5b60055f8381526020019081526020015f205f3373ffffffffffffffffffffffffffffffffffffffff1673ffffffffffffffffffffffffffffffffffffffff1681526020019081526020015f205f8281526020019081526020015f205f9054906101000a900460ff1615610ec6576040517f08c379a0000000000000000000000000000000000000000000000000000000008152600401610ebd9061200d565b60405180910390fd5b60035f8381526020019081526020015f208181548110610ee957610ee8611d4a565b5b905f5260205f2090600702016005015f815480929190610f0890611ee1565b9190505550600160055f8481526020019081526020015f205f3373ffffffffffffffffffffffffffffffffffffffff1673ffffffffffffffffffffffffffffffffffffffff1681526020019081526020015f205f8381526020019081526020015f205f6101000a81548160ff02191690831515021790555060035f8381526020019081526020015f208181548110610fa357610fa2611d4a565b5b905f5260205f2090600702015f0154827fa718b91703005c7ff3c85ef47cb2b96b8bf518a0934598a085e074a84ad79ba1335f604051610fe492919061203a565b60405180910390a35050565b5f5f1b60025f8381526020019081526020015f205f015403611047576040517f08c379a000000000000000000000000000000000000000000000000000000000815260040161103e90611e2e565b60405180910390fd5b60045f8281526020019081526020015f205f3373ffffffffffffffffffffffffffffffffffffffff1673ffffffffffffffffffffffffffffffffffffffff1681526020019081526020015f205f9054906101000a900460ff16156110e0576040517f08c379a00000000000000000000000000000000000000000000000000000000081526004016110d790611e96565b60405180910390fd5b60025f8281526020019081526020015f206004015f81548092919061110490611ee1565b9190505550600160045f8381526020019081526020015f205f3373ffffffffffffffffffffffffffffffffffffffff1673ffffffffffffffffffffffffffffffffffffffff1681526020019081526020015f205f6101000a81548160ff0219169083151502179055503373ffffffffffffffffffffffffffffffffffffffff16817fa7e4c5082f867ea22a45a95c2043209b9ce83d70ca31ccb947e67592ea14c4b160016040516111b59190611f42565b60405180910390a350565b602083511115611205576040517f08c379a00000000000000000000000000000000000000000000000000000000081526004016111fc906124f1565b60405180910390fd5b5f3342848460405160200161121d949392919061250f565b6040516020818303038152906040528051906020012090505f6040518060e001604052808381526020018681526020018581526020018481526020015f81526020015f81526020014281525090505f82908060018154018082558091505060019003905f5260205f20015f909190919091505560015f3373ffffffffffffffffffffffffffffffffffffffff1673ffffffffffffffffffffffffffffffffffffffff1681526020019081526020015f2082908060018154018082558091505060019003905f5260205f20015f90919091909150558060025f8481526020019081526020015f205f820151815f015560208201518160010190816113209190612340565b5060408201518160020190816113369190612340565b50606082015181600301908161134c9190612340565b506080820151816004015560a0820151816005015560c08201518160060155905050817f17f34748f078a06d3c7c034ef1cdf60a8b2baf4592df676d3a2ae61596619f988587426040516113a293929190612554565b60405180910390a25050505050565b606060035f8381526020019081526020015f20805480602002602001604051908101604052809291908181526020015f905b828210156115af578382905f5260205f2090600702016040518060e00160405290815f8201548152602001600182015f9054906101000a900473ffffffffffffffffffffffffffffffffffffffff1673ffffffffffffffffffffffffffffffffffffffff1673ffffffffffffffffffffffffffffffffffffffff16815260200160028201805461147290611da4565b80601f016020809104026020016040519081016040528092919081815260200182805461149e90611da4565b80156114e95780601f106114c0576101008083540402835291602001916114e9565b820191905f5260205f20905b8154815290600101906020018083116114cc57829003601f168201915b5050505050815260200160038201805461150290611da4565b80601f016020809104026020016040519081016040528092919081815260200182805461152e90611da4565b80156115795780601f1061155057610100808354040283529160200191611579565b820191905f5260205f20905b81548152906001019060200180831161155c57829003601f168201915b505050505081526020016004820154815260200160058201548152602001600682015481525050815260200190600101906113e3565b505050509050919050565b6040518060e001604052805f81526020016060815260200160608152602001606081526020015f81526020015f81526020015f81525090565b5f604051905090565b5f5ffd5b5f5ffd5b5f73ffffffffffffffffffffffffffffffffffffffff82169050919050565b5f61162d82611604565b9050919050565b61163d81611623565b8114611647575f5ffd5b50565b5f8135905061165881611634565b92915050565b5f60208284031215611673576116726115fc565b5b5f6116808482850161164a565b91505092915050565b5f81519050919050565b5f82825260208201905092915050565b5f819050602082019050919050565b5f819050919050565b6116c4816116b2565b82525050565b5f81519050919050565b5f82825260208201905092915050565b8281835e5f83830152505050565b5f601f19601f8301169050919050565b5f61170c826116ca565b61171681856116d4565b93506117268185602086016116e4565b61172f816116f2565b840191505092915050565b5f819050919050565b61174c8161173a565b82525050565b5f60e083015f8301516117675f8601826116bb565b506020830151848203602086015261177f8282611702565b915050604083015184820360408601526117998282611702565b915050606083015184820360608601526117b38282611702565b91505060808301516117c86080860182611743565b5060a08301516117db60a0860182611743565b5060c08301516117ee60c0860182611743565b508091505092915050565b5f6118048383611752565b905092915050565b5f602082019050919050565b5f61182282611689565b61182c8185611693565b93508360208202850161183e856116a3565b805f5b85811015611879578484038952815161185a85826117f9565b94506118658361180c565b925060208a01995050600181019050611841565b50829750879550505050505092915050565b5f6020820190508181035f8301526118a38184611818565b905092915050565b6118b4816116b2565b81146118be575f5ffd5b50565b5f813590506118cf816118ab565b92915050565b5f602082840312156118ea576118e96115fc565b5b5f6118f7848285016118c1565b91505092915050565b6119098161173a565b8114611913575f5ffd5b50565b5f8135905061192481611900565b92915050565b5f5f604083850312156119405761193f6115fc565b5b5f61194d858286016118c1565b925050602061195e85828601611916565b9150509250929050565b5f5ffd5b5f5ffd5b7f4e487b71000000000000000000000000000000000000000000000000000000005f52604160045260245ffd5b6119a6826116f2565b810181811067ffffffffffffffff821117156119c5576119c4611970565b5b80604052505050565b5f6119d76115f3565b90506119e3828261199d565b919050565b5f67ffffffffffffffff821115611a0257611a01611970565b5b611a0b826116f2565b9050602081019050919050565b828183375f83830152505050565b5f611a38611a33846119e8565b6119ce565b905082815260208101848484011115611a5457611a5361196c565b5b611a5f848285611a18565b509392505050565b5f82601f830112611a7b57611a7a611968565b5b8135611a8b848260208601611a26565b91505092915050565b5f5f5f60608486031215611aab57611aaa6115fc565b5b5f611ab8868287016118c1565b935050602084013567ffffffffffffffff811115611ad957611ad8611600565b5b611ae586828701611a67565b925050604084013567ffffffffffffffff811115611b0657611b05611600565b5b611b1286828701611a67565b9150509250925092565b5f5f5f60608486031215611b3357611b326115fc565b5b5f84013567ffffffffffffffff811115611b5057611b4f611600565b5b611b5c86828701611a67565b935050602084013567ffffffffffffffff811115611b7d57611b7c611600565b5b611b8986828701611a67565b925050604084013567ffffffffffffffff811115611baa57611ba9611600565b5b611bb686828701611a67565b9150509250925092565b5f81519050919050565b5f82825260208201905092915050565b5f819050602082019050919050565b611bf281611623565b82525050565b5f60e083015f830151611c0d5f8601826116bb565b506020830151611c206020860182611be9565b5060408301518482036040860152611c388282611702565b91505060608301518482036060860152611c528282611702565b9150506080830151611c676080860182611743565b5060a0830151611c7a60a0860182611743565b5060c0830151611c8d60c0860182611743565b508091505092915050565b5f611ca38383611bf8565b905092915050565b5f602082019050919050565b5f611cc182611bc0565b611ccb8185611bca565b935083602082028501611cdd85611bda565b805f5b85811015611d185784840389528151611cf98582611c98565b9450611d0483611cab565b925060208a01995050600181019050611ce0565b50829750879550505050505092915050565b5f6020820190508181035f830152611d428184611cb7565b905092915050565b7f4e487b71000000000000000000000000000000000000000000000000000000005f52603260045260245ffd5b7f4e487b71000000000000000000000000000000000000000000000000000000005f52602260045260245ffd5b5f6002820490506001821680611dbb57607f821691505b602082108103611dce57611dcd611d77565b5b50919050565b5f82825260208201905092915050565b7f506f737420646f6573206e6f742065786973742e0000000000000000000000005f82015250565b5f611e18601483611dd4565b9150611e2382611de4565b602082019050919050565b5f6020820190508181035f830152611e4581611e0c565b9050919050565b7f416c726561647920766f746564206f6e207468697320706f73742e00000000005f82015250565b5f611e80601b83611dd4565b9150611e8b82611e4c565b602082019050919050565b5f6020820190508181035f830152611ead81611e74565b9050919050565b7f4e487b71000000000000000000000000000000000000000000000000000000005f52601160045260245ffd5b5f611eeb8261173a565b91507fffffffffffffffffffffffffffffffffffffffffffffffffffffffffffffffff8203611f1d57611f1c611eb4565b5b600182019050919050565b5f8115159050919050565b611f3c81611f28565b82525050565b5f602082019050611f555f830184611f33565b92915050565b7f436f6d6d656e7420646f6573206e6f74206578697374000000000000000000005f82015250565b5f611f8f601683611dd4565b9150611f9a82611f5b565b602082019050919050565b5f6020820190508181035f830152611fbc81611f83565b9050919050565b7f416c726561647920766f746564206f6e207468697320636f6d6d656e740000005f82015250565b5f611ff7601d83611dd4565b915061200282611fc3565b602082019050919050565b5f6020820190508181035f83015261202481611feb565b9050919050565b61203481611623565b82525050565b5f60408201905061204d5f83018561202b565b61205a6020830184611f33565b9392505050565b7f436f6d6d656e746572206e616d6520746f6f206c6f6e670000000000000000005f82015250565b5f612095601783611dd4565b91506120a082612061565b602082019050919050565b5f6020820190508181035f8301526120c281612089565b9050919050565b5f8160601b9050919050565b5f6120df826120c9565b9050919050565b5f6120f0826120d5565b9050919050565b61210861210382611623565b6120e6565b82525050565b5f819050919050565b6121286121238261173a565b61210e565b82525050565b5f81905092915050565b5f612142826116ca565b61214c818561212e565b935061215c8185602086016116e4565b80840191505092915050565b5f61217382866120f7565b6014820191506121838285612117565b6020820191506121938284612138565b9150819050949350505050565b5f819050815f5260205f209050919050565b5f6020601f8301049050919050565b5f82821b905092915050565b5f600883026121fc7fffffffffffffffffffffffffffffffffffffffffffffffffffffffffffffffff826121c1565b61220686836121c1565b95508019841693508086168417925050509392505050565b5f819050919050565b5f61224161223c6122378461173a565b61221e565b61173a565b9050919050565b5f819050919050565b61225a83612227565b61226e61226682612248565b8484546121cd565b825550505050565b5f5f905090565b612285612276565b612290818484612251565b505050565b5b818110156122b3576122a85f8261227d565b600181019050612296565b5050565b601f8211156122f8576122c9816121a0565b6122d2846121b2565b810160208510156122e1578190505b6122f56122ed856121b2565b830182612295565b50505b505050565b5f82821c905092915050565b5f6123185f19846008026122fd565b1980831691505092915050565b5f6123308383612309565b9150826002028217905092915050565b612349826116ca565b67ffffffffffffffff81111561236257612361611970565b5b61236c8254611da4565b6123778282856122b7565b5f60209050601f8311600181146123a8575f8415612396578287015190505b6123a08582612325565b865550612407565b601f1984166123b6866121a0565b5f5b828110156123dd578489015182556001820191506020850194506020810190506123b8565b868310156123fa57848901516123f6601f891682612309565b8355505b6001600288020188555050505b505050505050565b5f612419826116ca565b6124238185611dd4565b93506124338185602086016116e4565b61243c816116f2565b840191505092915050565b6124508161173a565b82525050565b5f6080820190506124695f83018761202b565b818103602083015261247b818661240f565b9050818103604083015261248f818561240f565b905061249e6060830184612447565b95945050505050565b7f417574686f72206e616d6520746f6f206c6f6e670000000000000000000000005f82015250565b5f6124db601483611dd4565b91506124e6826124a7565b602082019050919050565b5f6020820190508181035f830152612508816124cf565b9050919050565b5f61251a82876120f7565b60148201915061252a8286612117565b60208201915061253a8285612138565b91506125468284612138565b915081905095945050505050565b5f6060820190508181035f83015261256c818661240f565b90508181036020830152612580818561240f565b905061258f6040830184612447565b94935050505056fea264697066735822122025eb770d197f0a110c0cb7fc84cc349ae121864eb1de282753d2ca4eb13bc01064736f6c634300081e0033",
					"opcodes": "PUSH1 0x80 PUSH1 0x40 MSTORE CALLVALUE DUP1 ISZERO PUSH1 0xE JUMPI PUSH0 PUSH0 REVERT JUMPDEST POP PUSH2 0x25CD DUP1 PUSH2 0x1C PUSH0 CODECOPY PUSH0 RETURN INVALID PUSH1 0x80 PUSH1 0x40 MSTORE CALLVALUE DUP1 ISZERO PUSH2 0xF JUMPI PUSH0 PUSH0 REVERT JUMPDEST POP PUSH1 0x4 CALLDATASIZE LT PUSH2 0x91 JUMPI PUSH0 CALLDATALOAD PUSH1 0xE0 SHR DUP1 PUSH4 0xA7503DB2 GT PUSH2 0x64 JUMPI DUP1 PUSH4 0xA7503DB2 EQ PUSH2 0x11B JUMPI DUP1 PUSH4 0xCDB1D17E EQ PUSH2 0x137 JUMPI DUP1 PUSH4 0xE2FC2691 EQ PUSH2 0x153 JUMPI DUP1 PUSH4 0xE8A4A1EB EQ PUSH2 0x16F JUMPI DUP1 PUSH4 0xF7BA787D EQ PUSH2 0x18B JUMPI PUSH2 0x91 JUMP JUMPDEST DUP1 PUSH4 0x2CFDCC6B EQ PUSH2 0x95 JUMPI DUP1 PUSH4 0x30561100 EQ PUSH2 0xC5 JUMPI DUP1 PUSH4 0xA54FF9AC EQ PUSH2 0xE3 JUMPI DUP1 PUSH4 0xA6C86B5B EQ PUSH2 0xFF JUMPI JUMPDEST PUSH0 PUSH0 REVERT JUMPDEST PUSH2 0xAF PUSH1 0x4 DUP1 CALLDATASIZE SUB DUP2 ADD SWAP1 PUSH2 0xAA SWAP2 SWAP1 PUSH2 0x165E JUMP JUMPDEST PUSH2 0x1BB JUMP JUMPDEST PUSH1 0x40 MLOAD PUSH2 0xBC SWAP2 SWAP1 PUSH2 0x188B JUMP JUMPDEST PUSH1 0x40 MLOAD DUP1 SWAP2 SUB SWAP1 RETURN JUMPDEST PUSH2 0xCD PUSH2 0x4F3 JUMP JUMPDEST PUSH1 0x40 MLOAD PUSH2 0xDA SWAP2 SWAP1 PUSH2 0x188B JUMP JUMPDEST PUSH1 0x40 MLOAD DUP1 SWAP2 SUB SWAP1 RETURN JUMPDEST PUSH2 0xFD PUSH1 0x4 DUP1 CALLDATASIZE SUB DUP2 ADD SWAP1 PUSH2 0xF8 SWAP2 SWAP1 PUSH2 0x18D5 JUMP JUMPDEST PUSH2 0x7A2 JUMP JUMPDEST STOP JUMPDEST PUSH2 0x119 PUSH1 0x4 DUP1 CALLDATASIZE SUB DUP2 ADD SWAP1 PUSH2 0x114 SWAP2 SWAP1 PUSH2 0x192A JUMP JUMPDEST PUSH2 0x971 JUMP JUMPDEST STOP JUMPDEST PUSH2 0x135 PUSH1 0x4 DUP1 CALLDATASIZE SUB DUP2 ADD SWAP1 PUSH2 0x130 SWAP2 SWAP1 PUSH2 0x1A94 JUMP JUMPDEST PUSH2 0xB9A JUMP JUMPDEST STOP JUMPDEST PUSH2 0x151 PUSH1 0x4 DUP1 CALLDATASIZE SUB DUP2 ADD SWAP1 PUSH2 0x14C SWAP2 SWAP1 PUSH2 0x192A JUMP JUMPDEST PUSH2 0xDC8 JUMP JUMPDEST STOP JUMPDEST PUSH2 0x16D PUSH1 0x4 DUP1 CALLDATASIZE SUB DUP2 ADD SWAP1 PUSH2 0x168 SWAP2 SWAP1 PUSH2 0x18D5 JUMP JUMPDEST PUSH2 0xFF0 JUMP JUMPDEST STOP JUMPDEST PUSH2 0x189 PUSH1 0x4 DUP1 CALLDATASIZE SUB DUP2 ADD SWAP1 PUSH2 0x184 SWAP2 SWAP1 PUSH2 0x1B1C JUMP JUMPDEST PUSH2 0x11C0 JUMP JUMPDEST STOP JUMPDEST PUSH2 0x1A5 PUSH1 0x4 DUP1 CALLDATASIZE SUB DUP2 ADD SWAP1 PUSH2 0x1A0 SWAP2 SWAP1 PUSH2 0x18D5 JUMP JUMPDEST PUSH2 0x13B1 JUMP JUMPDEST PUSH1 0x40 MLOAD PUSH2 0x1B2 SWAP2 SWAP1 PUSH2 0x1D2A JUMP JUMPDEST PUSH1 0x40 MLOAD DUP1 SWAP2 SUB SWAP1 RETURN JUMPDEST PUSH1 0x60 PUSH0 PUSH1 0x1 PUSH0 DUP5 PUSH20 0xFFFFFFFFFFFFFFFFFFFFFFFFFFFFFFFFFFFFFFFF AND PUSH20 0xFFFFFFFFFFFFFFFFFFFFFFFFFFFFFFFFFFFFFFFF AND DUP2 MSTORE PUSH1 0x20 ADD SWAP1 DUP2 MSTORE PUSH1 0x20 ADD PUSH0 KECCAK256 DUP1 SLOAD DUP1 PUSH1 0x20 MUL PUSH1 0x20 ADD PUSH1 0x40 MLOAD SWAP1 DUP2 ADD PUSH1 0x40 MSTORE DUP1 SWAP3 SWAP2 SWAP1 DUP2 DUP2 MSTORE PUSH1 0x20 ADD DUP3 DUP1 SLOAD DUP1 ISZERO PUSH2 0x243 JUMPI PUSH1 0x20 MUL DUP3 ADD SWAP2 SWAP1 PUSH0 MSTORE PUSH1 0x20 PUSH0 KECCAK256 SWAP1 JUMPDEST DUP2 SLOAD DUP2 MSTORE PUSH1 0x20 ADD SWAP1 PUSH1 0x1 ADD SWAP1 DUP1 DUP4 GT PUSH2 0x22F JUMPI JUMPDEST POP POP POP POP POP SWAP1 POP PUSH0 DUP2 MLOAD PUSH8 0xFFFFFFFFFFFFFFFF DUP2 GT ISZERO PUSH2 0x266 JUMPI PUSH2 0x265 PUSH2 0x1970 JUMP JUMPDEST JUMPDEST PUSH1 0x40 MLOAD SWAP1 DUP1 DUP3 MSTORE DUP1 PUSH1 0x20 MUL PUSH1 0x20 ADD DUP3 ADD PUSH1 0x40 MSTORE DUP1 ISZERO PUSH2 0x29F JUMPI DUP2 PUSH1 0x20 ADD JUMPDEST PUSH2 0x28C PUSH2 0x15BA JUMP JUMPDEST DUP2 MSTORE PUSH1 0x20 ADD SWAP1 PUSH1 0x1 SWAP1 SUB SWAP1 DUP2 PUSH2 0x284 JUMPI SWAP1 POP JUMPDEST POP SWAP1 POP PUSH0 PUSH0 SWAP1 POP JUMPDEST DUP3 MLOAD DUP2 LT ISZERO PUSH2 0x4E8 JUMPI PUSH1 0x2 PUSH0 DUP5 DUP4 DUP2 MLOAD DUP2 LT PUSH2 0x2C6 JUMPI PUSH2 0x2C5 PUSH2 0x1D4A JUMP JUMPDEST JUMPDEST PUSH1 0x20 MUL PUSH1 0x20 ADD ADD MLOAD DUP2 MSTORE PUSH1 0x20 ADD SWAP1 DUP2 MSTORE PUSH1 0x20 ADD PUSH0 KECCAK256 PUSH1 0x40 MLOAD DUP1 PUSH1 0xE0 ADD PUSH1 0x40 MSTORE SWAP1 DUP2 PUSH0 DUP3 ADD SLOAD DUP2 MSTORE PUSH1 0x20 ADD PUSH1 0x1 DUP3 ADD DUP1 SLOAD PUSH2 0x2FF SWAP1 PUSH2 0x1DA4 JUMP JUMPDEST DUP1 PUSH1 0x1F ADD PUSH1 0x20 DUP1 SWAP2 DIV MUL PUSH1 0x20 ADD PUSH1 0x40 MLOAD SWAP1 DUP2 ADD PUSH1 0x40 MSTORE DUP1 SWAP3 SWAP2 SWAP1 DUP2 DUP2 MSTORE PUSH1 0x20 ADD DUP3 DUP1 SLOAD PUSH2 0x32B SWAP1 PUSH2 0x1DA4 JUMP JUMPDEST DUP1 ISZERO PUSH2 0x376 JUMPI DUP1 PUSH1 0x1F LT PUSH2 0x34D JUMPI PUSH2 0x100 DUP1 DUP4 SLOAD DIV MUL DUP4 MSTORE SWAP2 PUSH1 0x20 ADD SWAP2 PUSH2 0x376 JUMP JUMPDEST DUP3 ADD SWAP2 SWAP1 PUSH0 MSTORE PUSH1 0x20 PUSH0 KECCAK256 SWAP1 JUMPDEST DUP2 SLOAD DUP2 MSTORE SWAP1 PUSH1 0x1 ADD SWAP1 PUSH1 0x20 ADD DUP1 DUP4 GT PUSH2 0x359 JUMPI DUP3 SWAP1 SUB PUSH1 0x1F AND DUP3 ADD SWAP2 JUMPDEST POP POP POP POP POP DUP2 MSTORE PUSH1 0x20 ADD PUSH1 0x2 DUP3 ADD DUP1 SLOAD PUSH2 0x38F SWAP1 PUSH2 0x1DA4 JUMP JUMPDEST DUP1 PUSH1 0x1F ADD PUSH1 0x20 DUP1 SWAP2 DIV MUL PUSH1 0x20 ADD PUSH1 0x40 MLOAD SWAP1 DUP2 ADD PUSH1 0x40 MSTORE DUP1 SWAP3 SWAP2 SWAP1 DUP2 DUP2 MSTORE PUSH1 0x20 ADD DUP3 DUP1 SLOAD PUSH2 0x3BB SWAP1 PUSH2 0x1DA4 JUMP JUMPDEST DUP1 ISZERO PUSH2 0x406 JUMPI DUP1 PUSH1 0x1F LT PUSH2 0x3DD JUMPI PUSH2 0x100 DUP1 DUP4 SLOAD DIV MUL DUP4 MSTORE SWAP2 PUSH1 0x20 ADD SWAP2 PUSH2 0x406 JUMP JUMPDEST DUP3 ADD SWAP2 SWAP1 PUSH0 MSTORE PUSH1 0x20 PUSH0 KECCAK256 SWAP1 JUMPDEST DUP2 SLOAD DUP2 MSTORE SWAP1 PUSH1 0x1 ADD SWAP1 PUSH1 0x20 ADD DUP1 DUP4 GT PUSH2 0x3E9 JUMPI DUP3 SWAP1 SUB PUSH1 0x1F AND DUP3 ADD SWAP2 JUMPDEST POP POP POP POP POP DUP2 MSTORE PUSH1 0x20 ADD PUSH1 0x3 DUP3 ADD DUP1 SLOAD PUSH2 0x41F SWAP1 PUSH2 0x1DA4 JUMP JUMPDEST DUP1 PUSH1 0x1F ADD PUSH1 0x20 DUP1 SWAP2 DIV MUL PUSH1 0x20 ADD PUSH1 0x40 MLOAD SWAP1 DUP2 ADD PUSH1 0x40 MSTORE DUP1 SWAP3 SWAP2 SWAP1 DUP2 DUP2 MSTORE PUSH1 0x20 ADD DUP3 DUP1 SLOAD PUSH2 0x44B SWAP1 PUSH2 0x1DA4 JUMP JUMPDEST DUP1 ISZERO PUSH2 0x496 JUMPI DUP1 PUSH1 0x1F LT PUSH2 0x46D JUMPI PUSH2 0x100 DUP1 DUP4 SLOAD DIV MUL DUP4 MSTORE SWAP2 PUSH1 0x20 ADD SWAP2 PUSH2 0x496 JUMP JUMPDEST DUP3 ADD SWAP2 SWAP1 PUSH0 MSTORE PUSH1 0x20 PUSH0 KECCAK256 SWAP1 JUMPDEST DUP2 SLOAD DUP2 MSTORE SWAP1 PUSH1 0x1 ADD SWAP1 PUSH1 0x20 ADD DUP1 DUP4 GT PUSH2 0x479 JUMPI DUP3 SWAP1 SUB PUSH1 0x1F AND DUP3 ADD SWAP2 JUMPDEST POP POP POP POP POP DUP2 MSTORE PUSH1 0x20 ADD PUSH1 0x4 DUP3 ADD SLOAD DUP2 MSTORE PUSH1 0x20 ADD PUSH1 0x5 DUP3 ADD SLOAD DUP2 MSTORE PUSH1 0x20 ADD PUSH1 0x6 DUP3 ADD SLOAD DUP2 MSTORE POP POP DUP3 DUP3 DUP2 MLOAD DUP2 LT PUSH2 0x4D0 JUMPI PUSH2 0x4CF PUSH2 0x1D4A JUMP JUMPDEST JUMPDEST PUSH1 0x20 MUL PUSH1 0x20 ADD ADD DUP2 SWAP1 MSTORE POP DUP1 DUP1 PUSH1 0x1 ADD SWAP2 POP POP PUSH2 0x2A7 JUMP JUMPDEST POP DUP1 SWAP3 POP POP POP SWAP2 SWAP1 POP JUMP JUMPDEST PUSH1 0x60 PUSH0 PUSH0 DUP1 SLOAD SWAP1 POP PUSH8 0xFFFFFFFFFFFFFFFF DUP2 GT ISZERO PUSH2 0x514 JUMPI PUSH2 0x513 PUSH2 0x1970 JUMP JUMPDEST JUMPDEST PUSH1 0x40 MLOAD SWAP1 DUP1 DUP3 MSTORE DUP1 PUSH1 0x20 MUL PUSH1 0x20 ADD DUP3 ADD PUSH1 0x40 MSTORE DUP1 ISZERO PUSH2 0x54D JUMPI DUP2 PUSH1 0x20 ADD JUMPDEST PUSH2 0x53A PUSH2 0x15BA JUMP JUMPDEST DUP2 MSTORE PUSH1 0x20 ADD SWAP1 PUSH1 0x1 SWAP1 SUB SWAP1 DUP2 PUSH2 0x532 JUMPI SWAP1 POP JUMPDEST POP SWAP1 POP PUSH0 PUSH0 SWAP1 POP JUMPDEST PUSH0 DUP1 SLOAD SWAP1 POP DUP2 LT ISZERO PUSH2 0x79A JUMPI PUSH1 0x2 PUSH0 PUSH0 DUP4 DUP2 SLOAD DUP2 LT PUSH2 0x577 JUMPI PUSH2 0x576 PUSH2 0x1D4A JUMP JUMPDEST JUMPDEST SWAP1 PUSH0 MSTORE PUSH1 0x20 PUSH0 KECCAK256 ADD SLOAD DUP2 MSTORE PUSH1 0x20 ADD SWAP1 DUP2 MSTORE PUSH1 0x20 ADD PUSH0 KECCAK256 PUSH1 0x40 MLOAD DUP1 PUSH1 0xE0 ADD PUSH1 0x40 MSTORE SWAP1 DUP2 PUSH0 DUP3 ADD SLOAD DUP2 MSTORE PUSH1 0x20 ADD PUSH1 0x1 DUP3 ADD DUP1 SLOAD PUSH2 0x5B1 SWAP1 PUSH2 0x1DA4 JUMP JUMPDEST DUP1 PUSH1 0x1F ADD PUSH1 0x20 DUP1 SWAP2 DIV MUL PUSH1 0x20 ADD PUSH1 0x40 MLOAD SWAP1 DUP2 ADD PUSH1 0x40 MSTORE DUP1 SWAP3 SWAP2 SWAP1 DUP2 DUP2 MSTORE PUSH1 0x20 ADD DUP3 DUP1 SLOAD PUSH2 0x5DD SWAP1 PUSH2 0x1DA4 JUMP JUMPDEST DUP1 ISZERO PUSH2 0x628 JUMPI DUP1 PUSH1 0x1F LT PUSH2 0x5FF JUMPI PUSH2 0x100 DUP1 DUP4 SLOAD DIV MUL DUP4 MSTORE SWAP2 PUSH1 0x20 ADD SWAP2 PUSH2 0x628 JUMP JUMPDEST DUP3 ADD SWAP2 SWAP1 PUSH0 MSTORE PUSH1 0x20 PUSH0 KECCAK256 SWAP1 JUMPDEST DUP2 SLOAD DUP2 MSTORE SWAP1 PUSH1 0x1 ADD SWAP1 PUSH1 0x20 ADD DUP1 DUP4 GT PUSH2 0x60B JUMPI DUP3 SWAP1 SUB PUSH1 0x1F AND DUP3 ADD SWAP2 JUMPDEST POP POP POP POP POP DUP2 MSTORE PUSH1 0x20 ADD PUSH1 0x2 DUP3 ADD DUP1 SLOAD PUSH2 0x641 SWAP1 PUSH2 0x1DA4 JUMP JUMPDEST DUP1 PUSH1 0x1F ADD PUSH1 0x20 DUP1 SWAP2 DIV MUL PUSH1 0x20 ADD PUSH1 0x40 MLOAD SWAP1 DUP2 ADD PUSH1 0x40 MSTORE DUP1 SWAP3 SWAP2 SWAP1 DUP2 DUP2 MSTORE PUSH1 0x20 ADD DUP3 DUP1 SLOAD PUSH2 0x66D SWAP1 PUSH2 0x1DA4 JUMP JUMPDEST DUP1 ISZERO PUSH2 0x6B8 JUMPI DUP1 PUSH1 0x1F LT PUSH2 0x68F JUMPI PUSH2 0x100 DUP1 DUP4 SLOAD DIV MUL DUP4 MSTORE SWAP2 PUSH1 0x20 ADD SWAP2 PUSH2 0x6B8 JUMP JUMPDEST DUP3 ADD SWAP2 SWAP1 PUSH0 MSTORE PUSH1 0x20 PUSH0 KECCAK256 SWAP1 JUMPDEST DUP2 SLOAD DUP2 MSTORE SWAP1 PUSH1 0x1 ADD SWAP1 PUSH1 0x20 ADD DUP1 DUP4 GT PUSH2 0x69B JUMPI DUP3 SWAP1 SUB PUSH1 0x1F AND DUP3 ADD SWAP2 JUMPDEST POP POP POP POP POP DUP2 MSTORE PUSH1 0x20 ADD PUSH1 0x3 DUP3 ADD DUP1 SLOAD PUSH2 0x6D1 SWAP1 PUSH2 0x1DA4 JUMP JUMPDEST DUP1 PUSH1 0x1F ADD PUSH1 0x20 DUP1 SWAP2 DIV MUL PUSH1 0x20 ADD PUSH1 0x40 MLOAD SWAP1 DUP2 ADD PUSH1 0x40 MSTORE DUP1 SWAP3 SWAP2 SWAP1 DUP2 DUP2 MSTORE PUSH1 0x20 ADD DUP3 DUP1 SLOAD PUSH2 0x6FD SWAP1 PUSH2 0x1DA4 JUMP JUMPDEST DUP1 ISZERO PUSH2 0x748 JUMPI DUP1 PUSH1 0x1F LT PUSH2 0x71F JUMPI PUSH2 0x100 DUP1 DUP4 SLOAD DIV MUL DUP4 MSTORE SWAP2 PUSH1 0x20 ADD SWAP2 PUSH2 0x748 JUMP JUMPDEST DUP3 ADD SWAP2 SWAP1 PUSH0 MSTORE PUSH1 0x20 PUSH0 KECCAK256 SWAP1 JUMPDEST DUP2 SLOAD DUP2 MSTORE SWAP1 PUSH1 0x1 ADD SWAP1 PUSH1 0x20 ADD DUP1 DUP4 GT PUSH2 0x72B JUMPI DUP3 SWAP1 SUB PUSH1 0x1F AND DUP3 ADD SWAP2 JUMPDEST POP POP POP POP POP DUP2 MSTORE PUSH1 0x20 ADD PUSH1 0x4 DUP3 ADD SLOAD DUP2 MSTORE PUSH1 0x20 ADD PUSH1 0x5 DUP3 ADD SLOAD DUP2 MSTORE PUSH1 0x20 ADD PUSH1 0x6 DUP3 ADD SLOAD DUP2 MSTORE POP POP DUP3 DUP3 DUP2 MLOAD DUP2 LT PUSH2 0x782 JUMPI PUSH2 0x781 PUSH2 0x1D4A JUMP JUMPDEST JUMPDEST PUSH1 0x20 MUL PUSH1 0x20 ADD ADD DUP2 SWAP1 MSTORE POP DUP1 DUP1 PUSH1 0x1 ADD SWAP2 POP POP PUSH2 0x555 JUMP JUMPDEST POP DUP1 SWAP2 POP POP SWAP1 JUMP JUMPDEST PUSH0 PUSH0 SHL PUSH1 0x2 PUSH0 DUP4 DUP2 MSTORE PUSH1 0x20 ADD SWAP1 DUP2 MSTORE PUSH1 0x20 ADD PUSH0 KECCAK256 PUSH0 ADD SLOAD SUB PUSH2 0x7F9 JUMPI PUSH1 0x40 MLOAD PUSH32 0x8C379A000000000000000000000000000000000000000000000000000000000 DUP2 MSTORE PUSH1 0x4 ADD PUSH2 0x7F0 SWAP1 PUSH2 0x1E2E JUMP JUMPDEST PUSH1 0x40 MLOAD DUP1 SWAP2 SUB SWAP1 REVERT JUMPDEST PUSH1 0x4 PUSH0 DUP3 DUP2 MSTORE PUSH1 0x20 ADD SWAP1 DUP2 MSTORE PUSH1 0x20 ADD PUSH0 KECCAK256 PUSH0 CALLER PUSH20 0xFFFFFFFFFFFFFFFFFFFFFFFFFFFFFFFFFFFFFFFF AND PUSH20 0xFFFFFFFFFFFFFFFFFFFFFFFFFFFFFFFFFFFFFFFF AND DUP2 MSTORE PUSH1 0x20 ADD SWAP1 DUP2 MSTORE PUSH1 0x20 ADD PUSH0 KECCAK256 PUSH0 SWAP1 SLOAD SWAP1 PUSH2 0x100 EXP SWAP1 DIV PUSH1 0xFF AND ISZERO PUSH2 0x892 JUMPI PUSH1 0x40 MLOAD PUSH32 0x8C379A000000000000000000000000000000000000000000000000000000000 DUP2 MSTORE PUSH1 0x4 ADD PUSH2 0x889 SWAP1 PUSH2 0x1E96 JUMP JUMPDEST PUSH1 0x40 MLOAD DUP1 SWAP2 SUB SWAP1 REVERT JUMPDEST PUSH1 0x2 PUSH0 DUP3 DUP2 MSTORE PUSH1 0x20 ADD SWAP1 DUP2 MSTORE PUSH1 0x20 ADD PUSH0 KECCAK256 PUSH1 0x5 ADD PUSH0 DUP2 SLOAD DUP1 SWAP3 SWAP2 SWAP1 PUSH2 0x8B6 SWAP1 PUSH2 0x1EE1 JUMP JUMPDEST SWAP2 SWAP1 POP SSTORE POP PUSH1 0x1 PUSH1 0x4 PUSH0 DUP4 DUP2 MSTORE PUSH1 0x20 ADD SWAP1 DUP2 MSTORE PUSH1 0x20 ADD PUSH0 KECCAK256 PUSH0 CALLER PUSH20 0xFFFFFFFFFFFFFFFFFFFFFFFFFFFFFFFFFFFFFFFF AND PUSH20 0xFFFFFFFFFFFFFFFFFFFFFFFFFFFFFFFFFFFFFFFF AND DUP2 MSTORE PUSH1 0x20 ADD SWAP1 DUP2 MSTORE PUSH1 0x20 ADD PUSH0 KECCAK256 PUSH0 PUSH2 0x100 EXP DUP2 SLOAD DUP2 PUSH1 0xFF MUL NOT AND SWAP1 DUP4 ISZERO ISZERO MUL OR SWAP1 SSTORE POP CALLER PUSH20 0xFFFFFFFFFFFFFFFFFFFFFFFFFFFFFFFFFFFFFFFF AND DUP2 PUSH32 0xA7E4C5082F867EA22A45A95C2043209B9CE83D70CA31CCB947E67592EA14C4B1 PUSH0 PUSH1 0x40 MLOAD PUSH2 0x966 SWAP2 SWAP1 PUSH2 0x1F42 JUMP JUMPDEST PUSH1 0x40 MLOAD DUP1 SWAP2 SUB SWAP1 LOG3 POP JUMP JUMPDEST PUSH1 0x3 PUSH0 DUP4 DUP2 MSTORE PUSH1 0x20 ADD SWAP1 DUP2 MSTORE PUSH1 0x20 ADD PUSH0 KECCAK256 DUP1 SLOAD SWAP1 POP DUP2 LT PUSH2 0x9C7 JUMPI PUSH1 0x40 MLOAD PUSH32 0x8C379A000000000000000000000000000000000000000000000000000000000 DUP2 MSTORE PUSH1 0x4 ADD PUSH2 0x9BE SWAP1 PUSH2 0x1FA5 JUMP JUMPDEST PUSH1 0x40 MLOAD DUP1 SWAP2 SUB SWAP1 REVERT JUMPDEST PUSH1 0x5 PUSH0 DUP4 DUP2 MSTORE PUSH1 0x20 ADD SWAP1 DUP2 MSTORE PUSH1 0x20 ADD PUSH0 KECCAK256 PUSH0 CALLER PUSH20 0xFFFFFFFFFFFFFFFFFFFFFFFFFFFFFFFFFFFFFFFF AND PUSH20 0xFFFFFFFFFFFFFFFFFFFFFFFFFFFFFFFFFFFFFFFF AND DUP2 MSTORE PUSH1 0x20 ADD SWAP1 DUP2 MSTORE PUSH1 0x20 ADD PUSH0 KECCAK256 PUSH0 DUP3 DUP2 MSTORE PUSH1 0x20 ADD SWAP1 DUP2 MSTORE PUSH1 0x20 ADD PUSH0 KECCAK256 PUSH0 SWAP1 SLOAD SWAP1 PUSH2 0x100 EXP SWAP1 DIV PUSH1 0xFF AND ISZERO PUSH2 0xA6F JUMPI PUSH1 0x40 MLOAD PUSH32 0x8C379A000000000000000000000000000000000000000000000000000000000 DUP2 MSTORE PUSH1 0x4 ADD PUSH2 0xA66 SWAP1 PUSH2 0x200D JUMP JUMPDEST PUSH1 0x40 MLOAD DUP1 SWAP2 SUB SWAP1 REVERT JUMPDEST PUSH1 0x3 PUSH0 DUP4 DUP2 MSTORE PUSH1 0x20 ADD SWAP1 DUP2 MSTORE PUSH1 0x20 ADD PUSH0 KECCAK256 DUP2 DUP2 SLOAD DUP2 LT PUSH2 0xA92 JUMPI PUSH2 0xA91 PUSH2 0x1D4A JUMP JUMPDEST JUMPDEST SWAP1 PUSH0 MSTORE PUSH1 0x20 PUSH0 KECCAK256 SWAP1 PUSH1 0x7 MUL ADD PUSH1 0x4 ADD PUSH0 DUP2 SLOAD DUP1 SWAP3 SWAP2 SWAP1 PUSH2 0xAB1 SWAP1 PUSH2 0x1EE1 JUMP JUMPDEST SWAP2 SWAP1 POP SSTORE POP PUSH1 0x1 PUSH1 0x5 PUSH0 DUP5 DUP2 MSTORE PUSH1 0x20 ADD SWAP1 DUP2 MSTORE PUSH1 0x20 ADD PUSH0 KECCAK256 PUSH0 CALLER PUSH20 0xFFFFFFFFFFFFFFFFFFFFFFFFFFFFFFFFFFFFFFFF AND PUSH20 0xFFFFFFFFFFFFFFFFFFFFFFFFFFFFFFFFFFFFFFFF AND DUP2 MSTORE PUSH1 0x20 ADD SWAP1 DUP2 MSTORE PUSH1 0x20 ADD PUSH0 KECCAK256 PUSH0 DUP4 DUP2 MSTORE PUSH1 0x20 ADD SWAP1 DUP2 MSTORE PUSH1 0x20 ADD PUSH0 KECCAK256 PUSH0 PUSH2 0x100 EXP DUP2 SLOAD DUP2 PUSH1 0xFF MUL NOT AND SWAP1 DUP4 ISZERO ISZERO MUL OR SWAP1 SSTORE POP PUSH1 0x3 PUSH0 DUP4 DUP2 MSTORE PUSH1 0x20 ADD SWAP1 DUP2 MSTORE PUSH1 0x20 ADD PUSH0 KECCAK256 DUP2 DUP2 SLOAD DUP2 LT PUSH2 0xB4C JUMPI PUSH2 0xB4B PUSH2 0x1D4A JUMP JUMPDEST JUMPDEST SWAP1 PUSH0 MSTORE PUSH1 0x20 PUSH0 KECCAK256 SWAP1 PUSH1 0x7 MUL ADD PUSH0 ADD SLOAD DUP3 PUSH32 0xA718B91703005C7FF3C85EF47CB2B96B8BF518A0934598A085E074A84AD79BA1 CALLER PUSH1 0x1 PUSH1 0x40 MLOAD PUSH2 0xB8E SWAP3 SWAP2 SWAP1 PUSH2 0x203A JUMP JUMPDEST PUSH1 0x40 MLOAD DUP1 SWAP2 SUB SWAP1 LOG3 POP POP JUMP JUMPDEST PUSH0 PUSH0 SHL PUSH1 0x2 PUSH0 DUP6 DUP2 MSTORE PUSH1 0x20 ADD SWAP1 DUP2 MSTORE PUSH1 0x20 ADD PUSH0 KECCAK256 PUSH0 ADD SLOAD SUB PUSH2 0xBF1 JUMPI PUSH1 0x40 MLOAD PUSH32 0x8C379A000000000000000000000000000000000000000000000000000000000 DUP2 MSTORE PUSH1 0x4 ADD PUSH2 0xBE8 SWAP1 PUSH2 0x1E2E JUMP JUMPDEST PUSH1 0x40 MLOAD DUP1 SWAP2 SUB SWAP1 REVERT JUMPDEST PUSH1 0x20 DUP3 MLOAD GT ISZERO PUSH2 0xC36 JUMPI PUSH1 0x40 MLOAD PUSH32 0x8C379A000000000000000000000000000000000000000000000000000000000 DUP2 MSTORE PUSH1 0x4 ADD PUSH2 0xC2D SWAP1 PUSH2 0x20AB JUMP JUMPDEST PUSH1 0x40 MLOAD DUP1 SWAP2 SUB SWAP1 REVERT JUMPDEST PUSH0 CALLER TIMESTAMP DUP4 PUSH1 0x40 MLOAD PUSH1 0x20 ADD PUSH2 0xC4C SWAP4 SWAP3 SWAP2 SWAP1 PUSH2 0x2168 JUMP JUMPDEST PUSH1 0x40 MLOAD PUSH1 0x20 DUP2 DUP4 SUB SUB DUP2 MSTORE SWAP1 PUSH1 0x40 MSTORE DUP1 MLOAD SWAP1 PUSH1 0x20 ADD KECCAK256 SWAP1 POP PUSH0 PUSH1 0x40 MLOAD DUP1 PUSH1 0xE0 ADD PUSH1 0x40 MSTORE DUP1 DUP4 DUP2 MSTORE PUSH1 0x20 ADD CALLER PUSH20 0xFFFFFFFFFFFFFFFFFFFFFFFFFFFFFFFFFFFFFFFF AND DUP2 MSTORE PUSH1 0x20 ADD DUP6 DUP2 MSTORE PUSH1 0x20 ADD DUP5 DUP2 MSTORE PUSH1 0x20 ADD PUSH0 DUP2 MSTORE PUSH1 0x20 ADD PUSH0 DUP2 MSTORE PUSH1 0x20 ADD TIMESTAMP DUP2 MSTORE POP SWAP1 POP PUSH1 0x3 PUSH0 DUP7 DUP2 MSTORE PUSH1 0x20 ADD SWAP1 DUP2 MSTORE PUSH1 0x20 ADD PUSH0 KECCAK256 DUP2 SWAP1 DUP1 PUSH1 0x1 DUP2 SLOAD ADD DUP1 DUP3 SSTORE DUP1 SWAP2 POP POP PUSH1 0x1 SWAP1 SUB SWAP1 PUSH0 MSTORE PUSH1 0x20 PUSH0 KECCAK256 SWAP1 PUSH1 0x7 MUL ADD PUSH0 SWAP1 SWAP2 SWAP1 SWAP2 SWAP1 SWAP2 POP PUSH0 DUP3 ADD MLOAD DUP2 PUSH0 ADD SSTORE PUSH1 0x20 DUP3 ADD MLOAD DUP2 PUSH1 0x1 ADD PUSH0 PUSH2 0x100 EXP DUP2 SLOAD DUP2 PUSH20 0xFFFFFFFFFFFFFFFFFFFFFFFFFFFFFFFFFFFFFFFF MUL NOT AND SWAP1 DUP4 PUSH20 0xFFFFFFFFFFFFFFFFFFFFFFFFFFFFFFFFFFFFFFFF AND MUL OR SWAP1 SSTORE POP PUSH1 0x40 DUP3 ADD MLOAD DUP2 PUSH1 0x2 ADD SWAP1 DUP2 PUSH2 0xD4B SWAP2 SWAP1 PUSH2 0x2340 JUMP JUMPDEST POP PUSH1 0x60 DUP3 ADD MLOAD DUP2 PUSH1 0x3 ADD SWAP1 DUP2 PUSH2 0xD61 SWAP2 SWAP1 PUSH2 0x2340 JUMP JUMPDEST POP PUSH1 0x80 DUP3 ADD MLOAD DUP2 PUSH1 0x4 ADD SSTORE PUSH1 0xA0 DUP3 ADD MLOAD DUP2 PUSH1 0x5 ADD SSTORE PUSH1 0xC0 DUP3 ADD MLOAD DUP2 PUSH1 0x6 ADD SSTORE POP POP DUP2 DUP6 PUSH32 0x121F72518586F939BFB34C62BBF7D31B0A8AE8ECBCAC0869550705EE4CFF80F5 CALLER DUP8 DUP8 TIMESTAMP PUSH1 0x40 MLOAD PUSH2 0xDB9 SWAP5 SWAP4 SWAP3 SWAP2 SWAP1 PUSH2 0x2456 JUMP JUMPDEST PUSH1 0x40 MLOAD DUP1 SWAP2 SUB SWAP1 LOG3 POP POP POP POP POP JUMP JUMPDEST PUSH1 0x3 PUSH0 DUP4 DUP2 MSTORE PUSH1 0x20 ADD SWAP1 DUP2 MSTORE PUSH1 0x20 ADD PUSH0 KECCAK256 DUP1 SLOAD SWAP1 POP DUP2 LT PUSH2 0xE1E JUMPI PUSH1 0x40 MLOAD PUSH32 0x8C379A000000000000000000000000000000000000000000000000000000000 DUP2 MSTORE PUSH1 0x4 ADD PUSH2 0xE15 SWAP1 PUSH2 0x1FA5 JUMP JUMPDEST PUSH1 0x40 MLOAD DUP1 SWAP2 SUB SWAP1 REVERT JUMPDEST PUSH1 0x5 PUSH0 DUP4 DUP2 MSTORE PUSH1 0x20 ADD SWAP1 DUP2 MSTORE PUSH1 0x20 ADD PUSH0 KECCAK256 PUSH0 CALLER PUSH20 0xFFFFFFFFFFFFFFFFFFFFFFFFFFFFFFFFFFFFFFFF AND PUSH20 0xFFFFFFFFFFFFFFFFFFFFFFFFFFFFFFFFFFFFFFFF AND DUP2 MSTORE PUSH1 0x20 ADD SWAP1 DUP2 MSTORE PUSH1 0x20 ADD PUSH0 KECCAK256 PUSH0 DUP3 DUP2 MSTORE PUSH1 0x20 ADD SWAP1 DUP2 MSTORE PUSH1 0x20 ADD PUSH0 KECCAK256 PUSH0 SWAP1 SLOAD SWAP1 PUSH2 0x100 EXP SWAP1 DIV PUSH1 0xFF AND ISZERO PUSH2 0xEC6 JUMPI PUSH1 0x40 MLOAD PUSH32 0x8C379A000000000000000000000000000000000000000000000000000000000 DUP2 MSTORE PUSH1 0x4 ADD PUSH2 0xEBD SWAP1 PUSH2 0x200D JUMP JUMPDEST PUSH1 0x40 MLOAD DUP1 SWAP2 SUB SWAP1 REVERT JUMPDEST PUSH1 0x3 PUSH0 DUP4 DUP2 MSTORE PUSH1 0x20 ADD SWAP1 DUP2 MSTORE PUSH1 0x20 ADD PUSH0 KECCAK256 DUP2 DUP2 SLOAD DUP2 LT PUSH2 0xEE9 JUMPI PUSH2 0xEE8 PUSH2 0x1D4A JUMP JUMPDEST JUMPDEST SWAP1 PUSH0 MSTORE PUSH1 0x20 PUSH0 KECCAK256 SWAP1 PUSH1 0x7 MUL ADD PUSH1 0x5 ADD PUSH0 DUP2 SLOAD DUP1 SWAP3 SWAP2 SWAP1 PUSH2 0xF08 SWAP1 PUSH2 0x1EE1 JUMP JUMPDEST SWAP2 SWAP1 POP SSTORE POP PUSH1 0x1 PUSH1 0x5 PUSH0 DUP5 DUP2 MSTORE PUSH1 0x20 ADD SWAP1 DUP2 MSTORE PUSH1 0x20 ADD PUSH0 KECCAK256 PUSH0 CALLER PUSH20 0xFFFFFFFFFFFFFFFFFFFFFFFFFFFFFFFFFFFFFFFF AND PUSH20 0xFFFFFFFFFFFFFFFFFFFFFFFFFFFFFFFFFFFFFFFF AND DUP2 MSTORE PUSH1 0x20 ADD SWAP1 DUP2 MSTORE PUSH1 0x20 ADD PUSH0 KECCAK256 PUSH0 DUP4 DUP2 MSTORE PUSH1 0x20 ADD SWAP1 DUP2 MSTORE PUSH1 0x20 ADD PUSH0 KECCAK256 PUSH0 PUSH2 0x100 EXP DUP2 SLOAD DUP2 PUSH1 0xFF MUL NOT AND SWAP1 DUP4 ISZERO ISZERO MUL OR SWAP1 SSTORE POP PUSH1 0x3 PUSH0 DUP4 DUP2 MSTORE PUSH1 0x20 ADD SWAP1 DUP2 MSTORE PUSH1 0x20 ADD PUSH0 KECCAK256 DUP2 DUP2 SLOAD DUP2 LT PUSH2 0xFA3 JUMPI PUSH2 0xFA2 PUSH2 0x1D4A JUMP JUMPDEST JUMPDEST SWAP1 PUSH0 MSTORE PUSH1 0x20 PUSH0 KECCAK256 SWAP1 PUSH1 0x7 MUL ADD PUSH0 ADD SLOAD DUP3 PUSH32 0xA718B91703005C7FF3C85EF47CB2B96B8BF518A0934598A085E074A84AD79BA1 CALLER PUSH0 PUSH1 0x40 MLOAD PUSH2 0xFE4 SWAP3 SWAP2 SWAP1 PUSH2 0x203A JUMP JUMPDEST PUSH1 0x40 MLOAD DUP1 SWAP2 SUB SWAP1 LOG3 POP POP JUMP JUMPDEST PUSH0 PUSH0 SHL PUSH1 0x2 PUSH0 DUP4 DUP2 MSTORE PUSH1 0x20 ADD SWAP1 DUP2 MSTORE PUSH1 0x20 ADD PUSH0 KECCAK256 PUSH0 ADD SLOAD SUB PUSH2 0x1047 JUMPI PUSH1 0x40 MLOAD PUSH32 0x8C379A000000000000000000000000000000000000000000000000000000000 DUP2 MSTORE PUSH1 0x4 ADD PUSH2 0x103E SWAP1 PUSH2 0x1E2E JUMP JUMPDEST PUSH1 0x40 MLOAD DUP1 SWAP2 SUB SWAP1 REVERT JUMPDEST PUSH1 0x4 PUSH0 DUP3 DUP2 MSTORE PUSH1 0x20 ADD SWAP1 DUP2 MSTORE PUSH1 0x20 ADD PUSH0 KECCAK256 PUSH0 CALLER PUSH20 0xFFFFFFFFFFFFFFFFFFFFFFFFFFFFFFFFFFFFFFFF AND PUSH20 0xFFFFFFFFFFFFFFFFFFFFFFFFFFFFFFFFFFFFFFFF AND DUP2 MSTORE PUSH1 0x20 ADD SWAP1 DUP2 MSTORE PUSH1 0x20 ADD PUSH0 KECCAK256 PUSH0 SWAP1 SLOAD SWAP1 PUSH2 0x100 EXP SWAP1 DIV PUSH1 0xFF AND ISZERO PUSH2 0x10E0 JUMPI PUSH1 0x40 MLOAD PUSH32 0x8C379A000000000000000000000000000000000000000000000000000000000 DUP2 MSTORE PUSH1 0x4 ADD PUSH2 0x10D7 SWAP1 PUSH2 0x1E96 JUMP JUMPDEST PUSH1 0x40 MLOAD DUP1 SWAP2 SUB SWAP1 REVERT JUMPDEST PUSH1 0x2 PUSH0 DUP3 DUP2 MSTORE PUSH1 0x20 ADD SWAP1 DUP2 MSTORE PUSH1 0x20 ADD PUSH0 KECCAK256 PUSH1 0x4 ADD PUSH0 DUP2 SLOAD DUP1 SWAP3 SWAP2 SWAP1 PUSH2 0x1104 SWAP1 PUSH2 0x1EE1 JUMP JUMPDEST SWAP2 SWAP1 POP SSTORE POP PUSH1 0x1 PUSH1 0x4 PUSH0 DUP4 DUP2 MSTORE PUSH1 0x20 ADD SWAP1 DUP2 MSTORE PUSH1 0x20 ADD PUSH0 KECCAK256 PUSH0 CALLER PUSH20 0xFFFFFFFFFFFFFFFFFFFFFFFFFFFFFFFFFFFFFFFF AND PUSH20 0xFFFFFFFFFFFFFFFFFFFFFFFFFFFFFFFFFFFFFFFF AND DUP2 MSTORE PUSH1 0x20 ADD SWAP1 DUP2 MSTORE PUSH1 0x20 ADD PUSH0 KECCAK256 PUSH0 PUSH2 0x100 EXP DUP2 SLOAD DUP2 PUSH1 0xFF MUL NOT AND SWAP1 DUP4 ISZERO ISZERO MUL OR SWAP1 SSTORE POP CALLER PUSH20 0xFFFFFFFFFFFFFFFFFFFFFFFFFFFFFFFFFFFFFFFF AND DUP2 PUSH32 0xA7E4C5082F867EA22A45A95C2043209B9CE83D70CA31CCB947E67592EA14C4B1 PUSH1 0x1 PUSH1 0x40 MLOAD PUSH2 0x11B5 SWAP2 SWAP1 PUSH2 0x1F42 JUMP JUMPDEST PUSH1 0x40 MLOAD DUP1 SWAP2 SUB SWAP1 LOG3 POP JUMP JUMPDEST PUSH1 0x20 DUP4 MLOAD GT ISZERO PUSH2 0x1205 JUMPI PUSH1 0x40 MLOAD PUSH32 0x8C379A000000000000000000000000000000000000000000000000000000000 DUP2 MSTORE PUSH1 0x4 ADD PUSH2 0x11FC SWAP1 PUSH2 0x24F1 JUMP JUMPDEST PUSH1 0x40 MLOAD DUP1 SWAP2 SUB SWAP1 REVERT JUMPDEST PUSH0 CALLER TIMESTAMP DUP5 DUP5 PUSH1 0x40 MLOAD PUSH1 0x20 ADD PUSH2 0x121D SWAP5 SWAP4 SWAP3 SWAP2 SWAP1 PUSH2 0x250F JUMP JUMPDEST PUSH1 0x40 MLOAD PUSH1 0x20 DUP2 DUP4 SUB SUB DUP2 MSTORE SWAP1 PUSH1 0x40 MSTORE DUP1 MLOAD SWAP1 PUSH1 0x20 ADD KECCAK256 SWAP1 POP PUSH0 PUSH1 0x40 MLOAD DUP1 PUSH1 0xE0 ADD PUSH1 0x40 MSTORE DUP1 DUP4 DUP2 MSTORE PUSH1 0x20 ADD DUP7 DUP2 MSTORE PUSH1 0x20 ADD DUP6 DUP2 MSTORE PUSH1 0x20 ADD DUP5 DUP2 MSTORE PUSH1 0x20 ADD PUSH0 DUP2 MSTORE PUSH1 0x20 ADD PUSH0 DUP2 MSTORE PUSH1 0x20 ADD TIMESTAMP DUP2 MSTORE POP SWAP1 POP PUSH0 DUP3 SWAP1 DUP1 PUSH1 0x1 DUP2 SLOAD ADD DUP1 DUP3 SSTORE DUP1 SWAP2 POP POP PUSH1 0x1 SWAP1 SUB SWAP1 PUSH0 MSTORE PUSH1 0x20 PUSH0 KECCAK256 ADD PUSH0 SWAP1 SWAP2 SWAP1 SWAP2 SWAP1 SWAP2 POP SSTORE PUSH1 0x1 PUSH0 CALLER PUSH20 0xFFFFFFFFFFFFFFFFFFFFFFFFFFFFFFFFFFFFFFFF AND PUSH20 0xFFFFFFFFFFFFFFFFFFFFFFFFFFFFFFFFFFFFFFFF AND DUP2 MSTORE PUSH1 0x20 ADD SWAP1 DUP2 MSTORE PUSH1 0x20 ADD PUSH0 KECCAK256 DUP3 SWAP1 DUP1 PUSH1 0x1 DUP2 SLOAD ADD DUP1 DUP3 SSTORE DUP1 SWAP2 POP POP PUSH1 0x1 SWAP1 SUB SWAP1 PUSH0 MSTORE PUSH1 0x20 PUSH0 KECCAK256 ADD PUSH0 SWAP1 SWAP2 SWAP1 SWAP2 SWAP1 SWAP2 POP SSTORE DUP1 PUSH1 0x2 PUSH0 DUP5 DUP2 MSTORE PUSH1 0x20 ADD SWAP1 DUP2 MSTORE PUSH1 0x20 ADD PUSH0 KECCAK256 PUSH0 DUP3 ADD MLOAD DUP2 PUSH0 ADD SSTORE PUSH1 0x20 DUP3 ADD MLOAD DUP2 PUSH1 0x1 ADD SWAP1 DUP2 PUSH2 0x1320 SWAP2 SWAP1 PUSH2 0x2340 JUMP JUMPDEST POP PUSH1 0x40 DUP3 ADD MLOAD DUP2 PUSH1 0x2 ADD SWAP1 DUP2 PUSH2 0x1336 SWAP2 SWAP1 PUSH2 0x2340 JUMP JUMPDEST POP PUSH1 0x60 DUP3 ADD MLOAD DUP2 PUSH1 0x3 ADD SWAP1 DUP2 PUSH2 0x134C SWAP2 SWAP1 PUSH2 0x2340 JUMP JUMPDEST POP PUSH1 0x80 DUP3 ADD MLOAD DUP2 PUSH1 0x4 ADD SSTORE PUSH1 0xA0 DUP3 ADD MLOAD DUP2 PUSH1 0x5 ADD SSTORE PUSH1 0xC0 DUP3 ADD MLOAD DUP2 PUSH1 0x6 ADD SSTORE SWAP1 POP POP DUP2 PUSH32 0x17F34748F078A06D3C7C034EF1CDF60A8B2BAF4592DF676D3A2AE61596619F98 DUP6 DUP8 TIMESTAMP PUSH1 0x40 MLOAD PUSH2 0x13A2 SWAP4 SWAP3 SWAP2 SWAP1 PUSH2 0x2554 JUMP JUMPDEST PUSH1 0x40 MLOAD DUP1 SWAP2 SUB SWAP1 LOG2 POP POP POP POP POP JUMP JUMPDEST PUSH1 0x60 PUSH1 0x3 PUSH0 DUP4 DUP2 MSTORE PUSH1 0x20 ADD SWAP1 DUP2 MSTORE PUSH1 0x20 ADD PUSH0 KECCAK256 DUP1 SLOAD DUP1 PUSH1 0x20 MUL PUSH1 0x20 ADD PUSH1 0x40 MLOAD SWAP1 DUP2 ADD PUSH1 0x40 MSTORE DUP1 SWAP3 SWAP2 SWAP1 DUP2 DUP2 MSTORE PUSH1 0x20 ADD PUSH0 SWAP1 JUMPDEST DUP3 DUP3 LT ISZERO PUSH2 0x15AF JUMPI DUP4 DUP3 SWAP1 PUSH0 MSTORE PUSH1 0x20 PUSH0 KECCAK256 SWAP1 PUSH1 0x7 MUL ADD PUSH1 0x40 MLOAD DUP1 PUSH1 0xE0 ADD PUSH1 0x40 MSTORE SWAP1 DUP2 PUSH0 DUP3 ADD SLOAD DUP2 MSTORE PUSH1 0x20 ADD PUSH1 0x1 DUP3 ADD PUSH0 SWAP1 SLOAD SWAP1 PUSH2 0x100 EXP SWAP1 DIV PUSH20 0xFFFFFFFFFFFFFFFFFFFFFFFFFFFFFFFFFFFFFFFF AND PUSH20 0xFFFFFFFFFFFFFFFFFFFFFFFFFFFFFFFFFFFFFFFF AND PUSH20 0xFFFFFFFFFFFFFFFFFFFFFFFFFFFFFFFFFFFFFFFF AND DUP2 MSTORE PUSH1 0x20 ADD PUSH1 0x2 DUP3 ADD DUP1 SLOAD PUSH2 0x1472 SWAP1 PUSH2 0x1DA4 JUMP JUMPDEST DUP1 PUSH1 0x1F ADD PUSH1 0x20 DUP1 SWAP2 DIV MUL PUSH1 0x20 ADD PUSH1 0x40 MLOAD SWAP1 DUP2 ADD PUSH1 0x40 MSTORE DUP1 SWAP3 SWAP2 SWAP1 DUP2 DUP2 MSTORE PUSH1 0x20 ADD DUP3 DUP1 SLOAD PUSH2 0x149E SWAP1 PUSH2 0x1DA4 JUMP JUMPDEST DUP1 ISZERO PUSH2 0x14E9 JUMPI DUP1 PUSH1 0x1F LT PUSH2 0x14C0 JUMPI PUSH2 0x100 DUP1 DUP4 SLOAD DIV MUL DUP4 MSTORE SWAP2 PUSH1 0x20 ADD SWAP2 PUSH2 0x14E9 JUMP JUMPDEST DUP3 ADD SWAP2 SWAP1 PUSH0 MSTORE PUSH1 0x20 PUSH0 KECCAK256 SWAP1 JUMPDEST DUP2 SLOAD DUP2 MSTORE SWAP1 PUSH1 0x1 ADD SWAP1 PUSH1 0x20 ADD DUP1 DUP4 GT PUSH2 0x14CC JUMPI DUP3 SWAP1 SUB PUSH1 0x1F AND DUP3 ADD SWAP2 JUMPDEST POP POP POP POP POP DUP2 MSTORE PUSH1 0x20 ADD PUSH1 0x3 DUP3 ADD DUP1 SLOAD PUSH2 0x1502 SWAP1 PUSH2 0x1DA4 JUMP JUMPDEST DUP1 PUSH1 0x1F ADD PUSH1 0x20 DUP1 SWAP2 DIV MUL PUSH1 0x20 ADD PUSH1 0x40 MLOAD SWAP1 DUP2 ADD PUSH1 0x40 MSTORE DUP1 SWAP3 SWAP2 SWAP1 DUP2 DUP2 MSTORE PUSH1 0x20 ADD DUP3 DUP1 SLOAD PUSH2 0x152E SWAP1 PUSH2 0x1DA4 JUMP JUMPDEST DUP1 ISZERO PUSH2 0x1579 JUMPI DUP1 PUSH1 0x1F LT PUSH2 0x1550 JUMPI PUSH2 0x100 DUP1 DUP4 SLOAD DIV MUL DUP4 MSTORE SWAP2 PUSH1 0x20 ADD SWAP2 PUSH2 0x1579 JUMP JUMPDEST DUP3 ADD SWAP2 SWAP1 PUSH0 MSTORE PUSH1 0x20 PUSH0 KECCAK256 SWAP1 JUMPDEST DUP2 SLOAD DUP2 MSTORE SWAP1 PUSH1 0x1 ADD SWAP1 PUSH1 0x20 ADD DUP1 DUP4 GT PUSH2 0x155C JUMPI DUP3 SWAP1 SUB PUSH1 0x1F AND DUP3 ADD SWAP2 JUMPDEST POP POP POP POP POP DUP2 MSTORE PUSH1 0x20 ADD PUSH1 0x4 DUP3 ADD SLOAD DUP2 MSTORE PUSH1 0x20 ADD PUSH1 0x5 DUP3 ADD SLOAD DUP2 MSTORE PUSH1 0x20 ADD PUSH1 0x6 DUP3 ADD SLOAD DUP2 MSTORE POP POP DUP2 MSTORE PUSH1 0x20 ADD SWAP1 PUSH1 0x1 ADD SWAP1 PUSH2 0x13E3 JUMP JUMPDEST POP POP POP POP SWAP1 POP SWAP2 SWAP1 POP JUMP JUMPDEST PUSH1 0x40 MLOAD DUP1 PUSH1 0xE0 ADD PUSH1 0x40 MSTORE DUP1 PUSH0 DUP2 MSTORE PUSH1 0x20 ADD PUSH1 0x60 DUP2 MSTORE PUSH1 0x20 ADD PUSH1 0x60 DUP2 MSTORE PUSH1 0x20 ADD PUSH1 0x60 DUP2 MSTORE PUSH1 0x20 ADD PUSH0 DUP2 MSTORE PUSH1 0x20 ADD PUSH0 DUP2 MSTORE PUSH1 0x20 ADD PUSH0 DUP2 MSTORE POP SWAP1 JUMP JUMPDEST PUSH0 PUSH1 0x40 MLOAD SWAP1 POP SWAP1 JUMP JUMPDEST PUSH0 PUSH0 REVERT JUMPDEST PUSH0 PUSH0 REVERT JUMPDEST PUSH0 PUSH20 0xFFFFFFFFFFFFFFFFFFFFFFFFFFFFFFFFFFFFFFFF DUP3 AND SWAP1 POP SWAP2 SWAP1 POP JUMP JUMPDEST PUSH0 PUSH2 0x162D DUP3 PUSH2 0x1604 JUMP JUMPDEST SWAP1 POP SWAP2 SWAP1 POP JUMP JUMPDEST PUSH2 0x163D DUP2 PUSH2 0x1623 JUMP JUMPDEST DUP2 EQ PUSH2 0x1647 JUMPI PUSH0 PUSH0 REVERT JUMPDEST POP JUMP JUMPDEST PUSH0 DUP2 CALLDATALOAD SWAP1 POP PUSH2 0x1658 DUP2 PUSH2 0x1634 JUMP JUMPDEST SWAP3 SWAP2 POP POP JUMP JUMPDEST PUSH0 PUSH1 0x20 DUP3 DUP5 SUB SLT ISZERO PUSH2 0x1673 JUMPI PUSH2 0x1672 PUSH2 0x15FC JUMP JUMPDEST JUMPDEST PUSH0 PUSH2 0x1680 DUP5 DUP3 DUP6 ADD PUSH2 0x164A JUMP JUMPDEST SWAP2 POP POP SWAP3 SWAP2 POP POP JUMP JUMPDEST PUSH0 DUP2 MLOAD SWAP1 POP SWAP2 SWAP1 POP JUMP JUMPDEST PUSH0 DUP3 DUP3 MSTORE PUSH1 0x20 DUP3 ADD SWAP1 POP SWAP3 SWAP2 POP POP JUMP JUMPDEST PUSH0 DUP2 SWAP1 POP PUSH1 0x20 DUP3 ADD SWAP1 POP SWAP2 SWAP1 POP JUMP JUMPDEST PUSH0 DUP2 SWAP1 POP SWAP2 SWAP1 POP JUMP JUMPDEST PUSH2 0x16C4 DUP2 PUSH2 0x16B2 JUMP JUMPDEST DUP3 MSTORE POP POP JUMP JUMPDEST PUSH0 DUP2 MLOAD SWAP1 POP SWAP2 SWAP1 POP JUMP JUMPDEST PUSH0 DUP3 DUP3 MSTORE PUSH1 0x20 DUP3 ADD SWAP1 POP SWAP3 SWAP2 POP POP JUMP JUMPDEST DUP3 DUP2 DUP4 MCOPY PUSH0 DUP4 DUP4 ADD MSTORE POP POP POP JUMP JUMPDEST PUSH0 PUSH1 0x1F NOT PUSH1 0x1F DUP4 ADD AND SWAP1 POP SWAP2 SWAP1 POP JUMP JUMPDEST PUSH0 PUSH2 0x170C DUP3 PUSH2 0x16CA JUMP JUMPDEST PUSH2 0x1716 DUP2 DUP6 PUSH2 0x16D4 JUMP JUMPDEST SWAP4 POP PUSH2 0x1726 DUP2 DUP6 PUSH1 0x20 DUP7 ADD PUSH2 0x16E4 JUMP JUMPDEST PUSH2 0x172F DUP2 PUSH2 0x16F2 JUMP JUMPDEST DUP5 ADD SWAP2 POP POP SWAP3 SWAP2 POP POP JUMP JUMPDEST PUSH0 DUP2 SWAP1 POP SWAP2 SWAP1 POP JUMP JUMPDEST PUSH2 0x174C DUP2 PUSH2 0x173A JUMP JUMPDEST DUP3 MSTORE POP POP JUMP JUMPDEST PUSH0 PUSH1 0xE0 DUP4 ADD PUSH0 DUP4 ADD MLOAD PUSH2 0x1767 PUSH0 DUP7 ADD DUP3 PUSH2 0x16BB JUMP JUMPDEST POP PUSH1 0x20 DUP4 ADD MLOAD DUP5 DUP3 SUB PUSH1 0x20 DUP7 ADD MSTORE PUSH2 0x177F DUP3 DUP3 PUSH2 0x1702 JUMP JUMPDEST SWAP2 POP POP PUSH1 0x40 DUP4 ADD MLOAD DUP5 DUP3 SUB PUSH1 0x40 DUP7 ADD MSTORE PUSH2 0x1799 DUP3 DUP3 PUSH2 0x1702 JUMP JUMPDEST SWAP2 POP POP PUSH1 0x60 DUP4 ADD MLOAD DUP5 DUP3 SUB PUSH1 0x60 DUP7 ADD MSTORE PUSH2 0x17B3 DUP3 DUP3 PUSH2 0x1702 JUMP JUMPDEST SWAP2 POP POP PUSH1 0x80 DUP4 ADD MLOAD PUSH2 0x17C8 PUSH1 0x80 DUP7 ADD DUP3 PUSH2 0x1743 JUMP JUMPDEST POP PUSH1 0xA0 DUP4 ADD MLOAD PUSH2 0x17DB PUSH1 0xA0 DUP7 ADD DUP3 PUSH2 0x1743 JUMP JUMPDEST POP PUSH1 0xC0 DUP4 ADD MLOAD PUSH2 0x17EE PUSH1 0xC0 DUP7 ADD DUP3 PUSH2 0x1743 JUMP JUMPDEST POP DUP1 SWAP2 POP POP SWAP3 SWAP2 POP POP JUMP JUMPDEST PUSH0 PUSH2 0x1804 DUP4 DUP4 PUSH2 0x1752 JUMP JUMPDEST SWAP1 POP SWAP3 SWAP2 POP POP JUMP JUMPDEST PUSH0 PUSH1 0x20 DUP3 ADD SWAP1 POP SWAP2 SWAP1 POP JUMP JUMPDEST PUSH0 PUSH2 0x1822 DUP3 PUSH2 0x1689 JUMP JUMPDEST PUSH2 0x182C DUP2 DUP6 PUSH2 0x1693 JUMP JUMPDEST SWAP4 POP DUP4 PUSH1 0x20 DUP3 MUL DUP6 ADD PUSH2 0x183E DUP6 PUSH2 0x16A3 JUMP JUMPDEST DUP1 PUSH0 JUMPDEST DUP6 DUP2 LT ISZERO PUSH2 0x1879 JUMPI DUP5 DUP5 SUB DUP10 MSTORE DUP2 MLOAD PUSH2 0x185A DUP6 DUP3 PUSH2 0x17F9 JUMP JUMPDEST SWAP5 POP PUSH2 0x1865 DUP4 PUSH2 0x180C JUMP JUMPDEST SWAP3 POP PUSH1 0x20 DUP11 ADD SWAP10 POP POP PUSH1 0x1 DUP2 ADD SWAP1 POP PUSH2 0x1841 JUMP JUMPDEST POP DUP3 SWAP8 POP DUP8 SWAP6 POP POP POP POP POP POP SWAP3 SWAP2 POP POP JUMP JUMPDEST PUSH0 PUSH1 0x20 DUP3 ADD SWAP1 POP DUP2 DUP2 SUB PUSH0 DUP4 ADD MSTORE PUSH2 0x18A3 DUP2 DUP5 PUSH2 0x1818 JUMP JUMPDEST SWAP1 POP SWAP3 SWAP2 POP POP JUMP JUMPDEST PUSH2 0x18B4 DUP2 PUSH2 0x16B2 JUMP JUMPDEST DUP2 EQ PUSH2 0x18BE JUMPI PUSH0 PUSH0 REVERT JUMPDEST POP JUMP JUMPDEST PUSH0 DUP2 CALLDATALOAD SWAP1 POP PUSH2 0x18CF DUP2 PUSH2 0x18AB JUMP JUMPDEST SWAP3 SWAP2 POP POP JUMP JUMPDEST PUSH0 PUSH1 0x20 DUP3 DUP5 SUB SLT ISZERO PUSH2 0x18EA JUMPI PUSH2 0x18E9 PUSH2 0x15FC JUMP JUMPDEST JUMPDEST PUSH0 PUSH2 0x18F7 DUP5 DUP3 DUP6 ADD PUSH2 0x18C1 JUMP JUMPDEST SWAP2 POP POP SWAP3 SWAP2 POP POP JUMP JUMPDEST PUSH2 0x1909 DUP2 PUSH2 0x173A JUMP JUMPDEST DUP2 EQ PUSH2 0x1913 JUMPI PUSH0 PUSH0 REVERT JUMPDEST POP JUMP JUMPDEST PUSH0 DUP2 CALLDATALOAD SWAP1 POP PUSH2 0x1924 DUP2 PUSH2 0x1900 JUMP JUMPDEST SWAP3 SWAP2 POP POP JUMP JUMPDEST PUSH0 PUSH0 PUSH1 0x40 DUP4 DUP6 SUB SLT ISZERO PUSH2 0x1940 JUMPI PUSH2 0x193F PUSH2 0x15FC JUMP JUMPDEST JUMPDEST PUSH0 PUSH2 0x194D DUP6 DUP3 DUP7 ADD PUSH2 0x18C1 JUMP JUMPDEST SWAP3 POP POP PUSH1 0x20 PUSH2 0x195E DUP6 DUP3 DUP7 ADD PUSH2 0x1916 JUMP JUMPDEST SWAP2 POP POP SWAP3 POP SWAP3 SWAP1 POP JUMP JUMPDEST PUSH0 PUSH0 REVERT JUMPDEST PUSH0 PUSH0 REVERT JUMPDEST PUSH32 0x4E487B7100000000000000000000000000000000000000000000000000000000 PUSH0 MSTORE PUSH1 0x41 PUSH1 0x4 MSTORE PUSH1 0x24 PUSH0 REVERT JUMPDEST PUSH2 0x19A6 DUP3 PUSH2 0x16F2 JUMP JUMPDEST DUP2 ADD DUP2 DUP2 LT PUSH8 0xFFFFFFFFFFFFFFFF DUP3 GT OR ISZERO PUSH2 0x19C5 JUMPI PUSH2 0x19C4 PUSH2 0x1970 JUMP JUMPDEST JUMPDEST DUP1 PUSH1 0x40 MSTORE POP POP POP JUMP JUMPDEST PUSH0 PUSH2 0x19D7 PUSH2 0x15F3 JUMP JUMPDEST SWAP1 POP PUSH2 0x19E3 DUP3 DUP3 PUSH2 0x199D JUMP JUMPDEST SWAP2 SWAP1 POP JUMP JUMPDEST PUSH0 PUSH8 0xFFFFFFFFFFFFFFFF DUP3 GT ISZERO PUSH2 0x1A02 JUMPI PUSH2 0x1A01 PUSH2 0x1970 JUMP JUMPDEST JUMPDEST PUSH2 0x1A0B DUP3 PUSH2 0x16F2 JUMP JUMPDEST SWAP1 POP PUSH1 0x20 DUP2 ADD SWAP1 POP SWAP2 SWAP1 POP JUMP JUMPDEST DUP3 DUP2 DUP4 CALLDATACOPY PUSH0 DUP4 DUP4 ADD MSTORE POP POP POP JUMP JUMPDEST PUSH0 PUSH2 0x1A38 PUSH2 0x1A33 DUP5 PUSH2 0x19E8 JUMP JUMPDEST PUSH2 0x19CE JUMP JUMPDEST SWAP1 POP DUP3 DUP2 MSTORE PUSH1 0x20 DUP2 ADD DUP5 DUP5 DUP5 ADD GT ISZERO PUSH2 0x1A54 JUMPI PUSH2 0x1A53 PUSH2 0x196C JUMP JUMPDEST JUMPDEST PUSH2 0x1A5F DUP5 DUP3 DUP6 PUSH2 0x1A18 JUMP JUMPDEST POP SWAP4 SWAP3 POP POP POP JUMP JUMPDEST PUSH0 DUP3 PUSH1 0x1F DUP4 ADD SLT PUSH2 0x1A7B JUMPI PUSH2 0x1A7A PUSH2 0x1968 JUMP JUMPDEST JUMPDEST DUP2 CALLDATALOAD PUSH2 0x1A8B DUP5 DUP3 PUSH1 0x20 DUP7 ADD PUSH2 0x1A26 JUMP JUMPDEST SWAP2 POP POP SWAP3 SWAP2 POP POP JUMP JUMPDEST PUSH0 PUSH0 PUSH0 PUSH1 0x60 DUP5 DUP7 SUB SLT ISZERO PUSH2 0x1AAB JUMPI PUSH2 0x1AAA PUSH2 0x15FC JUMP JUMPDEST JUMPDEST PUSH0 PUSH2 0x1AB8 DUP7 DUP3 DUP8 ADD PUSH2 0x18C1 JUMP JUMPDEST SWAP4 POP POP PUSH1 0x20 DUP5 ADD CALLDATALOAD PUSH8 0xFFFFFFFFFFFFFFFF DUP2 GT ISZERO PUSH2 0x1AD9 JUMPI PUSH2 0x1AD8 PUSH2 0x1600 JUMP JUMPDEST JUMPDEST PUSH2 0x1AE5 DUP7 DUP3 DUP8 ADD PUSH2 0x1A67 JUMP JUMPDEST SWAP3 POP POP PUSH1 0x40 DUP5 ADD CALLDATALOAD PUSH8 0xFFFFFFFFFFFFFFFF DUP2 GT ISZERO PUSH2 0x1B06 JUMPI PUSH2 0x1B05 PUSH2 0x1600 JUMP JUMPDEST JUMPDEST PUSH2 0x1B12 DUP7 DUP3 DUP8 ADD PUSH2 0x1A67 JUMP JUMPDEST SWAP2 POP POP SWAP3 POP SWAP3 POP SWAP3 JUMP JUMPDEST PUSH0 PUSH0 PUSH0 PUSH1 0x60 DUP5 DUP7 SUB SLT ISZERO PUSH2 0x1B33 JUMPI PUSH2 0x1B32 PUSH2 0x15FC JUMP JUMPDEST JUMPDEST PUSH0 DUP5 ADD CALLDATALOAD PUSH8 0xFFFFFFFFFFFFFFFF DUP2 GT ISZERO PUSH2 0x1B50 JUMPI PUSH2 0x1B4F PUSH2 0x1600 JUMP JUMPDEST JUMPDEST PUSH2 0x1B5C DUP7 DUP3 DUP8 ADD PUSH2 0x1A67 JUMP JUMPDEST SWAP4 POP POP PUSH1 0x20 DUP5 ADD CALLDATALOAD PUSH8 0xFFFFFFFFFFFFFFFF DUP2 GT ISZERO PUSH2 0x1B7D JUMPI PUSH2 0x1B7C PUSH2 0x1600 JUMP JUMPDEST JUMPDEST PUSH2 0x1B89 DUP7 DUP3 DUP8 ADD PUSH2 0x1A67 JUMP JUMPDEST SWAP3 POP POP PUSH1 0x40 DUP5 ADD CALLDATALOAD PUSH8 0xFFFFFFFFFFFFFFFF DUP2 GT ISZERO PUSH2 0x1BAA JUMPI PUSH2 0x1BA9 PUSH2 0x1600 JUMP JUMPDEST JUMPDEST PUSH2 0x1BB6 DUP7 DUP3 DUP8 ADD PUSH2 0x1A67 JUMP JUMPDEST SWAP2 POP POP SWAP3 POP SWAP3 POP SWAP3 JUMP JUMPDEST PUSH0 DUP2 MLOAD SWAP1 POP SWAP2 SWAP1 POP JUMP JUMPDEST PUSH0 DUP3 DUP3 MSTORE PUSH1 0x20 DUP3 ADD SWAP1 POP SWAP3 SWAP2 POP POP JUMP JUMPDEST PUSH0 DUP2 SWAP1 POP PUSH1 0x20 DUP3 ADD SWAP1 POP SWAP2 SWAP1 POP JUMP JUMPDEST PUSH2 0x1BF2 DUP2 PUSH2 0x1623 JUMP JUMPDEST DUP3 MSTORE POP POP JUMP JUMPDEST PUSH0 PUSH1 0xE0 DUP4 ADD PUSH0 DUP4 ADD MLOAD PUSH2 0x1C0D PUSH0 DUP7 ADD DUP3 PUSH2 0x16BB JUMP JUMPDEST POP PUSH1 0x20 DUP4 ADD MLOAD PUSH2 0x1C20 PUSH1 0x20 DUP7 ADD DUP3 PUSH2 0x1BE9 JUMP JUMPDEST POP PUSH1 0x40 DUP4 ADD MLOAD DUP5 DUP3 SUB PUSH1 0x40 DUP7 ADD MSTORE PUSH2 0x1C38 DUP3 DUP3 PUSH2 0x1702 JUMP JUMPDEST SWAP2 POP POP PUSH1 0x60 DUP4 ADD MLOAD DUP5 DUP3 SUB PUSH1 0x60 DUP7 ADD MSTORE PUSH2 0x1C52 DUP3 DUP3 PUSH2 0x1702 JUMP JUMPDEST SWAP2 POP POP PUSH1 0x80 DUP4 ADD MLOAD PUSH2 0x1C67 PUSH1 0x80 DUP7 ADD DUP3 PUSH2 0x1743 JUMP JUMPDEST POP PUSH1 0xA0 DUP4 ADD MLOAD PUSH2 0x1C7A PUSH1 0xA0 DUP7 ADD DUP3 PUSH2 0x1743 JUMP JUMPDEST POP PUSH1 0xC0 DUP4 ADD MLOAD PUSH2 0x1C8D PUSH1 0xC0 DUP7 ADD DUP3 PUSH2 0x1743 JUMP JUMPDEST POP DUP1 SWAP2 POP POP SWAP3 SWAP2 POP POP JUMP JUMPDEST PUSH0 PUSH2 0x1CA3 DUP4 DUP4 PUSH2 0x1BF8 JUMP JUMPDEST SWAP1 POP SWAP3 SWAP2 POP POP JUMP JUMPDEST PUSH0 PUSH1 0x20 DUP3 ADD SWAP1 POP SWAP2 SWAP1 POP JUMP JUMPDEST PUSH0 PUSH2 0x1CC1 DUP3 PUSH2 0x1BC0 JUMP JUMPDEST PUSH2 0x1CCB DUP2 DUP6 PUSH2 0x1BCA JUMP JUMPDEST SWAP4 POP DUP4 PUSH1 0x20 DUP3 MUL DUP6 ADD PUSH2 0x1CDD DUP6 PUSH2 0x1BDA JUMP JUMPDEST DUP1 PUSH0 JUMPDEST DUP6 DUP2 LT ISZERO PUSH2 0x1D18 JUMPI DUP5 DUP5 SUB DUP10 MSTORE DUP2 MLOAD PUSH2 0x1CF9 DUP6 DUP3 PUSH2 0x1C98 JUMP JUMPDEST SWAP5 POP PUSH2 0x1D04 DUP4 PUSH2 0x1CAB JUMP JUMPDEST SWAP3 POP PUSH1 0x20 DUP11 ADD SWAP10 POP POP PUSH1 0x1 DUP2 ADD SWAP1 POP PUSH2 0x1CE0 JUMP JUMPDEST POP DUP3 SWAP8 POP DUP8 SWAP6 POP POP POP POP POP POP SWAP3 SWAP2 POP POP JUMP JUMPDEST PUSH0 PUSH1 0x20 DUP3 ADD SWAP1 POP DUP2 DUP2 SUB PUSH0 DUP4 ADD MSTORE PUSH2 0x1D42 DUP2 DUP5 PUSH2 0x1CB7 JUMP JUMPDEST SWAP1 POP SWAP3 SWAP2 POP POP JUMP JUMPDEST PUSH32 0x4E487B7100000000000000000000000000000000000000000000000000000000 PUSH0 MSTORE PUSH1 0x32 PUSH1 0x4 MSTORE PUSH1 0x24 PUSH0 REVERT JUMPDEST PUSH32 0x4E487B7100000000000000000000000000000000000000000000000000000000 PUSH0 MSTORE PUSH1 0x22 PUSH1 0x4 MSTORE PUSH1 0x24 PUSH0 REVERT JUMPDEST PUSH0 PUSH1 0x2 DUP3 DIV SWAP1 POP PUSH1 0x1 DUP3 AND DUP1 PUSH2 0x1DBB JUMPI PUSH1 0x7F DUP3 AND SWAP2 POP JUMPDEST PUSH1 0x20 DUP3 LT DUP2 SUB PUSH2 0x1DCE JUMPI PUSH2 0x1DCD PUSH2 0x1D77 JUMP JUMPDEST JUMPDEST POP SWAP2 SWAP1 POP JUMP JUMPDEST PUSH0 DUP3 DUP3 MSTORE PUSH1 0x20 DUP3 ADD SWAP1 POP SWAP3 SWAP2 POP POP JUMP JUMPDEST PUSH32 0x506F737420646F6573206E6F742065786973742E000000000000000000000000 PUSH0 DUP3 ADD MSTORE POP JUMP JUMPDEST PUSH0 PUSH2 0x1E18 PUSH1 0x14 DUP4 PUSH2 0x1DD4 JUMP JUMPDEST SWAP2 POP PUSH2 0x1E23 DUP3 PUSH2 0x1DE4 JUMP JUMPDEST PUSH1 0x20 DUP3 ADD SWAP1 POP SWAP2 SWAP1 POP JUMP JUMPDEST PUSH0 PUSH1 0x20 DUP3 ADD SWAP1 POP DUP2 DUP2 SUB PUSH0 DUP4 ADD MSTORE PUSH2 0x1E45 DUP2 PUSH2 0x1E0C JUMP JUMPDEST SWAP1 POP SWAP2 SWAP1 POP JUMP JUMPDEST PUSH32 0x416C726561647920766F746564206F6E207468697320706F73742E0000000000 PUSH0 DUP3 ADD MSTORE POP JUMP JUMPDEST PUSH0 PUSH2 0x1E80 PUSH1 0x1B DUP4 PUSH2 0x1DD4 JUMP JUMPDEST SWAP2 POP PUSH2 0x1E8B DUP3 PUSH2 0x1E4C JUMP JUMPDEST PUSH1 0x20 DUP3 ADD SWAP1 POP SWAP2 SWAP1 POP JUMP JUMPDEST PUSH0 PUSH1 0x20 DUP3 ADD SWAP1 POP DUP2 DUP2 SUB PUSH0 DUP4 ADD MSTORE PUSH2 0x1EAD DUP2 PUSH2 0x1E74 JUMP JUMPDEST SWAP1 POP SWAP2 SWAP1 POP JUMP JUMPDEST PUSH32 0x4E487B7100000000000000000000000000000000000000000000000000000000 PUSH0 MSTORE PUSH1 0x11 PUSH1 0x4 MSTORE PUSH1 0x24 PUSH0 REVERT JUMPDEST PUSH0 PUSH2 0x1EEB DUP3 PUSH2 0x173A JUMP JUMPDEST SWAP2 POP PUSH32 0xFFFFFFFFFFFFFFFFFFFFFFFFFFFFFFFFFFFFFFFFFFFFFFFFFFFFFFFFFFFFFFFF DUP3 SUB PUSH2 0x1F1D JUMPI PUSH2 0x1F1C PUSH2 0x1EB4 JUMP JUMPDEST JUMPDEST PUSH1 0x1 DUP3 ADD SWAP1 POP SWAP2 SWAP1 POP JUMP JUMPDEST PUSH0 DUP2 ISZERO ISZERO SWAP1 POP SWAP2 SWAP1 POP JUMP JUMPDEST PUSH2 0x1F3C DUP2 PUSH2 0x1F28 JUMP JUMPDEST DUP3 MSTORE POP POP JUMP JUMPDEST PUSH0 PUSH1 0x20 DUP3 ADD SWAP1 POP PUSH2 0x1F55 PUSH0 DUP4 ADD DUP5 PUSH2 0x1F33 JUMP JUMPDEST SWAP3 SWAP2 POP POP JUMP JUMPDEST PUSH32 0x436F6D6D656E7420646F6573206E6F7420657869737400000000000000000000 PUSH0 DUP3 ADD MSTORE POP JUMP JUMPDEST PUSH0 PUSH2 0x1F8F PUSH1 0x16 DUP4 PUSH2 0x1DD4 JUMP JUMPDEST SWAP2 POP PUSH2 0x1F9A DUP3 PUSH2 0x1F5B JUMP JUMPDEST PUSH1 0x20 DUP3 ADD SWAP1 POP SWAP2 SWAP1 POP JUMP JUMPDEST PUSH0 PUSH1 0x20 DUP3 ADD SWAP1 POP DUP2 DUP2 SUB PUSH0 DUP4 ADD MSTORE PUSH2 0x1FBC DUP2 PUSH2 0x1F83 JUMP JUMPDEST SWAP1 POP SWAP2 SWAP1 POP JUMP JUMPDEST PUSH32 0x416C726561647920766F746564206F6E207468697320636F6D6D656E74000000 PUSH0 DUP3 ADD MSTORE POP JUMP JUMPDEST PUSH0 PUSH2 0x1FF7 PUSH1 0x1D DUP4 PUSH2 0x1DD4 JUMP JUMPDEST SWAP2 POP PUSH2 0x2002 DUP3 PUSH2 0x1FC3 JUMP JUMPDEST PUSH1 0x20 DUP3 ADD SWAP1 POP SWAP2 SWAP1 POP JUMP JUMPDEST PUSH0 PUSH1 0x20 DUP3 ADD SWAP1 POP DUP2 DUP2 SUB PUSH0 DUP4 ADD MSTORE PUSH2 0x2024 DUP2 PUSH2 0x1FEB JUMP JUMPDEST SWAP1 POP SWAP2 SWAP1 POP JUMP JUMPDEST PUSH2 0x2034 DUP2 PUSH2 0x1623 JUMP JUMPDEST DUP3 MSTORE POP POP JUMP JUMPDEST PUSH0 PUSH1 0x40 DUP3 ADD SWAP1 POP PUSH2 0x204D PUSH0 DUP4 ADD DUP6 PUSH2 0x202B JUMP JUMPDEST PUSH2 0x205A PUSH1 0x20 DUP4 ADD DUP5 PUSH2 0x1F33 JUMP JUMPDEST SWAP4 SWAP3 POP POP POP JUMP JUMPDEST PUSH32 0x436F6D6D656E746572206E616D6520746F6F206C6F6E67000000000000000000 PUSH0 DUP3 ADD MSTORE POP JUMP JUMPDEST PUSH0 PUSH2 0x2095 PUSH1 0x17 DUP4 PUSH2 0x1DD4 JUMP JUMPDEST SWAP2 POP PUSH2 0x20A0 DUP3 PUSH2 0x2061 JUMP JUMPDEST PUSH1 0x20 DUP3 ADD SWAP1 POP SWAP2 SWAP1 POP JUMP JUMPDEST PUSH0 PUSH1 0x20 DUP3 ADD SWAP1 POP DUP2 DUP2 SUB PUSH0 DUP4 ADD MSTORE PUSH2 0x20C2 DUP2 PUSH2 0x2089 JUMP JUMPDEST SWAP1 POP SWAP2 SWAP1 POP JUMP JUMPDEST PUSH0 DUP2 PUSH1 0x60 SHL SWAP1 POP SWAP2 SWAP1 POP JUMP JUMPDEST PUSH0 PUSH2 0x20DF DUP3 PUSH2 0x20C9 JUMP JUMPDEST SWAP1 POP SWAP2 SWAP1 POP JUMP JUMPDEST PUSH0 PUSH2 0x20F0 DUP3 PUSH2 0x20D5 JUMP JUMPDEST SWAP1 POP SWAP2 SWAP1 POP JUMP JUMPDEST PUSH2 0x2108 PUSH2 0x2103 DUP3 PUSH2 0x1623 JUMP JUMPDEST PUSH2 0x20E6 JUMP JUMPDEST DUP3 MSTORE POP POP JUMP JUMPDEST PUSH0 DUP2 SWAP1 POP SWAP2 SWAP1 POP JUMP JUMPDEST PUSH2 0x2128 PUSH2 0x2123 DUP3 PUSH2 0x173A JUMP JUMPDEST PUSH2 0x210E JUMP JUMPDEST DUP3 MSTORE POP POP JUMP JUMPDEST PUSH0 DUP2 SWAP1 POP SWAP3 SWAP2 POP POP JUMP JUMPDEST PUSH0 PUSH2 0x2142 DUP3 PUSH2 0x16CA JUMP JUMPDEST PUSH2 0x214C DUP2 DUP6 PUSH2 0x212E JUMP JUMPDEST SWAP4 POP PUSH2 0x215C DUP2 DUP6 PUSH1 0x20 DUP7 ADD PUSH2 0x16E4 JUMP JUMPDEST DUP1 DUP5 ADD SWAP2 POP POP SWAP3 SWAP2 POP POP JUMP JUMPDEST PUSH0 PUSH2 0x2173 DUP3 DUP7 PUSH2 0x20F7 JUMP JUMPDEST PUSH1 0x14 DUP3 ADD SWAP2 POP PUSH2 0x2183 DUP3 DUP6 PUSH2 0x2117 JUMP JUMPDEST PUSH1 0x20 DUP3 ADD SWAP2 POP PUSH2 0x2193 DUP3 DUP5 PUSH2 0x2138 JUMP JUMPDEST SWAP2 POP DUP2 SWAP1 POP SWAP5 SWAP4 POP POP POP POP JUMP JUMPDEST PUSH0 DUP2 SWAP1 POP DUP2 PUSH0 MSTORE PUSH1 0x20 PUSH0 KECCAK256 SWAP1 POP SWAP2 SWAP1 POP JUMP JUMPDEST PUSH0 PUSH1 0x20 PUSH1 0x1F DUP4 ADD DIV SWAP1 POP SWAP2 SWAP1 POP JUMP JUMPDEST PUSH0 DUP3 DUP3 SHL SWAP1 POP SWAP3 SWAP2 POP POP JUMP JUMPDEST PUSH0 PUSH1 0x8 DUP4 MUL PUSH2 0x21FC PUSH32 0xFFFFFFFFFFFFFFFFFFFFFFFFFFFFFFFFFFFFFFFFFFFFFFFFFFFFFFFFFFFFFFFF DUP3 PUSH2 0x21C1 JUMP JUMPDEST PUSH2 0x2206 DUP7 DUP4 PUSH2 0x21C1 JUMP JUMPDEST SWAP6 POP DUP1 NOT DUP5 AND SWAP4 POP DUP1 DUP7 AND DUP5 OR SWAP3 POP POP POP SWAP4 SWAP3 POP POP POP JUMP JUMPDEST PUSH0 DUP2 SWAP1 POP SWAP2 SWAP1 POP JUMP JUMPDEST PUSH0 PUSH2 0x2241 PUSH2 0x223C PUSH2 0x2237 DUP5 PUSH2 0x173A JUMP JUMPDEST PUSH2 0x221E JUMP JUMPDEST PUSH2 0x173A JUMP JUMPDEST SWAP1 POP SWAP2 SWAP1 POP JUMP JUMPDEST PUSH0 DUP2 SWAP1 POP SWAP2 SWAP1 POP JUMP JUMPDEST PUSH2 0x225A DUP4 PUSH2 0x2227 JUMP JUMPDEST PUSH2 0x226E PUSH2 0x2266 DUP3 PUSH2 0x2248 JUMP JUMPDEST DUP5 DUP5 SLOAD PUSH2 0x21CD JUMP JUMPDEST DUP3 SSTORE POP POP POP POP JUMP JUMPDEST PUSH0 PUSH0 SWAP1 POP SWAP1 JUMP JUMPDEST PUSH2 0x2285 PUSH2 0x2276 JUMP JUMPDEST PUSH2 0x2290 DUP2 DUP5 DUP5 PUSH2 0x2251 JUMP JUMPDEST POP POP POP JUMP JUMPDEST JUMPDEST DUP2 DUP2 LT ISZERO PUSH2 0x22B3 JUMPI PUSH2 0x22A8 PUSH0 DUP3 PUSH2 0x227D JUMP JUMPDEST PUSH1 0x1 DUP2 ADD SWAP1 POP PUSH2 0x2296 JUMP JUMPDEST POP POP JUMP JUMPDEST PUSH1 0x1F DUP3 GT ISZERO PUSH2 0x22F8 JUMPI PUSH2 0x22C9 DUP2 PUSH2 0x21A0 JUMP JUMPDEST PUSH2 0x22D2 DUP5 PUSH2 0x21B2 JUMP JUMPDEST DUP2 ADD PUSH1 0x20 DUP6 LT ISZERO PUSH2 0x22E1 JUMPI DUP2 SWAP1 POP JUMPDEST PUSH2 0x22F5 PUSH2 0x22ED DUP6 PUSH2 0x21B2 JUMP JUMPDEST DUP4 ADD DUP3 PUSH2 0x2295 JUMP JUMPDEST POP POP JUMPDEST POP POP POP JUMP JUMPDEST PUSH0 DUP3 DUP3 SHR SWAP1 POP SWAP3 SWAP2 POP POP JUMP JUMPDEST PUSH0 PUSH2 0x2318 PUSH0 NOT DUP5 PUSH1 0x8 MUL PUSH2 0x22FD JUMP JUMPDEST NOT DUP1 DUP4 AND SWAP2 POP POP SWAP3 SWAP2 POP POP JUMP JUMPDEST PUSH0 PUSH2 0x2330 DUP4 DUP4 PUSH2 0x2309 JUMP JUMPDEST SWAP2 POP DUP3 PUSH1 0x2 MUL DUP3 OR SWAP1 POP SWAP3 SWAP2 POP POP JUMP JUMPDEST PUSH2 0x2349 DUP3 PUSH2 0x16CA JUMP JUMPDEST PUSH8 0xFFFFFFFFFFFFFFFF DUP2 GT ISZERO PUSH2 0x2362 JUMPI PUSH2 0x2361 PUSH2 0x1970 JUMP JUMPDEST JUMPDEST PUSH2 0x236C DUP3 SLOAD PUSH2 0x1DA4 JUMP JUMPDEST PUSH2 0x2377 DUP3 DUP3 DUP6 PUSH2 0x22B7 JUMP JUMPDEST PUSH0 PUSH1 0x20 SWAP1 POP PUSH1 0x1F DUP4 GT PUSH1 0x1 DUP2 EQ PUSH2 0x23A8 JUMPI PUSH0 DUP5 ISZERO PUSH2 0x2396 JUMPI DUP3 DUP8 ADD MLOAD SWAP1 POP JUMPDEST PUSH2 0x23A0 DUP6 DUP3 PUSH2 0x2325 JUMP JUMPDEST DUP7 SSTORE POP PUSH2 0x2407 JUMP JUMPDEST PUSH1 0x1F NOT DUP5 AND PUSH2 0x23B6 DUP7 PUSH2 0x21A0 JUMP JUMPDEST PUSH0 JUMPDEST DUP3 DUP2 LT ISZERO PUSH2 0x23DD JUMPI DUP5 DUP10 ADD MLOAD DUP3 SSTORE PUSH1 0x1 DUP3 ADD SWAP2 POP PUSH1 0x20 DUP6 ADD SWAP5 POP PUSH1 0x20 DUP2 ADD SWAP1 POP PUSH2 0x23B8 JUMP JUMPDEST DUP7 DUP4 LT ISZERO PUSH2 0x23FA JUMPI DUP5 DUP10 ADD MLOAD PUSH2 0x23F6 PUSH1 0x1F DUP10 AND DUP3 PUSH2 0x2309 JUMP JUMPDEST DUP4 SSTORE POP JUMPDEST PUSH1 0x1 PUSH1 0x2 DUP9 MUL ADD DUP9 SSTORE POP POP POP JUMPDEST POP POP POP POP POP POP JUMP JUMPDEST PUSH0 PUSH2 0x2419 DUP3 PUSH2 0x16CA JUMP JUMPDEST PUSH2 0x2423 DUP2 DUP6 PUSH2 0x1DD4 JUMP JUMPDEST SWAP4 POP PUSH2 0x2433 DUP2 DUP6 PUSH1 0x20 DUP7 ADD PUSH2 0x16E4 JUMP JUMPDEST PUSH2 0x243C DUP2 PUSH2 0x16F2 JUMP JUMPDEST DUP5 ADD SWAP2 POP POP SWAP3 SWAP2 POP POP JUMP JUMPDEST PUSH2 0x2450 DUP2 PUSH2 0x173A JUMP JUMPDEST DUP3 MSTORE POP POP JUMP JUMPDEST PUSH0 PUSH1 0x80 DUP3 ADD SWAP1 POP PUSH2 0x2469 PUSH0 DUP4 ADD DUP8 PUSH2 0x202B JUMP JUMPDEST DUP2 DUP2 SUB PUSH1 0x20 DUP4 ADD MSTORE PUSH2 0x247B DUP2 DUP7 PUSH2 0x240F JUMP JUMPDEST SWAP1 POP DUP2 DUP2 SUB PUSH1 0x40 DUP4 ADD MSTORE PUSH2 0x248F DUP2 DUP6 PUSH2 0x240F JUMP JUMPDEST SWAP1 POP PUSH2 0x249E PUSH1 0x60 DUP4 ADD DUP5 PUSH2 0x2447 JUMP JUMPDEST SWAP6 SWAP5 POP POP POP POP POP JUMP JUMPDEST PUSH32 0x417574686F72206E616D6520746F6F206C6F6E67000000000000000000000000 PUSH0 DUP3 ADD MSTORE POP JUMP JUMPDEST PUSH0 PUSH2 0x24DB PUSH1 0x14 DUP4 PUSH2 0x1DD4 JUMP JUMPDEST SWAP2 POP PUSH2 0x24E6 DUP3 PUSH2 0x24A7 JUMP JUMPDEST PUSH1 0x20 DUP3 ADD SWAP1 POP SWAP2 SWAP1 POP JUMP JUMPDEST PUSH0 PUSH1 0x20 DUP3 ADD SWAP1 POP DUP2 DUP2 SUB PUSH0 DUP4 ADD MSTORE PUSH2 0x2508 DUP2 PUSH2 0x24CF JUMP JUMPDEST SWAP1 POP SWAP2 SWAP1 POP JUMP JUMPDEST PUSH0 PUSH2 0x251A DUP3 DUP8 PUSH2 0x20F7 JUMP JUMPDEST PUSH1 0x14 DUP3 ADD SWAP2 POP PUSH2 0x252A DUP3 DUP7 PUSH2 0x2117 JUMP JUMPDEST PUSH1 0x20 DUP3 ADD SWAP2 POP PUSH2 0x253A DUP3 DUP6 PUSH2 0x2138 JUMP JUMPDEST SWAP2 POP PUSH2 0x2546 DUP3 DUP5 PUSH2 0x2138 JUMP JUMPDEST SWAP2 POP DUP2 SWAP1 POP SWAP6 SWAP5 POP POP POP POP POP JUMP JUMPDEST PUSH0 PUSH1 0x60 DUP3 ADD SWAP1 POP DUP2 DUP2 SUB PUSH0 DUP4 ADD MSTORE PUSH2 0x256C DUP2 DUP7 PUSH2 0x240F JUMP JUMPDEST SWAP1 POP DUP2 DUP2 SUB PUSH1 0x20 DUP4 ADD MSTORE PUSH2 0x2580 DUP2 DUP6 PUSH2 0x240F JUMP JUMPDEST SWAP1 POP PUSH2 0x258F PUSH1 0x40 DUP4 ADD DUP5 PUSH2 0x2447 JUMP JUMPDEST SWAP5 SWAP4 POP POP POP POP JUMP INVALID LOG2 PUSH5 0x6970667358 0x22 SLT KECCAK256 0x25 0xEB PUSH24 0xD197F0A110C0CB7FC84CC349AE121864EB1DE282753D2CA 0x4E 0xB1 EXTCODESIZE 0xC0 LT PUSH5 0x736F6C6343 STOP ADDMOD 0x1E STOP CALLER "
				},
				"gasEstimates": {
					"creation": {
						"codeDepositCost": "1935400",
						"executionCost": "2046",
						"totalCost": "1937446"
					},
					"external": {
						"addComment(bytes32,string,string)": "infinite",
						"createPost(string,string,string)": "infinite",
						"downvoteComment(bytes32,uint256)": "infinite",
						"downvotePost(bytes32)": "55791",
						"getAllPosts()": "infinite",
						"getAllPostsOfUser(address)": "infinite",
						"getComments(bytes32)": "infinite",
						"upvoteComment(bytes32,uint256)": "infinite",
						"upvotePost(bytes32)": "55791"
					}
				},
				"methodIdentifiers": {
					"addComment(bytes32,string,string)": "a7503db2",
					"createPost(string,string,string)": "e8a4a1eb",
					"downvoteComment(bytes32,uint256)": "cdb1d17e",
					"downvotePost(bytes32)": "a54ff9ac",
					"getAllPosts()": "30561100",
					"getAllPostsOfUser(address)": "2cfdcc6b",
					"getComments(bytes32)": "f7ba787d",
					"upvoteComment(bytes32,uint256)": "a6c86b5b",
					"upvotePost(bytes32)": "e2fc2691"
				}
			},
			"storageLayout": {
				"storage": [
					{
						"astId": 34,
						"contract": "contracts/MyblogApp.sol:MyblogApp",
						"label": "allPostsIds",
						"offset": 0,
						"slot": "0",
						"type": "t_array(t_bytes32)dyn_storage"
					},
					{
						"astId": 39,
						"contract": "contracts/MyblogApp.sol:MyblogApp",
						"label": "userPosts",
						"offset": 0,
						"slot": "1",
						"type": "t_mapping(t_address,t_array(t_bytes32)dyn_storage)"
					},
					{
						"astId": 44,
						"contract": "contracts/MyblogApp.sol:MyblogApp",
						"label": "posts",
						"offset": 0,
						"slot": "2",
						"type": "t_mapping(t_bytes32,t_struct(Post)16_storage)"
					},
					{
						"astId": 50,
						"contract": "contracts/MyblogApp.sol:MyblogApp",
						"label": "postComments",
						"offset": 0,
						"slot": "3",
						"type": "t_mapping(t_bytes32,t_array(t_struct(Comment)31_storage)dyn_storage)"
					},
					{
						"astId": 56,
						"contract": "contracts/MyblogApp.sol:MyblogApp",
						"label": "hasVoted",
						"offset": 0,
						"slot": "4",
						"type": "t_mapping(t_bytes32,t_mapping(t_address,t_bool))"
					},
					{
						"astId": 64,
						"contract": "contracts/MyblogApp.sol:MyblogApp",
						"label": "hasVotedComment",
						"offset": 0,
						"slot": "5",
						"type": "t_mapping(t_bytes32,t_mapping(t_address,t_mapping(t_uint256,t_bool)))"
					}
				],
				"types": {
					"t_address": {
						"encoding": "inplace",
						"label": "address",
						"numberOfBytes": "20"
					},
					"t_array(t_bytes32)dyn_storage": {
						"base": "t_bytes32",
						"encoding": "dynamic_array",
						"label": "bytes32[]",
						"numberOfBytes": "32"
					},
					"t_array(t_struct(Comment)31_storage)dyn_storage": {
						"base": "t_struct(Comment)31_storage",
						"encoding": "dynamic_array",
						"label": "struct MyblogApp.Comment[]",
						"numberOfBytes": "32"
					},
					"t_bool": {
						"encoding": "inplace",
						"label": "bool",
						"numberOfBytes": "1"
					},
					"t_bytes32": {
						"encoding": "inplace",
						"label": "bytes32",
						"numberOfBytes": "32"
					},
					"t_mapping(t_address,t_array(t_bytes32)dyn_storage)": {
						"encoding": "mapping",
						"key": "t_address",
						"label": "mapping(address => bytes32[])",
						"numberOfBytes": "32",
						"value": "t_array(t_bytes32)dyn_storage"
					},
					"t_mapping(t_address,t_bool)": {
						"encoding": "mapping",
						"key": "t_address",
						"label": "mapping(address => bool)",
						"numberOfBytes": "32",
						"value": "t_bool"
					},
					"t_mapping(t_address,t_mapping(t_uint256,t_bool))": {
						"encoding": "mapping",
						"key": "t_address",
						"label": "mapping(address => mapping(uint256 => bool))",
						"numberOfBytes": "32",
						"value": "t_mapping(t_uint256,t_bool)"
					},
					"t_mapping(t_bytes32,t_array(t_struct(Comment)31_storage)dyn_storage)": {
						"encoding": "mapping",
						"key": "t_bytes32",
						"label": "mapping(bytes32 => struct MyblogApp.Comment[])",
						"numberOfBytes": "32",
						"value": "t_array(t_struct(Comment)31_storage)dyn_storage"
					},
					"t_mapping(t_bytes32,t_mapping(t_address,t_bool))": {
						"encoding": "mapping",
						"key": "t_bytes32",
						"label": "mapping(bytes32 => mapping(address => bool))",
						"numberOfBytes": "32",
						"value": "t_mapping(t_address,t_bool)"
					},
					"t_mapping(t_bytes32,t_mapping(t_address,t_mapping(t_uint256,t_bool)))": {
						"encoding": "mapping",
						"key": "t_bytes32",
						"label": "mapping(bytes32 => mapping(address => mapping(uint256 => bool)))",
						"numberOfBytes": "32",
						"value": "t_mapping(t_address,t_mapping(t_uint256,t_bool))"
					},
					"t_mapping(t_bytes32,t_struct(Post)16_storage)": {
						"encoding": "mapping",
						"key": "t_bytes32",
						"label": "mapping(bytes32 => struct MyblogApp.Post)",
						"numberOfBytes": "32",
						"value": "t_struct(Post)16_storage"
					},
					"t_mapping(t_uint256,t_bool)": {
						"encoding": "mapping",
						"key": "t_uint256",
						"label": "mapping(uint256 => bool)",
						"numberOfBytes": "32",
						"value": "t_bool"
					},
					"t_string_storage": {
						"encoding": "bytes",
						"label": "string",
						"numberOfBytes": "32"
					},
					"t_struct(Comment)31_storage": {
						"encoding": "inplace",
						"label": "struct MyblogApp.Comment",
						"members": [
							{
								"astId": 18,
								"contract": "contracts/MyblogApp.sol:MyblogApp",
								"label": "id",
								"offset": 0,
								"slot": "0",
								"type": "t_bytes32"
							},
							{
								"astId": 20,
								"contract": "contracts/MyblogApp.sol:MyblogApp",
								"label": "commenterAddress",
								"offset": 0,
								"slot": "1",
								"type": "t_address"
							},
							{
								"astId": 22,
								"contract": "contracts/MyblogApp.sol:MyblogApp",
								"label": "commenterName",
								"offset": 0,
								"slot": "2",
								"type": "t_string_storage"
							},
							{
								"astId": 24,
								"contract": "contracts/MyblogApp.sol:MyblogApp",
								"label": "content",
								"offset": 0,
								"slot": "3",
								"type": "t_string_storage"
							},
							{
								"astId": 26,
								"contract": "contracts/MyblogApp.sol:MyblogApp",
								"label": "upvote",
								"offset": 0,
								"slot": "4",
								"type": "t_uint256"
							},
							{
								"astId": 28,
								"contract": "contracts/MyblogApp.sol:MyblogApp",
								"label": "downvote",
								"offset": 0,
								"slot": "5",
								"type": "t_uint256"
							},
							{
								"astId": 30,
								"contract": "contracts/MyblogApp.sol:MyblogApp",
								"label": "timestamp",
								"offset": 0,
								"slot": "6",
								"type": "t_uint256"
							}
						],
						"numberOfBytes": "224"
					},
					"t_struct(Post)16_storage": {
						"encoding": "inplace",
						"label": "struct MyblogApp.Post",
						"members": [
							{
								"astId": 3,
								"contract": "contracts/MyblogApp.sol:MyblogApp",
								"label": "id",
								"offset": 0,
								"slot": "0",
								"type": "t_bytes32"
							},
							{
								"astId": 5,
								"contract": "contracts/MyblogApp.sol:MyblogApp",
								"label": "author",
								"offset": 0,
								"slot": "1",
								"type": "t_string_storage"
							},
							{
								"astId": 7,
								"contract": "contracts/MyblogApp.sol:MyblogApp",
								"label": "title",
								"offset": 0,
								"slot": "2",
								"type": "t_string_storage"
							},
							{
								"astId": 9,
								"contract": "contracts/MyblogApp.sol:MyblogApp",
								"label": "contentHash",
								"offset": 0,
								"slot": "3",
								"type": "t_string_storage"
							},
							{
								"astId": 11,
								"contract": "contracts/MyblogApp.sol:MyblogApp",
								"label": "upvote",
								"offset": 0,
								"slot": "4",
								"type": "t_uint256"
							},
							{
								"astId": 13,
								"contract": "contracts/MyblogApp.sol:MyblogApp",
								"label": "downvote",
								"offset": 0,
								"slot": "5",
								"type": "t_uint256"
							},
							{
								"astId": 15,
								"contract": "contracts/MyblogApp.sol:MyblogApp",
								"label": "timestamp",
								"offset": 0,
								"slot": "6",
								"type": "t_uint256"
							}
						],
						"numberOfBytes": "224"
					},
					"t_uint256": {
						"encoding": "inplace",
						"label": "uint256",
						"numberOfBytes": "32"
					}
				}
			},
			"userdoc": {
				"kind": "user",
				"methods": {},
				"version": 1
			}
		}
	}
}