{
	"contracts/My_blog_App.sol": {
		"MyblogApp": {
			"abi": [
				{
					"anonymous": false,
					"inputs": [
						{
							"indexed": true,
							"internalType": "bytes32",
							"name": "postId",
							"type": "bytes32"
						},
						{
							"indexed": false,
							"internalType": "string",
							"name": "title",
							"type": "string"
						},
						{
							"indexed": false,
							"internalType": "string",
							"name": "author",
							"type": "string"
						},
						{
							"indexed": false,
							"internalType": "uint256",
							"name": "timestamp",
							"type": "uint256"
						}
					],
					"name": "Postcreation",
					"type": "event"
				},
				{
					"inputs": [
						{
							"internalType": "string",
							"name": "_author",
							"type": "string"
						},
						{
							"internalType": "string",
							"name": "_title",
							"type": "string"
						},
						{
							"internalType": "string",
							"name": "_contentHash",
							"type": "string"
						}
					],
					"name": "createPost",
					"outputs": [],
					"stateMutability": "nonpayable",
					"type": "function"
				},
				{
					"inputs": [
						{
							"internalType": "address",
							"name": "_user",
							"type": "address"
						}
					],
					"name": "getAllPostsOfUser",
					"outputs": [
						{
							"components": [
								{
									"internalType": "bytes32",
									"name": "id",
									"type": "bytes32"
								},
								{
									"internalType": "string",
									"name": "author",
									"type": "string"
								},
								{
									"internalType": "string",
									"name": "title",
									"type": "string"
								},
								{
									"internalType": "string",
									"name": "contentHash",
									"type": "string"
								},
								{
									"internalType": "uint256",
									"name": "upvote",
									"type": "uint256"
								},
								{
									"internalType": "uint256",
									"name": "downvote",
									"type": "uint256"
								},
								{
									"internalType": "uint256",
									"name": "timestamp",
									"type": "uint256"
								}
							],
							"internalType": "struct MyblogApp.Post[]",
							"name": "",
							"type": "tuple[]"
						}
					],
					"stateMutability": "view",
					"type": "function"
				},
				{
					"inputs": [
						{
							"internalType": "bytes32",
							"name": "_postId",
							"type": "bytes32"
						}
					],
					"name": "getPostById",
					"outputs": [
						{
							"components": [
								{
									"internalType": "bytes32",
									"name": "id",
									"type": "bytes32"
								},
								{
									"internalType": "string",
									"name": "author",
									"type": "string"
								},
								{
									"internalType": "string",
									"name": "title",
									"type": "string"
								},
								{
									"internalType": "string",
									"name": "contentHash",
									"type": "string"
								},
								{
									"internalType": "uint256",
									"name": "upvote",
									"type": "uint256"
								},
								{
									"internalType": "uint256",
									"name": "downvote",
									"type": "uint256"
								},
								{
									"internalType": "uint256",
									"name": "timestamp",
									"type": "uint256"
								}
							],
							"internalType": "struct MyblogApp.Post",
							"name": "",
							"type": "tuple"
						}
					],
					"stateMutability": "view",
					"type": "function"
				}
			],
			"devdoc": {
				"kind": "dev",
				"methods": {},
				"version": 1
			},
			"evm": {
				"assembly": "    /* \"contracts/My_blog_App.sol\":68:1796  contract MyblogApp... */\n  mstore(0x40, 0x80)\n  callvalue\n  dup1\n  iszero\n  tag_1\n  jumpi\n  revert(0x00, 0x00)\ntag_1:\n  pop\n  dataSize(sub_0)\n  dup1\n  dataOffset(sub_0)\n  0x00\n  codecopy\n  0x00\n  return\nstop\n\nsub_0: assembly {\n        /* \"contracts/My_blog_App.sol\":68:1796  contract MyblogApp... */\n      mstore(0x40, 0x80)\n      callvalue\n      dup1\n      iszero\n      tag_1\n      jumpi\n      revert(0x00, 0x00)\n    tag_1:\n      pop\n      jumpi(tag_2, lt(calldatasize, 0x04))\n      shr(0xe0, calldataload(0x00))\n      dup1\n      0x2cfdcc6b\n      eq\n      tag_3\n      jumpi\n      dup1\n      0xae362ff9\n      eq\n      tag_4\n      jumpi\n      dup1\n      0xe8a4a1eb\n      eq\n      tag_5\n      jumpi\n    tag_2:\n      revert(0x00, 0x00)\n        /* \"contracts/My_blog_App.sol\":1294:1673  function getAllPostsOfUser(address _user) public view returns (Post[] memory)... */\n    tag_3:\n      tag_6\n      0x04\n      dup1\n      calldatasize\n      sub\n      dup2\n      add\n      swap1\n      tag_7\n      swap2\n      swap1\n      tag_8\n      jump\t// in\n    tag_7:\n      tag_9\n      jump\t// in\n    tag_6:\n      mload(0x40)\n      tag_10\n      swap2\n      swap1\n      tag_11\n      jump\t// in\n    tag_10:\n      mload(0x40)\n      dup1\n      swap2\n      sub\n      swap1\n      return\n        /* \"contracts/My_blog_App.sol\":1681:1793  function getPostById(bytes32 _postId) public view returns (Post memory) {... */\n    tag_4:\n      tag_12\n      0x04\n      dup1\n      calldatasize\n      sub\n      dup2\n      add\n      swap1\n      tag_13\n      swap2\n      swap1\n      tag_14\n      jump\t// in\n    tag_13:\n      tag_15\n      jump\t// in\n    tag_12:\n      mload(0x40)\n      tag_16\n      swap2\n      swap1\n      tag_17\n      jump\t// in\n    tag_16:\n      mload(0x40)\n      dup1\n      swap2\n      sub\n      swap1\n      return\n        /* \"contracts/My_blog_App.sol\":598:1286  function createPost(string memory _author, string memory _title, string memory _contentHash) public ... */\n    tag_5:\n      tag_18\n      0x04\n      dup1\n      calldatasize\n      sub\n      dup2\n      add\n      swap1\n      tag_19\n      swap2\n      swap1\n      tag_20\n      jump\t// in\n    tag_19:\n      tag_21\n      jump\t// in\n    tag_18:\n      stop\n        /* \"contracts/My_blog_App.sol\":1294:1673  function getAllPostsOfUser(address _user) public view returns (Post[] memory)... */\n    tag_9:\n        /* \"contracts/My_blog_App.sol\":1357:1370  Post[] memory */\n      0x60\n        /* \"contracts/My_blog_App.sol\":1388:1416  bytes32[] memory userPostIds */\n      0x00\n        /* \"contracts/My_blog_App.sol\":1419:1428  userPosts */\n      0x00\n        /* \"contracts/My_blog_App.sol\":1419:1435  userPosts[_user] */\n      0x00\n        /* \"contracts/My_blog_App.sol\":1429:1434  _user */\n      dup5\n        /* \"contracts/My_blog_App.sol\":1419:1435  userPosts[_user] */\n      0xffffffffffffffffffffffffffffffffffffffff\n      and\n      0xffffffffffffffffffffffffffffffffffffffff\n      and\n      dup2\n      mstore\n      0x20\n      add\n      swap1\n      dup2\n      mstore\n      0x20\n      add\n      0x00\n      keccak256\n        /* \"contracts/My_blog_App.sol\":1388:1435  bytes32[] memory userPostIds = userPosts[_user] */\n      dup1\n      sload\n      dup1\n      0x20\n      mul\n      0x20\n      add\n      mload(0x40)\n      swap1\n      dup2\n      add\n      0x40\n      mstore\n      dup1\n      swap3\n      swap2\n      swap1\n      dup2\n      dup2\n      mstore\n      0x20\n      add\n      dup3\n      dup1\n      sload\n      dup1\n      iszero\n      tag_23\n      jumpi\n      0x20\n      mul\n      dup3\n      add\n      swap2\n      swap1\n      0x00\n      mstore\n      keccak256(0x00, 0x20)\n      swap1\n    tag_24:\n      dup2\n      sload\n      dup2\n      mstore\n      0x20\n      add\n      swap1\n      0x01\n      add\n      swap1\n      dup1\n      dup4\n      gt\n      tag_24\n      jumpi\n    tag_23:\n      pop\n      pop\n      pop\n      pop\n      pop\n      swap1\n      pop\n        /* \"contracts/My_blog_App.sol\":1446:1468  Post[] memory allPosts */\n      0x00\n        /* \"contracts/My_blog_App.sol\":1482:1493  userPostIds */\n      dup2\n        /* \"contracts/My_blog_App.sol\":1482:1500  userPostIds.length */\n      mload\n        /* \"contracts/My_blog_App.sol\":1471:1501  new Post[](userPostIds.length) */\n      0xffffffffffffffff\n      dup2\n      gt\n      iszero\n      tag_25\n      jumpi\n      tag_26\n      tag_27\n      jump\t// in\n    tag_26:\n    tag_25:\n      mload(0x40)\n      swap1\n      dup1\n      dup3\n      mstore\n      dup1\n      0x20\n      mul\n      0x20\n      add\n      dup3\n      add\n      0x40\n      mstore\n      dup1\n      iszero\n      tag_28\n      jumpi\n      dup2\n      0x20\n      add\n    tag_29:\n      tag_30\n      tag_31\n      jump\t// in\n    tag_30:\n      dup2\n      mstore\n      0x20\n      add\n      swap1\n      0x01\n      swap1\n      sub\n      swap1\n      dup2\n      tag_29\n      jumpi\n      swap1\n      pop\n    tag_28:\n      pop\n        /* \"contracts/My_blog_App.sol\":1446:1501  Post[] memory allPosts = new Post[](userPostIds.length) */\n      swap1\n      pop\n        /* \"contracts/My_blog_App.sol\":1527:1533  uint i */\n      0x00\n        /* \"contracts/My_blog_App.sol\":1536:1537  0 */\n      0x00\n        /* \"contracts/My_blog_App.sol\":1527:1537  uint i = 0 */\n      swap1\n      pop\n        /* \"contracts/My_blog_App.sol\":1522:1630  for (uint i = 0; i < userPostIds.length; i++) {... */\n    tag_32:\n        /* \"contracts/My_blog_App.sol\":1543:1554  userPostIds */\n      dup3\n        /* \"contracts/My_blog_App.sol\":1543:1561  userPostIds.length */\n      mload\n        /* \"contracts/My_blog_App.sol\":1539:1540  i */\n      dup2\n        /* \"contracts/My_blog_App.sol\":1539:1561  i < userPostIds.length */\n      lt\n        /* \"contracts/My_blog_App.sol\":1522:1630  for (uint i = 0; i < userPostIds.length; i++) {... */\n      iszero\n      tag_33\n      jumpi\n        /* \"contracts/My_blog_App.sol\":1597:1602  posts */\n      0x01\n        /* \"contracts/My_blog_App.sol\":1597:1618  posts[userPostIds[i]] */\n      0x00\n        /* \"contracts/My_blog_App.sol\":1603:1614  userPostIds */\n      dup5\n        /* \"contracts/My_blog_App.sol\":1615:1616  i */\n      dup4\n        /* \"contracts/My_blog_App.sol\":1603:1617  userPostIds[i] */\n      dup2\n      mload\n      dup2\n      lt\n      tag_35\n      jumpi\n      tag_36\n      tag_37\n      jump\t// in\n    tag_36:\n    tag_35:\n      0x20\n      mul\n      0x20\n      add\n      add\n      mload\n        /* \"contracts/My_blog_App.sol\":1597:1618  posts[userPostIds[i]] */\n      dup2\n      mstore\n      0x20\n      add\n      swap1\n      dup2\n      mstore\n      0x20\n      add\n      0x00\n      keccak256\n        /* \"contracts/My_blog_App.sol\":1583:1618  allPosts[i] = posts[userPostIds[i]] */\n      mload(0x40)\n      dup1\n      0xe0\n      add\n      0x40\n      mstore\n      swap1\n      dup2\n      0x00\n      dup3\n      add\n      sload\n      dup2\n      mstore\n      0x20\n      add\n      0x01\n      dup3\n      add\n      dup1\n      sload\n      tag_38\n      swap1\n      tag_39\n      jump\t// in\n    tag_38:\n      dup1\n      0x1f\n      add\n      0x20\n      dup1\n      swap2\n      div\n      mul\n      0x20\n      add\n      mload(0x40)\n      swap1\n      dup2\n      add\n      0x40\n      mstore\n      dup1\n      swap3\n      swap2\n      swap1\n      dup2\n      dup2\n      mstore\n      0x20\n      add\n      dup3\n      dup1\n      sload\n      tag_40\n      swap1\n      tag_39\n      jump\t// in\n    tag_40:\n      dup1\n      iszero\n      tag_41\n      jumpi\n      dup1\n      0x1f\n      lt\n      tag_42\n      jumpi\n      0x0100\n      dup1\n      dup4\n      sload\n      div\n      mul\n      dup4\n      mstore\n      swap2\n      0x20\n      add\n      swap2\n      jump(tag_41)\n    tag_42:\n      dup3\n      add\n      swap2\n      swap1\n      0x00\n      mstore\n      keccak256(0x00, 0x20)\n      swap1\n    tag_43:\n      dup2\n      sload\n      dup2\n      mstore\n      swap1\n      0x01\n      add\n      swap1\n      0x20\n      add\n      dup1\n      dup4\n      gt\n      tag_43\n      jumpi\n      dup3\n      swap1\n      sub\n      0x1f\n      and\n      dup3\n      add\n      swap2\n    tag_41:\n      pop\n      pop\n      pop\n      pop\n      pop\n      dup2\n      mstore\n      0x20\n      add\n      0x02\n      dup3\n      add\n      dup1\n      sload\n      tag_44\n      swap1\n      tag_39\n      jump\t// in\n    tag_44:\n      dup1\n      0x1f\n      add\n      0x20\n      dup1\n      swap2\n      div\n      mul\n      0x20\n      add\n      mload(0x40)\n      swap1\n      dup2\n      add\n      0x40\n      mstore\n      dup1\n      swap3\n      swap2\n      swap1\n      dup2\n      dup2\n      mstore\n      0x20\n      add\n      dup3\n      dup1\n      sload\n      tag_45\n      swap1\n      tag_39\n      jump\t// in\n    tag_45:\n      dup1\n      iszero\n      tag_46\n      jumpi\n      dup1\n      0x1f\n      lt\n      tag_47\n      jumpi\n      0x0100\n      dup1\n      dup4\n      sload\n      div\n      mul\n      dup4\n      mstore\n      swap2\n      0x20\n      add\n      swap2\n      jump(tag_46)\n    tag_47:\n      dup3\n      add\n      swap2\n      swap1\n      0x00\n      mstore\n      keccak256(0x00, 0x20)\n      swap1\n    tag_48:\n      dup2\n      sload\n      dup2\n      mstore\n      swap1\n      0x01\n      add\n      swap1\n      0x20\n      add\n      dup1\n      dup4\n      gt\n      tag_48\n      jumpi\n      dup3\n      swap1\n      sub\n      0x1f\n      and\n      dup3\n      add\n      swap2\n    tag_46:\n      pop\n      pop\n      pop\n      pop\n      pop\n      dup2\n      mstore\n      0x20\n      add\n      0x03\n      dup3\n      add\n      dup1\n      sload\n      tag_49\n      swap1\n      tag_39\n      jump\t// in\n    tag_49:\n      dup1\n      0x1f\n      add\n      0x20\n      dup1\n      swap2\n      div\n      mul\n      0x20\n      add\n      mload(0x40)\n      swap1\n      dup2\n      add\n      0x40\n      mstore\n      dup1\n      swap3\n      swap2\n      swap1\n      dup2\n      dup2\n      mstore\n      0x20\n      add\n      dup3\n      dup1\n      sload\n      tag_50\n      swap1\n      tag_39\n      jump\t// in\n    tag_50:\n      dup1\n      iszero\n      tag_51\n      jumpi\n      dup1\n      0x1f\n      lt\n      tag_52\n      jumpi\n      0x0100\n      dup1\n      dup4\n      sload\n      div\n      mul\n      dup4\n      mstore\n      swap2\n      0x20\n      add\n      swap2\n      jump(tag_51)\n    tag_52:\n      dup3\n      add\n      swap2\n      swap1\n      0x00\n      mstore\n      keccak256(0x00, 0x20)\n      swap1\n    tag_53:\n      dup2\n      sload\n      dup2\n      mstore\n      swap1\n      0x01\n      add\n      swap1\n      0x20\n      add\n      dup1\n      dup4\n      gt\n      tag_53\n      jumpi\n      dup3\n      swap1\n      sub\n      0x1f\n      and\n      dup3\n      add\n      swap2\n    tag_51:\n      pop\n      pop\n      pop\n      pop\n      pop\n      dup2\n      mstore\n      0x20\n      add\n      0x04\n      dup3\n      add\n      sload\n      dup2\n      mstore\n      0x20\n      add\n      0x05\n      dup3\n      add\n      sload\n      dup2\n      mstore\n      0x20\n      add\n      0x06\n      dup3\n      add\n      sload\n      dup2\n      mstore\n      pop\n      pop\n        /* \"contracts/My_blog_App.sol\":1583:1591  allPosts */\n      dup3\n        /* \"contracts/My_blog_App.sol\":1592:1593  i */\n      dup3\n        /* \"contracts/My_blog_App.sol\":1583:1594  allPosts[i] */\n      dup2\n      mload\n      dup2\n      lt\n      tag_54\n      jumpi\n      tag_55\n      tag_37\n      jump\t// in\n    tag_55:\n    tag_54:\n      0x20\n      mul\n      0x20\n      add\n      add\n        /* \"contracts/My_blog_App.sol\":1583:1618  allPosts[i] = posts[userPostIds[i]] */\n      dup2\n      swap1\n      mstore\n      pop\n        /* \"contracts/My_blog_App.sol\":1563:1566  i++ */\n      dup1\n      dup1\n      0x01\n      add\n      swap2\n      pop\n      pop\n        /* \"contracts/My_blog_App.sol\":1522:1630  for (uint i = 0; i < userPostIds.length; i++) {... */\n      jump(tag_32)\n    tag_33:\n      pop\n        /* \"contracts/My_blog_App.sol\":1657:1665  allPosts */\n      dup1\n        /* \"contracts/My_blog_App.sol\":1650:1665  return allPosts */\n      swap3\n      pop\n      pop\n      pop\n        /* \"contracts/My_blog_App.sol\":1294:1673  function getAllPostsOfUser(address _user) public view returns (Post[] memory)... */\n      swap2\n      swap1\n      pop\n      jump\t// out\n        /* \"contracts/My_blog_App.sol\":1681:1793  function getPostById(bytes32 _postId) public view returns (Post memory) {... */\n    tag_15:\n        /* \"contracts/My_blog_App.sol\":1740:1751  Post memory */\n      tag_56\n      tag_31\n      jump\t// in\n    tag_56:\n        /* \"contracts/My_blog_App.sol\":1771:1776  posts */\n      0x01\n        /* \"contracts/My_blog_App.sol\":1771:1785  posts[_postId] */\n      0x00\n        /* \"contracts/My_blog_App.sol\":1777:1784  _postId */\n      dup4\n        /* \"contracts/My_blog_App.sol\":1771:1785  posts[_postId] */\n      dup2\n      mstore\n      0x20\n      add\n      swap1\n      dup2\n      mstore\n      0x20\n      add\n      0x00\n      keccak256\n        /* \"contracts/My_blog_App.sol\":1764:1785  return posts[_postId] */\n      mload(0x40)\n      dup1\n      0xe0\n      add\n      0x40\n      mstore\n      swap1\n      dup2\n      0x00\n      dup3\n      add\n      sload\n      dup2\n      mstore\n      0x20\n      add\n      0x01\n      dup3\n      add\n      dup1\n      sload\n      tag_58\n      swap1\n      tag_39\n      jump\t// in\n    tag_58:\n      dup1\n      0x1f\n      add\n      0x20\n      dup1\n      swap2\n      div\n      mul\n      0x20\n      add\n      mload(0x40)\n      swap1\n      dup2\n      add\n      0x40\n      mstore\n      dup1\n      swap3\n      swap2\n      swap1\n      dup2\n      dup2\n      mstore\n      0x20\n      add\n      dup3\n      dup1\n      sload\n      tag_59\n      swap1\n      tag_39\n      jump\t// in\n    tag_59:\n      dup1\n      iszero\n      tag_60\n      jumpi\n      dup1\n      0x1f\n      lt\n      tag_61\n      jumpi\n      0x0100\n      dup1\n      dup4\n      sload\n      div\n      mul\n      dup4\n      mstore\n      swap2\n      0x20\n      add\n      swap2\n      jump(tag_60)\n    tag_61:\n      dup3\n      add\n      swap2\n      swap1\n      0x00\n      mstore\n      keccak256(0x00, 0x20)\n      swap1\n    tag_62:\n      dup2\n      sload\n      dup2\n      mstore\n      swap1\n      0x01\n      add\n      swap1\n      0x20\n      add\n      dup1\n      dup4\n      gt\n      tag_62\n      jumpi\n      dup3\n      swap1\n      sub\n      0x1f\n      and\n      dup3\n      add\n      swap2\n    tag_60:\n      pop\n      pop\n      pop\n      pop\n      pop\n      dup2\n      mstore\n      0x20\n      add\n      0x02\n      dup3\n      add\n      dup1\n      sload\n      tag_63\n      swap1\n      tag_39\n      jump\t// in\n    tag_63:\n      dup1\n      0x1f\n      add\n      0x20\n      dup1\n      swap2\n      div\n      mul\n      0x20\n      add\n      mload(0x40)\n      swap1\n      dup2\n      add\n      0x40\n      mstore\n      dup1\n      swap3\n      swap2\n      swap1\n      dup2\n      dup2\n      mstore\n      0x20\n      add\n      dup3\n      dup1\n      sload\n      tag_64\n      swap1\n      tag_39\n      jump\t// in\n    tag_64:\n      dup1\n      iszero\n      tag_65\n      jumpi\n      dup1\n      0x1f\n      lt\n      tag_66\n      jumpi\n      0x0100\n      dup1\n      dup4\n      sload\n      div\n      mul\n      dup4\n      mstore\n      swap2\n      0x20\n      add\n      swap2\n      jump(tag_65)\n    tag_66:\n      dup3\n      add\n      swap2\n      swap1\n      0x00\n      mstore\n      keccak256(0x00, 0x20)\n      swap1\n    tag_67:\n      dup2\n      sload\n      dup2\n      mstore\n      swap1\n      0x01\n      add\n      swap1\n      0x20\n      add\n      dup1\n      dup4\n      gt\n      tag_67\n      jumpi\n      dup3\n      swap1\n      sub\n      0x1f\n      and\n      dup3\n      add\n      swap2\n    tag_65:\n      pop\n      pop\n      pop\n      pop\n      pop\n      dup2\n      mstore\n      0x20\n      add\n      0x03\n      dup3\n      add\n      dup1\n      sload\n      tag_68\n      swap1\n      tag_39\n      jump\t// in\n    tag_68:\n      dup1\n      0x1f\n      add\n      0x20\n      dup1\n      swap2\n      div\n      mul\n      0x20\n      add\n      mload(0x40)\n      swap1\n      dup2\n      add\n      0x40\n      mstore\n      dup1\n      swap3\n      swap2\n      swap1\n      dup2\n      dup2\n      mstore\n      0x20\n      add\n      dup3\n      dup1\n      sload\n      tag_69\n      swap1\n      tag_39\n      jump\t// in\n    tag_69:\n      dup1\n      iszero\n      tag_70\n      jumpi\n      dup1\n      0x1f\n      lt\n      tag_71\n      jumpi\n      0x0100\n      dup1\n      dup4\n      sload\n      div\n      mul\n      dup4\n      mstore\n      swap2\n      0x20\n      add\n      swap2\n      jump(tag_70)\n    tag_71:\n      dup3\n      add\n      swap2\n      swap1\n      0x00\n      mstore\n      keccak256(0x00, 0x20)\n      swap1\n    tag_72:\n      dup2\n      sload\n      dup2\n      mstore\n      swap1\n      0x01\n      add\n      swap1\n      0x20\n      add\n      dup1\n      dup4\n      gt\n      tag_72\n      jumpi\n      dup3\n      swap1\n      sub\n      0x1f\n      and\n      dup3\n      add\n      swap2\n    tag_70:\n      pop\n      pop\n      pop\n      pop\n      pop\n      dup2\n      mstore\n      0x20\n      add\n      0x04\n      dup3\n      add\n      sload\n      dup2\n      mstore\n      0x20\n      add\n      0x05\n      dup3\n      add\n      sload\n      dup2\n      mstore\n      0x20\n      add\n      0x06\n      dup3\n      add\n      sload\n      dup2\n      mstore\n      pop\n      pop\n      swap1\n      pop\n        /* \"contracts/My_blog_App.sol\":1681:1793  function getPostById(bytes32 _postId) public view returns (Post memory) {... */\n      swap2\n      swap1\n      pop\n      jump\t// out\n        /* \"contracts/My_blog_App.sol\":598:1286  function createPost(string memory _author, string memory _title, string memory _contentHash) public ... */\n    tag_21:\n        /* \"contracts/My_blog_App.sol\":715:726  bytes32 _id */\n      0x00\n        /* \"contracts/My_blog_App.sol\":756:766  msg.sender */\n      caller\n        /* \"contracts/My_blog_App.sol\":768:783  block.timestamp */\n      timestamp\n        /* \"contracts/My_blog_App.sol\":785:791  _title */\n      dup5\n        /* \"contracts/My_blog_App.sol\":793:805  _contentHash */\n      dup5\n        /* \"contracts/My_blog_App.sol\":739:806  abi.encodePacked(msg.sender, block.timestamp, _title, _contentHash) */\n      add(0x20, mload(0x40))\n      tag_74\n      swap5\n      swap4\n      swap3\n      swap2\n      swap1\n      tag_75\n      jump\t// in\n    tag_74:\n      mload(0x40)\n      0x20\n      dup2\n      dup4\n      sub\n      sub\n      dup2\n      mstore\n      swap1\n      0x40\n      mstore\n        /* \"contracts/My_blog_App.sol\":729:807  keccak256(abi.encodePacked(msg.sender, block.timestamp, _title, _contentHash)) */\n      dup1\n      mload\n      swap1\n      0x20\n      add\n      keccak256\n        /* \"contracts/My_blog_App.sol\":715:807  bytes32 _id = keccak256(abi.encodePacked(msg.sender, block.timestamp, _title, _contentHash)) */\n      swap1\n      pop\n        /* \"contracts/My_blog_App.sol\":820:839  Post memory newpost */\n      0x00\n        /* \"contracts/My_blog_App.sol\":842:1126  Post(... */\n      mload(0x40)\n      dup1\n      0xe0\n      add\n      0x40\n      mstore\n      dup1\n        /* \"contracts/My_blog_App.sol\":884:887  _id */\n      dup4\n        /* \"contracts/My_blog_App.sol\":842:1126  Post(... */\n      dup2\n      mstore\n      0x20\n      add\n        /* \"contracts/My_blog_App.sol\":914:921  _author */\n      dup7\n        /* \"contracts/My_blog_App.sol\":842:1126  Post(... */\n      dup2\n      mstore\n      0x20\n      add\n        /* \"contracts/My_blog_App.sol\":947:953  _title */\n      dup6\n        /* \"contracts/My_blog_App.sol\":842:1126  Post(... */\n      dup2\n      mstore\n      0x20\n      add\n        /* \"contracts/My_blog_App.sol\":985:997  _contentHash */\n      dup5\n        /* \"contracts/My_blog_App.sol\":842:1126  Post(... */\n      dup2\n      mstore\n      0x20\n      add\n        /* \"contracts/My_blog_App.sol\":1024:1025  0 */\n      0x00\n        /* \"contracts/My_blog_App.sol\":842:1126  Post(... */\n      dup2\n      mstore\n      0x20\n      add\n        /* \"contracts/My_blog_App.sol\":1054:1055  0 */\n      0x00\n        /* \"contracts/My_blog_App.sol\":842:1126  Post(... */\n      dup2\n      mstore\n      0x20\n      add\n        /* \"contracts/My_blog_App.sol\":1085:1100  block.timestamp */\n      timestamp\n        /* \"contracts/My_blog_App.sol\":842:1126  Post(... */\n      dup2\n      mstore\n      pop\n        /* \"contracts/My_blog_App.sol\":820:1126  Post memory newpost = Post(... */\n      swap1\n      pop\n        /* \"contracts/My_blog_App.sol\":1139:1148  userPosts */\n      0x00\n        /* \"contracts/My_blog_App.sol\":1139:1160  userPosts[msg.sender] */\n      0x00\n        /* \"contracts/My_blog_App.sol\":1149:1159  msg.sender */\n      caller\n        /* \"contracts/My_blog_App.sol\":1139:1160  userPosts[msg.sender] */\n      0xffffffffffffffffffffffffffffffffffffffff\n      and\n      0xffffffffffffffffffffffffffffffffffffffff\n      and\n      dup2\n      mstore\n      0x20\n      add\n      swap1\n      dup2\n      mstore\n      0x20\n      add\n      0x00\n      keccak256\n        /* \"contracts/My_blog_App.sol\":1166:1169  _id */\n      dup3\n        /* \"contracts/My_blog_App.sol\":1139:1170  userPosts[msg.sender].push(_id) */\n      swap1\n      dup1\n      0x01\n      dup2\n      sload\n      add\n      dup1\n      dup3\n      sstore\n      dup1\n      swap2\n      pop\n      pop\n      0x01\n      swap1\n      sub\n      swap1\n      0x00\n      mstore\n      keccak256(0x00, 0x20)\n      add\n      0x00\n      swap1\n      swap2\n      swap1\n      swap2\n      swap1\n      swap2\n      pop\n      sstore\n        /* \"contracts/My_blog_App.sol\":1194:1201  newpost */\n      dup1\n        /* \"contracts/My_blog_App.sol\":1181:1186  posts */\n      0x01\n        /* \"contracts/My_blog_App.sol\":1181:1191  posts[_id] */\n      0x00\n        /* \"contracts/My_blog_App.sol\":1187:1190  _id */\n      dup5\n        /* \"contracts/My_blog_App.sol\":1181:1191  posts[_id] */\n      dup2\n      mstore\n      0x20\n      add\n      swap1\n      dup2\n      mstore\n      0x20\n      add\n      0x00\n      keccak256\n        /* \"contracts/My_blog_App.sol\":1181:1201  posts[_id] = newpost */\n      0x00\n      dup3\n      add\n      mload\n      dup2\n      0x00\n      add\n      sstore\n      0x20\n      dup3\n      add\n      mload\n      dup2\n      0x01\n      add\n      swap1\n      dup2\n      tag_77\n      swap2\n      swap1\n      tag_78\n      jump\t// in\n    tag_77:\n      pop\n      0x40\n      dup3\n      add\n      mload\n      dup2\n      0x02\n      add\n      swap1\n      dup2\n      tag_79\n      swap2\n      swap1\n      tag_78\n      jump\t// in\n    tag_79:\n      pop\n      0x60\n      dup3\n      add\n      mload\n      dup2\n      0x03\n      add\n      swap1\n      dup2\n      tag_80\n      swap2\n      swap1\n      tag_78\n      jump\t// in\n    tag_80:\n      pop\n      0x80\n      dup3\n      add\n      mload\n      dup2\n      0x04\n      add\n      sstore\n      0xa0\n      dup3\n      add\n      mload\n      dup2\n      0x05\n      add\n      sstore\n      0xc0\n      dup3\n      add\n      mload\n      dup2\n      0x06\n      add\n      sstore\n      swap1\n      pop\n      pop\n        /* \"contracts/My_blog_App.sol\":1240:1243  _id */\n      dup2\n        /* \"contracts/My_blog_App.sol\":1227:1278  Postcreation(_id, _title, _author, block.timestamp) */\n      0x17f34748f078a06d3c7c034ef1cdf60a8b2baf4592df676d3a2ae61596619f98\n        /* \"contracts/My_blog_App.sol\":1245:1251  _title */\n      dup6\n        /* \"contracts/My_blog_App.sol\":1253:1260  _author */\n      dup8\n        /* \"contracts/My_blog_App.sol\":1262:1277  block.timestamp */\n      timestamp\n        /* \"contracts/My_blog_App.sol\":1227:1278  Postcreation(_id, _title, _author, block.timestamp) */\n      mload(0x40)\n      tag_81\n      swap4\n      swap3\n      swap2\n      swap1\n      tag_82\n      jump\t// in\n    tag_81:\n      mload(0x40)\n      dup1\n      swap2\n      sub\n      swap1\n      log2\n        /* \"contracts/My_blog_App.sol\":704:1286  {... */\n      pop\n      pop\n        /* \"contracts/My_blog_App.sol\":598:1286  function createPost(string memory _author, string memory _title, string memory _contentHash) public ... */\n      pop\n      pop\n      pop\n      jump\t// out\n    tag_31:\n      mload(0x40)\n      dup1\n      0xe0\n      add\n      0x40\n      mstore\n      dup1\n      0x00\n      dup2\n      mstore\n      0x20\n      add\n      0x60\n      dup2\n      mstore\n      0x20\n      add\n      0x60\n      dup2\n      mstore\n      0x20\n      add\n      0x60\n      dup2\n      mstore\n      0x20\n      add\n      0x00\n      dup2\n      mstore\n      0x20\n      add\n      0x00\n      dup2\n      mstore\n      0x20\n      add\n      0x00\n      dup2\n      mstore\n      pop\n      swap1\n      jump\t// out\n        /* \"#utility.yul\":7:82   */\n    tag_83:\n        /* \"#utility.yul\":40:46   */\n      0x00\n        /* \"#utility.yul\":73:75   */\n      0x40\n        /* \"#utility.yul\":67:76   */\n      mload\n        /* \"#utility.yul\":57:76   */\n      swap1\n      pop\n        /* \"#utility.yul\":7:82   */\n      swap1\n      jump\t// out\n        /* \"#utility.yul\":88:205   */\n    tag_84:\n        /* \"#utility.yul\":197:198   */\n      0x00\n        /* \"#utility.yul\":194:195   */\n      0x00\n        /* \"#utility.yul\":187:199   */\n      revert\n        /* \"#utility.yul\":211:328   */\n    tag_85:\n        /* \"#utility.yul\":320:321   */\n      0x00\n        /* \"#utility.yul\":317:318   */\n      0x00\n        /* \"#utility.yul\":310:322   */\n      revert\n        /* \"#utility.yul\":334:460   */\n    tag_86:\n        /* \"#utility.yul\":371:378   */\n      0x00\n        /* \"#utility.yul\":411:453   */\n      0xffffffffffffffffffffffffffffffffffffffff\n        /* \"#utility.yul\":404:409   */\n      dup3\n        /* \"#utility.yul\":400:454   */\n      and\n        /* \"#utility.yul\":389:454   */\n      swap1\n      pop\n        /* \"#utility.yul\":334:460   */\n      swap2\n      swap1\n      pop\n      jump\t// out\n        /* \"#utility.yul\":466:562   */\n    tag_87:\n        /* \"#utility.yul\":503:510   */\n      0x00\n        /* \"#utility.yul\":532:556   */\n      tag_150\n        /* \"#utility.yul\":550:555   */\n      dup3\n        /* \"#utility.yul\":532:556   */\n      tag_86\n      jump\t// in\n    tag_150:\n        /* \"#utility.yul\":521:556   */\n      swap1\n      pop\n        /* \"#utility.yul\":466:562   */\n      swap2\n      swap1\n      pop\n      jump\t// out\n        /* \"#utility.yul\":568:690   */\n    tag_88:\n        /* \"#utility.yul\":641:665   */\n      tag_152\n        /* \"#utility.yul\":659:664   */\n      dup2\n        /* \"#utility.yul\":641:665   */\n      tag_87\n      jump\t// in\n    tag_152:\n        /* \"#utility.yul\":634:639   */\n      dup2\n        /* \"#utility.yul\":631:666   */\n      eq\n        /* \"#utility.yul\":621:684   */\n      tag_153\n      jumpi\n        /* \"#utility.yul\":680:681   */\n      0x00\n        /* \"#utility.yul\":677:678   */\n      0x00\n        /* \"#utility.yul\":670:682   */\n      revert\n        /* \"#utility.yul\":621:684   */\n    tag_153:\n        /* \"#utility.yul\":568:690   */\n      pop\n      jump\t// out\n        /* \"#utility.yul\":696:835   */\n    tag_89:\n        /* \"#utility.yul\":742:747   */\n      0x00\n        /* \"#utility.yul\":780:786   */\n      dup2\n        /* \"#utility.yul\":767:787   */\n      calldataload\n        /* \"#utility.yul\":758:787   */\n      swap1\n      pop\n        /* \"#utility.yul\":796:829   */\n      tag_155\n        /* \"#utility.yul\":823:828   */\n      dup2\n        /* \"#utility.yul\":796:829   */\n      tag_88\n      jump\t// in\n    tag_155:\n        /* \"#utility.yul\":696:835   */\n      swap3\n      swap2\n      pop\n      pop\n      jump\t// out\n        /* \"#utility.yul\":841:1170   */\n    tag_8:\n        /* \"#utility.yul\":900:906   */\n      0x00\n        /* \"#utility.yul\":949:951   */\n      0x20\n        /* \"#utility.yul\":937:946   */\n      dup3\n        /* \"#utility.yul\":928:935   */\n      dup5\n        /* \"#utility.yul\":924:947   */\n      sub\n        /* \"#utility.yul\":920:952   */\n      slt\n        /* \"#utility.yul\":917:1036   */\n      iszero\n      tag_157\n      jumpi\n        /* \"#utility.yul\":955:1034   */\n      tag_158\n      tag_84\n      jump\t// in\n    tag_158:\n        /* \"#utility.yul\":917:1036   */\n    tag_157:\n        /* \"#utility.yul\":1075:1076   */\n      0x00\n        /* \"#utility.yul\":1100:1153   */\n      tag_159\n        /* \"#utility.yul\":1145:1152   */\n      dup5\n        /* \"#utility.yul\":1136:1142   */\n      dup3\n        /* \"#utility.yul\":1125:1134   */\n      dup6\n        /* \"#utility.yul\":1121:1143   */\n      add\n        /* \"#utility.yul\":1100:1153   */\n      tag_89\n      jump\t// in\n    tag_159:\n        /* \"#utility.yul\":1090:1153   */\n      swap2\n      pop\n        /* \"#utility.yul\":1046:1163   */\n      pop\n        /* \"#utility.yul\":841:1170   */\n      swap3\n      swap2\n      pop\n      pop\n      jump\t// out\n        /* \"#utility.yul\":1176:1310   */\n    tag_90:\n        /* \"#utility.yul\":1263:1269   */\n      0x00\n        /* \"#utility.yul\":1297:1302   */\n      dup2\n        /* \"#utility.yul\":1291:1303   */\n      mload\n        /* \"#utility.yul\":1281:1303   */\n      swap1\n      pop\n        /* \"#utility.yul\":1176:1310   */\n      swap2\n      swap1\n      pop\n      jump\t// out\n        /* \"#utility.yul\":1316:1520   */\n    tag_91:\n        /* \"#utility.yul\":1435:1446   */\n      0x00\n        /* \"#utility.yul\":1469:1475   */\n      dup3\n        /* \"#utility.yul\":1464:1467   */\n      dup3\n        /* \"#utility.yul\":1457:1476   */\n      mstore\n        /* \"#utility.yul\":1509:1513   */\n      0x20\n        /* \"#utility.yul\":1504:1507   */\n      dup3\n        /* \"#utility.yul\":1500:1514   */\n      add\n        /* \"#utility.yul\":1485:1514   */\n      swap1\n      pop\n        /* \"#utility.yul\":1316:1520   */\n      swap3\n      swap2\n      pop\n      pop\n      jump\t// out\n        /* \"#utility.yul\":1526:1678   */\n    tag_92:\n        /* \"#utility.yul\":1613:1617   */\n      0x00\n        /* \"#utility.yul\":1636:1639   */\n      dup2\n        /* \"#utility.yul\":1628:1639   */\n      swap1\n      pop\n        /* \"#utility.yul\":1666:1670   */\n      0x20\n        /* \"#utility.yul\":1661:1664   */\n      dup3\n        /* \"#utility.yul\":1657:1671   */\n      add\n        /* \"#utility.yul\":1649:1671   */\n      swap1\n      pop\n        /* \"#utility.yul\":1526:1678   */\n      swap2\n      swap1\n      pop\n      jump\t// out\n        /* \"#utility.yul\":1684:1761   */\n    tag_93:\n        /* \"#utility.yul\":1721:1728   */\n      0x00\n        /* \"#utility.yul\":1750:1755   */\n      dup2\n        /* \"#utility.yul\":1739:1755   */\n      swap1\n      pop\n        /* \"#utility.yul\":1684:1761   */\n      swap2\n      swap1\n      pop\n      jump\t// out\n        /* \"#utility.yul\":1767:1875   */\n    tag_94:\n        /* \"#utility.yul\":1844:1868   */\n      tag_165\n        /* \"#utility.yul\":1862:1867   */\n      dup2\n        /* \"#utility.yul\":1844:1868   */\n      tag_93\n      jump\t// in\n    tag_165:\n        /* \"#utility.yul\":1839:1842   */\n      dup3\n        /* \"#utility.yul\":1832:1869   */\n      mstore\n        /* \"#utility.yul\":1767:1875   */\n      pop\n      pop\n      jump\t// out\n        /* \"#utility.yul\":1881:1980   */\n    tag_95:\n        /* \"#utility.yul\":1933:1939   */\n      0x00\n        /* \"#utility.yul\":1967:1972   */\n      dup2\n        /* \"#utility.yul\":1961:1973   */\n      mload\n        /* \"#utility.yul\":1951:1973   */\n      swap1\n      pop\n        /* \"#utility.yul\":1881:1980   */\n      swap2\n      swap1\n      pop\n      jump\t// out\n        /* \"#utility.yul\":1986:2145   */\n    tag_96:\n        /* \"#utility.yul\":2060:2071   */\n      0x00\n        /* \"#utility.yul\":2094:2100   */\n      dup3\n        /* \"#utility.yul\":2089:2092   */\n      dup3\n        /* \"#utility.yul\":2082:2101   */\n      mstore\n        /* \"#utility.yul\":2134:2138   */\n      0x20\n        /* \"#utility.yul\":2129:2132   */\n      dup3\n        /* \"#utility.yul\":2125:2139   */\n      add\n        /* \"#utility.yul\":2110:2139   */\n      swap1\n      pop\n        /* \"#utility.yul\":1986:2145   */\n      swap3\n      swap2\n      pop\n      pop\n      jump\t// out\n        /* \"#utility.yul\":2151:2290   */\n    tag_97:\n        /* \"#utility.yul\":2240:2246   */\n      dup3\n        /* \"#utility.yul\":2235:2238   */\n      dup2\n        /* \"#utility.yul\":2230:2233   */\n      dup4\n        /* \"#utility.yul\":2224:2247   */\n      mcopy\n        /* \"#utility.yul\":2281:2282   */\n      0x00\n        /* \"#utility.yul\":2272:2278   */\n      dup4\n        /* \"#utility.yul\":2267:2270   */\n      dup4\n        /* \"#utility.yul\":2263:2279   */\n      add\n        /* \"#utility.yul\":2256:2283   */\n      mstore\n        /* \"#utility.yul\":2151:2290   */\n      pop\n      pop\n      pop\n      jump\t// out\n        /* \"#utility.yul\":2296:2398   */\n    tag_98:\n        /* \"#utility.yul\":2337:2343   */\n      0x00\n        /* \"#utility.yul\":2388:2390   */\n      0x1f\n        /* \"#utility.yul\":2384:2391   */\n      not\n        /* \"#utility.yul\":2379:2381   */\n      0x1f\n        /* \"#utility.yul\":2372:2377   */\n      dup4\n        /* \"#utility.yul\":2368:2382   */\n      add\n        /* \"#utility.yul\":2364:2392   */\n      and\n        /* \"#utility.yul\":2354:2392   */\n      swap1\n      pop\n        /* \"#utility.yul\":2296:2398   */\n      swap2\n      swap1\n      pop\n      jump\t// out\n        /* \"#utility.yul\":2404:2761   */\n    tag_99:\n        /* \"#utility.yul\":2482:2485   */\n      0x00\n        /* \"#utility.yul\":2510:2549   */\n      tag_171\n        /* \"#utility.yul\":2543:2548   */\n      dup3\n        /* \"#utility.yul\":2510:2549   */\n      tag_95\n      jump\t// in\n    tag_171:\n        /* \"#utility.yul\":2565:2626   */\n      tag_172\n        /* \"#utility.yul\":2619:2625   */\n      dup2\n        /* \"#utility.yul\":2614:2617   */\n      dup6\n        /* \"#utility.yul\":2565:2626   */\n      tag_96\n      jump\t// in\n    tag_172:\n        /* \"#utility.yul\":2558:2626   */\n      swap4\n      pop\n        /* \"#utility.yul\":2635:2700   */\n      tag_173\n        /* \"#utility.yul\":2693:2699   */\n      dup2\n        /* \"#utility.yul\":2688:2691   */\n      dup6\n        /* \"#utility.yul\":2681:2685   */\n      0x20\n        /* \"#utility.yul\":2674:2679   */\n      dup7\n        /* \"#utility.yul\":2670:2686   */\n      add\n        /* \"#utility.yul\":2635:2700   */\n      tag_97\n      jump\t// in\n    tag_173:\n        /* \"#utility.yul\":2725:2754   */\n      tag_174\n        /* \"#utility.yul\":2747:2753   */\n      dup2\n        /* \"#utility.yul\":2725:2754   */\n      tag_98\n      jump\t// in\n    tag_174:\n        /* \"#utility.yul\":2720:2723   */\n      dup5\n        /* \"#utility.yul\":2716:2755   */\n      add\n        /* \"#utility.yul\":2709:2755   */\n      swap2\n      pop\n        /* \"#utility.yul\":2486:2761   */\n      pop\n        /* \"#utility.yul\":2404:2761   */\n      swap3\n      swap2\n      pop\n      pop\n      jump\t// out\n        /* \"#utility.yul\":2767:2844   */\n    tag_100:\n        /* \"#utility.yul\":2804:2811   */\n      0x00\n        /* \"#utility.yul\":2833:2838   */\n      dup2\n        /* \"#utility.yul\":2822:2838   */\n      swap1\n      pop\n        /* \"#utility.yul\":2767:2844   */\n      swap2\n      swap1\n      pop\n      jump\t// out\n        /* \"#utility.yul\":2850:2958   */\n    tag_101:\n        /* \"#utility.yul\":2927:2951   */\n      tag_177\n        /* \"#utility.yul\":2945:2950   */\n      dup2\n        /* \"#utility.yul\":2927:2951   */\n      tag_100\n      jump\t// in\n    tag_177:\n        /* \"#utility.yul\":2922:2925   */\n      dup3\n        /* \"#utility.yul\":2915:2952   */\n      mstore\n        /* \"#utility.yul\":2850:2958   */\n      pop\n      pop\n      jump\t// out\n        /* \"#utility.yul\":3018:4635   */\n    tag_102:\n        /* \"#utility.yul\":3117:3120   */\n      0x00\n        /* \"#utility.yul\":3153:3157   */\n      0xe0\n        /* \"#utility.yul\":3148:3151   */\n      dup4\n        /* \"#utility.yul\":3144:3158   */\n      add\n        /* \"#utility.yul\":3238:3242   */\n      0x00\n        /* \"#utility.yul\":3231:3236   */\n      dup4\n        /* \"#utility.yul\":3227:3243   */\n      add\n        /* \"#utility.yul\":3221:3244   */\n      mload\n        /* \"#utility.yul\":3257:3320   */\n      tag_179\n        /* \"#utility.yul\":3314:3318   */\n      0x00\n        /* \"#utility.yul\":3309:3312   */\n      dup7\n        /* \"#utility.yul\":3305:3319   */\n      add\n        /* \"#utility.yul\":3291:3303   */\n      dup3\n        /* \"#utility.yul\":3257:3320   */\n      tag_94\n      jump\t// in\n    tag_179:\n        /* \"#utility.yul\":3168:3330   */\n      pop\n        /* \"#utility.yul\":3414:3418   */\n      0x20\n        /* \"#utility.yul\":3407:3412   */\n      dup4\n        /* \"#utility.yul\":3403:3419   */\n      add\n        /* \"#utility.yul\":3397:3420   */\n      mload\n        /* \"#utility.yul\":3467:3470   */\n      dup5\n        /* \"#utility.yul\":3461:3465   */\n      dup3\n        /* \"#utility.yul\":3457:3471   */\n      sub\n        /* \"#utility.yul\":3450:3454   */\n      0x20\n        /* \"#utility.yul\":3445:3448   */\n      dup7\n        /* \"#utility.yul\":3441:3455   */\n      add\n        /* \"#utility.yul\":3434:3472   */\n      mstore\n        /* \"#utility.yul\":3493:3566   */\n      tag_180\n        /* \"#utility.yul\":3561:3565   */\n      dup3\n        /* \"#utility.yul\":3547:3559   */\n      dup3\n        /* \"#utility.yul\":3493:3566   */\n      tag_99\n      jump\t// in\n    tag_180:\n        /* \"#utility.yul\":3485:3566   */\n      swap2\n      pop\n        /* \"#utility.yul\":3340:3577   */\n      pop\n        /* \"#utility.yul\":3660:3664   */\n      0x40\n        /* \"#utility.yul\":3653:3658   */\n      dup4\n        /* \"#utility.yul\":3649:3665   */\n      add\n        /* \"#utility.yul\":3643:3666   */\n      mload\n        /* \"#utility.yul\":3713:3716   */\n      dup5\n        /* \"#utility.yul\":3707:3711   */\n      dup3\n        /* \"#utility.yul\":3703:3717   */\n      sub\n        /* \"#utility.yul\":3696:3700   */\n      0x40\n        /* \"#utility.yul\":3691:3694   */\n      dup7\n        /* \"#utility.yul\":3687:3701   */\n      add\n        /* \"#utility.yul\":3680:3718   */\n      mstore\n        /* \"#utility.yul\":3739:3812   */\n      tag_181\n        /* \"#utility.yul\":3807:3811   */\n      dup3\n        /* \"#utility.yul\":3793:3805   */\n      dup3\n        /* \"#utility.yul\":3739:3812   */\n      tag_99\n      jump\t// in\n    tag_181:\n        /* \"#utility.yul\":3731:3812   */\n      swap2\n      pop\n        /* \"#utility.yul\":3587:3823   */\n      pop\n        /* \"#utility.yul\":3912:3916   */\n      0x60\n        /* \"#utility.yul\":3905:3910   */\n      dup4\n        /* \"#utility.yul\":3901:3917   */\n      add\n        /* \"#utility.yul\":3895:3918   */\n      mload\n        /* \"#utility.yul\":3965:3968   */\n      dup5\n        /* \"#utility.yul\":3959:3963   */\n      dup3\n        /* \"#utility.yul\":3955:3969   */\n      sub\n        /* \"#utility.yul\":3948:3952   */\n      0x60\n        /* \"#utility.yul\":3943:3946   */\n      dup7\n        /* \"#utility.yul\":3939:3953   */\n      add\n        /* \"#utility.yul\":3932:3970   */\n      mstore\n        /* \"#utility.yul\":3991:4064   */\n      tag_182\n        /* \"#utility.yul\":4059:4063   */\n      dup3\n        /* \"#utility.yul\":4045:4057   */\n      dup3\n        /* \"#utility.yul\":3991:4064   */\n      tag_99\n      jump\t// in\n    tag_182:\n        /* \"#utility.yul\":3983:4064   */\n      swap2\n      pop\n        /* \"#utility.yul\":3833:4075   */\n      pop\n        /* \"#utility.yul\":4159:4163   */\n      0x80\n        /* \"#utility.yul\":4152:4157   */\n      dup4\n        /* \"#utility.yul\":4148:4164   */\n      add\n        /* \"#utility.yul\":4142:4165   */\n      mload\n        /* \"#utility.yul\":4178:4241   */\n      tag_183\n        /* \"#utility.yul\":4235:4239   */\n      0x80\n        /* \"#utility.yul\":4230:4233   */\n      dup7\n        /* \"#utility.yul\":4226:4240   */\n      add\n        /* \"#utility.yul\":4212:4224   */\n      dup3\n        /* \"#utility.yul\":4178:4241   */\n      tag_101\n      jump\t// in\n    tag_183:\n        /* \"#utility.yul\":4085:4251   */\n      pop\n        /* \"#utility.yul\":4337:4341   */\n      0xa0\n        /* \"#utility.yul\":4330:4335   */\n      dup4\n        /* \"#utility.yul\":4326:4342   */\n      add\n        /* \"#utility.yul\":4320:4343   */\n      mload\n        /* \"#utility.yul\":4356:4419   */\n      tag_184\n        /* \"#utility.yul\":4413:4417   */\n      0xa0\n        /* \"#utility.yul\":4408:4411   */\n      dup7\n        /* \"#utility.yul\":4404:4418   */\n      add\n        /* \"#utility.yul\":4390:4402   */\n      dup3\n        /* \"#utility.yul\":4356:4419   */\n      tag_101\n      jump\t// in\n    tag_184:\n        /* \"#utility.yul\":4261:4429   */\n      pop\n        /* \"#utility.yul\":4516:4520   */\n      0xc0\n        /* \"#utility.yul\":4509:4514   */\n      dup4\n        /* \"#utility.yul\":4505:4521   */\n      add\n        /* \"#utility.yul\":4499:4522   */\n      mload\n        /* \"#utility.yul\":4535:4598   */\n      tag_185\n        /* \"#utility.yul\":4592:4596   */\n      0xc0\n        /* \"#utility.yul\":4587:4590   */\n      dup7\n        /* \"#utility.yul\":4583:4597   */\n      add\n        /* \"#utility.yul\":4569:4581   */\n      dup3\n        /* \"#utility.yul\":4535:4598   */\n      tag_101\n      jump\t// in\n    tag_185:\n        /* \"#utility.yul\":4439:4608   */\n      pop\n        /* \"#utility.yul\":4625:4629   */\n      dup1\n        /* \"#utility.yul\":4618:4629   */\n      swap2\n      pop\n        /* \"#utility.yul\":3122:4635   */\n      pop\n        /* \"#utility.yul\":3018:4635   */\n      swap3\n      swap2\n      pop\n      pop\n      jump\t// out\n        /* \"#utility.yul\":4641:4877   */\n    tag_103:\n        /* \"#utility.yul\":4750:4760   */\n      0x00\n        /* \"#utility.yul\":4785:4871   */\n      tag_187\n        /* \"#utility.yul\":4867:4870   */\n      dup4\n        /* \"#utility.yul\":4859:4865   */\n      dup4\n        /* \"#utility.yul\":4785:4871   */\n      tag_102\n      jump\t// in\n    tag_187:\n        /* \"#utility.yul\":4771:4871   */\n      swap1\n      pop\n        /* \"#utility.yul\":4641:4877   */\n      swap3\n      swap2\n      pop\n      pop\n      jump\t// out\n        /* \"#utility.yul\":4883:5016   */\n    tag_104:\n        /* \"#utility.yul\":4973:4977   */\n      0x00\n        /* \"#utility.yul\":5005:5009   */\n      0x20\n        /* \"#utility.yul\":5000:5003   */\n      dup3\n        /* \"#utility.yul\":4996:5010   */\n      add\n        /* \"#utility.yul\":4988:5010   */\n      swap1\n      pop\n        /* \"#utility.yul\":4883:5016   */\n      swap2\n      swap1\n      pop\n      jump\t// out\n        /* \"#utility.yul\":5080:6151   */\n    tag_105:\n        /* \"#utility.yul\":5239:5242   */\n      0x00\n        /* \"#utility.yul\":5268:5342   */\n      tag_190\n        /* \"#utility.yul\":5336:5341   */\n      dup3\n        /* \"#utility.yul\":5268:5342   */\n      tag_90\n      jump\t// in\n    tag_190:\n        /* \"#utility.yul\":5358:5464   */\n      tag_191\n        /* \"#utility.yul\":5457:5463   */\n      dup2\n        /* \"#utility.yul\":5452:5455   */\n      dup6\n        /* \"#utility.yul\":5358:5464   */\n      tag_91\n      jump\t// in\n    tag_191:\n        /* \"#utility.yul\":5351:5464   */\n      swap4\n      pop\n        /* \"#utility.yul\":5490:5493   */\n      dup4\n        /* \"#utility.yul\":5535:5539   */\n      0x20\n        /* \"#utility.yul\":5527:5533   */\n      dup3\n        /* \"#utility.yul\":5523:5540   */\n      mul\n        /* \"#utility.yul\":5518:5521   */\n      dup6\n        /* \"#utility.yul\":5514:5541   */\n      add\n        /* \"#utility.yul\":5565:5641   */\n      tag_192\n        /* \"#utility.yul\":5635:5640   */\n      dup6\n        /* \"#utility.yul\":5565:5641   */\n      tag_92\n      jump\t// in\n    tag_192:\n        /* \"#utility.yul\":5664:5671   */\n      dup1\n        /* \"#utility.yul\":5695:5696   */\n      0x00\n        /* \"#utility.yul\":5680:6106   */\n    tag_193:\n        /* \"#utility.yul\":5705:5711   */\n      dup6\n        /* \"#utility.yul\":5702:5703   */\n      dup2\n        /* \"#utility.yul\":5699:5712   */\n      lt\n        /* \"#utility.yul\":5680:6106   */\n      iszero\n      tag_195\n      jumpi\n        /* \"#utility.yul\":5776:5785   */\n      dup5\n        /* \"#utility.yul\":5770:5774   */\n      dup5\n        /* \"#utility.yul\":5766:5786   */\n      sub\n        /* \"#utility.yul\":5761:5764   */\n      dup10\n        /* \"#utility.yul\":5754:5787   */\n      mstore\n        /* \"#utility.yul\":5827:5833   */\n      dup2\n        /* \"#utility.yul\":5821:5834   */\n      mload\n        /* \"#utility.yul\":5855:5959   */\n      tag_196\n        /* \"#utility.yul\":5954:5958   */\n      dup6\n        /* \"#utility.yul\":5939:5952   */\n      dup3\n        /* \"#utility.yul\":5855:5959   */\n      tag_103\n      jump\t// in\n    tag_196:\n        /* \"#utility.yul\":5847:5959   */\n      swap5\n      pop\n        /* \"#utility.yul\":5982:6062   */\n      tag_197\n        /* \"#utility.yul\":6055:6061   */\n      dup4\n        /* \"#utility.yul\":5982:6062   */\n      tag_104\n      jump\t// in\n    tag_197:\n        /* \"#utility.yul\":5972:6062   */\n      swap3\n      pop\n        /* \"#utility.yul\":6091:6095   */\n      0x20\n        /* \"#utility.yul\":6086:6089   */\n      dup11\n        /* \"#utility.yul\":6082:6096   */\n      add\n        /* \"#utility.yul\":6075:6096   */\n      swap10\n      pop\n        /* \"#utility.yul\":5740:6106   */\n      pop\n        /* \"#utility.yul\":5727:5728   */\n      0x01\n        /* \"#utility.yul\":5724:5725   */\n      dup2\n        /* \"#utility.yul\":5720:5729   */\n      add\n        /* \"#utility.yul\":5715:5729   */\n      swap1\n      pop\n        /* \"#utility.yul\":5680:6106   */\n      jump(tag_193)\n    tag_195:\n        /* \"#utility.yul\":5684:5698   */\n      pop\n        /* \"#utility.yul\":6122:6126   */\n      dup3\n        /* \"#utility.yul\":6115:6126   */\n      swap8\n      pop\n        /* \"#utility.yul\":6142:6145   */\n      dup8\n        /* \"#utility.yul\":6135:6145   */\n      swap6\n      pop\n        /* \"#utility.yul\":5244:6151   */\n      pop\n      pop\n      pop\n      pop\n      pop\n        /* \"#utility.yul\":5080:6151   */\n      swap3\n      swap2\n      pop\n      pop\n      jump\t// out\n        /* \"#utility.yul\":6157:6610   */\n    tag_11:\n        /* \"#utility.yul\":6340:6344   */\n      0x00\n        /* \"#utility.yul\":6378:6380   */\n      0x20\n        /* \"#utility.yul\":6367:6376   */\n      dup3\n        /* \"#utility.yul\":6363:6381   */\n      add\n        /* \"#utility.yul\":6355:6381   */\n      swap1\n      pop\n        /* \"#utility.yul\":6427:6436   */\n      dup2\n        /* \"#utility.yul\":6421:6425   */\n      dup2\n        /* \"#utility.yul\":6417:6437   */\n      sub\n        /* \"#utility.yul\":6413:6414   */\n      0x00\n        /* \"#utility.yul\":6402:6411   */\n      dup4\n        /* \"#utility.yul\":6398:6415   */\n      add\n        /* \"#utility.yul\":6391:6438   */\n      mstore\n        /* \"#utility.yul\":6455:6603   */\n      tag_199\n        /* \"#utility.yul\":6598:6602   */\n      dup2\n        /* \"#utility.yul\":6589:6595   */\n      dup5\n        /* \"#utility.yul\":6455:6603   */\n      tag_105\n      jump\t// in\n    tag_199:\n        /* \"#utility.yul\":6447:6603   */\n      swap1\n      pop\n        /* \"#utility.yul\":6157:6610   */\n      swap3\n      swap2\n      pop\n      pop\n      jump\t// out\n        /* \"#utility.yul\":6616:6738   */\n    tag_106:\n        /* \"#utility.yul\":6689:6713   */\n      tag_201\n        /* \"#utility.yul\":6707:6712   */\n      dup2\n        /* \"#utility.yul\":6689:6713   */\n      tag_93\n      jump\t// in\n    tag_201:\n        /* \"#utility.yul\":6682:6687   */\n      dup2\n        /* \"#utility.yul\":6679:6714   */\n      eq\n        /* \"#utility.yul\":6669:6732   */\n      tag_202\n      jumpi\n        /* \"#utility.yul\":6728:6729   */\n      0x00\n        /* \"#utility.yul\":6725:6726   */\n      0x00\n        /* \"#utility.yul\":6718:6730   */\n      revert\n        /* \"#utility.yul\":6669:6732   */\n    tag_202:\n        /* \"#utility.yul\":6616:6738   */\n      pop\n      jump\t// out\n        /* \"#utility.yul\":6744:6883   */\n    tag_107:\n        /* \"#utility.yul\":6790:6795   */\n      0x00\n        /* \"#utility.yul\":6828:6834   */\n      dup2\n        /* \"#utility.yul\":6815:6835   */\n      calldataload\n        /* \"#utility.yul\":6806:6835   */\n      swap1\n      pop\n        /* \"#utility.yul\":6844:6877   */\n      tag_204\n        /* \"#utility.yul\":6871:6876   */\n      dup2\n        /* \"#utility.yul\":6844:6877   */\n      tag_106\n      jump\t// in\n    tag_204:\n        /* \"#utility.yul\":6744:6883   */\n      swap3\n      swap2\n      pop\n      pop\n      jump\t// out\n        /* \"#utility.yul\":6889:7218   */\n    tag_14:\n        /* \"#utility.yul\":6948:6954   */\n      0x00\n        /* \"#utility.yul\":6997:6999   */\n      0x20\n        /* \"#utility.yul\":6985:6994   */\n      dup3\n        /* \"#utility.yul\":6976:6983   */\n      dup5\n        /* \"#utility.yul\":6972:6995   */\n      sub\n        /* \"#utility.yul\":6968:7000   */\n      slt\n        /* \"#utility.yul\":6965:7084   */\n      iszero\n      tag_206\n      jumpi\n        /* \"#utility.yul\":7003:7082   */\n      tag_207\n      tag_84\n      jump\t// in\n    tag_207:\n        /* \"#utility.yul\":6965:7084   */\n    tag_206:\n        /* \"#utility.yul\":7123:7124   */\n      0x00\n        /* \"#utility.yul\":7148:7201   */\n      tag_208\n        /* \"#utility.yul\":7193:7200   */\n      dup5\n        /* \"#utility.yul\":7184:7190   */\n      dup3\n        /* \"#utility.yul\":7173:7182   */\n      dup6\n        /* \"#utility.yul\":7169:7191   */\n      add\n        /* \"#utility.yul\":7148:7201   */\n      tag_107\n      jump\t// in\n    tag_208:\n        /* \"#utility.yul\":7138:7201   */\n      swap2\n      pop\n        /* \"#utility.yul\":7094:7211   */\n      pop\n        /* \"#utility.yul\":6889:7218   */\n      swap3\n      swap2\n      pop\n      pop\n      jump\t// out\n        /* \"#utility.yul\":7278:8905   */\n    tag_108:\n        /* \"#utility.yul\":7387:7390   */\n      0x00\n        /* \"#utility.yul\":7423:7427   */\n      0xe0\n        /* \"#utility.yul\":7418:7421   */\n      dup4\n        /* \"#utility.yul\":7414:7428   */\n      add\n        /* \"#utility.yul\":7508:7512   */\n      0x00\n        /* \"#utility.yul\":7501:7506   */\n      dup4\n        /* \"#utility.yul\":7497:7513   */\n      add\n        /* \"#utility.yul\":7491:7514   */\n      mload\n        /* \"#utility.yul\":7527:7590   */\n      tag_210\n        /* \"#utility.yul\":7584:7588   */\n      0x00\n        /* \"#utility.yul\":7579:7582   */\n      dup7\n        /* \"#utility.yul\":7575:7589   */\n      add\n        /* \"#utility.yul\":7561:7573   */\n      dup3\n        /* \"#utility.yul\":7527:7590   */\n      tag_94\n      jump\t// in\n    tag_210:\n        /* \"#utility.yul\":7438:7600   */\n      pop\n        /* \"#utility.yul\":7684:7688   */\n      0x20\n        /* \"#utility.yul\":7677:7682   */\n      dup4\n        /* \"#utility.yul\":7673:7689   */\n      add\n        /* \"#utility.yul\":7667:7690   */\n      mload\n        /* \"#utility.yul\":7737:7740   */\n      dup5\n        /* \"#utility.yul\":7731:7735   */\n      dup3\n        /* \"#utility.yul\":7727:7741   */\n      sub\n        /* \"#utility.yul\":7720:7724   */\n      0x20\n        /* \"#utility.yul\":7715:7718   */\n      dup7\n        /* \"#utility.yul\":7711:7725   */\n      add\n        /* \"#utility.yul\":7704:7742   */\n      mstore\n        /* \"#utility.yul\":7763:7836   */\n      tag_211\n        /* \"#utility.yul\":7831:7835   */\n      dup3\n        /* \"#utility.yul\":7817:7829   */\n      dup3\n        /* \"#utility.yul\":7763:7836   */\n      tag_99\n      jump\t// in\n    tag_211:\n        /* \"#utility.yul\":7755:7836   */\n      swap2\n      pop\n        /* \"#utility.yul\":7610:7847   */\n      pop\n        /* \"#utility.yul\":7930:7934   */\n      0x40\n        /* \"#utility.yul\":7923:7928   */\n      dup4\n        /* \"#utility.yul\":7919:7935   */\n      add\n        /* \"#utility.yul\":7913:7936   */\n      mload\n        /* \"#utility.yul\":7983:7986   */\n      dup5\n        /* \"#utility.yul\":7977:7981   */\n      dup3\n        /* \"#utility.yul\":7973:7987   */\n      sub\n        /* \"#utility.yul\":7966:7970   */\n      0x40\n        /* \"#utility.yul\":7961:7964   */\n      dup7\n        /* \"#utility.yul\":7957:7971   */\n      add\n        /* \"#utility.yul\":7950:7988   */\n      mstore\n        /* \"#utility.yul\":8009:8082   */\n      tag_212\n        /* \"#utility.yul\":8077:8081   */\n      dup3\n        /* \"#utility.yul\":8063:8075   */\n      dup3\n        /* \"#utility.yul\":8009:8082   */\n      tag_99\n      jump\t// in\n    tag_212:\n        /* \"#utility.yul\":8001:8082   */\n      swap2\n      pop\n        /* \"#utility.yul\":7857:8093   */\n      pop\n        /* \"#utility.yul\":8182:8186   */\n      0x60\n        /* \"#utility.yul\":8175:8180   */\n      dup4\n        /* \"#utility.yul\":8171:8187   */\n      add\n        /* \"#utility.yul\":8165:8188   */\n      mload\n        /* \"#utility.yul\":8235:8238   */\n      dup5\n        /* \"#utility.yul\":8229:8233   */\n      dup3\n        /* \"#utility.yul\":8225:8239   */\n      sub\n        /* \"#utility.yul\":8218:8222   */\n      0x60\n        /* \"#utility.yul\":8213:8216   */\n      dup7\n        /* \"#utility.yul\":8209:8223   */\n      add\n        /* \"#utility.yul\":8202:8240   */\n      mstore\n        /* \"#utility.yul\":8261:8334   */\n      tag_213\n        /* \"#utility.yul\":8329:8333   */\n      dup3\n        /* \"#utility.yul\":8315:8327   */\n      dup3\n        /* \"#utility.yul\":8261:8334   */\n      tag_99\n      jump\t// in\n    tag_213:\n        /* \"#utility.yul\":8253:8334   */\n      swap2\n      pop\n        /* \"#utility.yul\":8103:8345   */\n      pop\n        /* \"#utility.yul\":8429:8433   */\n      0x80\n        /* \"#utility.yul\":8422:8427   */\n      dup4\n        /* \"#utility.yul\":8418:8434   */\n      add\n        /* \"#utility.yul\":8412:8435   */\n      mload\n        /* \"#utility.yul\":8448:8511   */\n      tag_214\n        /* \"#utility.yul\":8505:8509   */\n      0x80\n        /* \"#utility.yul\":8500:8503   */\n      dup7\n        /* \"#utility.yul\":8496:8510   */\n      add\n        /* \"#utility.yul\":8482:8494   */\n      dup3\n        /* \"#utility.yul\":8448:8511   */\n      tag_101\n      jump\t// in\n    tag_214:\n        /* \"#utility.yul\":8355:8521   */\n      pop\n        /* \"#utility.yul\":8607:8611   */\n      0xa0\n        /* \"#utility.yul\":8600:8605   */\n      dup4\n        /* \"#utility.yul\":8596:8612   */\n      add\n        /* \"#utility.yul\":8590:8613   */\n      mload\n        /* \"#utility.yul\":8626:8689   */\n      tag_215\n        /* \"#utility.yul\":8683:8687   */\n      0xa0\n        /* \"#utility.yul\":8678:8681   */\n      dup7\n        /* \"#utility.yul\":8674:8688   */\n      add\n        /* \"#utility.yul\":8660:8672   */\n      dup3\n        /* \"#utility.yul\":8626:8689   */\n      tag_101\n      jump\t// in\n    tag_215:\n        /* \"#utility.yul\":8531:8699   */\n      pop\n        /* \"#utility.yul\":8786:8790   */\n      0xc0\n        /* \"#utility.yul\":8779:8784   */\n      dup4\n        /* \"#utility.yul\":8775:8791   */\n      add\n        /* \"#utility.yul\":8769:8792   */\n      mload\n        /* \"#utility.yul\":8805:8868   */\n      tag_216\n        /* \"#utility.yul\":8862:8866   */\n      0xc0\n        /* \"#utility.yul\":8857:8860   */\n      dup7\n        /* \"#utility.yul\":8853:8867   */\n      add\n        /* \"#utility.yul\":8839:8851   */\n      dup3\n        /* \"#utility.yul\":8805:8868   */\n      tag_101\n      jump\t// in\n    tag_216:\n        /* \"#utility.yul\":8709:8878   */\n      pop\n        /* \"#utility.yul\":8895:8899   */\n      dup1\n        /* \"#utility.yul\":8888:8899   */\n      swap2\n      pop\n        /* \"#utility.yul\":7392:8905   */\n      pop\n        /* \"#utility.yul\":7278:8905   */\n      swap3\n      swap2\n      pop\n      pop\n      jump\t// out\n        /* \"#utility.yul\":8911:9264   */\n    tag_17:\n        /* \"#utility.yul\":9044:9048   */\n      0x00\n        /* \"#utility.yul\":9082:9084   */\n      0x20\n        /* \"#utility.yul\":9071:9080   */\n      dup3\n        /* \"#utility.yul\":9067:9085   */\n      add\n        /* \"#utility.yul\":9059:9085   */\n      swap1\n      pop\n        /* \"#utility.yul\":9131:9140   */\n      dup2\n        /* \"#utility.yul\":9125:9129   */\n      dup2\n        /* \"#utility.yul\":9121:9141   */\n      sub\n        /* \"#utility.yul\":9117:9118   */\n      0x00\n        /* \"#utility.yul\":9106:9115   */\n      dup4\n        /* \"#utility.yul\":9102:9119   */\n      add\n        /* \"#utility.yul\":9095:9142   */\n      mstore\n        /* \"#utility.yul\":9159:9257   */\n      tag_218\n        /* \"#utility.yul\":9252:9256   */\n      dup2\n        /* \"#utility.yul\":9243:9249   */\n      dup5\n        /* \"#utility.yul\":9159:9257   */\n      tag_108\n      jump\t// in\n    tag_218:\n        /* \"#utility.yul\":9151:9257   */\n      swap1\n      pop\n        /* \"#utility.yul\":8911:9264   */\n      swap3\n      swap2\n      pop\n      pop\n      jump\t// out\n        /* \"#utility.yul\":9270:9387   */\n    tag_109:\n        /* \"#utility.yul\":9379:9380   */\n      0x00\n        /* \"#utility.yul\":9376:9377   */\n      0x00\n        /* \"#utility.yul\":9369:9381   */\n      revert\n        /* \"#utility.yul\":9393:9510   */\n    tag_110:\n        /* \"#utility.yul\":9502:9503   */\n      0x00\n        /* \"#utility.yul\":9499:9500   */\n      0x00\n        /* \"#utility.yul\":9492:9504   */\n      revert\n        /* \"#utility.yul\":9516:9696   */\n    tag_27:\n        /* \"#utility.yul\":9564:9641   */\n      0x4e487b7100000000000000000000000000000000000000000000000000000000\n        /* \"#utility.yul\":9561:9562   */\n      0x00\n        /* \"#utility.yul\":9554:9642   */\n      mstore\n        /* \"#utility.yul\":9661:9665   */\n      0x41\n        /* \"#utility.yul\":9658:9659   */\n      0x04\n        /* \"#utility.yul\":9651:9666   */\n      mstore\n        /* \"#utility.yul\":9685:9689   */\n      0x24\n        /* \"#utility.yul\":9682:9683   */\n      0x00\n        /* \"#utility.yul\":9675:9690   */\n      revert\n        /* \"#utility.yul\":9702:9983   */\n    tag_111:\n        /* \"#utility.yul\":9785:9812   */\n      tag_223\n        /* \"#utility.yul\":9807:9811   */\n      dup3\n        /* \"#utility.yul\":9785:9812   */\n      tag_98\n      jump\t// in\n    tag_223:\n        /* \"#utility.yul\":9777:9783   */\n      dup2\n        /* \"#utility.yul\":9773:9813   */\n      add\n        /* \"#utility.yul\":9915:9921   */\n      dup2\n        /* \"#utility.yul\":9903:9913   */\n      dup2\n        /* \"#utility.yul\":9900:9922   */\n      lt\n        /* \"#utility.yul\":9879:9897   */\n      0xffffffffffffffff\n        /* \"#utility.yul\":9867:9877   */\n      dup3\n        /* \"#utility.yul\":9864:9898   */\n      gt\n        /* \"#utility.yul\":9861:9923   */\n      or\n        /* \"#utility.yul\":9858:9946   */\n      iszero\n      tag_224\n      jumpi\n        /* \"#utility.yul\":9926:9944   */\n      tag_225\n      tag_27\n      jump\t// in\n    tag_225:\n        /* \"#utility.yul\":9858:9946   */\n    tag_224:\n        /* \"#utility.yul\":9966:9976   */\n      dup1\n        /* \"#utility.yul\":9962:9964   */\n      0x40\n        /* \"#utility.yul\":9955:9977   */\n      mstore\n        /* \"#utility.yul\":9745:9983   */\n      pop\n        /* \"#utility.yul\":9702:9983   */\n      pop\n      pop\n      jump\t// out\n        /* \"#utility.yul\":9989:10118   */\n    tag_112:\n        /* \"#utility.yul\":10023:10029   */\n      0x00\n        /* \"#utility.yul\":10050:10070   */\n      tag_227\n      tag_83\n      jump\t// in\n    tag_227:\n        /* \"#utility.yul\":10040:10070   */\n      swap1\n      pop\n        /* \"#utility.yul\":10079:10112   */\n      tag_228\n        /* \"#utility.yul\":10107:10111   */\n      dup3\n        /* \"#utility.yul\":10099:10105   */\n      dup3\n        /* \"#utility.yul\":10079:10112   */\n      tag_111\n      jump\t// in\n    tag_228:\n        /* \"#utility.yul\":9989:10118   */\n      swap2\n      swap1\n      pop\n      jump\t// out\n        /* \"#utility.yul\":10124:10432   */\n    tag_113:\n        /* \"#utility.yul\":10186:10190   */\n      0x00\n        /* \"#utility.yul\":10276:10294   */\n      0xffffffffffffffff\n        /* \"#utility.yul\":10268:10274   */\n      dup3\n        /* \"#utility.yul\":10265:10295   */\n      gt\n        /* \"#utility.yul\":10262:10318   */\n      iszero\n      tag_230\n      jumpi\n        /* \"#utility.yul\":10298:10316   */\n      tag_231\n      tag_27\n      jump\t// in\n    tag_231:\n        /* \"#utility.yul\":10262:10318   */\n    tag_230:\n        /* \"#utility.yul\":10336:10365   */\n      tag_232\n        /* \"#utility.yul\":10358:10364   */\n      dup3\n        /* \"#utility.yul\":10336:10365   */\n      tag_98\n      jump\t// in\n    tag_232:\n        /* \"#utility.yul\":10328:10365   */\n      swap1\n      pop\n        /* \"#utility.yul\":10420:10424   */\n      0x20\n        /* \"#utility.yul\":10414:10418   */\n      dup2\n        /* \"#utility.yul\":10410:10425   */\n      add\n        /* \"#utility.yul\":10402:10425   */\n      swap1\n      pop\n        /* \"#utility.yul\":10124:10432   */\n      swap2\n      swap1\n      pop\n      jump\t// out\n        /* \"#utility.yul\":10438:10586   */\n    tag_114:\n        /* \"#utility.yul\":10536:10542   */\n      dup3\n        /* \"#utility.yul\":10531:10534   */\n      dup2\n        /* \"#utility.yul\":10526:10529   */\n      dup4\n        /* \"#utility.yul\":10513:10543   */\n      calldatacopy\n        /* \"#utility.yul\":10577:10578   */\n      0x00\n        /* \"#utility.yul\":10568:10574   */\n      dup4\n        /* \"#utility.yul\":10563:10566   */\n      dup4\n        /* \"#utility.yul\":10559:10575   */\n      add\n        /* \"#utility.yul\":10552:10579   */\n      mstore\n        /* \"#utility.yul\":10438:10586   */\n      pop\n      pop\n      pop\n      jump\t// out\n        /* \"#utility.yul\":10592:11017   */\n    tag_115:\n        /* \"#utility.yul\":10670:10675   */\n      0x00\n        /* \"#utility.yul\":10695:10761   */\n      tag_235\n        /* \"#utility.yul\":10711:10760   */\n      tag_236\n        /* \"#utility.yul\":10753:10759   */\n      dup5\n        /* \"#utility.yul\":10711:10760   */\n      tag_113\n      jump\t// in\n    tag_236:\n        /* \"#utility.yul\":10695:10761   */\n      tag_112\n      jump\t// in\n    tag_235:\n        /* \"#utility.yul\":10686:10761   */\n      swap1\n      pop\n        /* \"#utility.yul\":10784:10790   */\n      dup3\n        /* \"#utility.yul\":10777:10782   */\n      dup2\n        /* \"#utility.yul\":10770:10791   */\n      mstore\n        /* \"#utility.yul\":10822:10826   */\n      0x20\n        /* \"#utility.yul\":10815:10820   */\n      dup2\n        /* \"#utility.yul\":10811:10827   */\n      add\n        /* \"#utility.yul\":10860:10863   */\n      dup5\n        /* \"#utility.yul\":10851:10857   */\n      dup5\n        /* \"#utility.yul\":10846:10849   */\n      dup5\n        /* \"#utility.yul\":10842:10858   */\n      add\n        /* \"#utility.yul\":10839:10864   */\n      gt\n        /* \"#utility.yul\":10836:10948   */\n      iszero\n      tag_237\n      jumpi\n        /* \"#utility.yul\":10867:10946   */\n      tag_238\n      tag_110\n      jump\t// in\n    tag_238:\n        /* \"#utility.yul\":10836:10948   */\n    tag_237:\n        /* \"#utility.yul\":10957:11011   */\n      tag_239\n        /* \"#utility.yul\":11004:11010   */\n      dup5\n        /* \"#utility.yul\":10999:11002   */\n      dup3\n        /* \"#utility.yul\":10994:10997   */\n      dup6\n        /* \"#utility.yul\":10957:11011   */\n      tag_114\n      jump\t// in\n    tag_239:\n        /* \"#utility.yul\":10676:11017   */\n      pop\n        /* \"#utility.yul\":10592:11017   */\n      swap4\n      swap3\n      pop\n      pop\n      pop\n      jump\t// out\n        /* \"#utility.yul\":11037:11377   */\n    tag_116:\n        /* \"#utility.yul\":11093:11098   */\n      0x00\n        /* \"#utility.yul\":11142:11145   */\n      dup3\n        /* \"#utility.yul\":11135:11139   */\n      0x1f\n        /* \"#utility.yul\":11127:11133   */\n      dup4\n        /* \"#utility.yul\":11123:11140   */\n      add\n        /* \"#utility.yul\":11119:11146   */\n      slt\n        /* \"#utility.yul\":11109:11231   */\n      tag_241\n      jumpi\n        /* \"#utility.yul\":11150:11229   */\n      tag_242\n      tag_109\n      jump\t// in\n    tag_242:\n        /* \"#utility.yul\":11109:11231   */\n    tag_241:\n        /* \"#utility.yul\":11267:11273   */\n      dup2\n        /* \"#utility.yul\":11254:11274   */\n      calldataload\n        /* \"#utility.yul\":11292:11371   */\n      tag_243\n        /* \"#utility.yul\":11367:11370   */\n      dup5\n        /* \"#utility.yul\":11359:11365   */\n      dup3\n        /* \"#utility.yul\":11352:11356   */\n      0x20\n        /* \"#utility.yul\":11344:11350   */\n      dup7\n        /* \"#utility.yul\":11340:11357   */\n      add\n        /* \"#utility.yul\":11292:11371   */\n      tag_115\n      jump\t// in\n    tag_243:\n        /* \"#utility.yul\":11283:11371   */\n      swap2\n      pop\n        /* \"#utility.yul\":11099:11377   */\n      pop\n        /* \"#utility.yul\":11037:11377   */\n      swap3\n      swap2\n      pop\n      pop\n      jump\t// out\n        /* \"#utility.yul\":11383:12542   */\n    tag_20:\n        /* \"#utility.yul\":11490:11496   */\n      0x00\n        /* \"#utility.yul\":11498:11504   */\n      0x00\n        /* \"#utility.yul\":11506:11512   */\n      0x00\n        /* \"#utility.yul\":11555:11557   */\n      0x60\n        /* \"#utility.yul\":11543:11552   */\n      dup5\n        /* \"#utility.yul\":11534:11541   */\n      dup7\n        /* \"#utility.yul\":11530:11553   */\n      sub\n        /* \"#utility.yul\":11526:11558   */\n      slt\n        /* \"#utility.yul\":11523:11642   */\n      iszero\n      tag_245\n      jumpi\n        /* \"#utility.yul\":11561:11640   */\n      tag_246\n      tag_84\n      jump\t// in\n    tag_246:\n        /* \"#utility.yul\":11523:11642   */\n    tag_245:\n        /* \"#utility.yul\":11709:11710   */\n      0x00\n        /* \"#utility.yul\":11698:11707   */\n      dup5\n        /* \"#utility.yul\":11694:11711   */\n      add\n        /* \"#utility.yul\":11681:11712   */\n      calldataload\n        /* \"#utility.yul\":11739:11757   */\n      0xffffffffffffffff\n        /* \"#utility.yul\":11731:11737   */\n      dup2\n        /* \"#utility.yul\":11728:11758   */\n      gt\n        /* \"#utility.yul\":11725:11842   */\n      iszero\n      tag_247\n      jumpi\n        /* \"#utility.yul\":11761:11840   */\n      tag_248\n      tag_85\n      jump\t// in\n    tag_248:\n        /* \"#utility.yul\":11725:11842   */\n    tag_247:\n        /* \"#utility.yul\":11866:11929   */\n      tag_249\n        /* \"#utility.yul\":11921:11928   */\n      dup7\n        /* \"#utility.yul\":11912:11918   */\n      dup3\n        /* \"#utility.yul\":11901:11910   */\n      dup8\n        /* \"#utility.yul\":11897:11919   */\n      add\n        /* \"#utility.yul\":11866:11929   */\n      tag_116\n      jump\t// in\n    tag_249:\n        /* \"#utility.yul\":11856:11929   */\n      swap4\n      pop\n        /* \"#utility.yul\":11652:11939   */\n      pop\n        /* \"#utility.yul\":12006:12008   */\n      0x20\n        /* \"#utility.yul\":11995:12004   */\n      dup5\n        /* \"#utility.yul\":11991:12009   */\n      add\n        /* \"#utility.yul\":11978:12010   */\n      calldataload\n        /* \"#utility.yul\":12037:12055   */\n      0xffffffffffffffff\n        /* \"#utility.yul\":12029:12035   */\n      dup2\n        /* \"#utility.yul\":12026:12056   */\n      gt\n        /* \"#utility.yul\":12023:12140   */\n      iszero\n      tag_250\n      jumpi\n        /* \"#utility.yul\":12059:12138   */\n      tag_251\n      tag_85\n      jump\t// in\n    tag_251:\n        /* \"#utility.yul\":12023:12140   */\n    tag_250:\n        /* \"#utility.yul\":12164:12227   */\n      tag_252\n        /* \"#utility.yul\":12219:12226   */\n      dup7\n        /* \"#utility.yul\":12210:12216   */\n      dup3\n        /* \"#utility.yul\":12199:12208   */\n      dup8\n        /* \"#utility.yul\":12195:12217   */\n      add\n        /* \"#utility.yul\":12164:12227   */\n      tag_116\n      jump\t// in\n    tag_252:\n        /* \"#utility.yul\":12154:12227   */\n      swap3\n      pop\n        /* \"#utility.yul\":11949:12237   */\n      pop\n        /* \"#utility.yul\":12304:12306   */\n      0x40\n        /* \"#utility.yul\":12293:12302   */\n      dup5\n        /* \"#utility.yul\":12289:12307   */\n      add\n        /* \"#utility.yul\":12276:12308   */\n      calldataload\n        /* \"#utility.yul\":12335:12353   */\n      0xffffffffffffffff\n        /* \"#utility.yul\":12327:12333   */\n      dup2\n        /* \"#utility.yul\":12324:12354   */\n      gt\n        /* \"#utility.yul\":12321:12438   */\n      iszero\n      tag_253\n      jumpi\n        /* \"#utility.yul\":12357:12436   */\n      tag_254\n      tag_85\n      jump\t// in\n    tag_254:\n        /* \"#utility.yul\":12321:12438   */\n    tag_253:\n        /* \"#utility.yul\":12462:12525   */\n      tag_255\n        /* \"#utility.yul\":12517:12524   */\n      dup7\n        /* \"#utility.yul\":12508:12514   */\n      dup3\n        /* \"#utility.yul\":12497:12506   */\n      dup8\n        /* \"#utility.yul\":12493:12515   */\n      add\n        /* \"#utility.yul\":12462:12525   */\n      tag_116\n      jump\t// in\n    tag_255:\n        /* \"#utility.yul\":12452:12525   */\n      swap2\n      pop\n        /* \"#utility.yul\":12247:12535   */\n      pop\n        /* \"#utility.yul\":11383:12542   */\n      swap3\n      pop\n      swap3\n      pop\n      swap3\n      jump\t// out\n        /* \"#utility.yul\":12548:12728   */\n    tag_37:\n        /* \"#utility.yul\":12596:12673   */\n      0x4e487b7100000000000000000000000000000000000000000000000000000000\n        /* \"#utility.yul\":12593:12594   */\n      0x00\n        /* \"#utility.yul\":12586:12674   */\n      mstore\n        /* \"#utility.yul\":12693:12697   */\n      0x32\n        /* \"#utility.yul\":12690:12691   */\n      0x04\n        /* \"#utility.yul\":12683:12698   */\n      mstore\n        /* \"#utility.yul\":12717:12721   */\n      0x24\n        /* \"#utility.yul\":12714:12715   */\n      0x00\n        /* \"#utility.yul\":12707:12722   */\n      revert\n        /* \"#utility.yul\":12734:12914   */\n    tag_117:\n        /* \"#utility.yul\":12782:12859   */\n      0x4e487b7100000000000000000000000000000000000000000000000000000000\n        /* \"#utility.yul\":12779:12780   */\n      0x00\n        /* \"#utility.yul\":12772:12860   */\n      mstore\n        /* \"#utility.yul\":12879:12883   */\n      0x22\n        /* \"#utility.yul\":12876:12877   */\n      0x04\n        /* \"#utility.yul\":12869:12884   */\n      mstore\n        /* \"#utility.yul\":12903:12907   */\n      0x24\n        /* \"#utility.yul\":12900:12901   */\n      0x00\n        /* \"#utility.yul\":12893:12908   */\n      revert\n        /* \"#utility.yul\":12920:13240   */\n    tag_39:\n        /* \"#utility.yul\":12964:12970   */\n      0x00\n        /* \"#utility.yul\":13001:13002   */\n      0x02\n        /* \"#utility.yul\":12995:12999   */\n      dup3\n        /* \"#utility.yul\":12991:13003   */\n      div\n        /* \"#utility.yul\":12981:13003   */\n      swap1\n      pop\n        /* \"#utility.yul\":13048:13049   */\n      0x01\n        /* \"#utility.yul\":13042:13046   */\n      dup3\n        /* \"#utility.yul\":13038:13050   */\n      and\n        /* \"#utility.yul\":13069:13087   */\n      dup1\n        /* \"#utility.yul\":13059:13140   */\n      tag_259\n      jumpi\n        /* \"#utility.yul\":13125:13129   */\n      0x7f\n        /* \"#utility.yul\":13117:13123   */\n      dup3\n        /* \"#utility.yul\":13113:13130   */\n      and\n        /* \"#utility.yul\":13103:13130   */\n      swap2\n      pop\n        /* \"#utility.yul\":13059:13140   */\n    tag_259:\n        /* \"#utility.yul\":13187:13189   */\n      0x20\n        /* \"#utility.yul\":13179:13185   */\n      dup3\n        /* \"#utility.yul\":13176:13190   */\n      lt\n        /* \"#utility.yul\":13156:13174   */\n      dup2\n        /* \"#utility.yul\":13153:13191   */\n      sub\n        /* \"#utility.yul\":13150:13234   */\n      tag_260\n      jumpi\n        /* \"#utility.yul\":13206:13224   */\n      tag_261\n      tag_117\n      jump\t// in\n    tag_261:\n        /* \"#utility.yul\":13150:13234   */\n    tag_260:\n        /* \"#utility.yul\":12971:13240   */\n      pop\n        /* \"#utility.yul\":12920:13240   */\n      swap2\n      swap1\n      pop\n      jump\t// out\n        /* \"#utility.yul\":13246:13340   */\n    tag_118:\n        /* \"#utility.yul\":13279:13287   */\n      0x00\n        /* \"#utility.yul\":13327:13332   */\n      dup2\n        /* \"#utility.yul\":13323:13325   */\n      0x60\n        /* \"#utility.yul\":13319:13333   */\n      shl\n        /* \"#utility.yul\":13298:13333   */\n      swap1\n      pop\n        /* \"#utility.yul\":13246:13340   */\n      swap2\n      swap1\n      pop\n      jump\t// out\n        /* \"#utility.yul\":13346:13440   */\n    tag_119:\n        /* \"#utility.yul\":13385:13392   */\n      0x00\n        /* \"#utility.yul\":13414:13434   */\n      tag_264\n        /* \"#utility.yul\":13428:13433   */\n      dup3\n        /* \"#utility.yul\":13414:13434   */\n      tag_118\n      jump\t// in\n    tag_264:\n        /* \"#utility.yul\":13403:13434   */\n      swap1\n      pop\n        /* \"#utility.yul\":13346:13440   */\n      swap2\n      swap1\n      pop\n      jump\t// out\n        /* \"#utility.yul\":13446:13546   */\n    tag_120:\n        /* \"#utility.yul\":13485:13492   */\n      0x00\n        /* \"#utility.yul\":13514:13540   */\n      tag_266\n        /* \"#utility.yul\":13534:13539   */\n      dup3\n        /* \"#utility.yul\":13514:13540   */\n      tag_119\n      jump\t// in\n    tag_266:\n        /* \"#utility.yul\":13503:13540   */\n      swap1\n      pop\n        /* \"#utility.yul\":13446:13546   */\n      swap2\n      swap1\n      pop\n      jump\t// out\n        /* \"#utility.yul\":13552:13709   */\n    tag_121:\n        /* \"#utility.yul\":13657:13702   */\n      tag_268\n        /* \"#utility.yul\":13677:13701   */\n      tag_269\n        /* \"#utility.yul\":13695:13700   */\n      dup3\n        /* \"#utility.yul\":13677:13701   */\n      tag_87\n      jump\t// in\n    tag_269:\n        /* \"#utility.yul\":13657:13702   */\n      tag_120\n      jump\t// in\n    tag_268:\n        /* \"#utility.yul\":13652:13655   */\n      dup3\n        /* \"#utility.yul\":13645:13703   */\n      mstore\n        /* \"#utility.yul\":13552:13709   */\n      pop\n      pop\n      jump\t// out\n        /* \"#utility.yul\":13715:13794   */\n    tag_122:\n        /* \"#utility.yul\":13754:13761   */\n      0x00\n        /* \"#utility.yul\":13783:13788   */\n      dup2\n        /* \"#utility.yul\":13772:13788   */\n      swap1\n      pop\n        /* \"#utility.yul\":13715:13794   */\n      swap2\n      swap1\n      pop\n      jump\t// out\n        /* \"#utility.yul\":13800:13957   */\n    tag_123:\n        /* \"#utility.yul\":13905:13950   */\n      tag_272\n        /* \"#utility.yul\":13925:13949   */\n      tag_273\n        /* \"#utility.yul\":13943:13948   */\n      dup3\n        /* \"#utility.yul\":13925:13949   */\n      tag_100\n      jump\t// in\n    tag_273:\n        /* \"#utility.yul\":13905:13950   */\n      tag_122\n      jump\t// in\n    tag_272:\n        /* \"#utility.yul\":13900:13903   */\n      dup3\n        /* \"#utility.yul\":13893:13951   */\n      mstore\n        /* \"#utility.yul\":13800:13957   */\n      pop\n      pop\n      jump\t// out\n        /* \"#utility.yul\":13963:14111   */\n    tag_124:\n        /* \"#utility.yul\":14065:14076   */\n      0x00\n        /* \"#utility.yul\":14102:14105   */\n      dup2\n        /* \"#utility.yul\":14087:14105   */\n      swap1\n      pop\n        /* \"#utility.yul\":13963:14111   */\n      swap3\n      swap2\n      pop\n      pop\n      jump\t// out\n        /* \"#utility.yul\":14117:14507   */\n    tag_125:\n        /* \"#utility.yul\":14223:14226   */\n      0x00\n        /* \"#utility.yul\":14251:14290   */\n      tag_276\n        /* \"#utility.yul\":14284:14289   */\n      dup3\n        /* \"#utility.yul\":14251:14290   */\n      tag_95\n      jump\t// in\n    tag_276:\n        /* \"#utility.yul\":14306:14395   */\n      tag_277\n        /* \"#utility.yul\":14388:14394   */\n      dup2\n        /* \"#utility.yul\":14383:14386   */\n      dup6\n        /* \"#utility.yul\":14306:14395   */\n      tag_124\n      jump\t// in\n    tag_277:\n        /* \"#utility.yul\":14299:14395   */\n      swap4\n      pop\n        /* \"#utility.yul\":14404:14469   */\n      tag_278\n        /* \"#utility.yul\":14462:14468   */\n      dup2\n        /* \"#utility.yul\":14457:14460   */\n      dup6\n        /* \"#utility.yul\":14450:14454   */\n      0x20\n        /* \"#utility.yul\":14443:14448   */\n      dup7\n        /* \"#utility.yul\":14439:14455   */\n      add\n        /* \"#utility.yul\":14404:14469   */\n      tag_97\n      jump\t// in\n    tag_278:\n        /* \"#utility.yul\":14494:14500   */\n      dup1\n        /* \"#utility.yul\":14489:14492   */\n      dup5\n        /* \"#utility.yul\":14485:14501   */\n      add\n        /* \"#utility.yul\":14478:14501   */\n      swap2\n      pop\n        /* \"#utility.yul\":14227:14507   */\n      pop\n        /* \"#utility.yul\":14117:14507   */\n      swap3\n      swap2\n      pop\n      pop\n      jump\t// out\n        /* \"#utility.yul\":14513:15230   */\n    tag_75:\n        /* \"#utility.yul\":14749:14752   */\n      0x00\n        /* \"#utility.yul\":14764:14839   */\n      tag_280\n        /* \"#utility.yul\":14835:14838   */\n      dup3\n        /* \"#utility.yul\":14826:14832   */\n      dup8\n        /* \"#utility.yul\":14764:14839   */\n      tag_121\n      jump\t// in\n    tag_280:\n        /* \"#utility.yul\":14864:14866   */\n      0x14\n        /* \"#utility.yul\":14859:14862   */\n      dup3\n        /* \"#utility.yul\":14855:14867   */\n      add\n        /* \"#utility.yul\":14848:14867   */\n      swap2\n      pop\n        /* \"#utility.yul\":14877:14952   */\n      tag_281\n        /* \"#utility.yul\":14948:14951   */\n      dup3\n        /* \"#utility.yul\":14939:14945   */\n      dup7\n        /* \"#utility.yul\":14877:14952   */\n      tag_123\n      jump\t// in\n    tag_281:\n        /* \"#utility.yul\":14977:14979   */\n      0x20\n        /* \"#utility.yul\":14972:14975   */\n      dup3\n        /* \"#utility.yul\":14968:14980   */\n      add\n        /* \"#utility.yul\":14961:14980   */\n      swap2\n      pop\n        /* \"#utility.yul\":14997:15092   */\n      tag_282\n        /* \"#utility.yul\":15088:15091   */\n      dup3\n        /* \"#utility.yul\":15079:15085   */\n      dup6\n        /* \"#utility.yul\":14997:15092   */\n      tag_125\n      jump\t// in\n    tag_282:\n        /* \"#utility.yul\":14990:15092   */\n      swap2\n      pop\n        /* \"#utility.yul\":15109:15204   */\n      tag_283\n        /* \"#utility.yul\":15200:15203   */\n      dup3\n        /* \"#utility.yul\":15191:15197   */\n      dup5\n        /* \"#utility.yul\":15109:15204   */\n      tag_125\n      jump\t// in\n    tag_283:\n        /* \"#utility.yul\":15102:15204   */\n      swap2\n      pop\n        /* \"#utility.yul\":15221:15224   */\n      dup2\n        /* \"#utility.yul\":15214:15224   */\n      swap1\n      pop\n        /* \"#utility.yul\":14513:15230   */\n      swap6\n      swap5\n      pop\n      pop\n      pop\n      pop\n      pop\n      jump\t// out\n        /* \"#utility.yul\":15236:15377   */\n    tag_126:\n        /* \"#utility.yul\":15285:15289   */\n      0x00\n        /* \"#utility.yul\":15308:15311   */\n      dup2\n        /* \"#utility.yul\":15300:15311   */\n      swap1\n      pop\n        /* \"#utility.yul\":15331:15334   */\n      dup2\n        /* \"#utility.yul\":15328:15329   */\n      0x00\n        /* \"#utility.yul\":15321:15335   */\n      mstore\n        /* \"#utility.yul\":15365:15369   */\n      0x20\n        /* \"#utility.yul\":15362:15363   */\n      0x00\n        /* \"#utility.yul\":15352:15370   */\n      keccak256\n        /* \"#utility.yul\":15344:15370   */\n      swap1\n      pop\n        /* \"#utility.yul\":15236:15377   */\n      swap2\n      swap1\n      pop\n      jump\t// out\n        /* \"#utility.yul\":15383:15476   */\n    tag_127:\n        /* \"#utility.yul\":15420:15426   */\n      0x00\n        /* \"#utility.yul\":15467:15469   */\n      0x20\n        /* \"#utility.yul\":15462:15464   */\n      0x1f\n        /* \"#utility.yul\":15455:15460   */\n      dup4\n        /* \"#utility.yul\":15451:15465   */\n      add\n        /* \"#utility.yul\":15447:15470   */\n      div\n        /* \"#utility.yul\":15437:15470   */\n      swap1\n      pop\n        /* \"#utility.yul\":15383:15476   */\n      swap2\n      swap1\n      pop\n      jump\t// out\n        /* \"#utility.yul\":15482:15589   */\n    tag_128:\n        /* \"#utility.yul\":15526:15534   */\n      0x00\n        /* \"#utility.yul\":15576:15581   */\n      dup3\n        /* \"#utility.yul\":15570:15574   */\n      dup3\n        /* \"#utility.yul\":15566:15582   */\n      shl\n        /* \"#utility.yul\":15545:15582   */\n      swap1\n      pop\n        /* \"#utility.yul\":15482:15589   */\n      swap3\n      swap2\n      pop\n      pop\n      jump\t// out\n        /* \"#utility.yul\":15595:15988   */\n    tag_129:\n        /* \"#utility.yul\":15664:15670   */\n      0x00\n        /* \"#utility.yul\":15714:15715   */\n      0x08\n        /* \"#utility.yul\":15702:15712   */\n      dup4\n        /* \"#utility.yul\":15698:15716   */\n      mul\n        /* \"#utility.yul\":15737:15834   */\n      tag_288\n        /* \"#utility.yul\":15767:15833   */\n      0xffffffffffffffffffffffffffffffffffffffffffffffffffffffffffffffff\n        /* \"#utility.yul\":15756:15765   */\n      dup3\n        /* \"#utility.yul\":15737:15834   */\n      tag_128\n      jump\t// in\n    tag_288:\n        /* \"#utility.yul\":15855:15894   */\n      tag_289\n        /* \"#utility.yul\":15885:15893   */\n      dup7\n        /* \"#utility.yul\":15874:15883   */\n      dup4\n        /* \"#utility.yul\":15855:15894   */\n      tag_128\n      jump\t// in\n    tag_289:\n        /* \"#utility.yul\":15843:15894   */\n      swap6\n      pop\n        /* \"#utility.yul\":15927:15931   */\n      dup1\n        /* \"#utility.yul\":15923:15932   */\n      not\n        /* \"#utility.yul\":15916:15921   */\n      dup5\n        /* \"#utility.yul\":15912:15933   */\n      and\n        /* \"#utility.yul\":15903:15933   */\n      swap4\n      pop\n        /* \"#utility.yul\":15976:15980   */\n      dup1\n        /* \"#utility.yul\":15966:15974   */\n      dup7\n        /* \"#utility.yul\":15962:15981   */\n      and\n        /* \"#utility.yul\":15955:15960   */\n      dup5\n        /* \"#utility.yul\":15952:15982   */\n      or\n        /* \"#utility.yul\":15942:15982   */\n      swap3\n      pop\n        /* \"#utility.yul\":15671:15988   */\n      pop\n      pop\n        /* \"#utility.yul\":15595:15988   */\n      swap4\n      swap3\n      pop\n      pop\n      pop\n      jump\t// out\n        /* \"#utility.yul\":15994:16054   */\n    tag_130:\n        /* \"#utility.yul\":16022:16025   */\n      0x00\n        /* \"#utility.yul\":16043:16048   */\n      dup2\n        /* \"#utility.yul\":16036:16048   */\n      swap1\n      pop\n        /* \"#utility.yul\":15994:16054   */\n      swap2\n      swap1\n      pop\n      jump\t// out\n        /* \"#utility.yul\":16060:16202   */\n    tag_131:\n        /* \"#utility.yul\":16110:16119   */\n      0x00\n        /* \"#utility.yul\":16143:16196   */\n      tag_292\n        /* \"#utility.yul\":16161:16195   */\n      tag_293\n        /* \"#utility.yul\":16170:16194   */\n      tag_294\n        /* \"#utility.yul\":16188:16193   */\n      dup5\n        /* \"#utility.yul\":16170:16194   */\n      tag_100\n      jump\t// in\n    tag_294:\n        /* \"#utility.yul\":16161:16195   */\n      tag_130\n      jump\t// in\n    tag_293:\n        /* \"#utility.yul\":16143:16196   */\n      tag_100\n      jump\t// in\n    tag_292:\n        /* \"#utility.yul\":16130:16196   */\n      swap1\n      pop\n        /* \"#utility.yul\":16060:16202   */\n      swap2\n      swap1\n      pop\n      jump\t// out\n        /* \"#utility.yul\":16208:16283   */\n    tag_132:\n        /* \"#utility.yul\":16251:16254   */\n      0x00\n        /* \"#utility.yul\":16272:16277   */\n      dup2\n        /* \"#utility.yul\":16265:16277   */\n      swap1\n      pop\n        /* \"#utility.yul\":16208:16283   */\n      swap2\n      swap1\n      pop\n      jump\t// out\n        /* \"#utility.yul\":16289:16558   */\n    tag_133:\n        /* \"#utility.yul\":16399:16438   */\n      tag_297\n        /* \"#utility.yul\":16430:16437   */\n      dup4\n        /* \"#utility.yul\":16399:16438   */\n      tag_131\n      jump\t// in\n    tag_297:\n        /* \"#utility.yul\":16460:16551   */\n      tag_298\n        /* \"#utility.yul\":16509:16550   */\n      tag_299\n        /* \"#utility.yul\":16533:16549   */\n      dup3\n        /* \"#utility.yul\":16509:16550   */\n      tag_132\n      jump\t// in\n    tag_299:\n        /* \"#utility.yul\":16501:16507   */\n      dup5\n        /* \"#utility.yul\":16494:16498   */\n      dup5\n        /* \"#utility.yul\":16488:16499   */\n      sload\n        /* \"#utility.yul\":16460:16551   */\n      tag_129\n      jump\t// in\n    tag_298:\n        /* \"#utility.yul\":16454:16458   */\n      dup3\n        /* \"#utility.yul\":16447:16552   */\n      sstore\n        /* \"#utility.yul\":16365:16558   */\n      pop\n        /* \"#utility.yul\":16289:16558   */\n      pop\n      pop\n      pop\n      jump\t// out\n        /* \"#utility.yul\":16564:16637   */\n    tag_134:\n        /* \"#utility.yul\":16609:16612   */\n      0x00\n        /* \"#utility.yul\":16630:16631   */\n      0x00\n        /* \"#utility.yul\":16623:16631   */\n      swap1\n      pop\n        /* \"#utility.yul\":16564:16637   */\n      swap1\n      jump\t// out\n        /* \"#utility.yul\":16643:16832   */\n    tag_135:\n        /* \"#utility.yul\":16720:16752   */\n      tag_302\n      tag_134\n      jump\t// in\n    tag_302:\n        /* \"#utility.yul\":16761:16826   */\n      tag_303\n        /* \"#utility.yul\":16819:16825   */\n      dup2\n        /* \"#utility.yul\":16811:16817   */\n      dup5\n        /* \"#utility.yul\":16805:16809   */\n      dup5\n        /* \"#utility.yul\":16761:16826   */\n      tag_133\n      jump\t// in\n    tag_303:\n        /* \"#utility.yul\":16696:16832   */\n      pop\n        /* \"#utility.yul\":16643:16832   */\n      pop\n      pop\n      jump\t// out\n        /* \"#utility.yul\":16838:17024   */\n    tag_136:\n        /* \"#utility.yul\":16898:17018   */\n    tag_305:\n        /* \"#utility.yul\":16915:16918   */\n      dup2\n        /* \"#utility.yul\":16908:16913   */\n      dup2\n        /* \"#utility.yul\":16905:16919   */\n      lt\n        /* \"#utility.yul\":16898:17018   */\n      iszero\n      tag_307\n      jumpi\n        /* \"#utility.yul\":16969:17008   */\n      tag_308\n        /* \"#utility.yul\":17006:17007   */\n      0x00\n        /* \"#utility.yul\":16999:17004   */\n      dup3\n        /* \"#utility.yul\":16969:17008   */\n      tag_135\n      jump\t// in\n    tag_308:\n        /* \"#utility.yul\":16942:16943   */\n      0x01\n        /* \"#utility.yul\":16935:16940   */\n      dup2\n        /* \"#utility.yul\":16931:16944   */\n      add\n        /* \"#utility.yul\":16922:16944   */\n      swap1\n      pop\n        /* \"#utility.yul\":16898:17018   */\n      jump(tag_305)\n    tag_307:\n        /* \"#utility.yul\":16838:17024   */\n      pop\n      pop\n      jump\t// out\n        /* \"#utility.yul\":17030:17573   */\n    tag_137:\n        /* \"#utility.yul\":17131:17133   */\n      0x1f\n        /* \"#utility.yul\":17126:17129   */\n      dup3\n        /* \"#utility.yul\":17123:17134   */\n      gt\n        /* \"#utility.yul\":17120:17566   */\n      iszero\n      tag_310\n      jumpi\n        /* \"#utility.yul\":17165:17203   */\n      tag_311\n        /* \"#utility.yul\":17197:17202   */\n      dup2\n        /* \"#utility.yul\":17165:17203   */\n      tag_126\n      jump\t// in\n    tag_311:\n        /* \"#utility.yul\":17249:17278   */\n      tag_312\n        /* \"#utility.yul\":17267:17277   */\n      dup5\n        /* \"#utility.yul\":17249:17278   */\n      tag_127\n      jump\t// in\n    tag_312:\n        /* \"#utility.yul\":17239:17247   */\n      dup2\n        /* \"#utility.yul\":17235:17279   */\n      add\n        /* \"#utility.yul\":17432:17434   */\n      0x20\n        /* \"#utility.yul\":17420:17430   */\n      dup6\n        /* \"#utility.yul\":17417:17435   */\n      lt\n        /* \"#utility.yul\":17414:17463   */\n      iszero\n      tag_313\n      jumpi\n        /* \"#utility.yul\":17453:17461   */\n      dup2\n        /* \"#utility.yul\":17438:17461   */\n      swap1\n      pop\n        /* \"#utility.yul\":17414:17463   */\n    tag_313:\n        /* \"#utility.yul\":17476:17556   */\n      tag_314\n        /* \"#utility.yul\":17532:17554   */\n      tag_315\n        /* \"#utility.yul\":17550:17553   */\n      dup6\n        /* \"#utility.yul\":17532:17554   */\n      tag_127\n      jump\t// in\n    tag_315:\n        /* \"#utility.yul\":17522:17530   */\n      dup4\n        /* \"#utility.yul\":17518:17555   */\n      add\n        /* \"#utility.yul\":17505:17516   */\n      dup3\n        /* \"#utility.yul\":17476:17556   */\n      tag_136\n      jump\t// in\n    tag_314:\n        /* \"#utility.yul\":17135:17566   */\n      pop\n      pop\n        /* \"#utility.yul\":17120:17566   */\n    tag_310:\n        /* \"#utility.yul\":17030:17573   */\n      pop\n      pop\n      pop\n      jump\t// out\n        /* \"#utility.yul\":17579:17696   */\n    tag_138:\n        /* \"#utility.yul\":17633:17641   */\n      0x00\n        /* \"#utility.yul\":17683:17688   */\n      dup3\n        /* \"#utility.yul\":17677:17681   */\n      dup3\n        /* \"#utility.yul\":17673:17689   */\n      shr\n        /* \"#utility.yul\":17652:17689   */\n      swap1\n      pop\n        /* \"#utility.yul\":17579:17696   */\n      swap3\n      swap2\n      pop\n      pop\n      jump\t// out\n        /* \"#utility.yul\":17702:17871   */\n    tag_139:\n        /* \"#utility.yul\":17746:17752   */\n      0x00\n        /* \"#utility.yul\":17779:17830   */\n      tag_318\n        /* \"#utility.yul\":17827:17828   */\n      0x00\n        /* \"#utility.yul\":17823:17829   */\n      not\n        /* \"#utility.yul\":17815:17820   */\n      dup5\n        /* \"#utility.yul\":17812:17813   */\n      0x08\n        /* \"#utility.yul\":17808:17821   */\n      mul\n        /* \"#utility.yul\":17779:17830   */\n      tag_138\n      jump\t// in\n    tag_318:\n        /* \"#utility.yul\":17775:17831   */\n      not\n        /* \"#utility.yul\":17860:17864   */\n      dup1\n        /* \"#utility.yul\":17854:17858   */\n      dup4\n        /* \"#utility.yul\":17850:17865   */\n      and\n        /* \"#utility.yul\":17840:17865   */\n      swap2\n      pop\n        /* \"#utility.yul\":17753:17871   */\n      pop\n        /* \"#utility.yul\":17702:17871   */\n      swap3\n      swap2\n      pop\n      pop\n      jump\t// out\n        /* \"#utility.yul\":17876:18171   */\n    tag_140:\n        /* \"#utility.yul\":17952:17956   */\n      0x00\n        /* \"#utility.yul\":18098:18127   */\n      tag_320\n        /* \"#utility.yul\":18123:18126   */\n      dup4\n        /* \"#utility.yul\":18117:18121   */\n      dup4\n        /* \"#utility.yul\":18098:18127   */\n      tag_139\n      jump\t// in\n    tag_320:\n        /* \"#utility.yul\":18090:18127   */\n      swap2\n      pop\n        /* \"#utility.yul\":18160:18163   */\n      dup3\n        /* \"#utility.yul\":18157:18158   */\n      0x02\n        /* \"#utility.yul\":18153:18164   */\n      mul\n        /* \"#utility.yul\":18147:18151   */\n      dup3\n        /* \"#utility.yul\":18144:18165   */\n      or\n        /* \"#utility.yul\":18136:18165   */\n      swap1\n      pop\n        /* \"#utility.yul\":17876:18171   */\n      swap3\n      swap2\n      pop\n      pop\n      jump\t// out\n        /* \"#utility.yul\":18176:19571   */\n    tag_78:\n        /* \"#utility.yul\":18293:18330   */\n      tag_322\n        /* \"#utility.yul\":18326:18329   */\n      dup3\n        /* \"#utility.yul\":18293:18330   */\n      tag_95\n      jump\t// in\n    tag_322:\n        /* \"#utility.yul\":18395:18413   */\n      0xffffffffffffffff\n        /* \"#utility.yul\":18387:18393   */\n      dup2\n        /* \"#utility.yul\":18384:18414   */\n      gt\n        /* \"#utility.yul\":18381:18437   */\n      iszero\n      tag_323\n      jumpi\n        /* \"#utility.yul\":18417:18435   */\n      tag_324\n      tag_27\n      jump\t// in\n    tag_324:\n        /* \"#utility.yul\":18381:18437   */\n    tag_323:\n        /* \"#utility.yul\":18461:18499   */\n      tag_325\n        /* \"#utility.yul\":18493:18497   */\n      dup3\n        /* \"#utility.yul\":18487:18498   */\n      sload\n        /* \"#utility.yul\":18461:18499   */\n      tag_39\n      jump\t// in\n    tag_325:\n        /* \"#utility.yul\":18546:18613   */\n      tag_326\n        /* \"#utility.yul\":18606:18612   */\n      dup3\n        /* \"#utility.yul\":18598:18604   */\n      dup3\n        /* \"#utility.yul\":18592:18596   */\n      dup6\n        /* \"#utility.yul\":18546:18613   */\n      tag_137\n      jump\t// in\n    tag_326:\n        /* \"#utility.yul\":18640:18641   */\n      0x00\n        /* \"#utility.yul\":18664:18668   */\n      0x20\n        /* \"#utility.yul\":18651:18668   */\n      swap1\n      pop\n        /* \"#utility.yul\":18696:18698   */\n      0x1f\n        /* \"#utility.yul\":18688:18694   */\n      dup4\n        /* \"#utility.yul\":18685:18699   */\n      gt\n        /* \"#utility.yul\":18713:18714   */\n      0x01\n        /* \"#utility.yul\":18708:19326   */\n      dup2\n      eq\n      tag_328\n      jumpi\n        /* \"#utility.yul\":19370:19371   */\n      0x00\n        /* \"#utility.yul\":19387:19393   */\n      dup5\n        /* \"#utility.yul\":19384:19461   */\n      iszero\n      tag_329\n      jumpi\n        /* \"#utility.yul\":19436:19445   */\n      dup3\n        /* \"#utility.yul\":19431:19434   */\n      dup8\n        /* \"#utility.yul\":19427:19446   */\n      add\n        /* \"#utility.yul\":19421:19447   */\n      mload\n        /* \"#utility.yul\":19412:19447   */\n      swap1\n      pop\n        /* \"#utility.yul\":19384:19461   */\n    tag_329:\n        /* \"#utility.yul\":19487:19554   */\n      tag_330\n        /* \"#utility.yul\":19547:19553   */\n      dup6\n        /* \"#utility.yul\":19540:19545   */\n      dup3\n        /* \"#utility.yul\":19487:19554   */\n      tag_140\n      jump\t// in\n    tag_330:\n        /* \"#utility.yul\":19481:19485   */\n      dup7\n        /* \"#utility.yul\":19474:19555   */\n      sstore\n        /* \"#utility.yul\":19343:19565   */\n      pop\n        /* \"#utility.yul\":18678:19565   */\n      jump(tag_327)\n        /* \"#utility.yul\":18708:19326   */\n    tag_328:\n        /* \"#utility.yul\":18760:18764   */\n      0x1f\n        /* \"#utility.yul\":18756:18765   */\n      not\n        /* \"#utility.yul\":18748:18754   */\n      dup5\n        /* \"#utility.yul\":18744:18766   */\n      and\n        /* \"#utility.yul\":18794:18831   */\n      tag_331\n        /* \"#utility.yul\":18826:18830   */\n      dup7\n        /* \"#utility.yul\":18794:18831   */\n      tag_126\n      jump\t// in\n    tag_331:\n        /* \"#utility.yul\":18853:18854   */\n      0x00\n        /* \"#utility.yul\":18867:19075   */\n    tag_332:\n        /* \"#utility.yul\":18881:18888   */\n      dup3\n        /* \"#utility.yul\":18878:18879   */\n      dup2\n        /* \"#utility.yul\":18875:18889   */\n      lt\n        /* \"#utility.yul\":18867:19075   */\n      iszero\n      tag_334\n      jumpi\n        /* \"#utility.yul\":18960:18969   */\n      dup5\n        /* \"#utility.yul\":18955:18958   */\n      dup10\n        /* \"#utility.yul\":18951:18970   */\n      add\n        /* \"#utility.yul\":18945:18971   */\n      mload\n        /* \"#utility.yul\":18937:18943   */\n      dup3\n        /* \"#utility.yul\":18930:18972   */\n      sstore\n        /* \"#utility.yul\":19011:19012   */\n      0x01\n        /* \"#utility.yul\":19003:19009   */\n      dup3\n        /* \"#utility.yul\":18999:19013   */\n      add\n        /* \"#utility.yul\":18989:19013   */\n      swap2\n      pop\n        /* \"#utility.yul\":19058:19060   */\n      0x20\n        /* \"#utility.yul\":19047:19056   */\n      dup6\n        /* \"#utility.yul\":19043:19061   */\n      add\n        /* \"#utility.yul\":19030:19061   */\n      swap5\n      pop\n        /* \"#utility.yul\":18904:18908   */\n      0x20\n        /* \"#utility.yul\":18901:18902   */\n      dup2\n        /* \"#utility.yul\":18897:18909   */\n      add\n        /* \"#utility.yul\":18892:18909   */\n      swap1\n      pop\n        /* \"#utility.yul\":18867:19075   */\n      jump(tag_332)\n    tag_334:\n        /* \"#utility.yul\":19103:19109   */\n      dup7\n        /* \"#utility.yul\":19094:19101   */\n      dup4\n        /* \"#utility.yul\":19091:19110   */\n      lt\n        /* \"#utility.yul\":19088:19267   */\n      iszero\n      tag_335\n      jumpi\n        /* \"#utility.yul\":19161:19170   */\n      dup5\n        /* \"#utility.yul\":19156:19159   */\n      dup10\n        /* \"#utility.yul\":19152:19171   */\n      add\n        /* \"#utility.yul\":19146:19172   */\n      mload\n        /* \"#utility.yul\":19204:19252   */\n      tag_336\n        /* \"#utility.yul\":19246:19250   */\n      0x1f\n        /* \"#utility.yul\":19238:19244   */\n      dup10\n        /* \"#utility.yul\":19234:19251   */\n      and\n        /* \"#utility.yul\":19223:19232   */\n      dup3\n        /* \"#utility.yul\":19204:19252   */\n      tag_139\n      jump\t// in\n    tag_336:\n        /* \"#utility.yul\":19196:19202   */\n      dup4\n        /* \"#utility.yul\":19189:19253   */\n      sstore\n        /* \"#utility.yul\":19111:19267   */\n      pop\n        /* \"#utility.yul\":19088:19267   */\n    tag_335:\n        /* \"#utility.yul\":19313:19314   */\n      0x01\n        /* \"#utility.yul\":19309:19310   */\n      0x02\n        /* \"#utility.yul\":19301:19307   */\n      dup9\n        /* \"#utility.yul\":19297:19311   */\n      mul\n        /* \"#utility.yul\":19293:19315   */\n      add\n        /* \"#utility.yul\":19287:19291   */\n      dup9\n        /* \"#utility.yul\":19280:19316   */\n      sstore\n        /* \"#utility.yul\":18715:19326   */\n      pop\n      pop\n      pop\n        /* \"#utility.yul\":18678:19565   */\n    tag_327:\n      pop\n        /* \"#utility.yul\":18268:19571   */\n      pop\n      pop\n      pop\n        /* \"#utility.yul\":18176:19571   */\n      pop\n      pop\n      jump\t// out\n        /* \"#utility.yul\":19577:19746   */\n    tag_141:\n        /* \"#utility.yul\":19661:19672   */\n      0x00\n        /* \"#utility.yul\":19695:19701   */\n      dup3\n        /* \"#utility.yul\":19690:19693   */\n      dup3\n        /* \"#utility.yul\":19683:19702   */\n      mstore\n        /* \"#utility.yul\":19735:19739   */\n      0x20\n        /* \"#utility.yul\":19730:19733   */\n      dup3\n        /* \"#utility.yul\":19726:19740   */\n      add\n        /* \"#utility.yul\":19711:19740   */\n      swap1\n      pop\n        /* \"#utility.yul\":19577:19746   */\n      swap3\n      swap2\n      pop\n      pop\n      jump\t// out\n        /* \"#utility.yul\":19752:20129   */\n    tag_142:\n        /* \"#utility.yul\":19840:19843   */\n      0x00\n        /* \"#utility.yul\":19868:19907   */\n      tag_339\n        /* \"#utility.yul\":19901:19906   */\n      dup3\n        /* \"#utility.yul\":19868:19907   */\n      tag_95\n      jump\t// in\n    tag_339:\n        /* \"#utility.yul\":19923:19994   */\n      tag_340\n        /* \"#utility.yul\":19987:19993   */\n      dup2\n        /* \"#utility.yul\":19982:19985   */\n      dup6\n        /* \"#utility.yul\":19923:19994   */\n      tag_141\n      jump\t// in\n    tag_340:\n        /* \"#utility.yul\":19916:19994   */\n      swap4\n      pop\n        /* \"#utility.yul\":20003:20068   */\n      tag_341\n        /* \"#utility.yul\":20061:20067   */\n      dup2\n        /* \"#utility.yul\":20056:20059   */\n      dup6\n        /* \"#utility.yul\":20049:20053   */\n      0x20\n        /* \"#utility.yul\":20042:20047   */\n      dup7\n        /* \"#utility.yul\":20038:20054   */\n      add\n        /* \"#utility.yul\":20003:20068   */\n      tag_97\n      jump\t// in\n    tag_341:\n        /* \"#utility.yul\":20093:20122   */\n      tag_342\n        /* \"#utility.yul\":20115:20121   */\n      dup2\n        /* \"#utility.yul\":20093:20122   */\n      tag_98\n      jump\t// in\n    tag_342:\n        /* \"#utility.yul\":20088:20091   */\n      dup5\n        /* \"#utility.yul\":20084:20123   */\n      add\n        /* \"#utility.yul\":20077:20123   */\n      swap2\n      pop\n        /* \"#utility.yul\":19844:20129   */\n      pop\n        /* \"#utility.yul\":19752:20129   */\n      swap3\n      swap2\n      pop\n      pop\n      jump\t// out\n        /* \"#utility.yul\":20135:20253   */\n    tag_143:\n        /* \"#utility.yul\":20222:20246   */\n      tag_344\n        /* \"#utility.yul\":20240:20245   */\n      dup2\n        /* \"#utility.yul\":20222:20246   */\n      tag_100\n      jump\t// in\n    tag_344:\n        /* \"#utility.yul\":20217:20220   */\n      dup3\n        /* \"#utility.yul\":20210:20247   */\n      mstore\n        /* \"#utility.yul\":20135:20253   */\n      pop\n      pop\n      jump\t// out\n        /* \"#utility.yul\":20259:20883   */\n    tag_82:\n        /* \"#utility.yul\":20448:20452   */\n      0x00\n        /* \"#utility.yul\":20486:20488   */\n      0x60\n        /* \"#utility.yul\":20475:20484   */\n      dup3\n        /* \"#utility.yul\":20471:20489   */\n      add\n        /* \"#utility.yul\":20463:20489   */\n      swap1\n      pop\n        /* \"#utility.yul\":20535:20544   */\n      dup2\n        /* \"#utility.yul\":20529:20533   */\n      dup2\n        /* \"#utility.yul\":20525:20545   */\n      sub\n        /* \"#utility.yul\":20521:20522   */\n      0x00\n        /* \"#utility.yul\":20510:20519   */\n      dup4\n        /* \"#utility.yul\":20506:20523   */\n      add\n        /* \"#utility.yul\":20499:20546   */\n      mstore\n        /* \"#utility.yul\":20563:20641   */\n      tag_346\n        /* \"#utility.yul\":20636:20640   */\n      dup2\n        /* \"#utility.yul\":20627:20633   */\n      dup7\n        /* \"#utility.yul\":20563:20641   */\n      tag_142\n      jump\t// in\n    tag_346:\n        /* \"#utility.yul\":20555:20641   */\n      swap1\n      pop\n        /* \"#utility.yul\":20688:20697   */\n      dup2\n        /* \"#utility.yul\":20682:20686   */\n      dup2\n        /* \"#utility.yul\":20678:20698   */\n      sub\n        /* \"#utility.yul\":20673:20675   */\n      0x20\n        /* \"#utility.yul\":20662:20671   */\n      dup4\n        /* \"#utility.yul\":20658:20676   */\n      add\n        /* \"#utility.yul\":20651:20699   */\n      mstore\n        /* \"#utility.yul\":20716:20794   */\n      tag_347\n        /* \"#utility.yul\":20789:20793   */\n      dup2\n        /* \"#utility.yul\":20780:20786   */\n      dup6\n        /* \"#utility.yul\":20716:20794   */\n      tag_142\n      jump\t// in\n    tag_347:\n        /* \"#utility.yul\":20708:20794   */\n      swap1\n      pop\n        /* \"#utility.yul\":20804:20876   */\n      tag_348\n        /* \"#utility.yul\":20872:20874   */\n      0x40\n        /* \"#utility.yul\":20861:20870   */\n      dup4\n        /* \"#utility.yul\":20857:20875   */\n      add\n        /* \"#utility.yul\":20848:20854   */\n      dup5\n        /* \"#utility.yul\":20804:20876   */\n      tag_143\n      jump\t// in\n    tag_348:\n        /* \"#utility.yul\":20259:20883   */\n      swap5\n      swap4\n      pop\n      pop\n      pop\n      pop\n      jump\t// out\n\n    auxdata: 0xa2646970667358221220b91228b81b96ea400c1e793125c28e5c1e76004de8240e6f1911ca70e1c4219c64736f6c634300081e0033\n}\n",
				"bytecode": {
					"linkReferences": {},
					"object": "6080604052348015600e575f5ffd5b506112088061001c5f395ff3fe608060405234801561000f575f5ffd5b506004361061003f575f3560e01c80632cfdcc6b14610043578063ae362ff914610073578063e8a4a1eb146100a3575b5f5ffd5b61005d60048036038101906100589190610822565b6100bf565b60405161006a9190610a4f565b60405180910390f35b61008d60048036038101906100889190610a99565b6103f6565b60405161009a9190610b6b565b60405180910390f35b6100bd60048036038101906100b89190610cb7565b6105f8565b005b60605f5f5f8473ffffffffffffffffffffffffffffffffffffffff1673ffffffffffffffffffffffffffffffffffffffff1681526020019081526020015f2080548060200260200160405190810160405280929190818152602001828054801561014657602002820191905f5260205f20905b815481526020019060010190808311610132575b505050505090505f815167ffffffffffffffff81111561016957610168610b93565b5b6040519080825280602002602001820160405280156101a257816020015b61018f61077e565b8152602001906001900390816101875790505b5090505f5f90505b82518110156103eb5760015f8483815181106101c9576101c8610d5b565b5b602002602001015181526020019081526020015f206040518060e00160405290815f820154815260200160018201805461020290610db5565b80601f016020809104026020016040519081016040528092919081815260200182805461022e90610db5565b80156102795780601f1061025057610100808354040283529160200191610279565b820191905f5260205f20905b81548152906001019060200180831161025c57829003601f168201915b5050505050815260200160028201805461029290610db5565b80601f01602080910402602001604051908101604052809291908181526020018280546102be90610db5565b80156103095780601f106102e057610100808354040283529160200191610309565b820191905f5260205f20905b8154815290600101906020018083116102ec57829003601f168201915b5050505050815260200160038201805461032290610db5565b80601f016020809104026020016040519081016040528092919081815260200182805461034e90610db5565b80156103995780601f1061037057610100808354040283529160200191610399565b820191905f5260205f20905b81548152906001019060200180831161037c57829003601f168201915b5050505050815260200160048201548152602001600582015481526020016006820154815250508282815181106103d3576103d2610d5b565b5b602002602001018190525080806001019150506101aa565b508092505050919050565b6103fe61077e565b60015f8381526020019081526020015f206040518060e00160405290815f820154815260200160018201805461043390610db5565b80601f016020809104026020016040519081016040528092919081815260200182805461045f90610db5565b80156104aa5780601f10610481576101008083540402835291602001916104aa565b820191905f5260205f20905b81548152906001019060200180831161048d57829003601f168201915b505050505081526020016002820180546104c390610db5565b80601f01602080910402602001604051908101604052809291908181526020018280546104ef90610db5565b801561053a5780601f106105115761010080835404028352916020019161053a565b820191905f5260205f20905b81548152906001019060200180831161051d57829003601f168201915b5050505050815260200160038201805461055390610db5565b80601f016020809104026020016040519081016040528092919081815260200182805461057f90610db5565b80156105ca5780601f106105a1576101008083540402835291602001916105ca565b820191905f5260205f20905b8154815290600101906020018083116105ad57829003601f168201915b5050505050815260200160048201548152602001600582015481526020016006820154815250509050919050565b5f334284846040516020016106109493929190610e84565b6040516020818303038152906040528051906020012090505f6040518060e001604052808381526020018681526020018581526020018481526020015f81526020015f81526020014281525090505f5f3373ffffffffffffffffffffffffffffffffffffffff1673ffffffffffffffffffffffffffffffffffffffff1681526020019081526020015f2082908060018154018082558091505060019003905f5260205f20015f90919091909150558060015f8481526020019081526020015f205f820151815f015560208201518160010190816106ed9190611069565b5060408201518160020190816107039190611069565b5060608201518160030190816107199190611069565b506080820151816004015560a0820151816005015560c08201518160060155905050817f17f34748f078a06d3c7c034ef1cdf60a8b2baf4592df676d3a2ae61596619f9885874260405161076f9392919061118f565b60405180910390a25050505050565b6040518060e001604052805f81526020016060815260200160608152602001606081526020015f81526020015f81526020015f81525090565b5f604051905090565b5f5ffd5b5f5ffd5b5f73ffffffffffffffffffffffffffffffffffffffff82169050919050565b5f6107f1826107c8565b9050919050565b610801816107e7565b811461080b575f5ffd5b50565b5f8135905061081c816107f8565b92915050565b5f60208284031215610837576108366107c0565b5b5f6108448482850161080e565b91505092915050565b5f81519050919050565b5f82825260208201905092915050565b5f819050602082019050919050565b5f819050919050565b61088881610876565b82525050565b5f81519050919050565b5f82825260208201905092915050565b8281835e5f83830152505050565b5f601f19601f8301169050919050565b5f6108d08261088e565b6108da8185610898565b93506108ea8185602086016108a8565b6108f3816108b6565b840191505092915050565b5f819050919050565b610910816108fe565b82525050565b5f60e083015f83015161092b5f86018261087f565b506020830151848203602086015261094382826108c6565b9150506040830151848203604086015261095d82826108c6565b9150506060830151848203606086015261097782826108c6565b915050608083015161098c6080860182610907565b5060a083015161099f60a0860182610907565b5060c08301516109b260c0860182610907565b508091505092915050565b5f6109c88383610916565b905092915050565b5f602082019050919050565b5f6109e68261084d565b6109f08185610857565b935083602082028501610a0285610867565b805f5b85811015610a3d5784840389528151610a1e85826109bd565b9450610a29836109d0565b925060208a01995050600181019050610a05565b50829750879550505050505092915050565b5f6020820190508181035f830152610a6781846109dc565b905092915050565b610a7881610876565b8114610a82575f5ffd5b50565b5f81359050610a9381610a6f565b92915050565b5f60208284031215610aae57610aad6107c0565b5b5f610abb84828501610a85565b91505092915050565b5f60e083015f830151610ad95f86018261087f565b5060208301518482036020860152610af182826108c6565b91505060408301518482036040860152610b0b82826108c6565b91505060608301518482036060860152610b2582826108c6565b9150506080830151610b3a6080860182610907565b5060a0830151610b4d60a0860182610907565b5060c0830151610b6060c0860182610907565b508091505092915050565b5f6020820190508181035f830152610b838184610ac4565b905092915050565b5f5ffd5b5f5ffd5b7f4e487b71000000000000000000000000000000000000000000000000000000005f52604160045260245ffd5b610bc9826108b6565b810181811067ffffffffffffffff82111715610be857610be7610b93565b5b80604052505050565b5f610bfa6107b7565b9050610c068282610bc0565b919050565b5f67ffffffffffffffff821115610c2557610c24610b93565b5b610c2e826108b6565b9050602081019050919050565b828183375f83830152505050565b5f610c5b610c5684610c0b565b610bf1565b905082815260208101848484011115610c7757610c76610b8f565b5b610c82848285610c3b565b509392505050565b5f82601f830112610c9e57610c9d610b8b565b5b8135610cae848260208601610c49565b91505092915050565b5f5f5f60608486031215610cce57610ccd6107c0565b5b5f84013567ffffffffffffffff811115610ceb57610cea6107c4565b5b610cf786828701610c8a565b935050602084013567ffffffffffffffff811115610d1857610d176107c4565b5b610d2486828701610c8a565b925050604084013567ffffffffffffffff811115610d4557610d446107c4565b5b610d5186828701610c8a565b9150509250925092565b7f4e487b71000000000000000000000000000000000000000000000000000000005f52603260045260245ffd5b7f4e487b71000000000000000000000000000000000000000000000000000000005f52602260045260245ffd5b5f6002820490506001821680610dcc57607f821691505b602082108103610ddf57610dde610d88565b5b50919050565b5f8160601b9050919050565b5f610dfb82610de5565b9050919050565b5f610e0c82610df1565b9050919050565b610e24610e1f826107e7565b610e02565b82525050565b5f819050919050565b610e44610e3f826108fe565b610e2a565b82525050565b5f81905092915050565b5f610e5e8261088e565b610e688185610e4a565b9350610e788185602086016108a8565b80840191505092915050565b5f610e8f8287610e13565b601482019150610e9f8286610e33565b602082019150610eaf8285610e54565b9150610ebb8284610e54565b915081905095945050505050565b5f819050815f5260205f209050919050565b5f6020601f8301049050919050565b5f82821b905092915050565b5f60088302610f257fffffffffffffffffffffffffffffffffffffffffffffffffffffffffffffffff82610eea565b610f2f8683610eea565b95508019841693508086168417925050509392505050565b5f819050919050565b5f610f6a610f65610f60846108fe565b610f47565b6108fe565b9050919050565b5f819050919050565b610f8383610f50565b610f97610f8f82610f71565b848454610ef6565b825550505050565b5f5f905090565b610fae610f9f565b610fb9818484610f7a565b505050565b5b81811015610fdc57610fd15f82610fa6565b600181019050610fbf565b5050565b601f82111561102157610ff281610ec9565b610ffb84610edb565b8101602085101561100a578190505b61101e61101685610edb565b830182610fbe565b50505b505050565b5f82821c905092915050565b5f6110415f1984600802611026565b1980831691505092915050565b5f6110598383611032565b9150826002028217905092915050565b6110728261088e565b67ffffffffffffffff81111561108b5761108a610b93565b5b6110958254610db5565b6110a0828285610fe0565b5f60209050601f8311600181146110d1575f84156110bf578287015190505b6110c9858261104e565b865550611130565b601f1984166110df86610ec9565b5f5b82811015611106578489015182556001820191506020850194506020810190506110e1565b86831015611123578489015161111f601f891682611032565b8355505b6001600288020188555050505b505050505050565b5f82825260208201905092915050565b5f6111528261088e565b61115c8185611138565b935061116c8185602086016108a8565b611175816108b6565b840191505092915050565b611189816108fe565b82525050565b5f6060820190508181035f8301526111a78186611148565b905081810360208301526111bb8185611148565b90506111ca6040830184611180565b94935050505056fea2646970667358221220b91228b81b96ea400c1e793125c28e5c1e76004de8240e6f1911ca70e1c4219c64736f6c634300081e0033",
					"opcodes": "PUSH1 0x80 PUSH1 0x40 MSTORE CALLVALUE DUP1 ISZERO PUSH1 0xE JUMPI PUSH0 PUSH0 REVERT JUMPDEST POP PUSH2 0x1208 DUP1 PUSH2 0x1C PUSH0 CODECOPY PUSH0 RETURN INVALID PUSH1 0x80 PUSH1 0x40 MSTORE CALLVALUE DUP1 ISZERO PUSH2 0xF JUMPI PUSH0 PUSH0 REVERT JUMPDEST POP PUSH1 0x4 CALLDATASIZE LT PUSH2 0x3F JUMPI PUSH0 CALLDATALOAD PUSH1 0xE0 SHR DUP1 PUSH4 0x2CFDCC6B EQ PUSH2 0x43 JUMPI DUP1 PUSH4 0xAE362FF9 EQ PUSH2 0x73 JUMPI DUP1 PUSH4 0xE8A4A1EB EQ PUSH2 0xA3 JUMPI JUMPDEST PUSH0 PUSH0 REVERT JUMPDEST PUSH2 0x5D PUSH1 0x4 DUP1 CALLDATASIZE SUB DUP2 ADD SWAP1 PUSH2 0x58 SWAP2 SWAP1 PUSH2 0x822 JUMP JUMPDEST PUSH2 0xBF JUMP JUMPDEST PUSH1 0x40 MLOAD PUSH2 0x6A SWAP2 SWAP1 PUSH2 0xA4F JUMP JUMPDEST PUSH1 0x40 MLOAD DUP1 SWAP2 SUB SWAP1 RETURN JUMPDEST PUSH2 0x8D PUSH1 0x4 DUP1 CALLDATASIZE SUB DUP2 ADD SWAP1 PUSH2 0x88 SWAP2 SWAP1 PUSH2 0xA99 JUMP JUMPDEST PUSH2 0x3F6 JUMP JUMPDEST PUSH1 0x40 MLOAD PUSH2 0x9A SWAP2 SWAP1 PUSH2 0xB6B JUMP JUMPDEST PUSH1 0x40 MLOAD DUP1 SWAP2 SUB SWAP1 RETURN JUMPDEST PUSH2 0xBD PUSH1 0x4 DUP1 CALLDATASIZE SUB DUP2 ADD SWAP1 PUSH2 0xB8 SWAP2 SWAP1 PUSH2 0xCB7 JUMP JUMPDEST PUSH2 0x5F8 JUMP JUMPDEST STOP JUMPDEST PUSH1 0x60 PUSH0 PUSH0 PUSH0 DUP5 PUSH20 0xFFFFFFFFFFFFFFFFFFFFFFFFFFFFFFFFFFFFFFFF AND PUSH20 0xFFFFFFFFFFFFFFFFFFFFFFFFFFFFFFFFFFFFFFFF AND DUP2 MSTORE PUSH1 0x20 ADD SWAP1 DUP2 MSTORE PUSH1 0x20 ADD PUSH0 KECCAK256 DUP1 SLOAD DUP1 PUSH1 0x20 MUL PUSH1 0x20 ADD PUSH1 0x40 MLOAD SWAP1 DUP2 ADD PUSH1 0x40 MSTORE DUP1 SWAP3 SWAP2 SWAP1 DUP2 DUP2 MSTORE PUSH1 0x20 ADD DUP3 DUP1 SLOAD DUP1 ISZERO PUSH2 0x146 JUMPI PUSH1 0x20 MUL DUP3 ADD SWAP2 SWAP1 PUSH0 MSTORE PUSH1 0x20 PUSH0 KECCAK256 SWAP1 JUMPDEST DUP2 SLOAD DUP2 MSTORE PUSH1 0x20 ADD SWAP1 PUSH1 0x1 ADD SWAP1 DUP1 DUP4 GT PUSH2 0x132 JUMPI JUMPDEST POP POP POP POP POP SWAP1 POP PUSH0 DUP2 MLOAD PUSH8 0xFFFFFFFFFFFFFFFF DUP2 GT ISZERO PUSH2 0x169 JUMPI PUSH2 0x168 PUSH2 0xB93 JUMP JUMPDEST JUMPDEST PUSH1 0x40 MLOAD SWAP1 DUP1 DUP3 MSTORE DUP1 PUSH1 0x20 MUL PUSH1 0x20 ADD DUP3 ADD PUSH1 0x40 MSTORE DUP1 ISZERO PUSH2 0x1A2 JUMPI DUP2 PUSH1 0x20 ADD JUMPDEST PUSH2 0x18F PUSH2 0x77E JUMP JUMPDEST DUP2 MSTORE PUSH1 0x20 ADD SWAP1 PUSH1 0x1 SWAP1 SUB SWAP1 DUP2 PUSH2 0x187 JUMPI SWAP1 POP JUMPDEST POP SWAP1 POP PUSH0 PUSH0 SWAP1 POP JUMPDEST DUP3 MLOAD DUP2 LT ISZERO PUSH2 0x3EB JUMPI PUSH1 0x1 PUSH0 DUP5 DUP4 DUP2 MLOAD DUP2 LT PUSH2 0x1C9 JUMPI PUSH2 0x1C8 PUSH2 0xD5B JUMP JUMPDEST JUMPDEST PUSH1 0x20 MUL PUSH1 0x20 ADD ADD MLOAD DUP2 MSTORE PUSH1 0x20 ADD SWAP1 DUP2 MSTORE PUSH1 0x20 ADD PUSH0 KECCAK256 PUSH1 0x40 MLOAD DUP1 PUSH1 0xE0 ADD PUSH1 0x40 MSTORE SWAP1 DUP2 PUSH0 DUP3 ADD SLOAD DUP2 MSTORE PUSH1 0x20 ADD PUSH1 0x1 DUP3 ADD DUP1 SLOAD PUSH2 0x202 SWAP1 PUSH2 0xDB5 JUMP JUMPDEST DUP1 PUSH1 0x1F ADD PUSH1 0x20 DUP1 SWAP2 DIV MUL PUSH1 0x20 ADD PUSH1 0x40 MLOAD SWAP1 DUP2 ADD PUSH1 0x40 MSTORE DUP1 SWAP3 SWAP2 SWAP1 DUP2 DUP2 MSTORE PUSH1 0x20 ADD DUP3 DUP1 SLOAD PUSH2 0x22E SWAP1 PUSH2 0xDB5 JUMP JUMPDEST DUP1 ISZERO PUSH2 0x279 JUMPI DUP1 PUSH1 0x1F LT PUSH2 0x250 JUMPI PUSH2 0x100 DUP1 DUP4 SLOAD DIV MUL DUP4 MSTORE SWAP2 PUSH1 0x20 ADD SWAP2 PUSH2 0x279 JUMP JUMPDEST DUP3 ADD SWAP2 SWAP1 PUSH0 MSTORE PUSH1 0x20 PUSH0 KECCAK256 SWAP1 JUMPDEST DUP2 SLOAD DUP2 MSTORE SWAP1 PUSH1 0x1 ADD SWAP1 PUSH1 0x20 ADD DUP1 DUP4 GT PUSH2 0x25C JUMPI DUP3 SWAP1 SUB PUSH1 0x1F AND DUP3 ADD SWAP2 JUMPDEST POP POP POP POP POP DUP2 MSTORE PUSH1 0x20 ADD PUSH1 0x2 DUP3 ADD DUP1 SLOAD PUSH2 0x292 SWAP1 PUSH2 0xDB5 JUMP JUMPDEST DUP1 PUSH1 0x1F ADD PUSH1 0x20 DUP1 SWAP2 DIV MUL PUSH1 0x20 ADD PUSH1 0x40 MLOAD SWAP1 DUP2 ADD PUSH1 0x40 MSTORE DUP1 SWAP3 SWAP2 SWAP1 DUP2 DUP2 MSTORE PUSH1 0x20 ADD DUP3 DUP1 SLOAD PUSH2 0x2BE SWAP1 PUSH2 0xDB5 JUMP JUMPDEST DUP1 ISZERO PUSH2 0x309 JUMPI DUP1 PUSH1 0x1F LT PUSH2 0x2E0 JUMPI PUSH2 0x100 DUP1 DUP4 SLOAD DIV MUL DUP4 MSTORE SWAP2 PUSH1 0x20 ADD SWAP2 PUSH2 0x309 JUMP JUMPDEST DUP3 ADD SWAP2 SWAP1 PUSH0 MSTORE PUSH1 0x20 PUSH0 KECCAK256 SWAP1 JUMPDEST DUP2 SLOAD DUP2 MSTORE SWAP1 PUSH1 0x1 ADD SWAP1 PUSH1 0x20 ADD DUP1 DUP4 GT PUSH2 0x2EC JUMPI DUP3 SWAP1 SUB PUSH1 0x1F AND DUP3 ADD SWAP2 JUMPDEST POP POP POP POP POP DUP2 MSTORE PUSH1 0x20 ADD PUSH1 0x3 DUP3 ADD DUP1 SLOAD PUSH2 0x322 SWAP1 PUSH2 0xDB5 JUMP JUMPDEST DUP1 PUSH1 0x1F ADD PUSH1 0x20 DUP1 SWAP2 DIV MUL PUSH1 0x20 ADD PUSH1 0x40 MLOAD SWAP1 DUP2 ADD PUSH1 0x40 MSTORE DUP1 SWAP3 SWAP2 SWAP1 DUP2 DUP2 MSTORE PUSH1 0x20 ADD DUP3 DUP1 SLOAD PUSH2 0x34E SWAP1 PUSH2 0xDB5 JUMP JUMPDEST DUP1 ISZERO PUSH2 0x399 JUMPI DUP1 PUSH1 0x1F LT PUSH2 0x370 JUMPI PUSH2 0x100 DUP1 DUP4 SLOAD DIV MUL DUP4 MSTORE SWAP2 PUSH1 0x20 ADD SWAP2 PUSH2 0x399 JUMP JUMPDEST DUP3 ADD SWAP2 SWAP1 PUSH0 MSTORE PUSH1 0x20 PUSH0 KECCAK256 SWAP1 JUMPDEST DUP2 SLOAD DUP2 MSTORE SWAP1 PUSH1 0x1 ADD SWAP1 PUSH1 0x20 ADD DUP1 DUP4 GT PUSH2 0x37C JUMPI DUP3 SWAP1 SUB PUSH1 0x1F AND DUP3 ADD SWAP2 JUMPDEST POP POP POP POP POP DUP2 MSTORE PUSH1 0x20 ADD PUSH1 0x4 DUP3 ADD SLOAD DUP2 MSTORE PUSH1 0x20 ADD PUSH1 0x5 DUP3 ADD SLOAD DUP2 MSTORE PUSH1 0x20 ADD PUSH1 0x6 DUP3 ADD SLOAD DUP2 MSTORE POP POP DUP3 DUP3 DUP2 MLOAD DUP2 LT PUSH2 0x3D3 JUMPI PUSH2 0x3D2 PUSH2 0xD5B JUMP JUMPDEST JUMPDEST PUSH1 0x20 MUL PUSH1 0x20 ADD ADD DUP2 SWAP1 MSTORE POP DUP1 DUP1 PUSH1 0x1 ADD SWAP2 POP POP PUSH2 0x1AA JUMP JUMPDEST POP DUP1 SWAP3 POP POP POP SWAP2 SWAP1 POP JUMP JUMPDEST PUSH2 0x3FE PUSH2 0x77E JUMP JUMPDEST PUSH1 0x1 PUSH0 DUP4 DUP2 MSTORE PUSH1 0x20 ADD SWAP1 DUP2 MSTORE PUSH1 0x20 ADD PUSH0 KECCAK256 PUSH1 0x40 MLOAD DUP1 PUSH1 0xE0 ADD PUSH1 0x40 MSTORE SWAP1 DUP2 PUSH0 DUP3 ADD SLOAD DUP2 MSTORE PUSH1 0x20 ADD PUSH1 0x1 DUP3 ADD DUP1 SLOAD PUSH2 0x433 SWAP1 PUSH2 0xDB5 JUMP JUMPDEST DUP1 PUSH1 0x1F ADD PUSH1 0x20 DUP1 SWAP2 DIV MUL PUSH1 0x20 ADD PUSH1 0x40 MLOAD SWAP1 DUP2 ADD PUSH1 0x40 MSTORE DUP1 SWAP3 SWAP2 SWAP1 DUP2 DUP2 MSTORE PUSH1 0x20 ADD DUP3 DUP1 SLOAD PUSH2 0x45F SWAP1 PUSH2 0xDB5 JUMP JUMPDEST DUP1 ISZERO PUSH2 0x4AA JUMPI DUP1 PUSH1 0x1F LT PUSH2 0x481 JUMPI PUSH2 0x100 DUP1 DUP4 SLOAD DIV MUL DUP4 MSTORE SWAP2 PUSH1 0x20 ADD SWAP2 PUSH2 0x4AA JUMP JUMPDEST DUP3 ADD SWAP2 SWAP1 PUSH0 MSTORE PUSH1 0x20 PUSH0 KECCAK256 SWAP1 JUMPDEST DUP2 SLOAD DUP2 MSTORE SWAP1 PUSH1 0x1 ADD SWAP1 PUSH1 0x20 ADD DUP1 DUP4 GT PUSH2 0x48D JUMPI DUP3 SWAP1 SUB PUSH1 0x1F AND DUP3 ADD SWAP2 JUMPDEST POP POP POP POP POP DUP2 MSTORE PUSH1 0x20 ADD PUSH1 0x2 DUP3 ADD DUP1 SLOAD PUSH2 0x4C3 SWAP1 PUSH2 0xDB5 JUMP JUMPDEST DUP1 PUSH1 0x1F ADD PUSH1 0x20 DUP1 SWAP2 DIV MUL PUSH1 0x20 ADD PUSH1 0x40 MLOAD SWAP1 DUP2 ADD PUSH1 0x40 MSTORE DUP1 SWAP3 SWAP2 SWAP1 DUP2 DUP2 MSTORE PUSH1 0x20 ADD DUP3 DUP1 SLOAD PUSH2 0x4EF SWAP1 PUSH2 0xDB5 JUMP JUMPDEST DUP1 ISZERO PUSH2 0x53A JUMPI DUP1 PUSH1 0x1F LT PUSH2 0x511 JUMPI PUSH2 0x100 DUP1 DUP4 SLOAD DIV MUL DUP4 MSTORE SWAP2 PUSH1 0x20 ADD SWAP2 PUSH2 0x53A JUMP JUMPDEST DUP3 ADD SWAP2 SWAP1 PUSH0 MSTORE PUSH1 0x20 PUSH0 KECCAK256 SWAP1 JUMPDEST DUP2 SLOAD DUP2 MSTORE SWAP1 PUSH1 0x1 ADD SWAP1 PUSH1 0x20 ADD DUP1 DUP4 GT PUSH2 0x51D JUMPI DUP3 SWAP1 SUB PUSH1 0x1F AND DUP3 ADD SWAP2 JUMPDEST POP POP POP POP POP DUP2 MSTORE PUSH1 0x20 ADD PUSH1 0x3 DUP3 ADD DUP1 SLOAD PUSH2 0x553 SWAP1 PUSH2 0xDB5 JUMP JUMPDEST DUP1 PUSH1 0x1F ADD PUSH1 0x20 DUP1 SWAP2 DIV MUL PUSH1 0x20 ADD PUSH1 0x40 MLOAD SWAP1 DUP2 ADD PUSH1 0x40 MSTORE DUP1 SWAP3 SWAP2 SWAP1 DUP2 DUP2 MSTORE PUSH1 0x20 ADD DUP3 DUP1 SLOAD PUSH2 0x57F SWAP1 PUSH2 0xDB5 JUMP JUMPDEST DUP1 ISZERO PUSH2 0x5CA JUMPI DUP1 PUSH1 0x1F LT PUSH2 0x5A1 JUMPI PUSH2 0x100 DUP1 DUP4 SLOAD DIV MUL DUP4 MSTORE SWAP2 PUSH1 0x20 ADD SWAP2 PUSH2 0x5CA JUMP JUMPDEST DUP3 ADD SWAP2 SWAP1 PUSH0 MSTORE PUSH1 0x20 PUSH0 KECCAK256 SWAP1 JUMPDEST DUP2 SLOAD DUP2 MSTORE SWAP1 PUSH1 0x1 ADD SWAP1 PUSH1 0x20 ADD DUP1 DUP4 GT PUSH2 0x5AD JUMPI DUP3 SWAP1 SUB PUSH1 0x1F AND DUP3 ADD SWAP2 JUMPDEST POP POP POP POP POP DUP2 MSTORE PUSH1 0x20 ADD PUSH1 0x4 DUP3 ADD SLOAD DUP2 MSTORE PUSH1 0x20 ADD PUSH1 0x5 DUP3 ADD SLOAD DUP2 MSTORE PUSH1 0x20 ADD PUSH1 0x6 DUP3 ADD SLOAD DUP2 MSTORE POP POP SWAP1 POP SWAP2 SWAP1 POP JUMP JUMPDEST PUSH0 CALLER TIMESTAMP DUP5 DUP5 PUSH1 0x40 MLOAD PUSH1 0x20 ADD PUSH2 0x610 SWAP5 SWAP4 SWAP3 SWAP2 SWAP1 PUSH2 0xE84 JUMP JUMPDEST PUSH1 0x40 MLOAD PUSH1 0x20 DUP2 DUP4 SUB SUB DUP2 MSTORE SWAP1 PUSH1 0x40 MSTORE DUP1 MLOAD SWAP1 PUSH1 0x20 ADD KECCAK256 SWAP1 POP PUSH0 PUSH1 0x40 MLOAD DUP1 PUSH1 0xE0 ADD PUSH1 0x40 MSTORE DUP1 DUP4 DUP2 MSTORE PUSH1 0x20 ADD DUP7 DUP2 MSTORE PUSH1 0x20 ADD DUP6 DUP2 MSTORE PUSH1 0x20 ADD DUP5 DUP2 MSTORE PUSH1 0x20 ADD PUSH0 DUP2 MSTORE PUSH1 0x20 ADD PUSH0 DUP2 MSTORE PUSH1 0x20 ADD TIMESTAMP DUP2 MSTORE POP SWAP1 POP PUSH0 PUSH0 CALLER PUSH20 0xFFFFFFFFFFFFFFFFFFFFFFFFFFFFFFFFFFFFFFFF AND PUSH20 0xFFFFFFFFFFFFFFFFFFFFFFFFFFFFFFFFFFFFFFFF AND DUP2 MSTORE PUSH1 0x20 ADD SWAP1 DUP2 MSTORE PUSH1 0x20 ADD PUSH0 KECCAK256 DUP3 SWAP1 DUP1 PUSH1 0x1 DUP2 SLOAD ADD DUP1 DUP3 SSTORE DUP1 SWAP2 POP POP PUSH1 0x1 SWAP1 SUB SWAP1 PUSH0 MSTORE PUSH1 0x20 PUSH0 KECCAK256 ADD PUSH0 SWAP1 SWAP2 SWAP1 SWAP2 SWAP1 SWAP2 POP SSTORE DUP1 PUSH1 0x1 PUSH0 DUP5 DUP2 MSTORE PUSH1 0x20 ADD SWAP1 DUP2 MSTORE PUSH1 0x20 ADD PUSH0 KECCAK256 PUSH0 DUP3 ADD MLOAD DUP2 PUSH0 ADD SSTORE PUSH1 0x20 DUP3 ADD MLOAD DUP2 PUSH1 0x1 ADD SWAP1 DUP2 PUSH2 0x6ED SWAP2 SWAP1 PUSH2 0x1069 JUMP JUMPDEST POP PUSH1 0x40 DUP3 ADD MLOAD DUP2 PUSH1 0x2 ADD SWAP1 DUP2 PUSH2 0x703 SWAP2 SWAP1 PUSH2 0x1069 JUMP JUMPDEST POP PUSH1 0x60 DUP3 ADD MLOAD DUP2 PUSH1 0x3 ADD SWAP1 DUP2 PUSH2 0x719 SWAP2 SWAP1 PUSH2 0x1069 JUMP JUMPDEST POP PUSH1 0x80 DUP3 ADD MLOAD DUP2 PUSH1 0x4 ADD SSTORE PUSH1 0xA0 DUP3 ADD MLOAD DUP2 PUSH1 0x5 ADD SSTORE PUSH1 0xC0 DUP3 ADD MLOAD DUP2 PUSH1 0x6 ADD SSTORE SWAP1 POP POP DUP2 PUSH32 0x17F34748F078A06D3C7C034EF1CDF60A8B2BAF4592DF676D3A2AE61596619F98 DUP6 DUP8 TIMESTAMP PUSH1 0x40 MLOAD PUSH2 0x76F SWAP4 SWAP3 SWAP2 SWAP1 PUSH2 0x118F JUMP JUMPDEST PUSH1 0x40 MLOAD DUP1 SWAP2 SUB SWAP1 LOG2 POP POP POP POP POP JUMP JUMPDEST PUSH1 0x40 MLOAD DUP1 PUSH1 0xE0 ADD PUSH1 0x40 MSTORE DUP1 PUSH0 DUP2 MSTORE PUSH1 0x20 ADD PUSH1 0x60 DUP2 MSTORE PUSH1 0x20 ADD PUSH1 0x60 DUP2 MSTORE PUSH1 0x20 ADD PUSH1 0x60 DUP2 MSTORE PUSH1 0x20 ADD PUSH0 DUP2 MSTORE PUSH1 0x20 ADD PUSH0 DUP2 MSTORE PUSH1 0x20 ADD PUSH0 DUP2 MSTORE POP SWAP1 JUMP JUMPDEST PUSH0 PUSH1 0x40 MLOAD SWAP1 POP SWAP1 JUMP JUMPDEST PUSH0 PUSH0 REVERT JUMPDEST PUSH0 PUSH0 REVERT JUMPDEST PUSH0 PUSH20 0xFFFFFFFFFFFFFFFFFFFFFFFFFFFFFFFFFFFFFFFF DUP3 AND SWAP1 POP SWAP2 SWAP1 POP JUMP JUMPDEST PUSH0 PUSH2 0x7F1 DUP3 PUSH2 0x7C8 JUMP JUMPDEST SWAP1 POP SWAP2 SWAP1 POP JUMP JUMPDEST PUSH2 0x801 DUP2 PUSH2 0x7E7 JUMP JUMPDEST DUP2 EQ PUSH2 0x80B JUMPI PUSH0 PUSH0 REVERT JUMPDEST POP JUMP JUMPDEST PUSH0 DUP2 CALLDATALOAD SWAP1 POP PUSH2 0x81C DUP2 PUSH2 0x7F8 JUMP JUMPDEST SWAP3 SWAP2 POP POP JUMP JUMPDEST PUSH0 PUSH1 0x20 DUP3 DUP5 SUB SLT ISZERO PUSH2 0x837 JUMPI PUSH2 0x836 PUSH2 0x7C0 JUMP JUMPDEST JUMPDEST PUSH0 PUSH2 0x844 DUP5 DUP3 DUP6 ADD PUSH2 0x80E JUMP JUMPDEST SWAP2 POP POP SWAP3 SWAP2 POP POP JUMP JUMPDEST PUSH0 DUP2 MLOAD SWAP1 POP SWAP2 SWAP1 POP JUMP JUMPDEST PUSH0 DUP3 DUP3 MSTORE PUSH1 0x20 DUP3 ADD SWAP1 POP SWAP3 SWAP2 POP POP JUMP JUMPDEST PUSH0 DUP2 SWAP1 POP PUSH1 0x20 DUP3 ADD SWAP1 POP SWAP2 SWAP1 POP JUMP JUMPDEST PUSH0 DUP2 SWAP1 POP SWAP2 SWAP1 POP JUMP JUMPDEST PUSH2 0x888 DUP2 PUSH2 0x876 JUMP JUMPDEST DUP3 MSTORE POP POP JUMP JUMPDEST PUSH0 DUP2 MLOAD SWAP1 POP SWAP2 SWAP1 POP JUMP JUMPDEST PUSH0 DUP3 DUP3 MSTORE PUSH1 0x20 DUP3 ADD SWAP1 POP SWAP3 SWAP2 POP POP JUMP JUMPDEST DUP3 DUP2 DUP4 MCOPY PUSH0 DUP4 DUP4 ADD MSTORE POP POP POP JUMP JUMPDEST PUSH0 PUSH1 0x1F NOT PUSH1 0x1F DUP4 ADD AND SWAP1 POP SWAP2 SWAP1 POP JUMP JUMPDEST PUSH0 PUSH2 0x8D0 DUP3 PUSH2 0x88E JUMP JUMPDEST PUSH2 0x8DA DUP2 DUP6 PUSH2 0x898 JUMP JUMPDEST SWAP4 POP PUSH2 0x8EA DUP2 DUP6 PUSH1 0x20 DUP7 ADD PUSH2 0x8A8 JUMP JUMPDEST PUSH2 0x8F3 DUP2 PUSH2 0x8B6 JUMP JUMPDEST DUP5 ADD SWAP2 POP POP SWAP3 SWAP2 POP POP JUMP JUMPDEST PUSH0 DUP2 SWAP1 POP SWAP2 SWAP1 POP JUMP JUMPDEST PUSH2 0x910 DUP2 PUSH2 0x8FE JUMP JUMPDEST DUP3 MSTORE POP POP JUMP JUMPDEST PUSH0 PUSH1 0xE0 DUP4 ADD PUSH0 DUP4 ADD MLOAD PUSH2 0x92B PUSH0 DUP7 ADD DUP3 PUSH2 0x87F JUMP JUMPDEST POP PUSH1 0x20 DUP4 ADD MLOAD DUP5 DUP3 SUB PUSH1 0x20 DUP7 ADD MSTORE PUSH2 0x943 DUP3 DUP3 PUSH2 0x8C6 JUMP JUMPDEST SWAP2 POP POP PUSH1 0x40 DUP4 ADD MLOAD DUP5 DUP3 SUB PUSH1 0x40 DUP7 ADD MSTORE PUSH2 0x95D DUP3 DUP3 PUSH2 0x8C6 JUMP JUMPDEST SWAP2 POP POP PUSH1 0x60 DUP4 ADD MLOAD DUP5 DUP3 SUB PUSH1 0x60 DUP7 ADD MSTORE PUSH2 0x977 DUP3 DUP3 PUSH2 0x8C6 JUMP JUMPDEST SWAP2 POP POP PUSH1 0x80 DUP4 ADD MLOAD PUSH2 0x98C PUSH1 0x80 DUP7 ADD DUP3 PUSH2 0x907 JUMP JUMPDEST POP PUSH1 0xA0 DUP4 ADD MLOAD PUSH2 0x99F PUSH1 0xA0 DUP7 ADD DUP3 PUSH2 0x907 JUMP JUMPDEST POP PUSH1 0xC0 DUP4 ADD MLOAD PUSH2 0x9B2 PUSH1 0xC0 DUP7 ADD DUP3 PUSH2 0x907 JUMP JUMPDEST POP DUP1 SWAP2 POP POP SWAP3 SWAP2 POP POP JUMP JUMPDEST PUSH0 PUSH2 0x9C8 DUP4 DUP4 PUSH2 0x916 JUMP JUMPDEST SWAP1 POP SWAP3 SWAP2 POP POP JUMP JUMPDEST PUSH0 PUSH1 0x20 DUP3 ADD SWAP1 POP SWAP2 SWAP1 POP JUMP JUMPDEST PUSH0 PUSH2 0x9E6 DUP3 PUSH2 0x84D JUMP JUMPDEST PUSH2 0x9F0 DUP2 DUP6 PUSH2 0x857 JUMP JUMPDEST SWAP4 POP DUP4 PUSH1 0x20 DUP3 MUL DUP6 ADD PUSH2 0xA02 DUP6 PUSH2 0x867 JUMP JUMPDEST DUP1 PUSH0 JUMPDEST DUP6 DUP2 LT ISZERO PUSH2 0xA3D JUMPI DUP5 DUP5 SUB DUP10 MSTORE DUP2 MLOAD PUSH2 0xA1E DUP6 DUP3 PUSH2 0x9BD JUMP JUMPDEST SWAP5 POP PUSH2 0xA29 DUP4 PUSH2 0x9D0 JUMP JUMPDEST SWAP3 POP PUSH1 0x20 DUP11 ADD SWAP10 POP POP PUSH1 0x1 DUP2 ADD SWAP1 POP PUSH2 0xA05 JUMP JUMPDEST POP DUP3 SWAP8 POP DUP8 SWAP6 POP POP POP POP POP POP SWAP3 SWAP2 POP POP JUMP JUMPDEST PUSH0 PUSH1 0x20 DUP3 ADD SWAP1 POP DUP2 DUP2 SUB PUSH0 DUP4 ADD MSTORE PUSH2 0xA67 DUP2 DUP5 PUSH2 0x9DC JUMP JUMPDEST SWAP1 POP SWAP3 SWAP2 POP POP JUMP JUMPDEST PUSH2 0xA78 DUP2 PUSH2 0x876 JUMP JUMPDEST DUP2 EQ PUSH2 0xA82 JUMPI PUSH0 PUSH0 REVERT JUMPDEST POP JUMP JUMPDEST PUSH0 DUP2 CALLDATALOAD SWAP1 POP PUSH2 0xA93 DUP2 PUSH2 0xA6F JUMP JUMPDEST SWAP3 SWAP2 POP POP JUMP JUMPDEST PUSH0 PUSH1 0x20 DUP3 DUP5 SUB SLT ISZERO PUSH2 0xAAE JUMPI PUSH2 0xAAD PUSH2 0x7C0 JUMP JUMPDEST JUMPDEST PUSH0 PUSH2 0xABB DUP5 DUP3 DUP6 ADD PUSH2 0xA85 JUMP JUMPDEST SWAP2 POP POP SWAP3 SWAP2 POP POP JUMP JUMPDEST PUSH0 PUSH1 0xE0 DUP4 ADD PUSH0 DUP4 ADD MLOAD PUSH2 0xAD9 PUSH0 DUP7 ADD DUP3 PUSH2 0x87F JUMP JUMPDEST POP PUSH1 0x20 DUP4 ADD MLOAD DUP5 DUP3 SUB PUSH1 0x20 DUP7 ADD MSTORE PUSH2 0xAF1 DUP3 DUP3 PUSH2 0x8C6 JUMP JUMPDEST SWAP2 POP POP PUSH1 0x40 DUP4 ADD MLOAD DUP5 DUP3 SUB PUSH1 0x40 DUP7 ADD MSTORE PUSH2 0xB0B DUP3 DUP3 PUSH2 0x8C6 JUMP JUMPDEST SWAP2 POP POP PUSH1 0x60 DUP4 ADD MLOAD DUP5 DUP3 SUB PUSH1 0x60 DUP7 ADD MSTORE PUSH2 0xB25 DUP3 DUP3 PUSH2 0x8C6 JUMP JUMPDEST SWAP2 POP POP PUSH1 0x80 DUP4 ADD MLOAD PUSH2 0xB3A PUSH1 0x80 DUP7 ADD DUP3 PUSH2 0x907 JUMP JUMPDEST POP PUSH1 0xA0 DUP4 ADD MLOAD PUSH2 0xB4D PUSH1 0xA0 DUP7 ADD DUP3 PUSH2 0x907 JUMP JUMPDEST POP PUSH1 0xC0 DUP4 ADD MLOAD PUSH2 0xB60 PUSH1 0xC0 DUP7 ADD DUP3 PUSH2 0x907 JUMP JUMPDEST POP DUP1 SWAP2 POP POP SWAP3 SWAP2 POP POP JUMP JUMPDEST PUSH0 PUSH1 0x20 DUP3 ADD SWAP1 POP DUP2 DUP2 SUB PUSH0 DUP4 ADD MSTORE PUSH2 0xB83 DUP2 DUP5 PUSH2 0xAC4 JUMP JUMPDEST SWAP1 POP SWAP3 SWAP2 POP POP JUMP JUMPDEST PUSH0 PUSH0 REVERT JUMPDEST PUSH0 PUSH0 REVERT JUMPDEST PUSH32 0x4E487B7100000000000000000000000000000000000000000000000000000000 PUSH0 MSTORE PUSH1 0x41 PUSH1 0x4 MSTORE PUSH1 0x24 PUSH0 REVERT JUMPDEST PUSH2 0xBC9 DUP3 PUSH2 0x8B6 JUMP JUMPDEST DUP2 ADD DUP2 DUP2 LT PUSH8 0xFFFFFFFFFFFFFFFF DUP3 GT OR ISZERO PUSH2 0xBE8 JUMPI PUSH2 0xBE7 PUSH2 0xB93 JUMP JUMPDEST JUMPDEST DUP1 PUSH1 0x40 MSTORE POP POP POP JUMP JUMPDEST PUSH0 PUSH2 0xBFA PUSH2 0x7B7 JUMP JUMPDEST SWAP1 POP PUSH2 0xC06 DUP3 DUP3 PUSH2 0xBC0 JUMP JUMPDEST SWAP2 SWAP1 POP JUMP JUMPDEST PUSH0 PUSH8 0xFFFFFFFFFFFFFFFF DUP3 GT ISZERO PUSH2 0xC25 JUMPI PUSH2 0xC24 PUSH2 0xB93 JUMP JUMPDEST JUMPDEST PUSH2 0xC2E DUP3 PUSH2 0x8B6 JUMP JUMPDEST SWAP1 POP PUSH1 0x20 DUP2 ADD SWAP1 POP SWAP2 SWAP1 POP JUMP JUMPDEST DUP3 DUP2 DUP4 CALLDATACOPY PUSH0 DUP4 DUP4 ADD MSTORE POP POP POP JUMP JUMPDEST PUSH0 PUSH2 0xC5B PUSH2 0xC56 DUP5 PUSH2 0xC0B JUMP JUMPDEST PUSH2 0xBF1 JUMP JUMPDEST SWAP1 POP DUP3 DUP2 MSTORE PUSH1 0x20 DUP2 ADD DUP5 DUP5 DUP5 ADD GT ISZERO PUSH2 0xC77 JUMPI PUSH2 0xC76 PUSH2 0xB8F JUMP JUMPDEST JUMPDEST PUSH2 0xC82 DUP5 DUP3 DUP6 PUSH2 0xC3B JUMP JUMPDEST POP SWAP4 SWAP3 POP POP POP JUMP JUMPDEST PUSH0 DUP3 PUSH1 0x1F DUP4 ADD SLT PUSH2 0xC9E JUMPI PUSH2 0xC9D PUSH2 0xB8B JUMP JUMPDEST JUMPDEST DUP2 CALLDATALOAD PUSH2 0xCAE DUP5 DUP3 PUSH1 0x20 DUP7 ADD PUSH2 0xC49 JUMP JUMPDEST SWAP2 POP POP SWAP3 SWAP2 POP POP JUMP JUMPDEST PUSH0 PUSH0 PUSH0 PUSH1 0x60 DUP5 DUP7 SUB SLT ISZERO PUSH2 0xCCE JUMPI PUSH2 0xCCD PUSH2 0x7C0 JUMP JUMPDEST JUMPDEST PUSH0 DUP5 ADD CALLDATALOAD PUSH8 0xFFFFFFFFFFFFFFFF DUP2 GT ISZERO PUSH2 0xCEB JUMPI PUSH2 0xCEA PUSH2 0x7C4 JUMP JUMPDEST JUMPDEST PUSH2 0xCF7 DUP7 DUP3 DUP8 ADD PUSH2 0xC8A JUMP JUMPDEST SWAP4 POP POP PUSH1 0x20 DUP5 ADD CALLDATALOAD PUSH8 0xFFFFFFFFFFFFFFFF DUP2 GT ISZERO PUSH2 0xD18 JUMPI PUSH2 0xD17 PUSH2 0x7C4 JUMP JUMPDEST JUMPDEST PUSH2 0xD24 DUP7 DUP3 DUP8 ADD PUSH2 0xC8A JUMP JUMPDEST SWAP3 POP POP PUSH1 0x40 DUP5 ADD CALLDATALOAD PUSH8 0xFFFFFFFFFFFFFFFF DUP2 GT ISZERO PUSH2 0xD45 JUMPI PUSH2 0xD44 PUSH2 0x7C4 JUMP JUMPDEST JUMPDEST PUSH2 0xD51 DUP7 DUP3 DUP8 ADD PUSH2 0xC8A JUMP JUMPDEST SWAP2 POP POP SWAP3 POP SWAP3 POP SWAP3 JUMP JUMPDEST PUSH32 0x4E487B7100000000000000000000000000000000000000000000000000000000 PUSH0 MSTORE PUSH1 0x32 PUSH1 0x4 MSTORE PUSH1 0x24 PUSH0 REVERT JUMPDEST PUSH32 0x4E487B7100000000000000000000000000000000000000000000000000000000 PUSH0 MSTORE PUSH1 0x22 PUSH1 0x4 MSTORE PUSH1 0x24 PUSH0 REVERT JUMPDEST PUSH0 PUSH1 0x2 DUP3 DIV SWAP1 POP PUSH1 0x1 DUP3 AND DUP1 PUSH2 0xDCC JUMPI PUSH1 0x7F DUP3 AND SWAP2 POP JUMPDEST PUSH1 0x20 DUP3 LT DUP2 SUB PUSH2 0xDDF JUMPI PUSH2 0xDDE PUSH2 0xD88 JUMP JUMPDEST JUMPDEST POP SWAP2 SWAP1 POP JUMP JUMPDEST PUSH0 DUP2 PUSH1 0x60 SHL SWAP1 POP SWAP2 SWAP1 POP JUMP JUMPDEST PUSH0 PUSH2 0xDFB DUP3 PUSH2 0xDE5 JUMP JUMPDEST SWAP1 POP SWAP2 SWAP1 POP JUMP JUMPDEST PUSH0 PUSH2 0xE0C DUP3 PUSH2 0xDF1 JUMP JUMPDEST SWAP1 POP SWAP2 SWAP1 POP JUMP JUMPDEST PUSH2 0xE24 PUSH2 0xE1F DUP3 PUSH2 0x7E7 JUMP JUMPDEST PUSH2 0xE02 JUMP JUMPDEST DUP3 MSTORE POP POP JUMP JUMPDEST PUSH0 DUP2 SWAP1 POP SWAP2 SWAP1 POP JUMP JUMPDEST PUSH2 0xE44 PUSH2 0xE3F DUP3 PUSH2 0x8FE JUMP JUMPDEST PUSH2 0xE2A JUMP JUMPDEST DUP3 MSTORE POP POP JUMP JUMPDEST PUSH0 DUP2 SWAP1 POP SWAP3 SWAP2 POP POP JUMP JUMPDEST PUSH0 PUSH2 0xE5E DUP3 PUSH2 0x88E JUMP JUMPDEST PUSH2 0xE68 DUP2 DUP6 PUSH2 0xE4A JUMP JUMPDEST SWAP4 POP PUSH2 0xE78 DUP2 DUP6 PUSH1 0x20 DUP7 ADD PUSH2 0x8A8 JUMP JUMPDEST DUP1 DUP5 ADD SWAP2 POP POP SWAP3 SWAP2 POP POP JUMP JUMPDEST PUSH0 PUSH2 0xE8F DUP3 DUP8 PUSH2 0xE13 JUMP JUMPDEST PUSH1 0x14 DUP3 ADD SWAP2 POP PUSH2 0xE9F DUP3 DUP7 PUSH2 0xE33 JUMP JUMPDEST PUSH1 0x20 DUP3 ADD SWAP2 POP PUSH2 0xEAF DUP3 DUP6 PUSH2 0xE54 JUMP JUMPDEST SWAP2 POP PUSH2 0xEBB DUP3 DUP5 PUSH2 0xE54 JUMP JUMPDEST SWAP2 POP DUP2 SWAP1 POP SWAP6 SWAP5 POP POP POP POP POP JUMP JUMPDEST PUSH0 DUP2 SWAP1 POP DUP2 PUSH0 MSTORE PUSH1 0x20 PUSH0 KECCAK256 SWAP1 POP SWAP2 SWAP1 POP JUMP JUMPDEST PUSH0 PUSH1 0x20 PUSH1 0x1F DUP4 ADD DIV SWAP1 POP SWAP2 SWAP1 POP JUMP JUMPDEST PUSH0 DUP3 DUP3 SHL SWAP1 POP SWAP3 SWAP2 POP POP JUMP JUMPDEST PUSH0 PUSH1 0x8 DUP4 MUL PUSH2 0xF25 PUSH32 0xFFFFFFFFFFFFFFFFFFFFFFFFFFFFFFFFFFFFFFFFFFFFFFFFFFFFFFFFFFFFFFFF DUP3 PUSH2 0xEEA JUMP JUMPDEST PUSH2 0xF2F DUP7 DUP4 PUSH2 0xEEA JUMP JUMPDEST SWAP6 POP DUP1 NOT DUP5 AND SWAP4 POP DUP1 DUP7 AND DUP5 OR SWAP3 POP POP POP SWAP4 SWAP3 POP POP POP JUMP JUMPDEST PUSH0 DUP2 SWAP1 POP SWAP2 SWAP1 POP JUMP JUMPDEST PUSH0 PUSH2 0xF6A PUSH2 0xF65 PUSH2 0xF60 DUP5 PUSH2 0x8FE JUMP JUMPDEST PUSH2 0xF47 JUMP JUMPDEST PUSH2 0x8FE JUMP JUMPDEST SWAP1 POP SWAP2 SWAP1 POP JUMP JUMPDEST PUSH0 DUP2 SWAP1 POP SWAP2 SWAP1 POP JUMP JUMPDEST PUSH2 0xF83 DUP4 PUSH2 0xF50 JUMP JUMPDEST PUSH2 0xF97 PUSH2 0xF8F DUP3 PUSH2 0xF71 JUMP JUMPDEST DUP5 DUP5 SLOAD PUSH2 0xEF6 JUMP JUMPDEST DUP3 SSTORE POP POP POP POP JUMP JUMPDEST PUSH0 PUSH0 SWAP1 POP SWAP1 JUMP JUMPDEST PUSH2 0xFAE PUSH2 0xF9F JUMP JUMPDEST PUSH2 0xFB9 DUP2 DUP5 DUP5 PUSH2 0xF7A JUMP JUMPDEST POP POP POP JUMP JUMPDEST JUMPDEST DUP2 DUP2 LT ISZERO PUSH2 0xFDC JUMPI PUSH2 0xFD1 PUSH0 DUP3 PUSH2 0xFA6 JUMP JUMPDEST PUSH1 0x1 DUP2 ADD SWAP1 POP PUSH2 0xFBF JUMP JUMPDEST POP POP JUMP JUMPDEST PUSH1 0x1F DUP3 GT ISZERO PUSH2 0x1021 JUMPI PUSH2 0xFF2 DUP2 PUSH2 0xEC9 JUMP JUMPDEST PUSH2 0xFFB DUP5 PUSH2 0xEDB JUMP JUMPDEST DUP2 ADD PUSH1 0x20 DUP6 LT ISZERO PUSH2 0x100A JUMPI DUP2 SWAP1 POP JUMPDEST PUSH2 0x101E PUSH2 0x1016 DUP6 PUSH2 0xEDB JUMP JUMPDEST DUP4 ADD DUP3 PUSH2 0xFBE JUMP JUMPDEST POP POP JUMPDEST POP POP POP JUMP JUMPDEST PUSH0 DUP3 DUP3 SHR SWAP1 POP SWAP3 SWAP2 POP POP JUMP JUMPDEST PUSH0 PUSH2 0x1041 PUSH0 NOT DUP5 PUSH1 0x8 MUL PUSH2 0x1026 JUMP JUMPDEST NOT DUP1 DUP4 AND SWAP2 POP POP SWAP3 SWAP2 POP POP JUMP JUMPDEST PUSH0 PUSH2 0x1059 DUP4 DUP4 PUSH2 0x1032 JUMP JUMPDEST SWAP2 POP DUP3 PUSH1 0x2 MUL DUP3 OR SWAP1 POP SWAP3 SWAP2 POP POP JUMP JUMPDEST PUSH2 0x1072 DUP3 PUSH2 0x88E JUMP JUMPDEST PUSH8 0xFFFFFFFFFFFFFFFF DUP2 GT ISZERO PUSH2 0x108B JUMPI PUSH2 0x108A PUSH2 0xB93 JUMP JUMPDEST JUMPDEST PUSH2 0x1095 DUP3 SLOAD PUSH2 0xDB5 JUMP JUMPDEST PUSH2 0x10A0 DUP3 DUP3 DUP6 PUSH2 0xFE0 JUMP JUMPDEST PUSH0 PUSH1 0x20 SWAP1 POP PUSH1 0x1F DUP4 GT PUSH1 0x1 DUP2 EQ PUSH2 0x10D1 JUMPI PUSH0 DUP5 ISZERO PUSH2 0x10BF JUMPI DUP3 DUP8 ADD MLOAD SWAP1 POP JUMPDEST PUSH2 0x10C9 DUP6 DUP3 PUSH2 0x104E JUMP JUMPDEST DUP7 SSTORE POP PUSH2 0x1130 JUMP JUMPDEST PUSH1 0x1F NOT DUP5 AND PUSH2 0x10DF DUP7 PUSH2 0xEC9 JUMP JUMPDEST PUSH0 JUMPDEST DUP3 DUP2 LT ISZERO PUSH2 0x1106 JUMPI DUP5 DUP10 ADD MLOAD DUP3 SSTORE PUSH1 0x1 DUP3 ADD SWAP2 POP PUSH1 0x20 DUP6 ADD SWAP5 POP PUSH1 0x20 DUP2 ADD SWAP1 POP PUSH2 0x10E1 JUMP JUMPDEST DUP7 DUP4 LT ISZERO PUSH2 0x1123 JUMPI DUP5 DUP10 ADD MLOAD PUSH2 0x111F PUSH1 0x1F DUP10 AND DUP3 PUSH2 0x1032 JUMP JUMPDEST DUP4 SSTORE POP JUMPDEST PUSH1 0x1 PUSH1 0x2 DUP9 MUL ADD DUP9 SSTORE POP POP POP JUMPDEST POP POP POP POP POP POP JUMP JUMPDEST PUSH0 DUP3 DUP3 MSTORE PUSH1 0x20 DUP3 ADD SWAP1 POP SWAP3 SWAP2 POP POP JUMP JUMPDEST PUSH0 PUSH2 0x1152 DUP3 PUSH2 0x88E JUMP JUMPDEST PUSH2 0x115C DUP2 DUP6 PUSH2 0x1138 JUMP JUMPDEST SWAP4 POP PUSH2 0x116C DUP2 DUP6 PUSH1 0x20 DUP7 ADD PUSH2 0x8A8 JUMP JUMPDEST PUSH2 0x1175 DUP2 PUSH2 0x8B6 JUMP JUMPDEST DUP5 ADD SWAP2 POP POP SWAP3 SWAP2 POP POP JUMP JUMPDEST PUSH2 0x1189 DUP2 PUSH2 0x8FE JUMP JUMPDEST DUP3 MSTORE POP POP JUMP JUMPDEST PUSH0 PUSH1 0x60 DUP3 ADD SWAP1 POP DUP2 DUP2 SUB PUSH0 DUP4 ADD MSTORE PUSH2 0x11A7 DUP2 DUP7 PUSH2 0x1148 JUMP JUMPDEST SWAP1 POP DUP2 DUP2 SUB PUSH1 0x20 DUP4 ADD MSTORE PUSH2 0x11BB DUP2 DUP6 PUSH2 0x1148 JUMP JUMPDEST SWAP1 POP PUSH2 0x11CA PUSH1 0x40 DUP4 ADD DUP5 PUSH2 0x1180 JUMP JUMPDEST SWAP5 SWAP4 POP POP POP POP JUMP INVALID LOG2 PUSH5 0x6970667358 0x22 SLT KECCAK256 0xB9 SLT 0x28 0xB8 SHL SWAP7 0xEA BLOCKHASH 0xC 0x1E PUSH26 0x3125C28E5C1E76004DE8240E6F1911CA70E1C4219C64736F6C63 NUMBER STOP ADDMOD 0x1E STOP CALLER "
				},
				"gasEstimates": {
					"creation": {
						"codeDepositCost": "923200",
						"executionCost": "960",
						"totalCost": "924160"
					},
					"external": {
						"createPost(string,string,string)": "infinite",
						"getAllPostsOfUser(address)": "infinite",
						"getPostById(bytes32)": "infinite"
					}
				},
				"methodIdentifiers": {
					"createPost(string,string,string)": "e8a4a1eb",
					"getAllPostsOfUser(address)": "2cfdcc6b",
					"getPostById(bytes32)": "ae362ff9"
				}
			},
			"storageLayout": {
				"storage": [
					{
						"astId": 21,
						"contract": "contracts/My_blog_App.sol:MyblogApp",
						"label": "userPosts",
						"offset": 0,
						"slot": "0",
						"type": "t_mapping(t_address,t_array(t_bytes32)dyn_storage)"
					},
					{
						"astId": 26,
						"contract": "contracts/My_blog_App.sol:MyblogApp",
						"label": "posts",
						"offset": 0,
						"slot": "1",
						"type": "t_mapping(t_bytes32,t_struct(Post)16_storage)"
					}
				],
				"types": {
					"t_address": {
						"encoding": "inplace",
						"label": "address",
						"numberOfBytes": "20"
					},
					"t_array(t_bytes32)dyn_storage": {
						"base": "t_bytes32",
						"encoding": "dynamic_array",
						"label": "bytes32[]",
						"numberOfBytes": "32"
					},
					"t_bytes32": {
						"encoding": "inplace",
						"label": "bytes32",
						"numberOfBytes": "32"
					},
					"t_mapping(t_address,t_array(t_bytes32)dyn_storage)": {
						"encoding": "mapping",
						"key": "t_address",
						"label": "mapping(address => bytes32[])",
						"numberOfBytes": "32",
						"value": "t_array(t_bytes32)dyn_storage"
					},
					"t_mapping(t_bytes32,t_struct(Post)16_storage)": {
						"encoding": "mapping",
						"key": "t_bytes32",
						"label": "mapping(bytes32 => struct MyblogApp.Post)",
						"numberOfBytes": "32",
						"value": "t_struct(Post)16_storage"
					},
					"t_string_storage": {
						"encoding": "bytes",
						"label": "string",
						"numberOfBytes": "32"
					},
					"t_struct(Post)16_storage": {
						"encoding": "inplace",
						"label": "struct MyblogApp.Post",
						"members": [
							{
								"astId": 3,
								"contract": "contracts/My_blog_App.sol:MyblogApp",
								"label": "id",
								"offset": 0,
								"slot": "0",
								"type": "t_bytes32"
							},
							{
								"astId": 5,
								"contract": "contracts/My_blog_App.sol:MyblogApp",
								"label": "author",
								"offset": 0,
								"slot": "1",
								"type": "t_string_storage"
							},
							{
								"astId": 7,
								"contract": "contracts/My_blog_App.sol:MyblogApp",
								"label": "title",
								"offset": 0,
								"slot": "2",
								"type": "t_string_storage"
							},
							{
								"astId": 9,
								"contract": "contracts/My_blog_App.sol:MyblogApp",
								"label": "contentHash",
								"offset": 0,
								"slot": "3",
								"type": "t_string_storage"
							},
							{
								"astId": 11,
								"contract": "contracts/My_blog_App.sol:MyblogApp",
								"label": "upvote",
								"offset": 0,
								"slot": "4",
								"type": "t_uint256"
							},
							{
								"astId": 13,
								"contract": "contracts/My_blog_App.sol:MyblogApp",
								"label": "downvote",
								"offset": 0,
								"slot": "5",
								"type": "t_uint256"
							},
							{
								"astId": 15,
								"contract": "contracts/My_blog_App.sol:MyblogApp",
								"label": "timestamp",
								"offset": 0,
								"slot": "6",
								"type": "t_uint256"
							}
						],
						"numberOfBytes": "224"
					},
					"t_uint256": {
						"encoding": "inplace",
						"label": "uint256",
						"numberOfBytes": "32"
					}
				}
			},
			"userdoc": {
				"kind": "user",
				"methods": {},
				"version": 1
			}
		}
	}
}